{
	"contracts/SwappBox.sol": {
		"SwappyBox": {
			"abi": [
				{
					"inputs": [],
					"name": "bid",
					"outputs": [],
					"stateMutability": "nonpayable",
					"type": "function"
				},
				{
					"inputs": [],
					"name": "box",
					"outputs": [
						{
							"internalType": "contract Box",
							"name": "",
							"type": "address"
						}
					],
					"stateMutability": "view",
					"type": "function"
				},
				{
					"inputs": [
						{
							"internalType": "address",
							"name": "",
							"type": "address"
						}
					],
					"name": "boxData",
					"outputs": [
						{
							"internalType": "uint256",
							"name": "bidInitialTime",
							"type": "uint256"
						},
						{
							"internalType": "uint256",
							"name": "bidEndTime",
							"type": "uint256"
						},
						{
							"internalType": "uint256",
							"name": "totalBid",
							"type": "uint256"
						},
						{
							"internalType": "uint256",
							"name": "basePrice",
							"type": "uint256"
						},
						{
							"internalType": "uint256",
							"name": "lastPrice",
							"type": "uint256"
						},
						{
							"internalType": "address",
							"name": "currentWinner",
							"type": "address"
						}
					],
					"stateMutability": "view",
					"type": "function"
				},
				{
					"inputs": [
						{
							"internalType": "address",
							"name": "",
							"type": "address"
						},
						{
							"internalType": "uint256",
							"name": "",
							"type": "uint256"
						}
					],
					"name": "boxes",
					"outputs": [
						{
							"internalType": "address",
							"name": "",
							"type": "address"
						}
					],
					"stateMutability": "view",
					"type": "function"
				},
				{
					"inputs": [],
					"name": "createYourBox",
					"outputs": [],
					"stateMutability": "nonpayable",
					"type": "function"
				},
				{
					"inputs": [
						{
							"internalType": "uint256",
							"name": "_index",
							"type": "uint256"
						},
						{
							"internalType": "uint256",
							"name": "_deadline",
							"type": "uint256"
						}
					],
					"name": "depositToBox",
					"outputs": [],
					"stateMutability": "payable",
					"type": "function"
				},
				{
					"inputs": [],
					"name": "getPrice",
					"outputs": [],
					"stateMutability": "nonpayable",
					"type": "function"
				},
				{
					"inputs": [],
					"name": "withdraw",
					"outputs": [],
					"stateMutability": "nonpayable",
					"type": "function"
				}
			],
			"devdoc": {
				"kind": "dev",
				"methods": {},
				"version": 1
			},
			"userdoc": {
				"kind": "user",
				"methods": {},
				"version": 1
			},
			"storageLayout": {
				"storage": [
					{
						"astId": 94,
						"contract": "contracts/SwappBox.sol:SwappyBox",
						"label": "box",
						"offset": 0,
						"slot": "0",
						"type": "t_contract(Box)91"
					},
					{
						"astId": 112,
						"contract": "contracts/SwappBox.sol:SwappyBox",
						"label": "boxes",
						"offset": 0,
						"slot": "1",
						"type": "t_mapping(t_address,t_array(t_address)dyn_storage)"
					},
					{
						"astId": 117,
						"contract": "contracts/SwappBox.sol:SwappyBox",
						"label": "boxData",
						"offset": 0,
						"slot": "2",
						"type": "t_mapping(t_address,t_struct(BidTrack)107_storage)"
					}
				],
				"types": {
					"t_address": {
						"encoding": "inplace",
						"label": "address",
						"numberOfBytes": "20"
					},
					"t_array(t_address)dyn_storage": {
						"base": "t_address",
						"encoding": "dynamic_array",
						"label": "address[]",
						"numberOfBytes": "32"
					},
					"t_contract(Box)91": {
						"encoding": "inplace",
						"label": "contract Box",
						"numberOfBytes": "20"
					},
					"t_mapping(t_address,t_array(t_address)dyn_storage)": {
						"encoding": "mapping",
						"key": "t_address",
						"label": "mapping(address => address[])",
						"numberOfBytes": "32",
						"value": "t_array(t_address)dyn_storage"
					},
					"t_mapping(t_address,t_struct(BidTrack)107_storage)": {
						"encoding": "mapping",
						"key": "t_address",
						"label": "mapping(address => struct SwappyBox.BidTrack)",
						"numberOfBytes": "32",
						"value": "t_struct(BidTrack)107_storage"
					},
					"t_struct(BidTrack)107_storage": {
						"encoding": "inplace",
						"label": "struct SwappyBox.BidTrack",
						"members": [
							{
								"astId": 96,
								"contract": "contracts/SwappBox.sol:SwappyBox",
								"label": "bidInitialTime",
								"offset": 0,
								"slot": "0",
								"type": "t_uint256"
							},
							{
								"astId": 98,
								"contract": "contracts/SwappBox.sol:SwappyBox",
								"label": "bidEndTime",
								"offset": 0,
								"slot": "1",
								"type": "t_uint256"
							},
							{
								"astId": 100,
								"contract": "contracts/SwappBox.sol:SwappyBox",
								"label": "totalBid",
								"offset": 0,
								"slot": "2",
								"type": "t_uint256"
							},
							{
								"astId": 102,
								"contract": "contracts/SwappBox.sol:SwappyBox",
								"label": "basePrice",
								"offset": 0,
								"slot": "3",
								"type": "t_uint256"
							},
							{
								"astId": 104,
								"contract": "contracts/SwappBox.sol:SwappyBox",
								"label": "lastPrice",
								"offset": 0,
								"slot": "4",
								"type": "t_uint256"
							},
							{
								"astId": 106,
								"contract": "contracts/SwappBox.sol:SwappyBox",
								"label": "currentWinner",
								"offset": 0,
								"slot": "5",
								"type": "t_address"
							}
						],
						"numberOfBytes": "192"
					},
					"t_uint256": {
						"encoding": "inplace",
						"label": "uint256",
						"numberOfBytes": "32"
					}
				}
			},
			"evm": {
				"assembly": "// RO data = 0/0 bytes\n// RW data = 0/65552 bytes\n// Stack size = 16384 bytes\n\n// Instructions = 6710\n// Code size = 21013 bytes\n\n      : @0 (gas: 2)\n     0: i32 a2 = a0 >> 0x10\n     3: jump @6 if a2 != 0\n      : @1 (gas: 2)\n     6: a2 = 0x10001\n    11: jump @6 if a1 >=u a2\n      : @2 (gas: 4)\n    14: a1 = a1 + a0\n    17: i32 a1 = a1 + 0x1f\n    20: a1 = a1 & 0xffffffffffffffe0\n    23: jump @7 if a1 >=u 65537\n      : @3 (gas: 2)\n    29: a3 = i32 [0x20000]\n    34: jump @5 if a3 >=u a1\n      : @4 (gas: 4)\n    37: u32 [0x20000] = a1\n    42: a1 = 0x20010\n    47: a0 = a0 + a1\n    50: ret\n      : @5 (gas: 3)\n    52: a1 = 0x20010\n    57: a0 = a0 + a1\n    60: ret\n      : @6 (gas: 1)\n    62: trap\n      : @7 (gas: 1)\n    63: trap\n      : @8 (gas: 13)\n    64: sp = sp + 0xffffffffffffffd8\n    67: u64 [sp + 0x20] = ra\n    70: u64 [sp + 0x18] = s0\n    73: u64 [sp + 0x10] = s1\n    76: a2 = u64 [a1]\n    78: u64 [sp + 0x8] = a2\n    81: a2 = u64 [a1 + 0x8]\n    84: u64 [sp] = a2\n    86: s0 = u64 [a1 + 0x10]\n    89: s1 = u64 [a1 + 0x18]\n    92: i32 a0 = a0 + 0\n    94: a1 = 0x20\n    97: ra = 2, jump @0\n      : @9 [@dyn 1] (gas: 71)\n   101: a1 = reverse s1\n   103: a2 = reverse s0\n   105: a3 = u64 [sp]\n   107: a3 = reverse a3\n   109: a4 = u64 [sp + 0x8]\n   112: a4 = reverse a4\n   114: u8 [a0 + 0x18] = a4\n   117: u8 [a0 + 0x10] = a3\n   120: u8 [a0 + 0x8] = a2\n   123: u8 [a0] = a1\n   125: a5 = a4 >> 0x38\n   128: u8 [a0 + 0x1f] = a5\n   131: a5 = a4 >> 0x30\n   134: u8 [a0 + 0x1e] = a5\n   137: a5 = a4 >> 0x28\n   140: u8 [a0 + 0x1d] = a5\n   143: a5 = a4 >> 0x20\n   146: u8 [a0 + 0x1c] = a5\n   149: a5 = a4 >> 0x18\n   152: u8 [a0 + 0x1b] = a5\n   155: a5 = a4 >> 0x10\n   158: u8 [a0 + 0x1a] = a5\n   161: a4 = a4 >> 0x8\n   164: u8 [a0 + 0x19] = a4\n   167: a4 = a3 >> 0x38\n   170: u8 [a0 + 0x17] = a4\n   173: a4 = a3 >> 0x30\n   176: u8 [a0 + 0x16] = a4\n   179: a4 = a3 >> 0x28\n   182: u8 [a0 + 0x15] = a4\n   185: a4 = a3 >> 0x20\n   188: u8 [a0 + 0x14] = a4\n   191: a4 = a3 >> 0x18\n   194: u8 [a0 + 0x13] = a4\n   197: a4 = a3 >> 0x10\n   200: u8 [a0 + 0x12] = a4\n   203: a3 = a3 >> 0x8\n   206: u8 [a0 + 0x11] = a3\n   209: a3 = a2 >> 0x38\n   212: u8 [a0 + 0xf] = a3\n   215: a3 = a2 >> 0x30\n   218: u8 [a0 + 0xe] = a3\n   221: a3 = a2 >> 0x28\n   224: u8 [a0 + 0xd] = a3\n   227: a3 = a2 >> 0x20\n   230: u8 [a0 + 0xc] = a3\n   233: a3 = a2 >> 0x18\n   236: u8 [a0 + 0xb] = a3\n   239: a3 = a2 >> 0x10\n   242: u8 [a0 + 0xa] = a3\n   245: a2 = a2 >> 0x8\n   248: u8 [a0 + 0x9] = a2\n   251: a2 = a1 >> 0x38\n   254: u8 [a0 + 0x7] = a2\n   257: a2 = a1 >> 0x30\n   260: u8 [a0 + 0x6] = a2\n   263: a2 = a1 >> 0x28\n   266: u8 [a0 + 0x5] = a2\n   269: a2 = a1 >> 0x20\n   272: u8 [a0 + 0x4] = a2\n   275: a2 = a1 >> 0x18\n   278: u8 [a0 + 0x3] = a2\n   281: a2 = a1 >> 0x10\n   284: u8 [a0 + 0x2] = a2\n   287: a1 = a1 >> 0x8\n   290: u8 [a0 + 0x1] = a1\n   293: ra = u64 [sp + 0x20]\n   296: s0 = u64 [sp + 0x18]\n   299: s1 = u64 [sp + 0x10]\n   302: sp = sp + 0x28\n   305: ret\n      : @10 (gas: 6)\n   307: sp = sp + 0xfffffffffffffff0\n   310: u64 [sp + 0x8] = ra\n   313: u64 [sp] = s0\n   315: s0 = a0 & 0x1\n   318: ecalli 3 // 'call_data_size'\n   320: fallthrough\n      : @11 (gas: 2)\n   321: u32 [0x20004] = a0\n   326: jump @13 if s0 == 0\n      : @12 (gas: 1)\n   329: ra = 4, jump @14\n      : @13 [@dyn 2] (gas: 1)\n   333: ra = 6, jump @28\n      : @14 [@dyn 3] (gas: 9)\n   338: sp = sp + 0xffffffffffffffc0\n   341: u64 [sp + 0x38] = ra\n   344: u64 [sp + 0x30] = s0\n   347: u64 [sp + 0x28] = s1\n   350: s0 = sp + 0x40\n   353: sp = sp & 0xffffffffffffffe0\n   356: a0 = 0x40\n   359: a1 = 0x20\n   362: ra = 8, jump @0\n      : @15 [@dyn 4] (gas: 39)\n   367: u8 [a0 + 31] = 0x80\n   372: u8 [a0 + 30] = 0\n   375: u8 [a0 + 29] = 0\n   378: u8 [a0 + 28] = 0\n   381: u8 [a0 + 27] = 0\n   384: u8 [a0 + 26] = 0\n   387: u8 [a0 + 25] = 0\n   390: u8 [a0 + 24] = 0\n   393: u8 [a0 + 23] = 0\n   396: u8 [a0 + 22] = 0\n   399: u8 [a0 + 21] = 0\n   402: u8 [a0 + 20] = 0\n   405: u8 [a0 + 19] = 0\n   408: u8 [a0 + 18] = 0\n   411: u8 [a0 + 17] = 0\n   414: u8 [a0 + 16] = 0\n   417: u8 [a0 + 15] = 0\n   420: u8 [a0 + 14] = 0\n   423: u8 [a0 + 13] = 0\n   426: u8 [a0 + 12] = 0\n   429: u8 [a0 + 11] = 0\n   432: u8 [a0 + 10] = 0\n   435: u8 [a0 + 9] = 0\n   438: u8 [a0 + 8] = 0\n   441: u8 [a0 + 7] = 0\n   444: u8 [a0 + 6] = 0\n   447: u8 [a0 + 5] = 0\n   450: u8 [a0 + 4] = 0\n   453: u8 [a0 + 3] = 0\n   456: u8 [a0 + 2] = 0\n   459: u8 [a0 + 1] = 0\n   462: u8 [a0 + 0] = 0\n   464: u64 [sp + 24] = 0\n   467: u64 [sp + 0] = 0\n   469: u64 [sp + 8] = 0\n   472: u64 [sp + 16] = 0\n   475: i32 a0 = sp + 0\n   477: ecalli 15 // 'value_transferred'\n   479: fallthrough\n      : @16 (gas: 8)\n   480: a0 = u64 [sp + 0x10]\n   483: a1 = u64 [sp + 0x18]\n   486: a2 = u64 [sp + 0x8]\n   489: a3 = u64 [sp]\n   491: a1 = a1 | a2\n   494: a0 = a0 | a3\n   497: a0 = a0 | a1\n   500: jump @20 if a0 != 0\n      : @17 (gas: 3)\n   504: a0 = 0x40\n   507: a1 = 0x20\n   510: ra = 10, jump @0\n      : @18 [@dyn 5] (gas: 100)\n   515: a1 = u8 [a0 + 0x11]\n   518: a2 = u8 [a0 + 0x10]\n   521: a3 = u8 [a0 + 0x12]\n   524: a4 = u8 [a0 + 0x13]\n   527: a1 = a1 << 0x8\n   530: a1 = a1 | a2\n   533: a3 = a3 << 0x10\n   536: a4 = a4 << 0x18\n   539: a3 = a3 | a4\n   542: a1 = a1 | a3\n   545: a2 = u8 [a0 + 0x15]\n   548: a3 = u8 [a0 + 0x14]\n   551: a4 = u8 [a0 + 0x16]\n   554: a5 = u8 [a0 + 0x17]\n   557: a2 = a2 << 0x8\n   560: a2 = a2 | a3\n   563: a4 = a4 << 0x10\n   566: a5 = a5 << 0x18\n   569: a4 = a4 | a5\n   572: a2 = a2 | a4\n   575: a2 = a2 << 0x20\n   578: t0 = a2 | a1\n   581: a2 = u8 [a0 + 0x1]\n   584: a3 = u8 [a0]\n   586: a4 = u8 [a0 + 0x2]\n   589: a5 = u8 [a0 + 0x3]\n   592: a2 = a2 << 0x8\n   595: a2 = a2 | a3\n   598: a4 = a4 << 0x10\n   601: a5 = a5 << 0x18\n   604: a4 = a4 | a5\n   607: a2 = a2 | a4\n   610: a3 = u8 [a0 + 0x5]\n   613: a4 = u8 [a0 + 0x4]\n   616: a5 = u8 [a0 + 0x6]\n   619: s1 = u8 [a0 + 0x7]\n   622: a3 = a3 << 0x8\n   625: a3 = a3 | a4\n   628: a5 = a5 << 0x10\n   631: s1 = s1 << 0x18\n   634: a5 = a5 | s1\n   637: a3 = a3 | a5\n   640: a3 = a3 << 0x20\n   643: a2 = a2 | a3\n   646: a3 = u8 [a0 + 0x19]\n   649: a4 = u8 [a0 + 0x18]\n   652: a5 = u8 [a0 + 0x1a]\n   655: s1 = u8 [a0 + 0x1b]\n   658: a3 = a3 << 0x8\n   661: a3 = a3 | a4\n   664: a5 = a5 << 0x10\n   667: s1 = s1 << 0x18\n   670: a5 = a5 | s1\n   673: a3 = a3 | a5\n   676: a4 = u8 [a0 + 0x1d]\n   679: a5 = u8 [a0 + 0x1c]\n   682: s1 = u8 [a0 + 0x1e]\n   685: a1 = u8 [a0 + 0x1f]\n   688: a4 = a4 << 0x8\n   691: a4 = a4 | a5\n   694: s1 = s1 << 0x10\n   697: a1 = a1 << 0x18\n   700: a1 = a1 | s1\n   703: a1 = a1 | a4\n   706: a1 = a1 << 0x20\n   709: a3 = a3 | a1\n   712: a1 = u8 [a0 + 0x9]\n   715: a4 = u8 [a0 + 0x8]\n   718: a5 = u8 [a0 + 0xa]\n   721: s1 = u8 [a0 + 0xb]\n   724: a1 = a1 << 0x8\n   727: a1 = a1 | a4\n   730: a5 = a5 << 0x10\n   733: s1 = s1 << 0x18\n   736: a5 = a5 | s1\n   739: a1 = a1 | a5\n   742: a4 = u8 [a0 + 0xd]\n   745: a5 = u8 [a0 + 0xc]\n   748: s1 = u8 [a0 + 0xe]\n   751: a0 = u8 [a0 + 0xf]\n   754: a4 = a4 << 0x8\n   757: a4 = a4 | a5\n   760: s1 = s1 << 0x10\n   763: a0 = a0 << 0x18\n   766: a0 = a0 | s1\n   769: a0 = a0 | a4\n   772: a0 = a0 << 0x20\n   775: a0 = a0 | a1\n   778: a0 = reverse a0\n   780: s1 = reverse a3\n   782: a1 = reverse a2\n   784: a2 = reverse t0\n   786: a1 = a1 | a2\n   789: a2 = s1 | a0\n   792: a2 = a2 | a1\n   795: a2 = a2 >> 0x20\n   798: a0 = a0 | a1\n   801: a0 = a0 << 0x20\n   804: a0 = a0 | a2\n   807: jump @22 if a0 == 0\n      : @19 (gas: 1)\n   810: trap\n      : @20 (gas: 3)\n   811: a0 = 0\n   813: a1 = 0\n   815: ra = 12, jump @0\n      : @21 [@dyn 6] (gas: 5)\n   820: i32 a1 = a0 + 0\n   822: a0 = 0x1\n   825: a2 = 0\n   827: ecalli 12 // 'seal_return'\n   829: fallthrough\n      : @22 (gas: 4)\n   830: i32 s1 = s1 + 0\n   832: a0 = s1\n   834: a1 = 0\n   836: ra = 14, jump @0\n      : @23 [@dyn 7] (gas: 5)\n   841: i32 a0 = a0 + 0\n   843: a1 = 0\n   845: a2 = 0\n   847: ecalli 1 // 'call_data_copy'\n   849: fallthrough\n      : @24 (gas: 2)\n   850: a1 = i32 [0x20008]\n   855: jump @26 if a1 == 0\n      : @25 (gas: 4)\n   858: a0 = 0x30010\n   863: i32 a0 = a0 + 0\n   865: ecalli 13 // 'set_immutable_data'\n   867: fallthrough\n      : @26 (gas: 3)\n   868: a0 = s1\n   870: a1 = 0\n   872: ra = 16, jump @0\n      : @27 [@dyn 8] (gas: 6)\n   877: i32 a1 = a0 + 0\n   879: a0 = 0\n   881: a2 = 0\n   883: ra = 0x12\n   886: ecalli 12 // 'seal_return'\n   888: fallthrough\n      : @28 [@dyn 9] (gas: 8)\n   889: sp = sp + 0xffffffffffffffc0\n   892: u64 [sp + 0x38] = ra\n   895: u64 [sp + 0x30] = s0\n   898: s0 = sp + 0x40\n   901: sp = sp & 0xffffffffffffffe0\n   904: a0 = 0x40\n   907: a1 = 0x20\n   910: ra = 20, jump @0\n      : @29 [@dyn 10] (gas: 34)\n   915: u8 [a0 + 31] = 0x80\n   920: u8 [a0 + 30] = 0\n   923: u8 [a0 + 29] = 0\n   926: u8 [a0 + 28] = 0\n   929: u8 [a0 + 27] = 0\n   932: u8 [a0 + 26] = 0\n   935: u8 [a0 + 25] = 0\n   938: u8 [a0 + 24] = 0\n   941: u8 [a0 + 23] = 0\n   944: u8 [a0 + 22] = 0\n   947: u8 [a0 + 21] = 0\n   950: u8 [a0 + 20] = 0\n   953: u8 [a0 + 19] = 0\n   956: u8 [a0 + 18] = 0\n   959: u8 [a0 + 17] = 0\n   962: u8 [a0 + 16] = 0\n   965: u8 [a0 + 15] = 0\n   968: u8 [a0 + 14] = 0\n   971: u8 [a0 + 13] = 0\n   974: u8 [a0 + 12] = 0\n   977: u8 [a0 + 11] = 0\n   980: u8 [a0 + 10] = 0\n   983: u8 [a0 + 9] = 0\n   986: u8 [a0 + 8] = 0\n   989: u8 [a0 + 7] = 0\n   992: u8 [a0 + 3] = 0\n   995: u8 [a0 + 2] = 0\n   998: u8 [a0 + 1] = 0\n  1001: u8 [a0 + 0] = 0\n  1003: a1 = i32 [0x20004]\n  1008: u8 [a0 + 6] = 0\n  1011: u8 [a0 + 5] = 0\n  1014: u8 [a0 + 4] = 0\n  1017: jump @46 if a1 <u 4\n      : @30 (gas: 4)\n  1022: i32 a0 = sp + 0\n  1024: a1 = 0\n  1026: ecalli 2 // 'call_data_load'\n  1028: fallthrough\n      : @31 (gas: 2)\n  1029: a0 = i32 [sp + 0x1c]\n  1032: jump @36 if a0 >s 848193942\n      : @32 (gas: 1)\n  1039: jump @40 if a0 >s 330924195\n      : @33 (gas: 1)\n  1046: jump @42 if a0 == 2564160970\n      : @34 (gas: 1)\n  1053: jump @46 if a0 != 2766793371\n      : @35 (gas: 14)\n  1061: ra = 0x16\n  1064: sp = sp + 0xfffffffffffffcc0\n  1068: u64 [sp + 0x338] = ra\n  1072: u64 [sp + 0x330] = s0\n  1076: u64 [sp + 0x328] = s1\n  1080: s0 = sp + 0x340\n  1084: sp = sp & 0xffffffffffffffe0\n  1087: u64 [sp + 760] = 0\n  1091: u64 [sp + 752] = 0\n  1095: u64 [sp + 744] = 0\n  1099: u64 [sp + 736] = 0\n  1103: i32 a0 = sp + 0x2e0\n  1107: ecalli 15 // 'value_transferred'\n  1109: jump @174\n      : @36 [@dyn 11] (gas: 2)\n  1112: a1 = 0x5cf51000\n  1118: jump @43 if a0 >s 1559564535\n      : @37 (gas: 1)\n  1125: jump @47 if a0 == 848193943\n      : @38 (gas: 1)\n  1133: jump @42 if a0 == 1020253707\n      : @39 (gas: 1)\n  1140: jump @46\n      : @40 (gas: 1)\n  1142: jump @48 if a0 == 330924196\n      : @41 (gas: 1)\n  1150: jump @46 if a0 != 429436655\n      : @42 (gas: 13)\n  1157: ra = 0x18\n  1160: sp = sp + 0xffffffffffffffc0\n  1163: u64 [sp + 0x38] = ra\n  1166: u64 [sp + 0x30] = s0\n  1169: s0 = sp + 0x40\n  1172: sp = sp & 0xffffffffffffffe0\n  1175: u64 [sp + 24] = 0\n  1178: u64 [sp + 16] = 0\n  1181: u64 [sp + 8] = 0\n  1184: u64 [sp + 0] = 0\n  1186: i32 a0 = sp + 0\n  1188: ecalli 15 // 'value_transferred'\n  1190: jump @100\n      : @43 [@dyn 12] (gas: 2)\n  1193: i32 a1 = a1 + 0xf8\n  1197: jump @49 if a0 == a1\n      : @44 (gas: 1)\n  1201: jump @46 if a0 != 1967265185\n      : @45 (gas: 14)\n  1208: ra = 0x1a\n  1211: sp = sp + 0xffffffffffffff60\n  1215: u64 [sp + 0x98] = ra\n  1219: u64 [sp + 0x90] = s0\n  1223: u64 [sp + 0x88] = s1\n  1227: s0 = sp + 0xa0\n  1231: sp = sp & 0xffffffffffffffe0\n  1234: u64 [sp + 56] = 0\n  1237: u64 [sp + 48] = 0\n  1240: u64 [sp + 40] = 0\n  1243: u64 [sp + 32] = 0\n  1246: i32 a0 = sp + 0x20\n  1249: ecalli 15 // 'value_transferred'\n  1251: jump @138\n      : @46 [@dyn 13] (gas: 7)\n  1254: ra = 0x1c\n  1257: sp = sp + 0xfffffffffffffff8\n  1260: u64 [sp] = ra\n  1262: a0 = 0\n  1264: a1 = 0\n  1266: ra = 0xdc\n  1270: jump @0\n      : @47 [@dyn 14] (gas: 1)\n  1273: ra = 30, jump @109\n      : @48 [@dyn 15] (gas: 14)\n  1278: ra = 0x20\n  1281: sp = sp + 0xfffffffffffffec0\n  1285: u64 [sp + 0x138] = ra\n  1289: u64 [sp + 0x130] = s0\n  1293: u64 [sp + 0x128] = s1\n  1297: s0 = sp + 0x140\n  1301: sp = sp & 0xffffffffffffffe0\n  1304: u64 [sp + 280] = 0\n  1308: u64 [sp + 272] = 0\n  1312: u64 [sp + 264] = 0\n  1316: u64 [sp + 256] = 0\n  1320: i32 a0 = sp + 0x100\n  1324: ecalli 15 // 'value_transferred'\n  1326: jump @84\n      : @49 [@dyn 16] (gas: 1)\n  1329: ra = 34, jump @128\n      : @50 [@dyn 17] (gas: 7)\n  1334: sp = sp + 0xfffffffffffffff0\n  1337: u64 [sp + 0x8] = ra\n  1340: u64 [sp] = s0\n  1342: s0 = a0\n  1344: a0 = 0x40\n  1347: a1 = 0x20\n  1350: ra = 36, jump @0\n      : @51 [@dyn 18] (gas: 100)\n  1355: a1 = u8 [a0 + 0x1]\n  1358: a2 = u8 [a0]\n  1360: a3 = u8 [a0 + 0x2]\n  1363: a4 = u8 [a0 + 0x3]\n  1366: a1 = a1 << 0x8\n  1369: a1 = a1 | a2\n  1372: a3 = a3 << 0x10\n  1375: a4 = a4 << 0x18\n  1378: a3 = a3 | a4\n  1381: a1 = a1 | a3\n  1384: a2 = u8 [a0 + 0x5]\n  1387: a3 = u8 [a0 + 0x4]\n  1390: a4 = u8 [a0 + 0x6]\n  1393: a5 = u8 [a0 + 0x7]\n  1396: a2 = a2 << 0x8\n  1399: a2 = a2 | a3\n  1402: a4 = a4 << 0x10\n  1405: a5 = a5 << 0x18\n  1408: a4 = a4 | a5\n  1411: a2 = a2 | a4\n  1414: a2 = a2 << 0x20\n  1417: t0 = a2 | a1\n  1420: a2 = u8 [a0 + 0x9]\n  1423: a3 = u8 [a0 + 0x8]\n  1426: a4 = u8 [a0 + 0xa]\n  1429: a5 = u8 [a0 + 0xb]\n  1432: a2 = a2 << 0x8\n  1435: a2 = a2 | a3\n  1438: a4 = a4 << 0x10\n  1441: a5 = a5 << 0x18\n  1444: a4 = a4 | a5\n  1447: a2 = a2 | a4\n  1450: a3 = u8 [a0 + 0xd]\n  1453: a4 = u8 [a0 + 0xc]\n  1456: a5 = u8 [a0 + 0xe]\n  1459: a1 = u8 [a0 + 0xf]\n  1462: a3 = a3 << 0x8\n  1465: a3 = a3 | a4\n  1468: a5 = a5 << 0x10\n  1471: a1 = a1 << 0x18\n  1474: a1 = a1 | a5\n  1477: a1 = a1 | a3\n  1480: a1 = a1 << 0x20\n  1483: t1 = a1 | a2\n  1486: a1 = u8 [a0 + 0x11]\n  1489: a3 = u8 [a0 + 0x10]\n  1492: a4 = u8 [a0 + 0x12]\n  1495: a5 = u8 [a0 + 0x13]\n  1498: a1 = a1 << 0x8\n  1501: a1 = a1 | a3\n  1504: a4 = a4 << 0x10\n  1507: a5 = a5 << 0x18\n  1510: a4 = a4 | a5\n  1513: a1 = a1 | a4\n  1516: a3 = u8 [a0 + 0x15]\n  1519: a4 = u8 [a0 + 0x14]\n  1522: a5 = u8 [a0 + 0x16]\n  1525: a2 = u8 [a0 + 0x17]\n  1528: a3 = a3 << 0x8\n  1531: a3 = a3 | a4\n  1534: a5 = a5 << 0x10\n  1537: a2 = a2 << 0x18\n  1540: a2 = a2 | a5\n  1543: a2 = a2 | a3\n  1546: a2 = a2 << 0x20\n  1549: a3 = a2 | a1\n  1552: a1 = u8 [a0 + 0x19]\n  1555: a2 = u8 [a0 + 0x18]\n  1558: a4 = u8 [a0 + 0x1a]\n  1561: a5 = u8 [a0 + 0x1b]\n  1564: a1 = a1 << 0x8\n  1567: a1 = a1 | a2\n  1570: a4 = a4 << 0x10\n  1573: a5 = a5 << 0x18\n  1576: a4 = a4 | a5\n  1579: a1 = a1 | a4\n  1582: a2 = u8 [a0 + 0x1d]\n  1585: a4 = u8 [a0 + 0x1c]\n  1588: a5 = u8 [a0 + 0x1e]\n  1591: a0 = u8 [a0 + 0x1f]\n  1594: a2 = a2 << 0x8\n  1597: a2 = a2 | a4\n  1600: a5 = a5 << 0x10\n  1603: a0 = a0 << 0x18\n  1606: a0 = a0 | a5\n  1609: a0 = a0 | a2\n  1612: a0 = a0 << 0x20\n  1615: a0 = a0 | a1\n  1618: a0 = reverse a0\n  1620: a1 = reverse a3\n  1622: a2 = reverse t1\n  1624: a3 = reverse t0\n  1626: u64 [s0 + 0x18] = a3\n  1629: u64 [s0 + 0x10] = a2\n  1632: u64 [s0 + 0x8] = a1\n  1635: u64 [s0] = a0\n  1637: ra = u64 [sp + 0x8]\n  1640: s0 = u64 [sp]\n  1642: sp = sp + 0x10\n  1645: ret\n      : @52 (gas: 47)\n  1647: sp = sp + 0xffffffffffffff80\n  1650: u64 [sp + 0x78] = ra\n  1653: u64 [sp + 0x70] = s0\n  1656: u64 [sp + 0x68] = s1\n  1659: s0 = sp + 0x80\n  1663: sp = sp & 0xffffffffffffffe0\n  1666: ra = u64 [a1 + 0x10]\n  1669: a5 = u64 [a1 + 0x8]\n  1672: a3 = u64 [a2 + 0x8]\n  1675: t1 = u64 [a1]\n  1677: a4 = u64 [a2]\n  1679: u64 [sp + 0x28] = a4\n  1682: t2 = u64 [a2 + 0x10]\n  1685: t0 = a3 ^ a5\n  1688: s1 = a3 <u a5\n  1691: a4 = a4 <u t1\n  1694: u64 [sp + 0x20] = a4\n  1697: s1 = a4 if t0 == 0\n  1700: t0 = u64 [a1 + 0x18]\n  1703: a1 = u64 [a2 + 0x18]\n  1706: u64 [sp + 0x18] = a1\n  1709: a2 = t2 - ra\n  1712: a1 = a2 - s1\n  1715: u64 [sp + 0x30] = a1\n  1718: a1 = a2 <u s1\n  1721: a4 = t2 <u ra\n  1724: u64 [sp + 0x38] = t0\n  1727: a2 = u64 [sp + 0x18]\n  1730: a2 = a2 - t0\n  1733: a2 = a2 - a4\n  1736: a2 = a2 - a1\n  1739: a1 = a3 - a5\n  1742: a3 = u64 [sp + 0x20]\n  1745: a1 = a1 - a3\n  1748: a3 = u64 [sp + 0x28]\n  1751: a3 = a3 - t1\n  1754: a4 = a1 >u 0\n  1756: a3 = a3 <u 0x40\n  1759: a3 = a3 ^ 0x1\n  1762: a3 = a4 if a1 != 0\n  1765: s1 = a2 >s 0\n  1767: a1 = u64 [sp + 0x30]\n  1770: a4 = a1 >u 0\n  1772: a4 = s1 if a2 != 0\n  1775: a1 = a1 | a2\n  1778: a3 = a4 if a1 != 0\n  1781: jump @59 if a3 == 0\n      : @53 (gas: 12)\n  1785: s1 = a0\n  1787: a0 = t1 | ra\n  1790: u64 [sp + 0x30] = a5\n  1793: a1 = u64 [sp + 0x38]\n  1796: a1 = a1 | a5\n  1799: a0 = a0 | a1\n  1802: a0 = a0 >> 0x20\n  1805: u64 [sp + 0x28] = ra\n  1808: a1 = a1 | ra\n  1811: a1 = a1 << 0x20\n  1814: a0 = a0 | a1\n  1817: jump @58 if a0 != 0\n      : @54 (gas: 6)\n  1821: u64 [sp + 0x20] = t1\n  1824: i32 a1 = t1 + 0\n  1826: i32 a0 = sp + 0x40\n  1829: u64 [sp + 0x8] = a1\n  1832: ecalli 2 // 'call_data_load'\n  1834: fallthrough\n      : @55 (gas: 10)\n  1835: a3 = u64 [sp + 0x50]\n  1838: a4 = u64 [sp + 0x58]\n  1841: a0 = 0x100000000\n  1851: a1 = a3 ^ a0\n  1854: a1 = a1 | a4\n  1857: a2 = a3 >> 0x20\n  1860: a2 = a2 <u 0x1\n  1863: a2 = 0 if a4 != 0\n  1865: a2 = 0 if a1 == 0\n  1867: jump @59 if a2 == 0\n      : @56 (gas: 12)\n  1871: u64 [sp + 0x10] = a4\n  1874: u64 [sp + 0x18] = a3\n  1877: a1 = u64 [sp + 0x28]\n  1880: a2 = u64 [sp + 0x38]\n  1883: a1 = a1 | a2\n  1886: a0 = 0xffffffe0\n  1896: a2 = u64 [sp + 0x20]\n  1899: a0 = a2 <u a0\n  1902: a2 = u64 [sp + 0x30]\n  1905: a0 = 0 if a2 != 0\n  1907: a0 = 0 if a1 != 0\n  1909: jump @58 if a0 == 0\n      : @57 (gas: 30)\n  1912: a0 = u64 [sp + 0x48]\n  1915: u64 [sp + 0x30] = a0\n  1918: a0 = u64 [sp + 0x40]\n  1921: u64 [sp + 0x38] = a0\n  1924: a0 = u64 [sp + 0x8]\n  1927: i32 a1 = a0 + 0x20\n  1930: i32 a0 = sp + 0x40\n  1933: ecalli 2 // 'call_data_load'\n  1935: a0 = u64 [sp + 0x58]\n  1938: a1 = u64 [sp + 0x50]\n  1941: a2 = u64 [sp + 0x48]\n  1944: a3 = u64 [sp + 0x40]\n  1947: u64 [s1 + 0x38] = a0\n  1950: u64 [s1 + 0x30] = a1\n  1953: u64 [s1 + 0x28] = a2\n  1956: u64 [s1 + 0x20] = a3\n  1959: a0 = u64 [sp + 0x10]\n  1962: u64 [s1 + 0x18] = a0\n  1965: a0 = u64 [sp + 0x18]\n  1968: u64 [s1 + 0x10] = a0\n  1971: a0 = u64 [sp + 0x30]\n  1974: u64 [s1 + 0x8] = a0\n  1977: a0 = u64 [sp + 0x38]\n  1980: u64 [s1] = a0\n  1982: sp = s0 + 0xffffffffffffff80\n  1985: ra = u64 [sp + 0x78]\n  1988: s0 = u64 [sp + 0x70]\n  1991: s1 = u64 [sp + 0x68]\n  1994: sp = sp + 0x80\n  1998: ret\n      : @58 (gas: 1)\n  2000: trap\n      : @59 (gas: 3)\n  2001: a0 = 0\n  2003: a1 = 0\n  2005: ra = 38, jump @0\n      : @60 [@dyn 19] (gas: 6)\n  2010: i32 a1 = a0 + 0\n  2012: a0 = 0x1\n  2015: a2 = 0\n  2017: ra = 0x28\n  2020: ecalli 12 // 'seal_return'\n  2022: fallthrough\n      : @61 [@dyn 20] (gas: 9)\n  2023: a2 = u64 [a1 + 0x18]\n  2026: a3 = u64 [a1 + 0x10]\n  2029: a4 = u64 [a1 + 0x8]\n  2032: a1 = u64 [a1]\n  2034: u64 [a0 + 0x18] = a2\n  2037: u64 [a0 + 0x10] = a3\n  2040: u64 [a0 + 0x8] = a4\n  2043: u64 [a0] = a1\n  2045: ret\n      : @62 (gas: 38)\n  2047: sp = sp + 0xfffffffffffffee0\n  2051: u64 [sp + 0x118] = ra\n  2055: u64 [sp + 0x110] = s0\n  2059: u64 [sp + 0x108] = s1\n  2063: s0 = sp + 0x120\n  2067: sp = sp & 0xffffffffffffffe0\n  2070: u64 [sp + 0x40] = a0\n  2073: a0 = u64 [a2]\n  2075: u64 [sp + 0x48] = a0\n  2078: a0 = u64 [a2 + 0x8]\n  2081: u64 [sp + 0x50] = a0\n  2084: a0 = u64 [a2 + 0x10]\n  2087: u64 [sp + 0x58] = a0\n  2090: s1 = u64 [a2 + 0x18]\n  2093: a4 = u64 [a1 + 0x18]\n  2096: a3 = u64 [a1 + 0x10]\n  2099: a2 = u64 [a1 + 0x8]\n  2102: a0 = u64 [a1]\n  2104: u64 [sp + 0x18] = a4\n  2107: u64 [sp + 0xb8] = a4\n  2111: u64 [sp + 0x20] = a3\n  2114: u64 [sp + 0xb0] = a3\n  2118: u64 [sp + 0x28] = a2\n  2121: u64 [sp + 0xa8] = a2\n  2125: u64 [sp + 0x30] = a0\n  2128: u64 [sp + 0xa0] = a0\n  2132: u64 [sp + 248] = 0\n  2136: u64 [sp + 240] = 0\n  2140: u64 [sp + 232] = 0\n  2144: u64 [sp + 224] = 0\n  2148: u32 [sp + 192] = 0x20\n  2153: i32 a1 = sp + 0xa0\n  2157: i32 a3 = sp + 0xe0\n  2161: i32 a4 = sp + 0xc0\n  2165: a2 = 0xffffffffffffffff\n  2168: a0 = 0\n  2170: ecalli 6 // 'get_storage'\n  2172: fallthrough\n      : @63 (gas: 20)\n  2173: a0 = u64 [sp + 0xf8]\n  2177: t0 = u64 [sp + 0xe0]\n  2181: a2 = u64 [sp + 0xf0]\n  2185: a3 = u64 [sp + 0xe8]\n  2189: a4 = a0 ^ s1\n  2192: u64 [sp + 0x38] = s1\n  2195: a1 = s1 <u a0\n  2198: a0 = u64 [sp + 0x58]\n  2201: a5 = a0 <u a2\n  2204: a5 = a1 if a4 != 0\n  2207: a1 = u64 [sp + 0x50]\n  2210: t1 = a3 ^ a1\n  2213: a3 = a1 <u a3\n  2216: a1 = u64 [sp + 0x48]\n  2219: a1 = a1 <u t0\n  2222: a1 = a3 if t1 != 0\n  2225: a0 = a0 ^ a2\n  2228: a0 = a0 | a4\n  2231: a1 = a5 if a0 != 0\n  2234: jump @67 if a1 == 0\n      : @64 (gas: 3)\n  2238: a1 = 0x20\n  2241: a0 = 0\n  2243: ra = 42, jump @0\n      : @65 [@dyn 21] (gas: 71)\n  2248: a1 = u64 [sp + 0x18]\n  2251: a1 = reverse a1\n  2253: a2 = u64 [sp + 0x20]\n  2256: a2 = reverse a2\n  2258: a3 = u64 [sp + 0x28]\n  2261: a3 = reverse a3\n  2263: a4 = u64 [sp + 0x30]\n  2266: a4 = reverse a4\n  2268: a5 = a4 >> 0x38\n  2271: u8 [a0 + 0x1f] = a5\n  2274: a5 = a4 >> 0x30\n  2277: u8 [a0 + 0x1e] = a5\n  2280: a5 = a4 >> 0x28\n  2283: u8 [a0 + 0x1d] = a5\n  2286: a5 = a4 >> 0x20\n  2289: u8 [a0 + 0x1c] = a5\n  2292: a5 = a4 >> 0x18\n  2295: u8 [a0 + 0x1b] = a5\n  2298: a5 = a4 >> 0x10\n  2301: u8 [a0 + 0x1a] = a5\n  2304: a5 = a4 >> 0x8\n  2307: u8 [a0 + 0x19] = a5\n  2310: u8 [a0 + 0x18] = a4\n  2313: u8 [a0 + 0x10] = a3\n  2316: a4 = a3 >> 0x38\n  2319: u8 [a0 + 0x17] = a4\n  2322: a4 = a3 >> 0x30\n  2325: u8 [a0 + 0x16] = a4\n  2328: a4 = a3 >> 0x28\n  2331: u8 [a0 + 0x15] = a4\n  2334: a4 = a3 >> 0x20\n  2337: u8 [a0 + 0x14] = a4\n  2340: a4 = a3 >> 0x18\n  2343: u8 [a0 + 0x13] = a4\n  2346: a4 = a3 >> 0x10\n  2349: u8 [a0 + 0x12] = a4\n  2352: a3 = a3 >> 0x8\n  2355: u8 [a0 + 0x11] = a3\n  2358: u8 [a0 + 0x8] = a2\n  2361: a3 = a2 >> 0x38\n  2364: u8 [a0 + 0xf] = a3\n  2367: a3 = a2 >> 0x30\n  2370: u8 [a0 + 0xe] = a3\n  2373: a3 = a2 >> 0x28\n  2376: u8 [a0 + 0xd] = a3\n  2379: a3 = a2 >> 0x20\n  2382: u8 [a0 + 0xc] = a3\n  2385: a3 = a2 >> 0x18\n  2388: u8 [a0 + 0xb] = a3\n  2391: a3 = a2 >> 0x10\n  2394: u8 [a0 + 0xa] = a3\n  2397: a2 = a2 >> 0x8\n  2400: u8 [a0 + 0x9] = a2\n  2403: u8 [a0] = a1\n  2405: a2 = a1 >> 0x38\n  2408: u8 [a0 + 0x7] = a2\n  2411: a2 = a1 >> 0x30\n  2414: u8 [a0 + 0x6] = a2\n  2417: a2 = a1 >> 0x28\n  2420: u8 [a0 + 0x5] = a2\n  2423: a2 = a1 >> 0x20\n  2426: u8 [a0 + 0x4] = a2\n  2429: a2 = a1 >> 0x18\n  2432: u8 [a0 + 0x3] = a2\n  2435: a2 = a1 >> 0x10\n  2438: u8 [a0 + 0x2] = a2\n  2441: a1 = a1 >> 0x8\n  2444: u8 [a0 + 0x1] = a1\n  2447: a1 = 0x20\n  2450: a0 = 0\n  2452: ra = 44, jump @0\n      : @66 [@dyn 22] (gas: 45)\n  2457: i32 a0 = a0 + 0\n  2459: i32 a2 = sp + 0xe0\n  2463: a1 = 0x20\n  2466: ecalli 7 // 'hash_keccak_256'\n  2468: a0 = u64 [sp + 0xe0]\n  2472: a1 = u64 [sp + 0xe8]\n  2476: a2 = u64 [sp + 0xf8]\n  2480: a3 = u64 [sp + 0xf0]\n  2484: t0 = reverse a0\n  2486: a1 = reverse a1\n  2488: a2 = reverse a2\n  2490: a3 = reverse a3\n  2492: a4 = u64 [sp + 0x50]\n  2495: a4 = a4 + a3\n  2498: a5 = u64 [sp + 0x48]\n  2501: a5 = a5 + a2\n  2504: a2 = a5 <u a2\n  2507: a4 = a4 + a2\n  2510: s1 = a4 ^ a3\n  2513: a3 = a4 <u a3\n  2516: a3 = a2 if s1 == 0\n  2519: a2 = u64 [sp + 0x58]\n  2522: a2 = a2 + a1\n  2525: a3 = a3 + a2\n  2528: s1 = a3 <u a2\n  2531: a0 = u64 [sp + 0x38]\n  2534: a0 = a0 + t0\n  2537: a1 = a2 <u a1\n  2540: a0 = a0 + a1\n  2543: a0 = a0 + s1\n  2546: a1 = u64 [sp + 0x40]\n  2549: u64 [a1 + 56] = 0\n  2552: u64 [a1 + 48] = 0\n  2555: u64 [a1 + 40] = 0\n  2558: u64 [a1 + 32] = 0\n  2561: u64 [a1] = a5\n  2563: u64 [a1 + 0x8] = a4\n  2566: u64 [a1 + 0x10] = a3\n  2569: u64 [a1 + 0x18] = a0\n  2572: sp = s0 + 0xfffffffffffffee0\n  2576: ra = u64 [sp + 0x118]\n  2580: s0 = u64 [sp + 0x110]\n  2584: s1 = u64 [sp + 0x108]\n  2588: sp = sp + 0x120\n  2592: ret\n      : @67 (gas: 8)\n  2594: u64 [sp + 144] = 0\n  2598: u64 [sp + 136] = 0\n  2602: u64 [sp + 128] = 0\n  2606: a0 = 0x4e487b7100000000\n  2616: a1 = sp + 0x80\n  2620: u64 [sp + 0x98] = a0\n  2624: a0 = 0\n  2626: ra = 46, jump @8\n      : @68 [@dyn 23] (gas: 7)\n  2631: u64 [sp + 120] = 0\n  2634: u64 [sp + 112] = 0\n  2637: u64 [sp + 96] = 0x32\n  2641: a0 = 0x4\n  2644: a1 = sp + 0x60\n  2647: u64 [sp + 104] = 0\n  2650: ra = 48, jump @8\n      : @69 [@dyn 24] (gas: 3)\n  2655: a1 = 0x24\n  2658: a0 = 0\n  2660: ra = 50, jump @0\n      : @70 [@dyn 25] (gas: 6)\n  2665: i32 a1 = a0 + 0\n  2667: a0 = 0x1\n  2670: a2 = 0x24\n  2673: ra = 0x34\n  2676: ecalli 12 // 'seal_return'\n  2678: fallthrough\n      : @71 [@dyn 26] (gas: 236)\n  2679: sp = sp + 0xffffffffffffffa0\n  2682: u64 [sp + 0x58] = ra\n  2685: u64 [sp + 0x50] = s0\n  2688: u64 [sp + 0x48] = s1\n  2691: u64 [sp] = a0\n  2693: t0 = u64 [a1]\n  2695: t1 = u64 [a2]\n  2697: a0 = u64 [a2 + 0x8]\n  2700: a3 = u64 [a2 + 0x10]\n  2703: a4 = u64 [a1 + 0x18]\n  2706: s0 = u64 [a1 + 0x10]\n  2709: a2 = u64 [a2 + 0x18]\n  2712: a1 = u64 [a1 + 0x8]\n  2715: t2 = a4 >u 0\n  2717: s1 = s0 >u 0\n  2719: s1 = t2 if a4 != 0\n  2722: ra = a1 >u 0\n  2724: a5 = t0 <u 0x100\n  2728: t2 = a5 ^ 0x1\n  2731: t2 = ra if a1 != 0\n  2734: a4 = a4 | s0\n  2737: t2 = s1 if a4 != 0\n  2740: u8 [sp + 71] = 0\n  2743: u8 [sp + 70] = 0\n  2746: u8 [sp + 69] = 0\n  2749: u8 [sp + 68] = 0\n  2752: u8 [sp + 67] = 0\n  2755: u8 [sp + 66] = 0\n  2758: u8 [sp + 65] = 0\n  2761: u8 [sp + 64] = 0\n  2764: u8 [sp + 63] = 0\n  2767: u8 [sp + 62] = 0\n  2770: u8 [sp + 61] = 0\n  2773: u8 [sp + 60] = 0\n  2776: u8 [sp + 59] = 0\n  2779: u8 [sp + 58] = 0\n  2782: u8 [sp + 57] = 0\n  2785: u8 [sp + 56] = 0\n  2788: u8 [sp + 55] = 0\n  2791: u8 [sp + 54] = 0\n  2794: u8 [sp + 53] = 0\n  2797: u8 [sp + 52] = 0\n  2800: u8 [sp + 51] = 0\n  2803: u8 [sp + 50] = 0\n  2806: u8 [sp + 49] = 0\n  2809: u8 [sp + 48] = 0\n  2812: u8 [sp + 47] = 0\n  2815: u8 [sp + 46] = 0\n  2818: u8 [sp + 45] = 0\n  2821: u8 [sp + 44] = 0\n  2824: u8 [sp + 43] = 0\n  2827: u8 [sp + 42] = 0\n  2830: u8 [sp + 41] = 0\n  2833: u8 [sp + 40] = 0\n  2836: u8 [sp + 0x20] = a2\n  2839: u8 [sp + 0x18] = a3\n  2842: u8 [sp + 0x10] = a0\n  2845: u8 [sp + 0x8] = t1\n  2848: a1 = a2 >> 0x38\n  2851: u8 [sp + 0x27] = a1\n  2854: a1 = a2 >> 0x30\n  2857: u8 [sp + 0x26] = a1\n  2860: a1 = a2 >> 0x28\n  2863: u8 [sp + 0x25] = a1\n  2866: a1 = a2 >> 0x20\n  2869: u8 [sp + 0x24] = a1\n  2872: a1 = a2 >> 0x18\n  2875: u8 [sp + 0x23] = a1\n  2878: a1 = a2 >> 0x10\n  2881: u8 [sp + 0x22] = a1\n  2884: a2 = a2 >> 0x8\n  2887: u8 [sp + 0x21] = a2\n  2890: a1 = a3 >> 0x38\n  2893: u8 [sp + 0x1f] = a1\n  2896: a1 = a3 >> 0x30\n  2899: u8 [sp + 0x1e] = a1\n  2902: a1 = a3 >> 0x28\n  2905: u8 [sp + 0x1d] = a1\n  2908: a1 = a3 >> 0x20\n  2911: u8 [sp + 0x1c] = a1\n  2914: a1 = a3 >> 0x18\n  2917: u8 [sp + 0x1b] = a1\n  2920: a1 = a3 >> 0x10\n  2923: u8 [sp + 0x1a] = a1\n  2926: a3 = a3 >> 0x8\n  2929: u8 [sp + 0x19] = a3\n  2932: a1 = a0 >> 0x38\n  2935: u8 [sp + 0x17] = a1\n  2938: a1 = a0 >> 0x30\n  2941: u8 [sp + 0x16] = a1\n  2944: a1 = a0 >> 0x28\n  2947: u8 [sp + 0x15] = a1\n  2950: a1 = a0 >> 0x20\n  2953: u8 [sp + 0x14] = a1\n  2956: a1 = a0 >> 0x18\n  2959: u8 [sp + 0x13] = a1\n  2962: a1 = a0 >> 0x10\n  2965: u8 [sp + 0x12] = a1\n  2968: a0 = a0 >> 0x8\n  2971: u8 [sp + 0x11] = a0\n  2974: a0 = t1 >> 0x38\n  2977: u8 [sp + 0xf] = a0\n  2980: a0 = t1 >> 0x30\n  2983: u8 [sp + 0xe] = a0\n  2986: a0 = t1 >> 0x28\n  2989: u8 [sp + 0xd] = a0\n  2992: a0 = t1 >> 0x20\n  2995: u8 [sp + 0xc] = a0\n  2998: a0 = t1 >> 0x18\n  3001: u8 [sp + 0xb] = a0\n  3004: a0 = t1 >> 0x10\n  3007: u8 [sp + 0xa] = a0\n  3010: a0 = t1 >> 0x8\n  3013: u8 [sp + 0x9] = a0\n  3016: a0 = t0 << 0x38\n  3019: a0 = a0 >> 0x3b\n  3022: a2 = sp + 0x8\n  3025: a2 = a2 + a0\n  3028: a0 = u8 [a2 + 0x11]\n  3031: a1 = u8 [a2 + 0x10]\n  3034: a3 = u8 [a2 + 0x12]\n  3037: a4 = u8 [a2 + 0x13]\n  3040: a0 = a0 << 0x8\n  3043: a0 = a0 | a1\n  3046: a3 = a3 << 0x10\n  3049: a4 = a4 << 0x18\n  3052: a3 = a3 | a4\n  3055: a0 = a0 | a3\n  3058: a1 = u8 [a2 + 0x15]\n  3061: a3 = u8 [a2 + 0x14]\n  3064: a4 = u8 [a2 + 0x16]\n  3067: a5 = u8 [a2 + 0x17]\n  3070: a1 = a1 << 0x8\n  3073: a1 = a1 | a3\n  3076: a4 = a4 << 0x10\n  3079: a5 = a5 << 0x18\n  3082: a4 = a4 | a5\n  3085: a1 = a1 | a4\n  3088: a1 = a1 << 0x20\n  3091: ra = a1 | a0\n  3094: a3 = t0 & 0x7\n  3097: a1 = ra >> a3\n  3100: a0 = u8 [a2 + 0x19]\n  3103: a4 = u8 [a2 + 0x18]\n  3106: s1 = u8 [a2 + 0x1a]\n  3109: s0 = u8 [a2 + 0x1b]\n  3112: a0 = a0 << 0x8\n  3115: a0 = a0 | a4\n  3118: s1 = s1 << 0x10\n  3121: s0 = s0 << 0x18\n  3124: s0 = s0 | s1\n  3127: a0 = a0 | s0\n  3130: a4 = u8 [a2 + 0x1d]\n  3133: s1 = u8 [a2 + 0x1c]\n  3136: s0 = u8 [a2 + 0x1e]\n  3139: a5 = u8 [a2 + 0x1f]\n  3142: a4 = a4 << 0x8\n  3145: a4 = a4 | s1\n  3148: s0 = s0 << 0x10\n  3151: a5 = a5 << 0x18\n  3154: a5 = a5 | s0\n  3157: a4 = a4 | a5\n  3160: a4 = a4 << 0x20\n  3163: t0 = a4 | a0\n  3166: a0 = t0 << 0x1\n  3169: t1 = a3 ^ 0x3f\n  3172: a4 = a0 << t1\n  3175: a4 = a4 | a1\n  3178: a0 = u8 [a2 + 0x9]\n  3181: a1 = u8 [a2 + 0x8]\n  3184: a5 = u8 [a2 + 0xa]\n  3187: s0 = u8 [a2 + 0xb]\n  3190: a0 = a0 << 0x8\n  3193: a0 = a0 | a1\n  3196: a5 = a5 << 0x10\n  3199: s0 = s0 << 0x18\n  3202: a5 = a5 | s0\n  3205: a0 = a0 | a5\n  3208: a1 = u8 [a2 + 0xd]\n  3211: a5 = u8 [a2 + 0xc]\n  3214: s0 = u8 [a2 + 0xe]\n  3217: s1 = u8 [a2 + 0xf]\n  3220: a1 = a1 << 0x8\n  3223: a1 = a1 | a5\n  3226: s0 = s0 << 0x10\n  3229: s1 = s1 << 0x18\n  3232: s0 = s0 | s1\n  3235: a1 = a1 | s0\n  3238: a1 = a1 << 0x20\n  3241: a1 = a1 | a0\n  3244: a0 = a1 >> a3\n  3247: ra = ra << 0x1\n  3250: a5 = a3 ^ 0xffffffffffffffff\n  3253: a5 = ra << a5\n  3256: ra = a0 | a5\n  3259: a0 = u8 [a2 + 0x1]\n  3262: s0 = u8 [a2]\n  3264: s1 = u8 [a2 + 0x2]\n  3267: a5 = u8 [a2 + 0x3]\n  3270: a0 = a0 << 0x8\n  3273: a0 = a0 | s0\n  3276: s1 = s1 << 0x10\n  3279: a5 = a5 << 0x18\n  3282: a5 = a5 | s1\n  3285: a0 = a0 | a5\n  3288: a5 = u8 [a2 + 0x5]\n  3291: s0 = u8 [a2 + 0x4]\n  3294: s1 = u8 [a2 + 0x6]\n  3297: a2 = u8 [a2 + 0x7]\n  3300: a5 = a5 << 0x8\n  3303: a5 = a5 | s0\n  3306: s1 = s1 << 0x10\n  3309: a2 = a2 << 0x18\n  3312: a2 = a2 | s1\n  3315: a2 = a2 | a5\n  3318: a2 = a2 << 0x20\n  3321: a0 = a0 | a2\n  3324: a0 = a0 >> a3\n  3327: a1 = a1 << 0x1\n  3330: a1 = a1 << t1\n  3333: a0 = a0 | a1\n  3336: a1 = t0 >> a3\n  3339: a0 = 0 if t2 != 0\n  3341: ra = 0 if t2 != 0\n  3343: a4 = 0 if t2 != 0\n  3345: a1 = 0 if t2 != 0\n  3347: a2 = u64 [sp]\n  3349: u64 [a2 + 0x18] = a1\n  3352: u64 [a2 + 0x10] = a4\n  3355: u64 [a2 + 0x8] = ra\n  3358: u64 [a2] = a0\n  3360: ra = u64 [sp + 0x58]\n  3363: s0 = u64 [sp + 0x50]\n  3366: s1 = u64 [sp + 0x48]\n  3369: sp = sp + 0x60\n  3372: ret\n      : @72 [@dyn 27] (gas: 58)\n  3374: a1 = reverse s1\n  3376: a2 = u64 [sp + 0x28]\n  3379: a2 = reverse a2\n  3381: a3 = u64 [sp + 0x50]\n  3384: a3 = reverse a3\n  3386: a4 = a3 >> 0x38\n  3389: u8 [a0 + 0x1f] = a4\n  3392: a4 = a3 >> 0x30\n  3395: u8 [a0 + 0x1e] = a4\n  3398: a4 = a3 >> 0x28\n  3401: u8 [a0 + 0x1d] = a4\n  3404: a4 = a3 >> 0x20\n  3407: u8 [a0 + 0x1c] = a4\n  3410: a4 = a3 >> 0x18\n  3413: u8 [a0 + 0x1b] = a4\n  3416: a4 = a3 >> 0x10\n  3419: u8 [a0 + 0x1a] = a4\n  3422: a4 = a3 >> 0x8\n  3425: u8 [a0 + 0x19] = a4\n  3428: u8 [a0 + 0x18] = a3\n  3431: a3 = a2 >> 0x38\n  3434: u8 [a0 + 0x17] = a3\n  3437: a3 = a2 >> 0x30\n  3440: u8 [a0 + 0x16] = a3\n  3443: a3 = a2 >> 0x28\n  3446: u8 [a0 + 0x15] = a3\n  3449: a3 = a2 >> 0x20\n  3452: u8 [a0 + 0x14] = a3\n  3455: a3 = a2 >> 0x18\n  3458: u8 [a0 + 0x13] = a3\n  3461: a3 = a2 >> 0x10\n  3464: u8 [a0 + 0x12] = a3\n  3467: a3 = a2 >> 0x8\n  3470: u8 [a0 + 0x11] = a3\n  3473: u8 [a0 + 0x10] = a2\n  3476: a2 = a1 >> 0x38\n  3479: u8 [a0 + 0xf] = a2\n  3482: a2 = a1 >> 0x30\n  3485: u8 [a0 + 0xe] = a2\n  3488: a2 = a1 >> 0x28\n  3491: u8 [a0 + 0xd] = a2\n  3494: a2 = a1 >> 0x20\n  3497: u8 [a0 + 0xc] = a2\n  3500: u8 [a0 + 11] = 0\n  3503: u8 [a0 + 10] = 0\n  3506: u8 [a0 + 9] = 0\n  3509: u8 [a0 + 0x8] = a1\n  3512: u8 [a0 + 7] = 0\n  3515: u8 [a0 + 6] = 0\n  3518: u8 [a0 + 5] = 0\n  3521: u8 [a0 + 4] = 0\n  3524: u8 [a0 + 3] = 0\n  3527: u8 [a0 + 2] = 0\n  3530: u8 [a0 + 1] = 0\n  3533: u8 [a0 + 0] = 0\n  3535: a0 = 0x20\n  3538: a1 = 0x20\n  3541: ra = 56, jump @0\n      : @73 [@dyn 28] (gas: 35)\n  3546: u8 [a0 + 31] = 0x1\n  3550: u8 [a0 + 30] = 0\n  3553: u8 [a0 + 29] = 0\n  3556: u8 [a0 + 28] = 0\n  3559: u8 [a0 + 27] = 0\n  3562: u8 [a0 + 26] = 0\n  3565: u8 [a0 + 25] = 0\n  3568: u8 [a0 + 24] = 0\n  3571: u8 [a0 + 23] = 0\n  3574: u8 [a0 + 22] = 0\n  3577: u8 [a0 + 21] = 0\n  3580: u8 [a0 + 20] = 0\n  3583: u8 [a0 + 19] = 0\n  3586: u8 [a0 + 18] = 0\n  3589: u8 [a0 + 17] = 0\n  3592: u8 [a0 + 16] = 0\n  3595: u8 [a0 + 15] = 0\n  3598: u8 [a0 + 14] = 0\n  3601: u8 [a0 + 13] = 0\n  3604: u8 [a0 + 12] = 0\n  3607: u8 [a0 + 11] = 0\n  3610: u8 [a0 + 10] = 0\n  3613: u8 [a0 + 9] = 0\n  3616: u8 [a0 + 8] = 0\n  3619: u8 [a0 + 7] = 0\n  3622: u8 [a0 + 6] = 0\n  3625: u8 [a0 + 5] = 0\n  3628: u8 [a0 + 4] = 0\n  3631: u8 [a0 + 3] = 0\n  3634: u8 [a0 + 2] = 0\n  3637: u8 [a0 + 1] = 0\n  3640: u8 [a0 + 0] = 0\n  3642: a1 = 0x40\n  3645: a0 = 0\n  3647: ra = 58, jump @0\n      : @74 [@dyn 29] (gas: 32)\n  3652: i32 a0 = a0 + 0\n  3654: i32 a2 = sp + 0x140\n  3658: a1 = 0x40\n  3661: ecalli 7 // 'hash_keccak_256'\n  3663: a0 = u64 [sp + 0x158]\n  3667: a1 = u64 [sp + 0x150]\n  3671: a2 = u64 [sp + 0x148]\n  3675: a3 = u64 [sp + 0x140]\n  3679: a5 = reverse a0\n  3681: a4 = reverse a1\n  3683: a1 = reverse a2\n  3685: a0 = reverse a3\n  3687: u64 [sp + 0x28] = a0\n  3690: u64 [sp + 0x138] = a0\n  3694: u64 [sp + 0x20] = a1\n  3697: u64 [sp + 0x130] = a1\n  3701: u64 [sp + 0x18] = a4\n  3704: u64 [sp + 0x128] = a4\n  3708: u64 [sp + 0x10] = a5\n  3711: u64 [sp + 0x120] = a5\n  3715: u64 [sp + 344] = 0\n  3719: u64 [sp + 336] = 0\n  3723: u64 [sp + 328] = 0\n  3727: u64 [sp + 320] = 0\n  3731: u32 [sp + 352] = 0x20\n  3736: i32 a1 = sp + 0x120\n  3740: i32 a3 = sp + 0x140\n  3744: i32 a4 = sp + 0x160\n  3748: a2 = 0xffffffffffffffff\n  3751: a0 = 0\n  3753: ecalli 6 // 'get_storage'\n  3755: fallthrough\n      : @75 (gas: 20)\n  3756: t1 = u64 [sp + 0x40]\n  3759: t2 = u64 [sp + 0x38]\n  3762: t0 = u64 [sp + 0x30]\n  3765: a0 = u64 [sp + 0x158]\n  3769: a1 = u64 [sp + 0x140]\n  3773: s1 = u64 [sp + 0x150]\n  3777: a3 = u64 [sp + 0x148]\n  3781: a4 = a0 ^ t0\n  3784: a0 = t0 <u a0\n  3787: a2 = u64 [sp + 0x48]\n  3790: a5 = a2 <u s1\n  3793: a5 = a0 if a4 != 0\n  3796: a0 = a3 ^ t2\n  3799: a3 = t2 <u a3\n  3802: a1 = t1 <u a1\n  3805: a1 = a3 if a0 != 0\n  3808: a0 = s1 ^ a2\n  3811: a0 = a0 | a4\n  3814: a1 = a5 if a0 != 0\n  3817: jump @78 if a1 == 0\n      : @76 (gas: 18)\n  3821: a0 = 0xffffffff\n  3831: u64 [sp + 0x50] = a0\n  3834: u64 [sp + 0xa0] = t1\n  3838: a0 = u64 [sp + 0x10]\n  3841: u64 [sp + 0xc0] = a0\n  3845: u64 [sp + 0xa8] = t2\n  3849: a0 = u64 [sp + 0x18]\n  3852: u64 [sp + 0xc8] = a0\n  3856: u64 [sp + 0xb0] = a2\n  3860: a0 = u64 [sp + 0x20]\n  3863: u64 [sp + 0xd0] = a0\n  3867: u64 [sp + 0xb8] = t0\n  3871: a0 = sp + 0xe0\n  3875: a1 = sp + 0xc0\n  3879: a2 = sp + 0xa0\n  3883: a3 = u64 [sp + 0x28]\n  3886: u64 [sp + 0xd8] = a3\n  3890: ra = 60, jump @62\n      : @77 [@dyn 30] (gas: 219)\n  3895: a0 = u64 [sp + 0x118]\n  3899: u64 [sp + 0x48] = a0\n  3902: a0 = u64 [sp + 0x110]\n  3906: u64 [sp + 0x40] = a0\n  3909: s1 = u64 [sp + 0x108]\n  3913: a0 = u64 [sp + 0x100]\n  3917: u64 [sp + 0x38] = a0\n  3920: a0 = u64 [sp + 0xf8]\n  3924: a1 = u64 [sp + 0xf0]\n  3928: a2 = u64 [sp + 0xe8]\n  3932: a3 = u64 [sp + 0xe0]\n  3936: u64 [sp + 0x138] = a0\n  3940: u64 [sp + 0x130] = a1\n  3944: u64 [sp + 0x128] = a2\n  3948: u64 [sp + 0x120] = a3\n  3952: u64 [sp + 344] = 0\n  3956: u64 [sp + 336] = 0\n  3960: u64 [sp + 328] = 0\n  3964: u64 [sp + 320] = 0\n  3968: u32 [sp + 352] = 0x20\n  3973: i32 a1 = sp + 0x120\n  3977: i32 a3 = sp + 0x140\n  3981: i32 a4 = sp + 0x160\n  3985: a2 = 0xffffffffffffffff\n  3988: a0 = 0\n  3990: ecalli 6 // 'get_storage'\n  3992: a1 = u64 [sp + 0x140]\n  3996: a2 = u64 [sp + 0x148]\n  4000: t0 = u64 [sp + 0x38]\n  4003: a0 = t0 >> 0x3d\n  4006: a3 = s1 << 0x3\n  4009: a3 = a3 | a0\n  4012: s1 = s1 >> 0x3d\n  4015: a4 = u64 [sp + 0x40]\n  4018: a0 = a4 << 0x3\n  4021: s1 = s1 | a0\n  4024: a0 = a4 >> 0x3d\n  4027: a4 = u64 [sp + 0x48]\n  4030: a4 = a4 << 0x3\n  4033: a4 = a4 | a0\n  4036: a0 = t0 << 0x3\n  4039: a5 = a3 >u 0\n  4041: a0 = a0 <u 0x100\n  4045: a0 = a0 ^ 0x1\n  4048: a0 = a5 if a3 != 0\n  4051: a3 = a4 >u 0\n  4053: a5 = s1 >u 0\n  4055: a5 = a3 if a4 != 0\n  4058: a3 = u64 [sp + 0x150]\n  4062: s1 = s1 | a4\n  4065: a4 = u64 [sp + 0x158]\n  4069: a0 = a5 if s1 != 0\n  4072: u8 [sp + 159] = 0\n  4076: u8 [sp + 158] = 0\n  4080: u8 [sp + 157] = 0\n  4084: u8 [sp + 156] = 0\n  4088: u8 [sp + 155] = 0\n  4092: u8 [sp + 154] = 0\n  4096: u8 [sp + 153] = 0\n  4100: u8 [sp + 152] = 0\n  4104: u8 [sp + 151] = 0\n  4108: u8 [sp + 150] = 0\n  4112: u8 [sp + 149] = 0\n  4116: u8 [sp + 148] = 0\n  4120: u8 [sp + 147] = 0\n  4124: u8 [sp + 146] = 0\n  4128: u8 [sp + 145] = 0\n  4132: u8 [sp + 144] = 0\n  4136: u8 [sp + 143] = 0\n  4140: u8 [sp + 142] = 0\n  4144: u8 [sp + 141] = 0\n  4148: u8 [sp + 140] = 0\n  4152: u8 [sp + 139] = 0\n  4156: u8 [sp + 138] = 0\n  4160: u8 [sp + 137] = 0\n  4164: u8 [sp + 136] = 0\n  4168: u8 [sp + 135] = 0\n  4172: u8 [sp + 134] = 0\n  4176: u8 [sp + 133] = 0\n  4180: u8 [sp + 132] = 0\n  4184: u8 [sp + 131] = 0\n  4188: u8 [sp + 130] = 0\n  4192: u8 [sp + 129] = 0\n  4196: u8 [sp + 128] = 0\n  4200: u8 [sp + 0x78] = a4\n  4203: u8 [sp + 0x70] = a3\n  4206: u8 [sp + 0x68] = a2\n  4209: u8 [sp + 0x60] = a1\n  4212: a5 = a4 >> 0x38\n  4215: u8 [sp + 0x7f] = a5\n  4218: a5 = a4 >> 0x30\n  4221: u8 [sp + 0x7e] = a5\n  4224: a5 = a4 >> 0x28\n  4227: u8 [sp + 0x7d] = a5\n  4230: a5 = a4 >> 0x20\n  4233: u8 [sp + 0x7c] = a5\n  4236: a5 = a4 >> 0x18\n  4239: u8 [sp + 0x7b] = a5\n  4242: a5 = a4 >> 0x10\n  4245: u8 [sp + 0x7a] = a5\n  4248: a4 = a4 >> 0x8\n  4251: u8 [sp + 0x79] = a4\n  4254: a4 = a3 >> 0x38\n  4257: u8 [sp + 0x77] = a4\n  4260: a4 = a3 >> 0x30\n  4263: u8 [sp + 0x76] = a4\n  4266: a4 = a3 >> 0x28\n  4269: u8 [sp + 0x75] = a4\n  4272: a4 = a3 >> 0x20\n  4275: u8 [sp + 0x74] = a4\n  4278: a4 = a3 >> 0x18\n  4281: u8 [sp + 0x73] = a4\n  4284: a4 = a3 >> 0x10\n  4287: u8 [sp + 0x72] = a4\n  4290: a3 = a3 >> 0x8\n  4293: u8 [sp + 0x71] = a3\n  4296: a3 = a2 >> 0x38\n  4299: u8 [sp + 0x6f] = a3\n  4302: a3 = a2 >> 0x30\n  4305: u8 [sp + 0x6e] = a3\n  4308: a3 = a2 >> 0x28\n  4311: u8 [sp + 0x6d] = a3\n  4314: a3 = a2 >> 0x20\n  4317: u8 [sp + 0x6c] = a3\n  4320: a3 = a2 >> 0x18\n  4323: u8 [sp + 0x6b] = a3\n  4326: a3 = a2 >> 0x10\n  4329: u8 [sp + 0x6a] = a3\n  4332: a2 = a2 >> 0x8\n  4335: u8 [sp + 0x69] = a2\n  4338: a2 = a1 >> 0x38\n  4341: u8 [sp + 0x67] = a2\n  4344: a2 = a1 >> 0x30\n  4347: u8 [sp + 0x66] = a2\n  4350: a2 = a1 >> 0x28\n  4353: u8 [sp + 0x65] = a2\n  4356: a2 = a1 >> 0x20\n  4359: u8 [sp + 0x64] = a2\n  4362: a2 = a1 >> 0x18\n  4365: u8 [sp + 0x63] = a2\n  4368: a2 = a1 >> 0x10\n  4371: u8 [sp + 0x62] = a2\n  4374: a1 = a1 >> 0x8\n  4377: u8 [sp + 0x61] = a1\n  4380: a1 = t0 & 0x1f\n  4383: a2 = sp + 0x60\n  4386: a1 = a1 + a2\n  4389: a2 = u8 [a1 + 0x1]\n  4392: a3 = u8 [a1]\n  4394: a4 = u8 [a1 + 0x2]\n  4397: a5 = u8 [a1 + 0x3]\n  4400: a2 = a2 << 0x8\n  4403: a2 = a2 | a3\n  4406: a4 = a4 << 0x10\n  4409: a5 = a5 << 0x18\n  4412: a4 = a4 | a5\n  4415: a2 = a2 | a4\n  4418: a3 = u8 [a1 + 0x5]\n  4421: a4 = u8 [a1 + 0x4]\n  4424: a5 = u8 [a1 + 0x6]\n  4427: s1 = u8 [a1 + 0x7]\n  4430: a3 = a3 << 0x8\n  4433: a3 = a3 | a4\n  4436: a5 = a5 << 0x10\n  4439: s1 = s1 << 0x18\n  4442: a5 = a5 | s1\n  4445: a3 = a3 | a5\n  4448: a3 = a3 << 0x20\n  4451: t0 = a3 | a2\n  4454: a3 = u8 [a1 + 0x9]\n  4457: a4 = u8 [a1 + 0x8]\n  4460: a5 = u8 [a1 + 0xa]\n  4463: s1 = u8 [a1 + 0xb]\n  4466: a3 = a3 << 0x8\n  4469: a3 = a3 | a4\n  4472: a5 = a5 << 0x10\n  4475: s1 = s1 << 0x18\n  4478: a5 = a5 | s1\n  4481: a3 = a3 | a5\n  4484: a4 = u8 [a1 + 0xd]\n  4487: a5 = u8 [a1 + 0xc]\n  4490: s1 = u8 [a1 + 0xe]\n  4493: a2 = u8 [a1 + 0xf]\n  4496: a4 = a4 << 0x8\n  4499: a4 = a4 | a5\n  4502: s1 = s1 << 0x10\n  4505: a2 = a2 << 0x18\n  4508: a2 = a2 | s1\n  4511: a2 = a2 | a4\n  4514: a2 = a2 << 0x20\n  4517: a2 = a2 | a3\n  4520: a3 = u8 [a1 + 0x11]\n  4523: a4 = u8 [a1 + 0x10]\n  4526: a5 = u8 [a1 + 0x12]\n  4529: a1 = u8 [a1 + 0x13]\n  4532: a3 = a3 << 0x8\n  4535: a3 = a3 | a4\n  4538: a5 = a5 << 0x10\n  4541: a1 = a1 << 0x18\n  4544: a1 = a1 | a5\n  4547: a1 = a1 | a3\n  4550: a2 = a2 & 0xffffffffffffffff\n  4553: a3 = t0 & 0xffffffffffffffff\n  4556: a4 = u64 [sp + 0x50]\n  4559: a1 = a1 & a4\n  4562: a3 = 0 if a0 != 0\n  4564: a2 = 0 if a0 != 0\n  4566: a1 = 0 if a0 != 0\n  4568: a0 = u64 [sp + 0x58]\n  4571: u64 [a0 + 0x10] = a1\n  4574: u64 [a0 + 0x8] = a2\n  4577: u64 [a0] = a3\n  4579: u64 [a0 + 24] = 0\n  4582: sp = s0 + 0xfffffffffffffe80\n  4586: ra = u64 [sp + 0x178]\n  4590: s0 = u64 [sp + 0x170]\n  4594: s1 = u64 [sp + 0x168]\n  4598: sp = sp + 0x180\n  4602: ret\n      : @78 (gas: 2)\n  4604: a0 = 0\n  4606: ra = 62, jump @0\n      : @79 [@dyn 31] (gas: 6)\n  4611: i32 a1 = a0 + 0\n  4613: a0 = 0x1\n  4616: a2 = 0\n  4618: ra = 0x40\n  4621: ecalli 12 // 'seal_return'\n  4623: fallthrough\n      : @80 [@dyn 32] (gas: 12)\n  4624: a2 = u64 [a1 + 0x10]\n  4627: a3 = u64 [a1 + 0x18]\n  4630: a4 = u64 [a1 + 0x8]\n  4633: a1 = u64 [a1]\n  4635: a3 = a3 | a4\n  4638: a4 = a1 | a2\n  4641: a4 = a4 | a3\n  4644: a4 = a4 >> 0x20\n  4647: a2 = a2 | a3\n  4650: a2 = a2 << 0x20\n  4653: a2 = a2 | a4\n  4656: jump @83 if a2 != 0\n      : @81 (gas: 13)\n  4660: sp = sp + 0xffffffffffffffe0\n  4663: u64 [sp + 0x18] = ra\n  4666: u64 [sp + 0x10] = s0\n  4669: u64 [sp + 0x8] = s1\n  4672: a2 = u64 [a0 + 0x10]\n  4675: a3 = u64 [a0 + 0x8]\n  4678: u64 [sp] = a3\n  4680: s1 = u64 [a0]\n  4682: a2 = a2 << 0x20\n  4685: s0 = a2 >> 0x20\n  4688: i32 a0 = a1 + 0\n  4690: a1 = 0x20\n  4693: ra = 66, jump @0\n      : @82 [@dyn 33] (gas: 59)\n  4698: a1 = reverse s0\n  4700: a2 = u64 [sp]\n  4702: a2 = reverse a2\n  4704: a3 = reverse s1\n  4706: a4 = a3 >> 0x38\n  4709: u8 [a0 + 0x1f] = a4\n  4712: a4 = a3 >> 0x30\n  4715: u8 [a0 + 0x1e] = a4\n  4718: a4 = a3 >> 0x28\n  4721: u8 [a0 + 0x1d] = a4\n  4724: a4 = a3 >> 0x20\n  4727: u8 [a0 + 0x1c] = a4\n  4730: a4 = a3 >> 0x18\n  4733: u8 [a0 + 0x1b] = a4\n  4736: a4 = a3 >> 0x10\n  4739: u8 [a0 + 0x1a] = a4\n  4742: a4 = a3 >> 0x8\n  4745: u8 [a0 + 0x19] = a4\n  4748: u8 [a0 + 0x18] = a3\n  4751: u8 [a0 + 0x10] = a2\n  4754: u8 [a0 + 11] = 0\n  4757: u8 [a0 + 10] = 0\n  4760: u8 [a0 + 9] = 0\n  4763: u8 [a0 + 7] = 0\n  4766: u8 [a0 + 6] = 0\n  4769: u8 [a0 + 5] = 0\n  4772: u8 [a0 + 4] = 0\n  4775: u8 [a0 + 3] = 0\n  4778: u8 [a0 + 2] = 0\n  4781: u8 [a0 + 1] = 0\n  4784: u8 [a0 + 0] = 0\n  4786: a3 = a2 >> 0x38\n  4789: u8 [a0 + 0x17] = a3\n  4792: a3 = a2 >> 0x30\n  4795: u8 [a0 + 0x16] = a3\n  4798: a3 = a2 >> 0x28\n  4801: u8 [a0 + 0x15] = a3\n  4804: a3 = a2 >> 0x20\n  4807: u8 [a0 + 0x14] = a3\n  4810: a3 = a2 >> 0x18\n  4813: u8 [a0 + 0x13] = a3\n  4816: a3 = a2 >> 0x10\n  4819: u8 [a0 + 0x12] = a3\n  4822: a2 = a2 >> 0x8\n  4825: u8 [a0 + 0x11] = a2\n  4828: u8 [a0 + 0x8] = a1\n  4831: a2 = a1 >> 0x38\n  4834: u8 [a0 + 0xf] = a2\n  4837: a2 = a1 >> 0x30\n  4840: u8 [a0 + 0xe] = a2\n  4843: a2 = a1 >> 0x28\n  4846: u8 [a0 + 0xd] = a2\n  4849: a1 = a1 >> 0x20\n  4852: u8 [a0 + 0xc] = a1\n  4855: ra = u64 [sp + 0x18]\n  4858: s0 = u64 [sp + 0x10]\n  4861: s1 = u64 [sp + 0x8]\n  4864: sp = sp + 0x20\n  4867: ret\n      : @83 (gas: 1)\n  4869: trap\n      : @84 (gas: 8)\n  4870: a0 = u64 [sp + 0x110]\n  4874: a1 = u64 [sp + 0x118]\n  4878: a2 = u64 [sp + 0x108]\n  4882: a3 = u64 [sp + 0x100]\n  4886: a1 = a1 | a2\n  4889: a0 = a0 | a3\n  4892: a0 = a0 | a1\n  4895: jump @90 if a0 != 0\n      : @85 (gas: 13)\n  4899: a0 = u32 [0x20004]\n  4904: u64 [sp + 152] = 0\n  4908: u64 [sp + 144] = 0\n  4912: u64 [sp + 136] = 0\n  4916: u64 [sp + 0x80] = a0\n  4920: u64 [sp + 184] = 0\n  4924: u64 [sp + 176] = 0\n  4928: u64 [sp + 160] = 0x4\n  4933: a0 = sp + 0xc0\n  4937: a1 = sp + 0xa0\n  4941: a2 = sp + 0x80\n  4945: u64 [sp + 168] = 0\n  4949: ra = 68, jump @52\n      : @86 [@dyn 34] (gas: 44)\n  4954: t0 = u64 [sp + 0xc0]\n  4958: a0 = u64 [sp + 0xc8]\n  4962: a1 = u64 [sp + 0xd0]\n  4966: a2 = u64 [sp + 0xd8]\n  4970: a4 = u64 [sp + 0xe0]\n  4974: a5 = u64 [sp + 0xe8]\n  4978: s1 = u64 [sp + 0xf0]\n  4982: a3 = u64 [sp + 0xf8]\n  4986: u64 [sp + 0x38] = a3\n  4989: u64 [sp + 0x30] = s1\n  4992: u64 [sp + 0x28] = a5\n  4995: u64 [sp + 0x20] = a4\n  4998: u64 [sp + 0x58] = a2\n  5001: u64 [sp + 0x50] = a1\n  5004: u64 [sp + 0x48] = a0\n  5007: a0 = sp + 0x60\n  5010: a1 = sp + 0x40\n  5013: a2 = sp + 0x20\n  5016: u64 [sp + 0x40] = t0\n  5019: ra = 0x46\n  5022: sp = sp + 0xfffffffffffffe80\n  5026: u64 [sp + 0x178] = ra\n  5030: u64 [sp + 0x170] = s0\n  5034: u64 [sp + 0x168] = s1\n  5038: s0 = sp + 0x180\n  5042: sp = sp & 0xffffffffffffffe0\n  5045: a3 = u64 [a2]\n  5047: u64 [sp + 0x40] = a3\n  5050: a3 = u64 [a2 + 0x8]\n  5053: u64 [sp + 0x38] = a3\n  5056: a3 = u64 [a2 + 0x10]\n  5059: u64 [sp + 0x48] = a3\n  5062: a2 = u64 [a2 + 0x18]\n  5065: u64 [sp + 0x30] = a2\n  5068: a2 = u64 [a1]\n  5070: u64 [sp + 0x50] = a2\n  5073: a2 = u64 [a1 + 0x8]\n  5076: u64 [sp + 0x28] = a2\n  5079: s1 = u32 [a1 + 0x10]\n  5082: u64 [sp + 0x58] = a0\n  5085: a1 = 0x20\n  5088: a0 = 0\n  5090: ra = 0x36\n  5093: jump @0\n      : @87 [@dyn 35] (gas: 11)\n  5096: a0 = u64 [sp + 0x78]\n  5099: u64 [sp] = a0\n  5101: a0 = u64 [sp + 0x70]\n  5104: u64 [sp + 0x8] = a0\n  5107: a0 = u64 [sp + 0x68]\n  5110: u64 [sp + 0x10] = a0\n  5113: a0 = u64 [sp + 0x60]\n  5116: u64 [sp + 0x18] = a0\n  5119: a0 = 0x40\n  5122: a1 = 0x20\n  5125: ra = 72, jump @0\n      : @88 [@dyn 36] (gas: 100)\n  5130: a1 = u8 [a0 + 0x11]\n  5133: a2 = u8 [a0 + 0x10]\n  5136: a3 = u8 [a0 + 0x12]\n  5139: a4 = u8 [a0 + 0x13]\n  5142: a1 = a1 << 0x8\n  5145: a1 = a1 | a2\n  5148: a3 = a3 << 0x10\n  5151: a4 = a4 << 0x18\n  5154: a3 = a3 | a4\n  5157: a1 = a1 | a3\n  5160: a2 = u8 [a0 + 0x15]\n  5163: a3 = u8 [a0 + 0x14]\n  5166: a4 = u8 [a0 + 0x16]\n  5169: a5 = u8 [a0 + 0x17]\n  5172: a2 = a2 << 0x8\n  5175: a2 = a2 | a3\n  5178: a4 = a4 << 0x10\n  5181: a5 = a5 << 0x18\n  5184: a4 = a4 | a5\n  5187: a2 = a2 | a4\n  5190: a2 = a2 << 0x20\n  5193: t0 = a2 | a1\n  5196: a2 = u8 [a0 + 0x1]\n  5199: a3 = u8 [a0]\n  5201: a4 = u8 [a0 + 0x2]\n  5204: a5 = u8 [a0 + 0x3]\n  5207: a2 = a2 << 0x8\n  5210: a2 = a2 | a3\n  5213: a4 = a4 << 0x10\n  5216: a5 = a5 << 0x18\n  5219: a4 = a4 | a5\n  5222: a2 = a2 | a4\n  5225: a3 = u8 [a0 + 0x5]\n  5228: a4 = u8 [a0 + 0x4]\n  5231: a5 = u8 [a0 + 0x6]\n  5234: s1 = u8 [a0 + 0x7]\n  5237: a3 = a3 << 0x8\n  5240: a3 = a3 | a4\n  5243: a5 = a5 << 0x10\n  5246: s1 = s1 << 0x18\n  5249: a5 = a5 | s1\n  5252: a3 = a3 | a5\n  5255: a3 = a3 << 0x20\n  5258: a2 = a2 | a3\n  5261: a3 = u8 [a0 + 0x19]\n  5264: a4 = u8 [a0 + 0x18]\n  5267: a5 = u8 [a0 + 0x1a]\n  5270: s1 = u8 [a0 + 0x1b]\n  5273: a3 = a3 << 0x8\n  5276: a3 = a3 | a4\n  5279: a5 = a5 << 0x10\n  5282: s1 = s1 << 0x18\n  5285: a5 = a5 | s1\n  5288: a3 = a3 | a5\n  5291: a4 = u8 [a0 + 0x1d]\n  5294: a5 = u8 [a0 + 0x1c]\n  5297: s1 = u8 [a0 + 0x1e]\n  5300: a1 = u8 [a0 + 0x1f]\n  5303: a4 = a4 << 0x8\n  5306: a4 = a4 | a5\n  5309: s1 = s1 << 0x10\n  5312: a1 = a1 << 0x18\n  5315: a1 = a1 | s1\n  5318: a1 = a1 | a4\n  5321: a1 = a1 << 0x20\n  5324: a3 = a3 | a1\n  5327: a1 = u8 [a0 + 0x9]\n  5330: a4 = u8 [a0 + 0x8]\n  5333: a5 = u8 [a0 + 0xa]\n  5336: s1 = u8 [a0 + 0xb]\n  5339: a1 = a1 << 0x8\n  5342: a1 = a1 | a4\n  5345: a5 = a5 << 0x10\n  5348: s1 = s1 << 0x18\n  5351: a5 = a5 | s1\n  5354: a1 = a1 | a5\n  5357: a4 = u8 [a0 + 0xd]\n  5360: a5 = u8 [a0 + 0xc]\n  5363: s1 = u8 [a0 + 0xe]\n  5366: a0 = u8 [a0 + 0xf]\n  5369: a4 = a4 << 0x8\n  5372: a4 = a4 | a5\n  5375: s1 = s1 << 0x10\n  5378: a0 = a0 << 0x18\n  5381: a0 = a0 | s1\n  5384: a0 = a0 | a4\n  5387: a0 = a0 << 0x20\n  5390: a0 = a0 | a1\n  5393: a1 = reverse a0\n  5395: a0 = reverse a3\n  5397: a2 = reverse a2\n  5399: a3 = reverse t0\n  5401: a2 = a2 | a3\n  5404: a3 = a0 | a1\n  5407: a3 = a3 | a2\n  5410: a3 = a3 >> 0x20\n  5413: a1 = a1 | a2\n  5416: a1 = a1 << 0x20\n  5419: a1 = a1 | a3\n  5422: jump @92 if a1 == 0\n      : @89 (gas: 1)\n  5425: trap\n      : @90 (gas: 3)\n  5426: a0 = 0\n  5428: a1 = 0\n  5430: ra = 74, jump @0\n      : @91 [@dyn 37] (gas: 5)\n  5435: i32 a1 = a0 + 0\n  5437: a0 = 0x1\n  5440: a2 = 0\n  5442: ecalli 12 // 'seal_return'\n  5444: fallthrough\n      : @92 (gas: 4)\n  5445: i32 s1 = a0 + 0\n  5447: a1 = 0x20\n  5450: a0 = s1\n  5452: ra = 76, jump @0\n      : @93 [@dyn 38] (gas: 71)\n  5457: a1 = u64 [sp]\n  5459: a1 = reverse a1\n  5461: a2 = u64 [sp + 0x8]\n  5464: a2 = reverse a2\n  5466: a3 = u64 [sp + 0x10]\n  5469: a3 = reverse a3\n  5471: a4 = u64 [sp + 0x18]\n  5474: a4 = reverse a4\n  5476: a5 = a4 >> 0x38\n  5479: u8 [a0 + 0x1f] = a5\n  5482: a5 = a4 >> 0x30\n  5485: u8 [a0 + 0x1e] = a5\n  5488: a5 = a4 >> 0x28\n  5491: u8 [a0 + 0x1d] = a5\n  5494: a5 = a4 >> 0x20\n  5497: u8 [a0 + 0x1c] = a5\n  5500: a5 = a4 >> 0x18\n  5503: u8 [a0 + 0x1b] = a5\n  5506: a5 = a4 >> 0x10\n  5509: u8 [a0 + 0x1a] = a5\n  5512: a5 = a4 >> 0x8\n  5515: u8 [a0 + 0x19] = a5\n  5518: u8 [a0 + 0x18] = a4\n  5521: u8 [a0 + 0x10] = a3\n  5524: a4 = a3 >> 0x38\n  5527: u8 [a0 + 0x17] = a4\n  5530: a4 = a3 >> 0x30\n  5533: u8 [a0 + 0x16] = a4\n  5536: a4 = a3 >> 0x28\n  5539: u8 [a0 + 0x15] = a4\n  5542: a4 = a3 >> 0x20\n  5545: u8 [a0 + 0x14] = a4\n  5548: a4 = a3 >> 0x18\n  5551: u8 [a0 + 0x13] = a4\n  5554: a4 = a3 >> 0x10\n  5557: u8 [a0 + 0x12] = a4\n  5560: a3 = a3 >> 0x8\n  5563: u8 [a0 + 0x11] = a3\n  5566: u8 [a0 + 0x8] = a2\n  5569: a3 = a2 >> 0x38\n  5572: u8 [a0 + 0xf] = a3\n  5575: a3 = a2 >> 0x30\n  5578: u8 [a0 + 0xe] = a3\n  5581: a3 = a2 >> 0x28\n  5584: u8 [a0 + 0xd] = a3\n  5587: a3 = a2 >> 0x20\n  5590: u8 [a0 + 0xc] = a3\n  5593: a3 = a2 >> 0x18\n  5596: u8 [a0 + 0xb] = a3\n  5599: a3 = a2 >> 0x10\n  5602: u8 [a0 + 0xa] = a3\n  5605: a2 = a2 >> 0x8\n  5608: u8 [a0 + 0x9] = a2\n  5611: u8 [a0] = a1\n  5613: a2 = a1 >> 0x38\n  5616: u8 [a0 + 0x7] = a2\n  5619: a2 = a1 >> 0x30\n  5622: u8 [a0 + 0x6] = a2\n  5625: a2 = a1 >> 0x28\n  5628: u8 [a0 + 0x5] = a2\n  5631: a2 = a1 >> 0x20\n  5634: u8 [a0 + 0x4] = a2\n  5637: a2 = a1 >> 0x18\n  5640: u8 [a0 + 0x3] = a2\n  5643: a2 = a1 >> 0x10\n  5646: u8 [a0 + 0x2] = a2\n  5649: a1 = a1 >> 0x8\n  5652: u8 [a0 + 0x1] = a1\n  5655: a1 = 0x20\n  5658: a0 = s1\n  5660: ra = 78, jump @0\n      : @94 [@dyn 39] (gas: 6)\n  5665: i32 a1 = a0 + 0\n  5667: a2 = 0x20\n  5670: a0 = 0\n  5672: ra = 0x50\n  5675: ecalli 12 // 'seal_return'\n  5677: fallthrough\n      : @95 [@dyn 40] (gas: 19)\n  5678: t0 = u64 [a0 + 0x18]\n  5681: t1 = u64 [a1 + 0x18]\n  5684: a4 = u64 [a0 + 0x10]\n  5687: a5 = u64 [a0 + 0x8]\n  5690: a2 = u64 [a1 + 0x8]\n  5693: t2 = u64 [a0]\n  5695: a3 = u64 [a1]\n  5697: a1 = u64 [a1 + 0x10]\n  5700: a0 = a2 ^ a5\n  5703: a2 = a2 <u a5\n  5706: a3 = a3 <u t2\n  5709: a3 = a2 if a0 != 0\n  5712: a0 = a1 - a4\n  5715: a0 = a0 <u a3\n  5718: a1 = a1 <u a4\n  5721: a2 = t1 - t0\n  5724: a2 = a2 - a1\n  5727: a2 = a2 - a0\n  5730: jump @97 if a2 <s 0\n      : @96 (gas: 1)\n  5733: ret\n      : @97 (gas: 5)\n  5735: sp = sp + 0xfffffffffffffff8\n  5738: u64 [sp] = ra\n  5740: a0 = 0\n  5742: a1 = 0\n  5744: ra = 82, jump @0\n      : @98 [@dyn 41] (gas: 6)\n  5749: i32 a1 = a0 + 0\n  5751: a0 = 0x1\n  5754: a2 = 0\n  5756: ra = 0x54\n  5759: ecalli 12 // 'seal_return'\n  5761: fallthrough\n      : @99 [@dyn 42] (gas: 9)\n  5762: a2 = u64 [a1 + 0x18]\n  5765: a3 = u64 [a1 + 0x10]\n  5768: a4 = u64 [a1 + 0x8]\n  5771: a1 = u64 [a1]\n  5773: u64 [a0 + 0x18] = a2\n  5776: u64 [a0 + 0x10] = a3\n  5779: u64 [a0 + 0x8] = a4\n  5782: u64 [a0] = a1\n  5784: ret\n      : @100 (gas: 8)\n  5786: a0 = u64 [sp + 0x10]\n  5789: a1 = u64 [sp + 0x18]\n  5792: a2 = u64 [sp + 0x8]\n  5795: a3 = u64 [sp]\n  5797: a1 = a1 | a2\n  5800: a0 = a0 | a3\n  5803: a0 = a0 | a1\n  5806: jump @105 if a0 != 0\n      : @101 (gas: 2)\n  5810: a0 = i32 [0x20004]\n  5815: jump @105 if a0 <=u 3\n      : @102 (gas: 3)\n  5820: a0 = 0x40\n  5823: a1 = 0x20\n  5826: ra = 86, jump @0\n      : @103 [@dyn 43] (gas: 100)\n  5831: a1 = u8 [a0 + 0x11]\n  5834: a2 = u8 [a0 + 0x10]\n  5837: a3 = u8 [a0 + 0x12]\n  5840: a4 = u8 [a0 + 0x13]\n  5843: a1 = a1 << 0x8\n  5846: a1 = a1 | a2\n  5849: a3 = a3 << 0x10\n  5852: a4 = a4 << 0x18\n  5855: a3 = a3 | a4\n  5858: a1 = a1 | a3\n  5861: a2 = u8 [a0 + 0x15]\n  5864: a3 = u8 [a0 + 0x14]\n  5867: a4 = u8 [a0 + 0x16]\n  5870: a5 = u8 [a0 + 0x17]\n  5873: a2 = a2 << 0x8\n  5876: a2 = a2 | a3\n  5879: a4 = a4 << 0x10\n  5882: a5 = a5 << 0x18\n  5885: a4 = a4 | a5\n  5888: a2 = a2 | a4\n  5891: a2 = a2 << 0x20\n  5894: t0 = a2 | a1\n  5897: a2 = u8 [a0 + 0x1]\n  5900: a3 = u8 [a0]\n  5902: a4 = u8 [a0 + 0x2]\n  5905: a5 = u8 [a0 + 0x3]\n  5908: a2 = a2 << 0x8\n  5911: a2 = a2 | a3\n  5914: a4 = a4 << 0x10\n  5917: a5 = a5 << 0x18\n  5920: a4 = a4 | a5\n  5923: a2 = a2 | a4\n  5926: a3 = u8 [a0 + 0x5]\n  5929: a4 = u8 [a0 + 0x4]\n  5932: a5 = u8 [a0 + 0x6]\n  5935: a1 = u8 [a0 + 0x7]\n  5938: a3 = a3 << 0x8\n  5941: a3 = a3 | a4\n  5944: a5 = a5 << 0x10\n  5947: a1 = a1 << 0x18\n  5950: a1 = a1 | a5\n  5953: a1 = a1 | a3\n  5956: a1 = a1 << 0x20\n  5959: t1 = a1 | a2\n  5962: a1 = u8 [a0 + 0x19]\n  5965: a3 = u8 [a0 + 0x18]\n  5968: a4 = u8 [a0 + 0x1a]\n  5971: a5 = u8 [a0 + 0x1b]\n  5974: a1 = a1 << 0x8\n  5977: a1 = a1 | a3\n  5980: a4 = a4 << 0x10\n  5983: a5 = a5 << 0x18\n  5986: a4 = a4 | a5\n  5989: a1 = a1 | a4\n  5992: a3 = u8 [a0 + 0x1d]\n  5995: a4 = u8 [a0 + 0x1c]\n  5998: a5 = u8 [a0 + 0x1e]\n  6001: a2 = u8 [a0 + 0x1f]\n  6004: a3 = a3 << 0x8\n  6007: a3 = a3 | a4\n  6010: a5 = a5 << 0x10\n  6013: a2 = a2 << 0x18\n  6016: a2 = a2 | a5\n  6019: a2 = a2 | a3\n  6022: a2 = a2 << 0x20\n  6025: a3 = a2 | a1\n  6028: a1 = u8 [a0 + 0x9]\n  6031: a2 = u8 [a0 + 0x8]\n  6034: a4 = u8 [a0 + 0xa]\n  6037: a5 = u8 [a0 + 0xb]\n  6040: a1 = a1 << 0x8\n  6043: a1 = a1 | a2\n  6046: a4 = a4 << 0x10\n  6049: a5 = a5 << 0x18\n  6052: a4 = a4 | a5\n  6055: a1 = a1 | a4\n  6058: a2 = u8 [a0 + 0xd]\n  6061: a4 = u8 [a0 + 0xc]\n  6064: a5 = u8 [a0 + 0xe]\n  6067: a0 = u8 [a0 + 0xf]\n  6070: a2 = a2 << 0x8\n  6073: a2 = a2 | a4\n  6076: a5 = a5 << 0x10\n  6079: a0 = a0 << 0x18\n  6082: a0 = a0 | a5\n  6085: a0 = a0 | a2\n  6088: a0 = a0 << 0x20\n  6091: a0 = a0 | a1\n  6094: a1 = reverse a0\n  6096: a0 = reverse a3\n  6098: a2 = reverse t1\n  6100: a3 = reverse t0\n  6102: a2 = a2 | a3\n  6105: a3 = a0 | a1\n  6108: a3 = a3 | a2\n  6111: a3 = a3 >> 0x20\n  6114: a1 = a1 | a2\n  6117: a1 = a1 << 0x20\n  6120: a1 = a1 | a3\n  6123: jump @107 if a1 == 0\n      : @104 (gas: 1)\n  6126: trap\n      : @105 (gas: 3)\n  6127: a0 = 0\n  6129: a1 = 0\n  6131: ra = 88, jump @0\n      : @106 [@dyn 44] (gas: 7)\n  6136: i32 a1 = a0 + 0\n  6138: a0 = 0x1\n  6141: a2 = 0\n  6143: ecalli 12 // 'seal_return'\n  6145: i32 a0 = a0 + 0\n  6147: ra = 0x5a\n  6150: jump @0\n      : @107 (gas: 2)\n  6153: i32 a0 = a0 + 0\n  6155: ra = 90, jump @0\n      : @108 [@dyn 45] (gas: 6)\n  6160: i32 a1 = a0 + 0\n  6162: a0 = 0\n  6164: a2 = 0\n  6166: ra = 0x5c\n  6169: ecalli 12 // 'seal_return'\n  6171: fallthrough\n      : @109 [@dyn 46] (gas: 12)\n  6172: sp = sp + 0xffffffffffffffc0\n  6175: u64 [sp + 0x38] = ra\n  6178: u64 [sp + 0x30] = s0\n  6181: s0 = sp + 0x40\n  6184: sp = sp & 0xffffffffffffffe0\n  6187: u64 [sp + 24] = 0\n  6190: u64 [sp + 16] = 0\n  6193: u64 [sp + 8] = 0\n  6196: u64 [sp + 0] = 0\n  6198: i32 a0 = sp + 0\n  6200: ecalli 15 // 'value_transferred'\n  6202: fallthrough\n      : @110 (gas: 8)\n  6203: a0 = u64 [sp + 0x10]\n  6206: a1 = u64 [sp + 0x18]\n  6209: a2 = u64 [sp + 0x8]\n  6212: a3 = u64 [sp]\n  6214: a1 = a1 | a2\n  6217: a0 = a0 | a3\n  6220: a0 = a0 | a1\n  6223: jump @116 if a0 != 0\n      : @111 (gas: 2)\n  6227: a0 = i32 [0x20004]\n  6232: jump @116 if a0 <=u 3\n      : @112 (gas: 1)\n  6237: ra = 94, jump @212\n      : @113 [@dyn 47] (gas: 3)\n  6242: a0 = 0x40\n  6245: a1 = 0x20\n  6248: ra = 96, jump @0\n      : @114 [@dyn 48] (gas: 100)\n  6253: a1 = u8 [a0 + 0x11]\n  6256: a2 = u8 [a0 + 0x10]\n  6259: a3 = u8 [a0 + 0x12]\n  6262: a4 = u8 [a0 + 0x13]\n  6265: a1 = a1 << 0x8\n  6268: a1 = a1 | a2\n  6271: a3 = a3 << 0x10\n  6274: a4 = a4 << 0x18\n  6277: a3 = a3 | a4\n  6280: a1 = a1 | a3\n  6283: a2 = u8 [a0 + 0x15]\n  6286: a3 = u8 [a0 + 0x14]\n  6289: a4 = u8 [a0 + 0x16]\n  6292: a5 = u8 [a0 + 0x17]\n  6295: a2 = a2 << 0x8\n  6298: a2 = a2 | a3\n  6301: a4 = a4 << 0x10\n  6304: a5 = a5 << 0x18\n  6307: a4 = a4 | a5\n  6310: a2 = a2 | a4\n  6313: a2 = a2 << 0x20\n  6316: t0 = a2 | a1\n  6319: a2 = u8 [a0 + 0x1]\n  6322: a3 = u8 [a0]\n  6324: a4 = u8 [a0 + 0x2]\n  6327: a5 = u8 [a0 + 0x3]\n  6330: a2 = a2 << 0x8\n  6333: a2 = a2 | a3\n  6336: a4 = a4 << 0x10\n  6339: a5 = a5 << 0x18\n  6342: a4 = a4 | a5\n  6345: a2 = a2 | a4\n  6348: a3 = u8 [a0 + 0x5]\n  6351: a4 = u8 [a0 + 0x4]\n  6354: a5 = u8 [a0 + 0x6]\n  6357: a1 = u8 [a0 + 0x7]\n  6360: a3 = a3 << 0x8\n  6363: a3 = a3 | a4\n  6366: a5 = a5 << 0x10\n  6369: a1 = a1 << 0x18\n  6372: a1 = a1 | a5\n  6375: a1 = a1 | a3\n  6378: a1 = a1 << 0x20\n  6381: t1 = a1 | a2\n  6384: a1 = u8 [a0 + 0x19]\n  6387: a3 = u8 [a0 + 0x18]\n  6390: a4 = u8 [a0 + 0x1a]\n  6393: a5 = u8 [a0 + 0x1b]\n  6396: a1 = a1 << 0x8\n  6399: a1 = a1 | a3\n  6402: a4 = a4 << 0x10\n  6405: a5 = a5 << 0x18\n  6408: a4 = a4 | a5\n  6411: a1 = a1 | a4\n  6414: a3 = u8 [a0 + 0x1d]\n  6417: a4 = u8 [a0 + 0x1c]\n  6420: a5 = u8 [a0 + 0x1e]\n  6423: a2 = u8 [a0 + 0x1f]\n  6426: a3 = a3 << 0x8\n  6429: a3 = a3 | a4\n  6432: a5 = a5 << 0x10\n  6435: a2 = a2 << 0x18\n  6438: a2 = a2 | a5\n  6441: a2 = a2 | a3\n  6444: a2 = a2 << 0x20\n  6447: a3 = a2 | a1\n  6450: a1 = u8 [a0 + 0x9]\n  6453: a2 = u8 [a0 + 0x8]\n  6456: a4 = u8 [a0 + 0xa]\n  6459: a5 = u8 [a0 + 0xb]\n  6462: a1 = a1 << 0x8\n  6465: a1 = a1 | a2\n  6468: a4 = a4 << 0x10\n  6471: a5 = a5 << 0x18\n  6474: a4 = a4 | a5\n  6477: a1 = a1 | a4\n  6480: a2 = u8 [a0 + 0xd]\n  6483: a4 = u8 [a0 + 0xc]\n  6486: a5 = u8 [a0 + 0xe]\n  6489: a0 = u8 [a0 + 0xf]\n  6492: a2 = a2 << 0x8\n  6495: a2 = a2 | a4\n  6498: a5 = a5 << 0x10\n  6501: a0 = a0 << 0x18\n  6504: a0 = a0 | a5\n  6507: a0 = a0 | a2\n  6510: a0 = a0 << 0x20\n  6513: a0 = a0 | a1\n  6516: a1 = reverse a0\n  6518: a0 = reverse a3\n  6520: a2 = reverse t1\n  6522: a3 = reverse t0\n  6524: a2 = a2 | a3\n  6527: a3 = a0 | a1\n  6530: a3 = a3 | a2\n  6533: a3 = a3 >> 0x20\n  6536: a1 = a1 | a2\n  6539: a1 = a1 << 0x20\n  6542: a1 = a1 | a3\n  6545: jump @118 if a1 == 0\n      : @115 (gas: 1)\n  6548: trap\n      : @116 (gas: 3)\n  6549: a0 = 0\n  6551: a1 = 0\n  6553: ra = 98, jump @0\n      : @117 [@dyn 49] (gas: 7)\n  6558: i32 a1 = a0 + 0\n  6560: a0 = 0x1\n  6563: a2 = 0\n  6565: ecalli 12 // 'seal_return'\n  6567: i32 a0 = a0 + 0\n  6569: ra = 0x64\n  6572: jump @0\n      : @118 (gas: 2)\n  6575: i32 a0 = a0 + 0\n  6577: ra = 100, jump @0\n      : @119 [@dyn 50] (gas: 6)\n  6582: i32 a1 = a0 + 0\n  6584: a0 = 0\n  6586: a2 = 0\n  6588: ra = 0x66\n  6591: ecalli 12 // 'seal_return'\n  6593: fallthrough\n      : @120 [@dyn 51] (gas: 47)\n  6594: sp = sp + 0xffffffffffffff80\n  6597: u64 [sp + 0x78] = ra\n  6600: u64 [sp + 0x70] = s0\n  6603: u64 [sp + 0x68] = s1\n  6606: s0 = sp + 0x80\n  6610: sp = sp & 0xffffffffffffffe0\n  6613: ra = u64 [a1 + 0x10]\n  6616: a5 = u64 [a1 + 0x8]\n  6619: a3 = u64 [a2 + 0x8]\n  6622: t1 = u64 [a1]\n  6624: a4 = u64 [a2]\n  6626: u64 [sp + 0x28] = a4\n  6629: t2 = u64 [a2 + 0x10]\n  6632: t0 = a3 ^ a5\n  6635: s1 = a3 <u a5\n  6638: a4 = a4 <u t1\n  6641: u64 [sp + 0x20] = a4\n  6644: s1 = a4 if t0 == 0\n  6647: t0 = u64 [a1 + 0x18]\n  6650: a1 = u64 [a2 + 0x18]\n  6653: u64 [sp + 0x18] = a1\n  6656: a2 = t2 - ra\n  6659: a1 = a2 - s1\n  6662: u64 [sp + 0x30] = a1\n  6665: a1 = a2 <u s1\n  6668: a4 = t2 <u ra\n  6671: u64 [sp + 0x38] = t0\n  6674: a2 = u64 [sp + 0x18]\n  6677: a2 = a2 - t0\n  6680: a2 = a2 - a4\n  6683: a2 = a2 - a1\n  6686: a1 = a3 - a5\n  6689: a3 = u64 [sp + 0x20]\n  6692: a1 = a1 - a3\n  6695: a3 = u64 [sp + 0x28]\n  6698: a3 = a3 - t1\n  6701: a4 = a1 >u 0\n  6703: a3 = a3 <u 0x40\n  6706: a3 = a3 ^ 0x1\n  6709: a3 = a4 if a1 != 0\n  6712: s1 = a2 >s 0\n  6714: a1 = u64 [sp + 0x30]\n  6717: a4 = a1 >u 0\n  6719: a4 = s1 if a2 != 0\n  6722: a1 = a1 | a2\n  6725: a3 = a4 if a1 != 0\n  6728: jump @126 if a3 == 0\n      : @121 (gas: 12)\n  6732: s1 = a0\n  6734: a0 = t1 | ra\n  6737: u64 [sp + 0x30] = a5\n  6740: a1 = u64 [sp + 0x38]\n  6743: a1 = a1 | a5\n  6746: a0 = a0 | a1\n  6749: a0 = a0 >> 0x20\n  6752: u64 [sp + 0x28] = ra\n  6755: a1 = a1 | ra\n  6758: a1 = a1 << 0x20\n  6761: a0 = a0 | a1\n  6764: jump @125 if a0 != 0\n      : @122 (gas: 6)\n  6768: i32 a1 = t1 + 0\n  6770: i32 a0 = sp + 0x40\n  6773: u64 [sp + 0x18] = a1\n  6776: u64 [sp + 0x20] = t1\n  6779: ecalli 2 // 'call_data_load'\n  6781: fallthrough\n      : @123 (gas: 10)\n  6782: a0 = u64 [sp + 0x28]\n  6785: a1 = u64 [sp + 0x38]\n  6788: a0 = a0 | a1\n  6791: a1 = 0xffffffe0\n  6801: a2 = u64 [sp + 0x20]\n  6804: a1 = a2 <u a1\n  6807: a2 = u64 [sp + 0x30]\n  6810: a1 = 0 if a2 != 0\n  6812: a1 = 0 if a0 != 0\n  6814: jump @125 if a1 == 0\n      : @124 (gas: 34)\n  6817: a0 = u64 [sp + 0x58]\n  6820: u64 [sp + 0x20] = a0\n  6823: a0 = u64 [sp + 0x50]\n  6826: u64 [sp + 0x28] = a0\n  6829: a0 = u64 [sp + 0x48]\n  6832: u64 [sp + 0x30] = a0\n  6835: a0 = u64 [sp + 0x40]\n  6838: u64 [sp + 0x38] = a0\n  6841: a0 = u64 [sp + 0x18]\n  6844: i32 a1 = a0 + 0x20\n  6847: i32 a0 = sp + 0x40\n  6850: ecalli 2 // 'call_data_load'\n  6852: a0 = u64 [sp + 0x58]\n  6855: a1 = u64 [sp + 0x50]\n  6858: a2 = u64 [sp + 0x48]\n  6861: a3 = u64 [sp + 0x40]\n  6864: u64 [s1 + 0x38] = a0\n  6867: u64 [s1 + 0x30] = a1\n  6870: u64 [s1 + 0x28] = a2\n  6873: u64 [s1 + 0x20] = a3\n  6876: a0 = u64 [sp + 0x20]\n  6879: u64 [s1 + 0x18] = a0\n  6882: a0 = u64 [sp + 0x28]\n  6885: u64 [s1 + 0x10] = a0\n  6888: a0 = u64 [sp + 0x30]\n  6891: u64 [s1 + 0x8] = a0\n  6894: a0 = u64 [sp + 0x38]\n  6897: u64 [s1] = a0\n  6899: sp = s0 + 0xffffffffffffff80\n  6902: ra = u64 [sp + 0x78]\n  6905: s0 = u64 [sp + 0x70]\n  6908: s1 = u64 [sp + 0x68]\n  6911: sp = sp + 0x80\n  6915: ret\n      : @125 (gas: 1)\n  6917: trap\n      : @126 (gas: 3)\n  6918: a0 = 0\n  6920: a1 = 0\n  6922: ra = 104, jump @0\n      : @127 [@dyn 52] (gas: 6)\n  6927: i32 a1 = a0 + 0\n  6929: a0 = 0x1\n  6932: a2 = 0\n  6934: ra = 0x6a\n  6937: ecalli 12 // 'seal_return'\n  6939: fallthrough\n      : @128 [@dyn 53] (gas: 8)\n  6940: sp = sp + 0xffffffffffffff60\n  6944: u64 [sp + 0x98] = ra\n  6948: u64 [sp + 0x90] = s0\n  6952: u64 [sp + 0x88] = s1\n  6956: s0 = sp + 0xa0\n  6960: sp = sp & 0xffffffffffffffe0\n  6963: a0 = i32 [0x20004]\n  6968: jump @133 if a0 <=u 67\n      : @129 (gas: 75)\n  6973: i32 a0 = sp + 0x60\n  6976: a1 = 0x4\n  6979: ecalli 2 // 'call_data_load'\n  6981: a0 = u64 [sp + 0x60]\n  6984: u64 [sp + 0x18] = a0\n  6987: a0 = u64 [sp + 0x68]\n  6990: u64 [sp + 0x10] = a0\n  6993: a0 = u64 [sp + 0x70]\n  6996: u64 [sp + 0x8] = a0\n  6999: s1 = u64 [sp + 0x78]\n  7002: i32 a0 = sp + 0x60\n  7005: a1 = 0x24\n  7008: ecalli 2 // 'call_data_load'\n  7010: a0 = u64 [sp + 0x60]\n  7013: a1 = u64 [sp + 0x68]\n  7016: a2 = u64 [sp + 0x70]\n  7019: a3 = u64 [sp + 0x78]\n  7022: u64 [sp + 0x38] = a3\n  7025: u64 [sp + 0x30] = a2\n  7028: u64 [sp + 0x28] = a1\n  7031: u64 [sp + 0x20] = a0\n  7034: u64 [sp + 0x58] = s1\n  7037: a0 = u64 [sp + 0x8]\n  7040: u64 [sp + 0x50] = a0\n  7043: a0 = u64 [sp + 0x10]\n  7046: u64 [sp + 0x48] = a0\n  7049: a0 = sp + 0x40\n  7052: a1 = sp + 0x20\n  7055: a2 = u64 [sp + 0x18]\n  7058: u64 [sp + 0x40] = a2\n  7061: ra = 0x6c\n  7064: sp = sp + 0xfffffffffffffd60\n  7068: u64 [sp + 0x298] = ra\n  7072: u64 [sp + 0x290] = s0\n  7076: u64 [sp + 0x288] = s1\n  7080: s0 = sp + 0x2a0\n  7084: sp = sp & 0xffffffffffffffe0\n  7087: s1 = sp\n  7089: a2 = u64 [a1 + 0x18]\n  7092: u64 [s1 + 0x48] = a2\n  7095: a2 = u64 [a1 + 0x10]\n  7098: u64 [s1 + 0x50] = a2\n  7101: a2 = u64 [a1 + 0x8]\n  7104: u64 [s1 + 0x58] = a2\n  7107: a1 = u64 [a1]\n  7109: u64 [s1 + 0x60] = a1\n  7112: a1 = u64 [a0]\n  7114: u64 [s1 + 0x98] = a1\n  7118: a1 = u64 [a0 + 0x8]\n  7121: u64 [s1 + 0x90] = a1\n  7125: a1 = u64 [a0 + 0x10]\n  7128: u64 [s1 + 0x88] = a1\n  7132: a0 = u64 [a0 + 0x18]\n  7135: u64 [s1 + 0x80] = a0\n  7139: i32 a0 = s1 + 0x160\n  7143: ecalli 4 // 'caller'\n  7145: a0 = u64 [s1 + 0x168]\n  7149: a1 = i32 [s1 + 0x170]\n  7153: a3 = u64 [s1 + 0x160]\n  7157: u64 [s1 + 0x70] = a3\n  7160: a0 = reverse a0\n  7162: a2 = a0 << 0x20\n  7165: a1 = reverse a1\n  7167: a1 = a1 >> 0x20\n  7170: a1 = a1 | a2\n  7173: u64 [s1 + 0x78] = a1\n  7176: a0 = a0 >> 0x20\n  7179: a1 = reverse a3\n  7181: a1 = a1 << 0x20\n  7184: a0 = a0 | a1\n  7187: u64 [s1 + 0x68] = a0\n  7190: a1 = 0x20\n  7193: a0 = 0\n  7195: ra = 0xe0\n  7199: jump @0\n      : @130 [@dyn 54] (gas: 3)\n  7202: a0 = 0x40\n  7205: a1 = 0x20\n  7208: ra = 110, jump @0\n      : @131 [@dyn 55] (gas: 100)\n  7213: a1 = u8 [a0 + 0x11]\n  7216: a2 = u8 [a0 + 0x10]\n  7219: a3 = u8 [a0 + 0x12]\n  7222: a4 = u8 [a0 + 0x13]\n  7225: a1 = a1 << 0x8\n  7228: a1 = a1 | a2\n  7231: a3 = a3 << 0x10\n  7234: a4 = a4 << 0x18\n  7237: a3 = a3 | a4\n  7240: a1 = a1 | a3\n  7243: a2 = u8 [a0 + 0x15]\n  7246: a3 = u8 [a0 + 0x14]\n  7249: a4 = u8 [a0 + 0x16]\n  7252: a5 = u8 [a0 + 0x17]\n  7255: a2 = a2 << 0x8\n  7258: a2 = a2 | a3\n  7261: a4 = a4 << 0x10\n  7264: a5 = a5 << 0x18\n  7267: a4 = a4 | a5\n  7270: a2 = a2 | a4\n  7273: a2 = a2 << 0x20\n  7276: t0 = a2 | a1\n  7279: a2 = u8 [a0 + 0x1]\n  7282: a3 = u8 [a0]\n  7284: a4 = u8 [a0 + 0x2]\n  7287: a5 = u8 [a0 + 0x3]\n  7290: a2 = a2 << 0x8\n  7293: a2 = a2 | a3\n  7296: a4 = a4 << 0x10\n  7299: a5 = a5 << 0x18\n  7302: a4 = a4 | a5\n  7305: a2 = a2 | a4\n  7308: a3 = u8 [a0 + 0x5]\n  7311: a4 = u8 [a0 + 0x4]\n  7314: a5 = u8 [a0 + 0x6]\n  7317: s1 = u8 [a0 + 0x7]\n  7320: a3 = a3 << 0x8\n  7323: a3 = a3 | a4\n  7326: a5 = a5 << 0x10\n  7329: s1 = s1 << 0x18\n  7332: a5 = a5 | s1\n  7335: a3 = a3 | a5\n  7338: a3 = a3 << 0x20\n  7341: a2 = a2 | a3\n  7344: a3 = u8 [a0 + 0x19]\n  7347: a4 = u8 [a0 + 0x18]\n  7350: a5 = u8 [a0 + 0x1a]\n  7353: s1 = u8 [a0 + 0x1b]\n  7356: a3 = a3 << 0x8\n  7359: a3 = a3 | a4\n  7362: a5 = a5 << 0x10\n  7365: s1 = s1 << 0x18\n  7368: a5 = a5 | s1\n  7371: a3 = a3 | a5\n  7374: a4 = u8 [a0 + 0x1d]\n  7377: a5 = u8 [a0 + 0x1c]\n  7380: s1 = u8 [a0 + 0x1e]\n  7383: a1 = u8 [a0 + 0x1f]\n  7386: a4 = a4 << 0x8\n  7389: a4 = a4 | a5\n  7392: s1 = s1 << 0x10\n  7395: a1 = a1 << 0x18\n  7398: a1 = a1 | s1\n  7401: a1 = a1 | a4\n  7404: a1 = a1 << 0x20\n  7407: a3 = a3 | a1\n  7410: a1 = u8 [a0 + 0x9]\n  7413: a4 = u8 [a0 + 0x8]\n  7416: a5 = u8 [a0 + 0xa]\n  7419: s1 = u8 [a0 + 0xb]\n  7422: a1 = a1 << 0x8\n  7425: a1 = a1 | a4\n  7428: a5 = a5 << 0x10\n  7431: s1 = s1 << 0x18\n  7434: a5 = a5 | s1\n  7437: a1 = a1 | a5\n  7440: a4 = u8 [a0 + 0xd]\n  7443: a5 = u8 [a0 + 0xc]\n  7446: s1 = u8 [a0 + 0xe]\n  7449: a0 = u8 [a0 + 0xf]\n  7452: a4 = a4 << 0x8\n  7455: a4 = a4 | a5\n  7458: s1 = s1 << 0x10\n  7461: a0 = a0 << 0x18\n  7464: a0 = a0 | s1\n  7467: a0 = a0 | a4\n  7470: a0 = a0 << 0x20\n  7473: a0 = a0 | a1\n  7476: a1 = reverse a0\n  7478: a0 = reverse a3\n  7480: a2 = reverse a2\n  7482: a3 = reverse t0\n  7484: a2 = a2 | a3\n  7487: a3 = a0 | a1\n  7490: a3 = a3 | a2\n  7493: a3 = a3 >> 0x20\n  7496: a1 = a1 | a2\n  7499: a1 = a1 << 0x20\n  7502: a1 = a1 | a3\n  7505: jump @135 if a1 == 0\n      : @132 (gas: 1)\n  7508: trap\n      : @133 (gas: 3)\n  7509: a0 = 0\n  7511: a1 = 0\n  7513: ra = 112, jump @0\n      : @134 [@dyn 56] (gas: 7)\n  7518: i32 a1 = a0 + 0\n  7520: a0 = 0x1\n  7523: a2 = 0\n  7525: ecalli 12 // 'seal_return'\n  7527: i32 a0 = a0 + 0\n  7529: ra = 0x72\n  7532: jump @0\n      : @135 (gas: 2)\n  7535: i32 a0 = a0 + 0\n  7537: ra = 114, jump @0\n      : @136 [@dyn 57] (gas: 6)\n  7542: i32 a1 = a0 + 0\n  7544: a0 = 0\n  7546: a2 = 0\n  7548: ra = 0x74\n  7551: ecalli 12 // 'seal_return'\n  7553: fallthrough\n      : @137 [@dyn 58] (gas: 35)\n  7554: sp = sp + 0xffffffffffffffa0\n  7557: u64 [sp + 0x58] = ra\n  7560: u64 [sp + 0x50] = s0\n  7563: u64 [sp + 0x48] = s1\n  7566: s0 = sp + 0x60\n  7569: sp = sp & 0xffffffffffffffe0\n  7572: s1 = a0\n  7574: u64 [sp + 24] = 0\n  7577: u64 [sp + 16] = 0\n  7580: u64 [sp + 8] = 0\n  7583: u64 [sp + 0] = 0\n  7585: u64 [sp + 56] = 0\n  7588: u64 [sp + 48] = 0\n  7591: u64 [sp + 40] = 0\n  7594: u64 [sp + 32] = 0\n  7597: u32 [sp + 64] = 0x20\n  7601: i32 a1 = sp + 0\n  7603: i32 a3 = sp + 0x20\n  7606: i32 a4 = sp + 0x40\n  7609: a2 = 0xffffffffffffffff\n  7612: a0 = 0\n  7614: ecalli 6 // 'get_storage'\n  7616: a0 = u32 [sp + 0x30]\n  7619: a1 = u64 [sp + 0x28]\n  7622: a2 = u64 [sp + 0x20]\n  7625: u64 [s1 + 24] = 0\n  7628: u64 [s1 + 0x10] = a0\n  7631: u64 [s1 + 0x8] = a1\n  7634: u64 [s1] = a2\n  7636: sp = s0 + 0xffffffffffffffa0\n  7639: ra = u64 [sp + 0x58]\n  7642: s0 = u64 [sp + 0x50]\n  7645: s1 = u64 [sp + 0x48]\n  7648: sp = sp + 0x60\n  7651: ret\n      : @138 (gas: 8)\n  7653: a0 = u64 [sp + 0x30]\n  7656: a1 = u64 [sp + 0x38]\n  7659: a2 = u64 [sp + 0x28]\n  7662: a3 = u64 [sp + 0x20]\n  7665: a1 = a1 | a2\n  7668: a0 = a0 | a3\n  7671: a0 = a0 | a1\n  7674: jump @143 if a0 != 0\n      : @139 (gas: 2)\n  7678: a0 = i32 [0x20004]\n  7683: jump @143 if a0 <=u 3\n      : @140 (gas: 24)\n  7688: u64 [sp + 88] = 0\n  7691: u64 [sp + 80] = 0\n  7694: u64 [sp + 72] = 0\n  7697: u64 [sp + 64] = 0\n  7700: u64 [sp + 120] = 0\n  7703: u64 [sp + 112] = 0\n  7706: u64 [sp + 104] = 0\n  7709: u64 [sp + 96] = 0\n  7712: u32 [sp + 128] = 0x20\n  7717: i32 a1 = sp + 0x40\n  7720: i32 a3 = sp + 0x60\n  7723: i32 a4 = sp + 0x80\n  7727: a2 = 0xffffffffffffffff\n  7730: a0 = 0\n  7732: ecalli 6 // 'get_storage'\n  7734: a0 = u64 [sp + 0x70]\n  7737: u64 [sp + 0x8] = a0\n  7740: a0 = u64 [sp + 0x68]\n  7743: u64 [sp + 0x10] = a0\n  7746: a0 = u64 [sp + 0x60]\n  7749: u64 [sp + 0x18] = a0\n  7752: a0 = 0x40\n  7755: a1 = 0x20\n  7758: ra = 118, jump @0\n      : @141 [@dyn 59] (gas: 100)\n  7763: a1 = u8 [a0 + 0x11]\n  7766: a2 = u8 [a0 + 0x10]\n  7769: a3 = u8 [a0 + 0x12]\n  7772: a4 = u8 [a0 + 0x13]\n  7775: a1 = a1 << 0x8\n  7778: a1 = a1 | a2\n  7781: a3 = a3 << 0x10\n  7784: a4 = a4 << 0x18\n  7787: a3 = a3 | a4\n  7790: a1 = a1 | a3\n  7793: a2 = u8 [a0 + 0x15]\n  7796: a3 = u8 [a0 + 0x14]\n  7799: a4 = u8 [a0 + 0x16]\n  7802: a5 = u8 [a0 + 0x17]\n  7805: a2 = a2 << 0x8\n  7808: a2 = a2 | a3\n  7811: a4 = a4 << 0x10\n  7814: a5 = a5 << 0x18\n  7817: a4 = a4 | a5\n  7820: a2 = a2 | a4\n  7823: a2 = a2 << 0x20\n  7826: t0 = a2 | a1\n  7829: a2 = u8 [a0 + 0x1]\n  7832: a3 = u8 [a0]\n  7834: a4 = u8 [a0 + 0x2]\n  7837: a5 = u8 [a0 + 0x3]\n  7840: a2 = a2 << 0x8\n  7843: a2 = a2 | a3\n  7846: a4 = a4 << 0x10\n  7849: a5 = a5 << 0x18\n  7852: a4 = a4 | a5\n  7855: a2 = a2 | a4\n  7858: a3 = u8 [a0 + 0x5]\n  7861: a4 = u8 [a0 + 0x4]\n  7864: a5 = u8 [a0 + 0x6]\n  7867: s1 = u8 [a0 + 0x7]\n  7870: a3 = a3 << 0x8\n  7873: a3 = a3 | a4\n  7876: a5 = a5 << 0x10\n  7879: s1 = s1 << 0x18\n  7882: a5 = a5 | s1\n  7885: a3 = a3 | a5\n  7888: a3 = a3 << 0x20\n  7891: a2 = a2 | a3\n  7894: a3 = u8 [a0 + 0x19]\n  7897: a4 = u8 [a0 + 0x18]\n  7900: a5 = u8 [a0 + 0x1a]\n  7903: s1 = u8 [a0 + 0x1b]\n  7906: a3 = a3 << 0x8\n  7909: a3 = a3 | a4\n  7912: a5 = a5 << 0x10\n  7915: s1 = s1 << 0x18\n  7918: a5 = a5 | s1\n  7921: a3 = a3 | a5\n  7924: a4 = u8 [a0 + 0x1d]\n  7927: a5 = u8 [a0 + 0x1c]\n  7930: s1 = u8 [a0 + 0x1e]\n  7933: a1 = u8 [a0 + 0x1f]\n  7936: a4 = a4 << 0x8\n  7939: a4 = a4 | a5\n  7942: s1 = s1 << 0x10\n  7945: a1 = a1 << 0x18\n  7948: a1 = a1 | s1\n  7951: a1 = a1 | a4\n  7954: a1 = a1 << 0x20\n  7957: a3 = a3 | a1\n  7960: a1 = u8 [a0 + 0x9]\n  7963: a4 = u8 [a0 + 0x8]\n  7966: a5 = u8 [a0 + 0xa]\n  7969: s1 = u8 [a0 + 0xb]\n  7972: a1 = a1 << 0x8\n  7975: a1 = a1 | a4\n  7978: a5 = a5 << 0x10\n  7981: s1 = s1 << 0x18\n  7984: a5 = a5 | s1\n  7987: a1 = a1 | a5\n  7990: a4 = u8 [a0 + 0xd]\n  7993: a5 = u8 [a0 + 0xc]\n  7996: s1 = u8 [a0 + 0xe]\n  7999: a0 = u8 [a0 + 0xf]\n  8002: a4 = a4 << 0x8\n  8005: a4 = a4 | a5\n  8008: s1 = s1 << 0x10\n  8011: a0 = a0 << 0x18\n  8014: a0 = a0 | s1\n  8017: a0 = a0 | a4\n  8020: a0 = a0 << 0x20\n  8023: a0 = a0 | a1\n  8026: a1 = reverse a0\n  8028: a0 = reverse a3\n  8030: a2 = reverse a2\n  8032: a3 = reverse t0\n  8034: a2 = a2 | a3\n  8037: a3 = a0 | a1\n  8040: a3 = a3 | a2\n  8043: a3 = a3 >> 0x20\n  8046: a1 = a1 | a2\n  8049: a1 = a1 << 0x20\n  8052: a1 = a1 | a3\n  8055: jump @145 if a1 == 0\n      : @142 (gas: 1)\n  8058: trap\n      : @143 (gas: 3)\n  8059: a0 = 0\n  8061: a1 = 0\n  8063: ra = 120, jump @0\n      : @144 [@dyn 60] (gas: 5)\n  8068: i32 a1 = a0 + 0\n  8070: a0 = 0x1\n  8073: a2 = 0\n  8075: ecalli 12 // 'seal_return'\n  8077: fallthrough\n      : @145 (gas: 7)\n  8078: a1 = u64 [sp + 0x8]\n  8081: a1 = a1 << 0x20\n  8084: s1 = a1 >> 0x20\n  8087: i32 a0 = a0 + 0\n  8089: u64 [sp + 0x8] = a0\n  8092: a1 = 0x20\n  8095: ra = 122, jump @0\n      : @146 [@dyn 61] (gas: 58)\n  8100: a1 = reverse s1\n  8102: a2 = u64 [sp + 0x10]\n  8105: a2 = reverse a2\n  8107: a3 = u64 [sp + 0x18]\n  8110: a3 = reverse a3\n  8112: a4 = a3 >> 0x38\n  8115: u8 [a0 + 0x1f] = a4\n  8118: a4 = a3 >> 0x30\n  8121: u8 [a0 + 0x1e] = a4\n  8124: a4 = a3 >> 0x28\n  8127: u8 [a0 + 0x1d] = a4\n  8130: a4 = a3 >> 0x20\n  8133: u8 [a0 + 0x1c] = a4\n  8136: a4 = a3 >> 0x18\n  8139: u8 [a0 + 0x1b] = a4\n  8142: a4 = a3 >> 0x10\n  8145: u8 [a0 + 0x1a] = a4\n  8148: a4 = a3 >> 0x8\n  8151: u8 [a0 + 0x19] = a4\n  8154: u8 [a0 + 0x18] = a3\n  8157: u8 [a0 + 0x10] = a2\n  8160: u8 [a0 + 11] = 0\n  8163: u8 [a0 + 10] = 0\n  8166: u8 [a0 + 9] = 0\n  8169: u8 [a0 + 7] = 0\n  8172: u8 [a0 + 6] = 0\n  8175: u8 [a0 + 5] = 0\n  8178: u8 [a0 + 4] = 0\n  8181: u8 [a0 + 3] = 0\n  8184: u8 [a0 + 2] = 0\n  8187: u8 [a0 + 1] = 0\n  8190: u8 [a0 + 0] = 0\n  8192: a3 = a2 >> 0x38\n  8195: u8 [a0 + 0x17] = a3\n  8198: a3 = a2 >> 0x30\n  8201: u8 [a0 + 0x16] = a3\n  8204: a3 = a2 >> 0x28\n  8207: u8 [a0 + 0x15] = a3\n  8210: a3 = a2 >> 0x20\n  8213: u8 [a0 + 0x14] = a3\n  8216: a3 = a2 >> 0x18\n  8219: u8 [a0 + 0x13] = a3\n  8222: a3 = a2 >> 0x10\n  8225: u8 [a0 + 0x12] = a3\n  8228: a2 = a2 >> 0x8\n  8231: u8 [a0 + 0x11] = a2\n  8234: u8 [a0 + 0x8] = a1\n  8237: a2 = a1 >> 0x38\n  8240: u8 [a0 + 0xf] = a2\n  8243: a2 = a1 >> 0x30\n  8246: u8 [a0 + 0xe] = a2\n  8249: a2 = a1 >> 0x28\n  8252: u8 [a0 + 0xd] = a2\n  8255: a1 = a1 >> 0x20\n  8258: u8 [a0 + 0xc] = a1\n  8261: a1 = 0x20\n  8264: a0 = u64 [sp + 0x8]\n  8267: ra = 124, jump @0\n      : @147 [@dyn 62] (gas: 6)\n  8272: i32 a1 = a0 + 0\n  8274: a2 = 0x20\n  8277: a0 = 0\n  8279: ra = 0x7e\n  8282: ecalli 12 // 'seal_return'\n  8284: fallthrough\n      : @148 [@dyn 63] (gas: 52)\n  8285: sp = sp + 0xffffffffffffff80\n  8288: u64 [sp + 0x78] = ra\n  8291: u64 [sp + 0x70] = s0\n  8294: u64 [sp + 0x68] = s1\n  8297: s0 = sp + 0x80\n  8301: sp = sp & 0xffffffffffffffe0\n  8304: t2 = u64 [a1 + 0x10]\n  8307: a5 = u64 [a1 + 0x8]\n  8310: t0 = u64 [a2 + 0x8]\n  8313: s1 = u64 [a1]\n  8315: u64 [sp + 0x10] = s1\n  8318: a4 = u64 [a2]\n  8320: u64 [sp + 0x18] = a4\n  8323: ra = u64 [a2 + 0x10]\n  8326: a3 = t0 ^ a5\n  8329: u64 [sp + 0x38] = a3\n  8332: a3 = t0 <u a5\n  8335: a4 = a4 <u s1\n  8338: t1 = u64 [sp + 0x38]\n  8341: a3 = a4 if t1 == 0\n  8344: t1 = a4\n  8346: a1 = u64 [a1 + 0x18]\n  8349: u64 [sp + 0x38] = a1\n  8352: a1 = u64 [a2 + 0x18]\n  8355: u64 [sp + 0x20] = a1\n  8358: a1 = ra - t2\n  8361: a2 = a1 - a3\n  8364: u64 [sp + 0x28] = a2\n  8367: a2 = a1 <u a3\n  8370: u64 [sp + 0x30] = t2\n  8373: a3 = ra <u t2\n  8376: a1 = u64 [sp + 0x38]\n  8379: a4 = u64 [sp + 0x20]\n  8382: a1 = a4 - a1\n  8385: a1 = a1 - a3\n  8388: t2 = a1 - a2\n  8391: s1 = t0 - a5\n  8394: a2 = s1 - t1\n  8397: t0 = u64 [sp + 0x10]\n  8400: a1 = u64 [sp + 0x18]\n  8403: a3 = a1 - t0\n  8406: a4 = a2 >u 0\n  8408: a3 = a3 <u 0x20\n  8411: a3 = a3 ^ 0x1\n  8414: a3 = a4 if a2 != 0\n  8417: a2 = t2 >s 0\n  8419: a1 = u64 [sp + 0x28]\n  8422: a4 = a1 >u 0\n  8424: a4 = a2 if t2 != 0\n  8427: a1 = a1 | t2\n  8430: a3 = a4 if a1 != 0\n  8433: jump @154 if a3 == 0\n      : @149 (gas: 11)\n  8436: s1 = a0\n  8438: a2 = u64 [sp + 0x30]\n  8441: a0 = t0 | a2\n  8444: a1 = u64 [sp + 0x38]\n  8447: a1 = a1 | a5\n  8450: a0 = a0 | a1\n  8453: a0 = a0 >> 0x20\n  8456: a1 = a1 | a2\n  8459: a1 = a1 << 0x20\n  8462: a0 = a0 | a1\n  8465: jump @153 if a0 != 0\n      : @150 (gas: 4)\n  8468: i32 a1 = t0 + 0\n  8470: i32 a0 = sp + 0x40\n  8473: ecalli 2 // 'call_data_load'\n  8475: fallthrough\n      : @151 (gas: 10)\n  8476: a0 = u64 [sp + 0x50]\n  8479: a1 = u64 [sp + 0x58]\n  8482: a2 = 0x100000000\n  8492: a2 = a2 ^ a0\n  8495: a2 = a2 | a1\n  8498: a3 = a0 >> 0x20\n  8501: a3 = a3 <u 0x1\n  8504: a3 = 0 if a1 != 0\n  8506: a3 = 0 if a2 == 0\n  8508: jump @154 if a3 == 0\n      : @152 (gas: 12)\n  8511: a2 = u64 [sp + 0x48]\n  8514: a3 = u64 [sp + 0x40]\n  8517: u64 [s1 + 0x8] = a2\n  8520: u64 [s1] = a3\n  8522: u64 [s1 + 0x10] = a0\n  8525: u64 [s1 + 0x18] = a1\n  8528: sp = s0 + 0xffffffffffffff80\n  8531: ra = u64 [sp + 0x78]\n  8534: s0 = u64 [sp + 0x70]\n  8537: s1 = u64 [sp + 0x68]\n  8540: sp = sp + 0x80\n  8544: ret\n      : @153 (gas: 1)\n  8546: trap\n      : @154 (gas: 3)\n  8547: a0 = 0\n  8549: a1 = 0\n  8551: ra = 128, jump @0\n      : @155 [@dyn 64] (gas: 6)\n  8557: i32 a1 = a0 + 0\n  8559: a0 = 0x1\n  8562: a2 = 0\n  8564: ra = 0x82\n  8568: ecalli 12 // 'seal_return'\n  8570: fallthrough\n      : @156 [@dyn 65] (gas: 9)\n  8571: a2 = u64 [a1 + 0x18]\n  8574: a3 = u64 [a1 + 0x10]\n  8577: a4 = u64 [a1 + 0x8]\n  8580: a1 = u64 [a1]\n  8582: u64 [a0 + 0x18] = a2\n  8585: u64 [a0 + 0x10] = a3\n  8588: u64 [a0 + 0x8] = a4\n  8591: u64 [a0] = a1\n  8593: ret\n      : @157 [@dyn 66] (gas: 59)\n  8595: a1 = u64 [sp + 0xa8]\n  8599: a1 = reverse a1\n  8601: a2 = u64 [sp + 0xb0]\n  8605: a2 = reverse a2\n  8607: a3 = u64 [sp + 0xb8]\n  8611: a3 = reverse a3\n  8613: a4 = a3 >> 0x38\n  8616: u8 [a0 + 0x1f] = a4\n  8619: a4 = a3 >> 0x30\n  8622: u8 [a0 + 0x1e] = a4\n  8625: a4 = a3 >> 0x28\n  8628: u8 [a0 + 0x1d] = a4\n  8631: a4 = a3 >> 0x20\n  8634: u8 [a0 + 0x1c] = a4\n  8637: a4 = a3 >> 0x18\n  8640: u8 [a0 + 0x1b] = a4\n  8643: a4 = a3 >> 0x10\n  8646: u8 [a0 + 0x1a] = a4\n  8649: a4 = a3 >> 0x8\n  8652: u8 [a0 + 0x19] = a4\n  8655: u8 [a0 + 0x18] = a3\n  8658: a3 = a2 >> 0x38\n  8661: u8 [a0 + 0x17] = a3\n  8664: a3 = a2 >> 0x30\n  8667: u8 [a0 + 0x16] = a3\n  8670: a3 = a2 >> 0x28\n  8673: u8 [a0 + 0x15] = a3\n  8676: a3 = a2 >> 0x20\n  8679: u8 [a0 + 0x14] = a3\n  8682: a3 = a2 >> 0x18\n  8685: u8 [a0 + 0x13] = a3\n  8688: a3 = a2 >> 0x10\n  8691: u8 [a0 + 0x12] = a3\n  8694: a3 = a2 >> 0x8\n  8697: u8 [a0 + 0x11] = a3\n  8700: u8 [a0 + 0x10] = a2\n  8703: a2 = a1 >> 0x38\n  8706: u8 [a0 + 0xf] = a2\n  8709: a2 = a1 >> 0x30\n  8712: u8 [a0 + 0xe] = a2\n  8715: a2 = a1 >> 0x28\n  8718: u8 [a0 + 0xd] = a2\n  8721: a2 = a1 >> 0x20\n  8724: u8 [a0 + 0xc] = a2\n  8727: u8 [a0 + 11] = 0\n  8730: u8 [a0 + 10] = 0\n  8733: u8 [a0 + 9] = 0\n  8736: u8 [a0 + 0x8] = a1\n  8739: u8 [a0 + 7] = 0\n  8742: u8 [a0 + 6] = 0\n  8745: u8 [a0 + 5] = 0\n  8748: u8 [a0 + 4] = 0\n  8751: u8 [a0 + 3] = 0\n  8754: u8 [a0 + 2] = 0\n  8757: u8 [a0 + 1] = 0\n  8760: u8 [a0 + 0] = 0\n  8762: a0 = 0x20\n  8765: a1 = 0x20\n  8768: ra = 134, jump @0\n      : @158 [@dyn 67] (gas: 35)\n  8774: u8 [a0 + 31] = 0x2\n  8778: u8 [a0 + 30] = 0\n  8781: u8 [a0 + 29] = 0\n  8784: u8 [a0 + 28] = 0\n  8787: u8 [a0 + 27] = 0\n  8790: u8 [a0 + 26] = 0\n  8793: u8 [a0 + 25] = 0\n  8796: u8 [a0 + 24] = 0\n  8799: u8 [a0 + 23] = 0\n  8802: u8 [a0 + 22] = 0\n  8805: u8 [a0 + 21] = 0\n  8808: u8 [a0 + 20] = 0\n  8811: u8 [a0 + 19] = 0\n  8814: u8 [a0 + 18] = 0\n  8817: u8 [a0 + 17] = 0\n  8820: u8 [a0 + 16] = 0\n  8823: u8 [a0 + 15] = 0\n  8826: u8 [a0 + 14] = 0\n  8829: u8 [a0 + 13] = 0\n  8832: u8 [a0 + 12] = 0\n  8835: u8 [a0 + 11] = 0\n  8838: u8 [a0 + 10] = 0\n  8841: u8 [a0 + 9] = 0\n  8844: u8 [a0 + 8] = 0\n  8847: u8 [a0 + 7] = 0\n  8850: u8 [a0 + 6] = 0\n  8853: u8 [a0 + 5] = 0\n  8856: u8 [a0 + 4] = 0\n  8859: u8 [a0 + 3] = 0\n  8862: u8 [a0 + 2] = 0\n  8865: u8 [a0 + 1] = 0\n  8868: u8 [a0 + 0] = 0\n  8870: a1 = 0x40\n  8873: a0 = 0\n  8875: ra = 136, jump @0\n      : @159 [@dyn 68] (gas: 259)\n  8881: i32 a0 = a0 + 0\n  8883: i32 a2 = sp + 0xe0\n  8887: a1 = 0x40\n  8890: ecalli 7 // 'hash_keccak_256'\n  8892: a0 = u64 [sp + 0xf8]\n  8896: a1 = u64 [sp + 0xf0]\n  8900: a2 = u64 [sp + 0xe8]\n  8904: a3 = u64 [sp + 0xe0]\n  8908: a4 = reverse a0\n  8910: u64 [sp + 0xa8] = a4\n  8914: a1 = reverse a1\n  8916: u64 [sp + 0xb0] = a1\n  8920: a2 = reverse a2\n  8922: u64 [sp + 0xa0] = a2\n  8926: a0 = reverse a3\n  8928: u64 [sp + 0xb8] = a0\n  8932: u64 [sp + 0xd8] = a0\n  8936: u64 [sp + 0xd0] = a2\n  8940: u64 [sp + 0xc8] = a1\n  8944: u64 [sp + 0xc0] = a4\n  8948: u64 [sp + 248] = 0\n  8952: u64 [sp + 240] = 0\n  8956: u64 [sp + 232] = 0\n  8960: u64 [sp + 224] = 0\n  8964: u32 [sp + 256] = 0x20\n  8969: i32 a1 = sp + 0xc0\n  8973: i32 a3 = sp + 0xe0\n  8977: i32 a4 = sp + 0x100\n  8981: a2 = 0xffffffffffffffff\n  8984: a0 = 0\n  8986: ecalli 6 // 'get_storage'\n  8988: a0 = u64 [sp + 0xa8]\n  8992: a0 = a0 + 0x1\n  8995: a1 = a0 <u 0x1\n  8998: a2 = u64 [sp + 0xb0]\n  9002: a1 = a1 + a2\n  9005: a2 = a0 | a1\n  9008: a2 = a2 <u 0x1\n  9011: a3 = u64 [sp + 0xa0]\n  9015: a2 = a2 + a3\n  9018: a3 = a2 <u a3\n  9021: a4 = u64 [sp + 0xb8]\n  9025: a3 = a3 + a4\n  9028: u64 [sp + 0xd8] = a3\n  9032: a3 = u64 [sp + 0xe0]\n  9036: u64 [sp + 0x98] = a3\n  9040: u64 [sp + 0xd0] = a2\n  9044: a2 = u64 [sp + 0xe8]\n  9048: u64 [sp + 0x90] = a2\n  9052: u64 [sp + 0xc8] = a1\n  9056: a1 = u64 [sp + 0xf0]\n  9060: u64 [sp + 0x88] = a1\n  9064: u64 [sp + 0xc0] = a0\n  9068: a0 = u64 [sp + 0xf8]\n  9072: u64 [sp + 0x80] = a0\n  9076: u64 [sp + 248] = 0\n  9080: u64 [sp + 240] = 0\n  9084: u64 [sp + 232] = 0\n  9088: u64 [sp + 224] = 0\n  9092: u32 [sp + 256] = 0x20\n  9097: i32 a1 = sp + 0xc0\n  9101: i32 a3 = sp + 0xe0\n  9105: i32 a4 = sp + 0x100\n  9109: a2 = 0xffffffffffffffff\n  9112: a0 = 0\n  9114: ecalli 6 // 'get_storage'\n  9116: a1 = u64 [sp + 0xa8]\n  9120: a0 = a1 + 0x2\n  9123: a1 = a0 <u a1\n  9126: a3 = u64 [sp + 0xb0]\n  9130: a2 = a3 + a1\n  9133: a3 = a2 <u a3\n  9136: a3 = a1 if a1 == 0\n  9139: a1 = u64 [sp + 0xa0]\n  9143: a3 = a3 + a1\n  9146: a1 = a3 <u a1\n  9149: a4 = u64 [sp + 0xb8]\n  9153: a1 = a1 + a4\n  9156: u64 [sp + 0xd8] = a1\n  9160: a1 = u64 [sp + 0xe0]\n  9164: u64 [sp + 0x78] = a1\n  9167: u64 [sp + 0xd0] = a3\n  9171: a1 = u64 [sp + 0xe8]\n  9175: u64 [sp + 0x70] = a1\n  9178: u64 [sp + 0xc8] = a2\n  9182: a1 = u64 [sp + 0xf0]\n  9186: u64 [sp + 0x68] = a1\n  9189: u64 [sp + 0xc0] = a0\n  9193: a0 = u64 [sp + 0xf8]\n  9197: u64 [sp + 0x60] = a0\n  9200: u64 [sp + 248] = 0\n  9204: u64 [sp + 240] = 0\n  9208: u64 [sp + 232] = 0\n  9212: u64 [sp + 224] = 0\n  9216: u32 [sp + 256] = 0x20\n  9221: i32 a1 = sp + 0xc0\n  9225: i32 a3 = sp + 0xe0\n  9229: i32 a4 = sp + 0x100\n  9233: a2 = 0xffffffffffffffff\n  9236: a0 = 0\n  9238: ecalli 6 // 'get_storage'\n  9240: a1 = u64 [sp + 0xa8]\n  9244: a0 = a1 + 0x3\n  9247: a1 = a0 <u a1\n  9250: a3 = u64 [sp + 0xb0]\n  9254: a2 = a3 + a1\n  9257: a3 = a2 <u a3\n  9260: a3 = a1 if a1 == 0\n  9263: a1 = u64 [sp + 0xa0]\n  9267: a3 = a3 + a1\n  9270: a1 = a3 <u a1\n  9273: a4 = u64 [sp + 0xb8]\n  9277: a1 = a1 + a4\n  9280: u64 [sp + 0xd8] = a1\n  9284: a1 = u64 [sp + 0xe0]\n  9288: u64 [sp + 0x58] = a1\n  9291: u64 [sp + 0xd0] = a3\n  9295: a1 = u64 [sp + 0xe8]\n  9299: u64 [sp + 0x50] = a1\n  9302: u64 [sp + 0xc8] = a2\n  9306: a1 = u64 [sp + 0xf0]\n  9310: u64 [sp + 0x48] = a1\n  9313: u64 [sp + 0xc0] = a0\n  9317: a0 = u64 [sp + 0xf8]\n  9321: u64 [sp + 0x40] = a0\n  9324: u64 [sp + 248] = 0\n  9328: u64 [sp + 240] = 0\n  9332: u64 [sp + 232] = 0\n  9336: u64 [sp + 224] = 0\n  9340: u32 [sp + 256] = 0x20\n  9345: i32 a1 = sp + 0xc0\n  9349: i32 a3 = sp + 0xe0\n  9353: i32 a4 = sp + 0x100\n  9357: a2 = 0xffffffffffffffff\n  9360: a0 = 0\n  9362: ecalli 6 // 'get_storage'\n  9364: a1 = u64 [sp + 0xa8]\n  9368: a0 = a1 + 0x4\n  9371: a1 = a0 <u a1\n  9374: a3 = u64 [sp + 0xb0]\n  9378: a2 = a3 + a1\n  9381: a3 = a2 <u a3\n  9384: a3 = a1 if a1 == 0\n  9387: a1 = u64 [sp + 0xa0]\n  9391: a3 = a3 + a1\n  9394: a1 = a3 <u a1\n  9397: a4 = u64 [sp + 0xb8]\n  9401: a1 = a1 + a4\n  9404: u64 [sp + 0xd8] = a1\n  9408: a1 = u64 [sp + 0xe0]\n  9412: u64 [sp + 0x38] = a1\n  9415: u64 [sp + 0xd0] = a3\n  9419: a1 = u64 [sp + 0xe8]\n  9423: u64 [sp + 0x30] = a1\n  9426: u64 [sp + 0xc8] = a2\n  9430: a1 = u64 [sp + 0xf0]\n  9434: u64 [sp + 0x28] = a1\n  9437: u64 [sp + 0xc0] = a0\n  9441: a0 = u64 [sp + 0xf8]\n  9445: u64 [sp + 0x20] = a0\n  9448: u64 [sp + 248] = 0\n  9452: u64 [sp + 240] = 0\n  9456: u64 [sp + 232] = 0\n  9460: u64 [sp + 224] = 0\n  9464: u32 [sp + 256] = 0x20\n  9469: i32 a1 = sp + 0xc0\n  9473: i32 a3 = sp + 0xe0\n  9477: i32 a4 = sp + 0x100\n  9481: a2 = 0xffffffffffffffff\n  9484: a0 = 0\n  9486: ecalli 6 // 'get_storage'\n  9488: a0 = u64 [sp + 0xe0]\n  9492: u64 [sp + 0x18] = a0\n  9495: a0 = u64 [sp + 0xe8]\n  9499: u64 [sp + 0x10] = a0\n  9502: a0 = u64 [sp + 0xf0]\n  9506: u64 [sp + 0x8] = a0\n  9509: a0 = u64 [sp + 0xf8]\n  9513: u64 [sp] = a0\n  9515: a1 = u64 [sp + 0xa8]\n  9519: a0 = a1 + 0x5\n  9522: a1 = a0 <u a1\n  9525: a3 = u64 [sp + 0xb0]\n  9529: a2 = a3 + a1\n  9532: a3 = a2 <u a3\n  9535: a3 = a1 if a1 == 0\n  9538: a1 = u64 [sp + 0xa0]\n  9542: a3 = a3 + a1\n  9545: a1 = a3 <u a1\n  9548: a4 = u64 [sp + 0xb8]\n  9552: a1 = a1 + a4\n  9555: u64 [sp + 0xd8] = a1\n  9559: u64 [sp + 0xd0] = a3\n  9563: u64 [sp + 0xc8] = a2\n  9567: u64 [sp + 0xc0] = a0\n  9571: u64 [sp + 248] = 0\n  9575: u64 [sp + 240] = 0\n  9579: u64 [sp + 232] = 0\n  9583: u64 [sp + 224] = 0\n  9587: u32 [sp + 256] = 0x20\n  9592: i32 a1 = sp + 0xc0\n  9596: i32 a3 = sp + 0xe0\n  9600: i32 a4 = sp + 0x100\n  9604: a2 = 0xffffffffffffffff\n  9607: a0 = 0\n  9609: ecalli 6 // 'get_storage'\n  9611: a0 = u32 [sp + 0xf0]\n  9615: a1 = u64 [sp + 0xe8]\n  9619: a2 = u64 [sp + 0xe0]\n  9623: u64 [s1 + 0xb0] = a0\n  9627: u64 [s1 + 0xa8] = a1\n  9631: u64 [s1 + 0xa0] = a2\n  9635: a0 = u64 [sp]\n  9637: u64 [s1 + 0x98] = a0\n  9641: a0 = u64 [sp + 0x8]\n  9644: u64 [s1 + 0x90] = a0\n  9648: a0 = u64 [sp + 0x10]\n  9651: u64 [s1 + 0x88] = a0\n  9655: a0 = u64 [sp + 0x18]\n  9658: u64 [s1 + 0x80] = a0\n  9662: a0 = u64 [sp + 0x20]\n  9665: u64 [s1 + 0x78] = a0\n  9668: a0 = u64 [sp + 0x28]\n  9671: u64 [s1 + 0x70] = a0\n  9674: a0 = u64 [sp + 0x30]\n  9677: u64 [s1 + 0x68] = a0\n  9680: a0 = u64 [sp + 0x38]\n  9683: u64 [s1 + 0x60] = a0\n  9686: a0 = u64 [sp + 0x40]\n  9689: u64 [s1 + 0x58] = a0\n  9692: a0 = u64 [sp + 0x48]\n  9695: u64 [s1 + 0x50] = a0\n  9698: a0 = u64 [sp + 0x50]\n  9701: u64 [s1 + 0x48] = a0\n  9704: a0 = u64 [sp + 0x58]\n  9707: u64 [s1 + 0x40] = a0\n  9710: a0 = u64 [sp + 0x60]\n  9713: u64 [s1 + 0x38] = a0\n  9716: a0 = u64 [sp + 0x68]\n  9719: u64 [s1 + 0x30] = a0\n  9722: a0 = u64 [sp + 0x70]\n  9725: u64 [s1 + 0x28] = a0\n  9728: a0 = u64 [sp + 0x78]\n  9731: u64 [s1 + 0x20] = a0\n  9734: a0 = u64 [sp + 0x80]\n  9738: u64 [s1 + 0x18] = a0\n  9741: a0 = u64 [sp + 0x88]\n  9745: u64 [s1 + 0x10] = a0\n  9748: a0 = u64 [sp + 0x90]\n  9752: u64 [s1 + 0x8] = a0\n  9755: a0 = u64 [sp + 0x98]\n  9759: u64 [s1] = a0\n  9761: u64 [s1 + 184] = 0\n  9765: sp = s0 + 0xfffffffffffffee0\n  9769: ra = u64 [sp + 0x118]\n  9773: s0 = u64 [sp + 0x110]\n  9777: s1 = u64 [sp + 0x108]\n  9781: sp = sp + 0x120\n  9785: ret\n      : @160 (gas: 21)\n  9787: sp = sp + 0xffffffffffffff10\n  9791: u64 [sp + 0xe8] = ra\n  9795: u64 [sp + 0xe0] = s0\n  9799: u64 [sp + 0xd8] = s1\n  9803: s1 = u64 [a1 + 0x10]\n  9806: t1 = u64 [a1 + 0x18]\n  9809: t0 = u64 [a1 + 0x8]\n  9812: s0 = u64 [a1]\n  9814: u64 [sp + 0xc8] = t0\n  9818: u64 [sp + 0xb8] = t1\n  9822: a1 = t0 | t1\n  9825: u64 [sp + 0xd0] = s0\n  9829: s0 = s0 | s1\n  9832: s0 = s0 | a1\n  9835: s0 = s0 >> 0x20\n  9838: u64 [sp + 0xb0] = s1\n  9842: a1 = a1 | s1\n  9845: a1 = a1 << 0x20\n  9848: a1 = a1 | s0\n  9851: u64 [sp + 0x38] = a0\n  9854: jump @173 if a1 != 0\n      : @161 (gas: 50)\n  9858: a0 = u64 [sp + 0xf8]\n  9862: a1 = u64 [sp + 0xf0]\n  9866: s1 = u64 [a0 + 0x10]\n  9869: u64 [sp] = s1\n  9871: s1 = u64 [a0 + 0x8]\n  9874: u64 [sp + 0x8] = s1\n  9877: a0 = u64 [a0]\n  9879: u64 [sp + 0x10] = a0\n  9882: a0 = u64 [a1 + 0x18]\n  9885: u64 [sp + 0x18] = a0\n  9888: a0 = u64 [a1 + 0x10]\n  9891: u64 [sp + 0x20] = a0\n  9894: a0 = u64 [a1 + 0x8]\n  9897: u64 [sp + 0x28] = a0\n  9900: a0 = u64 [a1]\n  9902: u64 [sp + 0x30] = a0\n  9905: a0 = u64 [a5 + 0x18]\n  9908: u64 [sp + 0x40] = a0\n  9911: a0 = u64 [a5 + 0x10]\n  9914: u64 [sp + 0x48] = a0\n  9917: a0 = u64 [a5 + 0x8]\n  9920: u64 [sp + 0x50] = a0\n  9923: a0 = u64 [a5]\n  9925: u64 [sp + 0x58] = a0\n  9928: a0 = u64 [a4 + 0x18]\n  9931: u64 [sp + 0x60] = a0\n  9934: a0 = u64 [a4 + 0x10]\n  9937: u64 [sp + 0x68] = a0\n  9940: a0 = u64 [a4 + 0x8]\n  9943: u64 [sp + 0x70] = a0\n  9946: a0 = u64 [a4]\n  9948: u64 [sp + 0x78] = a0\n  9951: a0 = u64 [a3 + 0x18]\n  9954: u64 [sp + 0x80] = a0\n  9958: a0 = u64 [a3 + 0x10]\n  9961: u64 [sp + 0x88] = a0\n  9965: a0 = u64 [a3 + 0x8]\n  9968: u64 [sp + 0x90] = a0\n  9972: a0 = u64 [a3]\n  9974: u64 [sp + 0x98] = a0\n  9978: s0 = u64 [a2 + 0x18]\n  9981: s1 = u64 [a2 + 0x10]\n  9984: a0 = u64 [a2 + 0x8]\n  9987: u64 [sp + 0xa0] = a0\n  9991: a0 = u64 [a2]\n  9993: u64 [sp + 0xa8] = a0\n  9997: a0 = i32 [sp + 0xd0]\n 10001: a1 = 0x20\n 10004: u64 [sp + 0xc0] = a0\n 10008: ra = 138, jump @0\n      : @162 [@dyn 69] (gas: 77)\n 10014: a1 = reverse s0\n 10016: a2 = reverse s1\n 10018: a3 = u64 [sp + 0xa0]\n 10022: a3 = reverse a3\n 10024: a4 = u64 [sp + 0xa8]\n 10028: a4 = reverse a4\n 10030: a5 = a4 >> 0x38\n 10033: u8 [a0 + 0x1f] = a5\n 10036: a5 = a4 >> 0x30\n 10039: u8 [a0 + 0x1e] = a5\n 10042: a5 = a4 >> 0x28\n 10045: u8 [a0 + 0x1d] = a5\n 10048: a5 = a4 >> 0x20\n 10051: u8 [a0 + 0x1c] = a5\n 10054: a5 = a4 >> 0x18\n 10057: u8 [a0 + 0x1b] = a5\n 10060: a5 = a4 >> 0x10\n 10063: u8 [a0 + 0x1a] = a5\n 10066: a5 = a4 >> 0x8\n 10069: u8 [a0 + 0x19] = a5\n 10072: u8 [a0 + 0x18] = a4\n 10075: u8 [a0 + 0x10] = a3\n 10078: a4 = a3 >> 0x38\n 10081: u8 [a0 + 0x17] = a4\n 10084: a4 = a3 >> 0x30\n 10087: u8 [a0 + 0x16] = a4\n 10090: a4 = a3 >> 0x28\n 10093: u8 [a0 + 0x15] = a4\n 10096: a4 = a3 >> 0x20\n 10099: u8 [a0 + 0x14] = a4\n 10102: a4 = a3 >> 0x18\n 10105: u8 [a0 + 0x13] = a4\n 10108: a4 = a3 >> 0x10\n 10111: u8 [a0 + 0x12] = a4\n 10114: a3 = a3 >> 0x8\n 10117: u8 [a0 + 0x11] = a3\n 10120: u8 [a0 + 0x8] = a2\n 10123: a3 = a2 >> 0x38\n 10126: u8 [a0 + 0xf] = a3\n 10129: a3 = a2 >> 0x30\n 10132: u8 [a0 + 0xe] = a3\n 10135: a3 = a2 >> 0x28\n 10138: u8 [a0 + 0xd] = a3\n 10141: a3 = a2 >> 0x20\n 10144: u8 [a0 + 0xc] = a3\n 10147: a3 = a2 >> 0x18\n 10150: u8 [a0 + 0xb] = a3\n 10153: a3 = a2 >> 0x10\n 10156: u8 [a0 + 0xa] = a3\n 10159: a2 = a2 >> 0x8\n 10162: u8 [a0 + 0x9] = a2\n 10165: u8 [a0] = a1\n 10167: a2 = a1 >> 0x38\n 10170: u8 [a0 + 0x7] = a2\n 10173: a2 = a1 >> 0x30\n 10176: u8 [a0 + 0x6] = a2\n 10179: a2 = a1 >> 0x28\n 10182: u8 [a0 + 0x5] = a2\n 10185: a2 = a1 >> 0x20\n 10188: u8 [a0 + 0x4] = a2\n 10191: a2 = a1 >> 0x18\n 10194: u8 [a0 + 0x3] = a2\n 10197: a2 = a1 >> 0x10\n 10200: u8 [a0 + 0x2] = a2\n 10203: a1 = a1 >> 0x8\n 10206: a2 = u64 [sp + 0xb0]\n 10210: a4 = u64 [sp + 0xb8]\n 10214: a4 = a4 | a2\n 10217: s0 = 0x100000000\n 10227: a2 = 0xffffffe0\n 10237: a3 = u64 [sp + 0xd0]\n 10241: a2 = a3 <u a2\n 10244: a3 = u64 [sp + 0xc8]\n 10248: a2 = 0 if a3 != 0\n 10250: a2 = 0 if a4 != 0\n 10252: u8 [a0 + 0x1] = a1\n 10255: jump @173 if a2 == 0\n      : @163 (gas: 5)\n 10259: s1 = a4\n 10261: a0 = u64 [sp + 0xc0]\n 10265: i32 a0 = a0 + 0x20\n 10268: a1 = 0x20\n 10271: ra = 140, jump @0\n      : @164 [@dyn 70] (gas: 75)\n 10277: a1 = u64 [sp + 0x80]\n 10281: a1 = reverse a1\n 10283: a2 = u64 [sp + 0x88]\n 10287: a2 = reverse a2\n 10289: a3 = u64 [sp + 0x90]\n 10293: a3 = reverse a3\n 10295: a4 = u64 [sp + 0x98]\n 10299: a4 = reverse a4\n 10301: a5 = a4 >> 0x38\n 10304: u8 [a0 + 0x1f] = a5\n 10307: a5 = a4 >> 0x30\n 10310: u8 [a0 + 0x1e] = a5\n 10313: a5 = a4 >> 0x28\n 10316: u8 [a0 + 0x1d] = a5\n 10319: a5 = a4 >> 0x20\n 10322: u8 [a0 + 0x1c] = a5\n 10325: a5 = a4 >> 0x18\n 10328: u8 [a0 + 0x1b] = a5\n 10331: a5 = a4 >> 0x10\n 10334: u8 [a0 + 0x1a] = a5\n 10337: a5 = a4 >> 0x8\n 10340: u8 [a0 + 0x19] = a5\n 10343: u8 [a0 + 0x18] = a4\n 10346: u8 [a0 + 0x10] = a3\n 10349: a4 = a3 >> 0x38\n 10352: u8 [a0 + 0x17] = a4\n 10355: a4 = a3 >> 0x30\n 10358: u8 [a0 + 0x16] = a4\n 10361: a4 = a3 >> 0x28\n 10364: u8 [a0 + 0x15] = a4\n 10367: a4 = a3 >> 0x20\n 10370: u8 [a0 + 0x14] = a4\n 10373: a4 = a3 >> 0x18\n 10376: u8 [a0 + 0x13] = a4\n 10379: a4 = a3 >> 0x10\n 10382: u8 [a0 + 0x12] = a4\n 10385: a3 = a3 >> 0x8\n 10388: u8 [a0 + 0x11] = a3\n 10391: u8 [a0 + 0x8] = a2\n 10394: a3 = a2 >> 0x38\n 10397: u8 [a0 + 0xf] = a3\n 10400: a3 = a2 >> 0x30\n 10403: u8 [a0 + 0xe] = a3\n 10406: a3 = a2 >> 0x28\n 10409: u8 [a0 + 0xd] = a3\n 10412: a3 = a2 >> 0x20\n 10415: u8 [a0 + 0xc] = a3\n 10418: a3 = a2 >> 0x18\n 10421: u8 [a0 + 0xb] = a3\n 10424: a3 = a2 >> 0x10\n 10427: u8 [a0 + 0xa] = a3\n 10430: a2 = a2 >> 0x8\n 10433: u8 [a0 + 0x9] = a2\n 10436: u8 [a0] = a1\n 10438: a2 = a1 >> 0x38\n 10441: u8 [a0 + 0x7] = a2\n 10444: a2 = a1 >> 0x30\n 10447: u8 [a0 + 0x6] = a2\n 10450: a2 = a1 >> 0x28\n 10453: u8 [a0 + 0x5] = a2\n 10456: a2 = a1 >> 0x20\n 10459: u8 [a0 + 0x4] = a2\n 10462: a2 = a1 >> 0x18\n 10465: u8 [a0 + 0x3] = a2\n 10468: a2 = a1 >> 0x10\n 10471: u8 [a0 + 0x2] = a2\n 10474: a1 = a1 >> 0x8\n 10477: a2 = s0 + 0xffffffffffffffc0\n 10480: a3 = u64 [sp + 0xd0]\n 10484: a2 = a3 <u a2\n 10487: a3 = u64 [sp + 0xc8]\n 10491: a2 = 0 if a3 != 0\n 10493: a2 = 0 if s1 != 0\n 10495: u8 [a0 + 0x1] = a1\n 10498: jump @173 if a2 == 0\n      : @165 (gas: 4)\n 10502: a0 = u64 [sp + 0xc0]\n 10506: i32 a0 = a0 + 0x40\n 10509: a1 = 0x20\n 10512: ra = 142, jump @0\n      : @166 [@dyn 71] (gas: 76)\n 10518: a1 = u64 [sp + 0x60]\n 10521: a1 = reverse a1\n 10523: a2 = u64 [sp + 0x68]\n 10526: a2 = reverse a2\n 10528: a3 = u64 [sp + 0x70]\n 10531: a3 = reverse a3\n 10533: a4 = u64 [sp + 0x78]\n 10536: a4 = reverse a4\n 10538: a5 = a4 >> 0x38\n 10541: u8 [a0 + 0x1f] = a5\n 10544: a5 = a4 >> 0x30\n 10547: u8 [a0 + 0x1e] = a5\n 10550: a5 = a4 >> 0x28\n 10553: u8 [a0 + 0x1d] = a5\n 10556: a5 = a4 >> 0x20\n 10559: u8 [a0 + 0x1c] = a5\n 10562: a5 = a4 >> 0x18\n 10565: u8 [a0 + 0x1b] = a5\n 10568: a5 = a4 >> 0x10\n 10571: u8 [a0 + 0x1a] = a5\n 10574: a5 = a4 >> 0x8\n 10577: u8 [a0 + 0x19] = a5\n 10580: u8 [a0 + 0x18] = a4\n 10583: u8 [a0 + 0x10] = a3\n 10586: a4 = a3 >> 0x38\n 10589: u8 [a0 + 0x17] = a4\n 10592: a4 = a3 >> 0x30\n 10595: u8 [a0 + 0x16] = a4\n 10598: a4 = a3 >> 0x28\n 10601: u8 [a0 + 0x15] = a4\n 10604: a4 = a3 >> 0x20\n 10607: u8 [a0 + 0x14] = a4\n 10610: a4 = a3 >> 0x18\n 10613: u8 [a0 + 0x13] = a4\n 10616: a4 = a3 >> 0x10\n 10619: u8 [a0 + 0x12] = a4\n 10622: a3 = a3 >> 0x8\n 10625: u8 [a0 + 0x11] = a3\n 10628: u8 [a0 + 0x8] = a2\n 10631: a3 = a2 >> 0x38\n 10634: u8 [a0 + 0xf] = a3\n 10637: a3 = a2 >> 0x30\n 10640: u8 [a0 + 0xe] = a3\n 10643: a3 = a2 >> 0x28\n 10646: u8 [a0 + 0xd] = a3\n 10649: a3 = a2 >> 0x20\n 10652: u8 [a0 + 0xc] = a3\n 10655: a3 = a2 >> 0x18\n 10658: u8 [a0 + 0xb] = a3\n 10661: a3 = a2 >> 0x10\n 10664: u8 [a0 + 0xa] = a3\n 10667: a2 = a2 >> 0x8\n 10670: u8 [a0 + 0x9] = a2\n 10673: u8 [a0] = a1\n 10675: a2 = a1 >> 0x38\n 10678: u8 [a0 + 0x7] = a2\n 10681: a2 = a1 >> 0x30\n 10684: u8 [a0 + 0x6] = a2\n 10687: a2 = a1 >> 0x28\n 10690: u8 [a0 + 0x5] = a2\n 10693: a2 = a1 >> 0x20\n 10696: u8 [a0 + 0x4] = a2\n 10699: a2 = a1 >> 0x18\n 10702: u8 [a0 + 0x3] = a2\n 10705: a2 = a1 >> 0x10\n 10708: u8 [a0 + 0x2] = a2\n 10711: a1 = a1 >> 0x8\n 10714: s0 = 0x100000000\n 10724: a2 = 0xffffffa0\n 10734: a3 = u64 [sp + 0xd0]\n 10738: a2 = a3 <u a2\n 10741: a3 = u64 [sp + 0xc8]\n 10745: a2 = 0 if a3 != 0\n 10747: a2 = 0 if s1 != 0\n 10749: u8 [a0 + 0x1] = a1\n 10752: jump @173 if a2 == 0\n      : @167 (gas: 4)\n 10756: a0 = u64 [sp + 0xc0]\n 10760: i32 a0 = a0 + 0x60\n 10763: a1 = 0x20\n 10766: ra = 144, jump @0\n      : @168 [@dyn 72] (gas: 75)\n 10772: a1 = u64 [sp + 0x40]\n 10775: a1 = reverse a1\n 10777: a2 = u64 [sp + 0x48]\n 10780: a2 = reverse a2\n 10782: a3 = u64 [sp + 0x50]\n 10785: a3 = reverse a3\n 10787: a4 = u64 [sp + 0x58]\n 10790: a4 = reverse a4\n 10792: a5 = a4 >> 0x38\n 10795: u8 [a0 + 0x1f] = a5\n 10798: a5 = a4 >> 0x30\n 10801: u8 [a0 + 0x1e] = a5\n 10804: a5 = a4 >> 0x28\n 10807: u8 [a0 + 0x1d] = a5\n 10810: a5 = a4 >> 0x20\n 10813: u8 [a0 + 0x1c] = a5\n 10816: a5 = a4 >> 0x18\n 10819: u8 [a0 + 0x1b] = a5\n 10822: a5 = a4 >> 0x10\n 10825: u8 [a0 + 0x1a] = a5\n 10828: a5 = a4 >> 0x8\n 10831: u8 [a0 + 0x19] = a5\n 10834: u8 [a0 + 0x18] = a4\n 10837: u8 [a0 + 0x10] = a3\n 10840: a4 = a3 >> 0x38\n 10843: u8 [a0 + 0x17] = a4\n 10846: a4 = a3 >> 0x30\n 10849: u8 [a0 + 0x16] = a4\n 10852: a4 = a3 >> 0x28\n 10855: u8 [a0 + 0x15] = a4\n 10858: a4 = a3 >> 0x20\n 10861: u8 [a0 + 0x14] = a4\n 10864: a4 = a3 >> 0x18\n 10867: u8 [a0 + 0x13] = a4\n 10870: a4 = a3 >> 0x10\n 10873: u8 [a0 + 0x12] = a4\n 10876: a3 = a3 >> 0x8\n 10879: u8 [a0 + 0x11] = a3\n 10882: u8 [a0 + 0x8] = a2\n 10885: a3 = a2 >> 0x38\n 10888: u8 [a0 + 0xf] = a3\n 10891: a3 = a2 >> 0x30\n 10894: u8 [a0 + 0xe] = a3\n 10897: a3 = a2 >> 0x28\n 10900: u8 [a0 + 0xd] = a3\n 10903: a3 = a2 >> 0x20\n 10906: u8 [a0 + 0xc] = a3\n 10909: a3 = a2 >> 0x18\n 10912: u8 [a0 + 0xb] = a3\n 10915: a3 = a2 >> 0x10\n 10918: u8 [a0 + 0xa] = a3\n 10921: a2 = a2 >> 0x8\n 10924: u8 [a0 + 0x9] = a2\n 10927: u8 [a0] = a1\n 10929: a2 = a1 >> 0x38\n 10932: u8 [a0 + 0x7] = a2\n 10935: a2 = a1 >> 0x30\n 10938: u8 [a0 + 0x6] = a2\n 10941: a2 = a1 >> 0x28\n 10944: u8 [a0 + 0x5] = a2\n 10947: a2 = a1 >> 0x20\n 10950: u8 [a0 + 0x4] = a2\n 10953: a2 = a1 >> 0x18\n 10956: u8 [a0 + 0x3] = a2\n 10959: a2 = a1 >> 0x10\n 10962: u8 [a0 + 0x2] = a2\n 10965: a1 = a1 >> 0x8\n 10968: a2 = s0 + 0xffffffffffffff80\n 10971: a3 = u64 [sp + 0xd0]\n 10975: a2 = a3 <u a2\n 10978: a3 = u64 [sp + 0xc8]\n 10982: a2 = 0 if a3 != 0\n 10984: a2 = 0 if s1 != 0\n 10986: u8 [a0 + 0x1] = a1\n 10989: jump @173 if a2 == 0\n      : @169 (gas: 4)\n 10993: a0 = u64 [sp + 0xc0]\n 10997: i32 a0 = a0 + 0x80\n 11001: a1 = 0x20\n 11004: ra = 146, jump @0\n      : @170 [@dyn 73] (gas: 75)\n 11010: a1 = u64 [sp + 0x18]\n 11013: a1 = reverse a1\n 11015: a2 = u64 [sp + 0x20]\n 11018: a2 = reverse a2\n 11020: a3 = u64 [sp + 0x28]\n 11023: a3 = reverse a3\n 11025: a4 = u64 [sp + 0x30]\n 11028: a4 = reverse a4\n 11030: a5 = a4 >> 0x38\n 11033: u8 [a0 + 0x1f] = a5\n 11036: a5 = a4 >> 0x30\n 11039: u8 [a0 + 0x1e] = a5\n 11042: a5 = a4 >> 0x28\n 11045: u8 [a0 + 0x1d] = a5\n 11048: a5 = a4 >> 0x20\n 11051: u8 [a0 + 0x1c] = a5\n 11054: a5 = a4 >> 0x18\n 11057: u8 [a0 + 0x1b] = a5\n 11060: a5 = a4 >> 0x10\n 11063: u8 [a0 + 0x1a] = a5\n 11066: a5 = a4 >> 0x8\n 11069: u8 [a0 + 0x19] = a5\n 11072: u8 [a0 + 0x18] = a4\n 11075: u8 [a0 + 0x10] = a3\n 11078: a4 = a3 >> 0x38\n 11081: u8 [a0 + 0x17] = a4\n 11084: a4 = a3 >> 0x30\n 11087: u8 [a0 + 0x16] = a4\n 11090: a4 = a3 >> 0x28\n 11093: u8 [a0 + 0x15] = a4\n 11096: a4 = a3 >> 0x20\n 11099: u8 [a0 + 0x14] = a4\n 11102: a4 = a3 >> 0x18\n 11105: u8 [a0 + 0x13] = a4\n 11108: a4 = a3 >> 0x10\n 11111: u8 [a0 + 0x12] = a4\n 11114: a3 = a3 >> 0x8\n 11117: u8 [a0 + 0x11] = a3\n 11120: u8 [a0 + 0x8] = a2\n 11123: a3 = a2 >> 0x38\n 11126: u8 [a0 + 0xf] = a3\n 11129: a3 = a2 >> 0x30\n 11132: u8 [a0 + 0xe] = a3\n 11135: a3 = a2 >> 0x28\n 11138: u8 [a0 + 0xd] = a3\n 11141: a3 = a2 >> 0x20\n 11144: u8 [a0 + 0xc] = a3\n 11147: a3 = a2 >> 0x18\n 11150: u8 [a0 + 0xb] = a3\n 11153: a3 = a2 >> 0x10\n 11156: u8 [a0 + 0xa] = a3\n 11159: a2 = a2 >> 0x8\n 11162: u8 [a0 + 0x9] = a2\n 11165: u8 [a0] = a1\n 11167: a2 = a1 >> 0x38\n 11170: u8 [a0 + 0x7] = a2\n 11173: a2 = a1 >> 0x30\n 11176: u8 [a0 + 0x6] = a2\n 11179: a2 = a1 >> 0x28\n 11182: u8 [a0 + 0x5] = a2\n 11185: a2 = a1 >> 0x20\n 11188: u8 [a0 + 0x4] = a2\n 11191: a2 = a1 >> 0x18\n 11194: u8 [a0 + 0x3] = a2\n 11197: a2 = a1 >> 0x10\n 11200: u8 [a0 + 0x2] = a2\n 11203: a1 = a1 >> 0x8\n 11206: a2 = 0xffffff60\n 11216: a3 = u64 [sp + 0xd0]\n 11220: a2 = a3 <u a2\n 11223: a3 = u64 [sp + 0xc8]\n 11227: a2 = 0 if a3 != 0\n 11229: a2 = 0 if s1 != 0\n 11231: u8 [a0 + 0x1] = a1\n 11234: jump @173 if a2 == 0\n      : @171 (gas: 22)\n 11238: a0 = u64 [sp + 0xd0]\n 11242: a1 = a0 + 0xc0\n 11246: u64 [sp + 0xa8] = a1\n 11250: a0 = a1 <u a0\n 11253: a1 = u64 [sp + 0xc8]\n 11257: a2 = a1 + a0\n 11260: u64 [sp + 0xd0] = a2\n 11264: s0 = a2 <u a1\n 11267: s0 = a0 if a0 == 0\n 11270: a0 = u64 [sp + 0xb0]\n 11274: s0 = s0 + a0\n 11277: a0 = s0 <u a0\n 11280: a1 = u64 [sp + 0xb8]\n 11284: a0 = a0 + a1\n 11287: u64 [sp + 0xc8] = a0\n 11291: a0 = u64 [sp]\n 11293: a0 = a0 << 0x20\n 11296: s1 = a0 >> 0x20\n 11299: a0 = u64 [sp + 0xc0]\n 11303: i32 a0 = a0 + 0xa0\n 11307: a1 = 0x20\n 11310: ra = 148, jump @0\n      : @172 [@dyn 74] (gas: 68)\n 11316: a1 = reverse s1\n 11318: a2 = u64 [sp + 0x8]\n 11321: a2 = reverse a2\n 11323: a3 = u64 [sp + 0x10]\n 11326: a3 = reverse a3\n 11328: a4 = a3 >> 0x38\n 11331: u8 [a0 + 0x1f] = a4\n 11334: a4 = a3 >> 0x30\n 11337: u8 [a0 + 0x1e] = a4\n 11340: a4 = a3 >> 0x28\n 11343: u8 [a0 + 0x1d] = a4\n 11346: a4 = a3 >> 0x20\n 11349: u8 [a0 + 0x1c] = a4\n 11352: a4 = a3 >> 0x18\n 11355: u8 [a0 + 0x1b] = a4\n 11358: a4 = a3 >> 0x10\n 11361: u8 [a0 + 0x1a] = a4\n 11364: a4 = a3 >> 0x8\n 11367: u8 [a0 + 0x19] = a4\n 11370: u8 [a0 + 0x18] = a3\n 11373: u8 [a0 + 0x10] = a2\n 11376: u8 [a0 + 11] = 0\n 11379: u8 [a0 + 10] = 0\n 11382: u8 [a0 + 9] = 0\n 11385: u8 [a0 + 7] = 0\n 11388: u8 [a0 + 6] = 0\n 11391: u8 [a0 + 5] = 0\n 11394: u8 [a0 + 4] = 0\n 11397: u8 [a0 + 3] = 0\n 11400: u8 [a0 + 2] = 0\n 11403: u8 [a0 + 1] = 0\n 11406: u8 [a0 + 0] = 0\n 11408: a3 = a2 >> 0x38\n 11411: u8 [a0 + 0x17] = a3\n 11414: a3 = a2 >> 0x30\n 11417: u8 [a0 + 0x16] = a3\n 11420: a3 = a2 >> 0x28\n 11423: u8 [a0 + 0x15] = a3\n 11426: a3 = a2 >> 0x20\n 11429: u8 [a0 + 0x14] = a3\n 11432: a3 = a2 >> 0x18\n 11435: u8 [a0 + 0x13] = a3\n 11438: a3 = a2 >> 0x10\n 11441: u8 [a0 + 0x12] = a3\n 11444: a2 = a2 >> 0x8\n 11447: u8 [a0 + 0x11] = a2\n 11450: u8 [a0 + 0x8] = a1\n 11453: a2 = a1 >> 0x38\n 11456: u8 [a0 + 0xf] = a2\n 11459: a2 = a1 >> 0x30\n 11462: u8 [a0 + 0xe] = a2\n 11465: a2 = a1 >> 0x28\n 11468: u8 [a0 + 0xd] = a2\n 11471: a1 = a1 >> 0x20\n 11474: u8 [a0 + 0xc] = a1\n 11477: a0 = u64 [sp + 0x38]\n 11480: a1 = u64 [sp + 0xa8]\n 11484: u64 [a0] = a1\n 11486: a1 = u64 [sp + 0xc8]\n 11490: u64 [a0 + 0x18] = a1\n 11493: a1 = u64 [sp + 0xd0]\n 11497: u64 [a0 + 0x8] = a1\n 11500: u64 [a0 + 0x10] = s0\n 11503: ra = u64 [sp + 0xe8]\n 11507: s0 = u64 [sp + 0xe0]\n 11511: s1 = u64 [sp + 0xd8]\n 11515: sp = sp + 0xf0\n 11519: ret\n      : @173 (gas: 1)\n 11521: trap\n      : @174 (gas: 8)\n 11522: a0 = u64 [sp + 0x2f0]\n 11526: a1 = u64 [sp + 0x2f8]\n 11530: a2 = u64 [sp + 0x2e8]\n 11534: a3 = u64 [sp + 0x2e0]\n 11538: a1 = a1 | a2\n 11541: a0 = a0 | a3\n 11544: a0 = a0 | a1\n 11547: jump @184 if a0 != 0\n      : @175 (gas: 2)\n 11551: a0 = i32 [0x20004]\n 11556: jump @184 if a0 <=u 35\n      : @176 (gas: 4)\n 11561: i32 a0 = sp + 0x300\n 11565: a1 = 0x4\n 11568: ecalli 2 // 'call_data_load'\n 11570: fallthrough\n      : @177 (gas: 10)\n 11571: a0 = u64 [sp + 0x310]\n 11575: a2 = u64 [sp + 0x318]\n 11579: a1 = 0x100000000\n 11589: a1 = a1 ^ a0\n 11592: a1 = a1 | a2\n 11595: a3 = a0 >> 0x20\n 11598: a3 = a3 <u 0x1\n 11601: a3 = 0 if a2 != 0\n 11603: a3 = 0 if a1 == 0\n 11605: jump @184 if a3 == 0\n      : @178 (gas: 26)\n 11609: a1 = u64 [sp + 0x308]\n 11613: a3 = u64 [sp + 0x300]\n 11617: u64 [sp + 0x208] = a1\n 11621: u64 [sp + 0x200] = a3\n 11625: u64 [sp + 0x210] = a0\n 11629: a0 = sp + 0x220\n 11633: a1 = sp + 0x200\n 11637: u64 [sp + 0x218] = a2\n 11641: ra = 0x96\n 11645: sp = sp + 0xfffffffffffffee0\n 11649: u64 [sp + 0x118] = ra\n 11653: u64 [sp + 0x110] = s0\n 11657: u64 [sp + 0x108] = s1\n 11661: s0 = sp + 0x120\n 11665: sp = sp & 0xffffffffffffffe0\n 11668: a2 = u64 [a1]\n 11670: u64 [sp + 0xb8] = a2\n 11674: a2 = u64 [a1 + 0x8]\n 11677: u64 [sp + 0xb0] = a2\n 11681: a1 = u32 [a1 + 0x10]\n 11684: u64 [sp + 0xa8] = a1\n 11688: s1 = a0\n 11690: a1 = 0x20\n 11693: a0 = 0\n 11695: ra = 0x84\n 11699: jump @0\n      : @179 [@dyn 75] (gas: 51)\n 11702: a0 = u64 [sp + 0x220]\n 11706: u64 [sp + 0xf0] = a0\n 11710: a0 = u64 [sp + 0x228]\n 11714: u64 [sp + 0xe8] = a0\n 11718: a0 = u64 [sp + 0x230]\n 11722: u64 [sp + 0xe0] = a0\n 11726: a0 = u64 [sp + 0x238]\n 11730: u64 [sp + 0xd8] = a0\n 11734: a0 = u64 [sp + 0x240]\n 11738: u64 [sp + 0xd0] = a0\n 11742: a0 = u64 [sp + 0x248]\n 11746: u64 [sp + 0xc8] = a0\n 11750: a0 = u64 [sp + 0x250]\n 11754: u64 [sp + 0xc0] = a0\n 11758: a0 = u64 [sp + 0x258]\n 11762: u64 [sp + 0xb8] = a0\n 11766: a0 = u64 [sp + 0x260]\n 11770: u64 [sp + 0xb0] = a0\n 11774: a0 = u64 [sp + 0x268]\n 11778: u64 [sp + 0xa8] = a0\n 11782: a0 = u64 [sp + 0x270]\n 11786: u64 [sp + 0xa0] = a0\n 11790: a0 = u64 [sp + 0x278]\n 11794: u64 [sp + 0x98] = a0\n 11798: a0 = u64 [sp + 0x280]\n 11802: u64 [sp + 0x90] = a0\n 11806: a0 = u64 [sp + 0x288]\n 11810: u64 [sp + 0x88] = a0\n 11814: a0 = u64 [sp + 0x290]\n 11818: u64 [sp + 0x80] = a0\n 11822: a0 = u64 [sp + 0x298]\n 11826: u64 [sp + 0x78] = a0\n 11829: a0 = u64 [sp + 0x2a0]\n 11833: u64 [sp + 0x70] = a0\n 11836: a0 = u64 [sp + 0x2a8]\n 11840: u64 [sp + 0x68] = a0\n 11843: a0 = u64 [sp + 0x2b0]\n 11847: u64 [sp + 0x60] = a0\n 11850: a0 = u64 [sp + 0x2b8]\n 11854: u64 [sp + 0x58] = a0\n 11857: a0 = u64 [sp + 0x2c0]\n 11861: u64 [sp + 0x50] = a0\n 11864: a0 = u64 [sp + 0x2c8]\n 11868: u64 [sp + 0x48] = a0\n 11871: a0 = u64 [sp + 0x2d0]\n 11875: u64 [sp + 0x40] = a0\n 11878: a0 = u64 [sp + 0x2d8]\n 11882: u64 [sp + 0x38] = a0\n 11885: a0 = 0x40\n 11888: a1 = 0x20\n 11891: ra = 152, jump @0\n      : @180 [@dyn 76] (gas: 158)\n 11897: a1 = u8 [a0 + 0x1]\n 11900: a2 = u8 [a0]\n 11902: a3 = u8 [a0 + 0x2]\n 11905: a4 = u8 [a0 + 0x3]\n 11908: a1 = a1 << 0x8\n 11911: a1 = a1 | a2\n 11914: a3 = a3 << 0x10\n 11917: a4 = a4 << 0x18\n 11920: a3 = a3 | a4\n 11923: a1 = a1 | a3\n 11926: a2 = u8 [a0 + 0x5]\n 11929: a3 = u8 [a0 + 0x4]\n 11932: a4 = u8 [a0 + 0x6]\n 11935: a5 = u8 [a0 + 0x7]\n 11938: a2 = a2 << 0x8\n 11941: a2 = a2 | a3\n 11944: a4 = a4 << 0x10\n 11947: a5 = a5 << 0x18\n 11950: a4 = a4 | a5\n 11953: a2 = a2 | a4\n 11956: a2 = a2 << 0x20\n 11959: t0 = a2 | a1\n 11962: a2 = u8 [a0 + 0x9]\n 11965: a3 = u8 [a0 + 0x8]\n 11968: a4 = u8 [a0 + 0xa]\n 11971: a5 = u8 [a0 + 0xb]\n 11974: a2 = a2 << 0x8\n 11977: a2 = a2 | a3\n 11980: a4 = a4 << 0x10\n 11983: a5 = a5 << 0x18\n 11986: a4 = a4 | a5\n 11989: a2 = a2 | a4\n 11992: a3 = u8 [a0 + 0xd]\n 11995: a4 = u8 [a0 + 0xc]\n 11998: a5 = u8 [a0 + 0xe]\n 12001: s1 = u8 [a0 + 0xf]\n 12004: a3 = a3 << 0x8\n 12007: a3 = a3 | a4\n 12010: a5 = a5 << 0x10\n 12013: s1 = s1 << 0x18\n 12016: a5 = a5 | s1\n 12019: a3 = a3 | a5\n 12022: a3 = a3 << 0x20\n 12025: a2 = a2 | a3\n 12028: a3 = u8 [a0 + 0x11]\n 12031: a4 = u8 [a0 + 0x10]\n 12034: a5 = u8 [a0 + 0x12]\n 12037: s1 = u8 [a0 + 0x13]\n 12040: a3 = a3 << 0x8\n 12043: a3 = a3 | a4\n 12046: a5 = a5 << 0x10\n 12049: s1 = s1 << 0x18\n 12052: a5 = a5 | s1\n 12055: a3 = a3 | a5\n 12058: a4 = u8 [a0 + 0x15]\n 12061: a5 = u8 [a0 + 0x14]\n 12064: s1 = u8 [a0 + 0x16]\n 12067: a1 = u8 [a0 + 0x17]\n 12070: a4 = a4 << 0x8\n 12073: a4 = a4 | a5\n 12076: s1 = s1 << 0x10\n 12079: a1 = a1 << 0x18\n 12082: a1 = a1 | s1\n 12085: a1 = a1 | a4\n 12088: a1 = a1 << 0x20\n 12091: a3 = a3 | a1\n 12094: a1 = u8 [a0 + 0x19]\n 12097: a4 = u8 [a0 + 0x18]\n 12100: a5 = u8 [a0 + 0x1a]\n 12103: s1 = u8 [a0 + 0x1b]\n 12106: a1 = a1 << 0x8\n 12109: a1 = a1 | a4\n 12112: a5 = a5 << 0x10\n 12115: s1 = s1 << 0x18\n 12118: a5 = a5 | s1\n 12121: a1 = a1 | a5\n 12124: a4 = u8 [a0 + 0x1d]\n 12127: a5 = u8 [a0 + 0x1c]\n 12130: s1 = u8 [a0 + 0x1e]\n 12133: a0 = u8 [a0 + 0x1f]\n 12136: a4 = a4 << 0x8\n 12139: a4 = a4 | a5\n 12142: s1 = s1 << 0x10\n 12145: a0 = a0 << 0x18\n 12148: a0 = a0 | s1\n 12151: a0 = a0 | a4\n 12154: a0 = a0 << 0x20\n 12157: a0 = a0 | a1\n 12160: s1 = reverse a0\n 12162: a3 = reverse a3\n 12164: u64 [sp + 0x28] = a3\n 12167: a1 = reverse a2\n 12169: u64 [sp + 0x30] = a1\n 12172: a2 = reverse t0\n 12174: u64 [sp + 0xf8] = a2\n 12178: a0 = sp + 0x100\n 12182: u64 [sp + 0x8] = a0\n 12185: a0 = sp + 0x120\n 12189: u64 [sp] = a0\n 12191: a0 = u64 [sp + 0x38]\n 12194: u64 [sp + 0x118] = a0\n 12198: a0 = u64 [sp + 0x40]\n 12201: u64 [sp + 0x110] = a0\n 12205: a0 = u64 [sp + 0x48]\n 12208: u64 [sp + 0x108] = a0\n 12212: a0 = u64 [sp + 0x50]\n 12215: u64 [sp + 0x100] = a0\n 12219: a0 = u64 [sp + 0x58]\n 12222: u64 [sp + 0x138] = a0\n 12226: a0 = u64 [sp + 0x60]\n 12229: u64 [sp + 0x130] = a0\n 12233: a0 = u64 [sp + 0x68]\n 12236: u64 [sp + 0x128] = a0\n 12240: a0 = u64 [sp + 0x70]\n 12243: u64 [sp + 0x120] = a0\n 12247: a0 = u64 [sp + 0x78]\n 12250: u64 [sp + 0x158] = a0\n 12254: a0 = u64 [sp + 0x80]\n 12258: u64 [sp + 0x150] = a0\n 12262: a0 = u64 [sp + 0x88]\n 12266: u64 [sp + 0x148] = a0\n 12270: a0 = u64 [sp + 0x90]\n 12274: u64 [sp + 0x140] = a0\n 12278: a0 = u64 [sp + 0x98]\n 12282: u64 [sp + 0x178] = a0\n 12286: a0 = u64 [sp + 0xa0]\n 12290: u64 [sp + 0x170] = a0\n 12294: a0 = u64 [sp + 0xa8]\n 12298: u64 [sp + 0x168] = a0\n 12302: a0 = u64 [sp + 0xb0]\n 12306: u64 [sp + 0x160] = a0\n 12310: a0 = u64 [sp + 0xb8]\n 12314: u64 [sp + 0x198] = a0\n 12318: a0 = u64 [sp + 0xc0]\n 12322: u64 [sp + 0x190] = a0\n 12326: a0 = u64 [sp + 0xc8]\n 12330: u64 [sp + 0x188] = a0\n 12334: a0 = u64 [sp + 0xd0]\n 12338: u64 [sp + 0x180] = a0\n 12342: a0 = u64 [sp + 0xd8]\n 12346: u64 [sp + 0x1b8] = a0\n 12350: a0 = u64 [sp + 0xe0]\n 12354: u64 [sp + 0x1b0] = a0\n 12358: a0 = u64 [sp + 0xe8]\n 12362: u64 [sp + 0x1a8] = a0\n 12366: a0 = u64 [sp + 0xf0]\n 12370: u64 [sp + 0x1a0] = a0\n 12374: u64 [sp + 0x1d8] = a2\n 12378: u64 [sp + 0x1d0] = a1\n 12382: u64 [sp + 0x1c8] = a3\n 12386: a0 = sp + 0x1e0\n 12390: a1 = sp + 0x1c0\n 12394: a2 = sp + 0x1a0\n 12398: a3 = sp + 0x180\n 12402: a4 = sp + 0x160\n 12406: a5 = sp + 0x140\n 12410: u64 [sp + 0x1c0] = s1\n 12414: ra = 154, jump @160\n      : @181 [@dyn 77] (gas: 12)\n 12420: a4 = u64 [sp + 0x28]\n 12423: a2 = s1\n 12425: a0 = u64 [sp + 0xf8]\n 12429: a0 = a0 | a4\n 12432: s1 = u64 [sp + 0x30]\n 12435: a1 = a2 | s1\n 12438: a1 = a1 | a0\n 12441: a1 = a1 >> 0x20\n 12444: a0 = a0 | s1\n 12447: a0 = a0 << 0x20\n 12450: a0 = a0 | a1\n 12453: jump @183 if a0 != 0\n      : @182 (gas: 29)\n 12456: a0 = u64 [sp + 0x1e8]\n 12460: a1 = u64 [sp + 0x1f8]\n 12464: u64 [sp + 0xf0] = a1\n 12468: t1 = u64 [sp + 0x1e0]\n 12472: a1 = u64 [sp + 0x1f0]\n 12476: t2 = a0 ^ a4\n 12479: a5 = a0 <u a4\n 12482: ra = t1 <u a2\n 12485: a5 = ra if t2 == 0\n 12488: a3 = a1 - s1\n 12491: t2 = a3 - a5\n 12494: t0 = a3 <u a5\n 12497: a3 = a1 <u s1\n 12500: a1 = u64 [sp + 0xf8]\n 12504: a5 = u64 [sp + 0xf0]\n 12508: a5 = a5 - a1\n 12511: a5 = a5 - a3\n 12514: a5 = a5 - t0\n 12517: a0 = a0 - a4\n 12520: a0 = a0 - ra\n 12523: s1 = t1 - a2\n 12526: a0 = a0 | a5\n 12529: a1 = s1 | t2\n 12532: a1 = a1 | a0\n 12535: a0 = a0 | t2\n 12538: a1 = a1 >> 0x20\n 12541: a0 = a0 << 0x20\n 12544: a0 = a0 | a1\n 12547: jump @186 if a0 == 0\n      : @183 (gas: 1)\n 12550: trap\n      : @184 (gas: 3)\n 12551: a0 = 0\n 12553: a1 = 0\n 12555: ra = 156, jump @0\n      : @185 [@dyn 78] (gas: 5)\n 12561: i32 a1 = a0 + 0\n 12563: a0 = 0x1\n 12566: a2 = 0\n 12568: ecalli 12 // 'seal_return'\n 12570: fallthrough\n      : @186 (gas: 4)\n 12571: i32 a0 = a2 + 0\n 12573: i32 s1 = s1 + 0\n 12575: a1 = s1\n 12577: ra = 158, jump @0\n      : @187 [@dyn 79] (gas: 6)\n 12583: i32 a1 = a0 + 0\n 12585: a0 = 0\n 12587: a2 = s1\n 12589: ra = 0xa0\n 12593: ecalli 12 // 'seal_return'\n 12595: fallthrough\n      : @188 [@dyn 80] (gas: 13)\n 12596: sp = sp + 0xffffffffffffffb0\n 12599: u64 [sp + 0x48] = ra\n 12602: u64 [sp + 0x40] = s0\n 12605: s0 = sp + 0x50\n 12608: sp = sp & 0xfffffffffffffff0\n 12611: u64 [sp + 48] = 0\n 12614: u64 [sp + 40] = 0\n 12617: u64 [sp + 32] = 0\n 12620: a0 = 0x4e487b7100000000\n 12630: a1 = sp + 0x20\n 12633: u64 [sp + 0x38] = a0\n 12636: a0 = 0\n 12638: ra = 162, jump @8\n      : @189 [@dyn 81] (gas: 7)\n 12644: u64 [sp + 24] = 0\n 12647: u64 [sp + 16] = 0\n 12650: u64 [sp + 0] = 0x41\n 12653: a0 = 0x4\n 12656: a1 = sp\n 12658: u64 [sp + 8] = 0\n 12661: ra = 164, jump @8\n      : @190 [@dyn 82] (gas: 3)\n 12667: a1 = 0x24\n 12670: a0 = 0\n 12672: ra = 166, jump @0\n      : @191 [@dyn 83] (gas: 6)\n 12678: i32 a1 = a0 + 0\n 12680: a0 = 0x1\n 12683: a2 = 0x24\n 12686: ra = 0xa8\n 12690: ecalli 12 // 'seal_return'\n 12692: fallthrough\n      : @192 [@dyn 84] (gas: 9)\n 12693: sp = sp + 0xffffffffffffffc0\n 12696: u64 [sp + 0x38] = ra\n 12699: u64 [sp + 0x30] = s0\n 12702: u64 [sp + 0x28] = s1\n 12705: s0 = sp + 0x40\n 12708: sp = sp & 0xffffffffffffffe0\n 12711: a0 = 0x40\n 12714: a1 = 0x20\n 12717: ra = 170, jump @0\n      : @193 [@dyn 85] (gas: 97)\n 12723: a1 = u8 [a0 + 0x11]\n 12726: a2 = u8 [a0 + 0x10]\n 12729: a3 = u8 [a0 + 0x12]\n 12732: a4 = u8 [a0 + 0x13]\n 12735: a1 = a1 << 0x8\n 12738: a1 = a1 | a2\n 12741: a3 = a3 << 0x10\n 12744: a4 = a4 << 0x18\n 12747: a3 = a3 | a4\n 12750: a1 = a1 | a3\n 12753: a2 = u8 [a0 + 0x15]\n 12756: a3 = u8 [a0 + 0x14]\n 12759: a4 = u8 [a0 + 0x16]\n 12762: a5 = u8 [a0 + 0x17]\n 12765: a2 = a2 << 0x8\n 12768: a2 = a2 | a3\n 12771: a4 = a4 << 0x10\n 12774: a5 = a5 << 0x18\n 12777: a4 = a4 | a5\n 12780: a2 = a2 | a4\n 12783: a2 = a2 << 0x20\n 12786: t0 = a2 | a1\n 12789: a2 = u8 [a0 + 0x1]\n 12792: a3 = u8 [a0]\n 12794: a4 = u8 [a0 + 0x2]\n 12797: a5 = u8 [a0 + 0x3]\n 12800: a2 = a2 << 0x8\n 12803: a2 = a2 | a3\n 12806: a4 = a4 << 0x10\n 12809: a5 = a5 << 0x18\n 12812: a4 = a4 | a5\n 12815: a2 = a2 | a4\n 12818: a3 = u8 [a0 + 0x5]\n 12821: a4 = u8 [a0 + 0x4]\n 12824: a5 = u8 [a0 + 0x6]\n 12827: s1 = u8 [a0 + 0x7]\n 12830: a3 = a3 << 0x8\n 12833: a3 = a3 | a4\n 12836: a5 = a5 << 0x10\n 12839: s1 = s1 << 0x18\n 12842: a5 = a5 | s1\n 12845: a3 = a3 | a5\n 12848: a3 = a3 << 0x20\n 12851: a2 = a2 | a3\n 12854: a3 = u8 [a0 + 0x19]\n 12857: a4 = u8 [a0 + 0x18]\n 12860: a5 = u8 [a0 + 0x1a]\n 12863: s1 = u8 [a0 + 0x1b]\n 12866: a3 = a3 << 0x8\n 12869: a3 = a3 | a4\n 12872: a5 = a5 << 0x10\n 12875: s1 = s1 << 0x18\n 12878: a5 = a5 | s1\n 12881: a3 = a3 | a5\n 12884: a4 = u8 [a0 + 0x1d]\n 12887: a5 = u8 [a0 + 0x1c]\n 12890: s1 = u8 [a0 + 0x1e]\n 12893: a1 = u8 [a0 + 0x1f]\n 12896: a4 = a4 << 0x8\n 12899: a4 = a4 | a5\n 12902: s1 = s1 << 0x10\n 12905: a1 = a1 << 0x18\n 12908: a1 = a1 | s1\n 12911: a1 = a1 | a4\n 12914: a1 = a1 << 0x20\n 12917: a3 = a3 | a1\n 12920: a1 = u8 [a0 + 0x9]\n 12923: a4 = u8 [a0 + 0x8]\n 12926: a5 = u8 [a0 + 0xa]\n 12929: s1 = u8 [a0 + 0xb]\n 12932: a1 = a1 << 0x8\n 12935: a1 = a1 | a4\n 12938: a5 = a5 << 0x10\n 12941: s1 = s1 << 0x18\n 12944: a5 = a5 | s1\n 12947: a1 = a1 | a5\n 12950: a4 = u8 [a0 + 0xd]\n 12953: a5 = u8 [a0 + 0xc]\n 12956: s1 = u8 [a0 + 0xe]\n 12959: a0 = u8 [a0 + 0xf]\n 12962: a4 = a4 << 0x8\n 12965: a4 = a4 | a5\n 12968: s1 = s1 << 0x10\n 12971: a0 = a0 << 0x18\n 12974: a0 = a0 | s1\n 12977: a0 = a0 | a4\n 12980: a0 = a0 << 0x20\n 12983: a0 = a0 | a1\n 12986: s1 = reverse a0\n 12988: a0 = reverse a3\n 12990: u64 [sp + 0x8] = a0\n 12993: a0 = reverse a2\n 12995: u64 [sp + 0x18] = a0\n 12998: a0 = reverse t0\n 13000: u64 [sp + 0x10] = a0\n 13003: ecalli 11 // 'return_data_size'\n 13005: fallthrough\n      : @194 (gas: 11)\n 13006: a3 = u64 [sp + 0x8]\n 13009: a1 = u64 [sp + 0x18]\n 13012: a2 = u64 [sp + 0x10]\n 13015: a1 = a1 | a2\n 13018: a2 = a3 | s1\n 13021: a2 = a2 | a1\n 13024: a2 = a2 >> 0x20\n 13027: a1 = a1 | s1\n 13030: a1 = a1 << 0x20\n 13033: a1 = a1 | a2\n 13036: jump @201 if a1 != 0\n      : @195 (gas: 3)\n 13039: s1 = a0\n 13041: a0 = a0 >> 0x20\n 13044: jump @201 if a0 != 0\n      : @196 (gas: 5)\n 13047: i32 a0 = a3 + 0\n 13049: i32 a1 = s1 + 0\n 13051: u64 [sp + 0x18] = a1\n 13054: u64 [sp + 0x10] = a0\n 13057: ra = 172, jump @0\n      : @197 [@dyn 86] (gas: 6)\n 13063: u32 [sp + 0x20] = s1\n 13066: i32 a0 = a0 + 0\n 13068: i32 a1 = sp + 0x20\n 13071: a2 = 0\n 13073: ecalli 10 // 'return_data_copy'\n 13075: fallthrough\n      : @198 (gas: 3)\n 13076: a0 = i32 [sp + 0x20]\n 13079: a1 = u64 [sp + 0x18]\n 13082: jump @201 if a0 <u a1\n      : @199 (gas: 2)\n 13085: ecalli 11 // 'return_data_size'\n 13087: fallthrough\n      : @200 (gas: 2)\n 13088: a1 = a0 >> 0x20\n 13091: jump @202 if a1 == 0\n      : @201 (gas: 1)\n 13094: trap\n      : @202 (gas: 4)\n 13095: i32 s1 = a0 + 0\n 13097: a0 = u64 [sp + 0x10]\n 13100: a1 = s1\n 13102: ra = 174, jump @0\n      : @203 [@dyn 87] (gas: 6)\n 13108: i32 a1 = a0 + 0\n 13110: a0 = 0x1\n 13113: a2 = s1\n 13115: ra = 0xb0\n 13119: ecalli 12 // 'seal_return'\n 13121: fallthrough\n      : @204 [@dyn 88] (gas: 9)\n 13122: a2 = u64 [a1 + 0x18]\n 13125: a3 = u64 [a1 + 0x10]\n 13128: a4 = u64 [a1 + 0x8]\n 13131: a1 = u64 [a1]\n 13133: u64 [a0 + 0x18] = a2\n 13136: u64 [a0 + 0x10] = a3\n 13139: u64 [a0 + 0x8] = a4\n 13142: u64 [a0] = a1\n 13144: ret\n      : @205 (gas: 7)\n 13146: a4 = u64 [sp + 0x218]\n 13150: a3 = u64 [sp + 0x210]\n 13154: a2 = u64 [sp + 0x208]\n 13158: a0 = a3 | a4\n 13161: a1 = a2 <u 0x1\n 13164: a1 = 0 if a0 != 0\n 13166: jump @208 if a1 == 0\n      : @206 (gas: 50)\n 13170: a0 = u64 [sp + 0x200]\n 13174: u64 [sp + 0x58] = a0\n 13177: a0 = a0 + 0x1\n 13180: a1 = a0 <u 0x1\n 13183: a1 = a1 + a2\n 13186: u64 [sp + 0x200] = a0\n 13190: a0 = a0 | a1\n 13193: u64 [sp + 0x208] = a1\n 13197: a0 = a0 <u 0x1\n 13200: a0 = a0 + a3\n 13203: u64 [sp + 0x210] = a0\n 13207: a0 = a0 <u a3\n 13210: a0 = a0 + a4\n 13213: u64 [sp + 0x218] = a0\n 13217: a0 = u64 [sp + 0x70]\n 13220: u64 [sp + 0x1e8] = a0\n 13224: a0 = u64 [sp + 0x78]\n 13227: u64 [sp + 0x1e0] = a0\n 13231: a0 = u64 [sp + 0x68]\n 13234: u64 [sp + 0x1f0] = a0\n 13238: s1 = u64 [sp + 0x60]\n 13241: u64 [sp + 0x1f8] = s1\n 13245: i32 a1 = sp + 0x1e0\n 13249: u64 [sp + 0x50] = a3\n 13252: i32 a3 = sp + 0x200\n 13256: u64 [sp + 0x48] = a2\n 13259: a2 = 0xffffffffffffffff\n 13262: u64 [sp + 0x40] = a4\n 13265: a4 = 0x20\n 13268: a0 = 0\n 13270: ecalli 14 // 'set_storage'\n 13272: a0 = u64 [sp + 0x40]\n 13275: u64 [sp + 0x158] = a0\n 13279: a0 = u64 [sp + 0x50]\n 13282: u64 [sp + 0x150] = a0\n 13286: a0 = u64 [sp + 0x48]\n 13289: u64 [sp + 0x148] = a0\n 13293: a0 = u64 [sp + 0x58]\n 13296: u64 [sp + 0x140] = a0\n 13300: u64 [sp + 0x178] = s1\n 13304: a0 = u64 [sp + 0x68]\n 13307: u64 [sp + 0x170] = a0\n 13311: a0 = u64 [sp + 0x70]\n 13314: u64 [sp + 0x168] = a0\n 13318: a0 = sp + 0x180\n 13322: a1 = sp + 0x160\n 13326: a2 = sp + 0x140\n 13330: a3 = u64 [sp + 0x78]\n 13333: u64 [sp + 0x160] = a3\n 13337: ra = 178, jump @62\n      : @207 [@dyn 89] (gas: 444)\n 13343: a0 = u64 [sp + 0x1b8]\n 13347: u64 [sp + 0x58] = a0\n 13350: a0 = u64 [sp + 0x1b0]\n 13354: u64 [sp + 0x50] = a0\n 13357: s1 = u64 [sp + 0x1a8]\n 13361: a0 = u64 [sp + 0x1a0]\n 13365: u64 [sp + 0x20] = a0\n 13368: a3 = u64 [sp + 0x198]\n 13372: u64 [sp + 0x60] = a3\n 13375: a2 = u64 [sp + 0x190]\n 13379: u64 [sp + 0x68] = a2\n 13382: a1 = u64 [sp + 0x188]\n 13386: u64 [sp + 0x70] = a1\n 13389: a0 = u64 [sp + 0x180]\n 13393: u64 [sp + 0x78] = a0\n 13396: u64 [sp + 0x1f8] = a3\n 13400: u64 [sp + 0x1f0] = a2\n 13404: u64 [sp + 0x1e8] = a1\n 13408: u64 [sp + 0x1e0] = a0\n 13412: u64 [sp + 536] = 0\n 13416: u64 [sp + 528] = 0\n 13420: u64 [sp + 520] = 0\n 13424: u64 [sp + 512] = 0\n 13428: u32 [sp + 448] = 0x20\n 13433: i32 a1 = sp + 0x1e0\n 13437: i32 a3 = sp + 0x200\n 13441: i32 a4 = sp + 0x1c0\n 13445: a2 = 0xffffffffffffffff\n 13448: a0 = 0\n 13450: ecalli 6 // 'get_storage'\n 13452: a2 = u64 [sp + 0x20]\n 13455: a0 = a2 >> 0x3d\n 13458: a1 = s1 << 0x3\n 13461: a0 = a0 | a1\n 13464: a1 = a2 << 0x3\n 13467: a1 = a1 <u 0x100\n 13471: t1 = a1 ^ 0x1\n 13474: a1 = a0 >u 0\n 13476: t1 = a1 if a0 != 0\n 13479: s1 = s1 >> 0x3d\n 13482: a1 = u64 [sp + 0x50]\n 13485: a0 = a1 << 0x3\n 13488: a0 = a0 | s1\n 13491: a1 = a1 >> 0x3d\n 13494: a3 = u64 [sp + 0x58]\n 13497: a3 = a3 << 0x3\n 13500: a1 = a1 | a3\n 13503: a3 = a1 >u 0\n 13505: a4 = a0 >u 0\n 13507: a4 = a3 if a1 != 0\n 13510: a0 = a0 | a1\n 13513: t1 = a4 if a0 != 0\n 13516: a0 = u64 [sp + 0x200]\n 13520: u64 [sp + 0x58] = a0\n 13523: a0 = u64 [sp + 0x208]\n 13527: u64 [sp + 0x50] = a0\n 13530: a0 = u64 [sp + 0x210]\n 13534: u64 [sp + 0x48] = a0\n 13537: a0 = u64 [sp + 0x218]\n 13541: u64 [sp + 0x40] = a0\n 13544: u8 [sp + 307] = 0xff\n 13550: u8 [sp + 303] = 0xff\n 13556: u8 [sp + 302] = 0xff\n 13562: u8 [sp + 301] = 0xff\n 13568: u8 [sp + 299] = 0xff\n 13574: u8 [sp + 295] = 0xff\n 13580: u8 [sp + 294] = 0xff\n 13586: u8 [sp + 293] = 0xff\n 13592: u8 [sp + 291] = 0xff\n 13598: a0 = 0xffffffff\n 13608: u8 [sp + 0x12c] = a0\n 13612: u8 [sp + 0x124] = a0\n 13616: a0 = 0xffffffffffff\n 13626: u8 [sp + 0x132] = a0\n 13630: u8 [sp + 0x12a] = a0\n 13634: u8 [sp + 0x122] = a0\n 13638: u8 [sp + 304] = 0xffffffffffffffff\n 13643: u8 [sp + 296] = 0xffffffffffffffff\n 13648: u8 [sp + 288] = 0xffffffffffffffff\n 13653: a0 = 0xffffffffffffff\n 13663: u8 [sp + 0x131] = a0\n 13667: u8 [sp + 0x129] = a0\n 13671: u8 [sp + 0x121] = a0\n 13675: u8 [sp + 319] = 0\n 13679: u8 [sp + 318] = 0\n 13683: u8 [sp + 317] = 0\n 13687: u8 [sp + 316] = 0\n 13691: u8 [sp + 315] = 0\n 13695: u8 [sp + 314] = 0\n 13699: u8 [sp + 313] = 0\n 13703: u8 [sp + 312] = 0\n 13707: u8 [sp + 311] = 0\n 13711: u8 [sp + 310] = 0\n 13715: u8 [sp + 309] = 0\n 13719: u8 [sp + 308] = 0\n 13723: u8 [sp + 287] = 0\n 13727: u8 [sp + 286] = 0\n 13731: u8 [sp + 285] = 0\n 13735: u8 [sp + 284] = 0\n 13739: u8 [sp + 283] = 0\n 13743: u8 [sp + 282] = 0\n 13747: u8 [sp + 281] = 0\n 13751: u8 [sp + 280] = 0\n 13755: u8 [sp + 279] = 0\n 13759: u8 [sp + 278] = 0\n 13763: u8 [sp + 277] = 0\n 13767: u8 [sp + 276] = 0\n 13771: u8 [sp + 275] = 0\n 13775: u8 [sp + 274] = 0\n 13779: u8 [sp + 273] = 0\n 13783: u8 [sp + 272] = 0\n 13787: u8 [sp + 271] = 0\n 13791: u8 [sp + 270] = 0\n 13795: u8 [sp + 269] = 0\n 13799: u8 [sp + 268] = 0\n 13803: u8 [sp + 267] = 0\n 13807: u8 [sp + 266] = 0\n 13811: u8 [sp + 265] = 0\n 13815: u8 [sp + 264] = 0\n 13819: u8 [sp + 263] = 0\n 13823: u8 [sp + 262] = 0\n 13827: u8 [sp + 261] = 0\n 13831: u8 [sp + 260] = 0\n 13835: u8 [sp + 259] = 0\n 13839: u8 [sp + 258] = 0\n 13843: u8 [sp + 257] = 0\n 13847: u8 [sp + 256] = 0\n 13851: a4 = a2 & 0x1f\n 13854: a3 = sp + 0x120\n 13858: a3 = a3 - a4\n 13861: a0 = u8 [a3 + 0x19]\n 13864: a1 = u8 [a3 + 0x18]\n 13867: a5 = u8 [a3 + 0x1a]\n 13870: s1 = u8 [a3 + 0x1b]\n 13873: a0 = a0 << 0x8\n 13876: a0 = a0 | a1\n 13879: a5 = a5 << 0x10\n 13882: s1 = s1 << 0x18\n 13885: a5 = a5 | s1\n 13888: t0 = a5 | a0\n 13891: a1 = u8 [a3 + 0x1d]\n 13894: a5 = u8 [a3 + 0x1c]\n 13897: s1 = u8 [a3 + 0x1e]\n 13900: a0 = u8 [a3 + 0x1f]\n 13903: a1 = a1 << 0x8\n 13906: a1 = a1 | a5\n 13909: s1 = s1 << 0x10\n 13912: a0 = a0 << 0x18\n 13915: a0 = a0 | s1\n 13918: a0 = a0 | a1\n 13921: a0 = a0 << 0x20\n 13924: a0 = a0 | t0\n 13927: u64 [sp + 0x20] = a0\n 13930: a0 = u8 [a3 + 0x11]\n 13933: a1 = u8 [a3 + 0x10]\n 13936: a5 = u8 [a3 + 0x12]\n 13939: s1 = u8 [a3 + 0x13]\n 13942: a0 = a0 << 0x8\n 13945: a0 = a0 | a1\n 13948: a5 = a5 << 0x10\n 13951: s1 = s1 << 0x18\n 13954: a5 = a5 | s1\n 13957: t0 = a5 | a0\n 13960: a1 = u8 [a3 + 0x15]\n 13963: a5 = u8 [a3 + 0x14]\n 13966: s1 = u8 [a3 + 0x16]\n 13969: a0 = u8 [a3 + 0x17]\n 13972: a1 = a1 << 0x8\n 13975: a1 = a1 | a5\n 13978: s1 = s1 << 0x10\n 13981: a0 = a0 << 0x18\n 13984: a0 = a0 | s1\n 13987: a0 = a0 | a1\n 13990: a0 = a0 << 0x20\n 13993: a0 = a0 | t0\n 13996: u64 [sp + 0x18] = a0\n 13999: a0 = u8 [a3 + 0x9]\n 14002: a1 = u8 [a3 + 0x8]\n 14005: a5 = u8 [a3 + 0xa]\n 14008: s1 = u8 [a3 + 0xb]\n 14011: a0 = a0 << 0x8\n 14014: a0 = a0 | a1\n 14017: a5 = a5 << 0x10\n 14020: s1 = s1 << 0x18\n 14023: a5 = a5 | s1\n 14026: a2 = a5 | a0\n 14029: a1 = u8 [a3 + 0xd]\n 14032: a5 = u8 [a3 + 0xc]\n 14035: s1 = u8 [a3 + 0xe]\n 14038: a0 = u8 [a3 + 0xf]\n 14041: a1 = a1 << 0x8\n 14044: a1 = a1 | a5\n 14047: s1 = s1 << 0x10\n 14050: a0 = a0 << 0x18\n 14053: a0 = a0 | s1\n 14056: a0 = a0 | a1\n 14059: a0 = a0 << 0x20\n 14062: ra = a0 | a2\n 14065: a0 = u8 [a3 + 0x1]\n 14068: a1 = u8 [a3]\n 14070: a2 = u8 [a3 + 0x2]\n 14073: s1 = u8 [a3 + 0x3]\n 14076: a0 = a0 << 0x8\n 14079: a0 = a0 | a1\n 14082: a2 = a2 << 0x10\n 14085: s1 = s1 << 0x18\n 14088: a2 = a2 | s1\n 14091: a0 = a0 | a2\n 14094: a1 = u8 [a3 + 0x5]\n 14097: a2 = u8 [a3 + 0x4]\n 14100: s1 = u8 [a3 + 0x6]\n 14103: a3 = u8 [a3 + 0x7]\n 14106: a1 = a1 << 0x8\n 14109: a1 = a1 | a2\n 14112: s1 = s1 << 0x10\n 14115: a3 = a3 << 0x18\n 14118: a3 = a3 | s1\n 14121: a1 = a1 | a3\n 14124: a1 = a1 << 0x20\n 14127: t2 = a1 | a0\n 14130: a1 = u64 [sp + 0x28]\n 14133: a0 = a1 >> 0x38\n 14136: u8 [sp + 0xe7] = a0\n 14140: a0 = a1 >> 0x30\n 14143: u8 [sp + 0xe6] = a0\n 14147: a0 = a1 >> 0x28\n 14150: u8 [sp + 0xe5] = a0\n 14154: a0 = a1 >> 0x20\n 14157: u8 [sp + 0xe4] = a0\n 14161: a0 = a1 >> 0x18\n 14164: u8 [sp + 0xe3] = a0\n 14168: a0 = a1 >> 0x10\n 14171: u8 [sp + 0xe2] = a0\n 14175: u8 [sp + 0xe0] = a1\n 14179: a0 = a1 >> 0x8\n 14182: u8 [sp + 0xe1] = a0\n 14186: a1 = u64 [sp + 0x30]\n 14189: a0 = a1 >> 0x38\n 14192: u8 [sp + 0xef] = a0\n 14196: a0 = a1 >> 0x30\n 14199: u8 [sp + 0xee] = a0\n 14203: a0 = a1 >> 0x28\n 14206: u8 [sp + 0xed] = a0\n 14210: a0 = a1 >> 0x20\n 14213: u8 [sp + 0xec] = a0\n 14217: a0 = a1 >> 0x18\n 14220: u8 [sp + 0xeb] = a0\n 14224: a0 = a1 >> 0x10\n 14227: u8 [sp + 0xea] = a0\n 14231: u8 [sp + 0xe8] = a1\n 14235: a0 = a1 >> 0x8\n 14238: u8 [sp + 0xe9] = a0\n 14242: a1 = u64 [sp + 0x38]\n 14245: a0 = a1 >> 0x18\n 14248: u8 [sp + 0xf3] = a0\n 14252: a0 = a1 >> 0x10\n 14255: u8 [sp + 0xf2] = a0\n 14259: u8 [sp + 0xf0] = a1\n 14263: a0 = a1 >> 0x8\n 14266: u8 [sp + 0xf1] = a0\n 14270: a0 = sp + 0xe0\n 14274: a4 = a0 - a4\n 14277: u8 [sp + 255] = 0\n 14281: u8 [sp + 254] = 0\n 14285: u8 [sp + 253] = 0\n 14289: u8 [sp + 252] = 0\n 14293: u8 [sp + 251] = 0\n 14297: u8 [sp + 250] = 0\n 14301: u8 [sp + 249] = 0\n 14305: u8 [sp + 248] = 0\n 14309: u8 [sp + 247] = 0\n 14313: u8 [sp + 246] = 0\n 14317: u8 [sp + 245] = 0\n 14321: u8 [sp + 244] = 0\n 14325: u8 [sp + 223] = 0\n 14329: u8 [sp + 222] = 0\n 14333: u8 [sp + 221] = 0\n 14337: u8 [sp + 220] = 0\n 14341: u8 [sp + 219] = 0\n 14345: u8 [sp + 218] = 0\n 14349: u8 [sp + 217] = 0\n 14353: u8 [sp + 216] = 0\n 14357: u8 [sp + 215] = 0\n 14361: u8 [sp + 214] = 0\n 14365: u8 [sp + 213] = 0\n 14369: u8 [sp + 212] = 0\n 14373: u8 [sp + 211] = 0\n 14377: u8 [sp + 210] = 0\n 14381: u8 [sp + 209] = 0\n 14385: u8 [sp + 208] = 0\n 14389: u8 [sp + 207] = 0\n 14393: u8 [sp + 206] = 0\n 14397: u8 [sp + 205] = 0\n 14401: u8 [sp + 204] = 0\n 14405: u8 [sp + 203] = 0\n 14409: u8 [sp + 202] = 0\n 14413: u8 [sp + 201] = 0\n 14417: u8 [sp + 200] = 0\n 14421: u8 [sp + 199] = 0\n 14425: u8 [sp + 198] = 0\n 14429: u8 [sp + 197] = 0\n 14433: u8 [sp + 196] = 0\n 14437: u8 [sp + 195] = 0\n 14441: u8 [sp + 194] = 0\n 14445: u8 [sp + 193] = 0\n 14449: u8 [sp + 192] = 0\n 14453: a0 = u8 [a4 + 0x19]\n 14456: a1 = u8 [a4 + 0x18]\n 14459: a2 = u8 [a4 + 0x1a]\n 14462: s1 = u8 [a4 + 0x1b]\n 14465: a0 = a0 << 0x8\n 14468: a0 = a0 | a1\n 14471: a2 = a2 << 0x10\n 14474: s1 = s1 << 0x18\n 14477: a2 = a2 | s1\n 14480: a3 = a2 | a0\n 14483: a1 = u8 [a4 + 0x1d]\n 14486: a2 = u8 [a4 + 0x1c]\n 14489: s1 = u8 [a4 + 0x1e]\n 14492: a0 = u8 [a4 + 0x1f]\n 14495: a1 = a1 << 0x8\n 14498: a1 = a1 | a2\n 14501: s1 = s1 << 0x10\n 14504: a0 = a0 << 0x18\n 14507: a0 = a0 | s1\n 14510: a0 = a0 | a1\n 14513: a0 = a0 << 0x20\n 14516: s1 = a0 | a3\n 14519: a0 = u8 [a4 + 0x11]\n 14522: a1 = u8 [a4 + 0x10]\n 14525: a2 = u8 [a4 + 0x12]\n 14528: a3 = u8 [a4 + 0x13]\n 14531: a0 = a0 << 0x8\n 14534: a0 = a0 | a1\n 14537: a2 = a2 << 0x10\n 14540: a3 = a3 << 0x18\n 14543: a2 = a2 | a3\n 14546: a5 = a2 | a0\n 14549: a1 = u8 [a4 + 0x15]\n 14552: a2 = u8 [a4 + 0x14]\n 14555: a3 = u8 [a4 + 0x16]\n 14558: a0 = u8 [a4 + 0x17]\n 14561: a1 = a1 << 0x8\n 14564: a1 = a1 | a2\n 14567: a3 = a3 << 0x10\n 14570: a0 = a0 << 0x18\n 14573: a0 = a0 | a3\n 14576: a0 = a0 | a1\n 14579: a0 = a0 << 0x20\n 14582: t0 = a0 | a5\n 14585: a0 = u8 [a4 + 0x9]\n 14588: a2 = u8 [a4 + 0x8]\n 14591: a3 = u8 [a4 + 0xa]\n 14594: a5 = u8 [a4 + 0xb]\n 14597: a0 = a0 << 0x8\n 14600: a0 = a0 | a2\n 14603: a3 = a3 << 0x10\n 14606: a5 = a5 << 0x18\n 14609: a3 = a3 | a5\n 14612: a1 = a3 | a0\n 14615: a2 = u8 [a4 + 0xd]\n 14618: a3 = u8 [a4 + 0xc]\n 14621: a5 = u8 [a4 + 0xe]\n 14624: a0 = u8 [a4 + 0xf]\n 14627: a2 = a2 << 0x8\n 14630: a2 = a2 | a3\n 14633: a5 = a5 << 0x10\n 14636: a0 = a0 << 0x18\n 14639: a0 = a0 | a5\n 14642: a0 = a0 | a2\n 14645: a0 = a0 << 0x20\n 14648: a0 = a0 | a1\n 14651: a1 = u8 [a4 + 0x1]\n 14654: a2 = u8 [a4]\n 14656: a3 = u8 [a4 + 0x2]\n 14659: a5 = u8 [a4 + 0x3]\n 14662: a1 = a1 << 0x8\n 14665: a1 = a1 | a2\n 14668: a3 = a3 << 0x10\n 14671: a5 = a5 << 0x18\n 14674: a3 = a3 | a5\n 14677: a1 = a1 | a3\n 14680: a2 = u8 [a4 + 0x5]\n 14683: a3 = u8 [a4 + 0x4]\n 14686: a5 = u8 [a4 + 0x6]\n 14689: a4 = u8 [a4 + 0x7]\n 14692: a2 = a2 << 0x8\n 14695: a2 = a2 | a3\n 14698: a5 = a5 << 0x10\n 14701: a4 = a4 << 0x18\n 14704: a4 = a4 | a5\n 14707: a2 = a2 | a4\n 14710: a2 = a2 << 0x20\n 14713: a4 = a2 | a1\n 14716: t2 = 0 if t1 != 0\n 14718: ra = 0 if t1 != 0\n 14720: a5 = u64 [sp + 0x18]\n 14723: a5 = 0 if t1 != 0\n 14725: a2 = u64 [sp + 0x20]\n 14728: a2 = 0 if t1 != 0\n 14730: a4 = 0 if t1 != 0\n 14732: a0 = 0 if t1 != 0\n 14734: t0 = 0 if t1 != 0\n 14736: s1 = 0 if t1 != 0\n 14738: a1 = u64 [sp + 0x40]\n 14741: t1 = a1 & ~a2\n 14744: a2 = a2 & s1\n 14747: a1 = u64 [sp + 0x48]\n 14750: a3 = a1 & ~a5\n 14753: a5 = t0 & a5\n 14756: a1 = u64 [sp + 0x50]\n 14759: s1 = a1 & ~ra\n 14762: a0 = a0 & ra\n 14765: a1 = u64 [sp + 0x58]\n 14768: a1 = a1 & ~t2\n 14771: a4 = a4 & t2\n 14774: a1 = a1 | a4\n 14777: a0 = a0 | s1\n 14780: a3 = a3 | a5\n 14783: a2 = t1 | a2\n 14786: a4 = u64 [sp + 0x60]\n 14789: u64 [sp + 0x1f8] = a4\n 14793: a4 = u64 [sp + 0x68]\n 14796: u64 [sp + 0x1f0] = a4\n 14800: a4 = u64 [sp + 0x70]\n 14803: u64 [sp + 0x1e8] = a4\n 14807: a4 = u64 [sp + 0x78]\n 14810: u64 [sp + 0x1e0] = a4\n 14814: u64 [sp + 0x218] = a2\n 14818: u64 [sp + 0x210] = a3\n 14822: u64 [sp + 0x208] = a0\n 14826: u64 [sp + 0x200] = a1\n 14830: i32 a1 = sp + 0x1e0\n 14834: i32 a3 = sp + 0x200\n 14838: a2 = 0xffffffffffffffff\n 14841: a4 = 0x20\n 14844: a0 = 0\n 14846: ecalli 14 // 'set_storage'\n 14848: sp = s0 + 0xfffffffffffffdc0\n 14852: ra = u64 [sp + 0x238]\n 14856: s0 = u64 [sp + 0x230]\n 14860: s1 = u64 [sp + 0x228]\n 14864: sp = sp + 0x240\n 14868: ret\n      : @208 (gas: 8)\n 14870: u64 [sp + 176] = 0\n 14874: u64 [sp + 168] = 0\n 14878: u64 [sp + 160] = 0\n 14882: a0 = 0x4e487b7100000000\n 14892: a1 = sp + 0xa0\n 14896: u64 [sp + 0xb8] = a0\n 14900: a0 = 0\n 14902: ra = 180, jump @8\n      : @209 [@dyn 90] (gas: 7)\n 14908: u64 [sp + 152] = 0\n 14912: u64 [sp + 144] = 0\n 14916: u64 [sp + 128] = 0x41\n 14921: a0 = 0x4\n 14924: a1 = sp + 0x80\n 14928: u64 [sp + 136] = 0\n 14932: ra = 182, jump @8\n      : @210 [@dyn 91] (gas: 3)\n 14938: a1 = 0x24\n 14941: a0 = 0\n 14943: ra = 184, jump @0\n      : @211 [@dyn 92] (gas: 6)\n 14949: i32 a1 = a0 + 0\n 14951: a0 = 0x1\n 14954: a2 = 0x24\n 14957: ra = 0xba\n 14961: ecalli 12 // 'seal_return'\n 14963: fallthrough\n      : @212 [@dyn 93] (gas: 9)\n 14964: sp = sp + 0xfffffffffffffe80\n 14968: u64 [sp + 0x178] = ra\n 14972: u64 [sp + 0x170] = s0\n 14976: u64 [sp + 0x168] = s1\n 14980: s0 = sp + 0x180\n 14984: sp = sp & 0xffffffffffffffe0\n 14987: a0 = 0x40\n 14990: a1 = 0x20\n 14993: ra = 188, jump @0\n      : @213 [@dyn 94] (gas: 97)\n 14999: a1 = u8 [a0 + 0x9]\n 15002: a2 = u8 [a0 + 0x8]\n 15005: a3 = u8 [a0 + 0xa]\n 15008: a4 = u8 [a0 + 0xb]\n 15011: a1 = a1 << 0x8\n 15014: a1 = a1 | a2\n 15017: a3 = a3 << 0x10\n 15020: a4 = a4 << 0x18\n 15023: a3 = a3 | a4\n 15026: a1 = a1 | a3\n 15029: a2 = u8 [a0 + 0xd]\n 15032: a3 = u8 [a0 + 0xc]\n 15035: a4 = u8 [a0 + 0xe]\n 15038: a5 = u8 [a0 + 0xf]\n 15041: a2 = a2 << 0x8\n 15044: a2 = a2 | a3\n 15047: a4 = a4 << 0x10\n 15050: a5 = a5 << 0x18\n 15053: a4 = a4 | a5\n 15056: a2 = a2 | a4\n 15059: a2 = a2 << 0x20\n 15062: t0 = a2 | a1\n 15065: a2 = u8 [a0 + 0x1]\n 15068: a3 = u8 [a0]\n 15070: a4 = u8 [a0 + 0x2]\n 15073: a5 = u8 [a0 + 0x3]\n 15076: a2 = a2 << 0x8\n 15079: a2 = a2 | a3\n 15082: a4 = a4 << 0x10\n 15085: a5 = a5 << 0x18\n 15088: a4 = a4 | a5\n 15091: a2 = a2 | a4\n 15094: a3 = u8 [a0 + 0x5]\n 15097: a4 = u8 [a0 + 0x4]\n 15100: a5 = u8 [a0 + 0x6]\n 15103: s1 = u8 [a0 + 0x7]\n 15106: a3 = a3 << 0x8\n 15109: a3 = a3 | a4\n 15112: a5 = a5 << 0x10\n 15115: s1 = s1 << 0x18\n 15118: a5 = a5 | s1\n 15121: a3 = a3 | a5\n 15124: a3 = a3 << 0x20\n 15127: a2 = a2 | a3\n 15130: a3 = u8 [a0 + 0x19]\n 15133: a4 = u8 [a0 + 0x18]\n 15136: a5 = u8 [a0 + 0x1a]\n 15139: s1 = u8 [a0 + 0x1b]\n 15142: a3 = a3 << 0x8\n 15145: a3 = a3 | a4\n 15148: a5 = a5 << 0x10\n 15151: s1 = s1 << 0x18\n 15154: a5 = a5 | s1\n 15157: a3 = a3 | a5\n 15160: a4 = u8 [a0 + 0x1d]\n 15163: a5 = u8 [a0 + 0x1c]\n 15166: s1 = u8 [a0 + 0x1e]\n 15169: a1 = u8 [a0 + 0x1f]\n 15172: a4 = a4 << 0x8\n 15175: a4 = a4 | a5\n 15178: s1 = s1 << 0x10\n 15181: a1 = a1 << 0x18\n 15184: a1 = a1 | s1\n 15187: a1 = a1 | a4\n 15190: a1 = a1 << 0x20\n 15193: a3 = a3 | a1\n 15196: a1 = u8 [a0 + 0x11]\n 15199: a4 = u8 [a0 + 0x10]\n 15202: a5 = u8 [a0 + 0x12]\n 15205: s1 = u8 [a0 + 0x13]\n 15208: a1 = a1 << 0x8\n 15211: a1 = a1 | a4\n 15214: a5 = a5 << 0x10\n 15217: s1 = s1 << 0x18\n 15220: a5 = a5 | s1\n 15223: a1 = a1 | a5\n 15226: a4 = u8 [a0 + 0x15]\n 15229: a5 = u8 [a0 + 0x14]\n 15232: s1 = u8 [a0 + 0x16]\n 15235: a0 = u8 [a0 + 0x17]\n 15238: a4 = a4 << 0x8\n 15241: a4 = a4 | a5\n 15244: s1 = s1 << 0x10\n 15247: a0 = a0 << 0x18\n 15250: a0 = a0 | s1\n 15253: a0 = a0 | a4\n 15256: a0 = a0 << 0x20\n 15259: a0 = a0 | a1\n 15262: a0 = reverse a0\n 15264: s1 = reverse a3\n 15266: a2 = reverse a2\n 15268: a1 = reverse t0\n 15270: a3 = a1 | a2\n 15273: a4 = s1 <u 0xffffffffffffffe0\n 15276: a4 = 0 if a0 != 0\n 15278: a4 = 0 if a3 != 0\n 15280: jump @226 if a4 == 0\n      : @214 (gas: 8)\n 15284: a3 = s1 | a1\n 15287: a0 = a0 | a2\n 15290: a3 = a3 | a0\n 15293: a3 = a3 >> 0x20\n 15296: a0 = a0 | a1\n 15299: a0 = a0 << 0x20\n 15302: a0 = a0 | a3\n 15305: jump @224 if a0 != 0\n      : @215 (gas: 4)\n 15309: i32 s1 = s1 + 0\n 15311: a1 = 0x20\n 15314: a0 = s1\n 15316: ra = 190, jump @0\n      : @216 [@dyn 95] (gas: 35)\n 15322: u8 [a0 + 31] = 0x9f\n 15327: u8 [a0 + 30] = 0x26\n 15331: u8 [a0 + 29] = 0xd1\n 15336: u8 [a0 + 28] = 0xfa\n 15341: u8 [a0 + 27] = 0xa\n 15345: u8 [a0 + 26] = 0xda\n 15350: u8 [a0 + 25] = 0xdc\n 15355: u8 [a0 + 24] = 0x46\n 15359: u8 [a0 + 23] = 0x71\n 15363: u8 [a0 + 22] = 0x12\n 15367: u8 [a0 + 21] = 0x34\n 15371: u8 [a0 + 20] = 0xdd\n 15376: u8 [a0 + 19] = 0xcd\n 15381: u8 [a0 + 18] = 0xc8\n 15386: u8 [a0 + 17] = 0xd6\n 15391: u8 [a0 + 16] = 0xa6\n 15396: u8 [a0 + 15] = 0xc9\n 15401: u8 [a0 + 14] = 0x3e\n 15405: u8 [a0 + 13] = 0x6f\n 15409: u8 [a0 + 12] = 0x6\n 15413: u8 [a0 + 11] = 0xf5\n 15418: u8 [a0 + 10] = 0xda\n 15423: u8 [a0 + 9] = 0xf\n 15427: u8 [a0 + 8] = 0xed\n 15432: u8 [a0 + 7] = 0x87\n 15437: u8 [a0 + 6] = 0x1d\n 15441: u8 [a0 + 5] = 0xbd\n 15446: u8 [a0 + 4] = 0x2b\n 15450: u8 [a0 + 3] = 0x74\n 15454: u8 [a0 + 2] = 0x22\n 15458: u8 [a0 + 1] = 0xd2\n 15463: u8 [a0 + 0] = 0x76\n 15466: a1 = 0x20\n 15469: a0 = s1\n 15471: ra = 192, jump @0\n      : @217 [@dyn 96] (gas: 31)\n 15477: u64 [sp + 216] = 0\n 15481: u64 [sp + 208] = 0\n 15485: u64 [sp + 200] = 0\n 15489: u64 [sp + 192] = 0\n 15493: u64 [sp + 248] = 0\n 15497: u64 [sp + 240] = 0\n 15501: u64 [sp + 232] = 0\n 15505: u64 [sp + 224] = 0\n 15509: u64 [sp + 280] = 0xffffffffffffffff\n 15514: u64 [sp + 272] = 0xffffffffffffffff\n 15519: u64 [sp + 264] = 0xffffffffffffffff\n 15524: u64 [sp + 256] = 0xffffffffffffffff\n 15529: a2 = sp + 0xc0\n 15533: a2 = a2 << 0x20\n 15536: a2 = a2 >> 0x20\n 15539: a3 = sp + 0x100\n 15543: a3 = a3 << 0x20\n 15546: a2 = a2 | a3\n 15549: a0 = a0 << 0x20\n 15552: a0 = a0 >> 0x20\n 15555: a3 = 0x2000000000\n 15565: a3 = a3 | a0\n 15568: a0 = sp + 0xe0\n 15572: a0 = a0 << 0x20\n 15575: a1 = 0xffffffff\n 15585: a5 = a0 | a1\n 15588: a0 = 0xffffffffffffffff\n 15591: a1 = 0xffffffffffffffff\n 15594: a4 = 0xffffffffffffffff\n 15597: ecalli 8 // 'instantiate'\n 15599: fallthrough\n      : @218 (gas: 6)\n 15600: a1 = u32 [sp + 0xf0]\n 15604: a0 = u64 [sp + 0xe0]\n 15608: a2 = u64 [sp + 0xe8]\n 15612: a3 = a0 | a1\n 15615: a3 = a3 | a2\n 15618: jump @225 if a3 == 0\n      : @219 (gas: 32)\n 15622: a2 = reverse a2\n 15624: a3 = a2 << 0x20\n 15627: a1 = reverse a1\n 15629: a1 = a1 >> 0x20\n 15632: a1 = a1 | a3\n 15635: u64 [sp + 0x38] = a1\n 15638: a0 = reverse a0\n 15640: a1 = a0 << 0x20\n 15643: a2 = a2 >> 0x20\n 15646: a1 = a1 | a2\n 15649: u64 [sp + 0x30] = a1\n 15652: a0 = a0 >> 0x20\n 15655: u64 [sp + 0x28] = a0\n 15658: i32 a0 = sp + 0x120\n 15662: ecalli 4 // 'caller'\n 15664: a0 = u64 [sp + 0x128]\n 15668: a1 = i32 [sp + 0x130]\n 15672: s1 = u64 [sp + 0x120]\n 15676: a0 = reverse a0\n 15678: a2 = a0 << 0x20\n 15681: a1 = reverse a1\n 15683: a1 = a1 >> 0x20\n 15686: a1 = a1 | a2\n 15689: u64 [sp + 0x20] = a1\n 15692: a0 = a0 >> 0x20\n 15695: a1 = reverse s1\n 15697: a1 = a1 << 0x20\n 15700: a0 = a0 | a1\n 15703: u64 [sp + 0x18] = a0\n 15706: a1 = 0x20\n 15709: a0 = 0\n 15711: ra = 194, jump @0\n      : @220 [@dyn 97] (gas: 56)\n 15717: a1 = u64 [sp + 0x18]\n 15720: a1 = reverse a1\n 15722: a2 = u64 [sp + 0x20]\n 15725: a2 = reverse a2\n 15727: a3 = s1 >> 0x18\n 15730: u8 [a0 + 0xf] = a3\n 15733: a3 = s1 >> 0x10\n 15736: u8 [a0 + 0xe] = a3\n 15739: a3 = s1 >> 0x8\n 15742: u8 [a0 + 0xd] = a3\n 15745: u8 [a0 + 0xc] = s1\n 15748: u8 [a0 + 11] = 0\n 15751: u8 [a0 + 10] = 0\n 15754: u8 [a0 + 9] = 0\n 15757: u8 [a0 + 8] = 0\n 15760: u8 [a0 + 7] = 0\n 15763: u8 [a0 + 6] = 0\n 15766: u8 [a0 + 5] = 0\n 15769: u8 [a0 + 4] = 0\n 15772: u8 [a0 + 3] = 0\n 15775: u8 [a0 + 2] = 0\n 15778: u8 [a0 + 1] = 0\n 15781: u8 [a0 + 0] = 0\n 15783: u8 [a0 + 0x18] = a2\n 15786: u8 [a0 + 0x10] = a1\n 15789: a3 = a2 >> 0x38\n 15792: u8 [a0 + 0x1f] = a3\n 15795: a3 = a2 >> 0x30\n 15798: u8 [a0 + 0x1e] = a3\n 15801: a3 = a2 >> 0x28\n 15804: u8 [a0 + 0x1d] = a3\n 15807: a3 = a2 >> 0x20\n 15810: u8 [a0 + 0x1c] = a3\n 15813: a3 = a2 >> 0x18\n 15816: u8 [a0 + 0x1b] = a3\n 15819: a3 = a2 >> 0x10\n 15822: u8 [a0 + 0x1a] = a3\n 15825: a2 = a2 >> 0x8\n 15828: u8 [a0 + 0x19] = a2\n 15831: a2 = a1 >> 0x38\n 15834: u8 [a0 + 0x17] = a2\n 15837: a2 = a1 >> 0x30\n 15840: u8 [a0 + 0x16] = a2\n 15843: a2 = a1 >> 0x28\n 15846: u8 [a0 + 0x15] = a2\n 15849: a2 = a1 >> 0x20\n 15852: u8 [a0 + 0x14] = a2\n 15855: a2 = a1 >> 0x18\n 15858: u8 [a0 + 0x13] = a2\n 15861: a2 = a1 >> 0x10\n 15864: u8 [a0 + 0x12] = a2\n 15867: a1 = a1 >> 0x8\n 15870: u8 [a0 + 0x11] = a1\n 15873: a0 = 0x20\n 15876: a1 = 0x20\n 15879: ra = 196, jump @0\n      : @221 [@dyn 98] (gas: 35)\n 15885: u8 [a0 + 31] = 0x1\n 15889: u8 [a0 + 30] = 0\n 15892: u8 [a0 + 29] = 0\n 15895: u8 [a0 + 28] = 0\n 15898: u8 [a0 + 27] = 0\n 15901: u8 [a0 + 26] = 0\n 15904: u8 [a0 + 25] = 0\n 15907: u8 [a0 + 24] = 0\n 15910: u8 [a0 + 23] = 0\n 15913: u8 [a0 + 22] = 0\n 15916: u8 [a0 + 21] = 0\n 15919: u8 [a0 + 20] = 0\n 15922: u8 [a0 + 19] = 0\n 15925: u8 [a0 + 18] = 0\n 15928: u8 [a0 + 17] = 0\n 15931: u8 [a0 + 16] = 0\n 15934: u8 [a0 + 15] = 0\n 15937: u8 [a0 + 14] = 0\n 15940: u8 [a0 + 13] = 0\n 15943: u8 [a0 + 12] = 0\n 15946: u8 [a0 + 11] = 0\n 15949: u8 [a0 + 10] = 0\n 15952: u8 [a0 + 9] = 0\n 15955: u8 [a0 + 8] = 0\n 15958: u8 [a0 + 7] = 0\n 15961: u8 [a0 + 6] = 0\n 15964: u8 [a0 + 5] = 0\n 15967: u8 [a0 + 4] = 0\n 15970: u8 [a0 + 3] = 0\n 15973: u8 [a0 + 2] = 0\n 15976: u8 [a0 + 1] = 0\n 15979: u8 [a0 + 0] = 0\n 15981: a1 = 0x40\n 15984: a0 = 0\n 15986: ra = 198, jump @0\n      : @222 [@dyn 99] (gas: 62)\n 15992: i32 a0 = a0 + 0\n 15994: i32 a2 = sp + 0x140\n 15998: a1 = 0x40\n 16001: ecalli 7 // 'hash_keccak_256'\n 16003: a0 = u64 [sp + 0x158]\n 16007: a1 = u64 [sp + 0x150]\n 16011: a2 = u64 [sp + 0x148]\n 16015: a3 = u64 [sp + 0x140]\n 16019: a4 = reverse a0\n 16021: a0 = reverse a1\n 16023: a1 = reverse a2\n 16025: a2 = reverse a3\n 16027: u64 [sp + 152] = 0\n 16031: a3 = u64 [sp + 0x28]\n 16034: u64 [sp + 0x90] = a3\n 16038: a3 = u64 [sp + 0x30]\n 16041: u64 [sp + 0x88] = a3\n 16045: a3 = u64 [sp + 0x38]\n 16048: u64 [sp + 0x80] = a3\n 16052: u64 [sp + 0xb8] = a2\n 16056: u64 [sp + 0xb0] = a1\n 16060: u64 [sp + 0xa8] = a0\n 16064: a0 = sp + 0xa0\n 16068: a1 = sp + 0x80\n 16072: u64 [sp + 0xa0] = a4\n 16076: ra = 0xc8\n 16080: sp = sp + 0xfffffffffffffdc0\n 16084: u64 [sp + 0x238] = ra\n 16088: u64 [sp + 0x230] = s0\n 16092: u64 [sp + 0x228] = s1\n 16096: s0 = sp + 0x240\n 16100: sp = sp & 0xffffffffffffffe0\n 16103: a2 = u64 [a1 + 0x10]\n 16106: u64 [sp + 0x38] = a2\n 16109: a2 = u64 [a1 + 0x8]\n 16112: u64 [sp + 0x30] = a2\n 16115: a1 = u64 [a1]\n 16117: u64 [sp + 0x28] = a1\n 16120: a3 = u64 [a0 + 0x18]\n 16123: a2 = u64 [a0 + 0x10]\n 16126: a1 = u64 [a0 + 0x8]\n 16129: a0 = u64 [a0]\n 16131: u64 [sp + 0x60] = a3\n 16134: u64 [sp + 0x1f8] = a3\n 16138: u64 [sp + 0x68] = a2\n 16141: u64 [sp + 0x1f0] = a2\n 16145: u64 [sp + 0x70] = a1\n 16148: u64 [sp + 0x1e8] = a1\n 16152: u64 [sp + 0x78] = a0\n 16155: u64 [sp + 0x1e0] = a0\n 16159: u64 [sp + 536] = 0\n 16163: u64 [sp + 528] = 0\n 16167: u64 [sp + 520] = 0\n 16171: u64 [sp + 512] = 0\n 16175: u32 [sp + 448] = 0x20\n 16180: i32 a1 = sp + 0x1e0\n 16184: i32 a3 = sp + 0x200\n 16188: i32 a4 = sp + 0x1c0\n 16192: a2 = 0xffffffffffffffff\n 16195: a0 = 0\n 16197: ecalli 6 // 'get_storage'\n 16199: jump @205\n      : @223 [@dyn 100] (gas: 6)\n 16202: sp = s0 + 0xfffffffffffffe80\n 16206: ra = u64 [sp + 0x178]\n 16210: s0 = u64 [sp + 0x170]\n 16214: s1 = u64 [sp + 0x168]\n 16218: sp = sp + 0x180\n 16222: ret\n      : @224 (gas: 1)\n 16224: trap\n      : @225 (gas: 1)\n 16225: ra = 202, jump @192\n      : @226 [@dyn 101] (gas: 8)\n 16231: u64 [sp + 112] = 0\n 16234: u64 [sp + 104] = 0\n 16237: u64 [sp + 96] = 0\n 16240: a0 = 0x4e487b7100000000\n 16250: a1 = sp + 0x60\n 16253: u64 [sp + 0x78] = a0\n 16256: a0 = 0\n 16258: ra = 204, jump @8\n      : @227 [@dyn 102] (gas: 7)\n 16264: u64 [sp + 88] = 0\n 16267: u64 [sp + 80] = 0\n 16270: u64 [sp + 64] = 0x41\n 16274: a0 = 0x4\n 16277: a1 = sp + 0x40\n 16280: u64 [sp + 72] = 0\n 16283: ra = 206, jump @8\n      : @228 [@dyn 103] (gas: 3)\n 16289: a1 = 0x24\n 16292: a0 = 0\n 16294: ra = 208, jump @0\n      : @229 [@dyn 104] (gas: 6)\n 16300: i32 a1 = a0 + 0\n 16302: a0 = 0x1\n 16305: a2 = 0x24\n 16308: ra = 0xd2\n 16312: ecalli 12 // 'seal_return'\n 16314: fallthrough\n      : @230 [@dyn 105] (gas: 20)\n 16315: sp = sp + 0xffffffffffffffb0\n 16318: u64 [sp + 0x48] = ra\n 16321: u64 [sp + 0x40] = s0\n 16324: u64 [sp + 0x38] = s1\n 16327: a4 = u64 [a1 + 0x10]\n 16330: a3 = u64 [a1 + 0x18]\n 16333: a5 = u64 [a1 + 0x8]\n 16336: s0 = u64 [a1]\n 16338: u64 [sp + 0x28] = a3\n 16341: u64 [sp + 0x20] = a5\n 16344: a1 = a5 | a3\n 16347: a3 = s0 | a4\n 16350: a3 = a3 | a1\n 16353: a3 = a3 >> 0x20\n 16356: u64 [sp + 0x30] = a4\n 16359: a1 = a1 | a4\n 16362: a1 = a1 << 0x20\n 16365: a1 = a1 | a3\n 16368: u64 [sp + 0x18] = a0\n 16371: jump @233 if a1 != 0\n      : @231 (gas: 10)\n 16375: a0 = u64 [a2 + 0x18]\n 16378: u64 [sp] = a0\n 16380: s1 = u64 [a2 + 0x10]\n 16383: a0 = u64 [a2 + 0x8]\n 16386: u64 [sp + 0x8] = a0\n 16389: a0 = u64 [a2]\n 16391: u64 [sp + 0x10] = a0\n 16394: i32 a0 = s0 + 0\n 16396: a1 = 0x20\n 16399: ra = 212, jump @0\n      : @232 [@dyn 106] (gas: 88)\n 16405: a1 = u64 [sp]\n 16407: a1 = reverse a1\n 16409: a2 = reverse s1\n 16411: a3 = u64 [sp + 0x8]\n 16414: a3 = reverse a3\n 16416: a4 = u64 [sp + 0x10]\n 16419: a4 = reverse a4\n 16421: a5 = a4 >> 0x38\n 16424: u8 [a0 + 0x1f] = a5\n 16427: a5 = a4 >> 0x30\n 16430: u8 [a0 + 0x1e] = a5\n 16433: a5 = a4 >> 0x28\n 16436: u8 [a0 + 0x1d] = a5\n 16439: a5 = a4 >> 0x20\n 16442: u8 [a0 + 0x1c] = a5\n 16445: a5 = a4 >> 0x18\n 16448: u8 [a0 + 0x1b] = a5\n 16451: a5 = a4 >> 0x10\n 16454: u8 [a0 + 0x1a] = a5\n 16457: a5 = a4 >> 0x8\n 16460: u8 [a0 + 0x19] = a5\n 16463: u8 [a0 + 0x18] = a4\n 16466: u8 [a0 + 0x10] = a3\n 16469: a4 = a3 >> 0x38\n 16472: u8 [a0 + 0x17] = a4\n 16475: a4 = a3 >> 0x30\n 16478: u8 [a0 + 0x16] = a4\n 16481: a4 = a3 >> 0x28\n 16484: u8 [a0 + 0x15] = a4\n 16487: a4 = a3 >> 0x20\n 16490: u8 [a0 + 0x14] = a4\n 16493: a4 = a3 >> 0x18\n 16496: u8 [a0 + 0x13] = a4\n 16499: a4 = a3 >> 0x10\n 16502: u8 [a0 + 0x12] = a4\n 16505: a3 = a3 >> 0x8\n 16508: u8 [a0 + 0x11] = a3\n 16511: u8 [a0 + 0x8] = a2\n 16514: a3 = a2 >> 0x38\n 16517: u8 [a0 + 0xf] = a3\n 16520: a3 = a2 >> 0x30\n 16523: u8 [a0 + 0xe] = a3\n 16526: a3 = a2 >> 0x28\n 16529: u8 [a0 + 0xd] = a3\n 16532: a3 = a2 >> 0x20\n 16535: u8 [a0 + 0xc] = a3\n 16538: a3 = a2 >> 0x18\n 16541: u8 [a0 + 0xb] = a3\n 16544: a3 = a2 >> 0x10\n 16547: u8 [a0 + 0xa] = a3\n 16550: a2 = a2 >> 0x8\n 16553: u8 [a0 + 0x9] = a2\n 16556: u8 [a0] = a1\n 16558: a2 = a1 >> 0x38\n 16561: u8 [a0 + 0x7] = a2\n 16564: a2 = a1 >> 0x30\n 16567: u8 [a0 + 0x6] = a2\n 16570: a2 = a1 >> 0x28\n 16573: u8 [a0 + 0x5] = a2\n 16576: a2 = a1 >> 0x20\n 16579: u8 [a0 + 0x4] = a2\n 16582: a2 = a1 >> 0x18\n 16585: u8 [a0 + 0x3] = a2\n 16588: a2 = a1 >> 0x10\n 16591: u8 [a0 + 0x2] = a2\n 16594: a1 = a1 >> 0x8\n 16597: u8 [a0 + 0x1] = a1\n 16600: a0 = s0 + 0x20\n 16603: a1 = a0 <u s0\n 16606: a3 = u64 [sp + 0x20]\n 16609: a2 = a3 + a1\n 16612: a3 = a2 <u a3\n 16615: a3 = a1 if a1 == 0\n 16618: a1 = u64 [sp + 0x30]\n 16621: a3 = a3 + a1\n 16624: a1 = a3 <u a1\n 16627: a4 = u64 [sp + 0x28]\n 16630: a1 = a1 + a4\n 16633: a4 = u64 [sp + 0x18]\n 16636: u64 [a4] = a0\n 16638: u64 [a4 + 0x8] = a2\n 16641: u64 [a4 + 0x10] = a3\n 16644: u64 [a4 + 0x18] = a1\n 16647: ra = u64 [sp + 0x48]\n 16650: s0 = u64 [sp + 0x40]\n 16653: s1 = u64 [sp + 0x38]\n 16656: sp = sp + 0x50\n 16659: ret\n      : @233 (gas: 1)\n 16661: trap\n      : @234 (gas: 17)\n 16662: sp = sp + 0xffffffffffffffa0\n 16665: u64 [sp + 0x58] = ra\n 16668: u64 [sp + 0x50] = s0\n 16671: u64 [sp + 0x48] = s1\n 16674: a3 = u64 [a1 + 0x18]\n 16677: a4 = u64 [a1 + 0x10]\n 16680: a5 = u64 [a1 + 0x8]\n 16683: s1 = u64 [a1]\n 16685: a1 = a5 | a3\n 16688: a2 = s1 | a4\n 16691: a2 = a2 | a1\n 16694: a2 = a2 >> 0x20\n 16697: a1 = a1 | a4\n 16700: a1 = a1 << 0x20\n 16703: a1 = a1 | a2\n 16706: u64 [sp + 0x28] = a0\n 16709: jump @241 if a1 != 0\n      : @235 (gas: 19)\n 16713: a0 = s1 + 0x20\n 16716: u64 [sp + 0x30] = a0\n 16719: a0 = a0 <u s1\n 16722: a1 = a5 + a0\n 16725: u64 [sp + 0x40] = a1\n 16728: u64 [sp + 0x8] = a5\n 16731: s0 = a1 <u a5\n 16734: s0 = a0 if a0 == 0\n 16737: s0 = s0 + a4\n 16740: u64 [sp + 0x10] = a4\n 16743: a0 = s0 <u a4\n 16746: u64 [sp + 0x18] = a3\n 16749: a0 = a0 + a3\n 16752: u64 [sp + 0x38] = a0\n 16755: u64 [sp] = s1\n 16757: i32 a0 = s1 + 0\n 16759: a1 = 0x20\n 16762: s1 = 0x20\n 16765: ra = 214, jump @0\n      : @236 [@dyn 107] (gas: 45)\n 16771: u8 [a0 + 0x1f] = s1\n 16774: a1 = u64 [sp + 0x30]\n 16777: s1 = a1\n 16779: a1 = a1 | s0\n 16782: a2 = u64 [sp + 0x40]\n 16785: a4 = u64 [sp + 0x38]\n 16788: a2 = a2 | a4\n 16791: a1 = a1 | a2\n 16794: a1 = a1 >> 0x20\n 16797: u64 [sp + 0x20] = s0\n 16800: a2 = a2 | s0\n 16803: a2 = a2 << 0x20\n 16806: a1 = a1 | a2\n 16809: u8 [a0 + 30] = 0\n 16812: u8 [a0 + 29] = 0\n 16815: u8 [a0 + 28] = 0\n 16818: u8 [a0 + 27] = 0\n 16821: u8 [a0 + 26] = 0\n 16824: u8 [a0 + 25] = 0\n 16827: u8 [a0 + 24] = 0\n 16830: u8 [a0 + 23] = 0\n 16833: u8 [a0 + 22] = 0\n 16836: u8 [a0 + 21] = 0\n 16839: u8 [a0 + 20] = 0\n 16842: u8 [a0 + 19] = 0\n 16845: u8 [a0 + 18] = 0\n 16848: u8 [a0 + 17] = 0\n 16851: u8 [a0 + 16] = 0\n 16854: u8 [a0 + 15] = 0\n 16857: u8 [a0 + 14] = 0\n 16860: u8 [a0 + 13] = 0\n 16863: u8 [a0 + 12] = 0\n 16866: u8 [a0 + 11] = 0\n 16869: u8 [a0 + 10] = 0\n 16872: u8 [a0 + 9] = 0\n 16875: u8 [a0 + 8] = 0\n 16878: u8 [a0 + 7] = 0\n 16881: u8 [a0 + 6] = 0\n 16884: u8 [a0 + 5] = 0\n 16887: u8 [a0 + 4] = 0\n 16890: u8 [a0 + 3] = 0\n 16893: u8 [a0 + 2] = 0\n 16896: u8 [a0 + 1] = 0\n 16899: u8 [a0 + 0] = 0\n 16901: jump @241 if a1 != 0\n      : @237 (gas: 4)\n 16905: i32 s0 = s1 + 0\n 16907: a1 = 0x20\n 16910: a0 = s0\n 16912: ra = 216, jump @0\n      : @238 [@dyn 108] (gas: 41)\n 16918: u8 [a0 + 31] = 0x11\n 16922: u8 [a0 + 30] = 0\n 16925: u8 [a0 + 29] = 0\n 16928: u8 [a0 + 28] = 0\n 16931: u8 [a0 + 27] = 0\n 16934: u8 [a0 + 26] = 0\n 16937: u8 [a0 + 25] = 0\n 16940: u8 [a0 + 24] = 0\n 16943: u8 [a0 + 23] = 0\n 16946: u8 [a0 + 22] = 0\n 16949: u8 [a0 + 21] = 0\n 16952: u8 [a0 + 20] = 0\n 16955: u8 [a0 + 19] = 0\n 16958: u8 [a0 + 18] = 0\n 16961: u8 [a0 + 17] = 0\n 16964: u8 [a0 + 16] = 0\n 16967: u8 [a0 + 15] = 0\n 16970: u8 [a0 + 14] = 0\n 16973: u8 [a0 + 13] = 0\n 16976: u8 [a0 + 12] = 0\n 16979: u8 [a0 + 11] = 0\n 16982: u8 [a0 + 10] = 0\n 16985: u8 [a0 + 9] = 0\n 16988: u8 [a0 + 8] = 0\n 16991: u8 [a0 + 7] = 0\n 16994: u8 [a0 + 6] = 0\n 16997: u8 [a0 + 5] = 0\n 17000: u8 [a0 + 4] = 0\n 17003: u8 [a0 + 3] = 0\n 17006: u8 [a0 + 2] = 0\n 17009: u8 [a0 + 1] = 0\n 17012: a1 = u64 [sp + 0x20]\n 17015: a2 = u64 [sp + 0x38]\n 17018: a1 = a1 | a2\n 17021: a2 = 0xffffffe0\n 17031: a2 = s1 <u a2\n 17034: a3 = u64 [sp + 0x40]\n 17037: a2 = 0 if a3 != 0\n 17039: a2 = 0 if a1 != 0\n 17041: u8 [a0 + 0] = 0\n 17043: jump @241 if a2 == 0\n      : @239 (gas: 3)\n 17047: i32 a0 = s0 + 0x20\n 17050: a1 = 0x20\n 17053: ra = 218, jump @0\n      : @240 [@dyn 109] (gas: 55)\n 17059: u8 [a0 + 31] = 0\n 17062: u8 [a0 + 30] = 0\n 17065: u8 [a0 + 29] = 0\n 17068: u8 [a0 + 28] = 0\n 17071: u8 [a0 + 27] = 0\n 17074: u8 [a0 + 26] = 0\n 17077: u8 [a0 + 25] = 0\n 17080: u8 [a0 + 24] = 0\n 17083: u8 [a0 + 23] = 0\n 17086: u8 [a0 + 22] = 0\n 17089: u8 [a0 + 21] = 0\n 17092: u8 [a0 + 20] = 0\n 17095: u8 [a0 + 19] = 0\n 17098: u8 [a0 + 18] = 0\n 17101: u8 [a0 + 17] = 0\n 17104: u8 [a0 + 16] = 0x78\n 17108: u8 [a0 + 15] = 0x65\n 17112: u8 [a0 + 14] = 0x64\n 17116: u8 [a0 + 13] = 0x6e\n 17120: u8 [a0 + 12] = 0x69\n 17124: a5 = 0x20\n 17127: u8 [a0 + 0xb] = a5\n 17130: u8 [a0 + 10] = 0x78\n 17134: u8 [a0 + 9] = 0x6f\n 17138: u8 [a0 + 8] = 0x62\n 17142: u8 [a0 + 0x7] = a5\n 17145: u8 [a0 + 6] = 0x64\n 17149: u8 [a0 + 5] = 0x69\n 17153: u8 [a0 + 4] = 0x6c\n 17157: u8 [a0 + 3] = 0x61\n 17161: u8 [a0 + 2] = 0x76\n 17165: u8 [a0 + 1] = 0x6e\n 17169: u8 [a0 + 0] = 0x49\n 17172: a1 = u64 [sp]\n 17174: a0 = a1 + 0x60\n 17177: a1 = a0 <u a1\n 17180: a3 = u64 [sp + 0x8]\n 17183: a2 = a3 + a1\n 17186: a3 = a2 <u a3\n 17189: a3 = a1 if a1 == 0\n 17192: a1 = u64 [sp + 0x10]\n 17195: a3 = a3 + a1\n 17198: a1 = a3 <u a1\n 17201: a4 = u64 [sp + 0x18]\n 17204: a1 = a1 + a4\n 17207: a4 = u64 [sp + 0x28]\n 17210: u64 [a4] = a0\n 17212: u64 [a4 + 0x8] = a2\n 17215: u64 [a4 + 0x10] = a3\n 17218: u64 [a4 + 0x18] = a1\n 17221: ra = u64 [sp + 0x58]\n 17224: s0 = u64 [sp + 0x50]\n 17227: s1 = u64 [sp + 0x48]\n 17230: sp = sp + 0x60\n 17233: ret\n      : @241 (gas: 1)\n 17235: trap\n      : @242 [@dyn 110] (gas: 6)\n 17236: i32 a1 = a0 + 0\n 17238: a0 = 0x1\n 17241: a2 = 0\n 17243: ra = 0xde\n 17247: ecalli 12 // 'seal_return'\n 17249: fallthrough\n      : @243 [@dyn 111] (gas: 18)\n 17250: a2 = u64 [a1]\n 17252: t0 = u64 [a1 + 0x18]\n 17255: a4 = u64 [a1 + 0x8]\n 17258: a1 = u64 [a1 + 0x10]\n 17261: a5 = a2 + 0x1f\n 17264: a2 = a5 <u a2\n 17267: a3 = a4 + a2\n 17270: a4 = a3 <u a4\n 17273: a4 = a2 if a2 == 0\n 17276: a4 = a4 + a1\n 17279: a1 = a4 <u a1\n 17282: a1 = a1 + t0\n 17285: a5 = a5 & 0xffffffffffffffe0\n 17288: u64 [a0] = a5\n 17290: u64 [a0 + 0x8] = a3\n 17293: u64 [a0 + 0x10] = a4\n 17296: u64 [a0 + 0x18] = a1\n 17299: ret\n      : @244 [@dyn 112] (gas: 57)\n 17301: a1 = u64 [s1 + 0x68]\n 17304: a1 = reverse a1\n 17306: a2 = u64 [s1 + 0x78]\n 17309: a2 = reverse a2\n 17311: a4 = u64 [s1 + 0x70]\n 17314: a3 = a4 >> 0x18\n 17317: u8 [a0 + 0xf] = a3\n 17320: a3 = a4 >> 0x10\n 17323: u8 [a0 + 0xe] = a3\n 17326: a3 = a4 >> 0x8\n 17329: u8 [a0 + 0xd] = a3\n 17332: u8 [a0 + 0xc] = a4\n 17335: u8 [a0 + 11] = 0\n 17338: u8 [a0 + 10] = 0\n 17341: u8 [a0 + 9] = 0\n 17344: u8 [a0 + 8] = 0\n 17347: u8 [a0 + 7] = 0\n 17350: u8 [a0 + 6] = 0\n 17353: u8 [a0 + 5] = 0\n 17356: u8 [a0 + 4] = 0\n 17359: u8 [a0 + 3] = 0\n 17362: u8 [a0 + 2] = 0\n 17365: u8 [a0 + 1] = 0\n 17368: u8 [a0 + 0] = 0\n 17370: u8 [a0 + 0x18] = a2\n 17373: u8 [a0 + 0x10] = a1\n 17376: a3 = a2 >> 0x38\n 17379: u8 [a0 + 0x1f] = a3\n 17382: a3 = a2 >> 0x30\n 17385: u8 [a0 + 0x1e] = a3\n 17388: a3 = a2 >> 0x28\n 17391: u8 [a0 + 0x1d] = a3\n 17394: a3 = a2 >> 0x20\n 17397: u8 [a0 + 0x1c] = a3\n 17400: a3 = a2 >> 0x18\n 17403: u8 [a0 + 0x1b] = a3\n 17406: a3 = a2 >> 0x10\n 17409: u8 [a0 + 0x1a] = a3\n 17412: a2 = a2 >> 0x8\n 17415: u8 [a0 + 0x19] = a2\n 17418: a2 = a1 >> 0x38\n 17421: u8 [a0 + 0x17] = a2\n 17424: a2 = a1 >> 0x30\n 17427: u8 [a0 + 0x16] = a2\n 17430: a2 = a1 >> 0x28\n 17433: u8 [a0 + 0x15] = a2\n 17436: a2 = a1 >> 0x20\n 17439: u8 [a0 + 0x14] = a2\n 17442: a2 = a1 >> 0x18\n 17445: u8 [a0 + 0x13] = a2\n 17448: a2 = a1 >> 0x10\n 17451: u8 [a0 + 0x12] = a2\n 17454: a1 = a1 >> 0x8\n 17457: u8 [a0 + 0x11] = a1\n 17460: a0 = 0x20\n 17463: a1 = 0x20\n 17466: ra = 226, jump @0\n      : @245 [@dyn 113] (gas: 35)\n 17472: u8 [a0 + 31] = 0x1\n 17476: u8 [a0 + 30] = 0\n 17479: u8 [a0 + 29] = 0\n 17482: u8 [a0 + 28] = 0\n 17485: u8 [a0 + 27] = 0\n 17488: u8 [a0 + 26] = 0\n 17491: u8 [a0 + 25] = 0\n 17494: u8 [a0 + 24] = 0\n 17497: u8 [a0 + 23] = 0\n 17500: u8 [a0 + 22] = 0\n 17503: u8 [a0 + 21] = 0\n 17506: u8 [a0 + 20] = 0\n 17509: u8 [a0 + 19] = 0\n 17512: u8 [a0 + 18] = 0\n 17515: u8 [a0 + 17] = 0\n 17518: u8 [a0 + 16] = 0\n 17521: u8 [a0 + 15] = 0\n 17524: u8 [a0 + 14] = 0\n 17527: u8 [a0 + 13] = 0\n 17530: u8 [a0 + 12] = 0\n 17533: u8 [a0 + 11] = 0\n 17536: u8 [a0 + 10] = 0\n 17539: u8 [a0 + 9] = 0\n 17542: u8 [a0 + 8] = 0\n 17545: u8 [a0 + 7] = 0\n 17548: u8 [a0 + 6] = 0\n 17551: u8 [a0 + 5] = 0\n 17554: u8 [a0 + 4] = 0\n 17557: u8 [a0 + 3] = 0\n 17560: u8 [a0 + 2] = 0\n 17563: u8 [a0 + 1] = 0\n 17566: u8 [a0 + 0] = 0\n 17568: a1 = 0x40\n 17571: a0 = 0\n 17573: ra = 228, jump @0\n      : @246 [@dyn 114] (gas: 28)\n 17579: i32 a0 = a0 + 0\n 17581: i32 a2 = s1 + 0x260\n 17585: a1 = 0x40\n 17588: ecalli 7 // 'hash_keccak_256'\n 17590: a0 = u64 [s1 + 0x278]\n 17594: a1 = u64 [s1 + 0x270]\n 17598: a2 = u64 [s1 + 0x268]\n 17602: a3 = u64 [s1 + 0x260]\n 17606: a0 = reverse a0\n 17608: a1 = reverse a1\n 17610: a2 = reverse a2\n 17612: a3 = reverse a3\n 17614: u64 [s1 + 0x258] = a3\n 17618: u64 [s1 + 0x250] = a2\n 17622: u64 [s1 + 0x248] = a1\n 17626: u64 [s1 + 0x240] = a0\n 17630: u64 [s1 + 632] = 0\n 17634: u64 [s1 + 624] = 0\n 17638: u64 [s1 + 616] = 0\n 17642: u64 [s1 + 608] = 0\n 17646: u32 [s1 + 640] = 0x20\n 17651: i32 a1 = s1 + 0x240\n 17655: i32 a3 = s1 + 0x260\n 17659: i32 a4 = s1 + 0x280\n 17663: a2 = 0xffffffffffffffff\n 17666: a0 = 0\n 17668: ecalli 6 // 'get_storage'\n 17670: fallthrough\n      : @247 (gas: 20)\n 17671: a0 = u64 [s1 + 0x278]\n 17675: t0 = u64 [s1 + 0x260]\n 17679: a2 = u64 [s1 + 0x270]\n 17683: a3 = u64 [s1 + 0x268]\n 17687: a1 = u64 [s1 + 0x80]\n 17691: a4 = a0 ^ a1\n 17694: a1 = a1 <u a0\n 17697: a0 = u64 [s1 + 0x88]\n 17701: a5 = a0 <u a2\n 17704: a5 = a1 if a4 != 0\n 17707: a1 = u64 [s1 + 0x90]\n 17711: t1 = a3 ^ a1\n 17714: a3 = a1 <u a3\n 17717: a1 = u64 [s1 + 0x98]\n 17721: a1 = a1 <u t0\n 17724: a1 = a3 if t1 != 0\n 17727: a0 = a0 ^ a2\n 17730: a0 = a0 | a4\n 17733: a1 = a5 if a0 != 0\n 17736: jump @265 if a1 == 0\n      : @248 (gas: 20)\n 17740: i32 a0 = s1 + 0x180\n 17744: ecalli 4 // 'caller'\n 17746: a0 = u64 [s1 + 0x188]\n 17750: a1 = i32 [s1 + 0x190]\n 17754: a3 = u64 [s1 + 0x180]\n 17758: u64 [s1 + 0x70] = a3\n 17761: a0 = reverse a0\n 17763: a2 = a0 << 0x20\n 17766: a1 = reverse a1\n 17768: a1 = a1 >> 0x20\n 17771: a1 = a1 | a2\n 17774: u64 [s1 + 0x78] = a1\n 17777: a0 = a0 >> 0x20\n 17780: a1 = reverse a3\n 17782: a1 = a1 << 0x20\n 17785: a0 = a0 | a1\n 17788: u64 [s1 + 0x68] = a0\n 17791: a1 = 0x20\n 17794: a0 = 0\n 17796: ra = 230, jump @0\n      : @249 [@dyn 115] (gas: 57)\n 17802: a1 = u64 [s1 + 0x68]\n 17805: a1 = reverse a1\n 17807: a2 = u64 [s1 + 0x78]\n 17810: a2 = reverse a2\n 17812: a4 = u64 [s1 + 0x70]\n 17815: a3 = a4 >> 0x18\n 17818: u8 [a0 + 0xf] = a3\n 17821: a3 = a4 >> 0x10\n 17824: u8 [a0 + 0xe] = a3\n 17827: a3 = a4 >> 0x8\n 17830: u8 [a0 + 0xd] = a3\n 17833: u8 [a0 + 0xc] = a4\n 17836: u8 [a0 + 11] = 0\n 17839: u8 [a0 + 10] = 0\n 17842: u8 [a0 + 9] = 0\n 17845: u8 [a0 + 8] = 0\n 17848: u8 [a0 + 7] = 0\n 17851: u8 [a0 + 6] = 0\n 17854: u8 [a0 + 5] = 0\n 17857: u8 [a0 + 4] = 0\n 17860: u8 [a0 + 3] = 0\n 17863: u8 [a0 + 2] = 0\n 17866: u8 [a0 + 1] = 0\n 17869: u8 [a0 + 0] = 0\n 17871: u8 [a0 + 0x18] = a2\n 17874: u8 [a0 + 0x10] = a1\n 17877: a3 = a2 >> 0x38\n 17880: u8 [a0 + 0x1f] = a3\n 17883: a3 = a2 >> 0x30\n 17886: u8 [a0 + 0x1e] = a3\n 17889: a3 = a2 >> 0x28\n 17892: u8 [a0 + 0x1d] = a3\n 17895: a3 = a2 >> 0x20\n 17898: u8 [a0 + 0x1c] = a3\n 17901: a3 = a2 >> 0x18\n 17904: u8 [a0 + 0x1b] = a3\n 17907: a3 = a2 >> 0x10\n 17910: u8 [a0 + 0x1a] = a3\n 17913: a2 = a2 >> 0x8\n 17916: u8 [a0 + 0x19] = a2\n 17919: a2 = a1 >> 0x38\n 17922: u8 [a0 + 0x17] = a2\n 17925: a2 = a1 >> 0x30\n 17928: u8 [a0 + 0x16] = a2\n 17931: a2 = a1 >> 0x28\n 17934: u8 [a0 + 0x15] = a2\n 17937: a2 = a1 >> 0x20\n 17940: u8 [a0 + 0x14] = a2\n 17943: a2 = a1 >> 0x18\n 17946: u8 [a0 + 0x13] = a2\n 17949: a2 = a1 >> 0x10\n 17952: u8 [a0 + 0x12] = a2\n 17955: a1 = a1 >> 0x8\n 17958: u8 [a0 + 0x11] = a1\n 17961: a0 = 0x20\n 17964: a1 = 0x20\n 17967: ra = 232, jump @0\n      : @250 [@dyn 116] (gas: 35)\n 17973: u8 [a0 + 31] = 0x1\n 17977: u8 [a0 + 30] = 0\n 17980: u8 [a0 + 29] = 0\n 17983: u8 [a0 + 28] = 0\n 17986: u8 [a0 + 27] = 0\n 17989: u8 [a0 + 26] = 0\n 17992: u8 [a0 + 25] = 0\n 17995: u8 [a0 + 24] = 0\n 17998: u8 [a0 + 23] = 0\n 18001: u8 [a0 + 22] = 0\n 18004: u8 [a0 + 21] = 0\n 18007: u8 [a0 + 20] = 0\n 18010: u8 [a0 + 19] = 0\n 18013: u8 [a0 + 18] = 0\n 18016: u8 [a0 + 17] = 0\n 18019: u8 [a0 + 16] = 0\n 18022: u8 [a0 + 15] = 0\n 18025: u8 [a0 + 14] = 0\n 18028: u8 [a0 + 13] = 0\n 18031: u8 [a0 + 12] = 0\n 18034: u8 [a0 + 11] = 0\n 18037: u8 [a0 + 10] = 0\n 18040: u8 [a0 + 9] = 0\n 18043: u8 [a0 + 8] = 0\n 18046: u8 [a0 + 7] = 0\n 18049: u8 [a0 + 6] = 0\n 18052: u8 [a0 + 5] = 0\n 18055: u8 [a0 + 4] = 0\n 18058: u8 [a0 + 3] = 0\n 18061: u8 [a0 + 2] = 0\n 18064: u8 [a0 + 1] = 0\n 18067: u8 [a0 + 0] = 0\n 18069: a1 = 0x40\n 18072: a0 = 0\n 18074: ra = 234, jump @0\n      : @251 [@dyn 117] (gas: 28)\n 18080: i32 a0 = a0 + 0\n 18082: i32 a2 = s1 + 0x260\n 18086: a1 = 0x40\n 18089: ecalli 7 // 'hash_keccak_256'\n 18091: a0 = u64 [s1 + 0x278]\n 18095: a1 = u64 [s1 + 0x270]\n 18099: a2 = u64 [s1 + 0x268]\n 18103: a3 = u64 [s1 + 0x260]\n 18107: a4 = reverse a0\n 18109: a0 = reverse a1\n 18111: a1 = reverse a2\n 18113: a2 = reverse a3\n 18115: a3 = u64 [s1 + 0x80]\n 18119: u64 [s1 + 0xb8] = a3\n 18123: a3 = u64 [s1 + 0x88]\n 18127: u64 [s1 + 0xb0] = a3\n 18131: a3 = u64 [s1 + 0x90]\n 18135: u64 [s1 + 0xa8] = a3\n 18139: a3 = u64 [s1 + 0x98]\n 18143: u64 [s1 + 0xa0] = a3\n 18147: u64 [s1 + 0xd8] = a2\n 18151: u64 [s1 + 0xd0] = a1\n 18155: u64 [s1 + 0xc8] = a0\n 18159: a0 = s1 + 0xe0\n 18163: a1 = s1 + 0xc0\n 18167: a2 = s1 + 0xa0\n 18171: u64 [s1 + 0xc0] = a4\n 18175: ra = 236, jump @62\n      : @252 [@dyn 118] (gas: 66)\n 18181: a0 = u64 [s1 + 0xf8]\n 18185: a1 = u64 [s1 + 0xf0]\n 18189: a2 = u64 [s1 + 0xe8]\n 18193: a3 = u64 [s1 + 0xe0]\n 18197: u64 [s1 + 0x258] = a0\n 18201: u64 [s1 + 0x250] = a1\n 18205: u64 [s1 + 0x248] = a2\n 18209: u64 [s1 + 0x240] = a3\n 18213: u64 [s1 + 632] = 0\n 18217: u64 [s1 + 624] = 0\n 18221: u64 [s1 + 616] = 0\n 18225: u64 [s1 + 608] = 0\n 18229: u32 [s1 + 640] = 0x20\n 18234: i32 a1 = s1 + 0x240\n 18238: i32 a3 = s1 + 0x260\n 18242: i32 a4 = s1 + 0x280\n 18246: a2 = 0xffffffffffffffff\n 18249: a0 = 0\n 18251: ecalli 6 // 'get_storage'\n 18253: a0 = u64 [s1 + 0x260]\n 18257: u64 [s1 + 0x98] = a0\n 18261: a0 = u64 [s1 + 0x270]\n 18265: u64 [s1 + 0x90] = a0\n 18269: a0 = u64 [s1 + 0x268]\n 18273: u64 [s1 + 0x88] = a0\n 18277: a0 = sp + 0xffffffffffffffe0\n 18280: a0 = a0 & 0xffffffffffffffe0\n 18283: u64 [s1 + 0x80] = a0\n 18287: sp = a0\n 18289: u64 [a0 + 24] = 0\n 18292: u64 [a0 + 16] = 0\n 18295: u64 [a0 + 8] = 0\n 18298: u64 [a0 + 0] = 0\n 18300: i32 a0 = a0 + 0\n 18302: ecalli 15 // 'value_transferred'\n 18304: a1 = u64 [s1 + 0x80]\n 18308: a0 = u64 [a1 + 0x18]\n 18311: u64 [s1 + 0x40] = a0\n 18314: a0 = u64 [a1 + 0x10]\n 18317: u64 [s1 + 0x68] = a0\n 18320: a0 = u64 [a1 + 0x8]\n 18323: u64 [s1 + 0x70] = a0\n 18326: a0 = u64 [a1]\n 18328: u64 [s1 + 0x78] = a0\n 18331: a0 = u64 [s1 + 0x88]\n 18335: a0 = reverse a0\n 18337: a1 = a0 << 0x20\n 18340: a2 = u64 [s1 + 0x90]\n 18344: a2 = reverse a2\n 18346: a2 = a2 >> 0x20\n 18349: a3 = a2 | a1\n 18352: a0 = a0 >> 0x20\n 18355: a1 = u64 [s1 + 0x98]\n 18359: a1 = reverse a1\n 18361: a2 = a1 << 0x20\n 18364: a0 = a0 | a2\n 18367: a1 = a1 >> 0x20\n 18370: u64 [s1 + 0x28] = a0\n 18373: u64 [s1 + 0x1a8] = a0\n 18377: u64 [s1 + 0x38] = a3\n 18380: u64 [s1 + 0x1a0] = a3\n 18384: u64 [s1 + 0x30] = a1\n 18387: u32 [s1 + 0x1b0] = a1\n 18391: i32 a0 = s1 + 0x1a0\n 18395: ecalli 5 // 'code_size'\n 18397: fallthrough\n      : @253 (gas: 1)\n 18398: jump @272 if a0 == 0\n      : @254 (gas: 3)\n 18402: a0 = 0x40\n 18405: a1 = 0x20\n 18408: ra = 238, jump @0\n      : @255 [@dyn 119] (gas: 107)\n 18414: a1 = u8 [a0 + 0x11]\n 18417: a2 = u8 [a0 + 0x10]\n 18420: a3 = u8 [a0 + 0x12]\n 18423: a4 = u8 [a0 + 0x13]\n 18426: a1 = a1 << 0x8\n 18429: a1 = a1 | a2\n 18432: a3 = a3 << 0x10\n 18435: a4 = a4 << 0x18\n 18438: a3 = a3 | a4\n 18441: a1 = a1 | a3\n 18444: a2 = u8 [a0 + 0x15]\n 18447: a3 = u8 [a0 + 0x14]\n 18450: a4 = u8 [a0 + 0x16]\n 18453: a5 = u8 [a0 + 0x17]\n 18456: a2 = a2 << 0x8\n 18459: a2 = a2 | a3\n 18462: a4 = a4 << 0x10\n 18465: a5 = a5 << 0x18\n 18468: a4 = a4 | a5\n 18471: a2 = a2 | a4\n 18474: a2 = a2 << 0x20\n 18477: t1 = a2 | a1\n 18480: a1 = u8 [a0 + 0x1]\n 18483: a2 = u8 [a0]\n 18485: a3 = u8 [a0 + 0x2]\n 18488: a4 = u8 [a0 + 0x3]\n 18491: a1 = a1 << 0x8\n 18494: a1 = a1 | a2\n 18497: a3 = a3 << 0x10\n 18500: a4 = a4 << 0x18\n 18503: a3 = a3 | a4\n 18506: a1 = a1 | a3\n 18509: a2 = u8 [a0 + 0x5]\n 18512: a3 = u8 [a0 + 0x4]\n 18515: a4 = u8 [a0 + 0x6]\n 18518: a5 = u8 [a0 + 0x7]\n 18521: a2 = a2 << 0x8\n 18524: a2 = a2 | a3\n 18527: a4 = a4 << 0x10\n 18530: a5 = a5 << 0x18\n 18533: a4 = a4 | a5\n 18536: a2 = a2 | a4\n 18539: a2 = a2 << 0x20\n 18542: t0 = a2 | a1\n 18545: a1 = u8 [a0 + 0x19]\n 18548: a2 = u8 [a0 + 0x18]\n 18551: a3 = u8 [a0 + 0x1a]\n 18554: a4 = u8 [a0 + 0x1b]\n 18557: a1 = a1 << 0x8\n 18560: a1 = a1 | a2\n 18563: a3 = a3 << 0x10\n 18566: a4 = a4 << 0x18\n 18569: a3 = a3 | a4\n 18572: a1 = a1 | a3\n 18575: a2 = u8 [a0 + 0x1d]\n 18578: a3 = u8 [a0 + 0x1c]\n 18581: a4 = u8 [a0 + 0x1e]\n 18584: a5 = u8 [a0 + 0x1f]\n 18587: a2 = a2 << 0x8\n 18590: a2 = a2 | a3\n 18593: a4 = a4 << 0x10\n 18596: a5 = a5 << 0x18\n 18599: a4 = a4 | a5\n 18602: a2 = a2 | a4\n 18605: a2 = a2 << 0x20\n 18608: a5 = a2 | a1\n 18611: a1 = u8 [a0 + 0x9]\n 18614: a2 = u8 [a0 + 0x8]\n 18617: a3 = u8 [a0 + 0xa]\n 18620: a4 = u8 [a0 + 0xb]\n 18623: a1 = a1 << 0x8\n 18626: a1 = a1 | a2\n 18629: a3 = a3 << 0x10\n 18632: a4 = a4 << 0x18\n 18635: a3 = a3 | a4\n 18638: a1 = a1 | a3\n 18641: a2 = u8 [a0 + 0xd]\n 18644: a3 = u8 [a0 + 0xc]\n 18647: a4 = u8 [a0 + 0xe]\n 18650: a0 = u8 [a0 + 0xf]\n 18653: a2 = a2 << 0x8\n 18656: a2 = a2 | a3\n 18659: a4 = a4 << 0x10\n 18662: a0 = a0 << 0x18\n 18665: a0 = a0 | a4\n 18668: a0 = a0 | a2\n 18671: a0 = a0 << 0x20\n 18674: a0 = a0 | a1\n 18677: u64 [s1] = a0\n 18679: a3 = reverse a0\n 18681: u64 [s1 + 0x8] = a5\n 18684: a2 = reverse a5\n 18686: u64 [s1 + 0x18] = t0\n 18689: a1 = reverse t0\n 18691: u64 [s1 + 0x10] = t1\n 18694: a0 = reverse t1\n 18696: u64 [s1 + 0x90] = a0\n 18700: u64 [s1 + 0x80] = a1\n 18704: a0 = a0 | a1\n 18707: a1 = a2 | a3\n 18710: a1 = a1 | a0\n 18713: a1 = a1 >> 0x20\n 18716: u64 [s1 + 0x88] = a3\n 18720: a0 = a0 | a3\n 18723: a0 = a0 << 0x20\n 18726: a0 = a0 | a1\n 18729: jump @270 if a0 != 0\n      : @256 (gas: 5)\n 18733: i32 a0 = a2 + 0\n 18735: a1 = 0x20\n 18738: u64 [s1 + 0x98] = a0\n 18742: u64 [s1 + 0x20] = a2\n 18745: ra = 240, jump @0\n      : @257 [@dyn 120] (gas: 42)\n 18751: u8 [a0 + 31] = 0\n 18754: u8 [a0 + 30] = 0\n 18757: u8 [a0 + 29] = 0\n 18760: u8 [a0 + 28] = 0\n 18763: u8 [a0 + 27] = 0\n 18766: u8 [a0 + 26] = 0\n 18769: u8 [a0 + 25] = 0\n 18772: u8 [a0 + 24] = 0\n 18775: u8 [a0 + 23] = 0\n 18778: u8 [a0 + 22] = 0\n 18781: u8 [a0 + 21] = 0\n 18784: u8 [a0 + 20] = 0\n 18787: u8 [a0 + 19] = 0\n 18790: u8 [a0 + 18] = 0\n 18793: u8 [a0 + 17] = 0\n 18796: u8 [a0 + 16] = 0\n 18799: u8 [a0 + 15] = 0\n 18802: u8 [a0 + 14] = 0\n 18805: u8 [a0 + 13] = 0\n 18808: u8 [a0 + 12] = 0\n 18811: u8 [a0 + 11] = 0\n 18814: u8 [a0 + 10] = 0\n 18817: u8 [a0 + 9] = 0\n 18820: u8 [a0 + 8] = 0\n 18823: u8 [a0 + 7] = 0\n 18826: u8 [a0 + 6] = 0\n 18829: u8 [a0 + 5] = 0\n 18832: u8 [a0 + 4] = 0\n 18835: u8 [a0 + 3] = 0x25\n 18839: u8 [a0 + 2] = 0x5f\n 18843: u8 [a0 + 1] = 0xb5\n 18848: a1 = u64 [s1 + 0x88]\n 18852: a2 = u64 [s1 + 0x80]\n 18856: a1 = a1 | a2\n 18859: a2 = 0xfffffffc\n 18869: a3 = u64 [s1 + 0x20]\n 18872: a2 = a3 <u a2\n 18875: a4 = u64 [s1 + 0x90]\n 18879: a2 = 0 if a4 != 0\n 18881: a2 = 0 if a1 != 0\n 18883: u8 [a0 + 0] = 0xb6\n 18887: jump @270 if a2 == 0\n      : @258 (gas: 4)\n 18891: a0 = u64 [s1 + 0x98]\n 18895: i32 a0 = a0 + 0x4\n 18898: a1 = 0x20\n 18901: ra = 242, jump @0\n      : @259 [@dyn 121] (gas: 86)\n 18907: a1 = u64 [s1 + 0x48]\n 18910: a1 = reverse a1\n 18912: a2 = u64 [s1 + 0x50]\n 18915: a2 = reverse a2\n 18917: a3 = u64 [s1 + 0x58]\n 18920: a3 = reverse a3\n 18922: a4 = u64 [s1 + 0x60]\n 18925: a4 = reverse a4\n 18927: a5 = a4 >> 0x38\n 18930: u8 [a0 + 0x1f] = a5\n 18933: a5 = a4 >> 0x30\n 18936: u8 [a0 + 0x1e] = a5\n 18939: a5 = a4 >> 0x28\n 18942: u8 [a0 + 0x1d] = a5\n 18945: a5 = a4 >> 0x20\n 18948: u8 [a0 + 0x1c] = a5\n 18951: a5 = a4 >> 0x18\n 18954: u8 [a0 + 0x1b] = a5\n 18957: a5 = a4 >> 0x10\n 18960: u8 [a0 + 0x1a] = a5\n 18963: a5 = a4 >> 0x8\n 18966: u8 [a0 + 0x19] = a5\n 18969: u8 [a0 + 0x18] = a4\n 18972: u8 [a0 + 0x10] = a3\n 18975: a4 = a3 >> 0x38\n 18978: u8 [a0 + 0x17] = a4\n 18981: a4 = a3 >> 0x30\n 18984: u8 [a0 + 0x16] = a4\n 18987: a4 = a3 >> 0x28\n 18990: u8 [a0 + 0x15] = a4\n 18993: a4 = a3 >> 0x20\n 18996: u8 [a0 + 0x14] = a4\n 18999: a4 = a3 >> 0x18\n 19002: u8 [a0 + 0x13] = a4\n 19005: a4 = a3 >> 0x10\n 19008: u8 [a0 + 0x12] = a4\n 19011: a3 = a3 >> 0x8\n 19014: u8 [a0 + 0x11] = a3\n 19017: u8 [a0 + 0x8] = a2\n 19020: a3 = a2 >> 0x38\n 19023: u8 [a0 + 0xf] = a3\n 19026: a3 = a2 >> 0x30\n 19029: u8 [a0 + 0xe] = a3\n 19032: a3 = a2 >> 0x28\n 19035: u8 [a0 + 0xd] = a3\n 19038: a3 = a2 >> 0x20\n 19041: u8 [a0 + 0xc] = a3\n 19044: a3 = a2 >> 0x18\n 19047: u8 [a0 + 0xb] = a3\n 19050: a3 = a2 >> 0x10\n 19053: u8 [a0 + 0xa] = a3\n 19056: a2 = a2 >> 0x8\n 19059: u8 [a0 + 0x9] = a2\n 19062: u8 [a0] = a1\n 19064: a2 = a1 >> 0x38\n 19067: u8 [a0 + 0x7] = a2\n 19070: a2 = a1 >> 0x30\n 19073: u8 [a0 + 0x6] = a2\n 19076: a2 = a1 >> 0x28\n 19079: u8 [a0 + 0x5] = a2\n 19082: a2 = a1 >> 0x20\n 19085: u8 [a0 + 0x4] = a2\n 19088: a2 = a1 >> 0x18\n 19091: u8 [a0 + 0x3] = a2\n 19094: a2 = a1 >> 0x10\n 19097: u8 [a0 + 0x2] = a2\n 19100: a1 = a1 >> 0x8\n 19103: u8 [a0 + 0x1] = a1\n 19106: ecalli 9 // 'ref_time_left'\n 19108: a0 = u64 [s1 + 0x28]\n 19111: u64 [s1 + 0x1c8] = a0\n 19115: a0 = u64 [s1 + 0x38]\n 19118: u64 [s1 + 0x1c0] = a0\n 19122: a0 = u64 [s1 + 0x30]\n 19125: u32 [s1 + 0x1d0] = a0\n 19129: a0 = u64 [s1 + 0x40]\n 19132: u64 [s1 + 0x1f8] = a0\n 19136: a0 = u64 [s1 + 0x68]\n 19139: u64 [s1 + 0x1f0] = a0\n 19143: a0 = u64 [s1 + 0x70]\n 19146: u64 [s1 + 0x1e8] = a0\n 19150: a0 = u64 [s1 + 0x78]\n 19153: u64 [s1 + 0x1e0] = a0\n 19157: a1 = 0x24\n 19160: a0 = u64 [s1 + 0x98]\n 19164: ra = 244, jump @0\n      : @260 [@dyn 122] (gas: 4)\n 19170: u64 [s1 + 0x90] = a0\n 19174: a0 = u64 [s1 + 0x98]\n 19178: a1 = 0\n 19180: ra = 246, jump @0\n      : @261 [@dyn 123] (gas: 31)\n 19186: u32 [s1 + 512] = 0\n 19190: u64 [s1 + 568] = 0xffffffffffffffff\n 19195: u64 [s1 + 560] = 0xffffffffffffffff\n 19200: u64 [s1 + 552] = 0xffffffffffffffff\n 19205: u64 [s1 + 544] = 0xffffffffffffffff\n 19210: a1 = s1 + 0x1c0\n 19214: a1 = a1 << 0x20\n 19217: a1 = a1 >> 0x20\n 19220: a2 = 0x800000000\n 19230: t0 = a1 | a2\n 19233: a1 = s1 + 0x1e0\n 19237: a1 = a1 << 0x20\n 19240: a1 = a1 >> 0x20\n 19243: a2 = s1 + 0x220\n 19247: a2 = a2 << 0x20\n 19250: a3 = a2 | a1\n 19253: a1 = u64 [s1 + 0x90]\n 19257: a1 = a1 << 0x20\n 19260: a1 = a1 >> 0x20\n 19263: a2 = 0x2400000000\n 19273: a4 = a1 | a2\n 19276: a0 = a0 << 0x20\n 19279: a0 = a0 >> 0x20\n 19282: a1 = s1 + 0x200\n 19286: a1 = a1 << 0x20\n 19289: a5 = a1 | a0\n 19292: a1 = 0xffffffffffffffff\n 19295: a2 = 0xffffffffffffffff\n 19298: a0 = t0\n 19300: ecalli 0 // 'call'\n 19301: fallthrough\n      : @262 (gas: 1)\n 19302: jump @271 if a0 != 0\n      : @263 (gas: 4)\n 19306: ecalli 11 // 'return_data_size'\n 19308: a0 = 0x40\n 19311: a1 = 0x20\n 19314: ra = 248, jump @0\n      : @264 [@dyn 124] (gas: 70)\n 19320: a3 = u64 [s1 + 0x8]\n 19323: u8 [a0 + 0x18] = a3\n 19326: a2 = u64 [s1 + 0x10]\n 19329: a1 = a2 >> 0x38\n 19332: u8 [a0 + 0x17] = a1\n 19335: a1 = a2 >> 0x30\n 19338: u8 [a0 + 0x16] = a1\n 19341: a1 = a2 >> 0x28\n 19344: u8 [a0 + 0x15] = a1\n 19347: a1 = a2 >> 0x20\n 19350: u8 [a0 + 0x14] = a1\n 19353: a1 = a2 >> 0x18\n 19356: u8 [a0 + 0x13] = a1\n 19359: a1 = a2 >> 0x10\n 19362: u8 [a0 + 0x12] = a1\n 19365: a1 = a2 >> 0x8\n 19368: u8 [a0 + 0x11] = a1\n 19371: u8 [a0 + 0x10] = a2\n 19374: a2 = u64 [s1]\n 19376: a1 = a2 >> 0x38\n 19379: u8 [a0 + 0xf] = a1\n 19382: a1 = a2 >> 0x30\n 19385: u8 [a0 + 0xe] = a1\n 19388: a1 = a2 >> 0x28\n 19391: u8 [a0 + 0xd] = a1\n 19394: a1 = a2 >> 0x20\n 19397: u8 [a0 + 0xc] = a1\n 19400: a1 = a2 >> 0x18\n 19403: u8 [a0 + 0xb] = a1\n 19406: a1 = a2 >> 0x10\n 19409: u8 [a0 + 0xa] = a1\n 19412: a1 = a2 >> 0x8\n 19415: u8 [a0 + 0x9] = a1\n 19418: u8 [a0 + 0x8] = a2\n 19421: a2 = u64 [s1 + 0x18]\n 19424: a1 = a2 >> 0x38\n 19427: u8 [a0 + 0x7] = a1\n 19430: a1 = a2 >> 0x30\n 19433: u8 [a0 + 0x6] = a1\n 19436: a1 = a2 >> 0x28\n 19439: u8 [a0 + 0x5] = a1\n 19442: a1 = a2 >> 0x20\n 19445: u8 [a0 + 0x4] = a1\n 19448: a1 = a2 >> 0x18\n 19451: u8 [a0 + 0x3] = a1\n 19454: a1 = a2 >> 0x10\n 19457: u8 [a0 + 0x2] = a1\n 19460: a1 = a2 >> 0x8\n 19463: u8 [a0 + 0x1] = a1\n 19466: u8 [a0] = a2\n 19468: a1 = a3 >> 0x38\n 19471: u8 [a0 + 0x1f] = a1\n 19474: a1 = a3 >> 0x30\n 19477: u8 [a0 + 0x1e] = a1\n 19480: a1 = a3 >> 0x28\n 19483: u8 [a0 + 0x1d] = a1\n 19486: a1 = a3 >> 0x20\n 19489: u8 [a0 + 0x1c] = a1\n 19492: a1 = a3 >> 0x18\n 19495: u8 [a0 + 0x1b] = a1\n 19498: a1 = a3 >> 0x10\n 19501: u8 [a0 + 0x1a] = a1\n 19504: a1 = a3 >> 0x8\n 19507: u8 [a0 + 0x19] = a1\n 19510: sp = s0 + 0xfffffffffffffd60\n 19514: ra = u64 [sp + 0x298]\n 19518: s0 = u64 [sp + 0x290]\n 19522: s1 = u64 [sp + 0x288]\n 19526: sp = sp + 0x2a0\n 19530: ret\n      : @265 (gas: 3)\n 19532: a0 = 0x40\n 19535: a1 = 0x20\n 19538: ra = 250, jump @0\n      : @266 [@dyn 125] (gas: 104)\n 19544: a1 = u8 [a0 + 0x11]\n 19547: a2 = u8 [a0 + 0x10]\n 19550: a3 = u8 [a0 + 0x12]\n 19553: a4 = u8 [a0 + 0x13]\n 19556: a1 = a1 << 0x8\n 19559: a1 = a1 | a2\n 19562: a3 = a3 << 0x10\n 19565: a4 = a4 << 0x18\n 19568: a3 = a3 | a4\n 19571: a1 = a1 | a3\n 19574: a2 = u8 [a0 + 0x15]\n 19577: a3 = u8 [a0 + 0x14]\n 19580: a4 = u8 [a0 + 0x16]\n 19583: a5 = u8 [a0 + 0x17]\n 19586: a2 = a2 << 0x8\n 19589: a2 = a2 | a3\n 19592: a4 = a4 << 0x10\n 19595: a5 = a5 << 0x18\n 19598: a4 = a4 | a5\n 19601: a2 = a2 | a4\n 19604: a2 = a2 << 0x20\n 19607: t0 = a2 | a1\n 19610: a2 = u8 [a0 + 0x1]\n 19613: a3 = u8 [a0]\n 19615: a4 = u8 [a0 + 0x2]\n 19618: a5 = u8 [a0 + 0x3]\n 19621: a2 = a2 << 0x8\n 19624: a2 = a2 | a3\n 19627: a4 = a4 << 0x10\n 19630: a5 = a5 << 0x18\n 19633: a4 = a4 | a5\n 19636: a2 = a2 | a4\n 19639: a3 = u8 [a0 + 0x5]\n 19642: a4 = u8 [a0 + 0x4]\n 19645: a5 = u8 [a0 + 0x6]\n 19648: a1 = u8 [a0 + 0x7]\n 19651: a3 = a3 << 0x8\n 19654: a3 = a3 | a4\n 19657: a5 = a5 << 0x10\n 19660: a1 = a1 << 0x18\n 19663: a1 = a1 | a5\n 19666: a1 = a1 | a3\n 19669: a1 = a1 << 0x20\n 19672: t1 = a1 | a2\n 19675: a1 = u8 [a0 + 0x19]\n 19678: a3 = u8 [a0 + 0x18]\n 19681: a4 = u8 [a0 + 0x1a]\n 19684: a5 = u8 [a0 + 0x1b]\n 19687: a1 = a1 << 0x8\n 19690: a1 = a1 | a3\n 19693: a4 = a4 << 0x10\n 19696: a5 = a5 << 0x18\n 19699: a4 = a4 | a5\n 19702: a1 = a1 | a4\n 19705: a3 = u8 [a0 + 0x1d]\n 19708: a4 = u8 [a0 + 0x1c]\n 19711: a5 = u8 [a0 + 0x1e]\n 19714: a2 = u8 [a0 + 0x1f]\n 19717: a3 = a3 << 0x8\n 19720: a3 = a3 | a4\n 19723: a5 = a5 << 0x10\n 19726: a2 = a2 << 0x18\n 19729: a2 = a2 | a5\n 19732: a2 = a2 | a3\n 19735: a2 = a2 << 0x20\n 19738: a3 = a2 | a1\n 19741: a1 = u8 [a0 + 0x9]\n 19744: a2 = u8 [a0 + 0x8]\n 19747: a4 = u8 [a0 + 0xa]\n 19750: a5 = u8 [a0 + 0xb]\n 19753: a1 = a1 << 0x8\n 19756: a1 = a1 | a2\n 19759: a4 = a4 << 0x10\n 19762: a5 = a5 << 0x18\n 19765: a4 = a4 | a5\n 19768: a1 = a1 | a4\n 19771: a2 = u8 [a0 + 0xd]\n 19774: a4 = u8 [a0 + 0xc]\n 19777: a5 = u8 [a0 + 0xe]\n 19780: a0 = u8 [a0 + 0xf]\n 19783: a2 = a2 << 0x8\n 19786: a2 = a2 | a4\n 19789: a5 = a5 << 0x10\n 19792: a0 = a0 << 0x18\n 19795: a0 = a0 | a5\n 19798: a0 = a0 | a2\n 19801: a0 = a0 << 0x20\n 19804: a0 = a0 | a1\n 19807: a4 = reverse a0\n 19809: a1 = reverse a3\n 19811: a2 = reverse t1\n 19813: a0 = reverse t0\n 19815: u64 [s1 + 0x98] = a0\n 19819: u64 [s1 + 0x88] = a2\n 19823: a0 = a0 | a2\n 19826: a2 = a1\n 19828: a1 = a1 | a4\n 19831: a1 = a1 | a0\n 19834: a1 = a1 >> 0x20\n 19837: u64 [s1 + 0x90] = a4\n 19841: a0 = a0 | a4\n 19844: a0 = a0 << 0x20\n 19847: a0 = a0 | a1\n 19850: jump @270 if a0 != 0\n      : @267 (gas: 5)\n 19854: u64 [s1 + 0x80] = a2\n 19858: i32 a0 = a2 + 0\n 19860: a1 = 0x20\n 19863: u64 [s1 + 0x78] = a0\n 19866: ra = 252, jump @0\n      : @268 [@dyn 126] (gas: 51)\n 19872: u8 [a0 + 31] = 0\n 19875: u8 [a0 + 30] = 0\n 19878: u8 [a0 + 29] = 0\n 19881: u8 [a0 + 28] = 0\n 19884: u8 [a0 + 27] = 0\n 19887: u8 [a0 + 26] = 0\n 19890: u8 [a0 + 25] = 0\n 19893: u8 [a0 + 24] = 0\n 19896: u8 [a0 + 23] = 0\n 19899: u8 [a0 + 22] = 0\n 19902: u8 [a0 + 21] = 0\n 19905: u8 [a0 + 20] = 0\n 19908: u8 [a0 + 19] = 0\n 19911: u8 [a0 + 18] = 0\n 19914: u8 [a0 + 17] = 0\n 19917: u8 [a0 + 16] = 0\n 19920: u8 [a0 + 15] = 0\n 19923: u8 [a0 + 14] = 0\n 19926: u8 [a0 + 13] = 0\n 19929: u8 [a0 + 12] = 0\n 19932: u8 [a0 + 11] = 0\n 19935: u8 [a0 + 10] = 0\n 19938: u8 [a0 + 9] = 0\n 19941: u8 [a0 + 8] = 0\n 19944: u8 [a0 + 7] = 0\n 19947: u8 [a0 + 6] = 0\n 19950: u8 [a0 + 5] = 0\n 19953: u8 [a0 + 4] = 0\n 19956: u8 [a0 + 3] = 0xa0\n 19961: u8 [a0 + 2] = 0x79\n 19965: u8 [a0 + 1] = 0xc3\n 19970: u8 [a0 + 0] = 0x8\n 19973: a1 = u64 [s1 + 0x80]\n 19977: a0 = a1 + 0x4\n 19980: a1 = a0 <u a1\n 19983: a3 = u64 [s1 + 0x98]\n 19987: a2 = a3 + a1\n 19990: a3 = a2 <u a3\n 19993: a3 = a1 if a1 == 0\n 19996: a1 = u64 [s1 + 0x90]\n 20000: a3 = a3 + a1\n 20003: a1 = a3 <u a1\n 20006: a4 = u64 [s1 + 0x88]\n 20010: a4 = a4 + a1\n 20013: u64 [s1 + 0x128] = a2\n 20017: u64 [s1 + 0x120] = a0\n 20021: u64 [s1 + 0x130] = a3\n 20025: a0 = s1 + 0x140\n 20029: a1 = s1 + 0x120\n 20033: u64 [s1 + 0x138] = a4\n 20037: ra = 254, jump @234\n      : @269 [@dyn 127] (gas: 31)\n 20043: a0 = u64 [s1 + 0x148]\n 20047: t0 = u64 [s1 + 0x158]\n 20051: t1 = u64 [s1 + 0x140]\n 20055: a3 = u64 [s1 + 0x150]\n 20059: a1 = u64 [s1 + 0x98]\n 20063: a4 = a0 ^ a1\n 20066: a5 = a0 <u a1\n 20069: ra = a1\n 20071: t2 = u64 [s1 + 0x80]\n 20075: a1 = t1 <u t2\n 20078: a5 = a1 if a4 == 0\n 20081: a2 = u64 [s1 + 0x90]\n 20085: a4 = a3 - a2\n 20088: a3 = a3 <u a2\n 20091: a2 = u64 [s1 + 0x88]\n 20095: a2 = t0 - a2\n 20098: a2 = a2 - a3\n 20101: a3 = a4 <u a5\n 20104: a2 = a2 - a3\n 20107: a4 = a4 - a5\n 20110: a0 = a0 - ra\n 20113: a1 = a0 - a1\n 20116: a0 = t1 - t2\n 20119: a1 = a1 | a2\n 20122: a2 = a0 | a4\n 20125: a2 = a2 | a1\n 20128: a1 = a1 | a4\n 20131: a2 = a2 >> 0x20\n 20134: a1 = a1 << 0x20\n 20137: a1 = a1 | a2\n 20140: jump @274 if a1 == 0\n      : @270 (gas: 1)\n 20143: trap\n      : @271 (gas: 1)\n 20144: ra = 256, jump @192\n      : @272 [@dyn 128] (gas: 2)\n 20150: a1 = 0\n 20152: ra = 258, jump @0\n      : @273 [@dyn 129] (gas: 5)\n 20158: i32 a1 = a0 + 0\n 20160: a0 = 0x1\n 20163: a2 = 0\n 20165: ecalli 12 // 'seal_return'\n 20167: fallthrough\n      : @274 (gas: 4)\n 20168: i32 a1 = a0 + 0\n 20170: u64 [s1 + 0x98] = a1\n 20174: a0 = u64 [s1 + 0x78]\n 20177: ra = 260, jump @0\n      : @275 [@dyn 130] (gas: 7)\n 20183: i32 a1 = a0 + 0\n 20185: a0 = 0x1\n 20188: a2 = u64 [s1 + 0x98]\n 20192: ecalli 12 // 'seal_return'\n 20194: a0 = 0\n 20196: ra = 0x106\n 20200: jump @10\n      : @276 [export #0: 'call'] (gas: 2)\n 20203: a0 = 0\n 20205: ra = 262, jump @10\n      : @277 [@dyn 131] [export #1: 'deploy'] (gas: 2)\n 20211: a0 = 0x1\n 20214: ra = 264, jump @10\n      : @278 [@dyn 132] (gas: 249)\n 20220: sp = sp + 0xffffffffffffff80\n 20223: u64 [sp + 0x78] = ra\n 20226: u64 [sp + 0x70] = s0\n 20229: u64 [sp + 0x68] = s1\n 20232: s0 = sp + 0x80\n 20236: sp = sp & 0xfffffffffffffff0\n 20239: t0 = u64 [a1]\n 20241: t1 = u64 [a1 + 0x8]\n 20244: t2 = u64 [a1 + 0x10]\n 20247: a1 = u64 [a1 + 0x18]\n 20250: a3 = u64 [a2]\n 20252: a4 = u64 [a2 + 0x8]\n 20255: a5 = u64 [a2 + 0x10]\n 20258: a2 = u64 [a2 + 0x18]\n 20261: s1 = a0\n 20263: u64 [sp + 0x18] = a2\n 20266: u64 [sp + 0x10] = a5\n 20269: u64 [sp + 0x8] = a4\n 20272: u64 [sp] = a3\n 20274: u64 [sp + 0x38] = a1\n 20277: u64 [sp + 0x30] = t2\n 20280: u64 [sp + 0x28] = t1\n 20283: a0 = sp + 0x40\n 20286: a1 = sp + 0x20\n 20289: a2 = sp\n 20291: u64 [sp + 0x20] = t0\n 20294: ra = 0x10a\n 20298: sp = sp + 0xffffffffffffff40\n 20302: u64 [sp + 0xb8] = ra\n 20306: u64 [sp + 0xb0] = s0\n 20310: u64 [sp + 0xa8] = s1\n 20314: s0 = sp + 0xc0\n 20318: sp = sp & 0xffffffffffffffe0\n 20321: u64 [sp + 0x18] = a0\n 20324: a0 = u64 [a2 + 0x18]\n 20327: u64 [sp + 0x10] = a0\n 20330: a0 = u64 [a2 + 0x10]\n 20333: u64 [sp + 0x8] = a0\n 20336: s1 = u64 [a2 + 0x8]\n 20339: a0 = u64 [a2]\n 20341: u64 [sp] = a0\n 20343: a0 = u64 [a1 + 0x18]\n 20346: a2 = u64 [a1 + 0x10]\n 20349: a3 = u64 [a1 + 0x8]\n 20352: a1 = u64 [a1]\n 20354: u64 [sp + 0x78] = a0\n 20357: u64 [sp + 0x70] = a2\n 20360: u64 [sp + 0x68] = a3\n 20363: u64 [sp + 0x60] = a1\n 20366: u64 [sp + 152] = 0\n 20370: u64 [sp + 144] = 0\n 20374: u64 [sp + 136] = 0\n 20378: u64 [sp + 128] = 0\n 20382: u32 [sp + 160] = 0x20\n 20387: i32 a1 = sp + 0x60\n 20390: i32 a3 = sp + 0x80\n 20394: i32 a4 = sp + 0xa0\n 20398: a2 = 0xffffffffffffffff\n 20401: a0 = 0\n 20403: ecalli 6 // 'get_storage'\n 20405: a1 = u64 [sp + 0x80]\n 20409: a2 = u64 [sp + 0x88]\n 20413: t1 = u64 [sp]\n 20415: a0 = t1 >> 0x3d\n 20418: a3 = s1 << 0x3\n 20421: a3 = a3 | a0\n 20424: s1 = s1 >> 0x3d\n 20427: a4 = u64 [sp + 0x8]\n 20430: a0 = a4 << 0x3\n 20433: s1 = s1 | a0\n 20436: a0 = a4 >> 0x3d\n 20439: a4 = u64 [sp + 0x10]\n 20442: a4 = a4 << 0x3\n 20445: a4 = a4 | a0\n 20448: a0 = t1 << 0x3\n 20451: a5 = a3 >u 0\n 20453: a0 = a0 <u 0x100\n 20457: t0 = a0 ^ 0x1\n 20460: t0 = a5 if a3 != 0\n 20463: a3 = a4 >u 0\n 20465: a5 = s1 >u 0\n 20467: a5 = a3 if a4 != 0\n 20470: a3 = u64 [sp + 0x90]\n 20474: s1 = s1 | a4\n 20477: a4 = u64 [sp + 0x98]\n 20481: t0 = a5 if s1 != 0\n 20484: u8 [sp + 95] = 0\n 20487: u8 [sp + 94] = 0\n 20490: u8 [sp + 93] = 0\n 20493: u8 [sp + 92] = 0\n 20496: u8 [sp + 91] = 0\n 20499: u8 [sp + 90] = 0\n 20502: u8 [sp + 89] = 0\n 20505: u8 [sp + 88] = 0\n 20508: u8 [sp + 87] = 0\n 20511: u8 [sp + 86] = 0\n 20514: u8 [sp + 85] = 0\n 20517: u8 [sp + 84] = 0\n 20520: u8 [sp + 83] = 0\n 20523: u8 [sp + 82] = 0\n 20526: u8 [sp + 81] = 0\n 20529: u8 [sp + 80] = 0\n 20532: u8 [sp + 79] = 0\n 20535: u8 [sp + 78] = 0\n 20538: u8 [sp + 77] = 0\n 20541: u8 [sp + 76] = 0\n 20544: u8 [sp + 75] = 0\n 20547: u8 [sp + 74] = 0\n 20550: u8 [sp + 73] = 0\n 20553: u8 [sp + 72] = 0\n 20556: u8 [sp + 71] = 0\n 20559: u8 [sp + 70] = 0\n 20562: u8 [sp + 69] = 0\n 20565: u8 [sp + 68] = 0\n 20568: u8 [sp + 67] = 0\n 20571: u8 [sp + 66] = 0\n 20574: u8 [sp + 65] = 0\n 20577: u8 [sp + 64] = 0\n 20580: u8 [sp + 0x38] = a4\n 20583: u8 [sp + 0x30] = a3\n 20586: u8 [sp + 0x28] = a2\n 20589: u8 [sp + 0x20] = a1\n 20592: a5 = a4 >> 0x38\n 20595: u8 [sp + 0x3f] = a5\n 20598: a5 = a4 >> 0x30\n 20601: u8 [sp + 0x3e] = a5\n 20604: a5 = a4 >> 0x28\n 20607: u8 [sp + 0x3d] = a5\n 20610: a5 = a4 >> 0x20\n 20613: u8 [sp + 0x3c] = a5\n 20616: a5 = a4 >> 0x18\n 20619: u8 [sp + 0x3b] = a5\n 20622: a5 = a4 >> 0x10\n 20625: u8 [sp + 0x3a] = a5\n 20628: a4 = a4 >> 0x8\n 20631: u8 [sp + 0x39] = a4\n 20634: a4 = a3 >> 0x38\n 20637: u8 [sp + 0x37] = a4\n 20640: a4 = a3 >> 0x30\n 20643: u8 [sp + 0x36] = a4\n 20646: a4 = a3 >> 0x28\n 20649: u8 [sp + 0x35] = a4\n 20652: a4 = a3 >> 0x20\n 20655: u8 [sp + 0x34] = a4\n 20658: a4 = a3 >> 0x18\n 20661: u8 [sp + 0x33] = a4\n 20664: a4 = a3 >> 0x10\n 20667: u8 [sp + 0x32] = a4\n 20670: a3 = a3 >> 0x8\n 20673: u8 [sp + 0x31] = a3\n 20676: a3 = a2 >> 0x38\n 20679: u8 [sp + 0x2f] = a3\n 20682: a3 = a2 >> 0x30\n 20685: u8 [sp + 0x2e] = a3\n 20688: a3 = a2 >> 0x28\n 20691: u8 [sp + 0x2d] = a3\n 20694: a3 = a2 >> 0x20\n 20697: u8 [sp + 0x2c] = a3\n 20700: a3 = a2 >> 0x18\n 20703: u8 [sp + 0x2b] = a3\n 20706: a3 = a2 >> 0x10\n 20709: u8 [sp + 0x2a] = a3\n 20712: a2 = a2 >> 0x8\n 20715: u8 [sp + 0x29] = a2\n 20718: a2 = a1 >> 0x38\n 20721: u8 [sp + 0x27] = a2\n 20724: a2 = a1 >> 0x30\n 20727: u8 [sp + 0x26] = a2\n 20730: a2 = a1 >> 0x28\n 20733: u8 [sp + 0x25] = a2\n 20736: a2 = a1 >> 0x20\n 20739: u8 [sp + 0x24] = a2\n 20742: a2 = a1 >> 0x18\n 20745: u8 [sp + 0x23] = a2\n 20748: a2 = a1 >> 0x10\n 20751: u8 [sp + 0x22] = a2\n 20754: a1 = a1 >> 0x8\n 20757: u8 [sp + 0x21] = a1\n 20760: a1 = t1 & 0x1f\n 20763: a2 = sp + 0x20\n 20766: a1 = a1 | a2\n 20769: a2 = u8 [a1 + 0x9]\n 20772: a3 = u8 [a1 + 0x8]\n 20775: a4 = u8 [a1 + 0xa]\n 20778: a5 = u8 [a1 + 0xb]\n 20781: a2 = a2 << 0x8\n 20784: a2 = a2 | a3\n 20787: a4 = a4 << 0x10\n 20790: a5 = a5 << 0x18\n 20793: a4 = a4 | a5\n 20796: a2 = a2 | a4\n 20799: a3 = u8 [a1 + 0xd]\n 20802: a4 = u8 [a1 + 0xc]\n 20805: a5 = u8 [a1 + 0xe]\n 20808: s1 = u8 [a1 + 0xf]\n 20811: a3 = a3 << 0x8\n 20814: a3 = a3 | a4\n 20817: a5 = a5 << 0x10\n 20820: s1 = s1 << 0x18\n 20823: a5 = a5 | s1\n 20826: a3 = a3 | a5\n 20829: a3 = a3 << 0x20\n 20832: a2 = a2 | a3\n 20835: a3 = u8 [a1 + 0x1]\n 20838: a4 = u8 [a1]\n 20840: a5 = u8 [a1 + 0x2]\n 20843: s1 = u8 [a1 + 0x3]\n 20846: a3 = a3 << 0x8\n 20849: a3 = a3 | a4\n 20852: a5 = a5 << 0x10\n 20855: s1 = s1 << 0x18\n 20858: a5 = a5 | s1\n 20861: a3 = a3 | a5\n 20864: a4 = u8 [a1 + 0x5]\n 20867: a5 = u8 [a1 + 0x4]\n 20870: s1 = u8 [a1 + 0x6]\n 20873: a0 = u8 [a1 + 0x7]\n 20876: a4 = a4 << 0x8\n 20879: a4 = a4 | a5\n 20882: s1 = s1 << 0x10\n 20885: a0 = a0 << 0x18\n 20888: a0 = a0 | s1\n 20891: a0 = a0 | a4\n 20894: a0 = a0 << 0x20\n 20897: a3 = a3 | a0\n 20900: a0 = u8 [a1 + 0x11]\n 20903: a4 = u8 [a1 + 0x10]\n 20906: a5 = u8 [a1 + 0x12]\n 20909: a1 = u8 [a1 + 0x13]\n 20912: a0 = a0 << 0x8\n 20915: a0 = a0 | a4\n 20918: a5 = a5 << 0x10\n 20921: a1 = a1 << 0x18\n 20924: a1 = a1 | a5\n 20927: a0 = a0 | a1\n 20930: a3 = 0 if t0 != 0\n 20932: a2 = 0 if t0 != 0\n 20934: a0 = 0 if t0 != 0\n 20936: a1 = u64 [sp + 0x18]\n 20939: u64 [a1 + 0x10] = a0\n 20942: u64 [a1 + 0x8] = a2\n 20945: u64 [a1] = a3\n 20947: u64 [a1 + 24] = 0\n 20950: sp = s0 + 0xffffffffffffff40\n 20954: ra = u64 [sp + 0xb8]\n 20958: s0 = u64 [sp + 0xb0]\n 20962: s1 = u64 [sp + 0xa8]\n 20966: sp = sp + 0xc0\n 20970: ret\n      : @279 [@dyn 133] (gas: 14)\n 20972: a0 = u64 [sp + 0x50]\n 20975: a1 = u64 [sp + 0x58]\n 20978: a2 = u64 [sp + 0x40]\n 20981: a3 = u64 [sp + 0x48]\n 20984: u64 [s1 + 0x10] = a0\n 20987: u64 [s1 + 0x18] = a1\n 20990: u64 [s1] = a2\n 20992: u64 [s1 + 0x8] = a3\n 20995: sp = s0 + 0xffffffffffffff80\n 20998: ra = u64 [sp + 0x78]\n 21001: s0 = u64 [sp + 0x70]\n 21004: s1 = u64 [sp + 0x68]\n 21007: sp = sp + 0x80\n 21011: ret\n",
				"bytecode": {
					"object": "50564d0000a45e000000000000010700c11000c0004004810910000000000400000012000000200000002e000000340000003d0000004800000057000000620000006f0000007f0000008f0000009a000000ac000000b700000063616c6c63616c6c5f646174615f636f707963616c6c5f646174615f6c6f616463616c6c5f646174615f73697a6563616c6c6572636f64655f73697a656765745f73746f72616765686173685f6b656363616b5f323536696e7374616e74696174657265665f74696d655f6c65667472657475726e5f646174615f636f707972657475726e5f646174615f73697a657365616c5f72657475726e7365745f696d6d757461626c655f646174617365745f73746f7261676576616c75655f7472616e73666572726564051302c0eb4e0463616c6cc0f34e066465706c6f7906c0685d808502c0155265004d0152016f010302340349036d03790393035804a904e604f904fe04310536054b05da07e707c8089909470a5f0a690a770a2e0dda0d440e370f031210125a125a13e8130a143b15511521162e1675168216c716f81710181c1862186d189e19b619c2190f1b1c1b221c2d1c5e1d761d821d531e841fa41f50205d206d217b2193214622b1221e2725281629142a022b342cb62d792e843011312731343164317b3186319531b3310733343342331f343c3a5a3a653a743a973ada3b753c653d0d3e783e4a3f673f883fa13fac3fbb3f154083411642a3425443624395434044ab448a453546a0460547ee473f49db49e24af24a784b584ca04d4b4eb64ebe4ed74ef34efc4eec518b791052093b3309010001ae9833c8780883881f8488e0553801000128390a000002ae8a123d080000023308100002c8870732003308100002c88707320000009511d87b10207b15187b161082897b19088289087b1982851082861883773308205010029f6f686f59821a6faa821b086fbb787b18787a10787908787898bc38787c1f98bc30787c1e98bc28787c1d98bc20787c1c98bc18787c1b98bc10787c1a98bb08787b1998ab38787b1798ab30787b1698ab28787b1598ab20787b1498ab18787b1398ab10787b1298aa08787a11989a38787a0f989a30787a0e989a28787a0d989a20787a0c989a18787a0b989a10787a0a98990878790998893878790798893078790698892878790598892078790498891878790398891078790298880878780182102082151882161095112832009511f07b10087b158475010a03013d07040002510507501004095010062c029511c07b10387b15307b16289515408411e033074033082050100896fe46171f800046171e46171d46171c46171b46171a46171946171846171746171646171546171446171346171246171146171046170f46170e46170d46170c46170b46170a4617094617084617074617064617054617044617034617024617014607491118490149110849111083170a0f01821710821818821908821ad49808d4a707d487075207370133074033082050100a02fe7c78117c79107c7a127c7b13978808d4980897aa1097bb18d4ba0ad4a8087c79157c7a147c7b167c7c17979908d4a90997bb1097cc18d4cb0bd4b909979920d489027c79017c7a7c7b027c7c03979908d4a90997bb1097cc18d4cb0bd4b9097c7a057c7b047c7c067c760797aa08d4ba0a97cc10976618d46c0cd4ca0a97aa20d4a9097c7a197c7b187c7c1a7c761b97aa08d4ba0a97cc10976618d46c0cd4ca0a7c7b1d7c7c1c7c761e7c781f97bb08d4cb0b976610978818d46808d4b808978820d48a0a7c78097c7b087c7c0a7c760b978808d4b80897cc10976618d46c0cd4c8087c7b0d7c7c0c7c760e7c770f97bb08d4cb0b976610977718d46707d4b707977720d487076f776fa66f986f29d49808d47609d48909989920d48707977720d49707510717003307330850100cd1fc837833070133090a0c0183666467330850100ebcfc8377330833090a0101390808000251080d330710000383770a0d016467330850101098fc8378330733093300120a0c019511c07b10387b15309515408411e033074033082050101472fc46171f800046171e46171d46171c46171b46171a46171946171846171746171646171546171446171346171246171146171046170f46170e46170d46170c46170b46170a46170946170846170746170346170246170146073908040002461706461705461704531804ed00831733080a020181171c5a4796698e32505a47a380b913675147cafdd5986f52479beae9a4c9003300169511c0fc7b1038037b1530037b162803951540038411e04921f8024921f0024921e8024921e0028317e0020a0f28ad2833080010f55c5a47f710f55c4b514797698e32940051470bd6cf3c1828725147a480b91388005247efae9819683300189511c07b10387b15309515408411e0491118491110491108490183170a0f28f4118388f800aa8784005247a11542753533001a951160ff7b1098007b1590007b1688009515a0008411e04911384911304911284911208317200a0f28021933001c9511f87b10330733083300dc00280afb50101e23133300209511c0fe7b1038017b1530017b162801951540018411e049211801492110014921080149210001831700010a0f28d80d501022eb159511f07b10087b156475330740330820501024bafa7c78017c797c7a027c7b03978808d4980897aa1097bb18d4ba0ad4a8087c79057c7a047c7b067c7c07979908d4a90997bb1097cc18d4cb0bd4b909979920d489027c79097c7a087c7b0a7c7c0b979908d4a90997bb1097cc18d4cb0bd4b9097c7a0d7c7b0c7c7c0e7c780f97aa08d4ba0a97cc10978818d4c808d4a808978820d498037c78117c7a107c7b127c7c13978808d4a80897bb1097cc18d4cb0bd4b8087c7a157c7b147c7c167c791797aa08d4ba0a97cc10979918d4c909d4a909979920d4890a7c78197c79187c7b1a7c7c1b978808d4980897bb1097cc18d4cb0bd4b8087c791d7c7b1c7c7c1e7c771f979908d4b90997cc10977718d4c707d49707977720d487076f776fa86f396f2a7b5a187b59107b58087b57821008821595111032009511807b10787b15707b1668951580008411e0828010828c08829a088283829b7b1b28829410d3ca02d8ca06d83b0b7b1b20da2b068282188298187b1818c90409c969087b1830d86908d8040b7b1238821918c92909c9b909c98909c9ca08821a20c9a808821a28c93a0a8e8b88aa4085aa01db8b0a8f968218308e8bdb960bd49808db8b0a510adc006476d403077b1c30821838d4c808d487079877207b1028d40808978820d487075207b7007b132083388317407b18080a0201821a50821b5814070000000001000000d37a08d4b80898a92088990194b99389510986007b1b107b1a18821828821938d498081407e0ffffff00000000821920d879078219309497948751075b8217487b17308217407b17388217088378208317400a02821758821850821948821a407b67387b68307b69287b6a208217107b67188217187b67108217307b67088217387b6795518082107882157082166895118000320000330733085010262bf8837833070133093300280a0c01828918828a10828b0882887b79187b7a107b7b087b7832009511e0fe7b1018017b1510017b160801951520018411e07b174082977b17488297087b17508297107b1758829618828b18828a1082890882877b1b187b1bb8007b1a207b1ab0007b19287b19a8007b17307b17a0004921f8004921f0004921e8004921e0004821c000208318a000831ae000831bc0003309ff33070a06018217f8008212e0008219f000821ae800d3670b7b1638d87608821758d8970cdbb80c821850d38a03d8a80a821848d82808db3a08d39707d4b707db7c0851086801330820330750102a3df78218186f888219206f99821a286faa821b306fbb98bc38787c1f98bc30787c1e98bc28787c1d98bc20787c1c98bc18787c1b98bc10787c1a98bc08787c19787b18787a1098ab38787b1798ab30787b1698ab28787b1598ab20787b1498ab18787b1398ab10787b1298aa08787a11787908989a38787a0f989a30787a0e989a28787a0d989a20787a0c989a18787a0b989a10787a0a9899087879097878988938787907988930787906988928787905988920787904988918787903988910787902988808787801330820330750102c6cf683778319e0003308200a078217e0008218e8008219f800821af0006f726f886f996faa821b50c8ab0b821c48c89c0cd89c09c89b0bd3ab06d8ab0ada690a821958c88909c89a0ad89a06821738c82707d88908c88707c867078218404918384918304918284918207b8c7b8b087b8a107b87189551e0fe821018018215100182160801951120013200492190004921880049218000140700000000717b484e951880007b179800330750102efef549117849117049116032330704951860491168501030e6f533082433075010329cf583783307013309243300340a0c019511a07b10587b15507b16487b1782828293829708829a10828b188285108299188288088eb48e56dbb4068e80882c000185c401db8004d45b0bdbb60446114746114646114546114446114346114246114146114046113f46113e46113d46113c46113b46113a46113946113846113746113646113546113446113346113246113146113046112f46112e46112d46112c46112b46112a461129461128781920781a1878171078130898983878182798983078182698982878182598982078182498981878182398981078182298990878192198a83878181f98a83078181e98a82878181d98a82078181c98a81878181b98a81078181a98aa08781a1998783878181798783078181698782878181598782078181498781878181398781078181298770878171198373878170f98373078170e98372878170d98372078170c98371878170b98371078170a98370878170997273898773b951908c879097c97117c98107c9a127c9b13977708d4870797aa1097bb18d4ba0ad4a7077c98157c9a147c9b167c9c17978808d4a80897bb1097cc18d4cb0bd4b808978820d47800842a07d0a0087c97197c9b187c961a7c951b977708d4b707976610975518d46505d457077c9b1d7c961c7c951e7c9c1f97bb08d46b0b97551097cc18d45c0cd4cb0b97bb20d47b0297270185a33fcf370bd48b0b7c97097c98087c9c0a7c950b977708d4870797cc10975518d45c0cd4c7077c980d7c9c0c7c950e7c960f978808d4c808975510976618d46505d45808978820d47808d0a80797000185acffcfc00cd4c7007c97017c957c96027c9c03977708d4570797661097cc18d46c0cd4c7077c9c057c95047c96067c990797cc08d45c0c976610979918d46909d4c909979920d49707d0a707978801cf3808d48707d0a20894479440944b944882197b98187b9b107b90087b9782105882155082164895116032006f688219286f99821a506faa98ab38787b1f98ab30787b1e98ab28787b1d98ab20787b1c98ab18787b1b98ab10787b1a98ab08787b19787a18989a38787a17989a30787a16989a28787a15989a20787a14989a18787a13989a10787a12989a08787a1178791098893878790f98893078790e98892878790d98892078790c46170b46170a46170978780846170746170646170546170446170346170246170146073307203308205010382bf246171f0146171e46171d46171c46171b46171a46171946171846171746171646171546171446171346171246171146171046170f46170e46170d46170c46170b46170a4617094617084617074617064617054617044617034617024617014607330840330750103ac1f18377831940013308400a07821758018218500182194801821a40016f7c6f8b6f986fa77b17287b1738017b18207b1830017b1b187b1b28017b1c107b1c200149215801492150014921480149214001482160012083182001831a4001831b60013309ff33070a0601821340821438821230821758018218400182165001821a4801d3270bd87207821948d8690cdbb70cd34a07d8a40ad88308db7a08d39607d4b707db7c08510813031407ffffffff000000007b17507b13a0008217107b17c0007b14a8008217187b17c8007b19b0008217207b17d0007b12b8009517e0009518c0009519a000821a287b1ad80050103ccdf8821718017b1748821710017b174082160801821700017b17388217f8008218f0008219e800821ae0007b1738017b1830017b1928017b1a200149215801492150014921480149214001482160012083182001831a4001831b60013309ff33070a06821840018219480182123898273d976a03d47a0a98663d821b4097b703d4760698b73d821b4897bb03d47b0b9727038eac88770001857701dbac078eba8e6cdbba0c821a5001d4b606821b5801db6c0746219f0046219e0046219d0046219c0046219b0046219a004621990046219800462197004621960046219500462194004621930046219200462191004621900046218f0046218e0046218d0046218c0046218b0046218a0046218900462188004621870046218600462185004621840046218300462182004621810046218000781b78781a7078196878186098bc38781c7f98bc30781c7e98bc28781c7d98bc20781c7c98bc18781c7b98bc10781c7a98bb08781b7998ab38781b7798ab30781b7698ab28781b7598ab20781b7498ab18781b7398ab10781b7298aa08781a71989a38781a6f989a30781a6e989a28781a6d989a20781a6c989a18781a6b989a10781a6a98990878196998893878196798893078196698892878196598892078196498891878196398891078196298880878186184281f951960c898087c89017c8a7c8b027c8c03979908d4a90997bb1097cc18d4cb0bd4b9097c8a057c8b047c8c067c860797aa08d4ba0a97cc10976618d46c0cd4ca0a97aa20d49a027c8a097c8b087c8c0a7c860b97aa08d4ba0a97cc10976618d46c0cd4ca0a7c8b0d7c8c0c7c860e7c890f97bb08d4cb0b976610979918d46909d4b909979920d4a9097c8a117c8b107c8c127c881397aa08d4ba0a97cc10978818d4c808d4a8088499ff842aff821b50d2b808947a947994788217587b78107b79087b7a491718955180fe821078018215700182166801951180013200330750103e02ee837833070133093300400a0c01828910828a18828b088288d4ba0ad4980bd4ab0b98bb20d4a909979920d4b9095209d5009511e07b10187b15107b1608827910827a087b1a82769799209895208387330820501042abed6f5882196f996f6a98ab38787b1f98ab30787b1e98ab28787b1d98ab20787b1c98ab18787b1b98ab10787b1a98ab08787b19787a1878791046170b46170a4617094617074617064617054617044617034617024617014607989a38787a17989a30787a16989a28787a15989a20787a14989a18787a13989a10787a1298990878791178780898893878790f98893078790e98892878790d98882078780c821018821510821608951120320000821710018218180182190801821a0001d49808d4a707d487075207130238070400024921980049219000492188007b1780004921b8004921b0004921a000049517c0009518a000951980004921a8005010441af38212c0008217c8008218d0008219d800821be000821ce8008216f000821af8007b1a387b16307b1c287b1b207b19587b18507b17489517609518409519207b1240330046951180fe7b1078017b1570017b166801951580018411e0829a7b1a40829a087b1a38829a107b1a488299187b193082897b19508289087b19288086107b17583308203307330036281bec8217787b178217707b17088217687b17108217607b1718330740330820501048fbeb7c78117c79107c7a127c7b13978808d4980897aa1097bb18d4ba0ad4a8087c79157c7a147c7b167c7c17979908d4a90997bb1097cc18d4cb0bd4b909979920d489027c79017c7a7c7b027c7c03979908d4a90997bb1097cc18d4cb0bd4b9097c7a057c7b047c7c067c760797aa08d4ba0a97cc10976618d46c0cd4ca0a97aa20d4a9097c7a197c7b187c7c1a7c761b97aa08d4ba0a97cc10976618d46c0cd4ca0a7c7b1d7c7c1c7c761e7c781f97bb08d4cb0b976610978818d46808d4b808978820d48a0a7c78097c7b087c7c0a7c760b978808d4b80897cc10976618d46c0cd4c8087c7b0d7c7c0c7c760e7c770f97bb08d4cb0b976610977718d46707d4b707977720d487076f786fa76f996f2ad4a909d4870ad49a0a98aa20d49808978820d4a808510817003307330850104acaea837833070133090a0c018376330820646750104cb4ea82186f888219086f99821a106faa821b186fbb98bc38787c1f98bc30787c1e98bc28787c1d98bc20787c1c98bc18787c1b98bc10787c1a98bc08787c19787b18787a1098ab38787b1798ab30787b1698ab28787b1598ab20787b1498ab18787b1398ab10787b1298aa08787a11787908989a38787a0f989a30787a0e989a28787a0d989a20787a0c989a18787a0b989a10787a0a9899087879097878988938787907988930787906988928787905988920787904988918787903988910787902988808787801330820646750104ee4e9837833092033073300500a0c01827218828318827b10827c088289088274828a828810d3c907d8c909d84a0adb790ac9b807d8a707d8b808c92309c98909c9790957090532009511f87b103307330850105290e9837833070133093300540a0c01828918828a10828b0882887b79187b7a107b7b087b783200821710821818821908821ad49808d4a707d4870752074101390704000254170338013307403308205010563ee97c78117c79107c7a127c7b13978808d4980897aa1097bb18d4ba0ad4a8087c79157c7a147c7b167c7c17979908d4a90997bb1097cc18d4cb0bd4b909979920d489027c79017c7a7c7b027c7c03979908d4a90997bb1097cc18d4cb0bd4b9097c7a057c7b047c7c067c780797aa08d4ba0a97cc10978818d4c808d4a808978820d498037c78197c7a187c7b1a7c7c1b978808d4a80897bb1097cc18d4cb0bd4b8087c7a1d7c7b1c7c7c1e7c791f97aa08d4ba0a97cc10979918d4c909d4a909979920d4890a7c78097c79087c7b0a7c7c0b978808d4980897bb1097cc18d4cb0bd4b8087c790d7c7b0c7c7c0e7c770f979908d4b90997cc10977718d4c707d49707977720d487076f786fa76f396f2ad4a909d4870ad49a0a98aa20d49808978820d4a80851081e00330733085010580de8837833070133090a0c837733005a28fae7837750105af5e783783307330933005c0a0c019511c07b10387b15309515408411e0491118491110491108490183170a0f01821710821818821908821ad49808d4a707d487075207460139070400025417033d0150105e172233074033082050106098e77c78117c79107c7a127c7b13978808d4980897aa1097bb18d4ba0ad4a8087c79157c7a147c7b167c7c17979908d4a90997bb1097cc18d4cb0bd4b909979920d489027c79017c7a7c7b027c7c03979908d4a90997bb1097cc18d4cb0bd4b9097c7a057c7b047c7c067c780797aa08d4ba0a97cc10978818d4c808d4a808978820d498037c78197c7a187c7b1a7c7c1b978808d4a80897bb1097cc18d4cb0bd4b8087c7a1d7c7b1c7c7c1e7c791f97aa08d4ba0a97cc10979918d4c909d4a909979920d4890a7c78097c79087c7b0a7c7c0b978808d4980897bb1097cc18d4cb0bd4b8087c790d7c7b0c7c7c0e7c770f979908d4b90997cc10977718d4c707d49707977720d487076f786fa76f396f2ad4a909d4870ad49a0a98aa20d49808978820d4a80851081e003307330850106267e6837833070133090a0c83773300642854e683775010644fe68378330733093300660a0c019511807b10787b15707b1668951580008411e0828010828c08829a088283829b7b1b28829410d3ca02d8ca06d83b0b7b1b20da2b068282188298187b1818c90409c969087b1830d86908d8040b7b1238821918c92909c9b909c98909c9ca08821a20c9a808821a28c93a0a8e8b88aa4085aa01db8b0a8f968218308e8bdb960bd49808db8b0a510abe006476d403077b1c30821838d4c808d487079877207b1028d40808978820d487075207990083388317407b18187b13200a0201821728821838d487071408e0ffffff00000000821920d88908821930949894785108678217587b17208217507b17288217487b17308217407b17388217188378208317400a02821758821850821948821a407b67387b68307b69287b6a208217207b67188217287b67108217307b67088217387b679551808210788215708216689511800032000033073308501068f6e48378330701330933006a0a0c01951160ff7b1098007b1590007b1688009515a0008411e039070400025417431d028317603308040a028217607b17188217687b17108217707b17088216788317603308240a02821760821868821970821a787b1a387b19307b18287b17207b16588217087b17508217107b17489517409518208219187b194033006c951160fd7b1098027b1590027b1688029515a0028411e064168289187b69488289107b69508289087b695882887b686082787b6898008278087b6890008278107b6888008277187b678000836760010a048267680181687001826a60017b6a706f779779206f88988820d498087b68789877206fa8978820d487077b676833082033073300e00028e1e333074033082050106ed8e37c78117c79107c7a127c7b13978808d4980897aa1097bb18d4ba0ad4a8087c79157c7a147c7b167c7c17979908d4a90997bb1097cc18d4cb0bd4b909979920d489027c79017c7a7c7b027c7c03979908d4a90997bb1097cc18d4cb0bd4b9097c7a057c7b047c7c067c760797aa08d4ba0a97cc10976618d46c0cd4ca0a97aa20d4a9097c7a197c7b187c7c1a7c761b97aa08d4ba0a97cc10976618d46c0cd4ca0a7c7b1d7c7c1c7c761e7c781f97bb08d4cb0b976610978818d46808d4b808978820d48a0a7c78097c7b087c7c0a7c760b978808d4b80897cc10976618d46c0cd4c8087c7b0d7c7c0c7c760e7c770f97bb08d4cb0b976610977718d46707d4b707977720d487076f786fa76f996f2ad4a909d4870ad49a0a98aa20d49808978820d4a80851081e0033073308501070a7e2837833070133090a0c83773300722894e283775010728fe28378330733093300740a0c019511a07b10587b15507b16489515608411e064764911184911104911084901491138491130491128491120481140208318831a20831b403309ff33070a068017308218288219204916187b67107b68087b699551a08210588215508216489511603200821730821838821928821a20d49808d4a707d4870752078101390704000254170378014911584911504911484911404911784911704911684911604821800020831840831a60831b80003309ff33070a068217707b17088217687b17108217607b1718330740330820501076b2e17c78117c79107c7a127c7b13978808d4980897aa1097bb18d4ba0ad4a8087c79157c7a147c7b167c7c17979908d4a90997bb1097cc18d4cb0bd4b909979920d489027c79017c7a7c7b027c7c03979908d4a90997bb1097cc18d4cb0bd4b9097c7a057c7b047c7c067c760797aa08d4ba0a97cc10976618d46c0cd4ca0a97aa20d4a9097c7a197c7b187c7c1a7c761b97aa08d4ba0a97cc10976618d46c0cd4ca0a7c7b1d7c7c1c7c761e7c781f97bb08d4cb0b976610978818d46808d4b808978820d48a0a7c78097c7b087c7c0a7c760b978808d4b80897cc10976618d46c0cd4c8087c7b0d7c7c0c7c760e7c770f97bb08d4cb0b976610977718d46707d4b707977720d487076f786fa76f996f2ad4a909d4870ad49a0a98aa20d49808978820d4a808510817003307330850107881e0837833070133090a0c0182180897882098862083777b170833082050107a61e06f688219106f99821a186faa98ab38787b1f98ab30787b1e98ab28787b1d98ab20787b1c98ab18787b1b98ab10787b1a98ab08787b19787a1878791046170b46170a4617094617074617064617054617044617034617024617014607989a38787a17989a30787a16989a28787a15989a20787a14989a18787a13989a10787a1298990878791178780898893878790f98893078790e98892878790d98882078780c33082082170850107cb5df8378330920330733007e0a0c019511807b10787b15707b1668951580008411e0828410828c0882920882867b1610829b7b1b18829010d3c20a7b1a38d8c20ad86b0b821338da3b0a64b38288187b18388298187b1820c94008c9a8097b1928d8a8097b1430d8400a821838821b20c98b08c9a808c99804c9c206c93609821210821818c9280a8e9b88aa2085aa01db9b0a8f498218288e8bdb490bd44808db8b0a510a726476821930d49207821838d4c808d48707987720d49808978820d4870752075183288317400a020182175082185814090000000001000000d37909d48909987a2088aa01948a939a510a27821948821a407b69087b6a7b67107b681895518082107882157082166895118000320000330733085020800099de83783307013309330082000a0c01828918828a10828b0882887b79187b7a107b7b087b7832008218a8006f888219b0006f99821ab8006faa98ab38787b1f98ab30787b1e98ab28787b1d98ab20787b1c98ab18787b1b98ab10787b1a98ab08787b19787a18989a38787a17989a30787a16989a28787a15989a20787a14989a18787a13989a10787a12989a08787a1178791098893878790f98893078790e98892878790d98892078790c46170b46170a461709787808461707461706461705461704461703461702461701460733072033082050208600c0dd46171f0246171e46171d46171c46171b46171a46171946171846171746171646171546171446171346171246171146171046170f46170e46170d46170c46170b46170a461709461708461707461706461705461704461703461702461701460733084033075020880055dd83778319e0003308400a078217f8008218f0008219e800821ae0006f7b7b1ba8006f887b18b0006f997b19a0006fa77b17b8007b17d8007b19d0007b18c8007b1bc0004921f8004921f0004921e8004921e00048210001208318c000831ae000831b00013309ff33070a068217a8009577018878018219b000c89808d48709889901821aa000c8a909d8a90a821bb800c8ba0a7b1ad800821ae0007b1a98007b19d0008219e8007b1990007b18c8008218f0007b1888007b17c0008217f8007b1780004921f8004921f0004921e8004921e00048210001208318c000831ae000831b00013309ff33070a068218a800958702d88708821ab000c88a09d8a90ada880a8218a000c88a0ad88a08821bb800c8b8087b18d8008218e0007b18787b1ad0008218e8007b18707b19c8008218f0007b18687b17c0008217f8007b17604921f8004921f0004921e8004921e00048210001208318c000831ae000831b00013309ff33070a068218a800958703d88708821ab000c88a09d8a90ada880a8218a000c88a0ad88a08821bb800c8b8087b18d8008218e0007b18587b1ad0008218e8007b18507b19c8008218f0007b18487b17c0008217f8007b17404921f8004921f0004921e8004921e00048210001208318c000831ae000831b00013309ff33070a068218a800958704d88708821ab000c88a09d8a90ada880a8218a000c88a0ad88a08821bb800c8b8087b18d8008218e0007b18387b1ad0008218e8007b18307b19c8008218f0007b18287b17c0008217f8007b17204921f8004921f0004921e8004921e00048210001208318c000831ae000831b00013309ff33070a068217e0007b17188217e8007b17108217f0007b17088217f8007b178218a800958705d88708821ab000c88a09d8a90ada880a8218a000c88a0ad88a08821bb800c8b8087b18d8007b1ad0007b19c8007b17c0004921f8004921f0004921e8004921e00048210001208318c000831ae000831b00013309ff33070a068017f0008218e8008219e0007b67b0007b68a8007b69a00082177b6798008217087b6790008217107b6788008217187b6780008217207b67788217287b67708217307b67688217387b67608217407b67588217487b67508217507b67488217587b67408217607b67388217687b67308217707b67288217787b6720821780007b6718821788007b6710821790007b6708821798007b674926b8009551e0fe821018018215100182160801951120013200951110ff7b10e8007b15e0007b16d80082861082831882820882857b12c8007b13b800d432087b15d000d46505d485059855207b16b000d46808978820d458087b1738520883068217f8008218f0008276107b168276087b160882777b17108287187b17188287107b17208287087b172882877b173082c7187b174082c7107b174882c7087b175082c77b175882b7187b176082b7107b176882b7087b177082b77b177882a7187b17800082a7107b17880082a7087b17900082a77b1798008295188296108297087b17a00082977b17a8008117d0003308207b17c00050208a00e8d86f586f69821aa0006faa821ba8006fbb98bc38787c1f98bc30787c1e98bc28787c1d98bc20787c1c98bc18787c1b98bc10787c1a98bc08787c19787b18787a1098ab38787b1798ab30787b1698ab28787b1598ab20787b1498ab18787b1398ab10787b1298aa08787a11787908989a38787a0f989a30787a0e989a28787a0d989a20787a0c989a18787a0b989a10787a0a98990878790978789889387879079889307879069889287879059889207879049889187879039889107879029888088219b000821bb800d49b0b140500000000010000001409e0ffffff00000000821ad000d89a09821ac80094a994b97878015109f20464b68217c00083772033082050208c00e1d7821880006f88821988006f99821a90006faa821b98006fbb98bc38787c1f98bc30787c1e98bc28787c1d98bc20787c1c98bc18787c1b98bc10787c1a98bc08787c19787b18787a1098ab38787b1798ab30787b1698ab28787b1598ab20787b1498ab18787b1398ab10787b1298aa08787a11787908989a38787a0f989a30787a0e989a28787a0d989a20787a0c989a18787a0b989a10787a0a98990878790978789889387879079889307879069889287879059889207879049889187879039889107879029888089559c0821ad000d89a09821ac80094a994697878015109ff038217c00083774033082050208e00f0d68218606f888219686f99821a706faa821b786fbb98bc38787c1f98bc30787c1e98bc28787c1d98bc20787c1c98bc18787c1b98bc10787c1a98bc08787c19787b18787a1098ab38787b1798ab30787b1698ab28787b1598ab20787b1498ab18787b1398ab10787b1298aa08787a11787908989a38787a0f989a30787a0e989a28787a0d989a20787a0c989a18787a0b989a10787a0a9899087879097878988938787907988930787906988928787905988920787904988918787903988910787902988808140500000000010000001409a0ffffff00000000821ad000d89a09821ac80094a99469787801510901038217c00083776033082050209000f2d58218406f888219486f99821a506faa821b586fbb98bc38787c1f98bc30787c1e98bc28787c1d98bc20787c1c98bc18787c1b98bc10787c1a98bc08787c19787b18787a1098ab38787b1798ab30787b1698ab28787b1598ab20787b1498ab18787b1398ab10787b1298aa08787a11787908989a38787a0f989a30787a0e989a28787a0d989a20787a0c989a18787a0b989a10787a0a9899087879097878988938787907988930787906988928787905988920787904988918787903988910787902988808955980821ad000d89a09821ac80094a99469787801510914028217c000837780003308205020920004d58218186f888219206f99821a286faa821b306fbb98bc38787c1f98bc30787c1e98bc28787c1d98bc20787c1c98bc18787c1b98bc10787c1a98bc08787c19787b18787a1098ab38787b1798ab30787b1698ab28787b1598ab20787b1498ab18787b1398ab10787b1298aa08787a11787908989a38787a0f989a30787a0e989a28787a0d989a20787a0c989a18787a0b989a10787a0a9899087879097878988938787907988930787906988928787905988920787904988918787903988910787902988808140960ffffff00000000821ad000d89a09821ac80094a9946978780151091f018217d0009578c0007b18a800d878078218c800c878097b19d000d88905da77058217b000c87505d875078218b800c887077b17c80082179777209876208217c0008377a00033082050209400d2d36f688219086f99821a106faa98ab38787b1f98ab30787b1e98ab28787b1d98ab20787b1c98ab18787b1b98ab10787b1a98ab08787b19787a1878791046170b46170a4617094617074617064617054617044617034617024617014607989a38787a17989a30787a16989a28787a15989a20787a14989a18787a13989a10787a1298990878791178780898893878790f98893078790e98892878790d98882078780c8217388218a8007b788218c8007b78188218d0007b78087b75108210e8008215e0008216d8009511f0003200008217f0028218f8028219e802821ae002d49808d4a707d487075207ec033907040002541723e303831700033308040a0201821710038219180314080000000001000000d37808d49808987a2088aa01949a938a510ab20382180803821a00037b1808027b1a00027b17100295172002951800027b191802330096009511e0fe7b1018017b1510017b160801951520018411e082897b19b8008289087b19b0008088107b18a8006476330820330733008400284dd2821720027b17f000821728027b17e800821730027b17e000821738027b17d800821740027b17d000821748027b17c800821750027b17c000821758027b17b800821760027b17b000821768027b17a800821770027b17a000821778027b179800821780027b179000821788027b178800821790027b178000821798027b17788217a0027b17708217a8027b17688217b0027b17608217b8027b17588217c0027b17508217c8027b17488217d0027b17408217d8027b1738330740330820502098008dd17c78017c797c7a027c7b03978808d4980897aa1097bb18d4ba0ad4a8087c79057c7a047c7b067c7c07979908d4a90997bb1097cc18d4cb0bd4b909979920d489027c79097c7a087c7b0a7c7c0b979908d4a90997bb1097cc18d4cb0bd4b9097c7a0d7c7b0c7c7c0e7c760f97aa08d4ba0a97cc10976618d46c0cd4ca0a97aa20d4a9097c7a117c7b107c7c127c761397aa08d4ba0a97cc10976618d46c0cd4ca0a7c7b157c7c147c76167c781797bb08d4cb0b976610978818d46808d4b808978820d48a0a7c78197c7b187c7c1a7c761b978808d4b80897cc10976618d46c0cd4c8087c7b1d7c7c1c7c761e7c771f97bb08d4cb0b976610977718d46707d4b707977720d487076f766faa7b1a286f987b18306f297b19f800951700017b1708951720017b178217387b1718018217407b1710018217487b1708018217507b1700018217587b1738018217607b1730018217687b1728018217707b1720018217787b175801821780007b175001821788007b174801821790007b174001821798007b1778018217a0007b1770018217a8007b1768018217b0007b1760018217b8007b1798018217c0007b1790018217c8007b1788018217d0007b1780018217d8007b17b8018217e0007b17b0018217e8007b17a8018217f0007b17a0017b19d8017b18d0017b1ac8019517e0019518c0019519a001951a8001951b6001951c40017b16c00150209a00bdf5821b2864698217f800d4b707821630d46908d47808988820d46707977720d487075207618217e8018218f8017b18f0008213e0018218f001d3b704d8b70cd89300da400cc9680ac9ca04d8ca02d8680a8218f800821cf000c98c0cc9ac0cc92c0cc9b707c90707c99306d4c707d44608d47808d44707988820977720d48707510718003307330850209c00f5ce837833070133090a0c0183978366646850209e00dfce8378330764693300a0000a0c019511b07b10487b15409515508411f0491130491128491120140700000000717b484e9518207b173833075020a200e2ce49111849111049014133070464184911085020a400cbce33082433075020a60080ce83783307013309243300a8000a0c019511c07b10387b15307b16289515408411e03307403308205020aa0053ce7c78117c79107c7a127c7b13978808d4980897aa1097bb18d4ba0ad4a8087c79157c7a147c7b167c7c17979908d4a90997bb1097cc18d4cb0bd4b909979920d489027c79017c7a7c7b027c7c03979908d4a90997bb1097cc18d4cb0bd4b9097c7a057c7b047c7c067c760797aa08d4ba0a97cc10976618d46c0cd4ca0a97aa20d4a9097c7a197c7b187c7c1a7c761b97aa08d4ba0a97cc10976618d46c0cd4ca0a7c7b1d7c7c1c7c761e7c781f97bb08d4cb0b976610978818d46808d4b808978820d48a0a7c78097c7b087c7c0a7c760b978808d4b80897cc10976618d46c0cd4c8087c7b0d7c7c0c7c760e7c770f97bb08d4cb0b976610977718d46707d4b707977720d487076f766fa77b17086f977b17186f277b17100a0b01821a08821818821910d49808d46a09d48909989920d46808978820d4980852083a647698772052073283a783687b18187b17105020ac00ffcc7a1620837783182033090a0a01811720821818ac870c0a0b0198782051080400837682171064685020ae00d2cc837833070164693300b0000a0c01828918828a10828b0882887b79187b7a107b7b087b783200821b1802821a100282190802d4ba0788980194785108a806821700027b1758957701887801c898087b170002d487077b180802887701c8a7077b171002d8a707c8b7077b1718028217707b17e8018217787b17e0018217687b17f0018216607b16f8018318e0017b1a50831a00027b19483309ff7b1b40330b2033070a0e8217407b1758018217507b1750018217487b1748018217587b1740017b1678018217687b1770018217707b176801951780019518600195194001821a787b1a60015020b200e6d38217b8017b17588217b0017b17508216a8018217a0017b1720821a98017b1a60821990017b1968821888017b1870821780017b17787b1af8017b19f0017b18e8017b17e001492118024921100249210802492100024821c001208318e001831a0002831bc0013309ff33070a0682192098973d976803d48707979803888800018583018e78db780398663d821850978703d4670798883d821a5897aa03d4a8088e8a8e7bdb8a0bd48707db7b03821700027b1758821708027b1750821710027b1748821718027b174046213301ff0046212f01ff0046212e01ff0046212d01ff0046212b01ff0046212701ff0046212601ff0046212501ff0046212301ff001407ffffffff0000000078172c01781724011407ffffffffffff00007817320178172a017817220146213001ff46212801ff46212001ff1407ffffffffffffff0078173101781729017817210146213f0146213e0146213d0146213c0146213b0146213a0146213901462138014621370146213601462135014621340146211f0146211e0146211d0146211c0146211b0146211a014621190146211801462117014621160146211501462114014621130146211201462111014621100146210f0146210e0146210d0146210c0146210b0146210a0146210901462108014621070146210601462105014621040146210301462102014621010146210001849b1f951a2001c9ba0a7ca7197ca8187cac1a7ca61b977708d4870797cc10976618d46c0cd47c027ca81d7cac1c7ca61e7ca71f978808d4c808976610977718d46707d48707977720d427077b17207ca7117ca8107cac127ca613977708d4870797cc10976618d46c0cd47c027ca8157cac147ca6167ca717978808d4c808976610977718d46707d48707977720d427077b17187ca7097ca8087cac0a7ca60b977708d4870797cc10976618d46c0cd47c097ca80d7cac0c7ca60e7ca70f978808d4c808976610977718d46707d48707977720d497007ca7017ca87ca9027ca603977708d48707979910976618d46909d497077ca8057ca9047ca6067caa07978808d4980897661097aa18d46a0ad4a808978820d478048218289887387817e7009887307817e6009887287817e5009887207817e4009887187817e3009887107817e2007818e0009887087817e1008218309887387817ef009887307817ee009887287817ed009887207817ec009887187817eb009887107817ea007818e8009887087817e9008218389887187817f3009887107817f2007818f0009887087817f1009517e000c9b70b4621ff004621fe004621fd004621fc004621fb004621fa004621f9004621f8004621f7004621f6004621f5004621f4004621df004621de004621dd004621dc004621db004621da004621d9004621d8004621d7004621d6004621d5004621d4004621d3004621d2004621d1004621d0004621cf004621ce004621cd004621cc004621cb004621ca004621c9004621c8004621c7004621c6004621c5004621c4004621c3004621c2004621c1004621c0007cb7197cb8187cb91a7cb61b977708d48707979910976618d46909d4790a7cb81d7cb91c7cb61e7cb71f978808d49808976610977718d46707d48707977720d4a7067cb7117cb8107cb9127cba13977708d4870797991097aa18d4a909d4790c7cb8157cb9147cba167cb717978808d4980897aa10977718d4a707d48707977720d4c7027cb7097cb9087cba0a7cbc0b977708d4970797aa1097cc18d4ca0ad47a087cb90d7cba0c7cbc0e7cb70f979908d4a90997cc10977718d4c707d49707977720d487077cb8017cb97cba027cbc03978808d4980897aa1097cc18d4ca0ad4a8087cb9057cba047cbc067cbb07979908d4a90997cc1097bb18d4cb0bd4b909979920d4890b94349430821c18943c8219209439943b943794329436821840e09803d26909821848e0c80ad2c20c821850e00806d20707821858e04808d24b0bd4b808d46707d4ca0ad49309821b607b1bf801821b687b1bf001821b707b1be801821b787b1be0017b1918027b1a10027b1708027b1800028318e001831a00023309ff330b2033070a0e9551c0fd8210380282153002821628029511400232004921b0004921a8004921a000140700000000717b484e9518a0007b17b80033075020b4000ac64921980049219000492180004133070495188000492188005020b600ecc533082433075020b800a1c583783307013309243300ba000a0c01951180fe7b1078017b1570017b166801951580018411e03307403308205020bc006fc57c78097c79087c7a0a7c7b0b978808d4980897aa1097bb18d4ba0ad4a8087c790d7c7a0c7c7b0e7c7c0f979908d4a90997bb1097cc18d4cb0bd4b909979920d489027c79017c7a7c7b027c7c03979908d4a90997bb1097cc18d4cb0bd4b9097c7a057c7b047c7c067c760797aa08d4ba0a97cc10976618d46c0cd4ca0a97aa20d4a9097c7a197c7b187c7c1a7c761b97aa08d4ba0a97cc10976618d46c0cd4ca0a7c7b1d7c7c1c7c761e7c781f97bb08d4cb0b976610978818d46808d4b808978820d48a0a7c78117c7b107c7c127c7613978808d4b80897cc10976618d46c0cd4c8087c7b157c7c147c76167c771797bb08d4cb0b976610977718d46707d4b707977720d487076f776fa66f996f28d4980a886be0947b94ab510bb703d4860ad49707d47a0a98aa20d48707977720d4a70752079703836633082064675020be002cc446171f9f0046171e2646171dd10046171cfa0046171b0a46171ada00461719dc0046171846461717714617161246171534461714dd00461713cd00461712c800461711d600461710a60046170fc90046170e3e46170d6f46170c0646170bf50046170ada004617090f461708ed0046170787004617061d461705bd004617042b4617037446170222461701d20046077633082064675020c00091c34921d8004921d0004921c8004921c0004921f8004921f0004921e8004921e00049211801ff49211001ff49210801ff49210001ff9519c000979920989920951a000197aa20d4a909977720987720140a0000000020000000d47a0a9517e0009777201408ffffffff00000000d4870c3307ff3308ff330bff0a08018018f0008217e0008219e800d4870ad49a0a510a5f026f99979a206f88988820d4a8087b18386f77977820989920d498087b18309877207b1728831720010a048217280181183001821620016f779779206f88988820d498087b18209877206f68978820d487077b171833082033075020c200a1c28218186f888219206f99986a18787a0f986a10787a0e986a08787a0d78760c46170b46170a4617094617084617074617064617054617044617034617024617014607787918787810989a38787a1f989a30787a1e989a28787a1d989a20787a1c989a18787a1b989a10787a1a9899087879199889387879179889307879169889287879159889207879149889187879139889107879129888087878113307203308205020c400f9c146171f0146171e46171d46171c46171b46171a46171946171846171746171646171546171446171346171246171146171046170f46170e46170d46170c46170b46170a461709461708461707461706461705461704461703461702461701460733084033075020c6008ec18377831940013308400a07821758018218500182194801821a40016f7b6f876f986fa949219800821a287b1a9000821a307b1a8800821a387b1a80007b19b8007b18b0007b17a8009517a000951880007b1ba0003300c8009511c0fd7b1038027b1530027b162802951540028411e08289107b19388289087b193082887b1828827a1882791082780882777b1a607b1af8017b19687b19f0017b18707b18e8017b17787b17e001492118024921100249210802492100024821c001208318e001831a0002831bc0013309ff33070a062813f4955180fe821078018215700182166801951180013200005020ca0034f2491170491168491160140700000000717b484e9518607b177833075020cc00bec0491158491150491140413307049518404911485020ce00a5c033082433075020d0005ac083783307013309243300d2000a0c019511b07b10487b15407b1638828b10828a18828c0882857b1a287b1c20d4ac08d4b50ad48a0a98aa207b1b30d4b808978820d4a8087b1718520822018297187b178296108297087b170882977b171083573308205020d400f1bf82186f886f69821a086faa821b106fbb98bc38787c1f98bc30787c1e98bc28787c1d98bc20787c1c98bc18787c1b98bc10787c1a98bc08787c19787b18787a1098ab38787b1798ab30787b1698ab28787b1598ab20787b1498ab18787b1398ab10787b1298aa08787a11787908989a38787a0f989a30787a0e989a28787a0d989a20787a0c989a18787a0b989a10787a0a9899087879097878988938787907988930787906988928787905988920787904988918787903988910787902988808787801955720d85708821a20c88a09d8a90ada880a821830c88a0ad88a08821b28c8b808821b187bb77bb9087bba107bb8188210488215408216389511503200009511a07b10587b15507b1648828a18828b10828c088286d4ac08d4b609d48909989920d4b808978820d498087b172852080e029567207b1730d86707c87c087b18407b1c08d8c805da7705c8b5057b1b10d8b5077b1a18c8a7077b17387b1683673308203306205020d60083be78761f8218306486d45808821940821b38d4b909d498089888207b1520d45909979920d4980846171e46171d46171c46171b46171a46171946171846171746171646171546171446171346171246171146171046170f46170e46170d46170c46170b46170a461709461708461707461706461705461704461703461702461701460752084e01836533082064575020d800f0bd46171f1146171e46171d46171c46171b46171a46171946171846171746171646171546171446171346171246171146171046170f46170e46170d46170c46170b46170a461709461708461707461706461705461704461703461702461701821820821938d498081409e0ffffff00000000d89609821a4094a9948946075109c0008357203308205020da0063bd46171f46171e46171d46171c46171b46171a4617194617184617174617164617154617144617134617124617114617107846170f6546170e6446170d6e46170c69330c20787c0b46170a784617096f46170862787c0746170664461705694617046c46170361461702764617016e4607498218958760d88708821a08c88a09d8a90ada880a821810c88a0ad88a08821b18c8b808821b287bb77bb9087bba107bb818821058821550821648951160320000837833070133093300de000a0c018289828218828b08828810959c1fd89c09c89b0ad8ba0bda990bc88b0bd88b08c8280884cce07b7c7b7a087b7b107b781832008268686f888269786f99826b7098ba18787a0f98ba10787a0e98ba08787a0d787b0c46170b46170a4617094617084617074617064617054617044617034617024617014607787918787810989a38787a1f989a30787a1e989a28787a1d989a20787a1c989a18787a1b989a10787a1a9899087879199889387879179889307879169889287879159889207879149889187879139889107879129888087878113307203308205020e200c6bb46171f0146171e46171d46171c46171b46171a46171946171846171746171646171546171446171346171246171146171046170f46170e46170d46170c46170b46170a461709461708461707461706461705461704461703461702461701460733084033075020e4005bbb8377836960023308400a07826778028268700282696802826a60026f776f886f996faa7b6a58027b6950027b6848027b67400249267802492670024926680249266002482680022083684002836a6002836b80023309ff33070a0601826778028262600282697002826a680282688000d3870bd8780882678800d8970cdbb80c82689000d38a03d8a80a82689800d82808db3a08d39707d4b707db7c0851080407836780010a048267880181689001826a80017b6a706f779779206f88988820d498087b68789877206fa8978820d487077b676833082033075020e6007cba8268686f888269786f99826b7098ba18787a0f98ba10787a0e98ba08787a0d787b0c46170b46170a4617094617084617074617064617054617044617034617024617014607787918787810989a38787a1f989a30787a1e989a28787a1d989a20787a1c989a18787a1b989a10787a1a9899087879199889387879179889307879169889287879159889207879149889187879139889107879129888087878113307203308205020e800d1b946171f0146171e46171d46171c46171b46171a46171946171846171746171646171546171446171346171246171146171046170f46170e46170d46170c46170b46170a461709461708461707461706461705461704461703461702461701460733084033075020ea0066b98377836960023308400a07826778028268700282696802826a60026f7b6f876f986fa9826a80007b6ab800826a88007b6ab000826a90007b6aa800826a98007b6aa0007b69d8007b68d0007b67c8009567e0009568c0009569a0007b6bc0005020ec0000c18267f8008268f0008269e800826ae0007b6758027b6850027b6948027b6a400249267802492670024926680249266002482680022083684002836a6002836b80023309ff33070a06826760027b679800826770027b679000826768027b6788009517e08477e07b6780006471491718491710491708490783770a0f826880008287187b67408287107b67688287087b677082877b6778826788006f77977820826990006f99989920d4890a987720826898006f88978920d497079888207b67287b67a8017b6a387b6aa0017b68307a68b0018367a0010a05015107d8063307403308205020ee0018b87c78117c79107c7a127c7b13978808d4980897aa1097bb18d4ba0ad4a8087c79157c7a147c7b167c7c17979908d4a90997bb1097cc18d4cb0bd4b909979920d489037c78017c797c7a027c7b03978808d4980897aa1097bb18d4ba0ad4a8087c79057c7a047c7b067c7c07979908d4a90997bb1097cc18d4cb0bd4b909979920d489027c78197c79187c7a1a7c7b1b978808d4980897aa1097bb18d4ba0ad4a8087c791d7c7a1c7c7b1e7c7c1f979908d4a90997bb1097cc18d4cb0bd4b909979920d4890c7c78097c79087c7a0a7c7b0b978808d4980897aa1097bb18d4ba0ad4a8087c790d7c7a0c7c7b0e7c770f979908d4a90997bb10977718d4b707d49707977720d487077b676f7a7b6c086fc97b62186f287b63106f377b6790007b688000d48707d4a908d478089888207b6a8800d4a707977720d487075207860583973308207b6798007b69205020f000c7b646171f46171e46171d46171c46171b46171a46171946171846171746171646171546171446171346171246171146171046170f46170e46170d46170c46170b46170a461709461708461707461706461705461704461703254617025f461701b5008268880082698000d498081409fcffffff00000000826a20d89a09826b900094b994894607b6005109e804826798008377043308205020f2002bb68268486f888269506f99826a586faa826b606fbb98bc38787c1f98bc30787c1e98bc28787c1d98bc20787c1c98bc18787c1b98bc10787c1a98bc08787c19787b18787a1098ab38787b1798ab30787b1698ab28787b1598ab20787b1498ab18787b1398ab10787b1298aa08787a11787908989a38787a0f989a30787a0e989a28787a0d989a20787a0c989a18787a0b989a10787a0a98990878790978789889387879079889307879069889287879059889207879049889187879039889107879029888087878010a098267287b67c8018267387b67c0018267307a67d0018267407b67f8018267687b67f0018267707b67e8018267787b67e001330824826798005020f40024b57b6790008267980033085020f60014b54826000249263802ff49263002ff49262802ff49262002ff9568c00197882098882014090000000008000000d498029568e00197882098882095692002979920d4890a8268900097882098882014090000000024000000d4980b97772098772095680002978820d4780c3308ff3309ff64270a0152074a030a0b3307403308205020f8008eb4826a08787a18826910989838787817989830787816989828787815989820787814989818787813989810787812989808787811787910826998983878780f98983078780e98982878780d98982078780c98981878780b98981078780a989808787809787908826918989838787807989830787806989828787805989820787804989818787803989810787802989808787801787998a83878781f98a83078781e98a82878781d98a82078781c98a81878781b98a81078781a98a808787819955160fd8210980282159002821688029511a00232003307403308205020fa00aeb37c78117c79107c7a127c7b13978808d4980897aa1097bb18d4ba0ad4a8087c79157c7a147c7b167c7c17979908d4a90997bb1097cc18d4cb0bd4b909979920d489027c79017c7a7c7b027c7c03979908d4a90997bb1097cc18d4cb0bd4b9097c7a057c7b047c7c067c780797aa08d4ba0a97cc10978818d4c808d4a808978820d498037c78197c7a187c7b1a7c7c1b978808d4a80897bb1097cc18d4cb0bd4b8087c7a1d7c7b1c7c7c1e7c791f97aa08d4ba0a97cc10979918d4c909d4a909979920d4890a7c78097c79087c7b0a7c7c0b978808d4980897bb1097cc18d4cb0bd4b8087c790d7c7b0c7c7c0e7c770f979908d4b90997cc10977718d4c707d49707977720d487076f7b6fa86f396f277b6798007b698800d497076489d4b808d478089888207b6b9000d4b707977720d48707520725017b69800083973308207b67785020fc0066b246171f46171e46171d46171c46171b46171a46171946171846171746171646171546171446171346171246171146171046170f46170e46170d46170c46170b46170a461709461708461707461706461705461704461703a00046170279461701c30046070882688000958704d88708826a9800c88a09d8a90ada880a82689000c88a0ad88a08826b8800c88b0b7b6928017b6720017b6a300195674001956820017b6b38015020fe00d1f2826748018262580182634001826a500182689800d3870bd8870c648082648000d84308dab80c82699000c99a0bd89a0a82698800c99209c9a909d8cb0ac9a909c9cb0bc90707c98708c94307d49808d4b709d48909d4b808989920978820d4980851081c0050200001e5e233085020020148b1837833070133090a0c0183787b689800826778502004012fb18378330701826998000a0c330733000601284bb233075020060146b2330701502008013db29511807b10787b15707b1668951580008411f08282828308828410828818829a829b08829c1082991864767b19187b1c107b1b087b1a7b18387b14307b132895174095182064197b122033000a01951140ff7b10b8007b15b0007b16a8009515c0008411e07b17188297187b17108297107b170882960882977b17828718828910828a0882887b17787b19707b1a687b1860492198004921900049218800492180004821a00020831860831a8000831ba0003309ff33070a068218800082198800821398373d976a03d47a0a98663d821b0897b703d4760698b73d821b1097bb03d47b0b9737038eac88770001857201dbac028eba8e6cdbba0c821a9000d4b606821b9800db6c0246115f46115e46115d46115c46115b46115a46115946115846115746115646115546115446115346115246115146115046114f46114e46114d46114c46114b46114a461149461148461147461146461145461144461143461142461141461140781b38781a3078192878182098bc38781c3f98bc30781c3e98bc28781c3d98bc20781c3c98bc18781c3b98bc10781c3a98bb08781b3998ab38781b3798ab30781b3698ab28781b3598ab20781b3498ab18781b3398ab10781b3298aa08781a31989a38781a2f989a30781a2e989a28781a2d989a20781a2c989a18781a2b989a10781a2a98990878192998893878192798893078192698892878192598892078192498891878192398891078192298880878182184381f951920d498087c89097c8a087c8b0a7c8c0b979908d4a90997bb1097cc18d4cb0bd4b9097c8a0d7c8b0c7c8c0e7c860f97aa08d4ba0a97cc10976618d46c0cd4ca0a97aa20d4a9097c8a017c8b7c8c027c860397aa08d4ba0a97cc10976618d46c0cd4ca0a7c8b057c8c047c86067c870797bb08d4cb0b976610977718d46707d4b707977720d47a0a7c87117c8b107c8c127c8813977708d4b70797cc10978818d4c808d48707942a942994278218187b87107b89087b8a491818955140ff8210b8008215b0008216a8009511c0003200821750821858821940821a487b67107b68187b697b6a0895518082107882157082166895118000320049489220248414d249525252a22a2529499224499224499224499224499224499224499224494a4a43222449928490244992244992244992244929a9494a124948922449922449922425499224499224499224499224499224499224499224499254254992ac506a15aa86845aa14a93244908499224499224499224490a4942358140202011119188882841202050402049922455220289888824494a524542222222111151425249484992244992244992244992244992244992244992244992244992244992244992542529a5248924a924499224499224499294a494244a92244922254d0248928a244900492a4992a424499224495292442b94d22425a98888484a92244989442211111122223522224992244992440a29a59424499224499224499224499224499224294992244992148a1411519524499224499224494a1211114544001185249284144ad224a99224a91449922449922449922449922449922449922449922449922449922449922449922449922449922449922449922449922449922449922449922449922449922449922449499224499224499224a92a49495229254992244992244992244992244992244992a424449224499224499224499224a550a48888aa44229188880811919a242222499224492280442212918888488448242211111111111121225211499224499222a944221111111111111111111111111111111149922449922449922449922449922449922449922449922425499224499224499224499224499224499224499254494a44445428a5494a9224912449252554254992244992244992242549922449922449922469444492081111112122224444444424499224494444a424495292242529499224244992244992244992922449922449922449922449922449922449922449922449aa9224495628b5142aa59424499224499224499224499224499224294992244992144a6992a492244992a454a194262949252949849084244992244992244952922449922449922449922449922449922449922449922449559224c90aa54a0a559a2449524d529208212421499224499224499294244992244992244992244992244992244992244992244952952449b242a992429526492449254992244992244992a424a5245192244912256992009254922449929424499224494a926885521a111109212949922425499224499224111191922429452291882222a52429498a2421499224499224499294244992244992244992244992244992244992244992244952952449b242a99242952649529292244a5249929424294992440849922421895492244948922449922449922425499224499224499224499224499224499224499224499254254992ac506a9292504a4992244992244992244949922449922449922409a5344922494a4992242549922449922449494a4952922449529a0490249524254912ada0144d52928aa22849922449922449922449922449922449922425412449922449922449922449520a8a1411511445111111111122221549248924121111111111111111222215492489241291884424221111212252914492482211894844221211112222154924892412918844242211112122529148248a24924412898888880811918a8888281289449224499224499224492412892222228a884852442249244944a4a42449529224294992944422512489221241455192244992244992244992244992244992a424499224494402082012952892208aa2284992244992244992244992244992244952922449922491a84424414a2925499224499224499224499224499224494a92244992041040242a114990524a499224499224499224499224499224499292244992248944252212a4945292244992244992244992244992244992a424499224490091a844442412492491288948504a4992244992244992244949922449922449922451249288884644248910228d0820492a22222222222222522412a548444444444444444444444444444444241289442291482409529224499224499224499224499224499224499224499224499224499224499224955244a24422914824128944444444444444444444444444444444444444444490224992241111912449129124499224c90a4aad822a9a244912405290242548414934499224489224499224499224254992244992244992244992244992244992244992244992544a6992244992924a82949aa4c952508a2629494544524492442289241289442212495289442211894444248248242291482412111111112222952489942449924a12894422411004411004410011014444082180888888888888888888888888888888888888888888888848244992244992244992244992244992244992244992244992244952922449922449922491482412894824914824128948249188442422222222222222222222222222222222222222222222499224499224499224499224499224499224499224499224494992244992244952295525499224499224128944444444521111514404105110111211a4a0241a111149822449922449922449529224499224499224499224499224499224499224499224495552912449a214840821428888082184102222840821424484a4202222222284102289240920910092a4119144294949924411514a9292a420a5244992244992a42449922449922449922449922092244992244992244992242905458a88a88a4422111111111111912429494a24128988881011a944444483240124054924095250124d9224254992248994a494a04a294992244992244992244992244992244952922449922449922449529224699224294992249224499224a924484a9224499224499224499224499224294a412449922449922449922449922480a48a24489224499224111191444422222252922449929424495a8a96244992242529a52449922449922425499224499224499224499204912449922449922449922449292852444455444444448888d488884822892492241145444a49529214a494244992244992a42449922449922449922449922092244992244992244992242905458a88a88a888888888888882022222222222244442a22222289925491244989122589922412896824419224499224499224294992244992244992244992244992244992244992244992a4524a11491249a24482244992244992244992248908110920898a88244829a524499224499224499224499224499224494992244992944824128944221144144408214412402289249200924492749404499224499224494992244992244992244992942449922449444494044992244992244992a4244992244992244992244992244992244992244992244992aa88942492449404499224499224499224491222249248124924222222888888a44822892449922449924141a94582121529489024919294a42425494a4444449224a9242549444448442aa22449922429924a24922449922449922449922449922449922449922449922449922449922449922449922449922449922449922449499224499224499224499254494a444494244949920800"
				},
				"methodIdentifiers": {
					"bid()": "1998aeef",
					"box()": "754215a1",
					"boxData(address)": "a4e9ea9b",
					"boxes(address,uint256)": "13b980a4",
					"createYourBox()": "328e6997",
					"depositToBox(uint256,uint256)": "5cf510f8",
					"getPrice()": "98d5fdca",
					"withdraw()": "3ccfd60b"
				}
			},
			"hash": "71c35045cce563340e5588a6934c6dfe89f1940bc77cc31bc72e783d27012f55",
			"factoryDependencies": {
				"76d222742bbd1d87ed0fdaf5066f3ec9a6d6c8cddd34127146dcda0afad1269f": "contracts/SwappBox.sol:Box"
			}
		}
	}
}