{
	"contracts/SwappBox.sol": {
		"Box": {
			"abi": [
				{
					"inputs": [
						{
							"internalType": "address",
							"name": "_newOwner",
							"type": "address"
						}
					],
					"name": "changeOwner",
					"outputs": [],
					"stateMutability": "nonpayable",
					"type": "function"
				},
				{
					"inputs": [],
					"name": "deadline",
					"outputs": [
						{
							"internalType": "uint256",
							"name": "",
							"type": "uint256"
						}
					],
					"stateMutability": "view",
					"type": "function"
				},
				{
					"inputs": [
						{
							"internalType": "uint256",
							"name": "_deadline",
							"type": "uint256"
						}
					],
					"name": "deposit",
					"outputs": [],
					"stateMutability": "payable",
					"type": "function"
				},
				{
					"inputs": [],
					"name": "initialTime",
					"outputs": [
						{
							"internalType": "uint256",
							"name": "",
							"type": "uint256"
						}
					],
					"stateMutability": "view",
					"type": "function"
				},
				{
					"inputs": [],
					"name": "isContractFunded",
					"outputs": [
						{
							"internalType": "bool",
							"name": "",
							"type": "bool"
						}
					],
					"stateMutability": "view",
					"type": "function"
				},
				{
					"inputs": [],
					"name": "owner",
					"outputs": [
						{
							"internalType": "address payable",
							"name": "",
							"type": "address"
						}
					],
					"stateMutability": "view",
					"type": "function"
				},
				{
					"inputs": [],
					"name": "withdraw",
					"outputs": [],
					"stateMutability": "nonpayable",
					"type": "function"
				}
			],
			"devdoc": {
				"kind": "dev",
				"methods": {},
				"version": 1
			},
			"userdoc": {
				"kind": "user",
				"methods": {},
				"version": 1
			},
			"storageLayout": {
				"storage": [
					{
						"astId": 3,
						"contract": "contracts/SwappBox.sol:Box",
						"label": "deadline",
						"offset": 0,
						"slot": "0",
						"type": "t_uint256"
					},
					{
						"astId": 5,
						"contract": "contracts/SwappBox.sol:Box",
						"label": "initialTime",
						"offset": 0,
						"slot": "1",
						"type": "t_uint256"
					},
					{
						"astId": 7,
						"contract": "contracts/SwappBox.sol:Box",
						"label": "isContractFunded",
						"offset": 0,
						"slot": "2",
						"type": "t_bool"
					},
					{
						"astId": 9,
						"contract": "contracts/SwappBox.sol:Box",
						"label": "owner",
						"offset": 1,
						"slot": "2",
						"type": "t_address_payable"
					}
				],
				"types": {
					"t_address_payable": {
						"encoding": "inplace",
						"label": "address payable",
						"numberOfBytes": "20"
					},
					"t_bool": {
						"encoding": "inplace",
						"label": "bool",
						"numberOfBytes": "1"
					},
					"t_uint256": {
						"encoding": "inplace",
						"label": "uint256",
						"numberOfBytes": "32"
					}
				}
			},
			"evm": {
				"assembly": "// RO data = 0/0 bytes\n// RW data = 0/65552 bytes\n// Stack size = 16384 bytes\n\n// Instructions = 4461\n// Code size = 13598 bytes\n\n      : @0 (gas: 2)\n     0: i32 a2 = a0 >> 0x10\n     3: jump @6 if a2 != 0\n      : @1 (gas: 2)\n     6: a2 = 0x10001\n    11: jump @6 if a1 >=u a2\n      : @2 (gas: 4)\n    14: a1 = a1 + a0\n    17: i32 a1 = a1 + 0x1f\n    20: a1 = a1 & 0xffffffffffffffe0\n    23: jump @7 if a1 >=u 65537\n      : @3 (gas: 2)\n    29: a3 = i32 [0x20000]\n    34: jump @5 if a3 >=u a1\n      : @4 (gas: 4)\n    37: u32 [0x20000] = a1\n    42: a1 = 0x20010\n    47: a0 = a0 + a1\n    50: ret\n      : @5 (gas: 3)\n    52: a1 = 0x20010\n    57: a0 = a0 + a1\n    60: ret\n      : @6 (gas: 1)\n    62: trap\n      : @7 (gas: 1)\n    63: trap\n      : @8 (gas: 13)\n    64: sp = sp + 0xffffffffffffffd8\n    67: u64 [sp + 0x20] = ra\n    70: u64 [sp + 0x18] = s0\n    73: u64 [sp + 0x10] = s1\n    76: a2 = u64 [a1]\n    78: u64 [sp + 0x8] = a2\n    81: a2 = u64 [a1 + 0x8]\n    84: u64 [sp] = a2\n    86: s0 = u64 [a1 + 0x10]\n    89: s1 = u64 [a1 + 0x18]\n    92: i32 a0 = a0 + 0\n    94: a1 = 0x20\n    97: ra = 2, jump @0\n      : @9 [@dyn 1] (gas: 71)\n   101: a1 = reverse s1\n   103: a2 = reverse s0\n   105: a3 = u64 [sp]\n   107: a3 = reverse a3\n   109: a4 = u64 [sp + 0x8]\n   112: a4 = reverse a4\n   114: u8 [a0 + 0x18] = a4\n   117: u8 [a0 + 0x10] = a3\n   120: u8 [a0 + 0x8] = a2\n   123: u8 [a0] = a1\n   125: a5 = a4 >> 0x38\n   128: u8 [a0 + 0x1f] = a5\n   131: a5 = a4 >> 0x30\n   134: u8 [a0 + 0x1e] = a5\n   137: a5 = a4 >> 0x28\n   140: u8 [a0 + 0x1d] = a5\n   143: a5 = a4 >> 0x20\n   146: u8 [a0 + 0x1c] = a5\n   149: a5 = a4 >> 0x18\n   152: u8 [a0 + 0x1b] = a5\n   155: a5 = a4 >> 0x10\n   158: u8 [a0 + 0x1a] = a5\n   161: a4 = a4 >> 0x8\n   164: u8 [a0 + 0x19] = a4\n   167: a4 = a3 >> 0x38\n   170: u8 [a0 + 0x17] = a4\n   173: a4 = a3 >> 0x30\n   176: u8 [a0 + 0x16] = a4\n   179: a4 = a3 >> 0x28\n   182: u8 [a0 + 0x15] = a4\n   185: a4 = a3 >> 0x20\n   188: u8 [a0 + 0x14] = a4\n   191: a4 = a3 >> 0x18\n   194: u8 [a0 + 0x13] = a4\n   197: a4 = a3 >> 0x10\n   200: u8 [a0 + 0x12] = a4\n   203: a3 = a3 >> 0x8\n   206: u8 [a0 + 0x11] = a3\n   209: a3 = a2 >> 0x38\n   212: u8 [a0 + 0xf] = a3\n   215: a3 = a2 >> 0x30\n   218: u8 [a0 + 0xe] = a3\n   221: a3 = a2 >> 0x28\n   224: u8 [a0 + 0xd] = a3\n   227: a3 = a2 >> 0x20\n   230: u8 [a0 + 0xc] = a3\n   233: a3 = a2 >> 0x18\n   236: u8 [a0 + 0xb] = a3\n   239: a3 = a2 >> 0x10\n   242: u8 [a0 + 0xa] = a3\n   245: a2 = a2 >> 0x8\n   248: u8 [a0 + 0x9] = a2\n   251: a2 = a1 >> 0x38\n   254: u8 [a0 + 0x7] = a2\n   257: a2 = a1 >> 0x30\n   260: u8 [a0 + 0x6] = a2\n   263: a2 = a1 >> 0x28\n   266: u8 [a0 + 0x5] = a2\n   269: a2 = a1 >> 0x20\n   272: u8 [a0 + 0x4] = a2\n   275: a2 = a1 >> 0x18\n   278: u8 [a0 + 0x3] = a2\n   281: a2 = a1 >> 0x10\n   284: u8 [a0 + 0x2] = a2\n   287: a1 = a1 >> 0x8\n   290: u8 [a0 + 0x1] = a1\n   293: ra = u64 [sp + 0x20]\n   296: s0 = u64 [sp + 0x18]\n   299: s1 = u64 [sp + 0x10]\n   302: sp = sp + 0x28\n   305: ret\n      : @10 (gas: 6)\n   307: sp = sp + 0xfffffffffffffff0\n   310: u64 [sp + 0x8] = ra\n   313: u64 [sp] = s0\n   315: s0 = a0 & 0x1\n   318: ecalli 5 // 'call_data_size'\n   320: fallthrough\n      : @11 (gas: 2)\n   321: u32 [0x20004] = a0\n   326: jump @13 if s0 == 0\n      : @12 (gas: 1)\n   329: ra = 4, jump @14\n      : @13 [@dyn 2] (gas: 1)\n   333: ra = 6, jump @28\n      : @14 [@dyn 3] (gas: 9)\n   338: sp = sp + 0xffffffffffffffc0\n   341: u64 [sp + 0x38] = ra\n   344: u64 [sp + 0x30] = s0\n   347: u64 [sp + 0x28] = s1\n   350: s0 = sp + 0x40\n   353: sp = sp & 0xffffffffffffffe0\n   356: a0 = 0x40\n   359: a1 = 0x20\n   362: ra = 8, jump @0\n      : @15 [@dyn 4] (gas: 39)\n   367: u8 [a0 + 31] = 0x80\n   372: u8 [a0 + 30] = 0\n   375: u8 [a0 + 29] = 0\n   378: u8 [a0 + 28] = 0\n   381: u8 [a0 + 27] = 0\n   384: u8 [a0 + 26] = 0\n   387: u8 [a0 + 25] = 0\n   390: u8 [a0 + 24] = 0\n   393: u8 [a0 + 23] = 0\n   396: u8 [a0 + 22] = 0\n   399: u8 [a0 + 21] = 0\n   402: u8 [a0 + 20] = 0\n   405: u8 [a0 + 19] = 0\n   408: u8 [a0 + 18] = 0\n   411: u8 [a0 + 17] = 0\n   414: u8 [a0 + 16] = 0\n   417: u8 [a0 + 15] = 0\n   420: u8 [a0 + 14] = 0\n   423: u8 [a0 + 13] = 0\n   426: u8 [a0 + 12] = 0\n   429: u8 [a0 + 11] = 0\n   432: u8 [a0 + 10] = 0\n   435: u8 [a0 + 9] = 0\n   438: u8 [a0 + 8] = 0\n   441: u8 [a0 + 7] = 0\n   444: u8 [a0 + 6] = 0\n   447: u8 [a0 + 5] = 0\n   450: u8 [a0 + 4] = 0\n   453: u8 [a0 + 3] = 0\n   456: u8 [a0 + 2] = 0\n   459: u8 [a0 + 1] = 0\n   462: u8 [a0 + 0] = 0\n   464: u64 [sp + 24] = 0\n   467: u64 [sp + 0] = 0\n   469: u64 [sp + 8] = 0\n   472: u64 [sp + 16] = 0\n   475: i32 a0 = sp + 0\n   477: ecalli 15 // 'value_transferred'\n   479: fallthrough\n      : @16 (gas: 8)\n   480: a0 = u64 [sp + 0x10]\n   483: a1 = u64 [sp + 0x18]\n   486: a2 = u64 [sp + 0x8]\n   489: a3 = u64 [sp]\n   491: a1 = a1 | a2\n   494: a0 = a0 | a3\n   497: a0 = a0 | a1\n   500: jump @20 if a0 != 0\n      : @17 (gas: 3)\n   504: a0 = 0x40\n   507: a1 = 0x20\n   510: ra = 10, jump @0\n      : @18 [@dyn 5] (gas: 100)\n   515: a1 = u8 [a0 + 0x11]\n   518: a2 = u8 [a0 + 0x10]\n   521: a3 = u8 [a0 + 0x12]\n   524: a4 = u8 [a0 + 0x13]\n   527: a1 = a1 << 0x8\n   530: a1 = a1 | a2\n   533: a3 = a3 << 0x10\n   536: a4 = a4 << 0x18\n   539: a3 = a3 | a4\n   542: a1 = a1 | a3\n   545: a2 = u8 [a0 + 0x15]\n   548: a3 = u8 [a0 + 0x14]\n   551: a4 = u8 [a0 + 0x16]\n   554: a5 = u8 [a0 + 0x17]\n   557: a2 = a2 << 0x8\n   560: a2 = a2 | a3\n   563: a4 = a4 << 0x10\n   566: a5 = a5 << 0x18\n   569: a4 = a4 | a5\n   572: a2 = a2 | a4\n   575: a2 = a2 << 0x20\n   578: t0 = a2 | a1\n   581: a2 = u8 [a0 + 0x1]\n   584: a3 = u8 [a0]\n   586: a4 = u8 [a0 + 0x2]\n   589: a5 = u8 [a0 + 0x3]\n   592: a2 = a2 << 0x8\n   595: a2 = a2 | a3\n   598: a4 = a4 << 0x10\n   601: a5 = a5 << 0x18\n   604: a4 = a4 | a5\n   607: a2 = a2 | a4\n   610: a3 = u8 [a0 + 0x5]\n   613: a4 = u8 [a0 + 0x4]\n   616: a5 = u8 [a0 + 0x6]\n   619: s1 = u8 [a0 + 0x7]\n   622: a3 = a3 << 0x8\n   625: a3 = a3 | a4\n   628: a5 = a5 << 0x10\n   631: s1 = s1 << 0x18\n   634: a5 = a5 | s1\n   637: a3 = a3 | a5\n   640: a3 = a3 << 0x20\n   643: a2 = a2 | a3\n   646: a3 = u8 [a0 + 0x19]\n   649: a4 = u8 [a0 + 0x18]\n   652: a5 = u8 [a0 + 0x1a]\n   655: s1 = u8 [a0 + 0x1b]\n   658: a3 = a3 << 0x8\n   661: a3 = a3 | a4\n   664: a5 = a5 << 0x10\n   667: s1 = s1 << 0x18\n   670: a5 = a5 | s1\n   673: a3 = a3 | a5\n   676: a4 = u8 [a0 + 0x1d]\n   679: a5 = u8 [a0 + 0x1c]\n   682: s1 = u8 [a0 + 0x1e]\n   685: a1 = u8 [a0 + 0x1f]\n   688: a4 = a4 << 0x8\n   691: a4 = a4 | a5\n   694: s1 = s1 << 0x10\n   697: a1 = a1 << 0x18\n   700: a1 = a1 | s1\n   703: a1 = a1 | a4\n   706: a1 = a1 << 0x20\n   709: a3 = a3 | a1\n   712: a1 = u8 [a0 + 0x9]\n   715: a4 = u8 [a0 + 0x8]\n   718: a5 = u8 [a0 + 0xa]\n   721: s1 = u8 [a0 + 0xb]\n   724: a1 = a1 << 0x8\n   727: a1 = a1 | a4\n   730: a5 = a5 << 0x10\n   733: s1 = s1 << 0x18\n   736: a5 = a5 | s1\n   739: a1 = a1 | a5\n   742: a4 = u8 [a0 + 0xd]\n   745: a5 = u8 [a0 + 0xc]\n   748: s1 = u8 [a0 + 0xe]\n   751: a0 = u8 [a0 + 0xf]\n   754: a4 = a4 << 0x8\n   757: a4 = a4 | a5\n   760: s1 = s1 << 0x10\n   763: a0 = a0 << 0x18\n   766: a0 = a0 | s1\n   769: a0 = a0 | a4\n   772: a0 = a0 << 0x20\n   775: a0 = a0 | a1\n   778: a0 = reverse a0\n   780: s1 = reverse a3\n   782: a1 = reverse a2\n   784: a2 = reverse t0\n   786: a1 = a1 | a2\n   789: a2 = s1 | a0\n   792: a2 = a2 | a1\n   795: a2 = a2 >> 0x20\n   798: a0 = a0 | a1\n   801: a0 = a0 << 0x20\n   804: a0 = a0 | a2\n   807: jump @22 if a0 == 0\n      : @19 (gas: 1)\n   810: trap\n      : @20 (gas: 3)\n   811: a0 = 0\n   813: a1 = 0\n   815: ra = 12, jump @0\n      : @21 [@dyn 6] (gas: 5)\n   820: i32 a1 = a0 + 0\n   822: a0 = 0x1\n   825: a2 = 0\n   827: ecalli 12 // 'seal_return'\n   829: fallthrough\n      : @22 (gas: 4)\n   830: i32 s1 = s1 + 0\n   832: a0 = s1\n   834: a1 = 0\n   836: ra = 14, jump @0\n      : @23 [@dyn 7] (gas: 5)\n   841: i32 a0 = a0 + 0\n   843: a1 = 0\n   845: a2 = 0\n   847: ecalli 3 // 'call_data_copy'\n   849: fallthrough\n      : @24 (gas: 2)\n   850: a1 = i32 [0x20008]\n   855: jump @26 if a1 == 0\n      : @25 (gas: 4)\n   858: a0 = 0x30010\n   863: i32 a0 = a0 + 0\n   865: ecalli 13 // 'set_immutable_data'\n   867: fallthrough\n      : @26 (gas: 3)\n   868: a0 = s1\n   870: a1 = 0\n   872: ra = 16, jump @0\n      : @27 [@dyn 8] (gas: 6)\n   877: i32 a1 = a0 + 0\n   879: a0 = 0\n   881: a2 = 0\n   883: ra = 0x12\n   886: ecalli 12 // 'seal_return'\n   888: fallthrough\n      : @28 [@dyn 9] (gas: 8)\n   889: sp = sp + 0xffffffffffffffc0\n   892: u64 [sp + 0x38] = ra\n   895: u64 [sp + 0x30] = s0\n   898: s0 = sp + 0x40\n   901: sp = sp & 0xffffffffffffffe0\n   904: a0 = 0x40\n   907: a1 = 0x20\n   910: ra = 20, jump @0\n      : @29 [@dyn 10] (gas: 34)\n   915: u8 [a0 + 31] = 0x80\n   920: u8 [a0 + 30] = 0\n   923: u8 [a0 + 29] = 0\n   926: u8 [a0 + 28] = 0\n   929: u8 [a0 + 27] = 0\n   932: u8 [a0 + 26] = 0\n   935: u8 [a0 + 25] = 0\n   938: u8 [a0 + 24] = 0\n   941: u8 [a0 + 23] = 0\n   944: u8 [a0 + 22] = 0\n   947: u8 [a0 + 21] = 0\n   950: u8 [a0 + 20] = 0\n   953: u8 [a0 + 19] = 0\n   956: u8 [a0 + 18] = 0\n   959: u8 [a0 + 17] = 0\n   962: u8 [a0 + 16] = 0\n   965: u8 [a0 + 15] = 0\n   968: u8 [a0 + 14] = 0\n   971: u8 [a0 + 13] = 0\n   974: u8 [a0 + 12] = 0\n   977: u8 [a0 + 11] = 0\n   980: u8 [a0 + 10] = 0\n   983: u8 [a0 + 9] = 0\n   986: u8 [a0 + 8] = 0\n   989: u8 [a0 + 7] = 0\n   992: u8 [a0 + 3] = 0\n   995: u8 [a0 + 2] = 0\n   998: u8 [a0 + 1] = 0\n  1001: u8 [a0 + 0] = 0\n  1003: a1 = i32 [0x20004]\n  1008: u8 [a0 + 6] = 0\n  1011: u8 [a0 + 5] = 0\n  1014: u8 [a0 + 4] = 0\n  1017: jump @43 if a1 <u 4\n      : @30 (gas: 4)\n  1022: i32 a0 = sp + 0\n  1024: a1 = 0\n  1026: ecalli 4 // 'call_data_load'\n  1028: fallthrough\n      : @31 (gas: 2)\n  1029: a0 = i32 [sp + 0x1c]\n  1032: jump @36 if a0 <=s 3065339684\n      : @32 (gas: 2)\n  1039: a1 = 0x29dcb000\n  1045: jump @40 if a0 >s 702329038\n      : @33 (gas: 1)\n  1053: jump @45 if a0 == 3065339685\n      : @34 (gas: 1)\n  1061: jump @43 if a0 != 3375685774\n      : @35 (gas: 14)\n  1069: ra = 0x16\n  1072: sp = sp + 0xffffffffffffff60\n  1076: u64 [sp + 0x98] = ra\n  1080: u64 [sp + 0x90] = s0\n  1084: u64 [sp + 0x88] = s1\n  1088: s0 = sp + 0xa0\n  1092: sp = sp & 0xffffffffffffffe0\n  1095: u64 [sp + 56] = 0\n  1098: u64 [sp + 48] = 0\n  1101: u64 [sp + 40] = 0\n  1104: u64 [sp + 32] = 0\n  1107: i32 a0 = sp + 0x20\n  1110: ecalli 15 // 'value_transferred'\n  1112: jump @117\n      : @36 [@dyn 11] (gas: 1)\n  1115: jump @44 if a0 == 2376452955\n      : @37 (gas: 1)\n  1122: jump @47 if a0 == 2632781467\n      : @38 (gas: 1)\n  1130: jump @43 if a0 != 2801392353\n      : @39 (gas: 14)\n  1137: ra = 0x18\n  1140: sp = sp + 0xffffffffffffff40\n  1144: u64 [sp + 0xb8] = ra\n  1148: u64 [sp + 0xb0] = s0\n  1152: u64 [sp + 0xa8] = s1\n  1156: s0 = sp + 0xc0\n  1160: sp = sp & 0xffffffffffffffe0\n  1163: u64 [sp + 56] = 0\n  1166: u64 [sp + 48] = 0\n  1169: u64 [sp + 40] = 0\n  1172: u64 [sp + 32] = 0\n  1175: i32 a0 = sp + 0x20\n  1178: ecalli 15 // 'value_transferred'\n  1180: jump @94\n      : @40 [@dyn 12] (gas: 2)\n  1183: i32 a1 = a1 + 0xcf\n  1187: jump @46 if a0 == a1\n      : @41 (gas: 1)\n  1190: jump @43 if a0 != 1020253707\n      : @42 (gas: 13)\n  1197: ra = 0x1a\n  1200: sp = sp + 0xffffffffffffffc0\n  1203: u64 [sp + 0x38] = ra\n  1206: u64 [sp + 0x30] = s0\n  1209: s0 = sp + 0x40\n  1212: sp = sp & 0xffffffffffffffe0\n  1215: u64 [sp + 24] = 0\n  1218: u64 [sp + 16] = 0\n  1221: u64 [sp + 8] = 0\n  1224: u64 [sp + 0] = 0\n  1226: i32 a0 = sp + 0\n  1228: ecalli 15 // 'value_transferred'\n  1230: jump @61\n      : @43 [@dyn 13] (gas: 1)\n  1233: ra = 28, jump @127\n      : @44 [@dyn 14] (gas: 14)\n  1238: ra = 0x1e\n  1241: sp = sp + 0xffffffffffffff60\n  1245: u64 [sp + 0x98] = ra\n  1249: u64 [sp + 0x90] = s0\n  1253: u64 [sp + 0x88] = s1\n  1257: s0 = sp + 0xa0\n  1261: sp = sp & 0xffffffffffffffe0\n  1264: u64 [sp + 56] = 0\n  1267: u64 [sp + 48] = 0\n  1270: u64 [sp + 40] = 0\n  1273: u64 [sp + 32] = 0\n  1276: i32 a0 = sp + 0x20\n  1279: ecalli 15 // 'value_transferred'\n  1281: jump @72\n      : @45 [@dyn 15] (gas: 1)\n  1284: ra = 32, jump @107\n      : @46 [@dyn 16] (gas: 14)\n  1289: ra = 0x22\n  1292: sp = sp + 0xffffffffffffff60\n  1296: u64 [sp + 0x98] = ra\n  1300: u64 [sp + 0x90] = s0\n  1304: u64 [sp + 0x88] = s1\n  1308: s0 = sp + 0xa0\n  1312: sp = sp & 0xffffffffffffffe0\n  1315: u64 [sp + 56] = 0\n  1318: u64 [sp + 48] = 0\n  1321: u64 [sp + 40] = 0\n  1324: u64 [sp + 32] = 0\n  1327: i32 a0 = sp + 0x20\n  1330: ecalli 15 // 'value_transferred'\n  1332: jump @50\n      : @47 [@dyn 17] (gas: 14)\n  1335: ra = 0x24\n  1338: sp = sp + 0xffffffffffffff60\n  1342: u64 [sp + 0x98] = ra\n  1346: u64 [sp + 0x90] = s0\n  1350: u64 [sp + 0x88] = s1\n  1354: s0 = sp + 0xa0\n  1358: sp = sp & 0xffffffffffffffe0\n  1361: u64 [sp + 56] = 0\n  1364: u64 [sp + 48] = 0\n  1367: u64 [sp + 40] = 0\n  1370: u64 [sp + 32] = 0\n  1373: i32 a0 = sp + 0x20\n  1376: ecalli 15 // 'value_transferred'\n  1378: jump @83\n      : @48 [@dyn 18] (gas: 7)\n  1381: sp = sp + 0xfffffffffffffff0\n  1384: u64 [sp + 0x8] = ra\n  1387: u64 [sp] = s0\n  1389: s0 = a0\n  1391: a0 = 0x40\n  1394: a1 = 0x20\n  1397: ra = 38, jump @0\n      : @49 [@dyn 19] (gas: 100)\n  1402: a1 = u8 [a0 + 0x1]\n  1405: a2 = u8 [a0]\n  1407: a3 = u8 [a0 + 0x2]\n  1410: a4 = u8 [a0 + 0x3]\n  1413: a1 = a1 << 0x8\n  1416: a1 = a1 | a2\n  1419: a3 = a3 << 0x10\n  1422: a4 = a4 << 0x18\n  1425: a3 = a3 | a4\n  1428: a1 = a1 | a3\n  1431: a2 = u8 [a0 + 0x5]\n  1434: a3 = u8 [a0 + 0x4]\n  1437: a4 = u8 [a0 + 0x6]\n  1440: a5 = u8 [a0 + 0x7]\n  1443: a2 = a2 << 0x8\n  1446: a2 = a2 | a3\n  1449: a4 = a4 << 0x10\n  1452: a5 = a5 << 0x18\n  1455: a4 = a4 | a5\n  1458: a2 = a2 | a4\n  1461: a2 = a2 << 0x20\n  1464: t0 = a2 | a1\n  1467: a2 = u8 [a0 + 0x9]\n  1470: a3 = u8 [a0 + 0x8]\n  1473: a4 = u8 [a0 + 0xa]\n  1476: a5 = u8 [a0 + 0xb]\n  1479: a2 = a2 << 0x8\n  1482: a2 = a2 | a3\n  1485: a4 = a4 << 0x10\n  1488: a5 = a5 << 0x18\n  1491: a4 = a4 | a5\n  1494: a2 = a2 | a4\n  1497: a3 = u8 [a0 + 0xd]\n  1500: a4 = u8 [a0 + 0xc]\n  1503: a5 = u8 [a0 + 0xe]\n  1506: a1 = u8 [a0 + 0xf]\n  1509: a3 = a3 << 0x8\n  1512: a3 = a3 | a4\n  1515: a5 = a5 << 0x10\n  1518: a1 = a1 << 0x18\n  1521: a1 = a1 | a5\n  1524: a1 = a1 | a3\n  1527: a1 = a1 << 0x20\n  1530: t1 = a1 | a2\n  1533: a1 = u8 [a0 + 0x11]\n  1536: a3 = u8 [a0 + 0x10]\n  1539: a4 = u8 [a0 + 0x12]\n  1542: a5 = u8 [a0 + 0x13]\n  1545: a1 = a1 << 0x8\n  1548: a1 = a1 | a3\n  1551: a4 = a4 << 0x10\n  1554: a5 = a5 << 0x18\n  1557: a4 = a4 | a5\n  1560: a1 = a1 | a4\n  1563: a3 = u8 [a0 + 0x15]\n  1566: a4 = u8 [a0 + 0x14]\n  1569: a5 = u8 [a0 + 0x16]\n  1572: a2 = u8 [a0 + 0x17]\n  1575: a3 = a3 << 0x8\n  1578: a3 = a3 | a4\n  1581: a5 = a5 << 0x10\n  1584: a2 = a2 << 0x18\n  1587: a2 = a2 | a5\n  1590: a2 = a2 | a3\n  1593: a2 = a2 << 0x20\n  1596: a3 = a2 | a1\n  1599: a1 = u8 [a0 + 0x19]\n  1602: a2 = u8 [a0 + 0x18]\n  1605: a4 = u8 [a0 + 0x1a]\n  1608: a5 = u8 [a0 + 0x1b]\n  1611: a1 = a1 << 0x8\n  1614: a1 = a1 | a2\n  1617: a4 = a4 << 0x10\n  1620: a5 = a5 << 0x18\n  1623: a4 = a4 | a5\n  1626: a1 = a1 | a4\n  1629: a2 = u8 [a0 + 0x1d]\n  1632: a4 = u8 [a0 + 0x1c]\n  1635: a5 = u8 [a0 + 0x1e]\n  1638: a0 = u8 [a0 + 0x1f]\n  1641: a2 = a2 << 0x8\n  1644: a2 = a2 | a4\n  1647: a5 = a5 << 0x10\n  1650: a0 = a0 << 0x18\n  1653: a0 = a0 | a5\n  1656: a0 = a0 | a2\n  1659: a0 = a0 << 0x20\n  1662: a0 = a0 | a1\n  1665: a0 = reverse a0\n  1667: a1 = reverse a3\n  1669: a2 = reverse t1\n  1671: a3 = reverse t0\n  1673: u64 [s0 + 0x18] = a3\n  1676: u64 [s0 + 0x10] = a2\n  1679: u64 [s0 + 0x8] = a1\n  1682: u64 [s0] = a0\n  1684: ra = u64 [sp + 0x8]\n  1687: s0 = u64 [sp]\n  1689: sp = sp + 0x10\n  1692: ret\n      : @50 (gas: 8)\n  1694: a0 = u64 [sp + 0x30]\n  1697: a1 = u64 [sp + 0x38]\n  1700: a2 = u64 [sp + 0x28]\n  1703: a3 = u64 [sp + 0x20]\n  1706: a1 = a1 | a2\n  1709: a0 = a0 | a3\n  1712: a0 = a0 | a1\n  1715: jump @55 if a0 != 0\n      : @51 (gas: 2)\n  1719: a0 = i32 [0x20004]\n  1724: jump @55 if a0 <=u 3\n      : @52 (gas: 26)\n  1729: u64 [sp + 88] = 0\n  1732: u64 [sp + 80] = 0\n  1735: u64 [sp + 72] = 0\n  1738: u64 [sp + 64] = 0\n  1741: u64 [sp + 120] = 0\n  1744: u64 [sp + 112] = 0\n  1747: u64 [sp + 104] = 0\n  1750: u64 [sp + 96] = 0\n  1753: u32 [sp + 128] = 0x20\n  1758: i32 a1 = sp + 0x40\n  1761: i32 a3 = sp + 0x60\n  1764: i32 a4 = sp + 0x80\n  1768: a2 = 0xffffffffffffffff\n  1771: a0 = 0\n  1773: ecalli 7 // 'get_storage'\n  1775: a0 = u64 [sp + 0x78]\n  1778: u64 [sp] = a0\n  1780: a0 = u64 [sp + 0x70]\n  1783: u64 [sp + 0x8] = a0\n  1786: a0 = u64 [sp + 0x68]\n  1789: u64 [sp + 0x10] = a0\n  1792: a0 = u64 [sp + 0x60]\n  1795: u64 [sp + 0x18] = a0\n  1798: a0 = 0x40\n  1801: a1 = 0x20\n  1804: ra = 40, jump @0\n      : @53 [@dyn 20] (gas: 100)\n  1809: a1 = u8 [a0 + 0x11]\n  1812: a2 = u8 [a0 + 0x10]\n  1815: a3 = u8 [a0 + 0x12]\n  1818: a4 = u8 [a0 + 0x13]\n  1821: a1 = a1 << 0x8\n  1824: a1 = a1 | a2\n  1827: a3 = a3 << 0x10\n  1830: a4 = a4 << 0x18\n  1833: a3 = a3 | a4\n  1836: a1 = a1 | a3\n  1839: a2 = u8 [a0 + 0x15]\n  1842: a3 = u8 [a0 + 0x14]\n  1845: a4 = u8 [a0 + 0x16]\n  1848: a5 = u8 [a0 + 0x17]\n  1851: a2 = a2 << 0x8\n  1854: a2 = a2 | a3\n  1857: a4 = a4 << 0x10\n  1860: a5 = a5 << 0x18\n  1863: a4 = a4 | a5\n  1866: a2 = a2 | a4\n  1869: a2 = a2 << 0x20\n  1872: t0 = a2 | a1\n  1875: a2 = u8 [a0 + 0x1]\n  1878: a3 = u8 [a0]\n  1880: a4 = u8 [a0 + 0x2]\n  1883: a5 = u8 [a0 + 0x3]\n  1886: a2 = a2 << 0x8\n  1889: a2 = a2 | a3\n  1892: a4 = a4 << 0x10\n  1895: a5 = a5 << 0x18\n  1898: a4 = a4 | a5\n  1901: a2 = a2 | a4\n  1904: a3 = u8 [a0 + 0x5]\n  1907: a4 = u8 [a0 + 0x4]\n  1910: a5 = u8 [a0 + 0x6]\n  1913: s1 = u8 [a0 + 0x7]\n  1916: a3 = a3 << 0x8\n  1919: a3 = a3 | a4\n  1922: a5 = a5 << 0x10\n  1925: s1 = s1 << 0x18\n  1928: a5 = a5 | s1\n  1931: a3 = a3 | a5\n  1934: a3 = a3 << 0x20\n  1937: a2 = a2 | a3\n  1940: a3 = u8 [a0 + 0x19]\n  1943: a4 = u8 [a0 + 0x18]\n  1946: a5 = u8 [a0 + 0x1a]\n  1949: s1 = u8 [a0 + 0x1b]\n  1952: a3 = a3 << 0x8\n  1955: a3 = a3 | a4\n  1958: a5 = a5 << 0x10\n  1961: s1 = s1 << 0x18\n  1964: a5 = a5 | s1\n  1967: a3 = a3 | a5\n  1970: a4 = u8 [a0 + 0x1d]\n  1973: a5 = u8 [a0 + 0x1c]\n  1976: s1 = u8 [a0 + 0x1e]\n  1979: a1 = u8 [a0 + 0x1f]\n  1982: a4 = a4 << 0x8\n  1985: a4 = a4 | a5\n  1988: s1 = s1 << 0x10\n  1991: a1 = a1 << 0x18\n  1994: a1 = a1 | s1\n  1997: a1 = a1 | a4\n  2000: a1 = a1 << 0x20\n  2003: a3 = a3 | a1\n  2006: a1 = u8 [a0 + 0x9]\n  2009: a4 = u8 [a0 + 0x8]\n  2012: a5 = u8 [a0 + 0xa]\n  2015: s1 = u8 [a0 + 0xb]\n  2018: a1 = a1 << 0x8\n  2021: a1 = a1 | a4\n  2024: a5 = a5 << 0x10\n  2027: s1 = s1 << 0x18\n  2030: a5 = a5 | s1\n  2033: a1 = a1 | a5\n  2036: a4 = u8 [a0 + 0xd]\n  2039: a5 = u8 [a0 + 0xc]\n  2042: s1 = u8 [a0 + 0xe]\n  2045: a0 = u8 [a0 + 0xf]\n  2048: a4 = a4 << 0x8\n  2051: a4 = a4 | a5\n  2054: s1 = s1 << 0x10\n  2057: a0 = a0 << 0x18\n  2060: a0 = a0 | s1\n  2063: a0 = a0 | a4\n  2066: a0 = a0 << 0x20\n  2069: a0 = a0 | a1\n  2072: a1 = reverse a0\n  2074: a0 = reverse a3\n  2076: a2 = reverse a2\n  2078: a3 = reverse t0\n  2080: a2 = a2 | a3\n  2083: a3 = a0 | a1\n  2086: a3 = a3 | a2\n  2089: a3 = a3 >> 0x20\n  2092: a1 = a1 | a2\n  2095: a1 = a1 << 0x20\n  2098: a1 = a1 | a3\n  2101: jump @57 if a1 == 0\n      : @54 (gas: 1)\n  2104: trap\n      : @55 (gas: 3)\n  2105: a0 = 0\n  2107: a1 = 0\n  2109: ra = 42, jump @0\n      : @56 [@dyn 21] (gas: 5)\n  2114: i32 a1 = a0 + 0\n  2116: a0 = 0x1\n  2119: a2 = 0\n  2121: ecalli 12 // 'seal_return'\n  2123: fallthrough\n      : @57 (gas: 4)\n  2124: i32 s1 = a0 + 0\n  2126: a1 = 0x20\n  2129: a0 = s1\n  2131: ra = 44, jump @0\n      : @58 [@dyn 22] (gas: 71)\n  2136: a1 = u64 [sp]\n  2138: a1 = reverse a1\n  2140: a2 = u64 [sp + 0x8]\n  2143: a2 = reverse a2\n  2145: a3 = u64 [sp + 0x10]\n  2148: a3 = reverse a3\n  2150: a4 = u64 [sp + 0x18]\n  2153: a4 = reverse a4\n  2155: a5 = a4 >> 0x38\n  2158: u8 [a0 + 0x1f] = a5\n  2161: a5 = a4 >> 0x30\n  2164: u8 [a0 + 0x1e] = a5\n  2167: a5 = a4 >> 0x28\n  2170: u8 [a0 + 0x1d] = a5\n  2173: a5 = a4 >> 0x20\n  2176: u8 [a0 + 0x1c] = a5\n  2179: a5 = a4 >> 0x18\n  2182: u8 [a0 + 0x1b] = a5\n  2185: a5 = a4 >> 0x10\n  2188: u8 [a0 + 0x1a] = a5\n  2191: a5 = a4 >> 0x8\n  2194: u8 [a0 + 0x19] = a5\n  2197: u8 [a0 + 0x18] = a4\n  2200: u8 [a0 + 0x10] = a3\n  2203: a4 = a3 >> 0x38\n  2206: u8 [a0 + 0x17] = a4\n  2209: a4 = a3 >> 0x30\n  2212: u8 [a0 + 0x16] = a4\n  2215: a4 = a3 >> 0x28\n  2218: u8 [a0 + 0x15] = a4\n  2221: a4 = a3 >> 0x20\n  2224: u8 [a0 + 0x14] = a4\n  2227: a4 = a3 >> 0x18\n  2230: u8 [a0 + 0x13] = a4\n  2233: a4 = a3 >> 0x10\n  2236: u8 [a0 + 0x12] = a4\n  2239: a3 = a3 >> 0x8\n  2242: u8 [a0 + 0x11] = a3\n  2245: u8 [a0 + 0x8] = a2\n  2248: a3 = a2 >> 0x38\n  2251: u8 [a0 + 0xf] = a3\n  2254: a3 = a2 >> 0x30\n  2257: u8 [a0 + 0xe] = a3\n  2260: a3 = a2 >> 0x28\n  2263: u8 [a0 + 0xd] = a3\n  2266: a3 = a2 >> 0x20\n  2269: u8 [a0 + 0xc] = a3\n  2272: a3 = a2 >> 0x18\n  2275: u8 [a0 + 0xb] = a3\n  2278: a3 = a2 >> 0x10\n  2281: u8 [a0 + 0xa] = a3\n  2284: a2 = a2 >> 0x8\n  2287: u8 [a0 + 0x9] = a2\n  2290: u8 [a0] = a1\n  2292: a2 = a1 >> 0x38\n  2295: u8 [a0 + 0x7] = a2\n  2298: a2 = a1 >> 0x30\n  2301: u8 [a0 + 0x6] = a2\n  2304: a2 = a1 >> 0x28\n  2307: u8 [a0 + 0x5] = a2\n  2310: a2 = a1 >> 0x20\n  2313: u8 [a0 + 0x4] = a2\n  2316: a2 = a1 >> 0x18\n  2319: u8 [a0 + 0x3] = a2\n  2322: a2 = a1 >> 0x10\n  2325: u8 [a0 + 0x2] = a2\n  2328: a1 = a1 >> 0x8\n  2331: u8 [a0 + 0x1] = a1\n  2334: a1 = 0x20\n  2337: a0 = s1\n  2339: ra = 46, jump @0\n      : @59 [@dyn 23] (gas: 6)\n  2344: i32 a1 = a0 + 0\n  2346: a2 = 0x20\n  2349: a0 = 0\n  2351: ra = 0x30\n  2354: ecalli 12 // 'seal_return'\n  2356: fallthrough\n      : @60 [@dyn 24] (gas: 9)\n  2357: a2 = u64 [a1 + 0x18]\n  2360: a3 = u64 [a1 + 0x10]\n  2363: a4 = u64 [a1 + 0x8]\n  2366: a1 = u64 [a1]\n  2368: u64 [a0 + 0x18] = a2\n  2371: u64 [a0 + 0x10] = a3\n  2374: u64 [a0 + 0x8] = a4\n  2377: u64 [a0] = a1\n  2379: ret\n      : @61 (gas: 8)\n  2381: a0 = u64 [sp + 0x10]\n  2384: a1 = u64 [sp + 0x18]\n  2387: a2 = u64 [sp + 0x8]\n  2390: a3 = u64 [sp]\n  2392: a1 = a1 | a2\n  2395: a0 = a0 | a3\n  2398: a0 = a0 | a1\n  2401: jump @67 if a0 != 0\n      : @62 (gas: 2)\n  2405: a0 = i32 [0x20004]\n  2410: jump @67 if a0 <=u 3\n      : @63 (gas: 38)\n  2415: ra = 0x32\n  2418: sp = sp + 0xfffffffffffffdc0\n  2422: u64 [sp + 0x238] = ra\n  2426: u64 [sp + 0x230] = s0\n  2430: u64 [sp + 0x228] = s1\n  2434: s0 = sp + 0x240\n  2438: sp = sp & 0xffffffffffffffe0\n  2441: s1 = sp\n  2443: u64 [s1 + 504] = 0\n  2447: u64 [s1 + 496] = 0\n  2451: u64 [s1 + 488] = 0\n  2455: u64 [s1 + 480] = 0x2\n  2460: u64 [s1 + 536] = 0\n  2464: u64 [s1 + 528] = 0\n  2468: u64 [s1 + 520] = 0\n  2472: u64 [s1 + 512] = 0\n  2476: u32 [s1 + 544] = 0x20\n  2481: i32 a1 = s1 + 0x1e0\n  2485: i32 a3 = s1 + 0x200\n  2489: i32 a4 = s1 + 0x220\n  2493: a2 = 0xffffffffffffffff\n  2496: a0 = 0\n  2498: ecalli 7 // 'get_storage'\n  2500: a0 = u64 [s1 + 0x208]\n  2504: a1 = u64 [s1 + 0x200]\n  2508: a3 = u64 [s1 + 0x210]\n  2512: u64 [s1 + 0x48] = a3\n  2515: a2 = a0 << 0x38\n  2518: a1 = a1 >> 0x8\n  2521: a1 = a1 | a2\n  2524: u64 [s1 + 0x58] = a1\n  2527: a1 = a3 << 0x38\n  2530: a0 = a0 >> 0x8\n  2533: a0 = a0 | a1\n  2536: u64 [s1 + 0x50] = a0\n  2539: i32 a0 = s1 + 0x100\n  2543: ecalli 6 // 'caller'\n  2545: jump @182\n      : @64 [@dyn 25] (gas: 3)\n  2548: a0 = 0x40\n  2551: a1 = 0x20\n  2554: ra = 52, jump @0\n      : @65 [@dyn 26] (gas: 100)\n  2559: a1 = u8 [a0 + 0x11]\n  2562: a2 = u8 [a0 + 0x10]\n  2565: a3 = u8 [a0 + 0x12]\n  2568: a4 = u8 [a0 + 0x13]\n  2571: a1 = a1 << 0x8\n  2574: a1 = a1 | a2\n  2577: a3 = a3 << 0x10\n  2580: a4 = a4 << 0x18\n  2583: a3 = a3 | a4\n  2586: a1 = a1 | a3\n  2589: a2 = u8 [a0 + 0x15]\n  2592: a3 = u8 [a0 + 0x14]\n  2595: a4 = u8 [a0 + 0x16]\n  2598: a5 = u8 [a0 + 0x17]\n  2601: a2 = a2 << 0x8\n  2604: a2 = a2 | a3\n  2607: a4 = a4 << 0x10\n  2610: a5 = a5 << 0x18\n  2613: a4 = a4 | a5\n  2616: a2 = a2 | a4\n  2619: a2 = a2 << 0x20\n  2622: t0 = a2 | a1\n  2625: a2 = u8 [a0 + 0x1]\n  2628: a3 = u8 [a0]\n  2630: a4 = u8 [a0 + 0x2]\n  2633: a5 = u8 [a0 + 0x3]\n  2636: a2 = a2 << 0x8\n  2639: a2 = a2 | a3\n  2642: a4 = a4 << 0x10\n  2645: a5 = a5 << 0x18\n  2648: a4 = a4 | a5\n  2651: a2 = a2 | a4\n  2654: a3 = u8 [a0 + 0x5]\n  2657: a4 = u8 [a0 + 0x4]\n  2660: a5 = u8 [a0 + 0x6]\n  2663: a1 = u8 [a0 + 0x7]\n  2666: a3 = a3 << 0x8\n  2669: a3 = a3 | a4\n  2672: a5 = a5 << 0x10\n  2675: a1 = a1 << 0x18\n  2678: a1 = a1 | a5\n  2681: a1 = a1 | a3\n  2684: a1 = a1 << 0x20\n  2687: t1 = a1 | a2\n  2690: a1 = u8 [a0 + 0x19]\n  2693: a3 = u8 [a0 + 0x18]\n  2696: a4 = u8 [a0 + 0x1a]\n  2699: a5 = u8 [a0 + 0x1b]\n  2702: a1 = a1 << 0x8\n  2705: a1 = a1 | a3\n  2708: a4 = a4 << 0x10\n  2711: a5 = a5 << 0x18\n  2714: a4 = a4 | a5\n  2717: a1 = a1 | a4\n  2720: a3 = u8 [a0 + 0x1d]\n  2723: a4 = u8 [a0 + 0x1c]\n  2726: a5 = u8 [a0 + 0x1e]\n  2729: a2 = u8 [a0 + 0x1f]\n  2732: a3 = a3 << 0x8\n  2735: a3 = a3 | a4\n  2738: a5 = a5 << 0x10\n  2741: a2 = a2 << 0x18\n  2744: a2 = a2 | a5\n  2747: a2 = a2 | a3\n  2750: a2 = a2 << 0x20\n  2753: a3 = a2 | a1\n  2756: a1 = u8 [a0 + 0x9]\n  2759: a2 = u8 [a0 + 0x8]\n  2762: a4 = u8 [a0 + 0xa]\n  2765: a5 = u8 [a0 + 0xb]\n  2768: a1 = a1 << 0x8\n  2771: a1 = a1 | a2\n  2774: a4 = a4 << 0x10\n  2777: a5 = a5 << 0x18\n  2780: a4 = a4 | a5\n  2783: a1 = a1 | a4\n  2786: a2 = u8 [a0 + 0xd]\n  2789: a4 = u8 [a0 + 0xc]\n  2792: a5 = u8 [a0 + 0xe]\n  2795: a0 = u8 [a0 + 0xf]\n  2798: a2 = a2 << 0x8\n  2801: a2 = a2 | a4\n  2804: a5 = a5 << 0x10\n  2807: a0 = a0 << 0x18\n  2810: a0 = a0 | a5\n  2813: a0 = a0 | a2\n  2816: a0 = a0 << 0x20\n  2819: a0 = a0 | a1\n  2822: a1 = reverse a0\n  2824: a0 = reverse a3\n  2826: a2 = reverse t1\n  2828: a3 = reverse t0\n  2830: a2 = a2 | a3\n  2833: a3 = a0 | a1\n  2836: a3 = a3 | a2\n  2839: a3 = a3 >> 0x20\n  2842: a1 = a1 | a2\n  2845: a1 = a1 << 0x20\n  2848: a1 = a1 | a3\n  2851: jump @69 if a1 == 0\n      : @66 (gas: 1)\n  2854: trap\n      : @67 (gas: 3)\n  2855: a0 = 0\n  2857: a1 = 0\n  2859: ra = 54, jump @0\n      : @68 [@dyn 27] (gas: 7)\n  2864: i32 a1 = a0 + 0\n  2866: a0 = 0x1\n  2869: a2 = 0\n  2871: ecalli 12 // 'seal_return'\n  2873: i32 a0 = a0 + 0\n  2875: ra = 0x38\n  2878: jump @0\n      : @69 (gas: 2)\n  2881: i32 a0 = a0 + 0\n  2883: ra = 56, jump @0\n      : @70 [@dyn 28] (gas: 6)\n  2888: i32 a1 = a0 + 0\n  2890: a0 = 0\n  2892: a2 = 0\n  2894: ra = 0x3a\n  2897: ecalli 12 // 'seal_return'\n  2899: fallthrough\n      : @71 [@dyn 29] (gas: 194)\n  2900: sp = sp + 0xffffffffffffffa0\n  2903: u64 [sp + 0x58] = ra\n  2906: u64 [sp + 0x50] = s0\n  2909: u64 [sp + 0x48] = s1\n  2912: u64 [sp] = a0\n  2914: t1 = u64 [a1]\n  2916: ra = u64 [a1 + 0x8]\n  2919: a4 = u64 [a1 + 0x10]\n  2922: a1 = u64 [a1 + 0x18]\n  2925: t0 = u64 [a2]\n  2927: a3 = u64 [a2 + 0x8]\n  2930: t2 = u64 [a2 + 0x18]\n  2933: a2 = u64 [a2 + 0x10]\n  2936: s0 = t0 >> 0x3d\n  2939: s1 = a3 << 0x3\n  2942: s0 = s0 | s1\n  2945: a3 = a3 >> 0x3d\n  2948: s1 = a2 << 0x3\n  2951: a3 = a3 | s1\n  2954: a2 = a2 >> 0x3d\n  2957: t2 = t2 << 0x3\n  2960: s1 = t2 | a2\n  2963: t2 = t0 << 0x3\n  2966: a2 = s1 >u 0\n  2968: a5 = a3 >u 0\n  2970: a5 = a2 if s1 != 0\n  2973: a0 = s0 >u 0\n  2975: a2 = t2 <u 0x100\n  2979: t2 = a2 ^ 0x1\n  2982: t2 = a0 if s0 != 0\n  2985: a3 = a3 | s1\n  2988: t2 = a5 if a3 != 0\n  2991: u8 [sp + 71] = 0\n  2994: u8 [sp + 70] = 0\n  2997: u8 [sp + 69] = 0\n  3000: u8 [sp + 68] = 0\n  3003: u8 [sp + 67] = 0\n  3006: u8 [sp + 66] = 0\n  3009: u8 [sp + 65] = 0\n  3012: u8 [sp + 64] = 0\n  3015: u8 [sp + 63] = 0\n  3018: u8 [sp + 62] = 0\n  3021: u8 [sp + 61] = 0\n  3024: u8 [sp + 60] = 0\n  3027: u8 [sp + 59] = 0\n  3030: u8 [sp + 58] = 0\n  3033: u8 [sp + 57] = 0\n  3036: u8 [sp + 56] = 0\n  3039: u8 [sp + 55] = 0\n  3042: u8 [sp + 54] = 0\n  3045: u8 [sp + 53] = 0\n  3048: u8 [sp + 52] = 0\n  3051: u8 [sp + 51] = 0\n  3054: u8 [sp + 50] = 0\n  3057: u8 [sp + 49] = 0\n  3060: u8 [sp + 48] = 0\n  3063: u8 [sp + 47] = 0\n  3066: u8 [sp + 46] = 0\n  3069: u8 [sp + 45] = 0\n  3072: u8 [sp + 44] = 0\n  3075: u8 [sp + 43] = 0\n  3078: u8 [sp + 42] = 0\n  3081: u8 [sp + 41] = 0\n  3084: u8 [sp + 40] = 0\n  3087: u8 [sp + 0x20] = a1\n  3090: u8 [sp + 0x18] = a4\n  3093: u8 [sp + 0x10] = ra\n  3096: u8 [sp + 0x8] = t1\n  3099: a0 = a1 >> 0x38\n  3102: u8 [sp + 0x27] = a0\n  3105: a0 = a1 >> 0x30\n  3108: u8 [sp + 0x26] = a0\n  3111: a0 = a1 >> 0x28\n  3114: u8 [sp + 0x25] = a0\n  3117: a0 = a1 >> 0x20\n  3120: u8 [sp + 0x24] = a0\n  3123: a0 = a1 >> 0x18\n  3126: u8 [sp + 0x23] = a0\n  3129: a0 = a1 >> 0x10\n  3132: u8 [sp + 0x22] = a0\n  3135: a1 = a1 >> 0x8\n  3138: u8 [sp + 0x21] = a1\n  3141: a0 = a4 >> 0x38\n  3144: u8 [sp + 0x1f] = a0\n  3147: a0 = a4 >> 0x30\n  3150: u8 [sp + 0x1e] = a0\n  3153: a0 = a4 >> 0x28\n  3156: u8 [sp + 0x1d] = a0\n  3159: a0 = a4 >> 0x20\n  3162: u8 [sp + 0x1c] = a0\n  3165: a0 = a4 >> 0x18\n  3168: u8 [sp + 0x1b] = a0\n  3171: a0 = a4 >> 0x10\n  3174: u8 [sp + 0x1a] = a0\n  3177: a4 = a4 >> 0x8\n  3180: u8 [sp + 0x19] = a4\n  3183: a0 = ra >> 0x38\n  3186: u8 [sp + 0x17] = a0\n  3189: a0 = ra >> 0x30\n  3192: u8 [sp + 0x16] = a0\n  3195: a0 = ra >> 0x28\n  3198: u8 [sp + 0x15] = a0\n  3201: a0 = ra >> 0x20\n  3204: u8 [sp + 0x14] = a0\n  3207: a0 = ra >> 0x18\n  3210: u8 [sp + 0x13] = a0\n  3213: a0 = ra >> 0x10\n  3216: u8 [sp + 0x12] = a0\n  3219: a0 = ra >> 0x8\n  3222: u8 [sp + 0x11] = a0\n  3225: a0 = t1 >> 0x38\n  3228: u8 [sp + 0xf] = a0\n  3231: a0 = t1 >> 0x30\n  3234: u8 [sp + 0xe] = a0\n  3237: a0 = t1 >> 0x28\n  3240: u8 [sp + 0xd] = a0\n  3243: a0 = t1 >> 0x20\n  3246: u8 [sp + 0xc] = a0\n  3249: a0 = t1 >> 0x18\n  3252: u8 [sp + 0xb] = a0\n  3255: a0 = t1 >> 0x10\n  3258: u8 [sp + 0xa] = a0\n  3261: a0 = t1 >> 0x8\n  3264: u8 [sp + 0x9] = a0\n  3267: a1 = t0 & 0x1f\n  3270: a0 = sp + 0x8\n  3273: a1 = a1 + a0\n  3276: a0 = u8 [a1 + 0x9]\n  3279: a2 = u8 [a1 + 0x8]\n  3282: a3 = u8 [a1 + 0xa]\n  3285: a4 = u8 [a1 + 0xb]\n  3288: a0 = a0 << 0x8\n  3291: a0 = a0 | a2\n  3294: a3 = a3 << 0x10\n  3297: a4 = a4 << 0x18\n  3300: a3 = a3 | a4\n  3303: a0 = a0 | a3\n  3306: a2 = u8 [a1 + 0xd]\n  3309: a3 = u8 [a1 + 0xc]\n  3312: a4 = u8 [a1 + 0xe]\n  3315: a5 = u8 [a1 + 0xf]\n  3318: a2 = a2 << 0x8\n  3321: a2 = a2 | a3\n  3324: a4 = a4 << 0x10\n  3327: a5 = a5 << 0x18\n  3330: a4 = a4 | a5\n  3333: a2 = a2 | a4\n  3336: a2 = a2 << 0x20\n  3339: a3 = a2 | a0\n  3342: a0 = u8 [a1 + 0x1]\n  3345: a2 = u8 [a1]\n  3347: a4 = u8 [a1 + 0x2]\n  3350: a5 = u8 [a1 + 0x3]\n  3353: a0 = a0 << 0x8\n  3356: a0 = a0 | a2\n  3359: a4 = a4 << 0x10\n  3362: a5 = a5 << 0x18\n  3365: a4 = a4 | a5\n  3368: a0 = a0 | a4\n  3371: a2 = u8 [a1 + 0x5]\n  3374: a4 = u8 [a1 + 0x4]\n  3377: a5 = u8 [a1 + 0x6]\n  3380: s1 = u8 [a1 + 0x7]\n  3383: a2 = a2 << 0x8\n  3386: a2 = a2 | a4\n  3389: a5 = a5 << 0x10\n  3392: s1 = s1 << 0x18\n  3395: a5 = a5 | s1\n  3398: a2 = a2 | a5\n  3401: a2 = a2 << 0x20\n  3404: a0 = a0 | a2\n  3407: a2 = u8 [a1 + 0x11]\n  3410: a4 = u8 [a1 + 0x10]\n  3413: a5 = u8 [a1 + 0x12]\n  3416: a1 = u8 [a1 + 0x13]\n  3419: a2 = a2 << 0x8\n  3422: a2 = a2 | a4\n  3425: a5 = a5 << 0x10\n  3428: a1 = a1 << 0x18\n  3431: a1 = a1 | a5\n  3434: a1 = a1 | a2\n  3437: a0 = 0 if t2 != 0\n  3439: a3 = 0 if t2 != 0\n  3441: a1 = 0 if t2 != 0\n  3443: a2 = u64 [sp]\n  3445: u64 [a2 + 24] = 0\n  3448: u64 [a2 + 0x10] = a1\n  3451: u64 [a2 + 0x8] = a3\n  3454: u64 [a2] = a0\n  3456: ra = u64 [sp + 0x58]\n  3459: s0 = u64 [sp + 0x50]\n  3462: s1 = u64 [sp + 0x48]\n  3465: sp = sp + 0x60\n  3468: ret\n      : @72 (gas: 8)\n  3470: a0 = u64 [sp + 0x30]\n  3473: a1 = u64 [sp + 0x38]\n  3476: a2 = u64 [sp + 0x28]\n  3479: a3 = u64 [sp + 0x20]\n  3482: a1 = a1 | a2\n  3485: a0 = a0 | a3\n  3488: a0 = a0 | a1\n  3491: jump @77 if a0 != 0\n      : @73 (gas: 2)\n  3495: a0 = i32 [0x20004]\n  3500: jump @77 if a0 <=u 3\n      : @74 (gas: 24)\n  3505: u64 [sp + 88] = 0\n  3508: u64 [sp + 80] = 0\n  3511: u64 [sp + 72] = 0\n  3514: u64 [sp + 64] = 0x2\n  3518: u64 [sp + 120] = 0\n  3521: u64 [sp + 112] = 0\n  3524: u64 [sp + 104] = 0\n  3527: u64 [sp + 96] = 0\n  3530: u32 [sp + 128] = 0x20\n  3535: i32 a1 = sp + 0x40\n  3538: i32 a3 = sp + 0x60\n  3541: i32 a4 = sp + 0x80\n  3545: a2 = 0xffffffffffffffff\n  3548: a0 = 0\n  3550: ecalli 7 // 'get_storage'\n  3552: a0 = u64 [sp + 0x70]\n  3555: u64 [sp + 0x18] = a0\n  3558: a0 = u64 [sp + 0x68]\n  3561: u64 [sp + 0x10] = a0\n  3564: a0 = u64 [sp + 0x60]\n  3567: u64 [sp + 0x8] = a0\n  3570: a0 = 0x40\n  3573: a1 = 0x20\n  3576: ra = 60, jump @0\n      : @75 [@dyn 30] (gas: 100)\n  3581: a1 = u8 [a0 + 0x11]\n  3584: a2 = u8 [a0 + 0x10]\n  3587: a3 = u8 [a0 + 0x12]\n  3590: a4 = u8 [a0 + 0x13]\n  3593: a1 = a1 << 0x8\n  3596: a1 = a1 | a2\n  3599: a3 = a3 << 0x10\n  3602: a4 = a4 << 0x18\n  3605: a3 = a3 | a4\n  3608: a1 = a1 | a3\n  3611: a2 = u8 [a0 + 0x15]\n  3614: a3 = u8 [a0 + 0x14]\n  3617: a4 = u8 [a0 + 0x16]\n  3620: a5 = u8 [a0 + 0x17]\n  3623: a2 = a2 << 0x8\n  3626: a2 = a2 | a3\n  3629: a4 = a4 << 0x10\n  3632: a5 = a5 << 0x18\n  3635: a4 = a4 | a5\n  3638: a2 = a2 | a4\n  3641: a2 = a2 << 0x20\n  3644: t0 = a2 | a1\n  3647: a2 = u8 [a0 + 0x1]\n  3650: a3 = u8 [a0]\n  3652: a4 = u8 [a0 + 0x2]\n  3655: a5 = u8 [a0 + 0x3]\n  3658: a2 = a2 << 0x8\n  3661: a2 = a2 | a3\n  3664: a4 = a4 << 0x10\n  3667: a5 = a5 << 0x18\n  3670: a4 = a4 | a5\n  3673: a2 = a2 | a4\n  3676: a3 = u8 [a0 + 0x5]\n  3679: a4 = u8 [a0 + 0x4]\n  3682: a5 = u8 [a0 + 0x6]\n  3685: s1 = u8 [a0 + 0x7]\n  3688: a3 = a3 << 0x8\n  3691: a3 = a3 | a4\n  3694: a5 = a5 << 0x10\n  3697: s1 = s1 << 0x18\n  3700: a5 = a5 | s1\n  3703: a3 = a3 | a5\n  3706: a3 = a3 << 0x20\n  3709: a2 = a2 | a3\n  3712: a3 = u8 [a0 + 0x19]\n  3715: a4 = u8 [a0 + 0x18]\n  3718: a5 = u8 [a0 + 0x1a]\n  3721: s1 = u8 [a0 + 0x1b]\n  3724: a3 = a3 << 0x8\n  3727: a3 = a3 | a4\n  3730: a5 = a5 << 0x10\n  3733: s1 = s1 << 0x18\n  3736: a5 = a5 | s1\n  3739: a3 = a3 | a5\n  3742: a4 = u8 [a0 + 0x1d]\n  3745: a5 = u8 [a0 + 0x1c]\n  3748: s1 = u8 [a0 + 0x1e]\n  3751: a1 = u8 [a0 + 0x1f]\n  3754: a4 = a4 << 0x8\n  3757: a4 = a4 | a5\n  3760: s1 = s1 << 0x10\n  3763: a1 = a1 << 0x18\n  3766: a1 = a1 | s1\n  3769: a1 = a1 | a4\n  3772: a1 = a1 << 0x20\n  3775: a3 = a3 | a1\n  3778: a1 = u8 [a0 + 0x9]\n  3781: a4 = u8 [a0 + 0x8]\n  3784: a5 = u8 [a0 + 0xa]\n  3787: s1 = u8 [a0 + 0xb]\n  3790: a1 = a1 << 0x8\n  3793: a1 = a1 | a4\n  3796: a5 = a5 << 0x10\n  3799: s1 = s1 << 0x18\n  3802: a5 = a5 | s1\n  3805: a1 = a1 | a5\n  3808: a4 = u8 [a0 + 0xd]\n  3811: a5 = u8 [a0 + 0xc]\n  3814: s1 = u8 [a0 + 0xe]\n  3817: a0 = u8 [a0 + 0xf]\n  3820: a4 = a4 << 0x8\n  3823: a4 = a4 | a5\n  3826: s1 = s1 << 0x10\n  3829: a0 = a0 << 0x18\n  3832: a0 = a0 | s1\n  3835: a0 = a0 | a4\n  3838: a0 = a0 << 0x20\n  3841: a0 = a0 | a1\n  3844: a1 = reverse a0\n  3846: a0 = reverse a3\n  3848: a2 = reverse a2\n  3850: a3 = reverse t0\n  3852: a2 = a2 | a3\n  3855: a3 = a0 | a1\n  3858: a3 = a3 | a2\n  3861: a3 = a3 >> 0x20\n  3864: a1 = a1 | a2\n  3867: a1 = a1 << 0x20\n  3870: a1 = a1 | a3\n  3873: jump @79 if a1 == 0\n      : @76 (gas: 1)\n  3876: trap\n      : @77 (gas: 3)\n  3877: a0 = 0\n  3879: a1 = 0\n  3881: ra = 62, jump @0\n      : @78 [@dyn 31] (gas: 5)\n  3886: i32 a1 = a0 + 0\n  3888: a0 = 0x1\n  3891: a2 = 0\n  3893: ecalli 12 // 'seal_return'\n  3895: fallthrough\n      : @79 (gas: 17)\n  3896: a1 = u64 [sp + 0x8]\n  3899: a1 = a1 >> 0x8\n  3902: a3 = u64 [sp + 0x10]\n  3905: a2 = a3 << 0x38\n  3908: a1 = a1 | a2\n  3911: u64 [sp + 0x8] = a1\n  3914: a1 = a3 >> 0x8\n  3917: a3 = u64 [sp + 0x18]\n  3920: a2 = a3 << 0x38\n  3923: s1 = a1 | a2\n  3926: a1 = a3 << 0x18\n  3929: a1 = a1 >> 0x20\n  3932: u64 [sp + 0x10] = a1\n  3935: i32 a0 = a0 + 0\n  3937: u64 [sp + 0x18] = a0\n  3940: a1 = 0x20\n  3943: ra = 64, jump @0\n      : @80 [@dyn 32] (gas: 58)\n  3948: a2 = reverse s1\n  3950: a1 = u64 [sp + 0x8]\n  3953: a3 = reverse a1\n  3955: a1 = u64 [sp + 0x10]\n  3958: a1 = reverse a1\n  3960: u8 [a0 + 11] = 0\n  3963: u8 [a0 + 10] = 0\n  3966: u8 [a0 + 9] = 0\n  3969: u8 [a0 + 7] = 0\n  3972: u8 [a0 + 6] = 0\n  3975: u8 [a0 + 5] = 0\n  3978: u8 [a0 + 4] = 0\n  3981: u8 [a0 + 3] = 0\n  3984: u8 [a0 + 2] = 0\n  3987: u8 [a0 + 1] = 0\n  3990: u8 [a0 + 0] = 0\n  3992: u8 [a0 + 0x18] = a3\n  3995: a4 = a3 >> 0x38\n  3998: u8 [a0 + 0x1f] = a4\n  4001: a4 = a3 >> 0x30\n  4004: u8 [a0 + 0x1e] = a4\n  4007: a4 = a3 >> 0x28\n  4010: u8 [a0 + 0x1d] = a4\n  4013: a4 = a3 >> 0x20\n  4016: u8 [a0 + 0x1c] = a4\n  4019: a4 = a3 >> 0x18\n  4022: u8 [a0 + 0x1b] = a4\n  4025: a4 = a3 >> 0x10\n  4028: u8 [a0 + 0x1a] = a4\n  4031: a3 = a3 >> 0x8\n  4034: u8 [a0 + 0x19] = a3\n  4037: u8 [a0 + 0x10] = a2\n  4040: u8 [a0 + 0x8] = a1\n  4043: a3 = a2 >> 0x38\n  4046: u8 [a0 + 0x17] = a3\n  4049: a3 = a2 >> 0x30\n  4052: u8 [a0 + 0x16] = a3\n  4055: a3 = a2 >> 0x28\n  4058: u8 [a0 + 0x15] = a3\n  4061: a3 = a2 >> 0x20\n  4064: u8 [a0 + 0x14] = a3\n  4067: a3 = a2 >> 0x18\n  4070: u8 [a0 + 0x13] = a3\n  4073: a3 = a2 >> 0x10\n  4076: u8 [a0 + 0x12] = a3\n  4079: a2 = a2 >> 0x8\n  4082: u8 [a0 + 0x11] = a2\n  4085: a2 = a1 >> 0x38\n  4088: u8 [a0 + 0xf] = a2\n  4091: a2 = a1 >> 0x30\n  4094: u8 [a0 + 0xe] = a2\n  4097: a2 = a1 >> 0x28\n  4100: u8 [a0 + 0xd] = a2\n  4103: a1 = a1 >> 0x20\n  4106: u8 [a0 + 0xc] = a1\n  4109: a1 = 0x20\n  4112: a0 = u64 [sp + 0x18]\n  4115: ra = 66, jump @0\n      : @81 [@dyn 33] (gas: 6)\n  4120: i32 a1 = a0 + 0\n  4122: a2 = 0x20\n  4125: a0 = 0\n  4127: ra = 0x44\n  4130: ecalli 12 // 'seal_return'\n  4132: fallthrough\n      : @82 [@dyn 34] (gas: 36)\n  4133: sp = sp + 0xffffffffffffffa0\n  4136: u64 [sp + 0x58] = ra\n  4139: u64 [sp + 0x50] = s0\n  4142: u64 [sp + 0x48] = s1\n  4145: s0 = sp + 0x60\n  4148: sp = sp & 0xffffffffffffffe0\n  4151: s1 = a0\n  4153: u64 [sp + 24] = 0\n  4156: u64 [sp + 16] = 0\n  4159: u64 [sp + 8] = 0\n  4162: u64 [sp + 0] = 0x1\n  4165: u64 [sp + 56] = 0\n  4168: u64 [sp + 48] = 0\n  4171: u64 [sp + 40] = 0\n  4174: u64 [sp + 32] = 0\n  4177: u32 [sp + 64] = 0x20\n  4181: i32 a1 = sp + 0\n  4183: i32 a3 = sp + 0x20\n  4186: i32 a4 = sp + 0x40\n  4189: a2 = 0xffffffffffffffff\n  4192: a0 = 0\n  4194: ecalli 7 // 'get_storage'\n  4196: a0 = u64 [sp + 0x38]\n  4199: a1 = u64 [sp + 0x30]\n  4202: a2 = u64 [sp + 0x28]\n  4205: a3 = u64 [sp + 0x20]\n  4208: u64 [s1 + 0x18] = a0\n  4211: u64 [s1 + 0x10] = a1\n  4214: u64 [s1 + 0x8] = a2\n  4217: u64 [s1] = a3\n  4219: sp = s0 + 0xffffffffffffffa0\n  4222: ra = u64 [sp + 0x58]\n  4225: s0 = u64 [sp + 0x50]\n  4228: s1 = u64 [sp + 0x48]\n  4231: sp = sp + 0x60\n  4234: ret\n      : @83 (gas: 8)\n  4236: a0 = u64 [sp + 0x30]\n  4239: a1 = u64 [sp + 0x38]\n  4242: a2 = u64 [sp + 0x28]\n  4245: a3 = u64 [sp + 0x20]\n  4248: a1 = a1 | a2\n  4251: a0 = a0 | a3\n  4254: a0 = a0 | a1\n  4257: jump @88 if a0 != 0\n      : @84 (gas: 2)\n  4261: a0 = i32 [0x20004]\n  4266: jump @88 if a0 <=u 3\n      : @85 (gas: 26)\n  4271: u64 [sp + 88] = 0\n  4274: u64 [sp + 80] = 0\n  4277: u64 [sp + 72] = 0\n  4280: u64 [sp + 64] = 0x1\n  4284: u64 [sp + 120] = 0\n  4287: u64 [sp + 112] = 0\n  4290: u64 [sp + 104] = 0\n  4293: u64 [sp + 96] = 0\n  4296: u32 [sp + 128] = 0x20\n  4301: i32 a1 = sp + 0x40\n  4304: i32 a3 = sp + 0x60\n  4307: i32 a4 = sp + 0x80\n  4311: a2 = 0xffffffffffffffff\n  4314: a0 = 0\n  4316: ecalli 7 // 'get_storage'\n  4318: a0 = u64 [sp + 0x78]\n  4321: u64 [sp] = a0\n  4323: a0 = u64 [sp + 0x70]\n  4326: u64 [sp + 0x8] = a0\n  4329: a0 = u64 [sp + 0x68]\n  4332: u64 [sp + 0x10] = a0\n  4335: a0 = u64 [sp + 0x60]\n  4338: u64 [sp + 0x18] = a0\n  4341: a0 = 0x40\n  4344: a1 = 0x20\n  4347: ra = 70, jump @0\n      : @86 [@dyn 35] (gas: 100)\n  4352: a1 = u8 [a0 + 0x11]\n  4355: a2 = u8 [a0 + 0x10]\n  4358: a3 = u8 [a0 + 0x12]\n  4361: a4 = u8 [a0 + 0x13]\n  4364: a1 = a1 << 0x8\n  4367: a1 = a1 | a2\n  4370: a3 = a3 << 0x10\n  4373: a4 = a4 << 0x18\n  4376: a3 = a3 | a4\n  4379: a1 = a1 | a3\n  4382: a2 = u8 [a0 + 0x15]\n  4385: a3 = u8 [a0 + 0x14]\n  4388: a4 = u8 [a0 + 0x16]\n  4391: a5 = u8 [a0 + 0x17]\n  4394: a2 = a2 << 0x8\n  4397: a2 = a2 | a3\n  4400: a4 = a4 << 0x10\n  4403: a5 = a5 << 0x18\n  4406: a4 = a4 | a5\n  4409: a2 = a2 | a4\n  4412: a2 = a2 << 0x20\n  4415: t0 = a2 | a1\n  4418: a2 = u8 [a0 + 0x1]\n  4421: a3 = u8 [a0]\n  4423: a4 = u8 [a0 + 0x2]\n  4426: a5 = u8 [a0 + 0x3]\n  4429: a2 = a2 << 0x8\n  4432: a2 = a2 | a3\n  4435: a4 = a4 << 0x10\n  4438: a5 = a5 << 0x18\n  4441: a4 = a4 | a5\n  4444: a2 = a2 | a4\n  4447: a3 = u8 [a0 + 0x5]\n  4450: a4 = u8 [a0 + 0x4]\n  4453: a5 = u8 [a0 + 0x6]\n  4456: s1 = u8 [a0 + 0x7]\n  4459: a3 = a3 << 0x8\n  4462: a3 = a3 | a4\n  4465: a5 = a5 << 0x10\n  4468: s1 = s1 << 0x18\n  4471: a5 = a5 | s1\n  4474: a3 = a3 | a5\n  4477: a3 = a3 << 0x20\n  4480: a2 = a2 | a3\n  4483: a3 = u8 [a0 + 0x19]\n  4486: a4 = u8 [a0 + 0x18]\n  4489: a5 = u8 [a0 + 0x1a]\n  4492: s1 = u8 [a0 + 0x1b]\n  4495: a3 = a3 << 0x8\n  4498: a3 = a3 | a4\n  4501: a5 = a5 << 0x10\n  4504: s1 = s1 << 0x18\n  4507: a5 = a5 | s1\n  4510: a3 = a3 | a5\n  4513: a4 = u8 [a0 + 0x1d]\n  4516: a5 = u8 [a0 + 0x1c]\n  4519: s1 = u8 [a0 + 0x1e]\n  4522: a1 = u8 [a0 + 0x1f]\n  4525: a4 = a4 << 0x8\n  4528: a4 = a4 | a5\n  4531: s1 = s1 << 0x10\n  4534: a1 = a1 << 0x18\n  4537: a1 = a1 | s1\n  4540: a1 = a1 | a4\n  4543: a1 = a1 << 0x20\n  4546: a3 = a3 | a1\n  4549: a1 = u8 [a0 + 0x9]\n  4552: a4 = u8 [a0 + 0x8]\n  4555: a5 = u8 [a0 + 0xa]\n  4558: s1 = u8 [a0 + 0xb]\n  4561: a1 = a1 << 0x8\n  4564: a1 = a1 | a4\n  4567: a5 = a5 << 0x10\n  4570: s1 = s1 << 0x18\n  4573: a5 = a5 | s1\n  4576: a1 = a1 | a5\n  4579: a4 = u8 [a0 + 0xd]\n  4582: a5 = u8 [a0 + 0xc]\n  4585: s1 = u8 [a0 + 0xe]\n  4588: a0 = u8 [a0 + 0xf]\n  4591: a4 = a4 << 0x8\n  4594: a4 = a4 | a5\n  4597: s1 = s1 << 0x10\n  4600: a0 = a0 << 0x18\n  4603: a0 = a0 | s1\n  4606: a0 = a0 | a4\n  4609: a0 = a0 << 0x20\n  4612: a0 = a0 | a1\n  4615: a1 = reverse a0\n  4617: a0 = reverse a3\n  4619: a2 = reverse a2\n  4621: a3 = reverse t0\n  4623: a2 = a2 | a3\n  4626: a3 = a0 | a1\n  4629: a3 = a3 | a2\n  4632: a3 = a3 >> 0x20\n  4635: a1 = a1 | a2\n  4638: a1 = a1 << 0x20\n  4641: a1 = a1 | a3\n  4644: jump @90 if a1 == 0\n      : @87 (gas: 1)\n  4647: trap\n      : @88 (gas: 3)\n  4648: a0 = 0\n  4650: a1 = 0\n  4652: ra = 72, jump @0\n      : @89 [@dyn 36] (gas: 5)\n  4657: i32 a1 = a0 + 0\n  4659: a0 = 0x1\n  4662: a2 = 0\n  4664: ecalli 12 // 'seal_return'\n  4666: fallthrough\n      : @90 (gas: 4)\n  4667: i32 s1 = a0 + 0\n  4669: a1 = 0x20\n  4672: a0 = s1\n  4674: ra = 74, jump @0\n      : @91 [@dyn 37] (gas: 71)\n  4679: a1 = u64 [sp]\n  4681: a1 = reverse a1\n  4683: a2 = u64 [sp + 0x8]\n  4686: a2 = reverse a2\n  4688: a3 = u64 [sp + 0x10]\n  4691: a3 = reverse a3\n  4693: a4 = u64 [sp + 0x18]\n  4696: a4 = reverse a4\n  4698: a5 = a4 >> 0x38\n  4701: u8 [a0 + 0x1f] = a5\n  4704: a5 = a4 >> 0x30\n  4707: u8 [a0 + 0x1e] = a5\n  4710: a5 = a4 >> 0x28\n  4713: u8 [a0 + 0x1d] = a5\n  4716: a5 = a4 >> 0x20\n  4719: u8 [a0 + 0x1c] = a5\n  4722: a5 = a4 >> 0x18\n  4725: u8 [a0 + 0x1b] = a5\n  4728: a5 = a4 >> 0x10\n  4731: u8 [a0 + 0x1a] = a5\n  4734: a5 = a4 >> 0x8\n  4737: u8 [a0 + 0x19] = a5\n  4740: u8 [a0 + 0x18] = a4\n  4743: u8 [a0 + 0x10] = a3\n  4746: a4 = a3 >> 0x38\n  4749: u8 [a0 + 0x17] = a4\n  4752: a4 = a3 >> 0x30\n  4755: u8 [a0 + 0x16] = a4\n  4758: a4 = a3 >> 0x28\n  4761: u8 [a0 + 0x15] = a4\n  4764: a4 = a3 >> 0x20\n  4767: u8 [a0 + 0x14] = a4\n  4770: a4 = a3 >> 0x18\n  4773: u8 [a0 + 0x13] = a4\n  4776: a4 = a3 >> 0x10\n  4779: u8 [a0 + 0x12] = a4\n  4782: a3 = a3 >> 0x8\n  4785: u8 [a0 + 0x11] = a3\n  4788: u8 [a0 + 0x8] = a2\n  4791: a3 = a2 >> 0x38\n  4794: u8 [a0 + 0xf] = a3\n  4797: a3 = a2 >> 0x30\n  4800: u8 [a0 + 0xe] = a3\n  4803: a3 = a2 >> 0x28\n  4806: u8 [a0 + 0xd] = a3\n  4809: a3 = a2 >> 0x20\n  4812: u8 [a0 + 0xc] = a3\n  4815: a3 = a2 >> 0x18\n  4818: u8 [a0 + 0xb] = a3\n  4821: a3 = a2 >> 0x10\n  4824: u8 [a0 + 0xa] = a3\n  4827: a2 = a2 >> 0x8\n  4830: u8 [a0 + 0x9] = a2\n  4833: u8 [a0] = a1\n  4835: a2 = a1 >> 0x38\n  4838: u8 [a0 + 0x7] = a2\n  4841: a2 = a1 >> 0x30\n  4844: u8 [a0 + 0x6] = a2\n  4847: a2 = a1 >> 0x28\n  4850: u8 [a0 + 0x5] = a2\n  4853: a2 = a1 >> 0x20\n  4856: u8 [a0 + 0x4] = a2\n  4859: a2 = a1 >> 0x18\n  4862: u8 [a0 + 0x3] = a2\n  4865: a2 = a1 >> 0x10\n  4868: u8 [a0 + 0x2] = a2\n  4871: a1 = a1 >> 0x8\n  4874: u8 [a0 + 0x1] = a1\n  4877: a1 = 0x20\n  4880: a0 = s1\n  4882: ra = 76, jump @0\n      : @92 [@dyn 38] (gas: 6)\n  4887: i32 a1 = a0 + 0\n  4889: a2 = 0x20\n  4892: a0 = 0\n  4894: ra = 0x4e\n  4897: ecalli 12 // 'seal_return'\n  4899: fallthrough\n      : @93 [@dyn 39] (gas: 8)\n  4900: a2 = u32 [a1 + 0x10]\n  4903: a3 = u64 [a1 + 0x8]\n  4906: a1 = u64 [a1]\n  4908: u64 [a0 + 24] = 0\n  4911: u64 [a0 + 0x10] = a2\n  4914: u64 [a0 + 0x8] = a3\n  4917: u64 [a0] = a1\n  4919: ret\n      : @94 (gas: 8)\n  4921: a0 = u64 [sp + 0x30]\n  4924: a1 = u64 [sp + 0x38]\n  4927: a2 = u64 [sp + 0x28]\n  4930: a3 = u64 [sp + 0x20]\n  4933: a1 = a1 | a2\n  4936: a0 = a0 | a3\n  4939: a0 = a0 | a1\n  4942: jump @101 if a0 != 0\n      : @95 (gas: 2)\n  4946: a0 = i32 [0x20004]\n  4951: jump @101 if a0 <=u 35\n      : @96 (gas: 4)\n  4956: i32 a0 = sp + 0x80\n  4960: a1 = 0x4\n  4963: ecalli 4 // 'call_data_load'\n  4965: fallthrough\n      : @97 (gas: 11)\n  4966: s1 = u64 [sp + 0x90]\n  4970: a2 = u64 [sp + 0x98]\n  4974: a0 = 0x100000000\n  4984: a0 = a0 ^ s1\n  4987: a0 = a0 | a2\n  4990: a1 = s1 >> 0x20\n  4993: a1 = a1 <u 0x1\n  4996: u64 [sp + 0x18] = a2\n  4999: a1 = 0 if a2 != 0\n  5001: a1 = 0 if a0 == 0\n  5003: jump @102 if a1 == 0\n      : @98 (gas: 57)\n  5007: a0 = u64 [sp + 0x88]\n  5011: u64 [sp + 0x10] = a0\n  5014: a0 = u64 [sp + 0x80]\n  5018: u64 [sp + 0x8] = a0\n  5021: u64 [sp + 120] = 0\n  5024: u64 [sp + 112] = 0\n  5027: u64 [sp + 104] = 0\n  5030: u64 [sp + 96] = 0x2\n  5034: u64 [sp + 152] = 0\n  5038: u64 [sp + 144] = 0\n  5042: u64 [sp + 136] = 0\n  5046: u64 [sp + 128] = 0\n  5050: u32 [sp + 64] = 0x20\n  5054: i32 a1 = sp + 0x60\n  5057: i32 a3 = sp + 0x80\n  5061: i32 a4 = sp + 0x40\n  5064: a2 = 0xffffffffffffffff\n  5067: a0 = 0\n  5069: ecalli 7 // 'get_storage'\n  5071: t1 = u64 [sp + 0x98]\n  5075: a1 = u8 [sp + 0x80]\n  5079: a2 = u64 [sp + 0x90]\n  5083: a3 = u64 [sp + 0x8]\n  5086: a5 = a3 >> 0x38\n  5089: a0 = u64 [sp + 0x10]\n  5092: a4 = a0 << 0x8\n  5095: t0 = a4 | a5\n  5098: a4 = s1 >> 0x38\n  5101: a5 = u64 [sp + 0x18]\n  5104: a5 = a5 << 0x8\n  5107: a4 = a4 | a5\n  5110: a5 = a0 >> 0x38\n  5113: s1 = s1 << 0x8\n  5116: a5 = a5 | s1\n  5119: s1 = a3 << 0x8\n  5122: a2 = a2 >> 0x28\n  5125: a2 = a2 << 0x28\n  5128: a1 = a1 | s1\n  5131: a2 = a2 | a5\n  5134: a0 = t1 | a4\n  5137: u64 [sp + 120] = 0\n  5140: u64 [sp + 112] = 0\n  5143: u64 [sp + 104] = 0\n  5146: u64 [sp + 96] = 0x2\n  5150: u64 [sp + 0x98] = a0\n  5154: u64 [sp + 0x90] = a2\n  5158: u64 [sp + 0x88] = t0\n  5162: u64 [sp + 0x80] = a1\n  5166: i32 a1 = sp + 0x60\n  5169: i32 a3 = sp + 0x80\n  5173: a2 = 0xffffffffffffffff\n  5176: a4 = 0x20\n  5179: a0 = 0\n  5181: ecalli 14 // 'set_storage'\n  5183: a0 = 0x40\n  5186: a1 = 0x20\n  5189: ra = 80, jump @0\n      : @99 [@dyn 40] (gas: 100)\n  5194: a1 = u8 [a0 + 0x11]\n  5197: a2 = u8 [a0 + 0x10]\n  5200: a3 = u8 [a0 + 0x12]\n  5203: a4 = u8 [a0 + 0x13]\n  5206: a1 = a1 << 0x8\n  5209: a1 = a1 | a2\n  5212: a3 = a3 << 0x10\n  5215: a4 = a4 << 0x18\n  5218: a3 = a3 | a4\n  5221: a1 = a1 | a3\n  5224: a2 = u8 [a0 + 0x15]\n  5227: a3 = u8 [a0 + 0x14]\n  5230: a4 = u8 [a0 + 0x16]\n  5233: a5 = u8 [a0 + 0x17]\n  5236: a2 = a2 << 0x8\n  5239: a2 = a2 | a3\n  5242: a4 = a4 << 0x10\n  5245: a5 = a5 << 0x18\n  5248: a4 = a4 | a5\n  5251: a2 = a2 | a4\n  5254: a2 = a2 << 0x20\n  5257: t0 = a2 | a1\n  5260: a2 = u8 [a0 + 0x1]\n  5263: a3 = u8 [a0]\n  5265: a4 = u8 [a0 + 0x2]\n  5268: a5 = u8 [a0 + 0x3]\n  5271: a2 = a2 << 0x8\n  5274: a2 = a2 | a3\n  5277: a4 = a4 << 0x10\n  5280: a5 = a5 << 0x18\n  5283: a4 = a4 | a5\n  5286: a2 = a2 | a4\n  5289: a3 = u8 [a0 + 0x5]\n  5292: a4 = u8 [a0 + 0x4]\n  5295: a5 = u8 [a0 + 0x6]\n  5298: s1 = u8 [a0 + 0x7]\n  5301: a3 = a3 << 0x8\n  5304: a3 = a3 | a4\n  5307: a5 = a5 << 0x10\n  5310: s1 = s1 << 0x18\n  5313: a5 = a5 | s1\n  5316: a3 = a3 | a5\n  5319: a3 = a3 << 0x20\n  5322: a2 = a2 | a3\n  5325: a3 = u8 [a0 + 0x19]\n  5328: a4 = u8 [a0 + 0x18]\n  5331: a5 = u8 [a0 + 0x1a]\n  5334: s1 = u8 [a0 + 0x1b]\n  5337: a3 = a3 << 0x8\n  5340: a3 = a3 | a4\n  5343: a5 = a5 << 0x10\n  5346: s1 = s1 << 0x18\n  5349: a5 = a5 | s1\n  5352: a3 = a3 | a5\n  5355: a4 = u8 [a0 + 0x1d]\n  5358: a5 = u8 [a0 + 0x1c]\n  5361: s1 = u8 [a0 + 0x1e]\n  5364: a1 = u8 [a0 + 0x1f]\n  5367: a4 = a4 << 0x8\n  5370: a4 = a4 | a5\n  5373: s1 = s1 << 0x10\n  5376: a1 = a1 << 0x18\n  5379: a1 = a1 | s1\n  5382: a1 = a1 | a4\n  5385: a1 = a1 << 0x20\n  5388: a3 = a3 | a1\n  5391: a1 = u8 [a0 + 0x9]\n  5394: a4 = u8 [a0 + 0x8]\n  5397: a5 = u8 [a0 + 0xa]\n  5400: s1 = u8 [a0 + 0xb]\n  5403: a1 = a1 << 0x8\n  5406: a1 = a1 | a4\n  5409: a5 = a5 << 0x10\n  5412: s1 = s1 << 0x18\n  5415: a5 = a5 | s1\n  5418: a1 = a1 | a5\n  5421: a4 = u8 [a0 + 0xd]\n  5424: a5 = u8 [a0 + 0xc]\n  5427: s1 = u8 [a0 + 0xe]\n  5430: a0 = u8 [a0 + 0xf]\n  5433: a4 = a4 << 0x8\n  5436: a4 = a4 | a5\n  5439: s1 = s1 << 0x10\n  5442: a0 = a0 << 0x18\n  5445: a0 = a0 | s1\n  5448: a0 = a0 | a4\n  5451: a0 = a0 << 0x20\n  5454: a0 = a0 | a1\n  5457: a1 = reverse a0\n  5459: a0 = reverse a3\n  5461: a2 = reverse a2\n  5463: a3 = reverse t0\n  5465: a2 = a2 | a3\n  5468: a3 = a0 | a1\n  5471: a3 = a3 | a2\n  5474: a3 = a3 >> 0x20\n  5477: a1 = a1 | a2\n  5480: a1 = a1 << 0x20\n  5483: a1 = a1 | a3\n  5486: jump @104 if a1 == 0\n      : @100 (gas: 1)\n  5489: trap\n      : @101 (gas: 4)\n  5490: a0 = 0\n  5492: a1 = 0\n  5494: ra = 0x52\n  5497: jump @0\n      : @102 (gas: 2)\n  5500: a0 = 0\n  5502: ra = 82, jump @0\n      : @103 [@dyn 41] (gas: 7)\n  5507: i32 a1 = a0 + 0\n  5509: a0 = 0x1\n  5512: a2 = 0\n  5514: ecalli 12 // 'seal_return'\n  5516: i32 a0 = a0 + 0\n  5518: ra = 0x54\n  5521: jump @0\n      : @104 (gas: 2)\n  5524: i32 a0 = a0 + 0\n  5526: ra = 84, jump @0\n      : @105 [@dyn 42] (gas: 6)\n  5531: i32 a1 = a0 + 0\n  5533: a0 = 0\n  5535: a2 = 0\n  5537: ra = 0x56\n  5540: ecalli 12 // 'seal_return'\n  5542: fallthrough\n      : @106 [@dyn 43] (gas: 1)\n  5543: ret\n      : @107 (gas: 7)\n  5545: sp = sp + 0xffffffffffffffa0\n  5548: u64 [sp + 0x58] = ra\n  5551: u64 [sp + 0x50] = s0\n  5554: s0 = sp + 0x60\n  5557: sp = sp & 0xffffffffffffffe0\n  5560: a0 = i32 [0x20004]\n  5565: jump @112 if a0 <=u 35\n      : @108 (gas: 43)\n  5570: i32 a0 = sp + 0x20\n  5573: a1 = 0x4\n  5576: ecalli 4 // 'call_data_load'\n  5578: a1 = u64 [sp + 0x20]\n  5581: a0 = u64 [sp + 0x28]\n  5584: a2 = u64 [sp + 0x30]\n  5587: a3 = u64 [sp + 0x38]\n  5590: u64 [sp + 0x18] = a3\n  5593: u64 [sp + 0x10] = a2\n  5596: u64 [sp + 0x8] = a0\n  5599: a0 = sp\n  5601: u64 [sp] = a1\n  5603: ra = 0x58\n  5606: sp = sp + 0xfffffffffffffec0\n  5610: u64 [sp + 0x138] = ra\n  5614: u64 [sp + 0x130] = s0\n  5618: u64 [sp + 0x128] = s1\n  5622: s0 = sp + 0x140\n  5626: sp = sp & 0xffffffffffffffe0\n  5629: a1 = u64 [a0 + 0x18]\n  5632: u64 [sp + 0x20] = a1\n  5635: a1 = u64 [a0 + 0x10]\n  5638: u64 [sp + 0x28] = a1\n  5641: a1 = u64 [a0 + 0x8]\n  5644: u64 [sp + 0x30] = a1\n  5647: a0 = u64 [a0]\n  5649: u64 [sp + 0x38] = a0\n  5652: u64 [sp + 248] = 0\n  5656: u64 [sp + 240] = 0\n  5660: u64 [sp + 232] = 0\n  5664: u64 [sp + 224] = 0x2\n  5669: u64 [sp + 280] = 0\n  5673: u64 [sp + 272] = 0\n  5677: u64 [sp + 264] = 0\n  5681: u64 [sp + 256] = 0\n  5685: u32 [sp + 192] = 0x20\n  5690: i32 a1 = sp + 0xe0\n  5694: i32 a3 = sp + 0x100\n  5698: i32 a4 = sp + 0xc0\n  5702: a2 = 0xffffffffffffffff\n  5705: a0 = 0\n  5707: ecalli 7 // 'get_storage'\n  5709: jump @214\n      : @109 [@dyn 44] (gas: 3)\n  5712: a0 = 0x40\n  5715: a1 = 0x20\n  5718: ra = 90, jump @0\n      : @110 [@dyn 45] (gas: 100)\n  5723: a1 = u8 [a0 + 0x11]\n  5726: a2 = u8 [a0 + 0x10]\n  5729: a3 = u8 [a0 + 0x12]\n  5732: a4 = u8 [a0 + 0x13]\n  5735: a1 = a1 << 0x8\n  5738: a1 = a1 | a2\n  5741: a3 = a3 << 0x10\n  5744: a4 = a4 << 0x18\n  5747: a3 = a3 | a4\n  5750: a1 = a1 | a3\n  5753: a2 = u8 [a0 + 0x15]\n  5756: a3 = u8 [a0 + 0x14]\n  5759: a4 = u8 [a0 + 0x16]\n  5762: a5 = u8 [a0 + 0x17]\n  5765: a2 = a2 << 0x8\n  5768: a2 = a2 | a3\n  5771: a4 = a4 << 0x10\n  5774: a5 = a5 << 0x18\n  5777: a4 = a4 | a5\n  5780: a2 = a2 | a4\n  5783: a2 = a2 << 0x20\n  5786: t0 = a2 | a1\n  5789: a2 = u8 [a0 + 0x1]\n  5792: a3 = u8 [a0]\n  5794: a4 = u8 [a0 + 0x2]\n  5797: a5 = u8 [a0 + 0x3]\n  5800: a2 = a2 << 0x8\n  5803: a2 = a2 | a3\n  5806: a4 = a4 << 0x10\n  5809: a5 = a5 << 0x18\n  5812: a4 = a4 | a5\n  5815: a2 = a2 | a4\n  5818: a3 = u8 [a0 + 0x5]\n  5821: a4 = u8 [a0 + 0x4]\n  5824: a5 = u8 [a0 + 0x6]\n  5827: a1 = u8 [a0 + 0x7]\n  5830: a3 = a3 << 0x8\n  5833: a3 = a3 | a4\n  5836: a5 = a5 << 0x10\n  5839: a1 = a1 << 0x18\n  5842: a1 = a1 | a5\n  5845: a1 = a1 | a3\n  5848: a1 = a1 << 0x20\n  5851: t1 = a1 | a2\n  5854: a1 = u8 [a0 + 0x19]\n  5857: a3 = u8 [a0 + 0x18]\n  5860: a4 = u8 [a0 + 0x1a]\n  5863: a5 = u8 [a0 + 0x1b]\n  5866: a1 = a1 << 0x8\n  5869: a1 = a1 | a3\n  5872: a4 = a4 << 0x10\n  5875: a5 = a5 << 0x18\n  5878: a4 = a4 | a5\n  5881: a1 = a1 | a4\n  5884: a3 = u8 [a0 + 0x1d]\n  5887: a4 = u8 [a0 + 0x1c]\n  5890: a5 = u8 [a0 + 0x1e]\n  5893: a2 = u8 [a0 + 0x1f]\n  5896: a3 = a3 << 0x8\n  5899: a3 = a3 | a4\n  5902: a5 = a5 << 0x10\n  5905: a2 = a2 << 0x18\n  5908: a2 = a2 | a5\n  5911: a2 = a2 | a3\n  5914: a2 = a2 << 0x20\n  5917: a3 = a2 | a1\n  5920: a1 = u8 [a0 + 0x9]\n  5923: a2 = u8 [a0 + 0x8]\n  5926: a4 = u8 [a0 + 0xa]\n  5929: a5 = u8 [a0 + 0xb]\n  5932: a1 = a1 << 0x8\n  5935: a1 = a1 | a2\n  5938: a4 = a4 << 0x10\n  5941: a5 = a5 << 0x18\n  5944: a4 = a4 | a5\n  5947: a1 = a1 | a4\n  5950: a2 = u8 [a0 + 0xd]\n  5953: a4 = u8 [a0 + 0xc]\n  5956: a5 = u8 [a0 + 0xe]\n  5959: a0 = u8 [a0 + 0xf]\n  5962: a2 = a2 << 0x8\n  5965: a2 = a2 | a4\n  5968: a5 = a5 << 0x10\n  5971: a0 = a0 << 0x18\n  5974: a0 = a0 | a5\n  5977: a0 = a0 | a2\n  5980: a0 = a0 << 0x20\n  5983: a0 = a0 | a1\n  5986: a1 = reverse a0\n  5988: a0 = reverse a3\n  5990: a2 = reverse t1\n  5992: a3 = reverse t0\n  5994: a2 = a2 | a3\n  5997: a3 = a0 | a1\n  6000: a3 = a3 | a2\n  6003: a3 = a3 >> 0x20\n  6006: a1 = a1 | a2\n  6009: a1 = a1 << 0x20\n  6012: a1 = a1 | a3\n  6015: jump @114 if a1 == 0\n      : @111 (gas: 1)\n  6018: trap\n      : @112 (gas: 3)\n  6019: a0 = 0\n  6021: a1 = 0\n  6023: ra = 92, jump @0\n      : @113 [@dyn 46] (gas: 7)\n  6028: i32 a1 = a0 + 0\n  6030: a0 = 0x1\n  6033: a2 = 0\n  6035: ecalli 12 // 'seal_return'\n  6037: i32 a0 = a0 + 0\n  6039: ra = 0x5e\n  6042: jump @0\n      : @114 (gas: 2)\n  6045: i32 a0 = a0 + 0\n  6047: ra = 94, jump @0\n      : @115 [@dyn 47] (gas: 6)\n  6052: i32 a1 = a0 + 0\n  6054: a0 = 0\n  6056: a2 = 0\n  6058: ra = 0x60\n  6061: ecalli 12 // 'seal_return'\n  6063: fallthrough\n      : @116 [@dyn 48] (gas: 6)\n  6064: a1 = u8 [a1]\n  6066: u64 [a0 + 24] = 0\n  6069: u64 [a0 + 16] = 0\n  6072: u64 [a0 + 8] = 0\n  6075: u64 [a0] = a1\n  6077: ret\n      : @117 (gas: 8)\n  6079: a0 = u64 [sp + 0x30]\n  6082: a1 = u64 [sp + 0x38]\n  6085: a2 = u64 [sp + 0x28]\n  6088: a3 = u64 [sp + 0x20]\n  6091: a1 = a1 | a2\n  6094: a0 = a0 | a3\n  6097: a0 = a0 | a1\n  6100: jump @122 if a0 != 0\n      : @118 (gas: 2)\n  6104: a0 = i32 [0x20004]\n  6109: jump @122 if a0 <=u 3\n      : @119 (gas: 20)\n  6114: u64 [sp + 88] = 0\n  6117: u64 [sp + 80] = 0\n  6120: u64 [sp + 72] = 0\n  6123: u64 [sp + 64] = 0x2\n  6127: u64 [sp + 120] = 0\n  6130: u64 [sp + 112] = 0\n  6133: u64 [sp + 104] = 0\n  6136: u64 [sp + 96] = 0\n  6139: u32 [sp + 128] = 0x20\n  6144: i32 a1 = sp + 0x40\n  6147: i32 a3 = sp + 0x60\n  6150: i32 a4 = sp + 0x80\n  6154: a2 = 0xffffffffffffffff\n  6157: a0 = 0\n  6159: ecalli 7 // 'get_storage'\n  6161: a0 = u64 [sp + 0x60]\n  6164: u64 [sp + 0x18] = a0\n  6167: a0 = 0x40\n  6170: a1 = 0x20\n  6173: ra = 98, jump @0\n      : @120 [@dyn 49] (gas: 100)\n  6178: a1 = u8 [a0 + 0x11]\n  6181: a2 = u8 [a0 + 0x10]\n  6184: a3 = u8 [a0 + 0x12]\n  6187: a4 = u8 [a0 + 0x13]\n  6190: a1 = a1 << 0x8\n  6193: a1 = a1 | a2\n  6196: a3 = a3 << 0x10\n  6199: a4 = a4 << 0x18\n  6202: a3 = a3 | a4\n  6205: a1 = a1 | a3\n  6208: a2 = u8 [a0 + 0x15]\n  6211: a3 = u8 [a0 + 0x14]\n  6214: a4 = u8 [a0 + 0x16]\n  6217: a5 = u8 [a0 + 0x17]\n  6220: a2 = a2 << 0x8\n  6223: a2 = a2 | a3\n  6226: a4 = a4 << 0x10\n  6229: a5 = a5 << 0x18\n  6232: a4 = a4 | a5\n  6235: a2 = a2 | a4\n  6238: a2 = a2 << 0x20\n  6241: t0 = a2 | a1\n  6244: a2 = u8 [a0 + 0x1]\n  6247: a3 = u8 [a0]\n  6249: a4 = u8 [a0 + 0x2]\n  6252: a5 = u8 [a0 + 0x3]\n  6255: a2 = a2 << 0x8\n  6258: a2 = a2 | a3\n  6261: a4 = a4 << 0x10\n  6264: a5 = a5 << 0x18\n  6267: a4 = a4 | a5\n  6270: a2 = a2 | a4\n  6273: a3 = u8 [a0 + 0x5]\n  6276: a4 = u8 [a0 + 0x4]\n  6279: a5 = u8 [a0 + 0x6]\n  6282: s1 = u8 [a0 + 0x7]\n  6285: a3 = a3 << 0x8\n  6288: a3 = a3 | a4\n  6291: a5 = a5 << 0x10\n  6294: s1 = s1 << 0x18\n  6297: a5 = a5 | s1\n  6300: a3 = a3 | a5\n  6303: a3 = a3 << 0x20\n  6306: a2 = a2 | a3\n  6309: a3 = u8 [a0 + 0x19]\n  6312: a4 = u8 [a0 + 0x18]\n  6315: a5 = u8 [a0 + 0x1a]\n  6318: s1 = u8 [a0 + 0x1b]\n  6321: a3 = a3 << 0x8\n  6324: a3 = a3 | a4\n  6327: a5 = a5 << 0x10\n  6330: s1 = s1 << 0x18\n  6333: a5 = a5 | s1\n  6336: a3 = a3 | a5\n  6339: a4 = u8 [a0 + 0x1d]\n  6342: a5 = u8 [a0 + 0x1c]\n  6345: s1 = u8 [a0 + 0x1e]\n  6348: a1 = u8 [a0 + 0x1f]\n  6351: a4 = a4 << 0x8\n  6354: a4 = a4 | a5\n  6357: s1 = s1 << 0x10\n  6360: a1 = a1 << 0x18\n  6363: a1 = a1 | s1\n  6366: a1 = a1 | a4\n  6369: a1 = a1 << 0x20\n  6372: a3 = a3 | a1\n  6375: a1 = u8 [a0 + 0x9]\n  6378: a4 = u8 [a0 + 0x8]\n  6381: a5 = u8 [a0 + 0xa]\n  6384: s1 = u8 [a0 + 0xb]\n  6387: a1 = a1 << 0x8\n  6390: a1 = a1 | a4\n  6393: a5 = a5 << 0x10\n  6396: s1 = s1 << 0x18\n  6399: a5 = a5 | s1\n  6402: a1 = a1 | a5\n  6405: a4 = u8 [a0 + 0xd]\n  6408: a5 = u8 [a0 + 0xc]\n  6411: s1 = u8 [a0 + 0xe]\n  6414: a0 = u8 [a0 + 0xf]\n  6417: a4 = a4 << 0x8\n  6420: a4 = a4 | a5\n  6423: s1 = s1 << 0x10\n  6426: a0 = a0 << 0x18\n  6429: a0 = a0 | s1\n  6432: a0 = a0 | a4\n  6435: a0 = a0 << 0x20\n  6438: a0 = a0 | a1\n  6441: a1 = reverse a0\n  6443: a0 = reverse a3\n  6445: a2 = reverse a2\n  6447: a3 = reverse t0\n  6449: a2 = a2 | a3\n  6452: a3 = a0 | a1\n  6455: a3 = a3 | a2\n  6458: a3 = a3 >> 0x20\n  6461: a1 = a1 | a2\n  6464: a1 = a1 << 0x20\n  6467: a1 = a1 | a3\n  6470: jump @124 if a1 == 0\n      : @121 (gas: 1)\n  6473: trap\n      : @122 (gas: 3)\n  6474: a0 = 0\n  6476: a1 = 0\n  6478: ra = 100, jump @0\n      : @123 [@dyn 50] (gas: 5)\n  6483: i32 a1 = a0 + 0\n  6485: a0 = 0x1\n  6488: a2 = 0\n  6490: ecalli 12 // 'seal_return'\n  6492: fallthrough\n      : @124 (gas: 6)\n  6493: a1 = u8 [sp + 0x18]\n  6496: s1 = a1 >u 0\n  6498: i32 a0 = a0 + 0\n  6500: u64 [sp + 0x18] = a0\n  6503: a1 = 0x20\n  6506: ra = 102, jump @0\n      : @125 [@dyn 51] (gas: 35)\n  6511: u8 [a0 + 0x1f] = s1\n  6514: u8 [a0 + 30] = 0\n  6517: u8 [a0 + 29] = 0\n  6520: u8 [a0 + 28] = 0\n  6523: u8 [a0 + 27] = 0\n  6526: u8 [a0 + 26] = 0\n  6529: u8 [a0 + 25] = 0\n  6532: u8 [a0 + 24] = 0\n  6535: u8 [a0 + 23] = 0\n  6538: u8 [a0 + 22] = 0\n  6541: u8 [a0 + 21] = 0\n  6544: u8 [a0 + 20] = 0\n  6547: u8 [a0 + 19] = 0\n  6550: u8 [a0 + 18] = 0\n  6553: u8 [a0 + 17] = 0\n  6556: u8 [a0 + 16] = 0\n  6559: u8 [a0 + 15] = 0\n  6562: u8 [a0 + 14] = 0\n  6565: u8 [a0 + 13] = 0\n  6568: u8 [a0 + 12] = 0\n  6571: u8 [a0 + 11] = 0\n  6574: u8 [a0 + 10] = 0\n  6577: u8 [a0 + 9] = 0\n  6580: u8 [a0 + 8] = 0\n  6583: u8 [a0 + 7] = 0\n  6586: u8 [a0 + 6] = 0\n  6589: u8 [a0 + 5] = 0\n  6592: u8 [a0 + 4] = 0\n  6595: u8 [a0 + 3] = 0\n  6598: u8 [a0 + 2] = 0\n  6601: u8 [a0 + 1] = 0\n  6604: u8 [a0 + 0] = 0\n  6606: a1 = 0x20\n  6609: a0 = u64 [sp + 0x18]\n  6612: ra = 104, jump @0\n      : @126 [@dyn 52] (gas: 6)\n  6617: i32 a1 = a0 + 0\n  6619: a2 = 0x20\n  6622: a0 = 0\n  6624: ra = 0x6a\n  6627: ecalli 12 // 'seal_return'\n  6629: fallthrough\n      : @127 [@dyn 53] (gas: 5)\n  6630: sp = sp + 0xfffffffffffffff8\n  6633: u64 [sp] = ra\n  6635: a0 = 0\n  6637: a1 = 0\n  6639: ra = 108, jump @0\n      : @128 [@dyn 54] (gas: 6)\n  6644: i32 a1 = a0 + 0\n  6646: a0 = 0x1\n  6649: a2 = 0\n  6651: ra = 0x6e\n  6654: ecalli 12 // 'seal_return'\n  6656: fallthrough\n      : @129 [@dyn 55] (gas: 19)\n  6657: a2 = u64 [a1 + 0x8]\n  6660: a3 = u64 [a1]\n  6662: a4 = u64 [a1 + 0x18]\n  6665: a1 = u64 [a1 + 0x10]\n  6668: a5 = a2 << 0x38\n  6671: a3 = a3 >> 0x8\n  6674: a3 = a3 | a5\n  6677: a5 = a1 << 0x38\n  6680: a2 = a2 >> 0x8\n  6683: a2 = a2 | a5\n  6686: a5 = a4 << 0x38\n  6689: a1 = a1 >> 0x8\n  6692: a1 = a1 | a5\n  6695: a4 = a4 >> 0x8\n  6698: u64 [a0 + 0x18] = a4\n  6701: u64 [a0 + 0x10] = a1\n  6704: u64 [a0 + 0x8] = a2\n  6707: u64 [a0] = a3\n  6709: ret\n      : @130 (gas: 17)\n  6711: sp = sp + 0xffffffffffffffa0\n  6714: u64 [sp + 0x58] = ra\n  6717: u64 [sp + 0x50] = s0\n  6720: u64 [sp + 0x48] = s1\n  6723: a3 = u64 [a1 + 0x18]\n  6726: a4 = u64 [a1 + 0x10]\n  6729: a5 = u64 [a1 + 0x8]\n  6732: s1 = u64 [a1]\n  6734: a1 = a5 | a3\n  6737: a2 = s1 | a4\n  6740: a2 = a2 | a1\n  6743: a2 = a2 >> 0x20\n  6746: a1 = a1 | a4\n  6749: a1 = a1 << 0x20\n  6752: a1 = a1 | a2\n  6755: u64 [sp + 0x28] = a0\n  6758: jump @137 if a1 != 0\n      : @131 (gas: 19)\n  6762: a0 = s1 + 0x20\n  6765: u64 [sp + 0x30] = a0\n  6768: a0 = a0 <u s1\n  6771: a1 = a5 + a0\n  6774: u64 [sp + 0x40] = a1\n  6777: u64 [sp + 0x8] = a5\n  6780: s0 = a1 <u a5\n  6783: s0 = a0 if a0 == 0\n  6786: s0 = s0 + a4\n  6789: u64 [sp + 0x10] = a4\n  6792: a0 = s0 <u a4\n  6795: u64 [sp + 0x18] = a3\n  6798: a0 = a0 + a3\n  6801: u64 [sp + 0x38] = a0\n  6804: u64 [sp] = s1\n  6806: i32 a0 = s1 + 0\n  6808: a1 = 0x20\n  6811: s1 = 0x20\n  6814: ra = 112, jump @0\n      : @132 [@dyn 56] (gas: 45)\n  6819: u8 [a0 + 0x1f] = s1\n  6822: a1 = u64 [sp + 0x30]\n  6825: s1 = a1\n  6827: a1 = a1 | s0\n  6830: a2 = u64 [sp + 0x40]\n  6833: a4 = u64 [sp + 0x38]\n  6836: a2 = a2 | a4\n  6839: a1 = a1 | a2\n  6842: a1 = a1 >> 0x20\n  6845: u64 [sp + 0x20] = s0\n  6848: a2 = a2 | s0\n  6851: a2 = a2 << 0x20\n  6854: a1 = a1 | a2\n  6857: u8 [a0 + 30] = 0\n  6860: u8 [a0 + 29] = 0\n  6863: u8 [a0 + 28] = 0\n  6866: u8 [a0 + 27] = 0\n  6869: u8 [a0 + 26] = 0\n  6872: u8 [a0 + 25] = 0\n  6875: u8 [a0 + 24] = 0\n  6878: u8 [a0 + 23] = 0\n  6881: u8 [a0 + 22] = 0\n  6884: u8 [a0 + 21] = 0\n  6887: u8 [a0 + 20] = 0\n  6890: u8 [a0 + 19] = 0\n  6893: u8 [a0 + 18] = 0\n  6896: u8 [a0 + 17] = 0\n  6899: u8 [a0 + 16] = 0\n  6902: u8 [a0 + 15] = 0\n  6905: u8 [a0 + 14] = 0\n  6908: u8 [a0 + 13] = 0\n  6911: u8 [a0 + 12] = 0\n  6914: u8 [a0 + 11] = 0\n  6917: u8 [a0 + 10] = 0\n  6920: u8 [a0 + 9] = 0\n  6923: u8 [a0 + 8] = 0\n  6926: u8 [a0 + 7] = 0\n  6929: u8 [a0 + 6] = 0\n  6932: u8 [a0 + 5] = 0\n  6935: u8 [a0 + 4] = 0\n  6938: u8 [a0 + 3] = 0\n  6941: u8 [a0 + 2] = 0\n  6944: u8 [a0 + 1] = 0\n  6947: u8 [a0 + 0] = 0\n  6949: jump @137 if a1 != 0\n      : @133 (gas: 4)\n  6953: i32 s0 = s1 + 0\n  6955: a1 = 0x20\n  6958: a0 = s0\n  6960: ra = 114, jump @0\n      : @134 [@dyn 57] (gas: 41)\n  6965: u8 [a0 + 31] = 0x11\n  6969: u8 [a0 + 30] = 0\n  6972: u8 [a0 + 29] = 0\n  6975: u8 [a0 + 28] = 0\n  6978: u8 [a0 + 27] = 0\n  6981: u8 [a0 + 26] = 0\n  6984: u8 [a0 + 25] = 0\n  6987: u8 [a0 + 24] = 0\n  6990: u8 [a0 + 23] = 0\n  6993: u8 [a0 + 22] = 0\n  6996: u8 [a0 + 21] = 0\n  6999: u8 [a0 + 20] = 0\n  7002: u8 [a0 + 19] = 0\n  7005: u8 [a0 + 18] = 0\n  7008: u8 [a0 + 17] = 0\n  7011: u8 [a0 + 16] = 0\n  7014: u8 [a0 + 15] = 0\n  7017: u8 [a0 + 14] = 0\n  7020: u8 [a0 + 13] = 0\n  7023: u8 [a0 + 12] = 0\n  7026: u8 [a0 + 11] = 0\n  7029: u8 [a0 + 10] = 0\n  7032: u8 [a0 + 9] = 0\n  7035: u8 [a0 + 8] = 0\n  7038: u8 [a0 + 7] = 0\n  7041: u8 [a0 + 6] = 0\n  7044: u8 [a0 + 5] = 0\n  7047: u8 [a0 + 4] = 0\n  7050: u8 [a0 + 3] = 0\n  7053: u8 [a0 + 2] = 0\n  7056: u8 [a0 + 1] = 0\n  7059: a1 = u64 [sp + 0x20]\n  7062: a2 = u64 [sp + 0x38]\n  7065: a1 = a1 | a2\n  7068: a2 = 0xffffffe0\n  7078: a2 = s1 <u a2\n  7081: a3 = u64 [sp + 0x40]\n  7084: a2 = 0 if a3 != 0\n  7086: a2 = 0 if a1 != 0\n  7088: u8 [a0 + 0] = 0\n  7090: jump @137 if a2 == 0\n      : @135 (gas: 3)\n  7094: i32 a0 = s0 + 0x20\n  7097: a1 = 0x20\n  7100: ra = 116, jump @0\n      : @136 [@dyn 58] (gas: 55)\n  7105: u8 [a0 + 31] = 0\n  7108: u8 [a0 + 30] = 0\n  7111: u8 [a0 + 29] = 0\n  7114: u8 [a0 + 28] = 0\n  7117: u8 [a0 + 27] = 0\n  7120: u8 [a0 + 26] = 0\n  7123: u8 [a0 + 25] = 0\n  7126: u8 [a0 + 24] = 0\n  7129: u8 [a0 + 23] = 0\n  7132: u8 [a0 + 22] = 0\n  7135: u8 [a0 + 21] = 0\n  7138: u8 [a0 + 20] = 0\n  7141: u8 [a0 + 19] = 0\n  7144: u8 [a0 + 18] = 0\n  7147: u8 [a0 + 17] = 0\n  7150: u8 [a0 + 16] = 0x72\n  7154: u8 [a0 + 15] = 0x65\n  7158: u8 [a0 + 14] = 0x6e\n  7162: u8 [a0 + 13] = 0x77\n  7166: u8 [a0 + 12] = 0x6f\n  7170: u8 [a0 + 11] = 0x20\n  7174: a5 = 0x74\n  7177: u8 [a0 + 0xa] = a5\n  7180: u8 [a0 + 9] = 0x6f\n  7184: u8 [a0 + 8] = 0x6e\n  7188: u8 [a0 + 7] = 0x20\n  7192: u8 [a0 + 6] = 0x65\n  7196: u8 [a0 + 5] = 0x72\n  7200: u8 [a0 + 4] = 0x61\n  7204: u8 [a0 + 3] = 0x20\n  7208: u8 [a0 + 2] = 0x75\n  7212: u8 [a0 + 1] = 0x6f\n  7216: u8 [a0 + 0] = 0x79\n  7219: a1 = u64 [sp]\n  7221: a0 = a1 + 0x60\n  7224: a1 = a0 <u a1\n  7227: a3 = u64 [sp + 0x8]\n  7230: a2 = a3 + a1\n  7233: a3 = a2 <u a3\n  7236: a3 = a1 if a1 == 0\n  7239: a1 = u64 [sp + 0x10]\n  7242: a3 = a3 + a1\n  7245: a1 = a3 <u a1\n  7248: a4 = u64 [sp + 0x18]\n  7251: a1 = a1 + a4\n  7254: a4 = u64 [sp + 0x28]\n  7257: u64 [a4] = a0\n  7259: u64 [a4 + 0x8] = a2\n  7262: u64 [a4 + 0x10] = a3\n  7265: u64 [a4 + 0x18] = a1\n  7268: ra = u64 [sp + 0x58]\n  7271: s0 = u64 [sp + 0x50]\n  7274: s1 = u64 [sp + 0x48]\n  7277: sp = sp + 0x60\n  7280: ret\n      : @137 (gas: 1)\n  7282: trap\n      : @138 [@dyn 59] (gas: 130)\n  7283: a1 = u8 [a0 + 0x19]\n  7286: a2 = u8 [a0 + 0x18]\n  7289: a3 = u8 [a0 + 0x1a]\n  7292: a4 = u8 [a0 + 0x1b]\n  7295: a1 = a1 << 0x8\n  7298: a1 = a1 | a2\n  7301: a3 = a3 << 0x10\n  7304: a4 = a4 << 0x18\n  7307: a3 = a3 | a4\n  7310: a1 = a1 | a3\n  7313: a2 = u8 [a0 + 0x1d]\n  7316: a3 = u8 [a0 + 0x1c]\n  7319: a4 = u8 [a0 + 0x1e]\n  7322: a5 = u8 [a0 + 0x1f]\n  7325: a2 = a2 << 0x8\n  7328: a2 = a2 | a3\n  7331: a4 = a4 << 0x10\n  7334: a5 = a5 << 0x18\n  7337: a4 = a4 | a5\n  7340: a2 = a2 | a4\n  7343: a2 = a2 << 0x20\n  7346: t0 = a2 | a1\n  7349: a2 = u8 [a0 + 0x11]\n  7352: a3 = u8 [a0 + 0x10]\n  7355: a4 = u8 [a0 + 0x12]\n  7358: a5 = u8 [a0 + 0x13]\n  7361: a2 = a2 << 0x8\n  7364: a2 = a2 | a3\n  7367: a4 = a4 << 0x10\n  7370: a5 = a5 << 0x18\n  7373: a4 = a4 | a5\n  7376: a2 = a2 | a4\n  7379: a3 = u8 [a0 + 0x15]\n  7382: a4 = u8 [a0 + 0x14]\n  7385: a5 = u8 [a0 + 0x16]\n  7388: s1 = u8 [a0 + 0x17]\n  7391: a3 = a3 << 0x8\n  7394: a3 = a3 | a4\n  7397: a5 = a5 << 0x10\n  7400: s1 = s1 << 0x18\n  7403: a5 = a5 | s1\n  7406: a3 = a3 | a5\n  7409: a3 = a3 << 0x20\n  7412: a2 = a2 | a3\n  7415: a3 = u8 [a0 + 0x9]\n  7418: a4 = u8 [a0 + 0x8]\n  7421: a5 = u8 [a0 + 0xa]\n  7424: s1 = u8 [a0 + 0xb]\n  7427: a3 = a3 << 0x8\n  7430: a3 = a3 | a4\n  7433: a5 = a5 << 0x10\n  7436: s1 = s1 << 0x18\n  7439: a5 = a5 | s1\n  7442: a3 = a3 | a5\n  7445: a4 = u8 [a0 + 0xd]\n  7448: a5 = u8 [a0 + 0xc]\n  7451: s1 = u8 [a0 + 0xe]\n  7454: a1 = u8 [a0 + 0xf]\n  7457: a4 = a4 << 0x8\n  7460: a4 = a4 | a5\n  7463: s1 = s1 << 0x10\n  7466: a1 = a1 << 0x18\n  7469: a1 = a1 | s1\n  7472: a1 = a1 | a4\n  7475: a1 = a1 << 0x20\n  7478: a3 = a3 | a1\n  7481: a1 = u8 [a0 + 0x1]\n  7484: a4 = u8 [a0]\n  7486: a5 = u8 [a0 + 0x2]\n  7489: s1 = u8 [a0 + 0x3]\n  7492: a1 = a1 << 0x8\n  7495: a1 = a1 | a4\n  7498: a5 = a5 << 0x10\n  7501: s1 = s1 << 0x18\n  7504: a5 = a5 | s1\n  7507: a1 = a1 | a5\n  7510: a4 = u8 [a0 + 0x5]\n  7513: a5 = u8 [a0 + 0x4]\n  7516: s1 = u8 [a0 + 0x6]\n  7519: a0 = u8 [a0 + 0x7]\n  7522: a4 = a4 << 0x8\n  7525: a4 = a4 | a5\n  7528: s1 = s1 << 0x10\n  7531: a0 = a0 << 0x18\n  7534: a0 = a0 | s1\n  7537: a0 = a0 | a4\n  7540: a0 = a0 << 0x20\n  7543: a0 = a0 | a1\n  7546: t1 = reverse a0\n  7548: t2 = reverse a3\n  7550: s1 = reverse a2\n  7552: a5 = reverse t0\n  7554: a1 = u64 [sp + 0x18]\n  7557: a0 = a1 + 0x1f\n  7560: a1 = a0 <u a1\n  7563: a3 = u64 [sp + 0x20]\n  7566: a2 = a3 + a1\n  7569: a3 = a2 <u a3\n  7572: a3 = a1 if a1 == 0\n  7575: a1 = u64 [sp + 0x28]\n  7578: a3 = a3 + a1\n  7581: a1 = a3 <u a1\n  7584: a4 = u64 [sp + 0x30]\n  7587: a1 = a1 + a4\n  7590: a0 = a0 & 0xffffffffffffffe0\n  7593: a0 = a0 + a5\n  7596: u64 [sp + 0x28] = a5\n  7599: u64 [sp + 0x10] = a0\n  7602: a4 = a0 <u a5\n  7605: a2 = a2 + s1\n  7608: a5 = a2 + a4\n  7611: a2 = a5 ^ s1\n  7614: u64 [sp + 0x30] = s1\n  7617: a0 = a5 <u s1\n  7620: a0 = a4 if a2 == 0\n  7623: a3 = a3 + t2\n  7626: a4 = a3 + a0\n  7629: s1 = a4 <u a3\n  7632: a2 = a3 <u t2\n  7635: a1 = a1 + t1\n  7638: a1 = a1 + a2\n  7641: s1 = s1 + a1\n  7644: a1 = a4 >u 0\n  7646: a2 = s1 >u 0\n  7648: a2 = a1 if s1 == 0\n  7651: a1 = a4 | s1\n  7654: u64 [sp + 0x8] = a5\n  7657: a3 = a5 >u 0\n  7659: a3 = a2 if a1 != 0\n  7662: jump @142 if a3 != 0\n      : @139 (gas: 8)\n  7666: a1 = a4 <u t2\n  7669: a2 = s1 ^ t1\n  7672: a3 = s1 <u t1\n  7675: a3 = a1 if a2 == 0\n  7678: a1 = a4 ^ t2\n  7681: a1 = a1 | a2\n  7684: a0 = a3 if a1 != 0\n  7687: jump @142 if a0 != 0\n      : @140 (gas: 6)\n  7691: a0 = 0x40\n  7694: a1 = 0x20\n  7697: u64 [sp + 0x20] = t2\n  7700: u64 [sp + 0x18] = t1\n  7703: u64 [sp] = a4\n  7705: ra = 120, jump @0\n      : @141 [@dyn 60] (gas: 82)\n  7710: a1 = reverse s1\n  7712: a2 = u64 [sp]\n  7714: a2 = reverse a2\n  7716: a3 = u64 [sp + 0x8]\n  7719: a3 = reverse a3\n  7721: a4 = u64 [sp + 0x10]\n  7724: a4 = reverse a4\n  7726: u8 [a0 + 0x18] = a4\n  7729: a5 = a4 >> 0x38\n  7732: u8 [a0 + 0x1f] = a5\n  7735: a5 = a4 >> 0x30\n  7738: u8 [a0 + 0x1e] = a5\n  7741: a5 = a4 >> 0x28\n  7744: u8 [a0 + 0x1d] = a5\n  7747: a5 = a4 >> 0x20\n  7750: u8 [a0 + 0x1c] = a5\n  7753: a5 = a4 >> 0x18\n  7756: u8 [a0 + 0x1b] = a5\n  7759: a5 = a4 >> 0x10\n  7762: u8 [a0 + 0x1a] = a5\n  7765: a4 = a4 >> 0x8\n  7768: u8 [a0 + 0x19] = a4\n  7771: u8 [a0 + 0x10] = a3\n  7774: a4 = a3 >> 0x38\n  7777: u8 [a0 + 0x17] = a4\n  7780: a4 = a3 >> 0x30\n  7783: u8 [a0 + 0x16] = a4\n  7786: a4 = a3 >> 0x28\n  7789: u8 [a0 + 0x15] = a4\n  7792: a4 = a3 >> 0x20\n  7795: u8 [a0 + 0x14] = a4\n  7798: a4 = a3 >> 0x18\n  7801: u8 [a0 + 0x13] = a4\n  7804: a4 = a3 >> 0x10\n  7807: u8 [a0 + 0x12] = a4\n  7810: a3 = a3 >> 0x8\n  7813: u8 [a0 + 0x11] = a3\n  7816: u8 [a0 + 0x8] = a2\n  7819: a3 = a2 >> 0x38\n  7822: u8 [a0 + 0xf] = a3\n  7825: a3 = a2 >> 0x30\n  7828: u8 [a0 + 0xe] = a3\n  7831: a3 = a2 >> 0x28\n  7834: u8 [a0 + 0xd] = a3\n  7837: a3 = a2 >> 0x20\n  7840: u8 [a0 + 0xc] = a3\n  7843: a3 = a2 >> 0x18\n  7846: u8 [a0 + 0xb] = a3\n  7849: a3 = a2 >> 0x10\n  7852: u8 [a0 + 0xa] = a3\n  7855: a2 = a2 >> 0x8\n  7858: u8 [a0 + 0x9] = a2\n  7861: u8 [a0] = a1\n  7863: a2 = a1 >> 0x38\n  7866: u8 [a0 + 0x7] = a2\n  7869: a2 = a1 >> 0x30\n  7872: u8 [a0 + 0x6] = a2\n  7875: a2 = a1 >> 0x28\n  7878: u8 [a0 + 0x5] = a2\n  7881: a2 = a1 >> 0x20\n  7884: u8 [a0 + 0x4] = a2\n  7887: a2 = a1 >> 0x18\n  7890: u8 [a0 + 0x3] = a2\n  7893: a2 = a1 >> 0x10\n  7896: u8 [a0 + 0x2] = a2\n  7899: a1 = a1 >> 0x8\n  7902: u8 [a0 + 0x1] = a1\n  7905: a0 = u64 [sp + 0x38]\n  7908: a1 = u64 [sp + 0x28]\n  7911: u64 [a0] = a1\n  7913: a1 = u64 [sp + 0x18]\n  7916: u64 [a0 + 0x18] = a1\n  7919: a1 = u64 [sp + 0x30]\n  7922: u64 [a0 + 0x8] = a1\n  7925: a1 = u64 [sp + 0x20]\n  7928: u64 [a0 + 0x10] = a1\n  7931: sp = s0 + 0xffffffffffffff60\n  7935: ra = u64 [sp + 0x98]\n  7939: s0 = u64 [sp + 0x90]\n  7943: s1 = u64 [sp + 0x88]\n  7947: sp = sp + 0xa0\n  7951: ret\n      : @142 (gas: 8)\n  7953: u64 [sp + 112] = 0\n  7956: u64 [sp + 104] = 0\n  7959: u64 [sp + 96] = 0\n  7962: a0 = 0x4e487b7100000000\n  7972: a1 = sp + 0x60\n  7975: u64 [sp + 0x78] = a0\n  7978: a0 = 0\n  7980: ra = 122, jump @8\n      : @143 [@dyn 61] (gas: 7)\n  7985: u64 [sp + 88] = 0\n  7988: u64 [sp + 80] = 0\n  7991: u64 [sp + 64] = 0x41\n  7995: a0 = 0x4\n  7998: a1 = sp + 0x40\n  8001: u64 [sp + 72] = 0\n  8004: ra = 124, jump @8\n      : @144 [@dyn 62] (gas: 3)\n  8009: a1 = 0x24\n  8012: a0 = 0\n  8014: ra = 126, jump @0\n      : @145 [@dyn 63] (gas: 6)\n  8019: i32 a1 = a0 + 0\n  8021: a0 = 0x1\n  8024: a2 = 0x24\n  8027: ra = 0x80\n  8031: ecalli 12 // 'seal_return'\n  8033: fallthrough\n      : @146 [@dyn 64] (gas: 7)\n  8034: a3 = u64 [a1 + 0x18]\n  8037: a4 = u64 [a1 + 0x10]\n  8040: a2 = u64 [a1 + 0x8]\n  8043: a3 = a3 | a4\n  8046: a4 = a2 <u 0x1\n  8049: a4 = 0 if a3 != 0\n  8051: jump @148 if a4 == 0\n      : @147 (gas: 16)\n  8054: a1 = u64 [a1]\n  8056: a3 = a1 + 0x1f\n  8059: a1 = a3 <u a1\n  8062: a1 = a1 + a2\n  8065: a1 = a1 & 0x1\n  8068: a3 = a3 & 0xffffffffffffffe0\n  8071: a2 = a3 + 0x20\n  8074: a3 = a2 <u a3\n  8077: a4 = a1 + a3\n  8080: a1 = a4 <u a1\n  8083: a1 = a3 if a3 == 0\n  8086: u64 [a0 + 24] = 0\n  8089: u64 [a0] = a2\n  8091: u64 [a0 + 0x8] = a4\n  8094: u64 [a0 + 0x10] = a1\n  8097: ret\n      : @148 (gas: 13)\n  8099: sp = sp + 0xffffffffffffffb0\n  8102: u64 [sp + 0x48] = ra\n  8105: u64 [sp + 0x40] = s0\n  8108: s0 = sp + 0x50\n  8111: sp = sp & 0xfffffffffffffff0\n  8114: u64 [sp + 48] = 0\n  8117: u64 [sp + 40] = 0\n  8120: u64 [sp + 32] = 0\n  8123: a0 = 0x4e487b7100000000\n  8133: a1 = sp + 0x20\n  8136: u64 [sp + 0x38] = a0\n  8139: a0 = 0\n  8141: ra = 130, jump @8\n      : @149 [@dyn 65] (gas: 7)\n  8147: u64 [sp + 24] = 0\n  8150: u64 [sp + 16] = 0\n  8153: u64 [sp + 0] = 0x41\n  8156: a0 = 0x4\n  8159: a1 = sp\n  8161: u64 [sp + 8] = 0\n  8164: ra = 132, jump @8\n      : @150 [@dyn 66] (gas: 3)\n  8170: a1 = 0x24\n  8173: a0 = 0\n  8175: ra = 134, jump @0\n      : @151 [@dyn 67] (gas: 6)\n  8181: i32 a1 = a0 + 0\n  8183: a0 = 0x1\n  8186: a2 = 0x24\n  8189: ra = 0x88\n  8193: ecalli 12 // 'seal_return'\n  8195: fallthrough\n      : @152 [@dyn 68] (gas: 16)\n  8196: sp = sp + 0xffffffffffffff20\n  8200: u64 [sp + 0xd8] = ra\n  8204: u64 [sp + 0xd0] = s0\n  8208: u64 [sp + 0xc8] = s1\n  8212: s0 = sp + 0xe0\n  8216: sp = sp & 0xfffffffffffffff0\n  8219: a3 = u64 [a1 + 0x18]\n  8222: a2 = u64 [a1 + 0x10]\n  8225: a4 = u64 [a1 + 0x8]\n  8228: u64 [sp + 0x10] = a2\n  8231: u64 [sp + 0x8] = a3\n  8234: a2 = a2 | a3\n  8237: a3 = a4 <u 0x1\n  8240: a3 = 0 if a2 != 0\n  8242: u64 [sp + 0x38] = a0\n  8245: jump @158 if a3 == 0\n      : @153 (gas: 38)\n  8249: s1 = u64 [a1]\n  8251: a0 = s1 + 0x1f\n  8254: a1 = a0 <u s1\n  8257: u64 [sp + 0x18] = a4\n  8260: a1 = a1 + a4\n  8263: a1 = a1 & 0x1\n  8266: a0 = a0 & 0xffffffffffffffe0\n  8269: a2 = a0 + 0x20\n  8272: a0 = a2 <u a0\n  8275: a3 = a1 + a0\n  8278: a4 = a3 <u a1\n  8281: a4 = a0 if a0 == 0\n  8284: u64 [sp + 152] = 0\n  8288: u64 [sp + 0x80] = a2\n  8292: u64 [sp + 0x88] = a3\n  8296: a0 = sp + 0xa0\n  8300: a1 = sp + 0x80\n  8304: u64 [sp + 0x90] = a4\n  8308: ra = 0x8a\n  8312: sp = sp + 0xffffffffffffff60\n  8316: u64 [sp + 0x98] = ra\n  8320: u64 [sp + 0x90] = s0\n  8324: u64 [sp + 0x88] = s1\n  8328: s0 = sp + 0xa0\n  8332: sp = sp & 0xfffffffffffffff0\n  8335: a2 = u64 [a1 + 0x18]\n  8338: u64 [sp + 0x30] = a2\n  8341: a2 = u64 [a1 + 0x10]\n  8344: u64 [sp + 0x28] = a2\n  8347: a2 = u64 [a1 + 0x8]\n  8350: u64 [sp + 0x20] = a2\n  8353: a1 = u64 [a1]\n  8355: u64 [sp + 0x18] = a1\n  8358: u64 [sp + 0x38] = a0\n  8361: a0 = 0x40\n  8364: a1 = 0x20\n  8367: ra = 0x76\n  8370: jump @0\n      : @154 [@dyn 69] (gas: 15)\n  8373: a0 = u64 [sp + 0xb8]\n  8377: a2 = u64 [sp + 0xb0]\n  8381: a1 = u64 [sp + 0xa8]\n  8385: a3 = u64 [sp + 0xa0]\n  8389: u64 [sp + 0x28] = a0\n  8392: u64 [sp + 0x20] = a1\n  8395: a0 = a0 | a1\n  8398: a1 = a3 | a2\n  8401: a1 = a1 | a0\n  8404: a1 = a1 >> 0x20\n  8407: u64 [sp + 0x30] = a2\n  8410: a0 = a0 | a2\n  8413: a0 = a0 << 0x20\n  8416: a0 = a0 | a1\n  8419: jump @157 if a0 != 0\n      : @155 (gas: 4)\n  8423: i32 a0 = a3 + 0\n  8425: a1 = 0x20\n  8428: u64 [sp] = a3\n  8430: ra = 140, jump @0\n      : @156 [@dyn 70] (gas: 82)\n  8436: a1 = u64 [sp + 0x8]\n  8439: a1 = reverse a1\n  8441: a2 = u64 [sp + 0x10]\n  8444: a2 = reverse a2\n  8446: a3 = u64 [sp + 0x18]\n  8449: a3 = reverse a3\n  8451: a4 = reverse s1\n  8453: a5 = a4 >> 0x38\n  8456: u8 [a0 + 0x1f] = a5\n  8459: a5 = a4 >> 0x30\n  8462: u8 [a0 + 0x1e] = a5\n  8465: a5 = a4 >> 0x28\n  8468: u8 [a0 + 0x1d] = a5\n  8471: a5 = a4 >> 0x20\n  8474: u8 [a0 + 0x1c] = a5\n  8477: a5 = a4 >> 0x18\n  8480: u8 [a0 + 0x1b] = a5\n  8483: a5 = a4 >> 0x10\n  8486: u8 [a0 + 0x1a] = a5\n  8489: a5 = a4 >> 0x8\n  8492: u8 [a0 + 0x19] = a5\n  8495: u8 [a0 + 0x18] = a4\n  8498: u8 [a0 + 0x10] = a3\n  8501: a4 = a3 >> 0x38\n  8504: u8 [a0 + 0x17] = a4\n  8507: a4 = a3 >> 0x30\n  8510: u8 [a0 + 0x16] = a4\n  8513: a4 = a3 >> 0x28\n  8516: u8 [a0 + 0x15] = a4\n  8519: a4 = a3 >> 0x20\n  8522: u8 [a0 + 0x14] = a4\n  8525: a4 = a3 >> 0x18\n  8528: u8 [a0 + 0x13] = a4\n  8531: a4 = a3 >> 0x10\n  8534: u8 [a0 + 0x12] = a4\n  8537: a3 = a3 >> 0x8\n  8540: u8 [a0 + 0x11] = a3\n  8543: u8 [a0 + 0x8] = a2\n  8546: a3 = a2 >> 0x38\n  8549: u8 [a0 + 0xf] = a3\n  8552: a3 = a2 >> 0x30\n  8555: u8 [a0 + 0xe] = a3\n  8558: a3 = a2 >> 0x28\n  8561: u8 [a0 + 0xd] = a3\n  8564: a3 = a2 >> 0x20\n  8567: u8 [a0 + 0xc] = a3\n  8570: a3 = a2 >> 0x18\n  8573: u8 [a0 + 0xb] = a3\n  8576: a3 = a2 >> 0x10\n  8579: u8 [a0 + 0xa] = a3\n  8582: a2 = a2 >> 0x8\n  8585: u8 [a0 + 0x9] = a2\n  8588: u8 [a0] = a1\n  8590: a2 = a1 >> 0x38\n  8593: u8 [a0 + 0x7] = a2\n  8596: a2 = a1 >> 0x30\n  8599: u8 [a0 + 0x6] = a2\n  8602: a2 = a1 >> 0x28\n  8605: u8 [a0 + 0x5] = a2\n  8608: a2 = a1 >> 0x20\n  8611: u8 [a0 + 0x4] = a2\n  8614: a2 = a1 >> 0x18\n  8617: u8 [a0 + 0x3] = a2\n  8620: a2 = a1 >> 0x10\n  8623: u8 [a0 + 0x2] = a2\n  8626: a1 = a1 >> 0x8\n  8629: u8 [a0 + 0x1] = a1\n  8632: a0 = u64 [sp + 0x38]\n  8635: a1 = u64 [sp]\n  8637: u64 [a0] = a1\n  8639: a1 = u64 [sp + 0x28]\n  8642: u64 [a0 + 0x18] = a1\n  8645: a1 = u64 [sp + 0x20]\n  8648: u64 [a0 + 0x8] = a1\n  8651: a1 = u64 [sp + 0x30]\n  8654: u64 [a0 + 0x10] = a1\n  8657: sp = s0 + 0xffffffffffffff20\n  8661: ra = u64 [sp + 0xd8]\n  8665: s0 = u64 [sp + 0xd0]\n  8669: s1 = u64 [sp + 0xc8]\n  8673: sp = sp + 0xe0\n  8677: ret\n      : @157 (gas: 1)\n  8679: trap\n      : @158 (gas: 8)\n  8680: u64 [sp + 112] = 0\n  8683: u64 [sp + 104] = 0\n  8686: u64 [sp + 96] = 0\n  8689: a0 = 0x4e487b7100000000\n  8699: a1 = sp + 0x60\n  8702: u64 [sp + 0x78] = a0\n  8705: a0 = 0\n  8707: ra = 142, jump @8\n      : @159 [@dyn 71] (gas: 7)\n  8713: u64 [sp + 88] = 0\n  8716: u64 [sp + 80] = 0\n  8719: u64 [sp + 64] = 0x41\n  8723: a0 = 0x4\n  8726: a1 = sp + 0x40\n  8729: u64 [sp + 72] = 0\n  8732: ra = 144, jump @8\n      : @160 [@dyn 72] (gas: 3)\n  8738: a1 = 0x24\n  8741: a0 = 0\n  8743: ra = 146, jump @0\n      : @161 [@dyn 73] (gas: 6)\n  8749: i32 a1 = a0 + 0\n  8751: a0 = 0x1\n  8754: a2 = 0x24\n  8757: ra = 0x94\n  8761: ecalli 12 // 'seal_return'\n  8763: fallthrough\n      : @162 [@dyn 74] (gas: 6)\n  8764: u64 [a0 + 24] = 0\n  8767: u64 [a0 + 16] = 0\n  8770: u64 [a0 + 8] = 0\n  8773: a1 = 0x60\n  8776: u64 [a0] = a1\n  8778: ret\n      : @163 (gas: 1)\n  8780: jump @172 if a0 == 0\n      : @164 (gas: 9)\n  8784: u64 [sp + 0x20] = s1\n  8787: ecalli 11 // 'return_data_size'\n  8789: u64 [sp + 88] = 0\n  8792: u64 [sp + 80] = 0\n  8795: u64 [sp + 0x40] = a0\n  8798: a0 = sp + 0x60\n  8801: a1 = sp + 0x40\n  8804: u64 [sp + 72] = 0\n  8807: ra = 150, jump @152\n      : @165 [@dyn 75] (gas: 9)\n  8813: a0 = u64 [sp + 0x78]\n  8816: u64 [sp + 0x38] = a0\n  8819: a0 = u64 [sp + 0x70]\n  8822: u64 [sp + 0x30] = a0\n  8825: a0 = u64 [sp + 0x68]\n  8828: u64 [sp + 0x28] = a0\n  8831: s1 = u64 [sp + 0x60]\n  8834: ecalli 11 // 'return_data_size'\n  8836: fallthrough\n      : @166 (gas: 20)\n  8837: a1 = s1 + 0x20\n  8840: u64 [sp + 0x18] = s1\n  8843: a2 = a1 <u s1\n  8846: a4 = u64 [sp + 0x28]\n  8849: a3 = a4 + a2\n  8852: a4 = a3 <u a4\n  8855: a4 = a2 if a2 == 0\n  8858: a2 = u64 [sp + 0x30]\n  8861: a4 = a4 + a2\n  8864: a2 = a4 <u a2\n  8867: a5 = u64 [sp + 0x38]\n  8870: a2 = a2 + a5\n  8873: a5 = a1 | a4\n  8876: a2 = a2 | a3\n  8879: a5 = a5 | a2\n  8882: a5 = a5 >> 0x20\n  8885: a2 = a2 | a4\n  8888: a2 = a2 << 0x20\n  8891: a2 = a2 | a5\n  8894: jump @171 if a2 != 0\n      : @167 (gas: 3)\n  8897: s1 = a0\n  8899: a0 = a0 >> 0x20\n  8902: jump @171 if a0 != 0\n      : @168 (gas: 4)\n  8905: i32 a0 = a1 + 0\n  8907: i32 a1 = s1 + 0\n  8909: u64 [sp + 0x10] = a1\n  8912: ra = 152, jump @0\n      : @169 [@dyn 76] (gas: 6)\n  8918: u32 [sp + 0x80] = s1\n  8922: i32 a0 = a0 + 0\n  8924: i32 a1 = sp + 0x80\n  8928: a2 = 0\n  8930: ecalli 10 // 'return_data_copy'\n  8932: fallthrough\n      : @170 (gas: 8)\n  8933: a0 = i32 [sp + 0x80]\n  8937: s1 = u64 [sp + 0x20]\n  8940: a1 = u64 [sp + 0x38]\n  8943: a2 = u64 [sp + 0x30]\n  8946: a3 = u64 [sp + 0x28]\n  8949: a4 = u64 [sp + 0x18]\n  8952: a5 = u64 [sp + 0x10]\n  8955: jump @173 if a0 >=u a5\n      : @171 (gas: 1)\n  8958: trap\n      : @172 (gas: 5)\n  8959: a3 = 0\n  8961: a2 = 0\n  8963: a1 = 0\n  8965: a4 = 0x60\n  8968: fallthrough\n      : @173 (gas: 10)\n  8969: u64 [s1] = a4\n  8971: u64 [s1 + 0x8] = a3\n  8974: u64 [s1 + 0x10] = a2\n  8977: u64 [s1 + 0x18] = a1\n  8980: sp = s0 + 0xffffffffffffff60\n  8984: ra = u64 [sp + 0x98]\n  8988: s0 = u64 [sp + 0x90]\n  8992: s1 = u64 [sp + 0x88]\n  8996: sp = sp + 0xa0\n  9000: ret\n      : @174 (gas: 17)\n  9002: sp = sp + 0xffffffffffffffa0\n  9005: u64 [sp + 0x58] = ra\n  9008: u64 [sp + 0x50] = s0\n  9011: u64 [sp + 0x48] = s1\n  9014: a3 = u64 [a1 + 0x18]\n  9017: a4 = u64 [a1 + 0x10]\n  9020: a5 = u64 [a1 + 0x8]\n  9023: s1 = u64 [a1]\n  9025: a1 = a5 | a3\n  9028: a2 = s1 | a4\n  9031: a2 = a2 | a1\n  9034: a2 = a2 >> 0x20\n  9037: a1 = a1 | a4\n  9040: a1 = a1 << 0x20\n  9043: a1 = a1 | a2\n  9046: u64 [sp + 0x28] = a0\n  9049: jump @181 if a1 != 0\n      : @175 (gas: 19)\n  9053: a0 = s1 + 0x20\n  9056: u64 [sp + 0x30] = a0\n  9059: a0 = a0 <u s1\n  9062: a1 = a5 + a0\n  9065: u64 [sp + 0x40] = a1\n  9068: u64 [sp + 0x8] = a5\n  9071: s0 = a1 <u a5\n  9074: s0 = a0 if a0 == 0\n  9077: s0 = s0 + a4\n  9080: u64 [sp + 0x10] = a4\n  9083: a0 = s0 <u a4\n  9086: u64 [sp + 0x18] = a3\n  9089: a0 = a0 + a3\n  9092: u64 [sp + 0x38] = a0\n  9095: u64 [sp] = s1\n  9097: i32 a0 = s1 + 0\n  9099: a1 = 0x20\n  9102: s1 = 0x20\n  9105: ra = 154, jump @0\n      : @176 [@dyn 77] (gas: 45)\n  9111: u8 [a0 + 0x1f] = s1\n  9114: a1 = u64 [sp + 0x30]\n  9117: s1 = a1\n  9119: a1 = a1 | s0\n  9122: a2 = u64 [sp + 0x40]\n  9125: a4 = u64 [sp + 0x38]\n  9128: a2 = a2 | a4\n  9131: a1 = a1 | a2\n  9134: a1 = a1 >> 0x20\n  9137: u64 [sp + 0x20] = s0\n  9140: a2 = a2 | s0\n  9143: a2 = a2 << 0x20\n  9146: a1 = a1 | a2\n  9149: u8 [a0 + 30] = 0\n  9152: u8 [a0 + 29] = 0\n  9155: u8 [a0 + 28] = 0\n  9158: u8 [a0 + 27] = 0\n  9161: u8 [a0 + 26] = 0\n  9164: u8 [a0 + 25] = 0\n  9167: u8 [a0 + 24] = 0\n  9170: u8 [a0 + 23] = 0\n  9173: u8 [a0 + 22] = 0\n  9176: u8 [a0 + 21] = 0\n  9179: u8 [a0 + 20] = 0\n  9182: u8 [a0 + 19] = 0\n  9185: u8 [a0 + 18] = 0\n  9188: u8 [a0 + 17] = 0\n  9191: u8 [a0 + 16] = 0\n  9194: u8 [a0 + 15] = 0\n  9197: u8 [a0 + 14] = 0\n  9200: u8 [a0 + 13] = 0\n  9203: u8 [a0 + 12] = 0\n  9206: u8 [a0 + 11] = 0\n  9209: u8 [a0 + 10] = 0\n  9212: u8 [a0 + 9] = 0\n  9215: u8 [a0 + 8] = 0\n  9218: u8 [a0 + 7] = 0\n  9221: u8 [a0 + 6] = 0\n  9224: u8 [a0 + 5] = 0\n  9227: u8 [a0 + 4] = 0\n  9230: u8 [a0 + 3] = 0\n  9233: u8 [a0 + 2] = 0\n  9236: u8 [a0 + 1] = 0\n  9239: u8 [a0 + 0] = 0\n  9241: jump @181 if a1 != 0\n      : @177 (gas: 4)\n  9245: i32 s0 = s1 + 0\n  9247: a1 = 0x20\n  9250: a0 = s0\n  9252: ra = 156, jump @0\n      : @178 [@dyn 78] (gas: 41)\n  9258: u8 [a0 + 31] = 0x10\n  9262: u8 [a0 + 30] = 0\n  9265: u8 [a0 + 29] = 0\n  9268: u8 [a0 + 28] = 0\n  9271: u8 [a0 + 27] = 0\n  9274: u8 [a0 + 26] = 0\n  9277: u8 [a0 + 25] = 0\n  9280: u8 [a0 + 24] = 0\n  9283: u8 [a0 + 23] = 0\n  9286: u8 [a0 + 22] = 0\n  9289: u8 [a0 + 21] = 0\n  9292: u8 [a0 + 20] = 0\n  9295: u8 [a0 + 19] = 0\n  9298: u8 [a0 + 18] = 0\n  9301: u8 [a0 + 17] = 0\n  9304: u8 [a0 + 16] = 0\n  9307: u8 [a0 + 15] = 0\n  9310: u8 [a0 + 14] = 0\n  9313: u8 [a0 + 13] = 0\n  9316: u8 [a0 + 12] = 0\n  9319: u8 [a0 + 11] = 0\n  9322: u8 [a0 + 10] = 0\n  9325: u8 [a0 + 9] = 0\n  9328: u8 [a0 + 8] = 0\n  9331: u8 [a0 + 7] = 0\n  9334: u8 [a0 + 6] = 0\n  9337: u8 [a0 + 5] = 0\n  9340: u8 [a0 + 4] = 0\n  9343: u8 [a0 + 3] = 0\n  9346: u8 [a0 + 2] = 0\n  9349: u8 [a0 + 1] = 0\n  9352: a1 = u64 [sp + 0x20]\n  9355: a2 = u64 [sp + 0x38]\n  9358: a1 = a1 | a2\n  9361: a2 = 0xffffffe0\n  9371: a2 = s1 <u a2\n  9374: a3 = u64 [sp + 0x40]\n  9377: a2 = 0 if a3 != 0\n  9379: a2 = 0 if a1 != 0\n  9381: u8 [a0 + 0] = 0\n  9383: jump @181 if a2 == 0\n      : @179 (gas: 3)\n  9387: i32 a0 = s0 + 0x20\n  9390: a1 = 0x20\n  9393: ra = 158, jump @0\n      : @180 [@dyn 79] (gas: 54)\n  9399: u8 [a0 + 31] = 0\n  9402: u8 [a0 + 30] = 0\n  9405: u8 [a0 + 29] = 0\n  9408: u8 [a0 + 28] = 0\n  9411: u8 [a0 + 27] = 0\n  9414: u8 [a0 + 26] = 0\n  9417: u8 [a0 + 25] = 0\n  9420: u8 [a0 + 24] = 0\n  9423: u8 [a0 + 23] = 0\n  9426: u8 [a0 + 22] = 0\n  9429: u8 [a0 + 21] = 0\n  9432: u8 [a0 + 20] = 0\n  9435: u8 [a0 + 19] = 0\n  9438: u8 [a0 + 18] = 0\n  9441: u8 [a0 + 17] = 0\n  9444: u8 [a0 + 16] = 0\n  9447: u8 [a0 + 15] = 0x21\n  9451: u8 [a0 + 14] = 0x64\n  9455: u8 [a0 + 13] = 0x65\n  9459: u8 [a0 + 12] = 0x6c\n  9463: u8 [a0 + 11] = 0x69\n  9467: u8 [a0 + 10] = 0x61\n  9471: u8 [a0 + 9] = 0x66\n  9475: u8 [a0 + 8] = 0x20\n  9479: u8 [a0 + 7] = 0x77\n  9483: u8 [a0 + 6] = 0x61\n  9487: u8 [a0 + 5] = 0x72\n  9491: u8 [a0 + 4] = 0x64\n  9495: u8 [a0 + 3] = 0x68\n  9499: u8 [a0 + 2] = 0x74\n  9503: u8 [a0 + 1] = 0x69\n  9507: u8 [a0 + 0] = 0x77\n  9510: a1 = u64 [sp]\n  9512: a0 = a1 + 0x60\n  9515: a1 = a0 <u a1\n  9518: a3 = u64 [sp + 0x8]\n  9521: a2 = a3 + a1\n  9524: a3 = a2 <u a3\n  9527: a3 = a1 if a1 == 0\n  9530: a1 = u64 [sp + 0x10]\n  9533: a3 = a3 + a1\n  9536: a1 = a3 <u a1\n  9539: a4 = u64 [sp + 0x18]\n  9542: a1 = a1 + a4\n  9545: a4 = u64 [sp + 0x28]\n  9548: u64 [a4] = a0\n  9550: u64 [a4 + 0x8] = a2\n  9553: u64 [a4 + 0x10] = a3\n  9556: u64 [a4 + 0x18] = a1\n  9559: ra = u64 [sp + 0x58]\n  9562: s0 = u64 [sp + 0x50]\n  9565: s1 = u64 [sp + 0x48]\n  9568: sp = sp + 0x60\n  9571: ret\n      : @181 (gas: 1)\n  9573: trap\n      : @182 (gas: 24)\n  9574: a0 = u64 [s1 + 0x108]\n  9578: a1 = i32 [s1 + 0x110]\n  9582: a2 = u64 [s1 + 0x100]\n  9586: a0 = reverse a0\n  9588: a3 = a0 << 0x20\n  9591: a1 = reverse a1\n  9593: a1 = a1 >> 0x20\n  9596: a1 = a1 | a3\n  9599: a0 = a0 >> 0x20\n  9602: a2 = reverse a2\n  9604: a3 = a2 << 0x20\n  9607: a0 = a0 | a3\n  9610: a2 = a2 >> 0x20\n  9613: a3 = u64 [s1 + 0x48]\n  9616: a3 = a3 << 0x18\n  9619: a3 = a3 >> 0x20\n  9622: a4 = u64 [s1 + 0x50]\n  9625: a0 = a0 ^ a4\n  9628: a4 = u64 [s1 + 0x58]\n  9631: a1 = a1 ^ a4\n  9634: a2 = a2 ^ a3\n  9637: a1 = a1 | a2\n  9640: a0 = a0 | a1\n  9643: jump @191 if a0 != 0\n      : @183 (gas: 54)\n  9647: i32 a0 = s1 + 0x120\n  9651: ecalli 0 // 'address'\n  9652: a0 = u64 [s1 + 0x128]\n  9656: a1 = u64 [s1 + 0x120]\n  9660: a2 = i32 [s1 + 0x130]\n  9664: u64 [s1 + 0x148] = a0\n  9668: u64 [s1 + 0x140] = a1\n  9672: u32 [s1 + 0x150] = a2\n  9676: a0 = sp + 0xffffffffffffffe0\n  9679: a0 = a0 & 0xffffffffffffffe0\n  9682: u64 [s1 + 0x40] = a0\n  9685: sp = a0\n  9687: i32 a1 = a0 + 0\n  9689: i32 a0 = s1 + 0x140\n  9693: ecalli 1 // 'balance_of'\n  9695: a1 = u64 [s1 + 0x40]\n  9698: a0 = u64 [a1]\n  9700: u64 [s1 + 0x58] = a0\n  9703: a0 = u64 [a1 + 0x8]\n  9706: u64 [s1 + 0x50] = a0\n  9709: a0 = u64 [a1 + 0x10]\n  9712: u64 [s1 + 0x48] = a0\n  9715: a0 = u64 [a1 + 0x18]\n  9718: u64 [s1 + 0x40] = a0\n  9721: u64 [s1 + 504] = 0\n  9725: u64 [s1 + 496] = 0\n  9729: u64 [s1 + 488] = 0\n  9733: u64 [s1 + 480] = 0x2\n  9738: u64 [s1 + 536] = 0\n  9742: u64 [s1 + 528] = 0\n  9746: u64 [s1 + 520] = 0\n  9750: u64 [s1 + 512] = 0\n  9754: u32 [s1 + 544] = 0x20\n  9759: i32 a1 = s1 + 0x1e0\n  9763: i32 a3 = s1 + 0x200\n  9767: i32 a4 = s1 + 0x220\n  9771: a2 = 0xffffffffffffffff\n  9774: a0 = 0\n  9776: ecalli 7 // 'get_storage'\n  9778: a0 = u64 [s1 + 0x208]\n  9782: a1 = u64 [s1 + 0x200]\n  9786: a3 = u64 [s1 + 0x210]\n  9790: u64 [s1 + 0x38] = a3\n  9793: a2 = a0 << 0x38\n  9796: a1 = a1 >> 0x8\n  9799: a1 = a1 | a2\n  9802: u64 [s1 + 0x30] = a1\n  9805: a1 = a3 << 0x38\n  9808: a0 = a0 >> 0x8\n  9811: a0 = a0 | a1\n  9814: u64 [s1 + 0x28] = a0\n  9817: a0 = 0x40\n  9820: a1 = 0x20\n  9823: ra = 160, jump @0\n      : @184 [@dyn 80] (gas: 98)\n  9829: a1 = u8 [a0 + 0x11]\n  9832: a2 = u8 [a0 + 0x10]\n  9835: a3 = u8 [a0 + 0x12]\n  9838: a4 = u8 [a0 + 0x13]\n  9841: a1 = a1 << 0x8\n  9844: a1 = a1 | a2\n  9847: a3 = a3 << 0x10\n  9850: a4 = a4 << 0x18\n  9853: a3 = a3 | a4\n  9856: a1 = a1 | a3\n  9859: a2 = u8 [a0 + 0x15]\n  9862: a3 = u8 [a0 + 0x14]\n  9865: a4 = u8 [a0 + 0x16]\n  9868: a5 = u8 [a0 + 0x17]\n  9871: a2 = a2 << 0x8\n  9874: a2 = a2 | a3\n  9877: a4 = a4 << 0x10\n  9880: a5 = a5 << 0x18\n  9883: a4 = a4 | a5\n  9886: a2 = a2 | a4\n  9889: a2 = a2 << 0x20\n  9892: t0 = a2 | a1\n  9895: a2 = u8 [a0 + 0x1]\n  9898: a3 = u8 [a0]\n  9900: a4 = u8 [a0 + 0x2]\n  9903: a5 = u8 [a0 + 0x3]\n  9906: a2 = a2 << 0x8\n  9909: a2 = a2 | a3\n  9912: a4 = a4 << 0x10\n  9915: a5 = a5 << 0x18\n  9918: a4 = a4 | a5\n  9921: a2 = a2 | a4\n  9924: a3 = u8 [a0 + 0x5]\n  9927: a4 = u8 [a0 + 0x4]\n  9930: a5 = u8 [a0 + 0x6]\n  9933: a1 = u8 [a0 + 0x7]\n  9936: a3 = a3 << 0x8\n  9939: a3 = a3 | a4\n  9942: a5 = a5 << 0x10\n  9945: a1 = a1 << 0x18\n  9948: a1 = a1 | a5\n  9951: a1 = a1 | a3\n  9954: a1 = a1 << 0x20\n  9957: t1 = a1 | a2\n  9960: a1 = u8 [a0 + 0x19]\n  9963: a3 = u8 [a0 + 0x18]\n  9966: a4 = u8 [a0 + 0x1a]\n  9969: a5 = u8 [a0 + 0x1b]\n  9972: a1 = a1 << 0x8\n  9975: a1 = a1 | a3\n  9978: a4 = a4 << 0x10\n  9981: a5 = a5 << 0x18\n  9984: a4 = a4 | a5\n  9987: a1 = a1 | a4\n  9990: a3 = u8 [a0 + 0x1d]\n  9993: a4 = u8 [a0 + 0x1c]\n  9996: a5 = u8 [a0 + 0x1e]\n  9999: a2 = u8 [a0 + 0x1f]\n 10002: a3 = a3 << 0x8\n 10005: a3 = a3 | a4\n 10008: a5 = a5 << 0x10\n 10011: a2 = a2 << 0x18\n 10014: a2 = a2 | a5\n 10017: a2 = a2 | a3\n 10020: a2 = a2 << 0x20\n 10023: a3 = a2 | a1\n 10026: a1 = u8 [a0 + 0x9]\n 10029: a2 = u8 [a0 + 0x8]\n 10032: a4 = u8 [a0 + 0xa]\n 10035: a5 = u8 [a0 + 0xb]\n 10038: a1 = a1 << 0x8\n 10041: a1 = a1 | a2\n 10044: a4 = a4 << 0x10\n 10047: a5 = a5 << 0x18\n 10050: a4 = a4 | a5\n 10053: a1 = a1 | a4\n 10056: a2 = u8 [a0 + 0xd]\n 10059: a4 = u8 [a0 + 0xc]\n 10062: a5 = u8 [a0 + 0xe]\n 10065: a0 = u8 [a0 + 0xf]\n 10068: a2 = a2 << 0x8\n 10071: a2 = a2 | a4\n 10074: a5 = a5 << 0x10\n 10077: a0 = a0 << 0x18\n 10080: a0 = a0 | a5\n 10083: a0 = a0 | a2\n 10086: a0 = a0 << 0x20\n 10089: a0 = a0 | a1\n 10092: a0 = reverse a0\n 10094: u64 [s1 + 0x20] = a0\n 10097: a0 = reverse a3\n 10099: u64 [s1 + 0x8] = a0\n 10102: a0 = reverse t1\n 10104: u64 [s1 + 0x18] = a0\n 10107: a0 = reverse t0\n 10109: u64 [s1 + 0x10] = a0\n 10112: ecalli 9 // 'ref_time_left'\n 10114: fallthrough\n      : @185 (gas: 38)\n 10115: u64 [s1] = a0\n 10117: a0 = u64 [s1 + 0x28]\n 10120: a0 = reverse a0\n 10122: a1 = u64 [s1 + 0x30]\n 10125: a1 = reverse a1\n 10127: a2 = a0 >> 0x20\n 10130: a3 = a1 << 0x20\n 10133: a2 = a2 | a3\n 10136: a0 = a0 << 0x20\n 10139: a3 = u64 [s1 + 0x38]\n 10142: a3 = reverse a3\n 10144: a3 = a3 << 0x8\n 10147: a3 = a3 >> 0x20\n 10150: a0 = a0 | a3\n 10153: u64 [s1 + 0x168] = a2\n 10157: a2 = u64 [s1 + 0x8]\n 10160: u64 [s1 + 0x160] = a0\n 10164: a1 = a1 >> 0x20\n 10167: u32 [s1 + 0x170] = a1\n 10171: a0 = u64 [s1 + 0x40]\n 10174: u64 [s1 + 0x198] = a0\n 10178: a0 = u64 [s1 + 0x48]\n 10181: u64 [s1 + 0x190] = a0\n 10185: a0 = u64 [s1 + 0x50]\n 10188: u64 [s1 + 0x188] = a0\n 10192: a0 = u64 [s1 + 0x18]\n 10195: a1 = u64 [s1 + 0x10]\n 10198: a0 = a0 | a1\n 10201: a3 = u64 [s1 + 0x20]\n 10204: a1 = a2 | a3\n 10207: a1 = a1 | a0\n 10210: a0 = a0 | a3\n 10213: a1 = a1 >> 0x20\n 10216: a0 = a0 << 0x20\n 10219: a0 = a0 | a1\n 10222: a1 = u64 [s1 + 0x58]\n 10225: u64 [s1 + 0x180] = a1\n 10229: jump @202 if a0 != 0\n      : @186 (gas: 3)\n 10233: i32 a0 = a2 + 0\n 10235: a1 = 0\n 10237: ra = 162, jump @0\n      : @187 [@dyn 81] (gas: 4)\n 10243: u64 [s1 + 0x58] = a0\n 10246: a0 = 0\n 10248: a1 = 0\n 10250: ra = 164, jump @0\n      : @188 [@dyn 82] (gas: 43)\n 10256: u32 [s1 + 416] = 0\n 10260: a2 = u64 [s1]\n 10262: a1 = a2 >u 0x8fc\n 10266: a2 = -a1\n 10268: u64 [s1 + 0x1d8] = a2\n 10272: u64 [s1 + 0x1d0] = a2\n 10276: u64 [s1 + 0x1c8] = a2\n 10280: u64 [s1 + 0x1c0] = a2\n 10284: a2 = s1 + 0x160\n 10288: a2 = a2 << 0x20\n 10291: a2 = a2 >> 0x20\n 10294: a1 = a1 << 0x23\n 10297: t0 = a1 | a2\n 10300: a1 = s1 + 0x180\n 10304: a1 = a1 << 0x20\n 10307: a1 = a1 >> 0x20\n 10310: a2 = s1 + 0x1c0\n 10314: a2 = a2 << 0x20\n 10317: a3 = a2 | a1\n 10320: a4 = u64 [s1 + 0x58]\n 10323: a4 = a4 << 0x20\n 10326: a4 = a4 >> 0x20\n 10329: a0 = a0 << 0x20\n 10332: a0 = a0 >> 0x20\n 10335: a1 = s1 + 0x1a0\n 10339: a1 = a1 << 0x20\n 10342: a5 = a1 | a0\n 10345: a1 = 0xffffffffffffffff\n 10348: a2 = 0xffffffffffffffff\n 10351: a0 = t0\n 10353: ecalli 2 // 'call'\n 10355: u64 [s1 + 0x58] = a0\n 10358: a0 = s1 + 0xa0\n 10362: ra = 0xa6\n 10366: sp = sp + 0xffffffffffffff60\n 10370: u64 [sp + 0x98] = ra\n 10374: u64 [sp + 0x90] = s0\n 10378: u64 [sp + 0x88] = s1\n 10382: s0 = sp + 0xa0\n 10386: sp = sp & 0xffffffffffffffe0\n 10389: s1 = a0\n 10391: ecalli 11 // 'return_data_size'\n 10393: jump @163\n      : @189 [@dyn 83] (gas: 2)\n 10396: a0 = u64 [s1 + 0x58]\n 10399: jump @196 if a0 != 0\n      : @190 (gas: 6)\n 10403: sp = s0 + 0xfffffffffffffdc0\n 10407: ra = u64 [sp + 0x238]\n 10411: s0 = u64 [sp + 0x230]\n 10415: s1 = u64 [sp + 0x228]\n 10419: sp = sp + 0x240\n 10423: ret\n      : @191 (gas: 3)\n 10425: a0 = 0x40\n 10428: a1 = 0x20\n 10431: ra = 168, jump @0\n      : @192 [@dyn 84] (gas: 104)\n 10437: a1 = u8 [a0 + 0x11]\n 10440: a2 = u8 [a0 + 0x10]\n 10443: a3 = u8 [a0 + 0x12]\n 10446: a4 = u8 [a0 + 0x13]\n 10449: a1 = a1 << 0x8\n 10452: a1 = a1 | a2\n 10455: a3 = a3 << 0x10\n 10458: a4 = a4 << 0x18\n 10461: a3 = a3 | a4\n 10464: a1 = a1 | a3\n 10467: a2 = u8 [a0 + 0x15]\n 10470: a3 = u8 [a0 + 0x14]\n 10473: a4 = u8 [a0 + 0x16]\n 10476: a5 = u8 [a0 + 0x17]\n 10479: a2 = a2 << 0x8\n 10482: a2 = a2 | a3\n 10485: a4 = a4 << 0x10\n 10488: a5 = a5 << 0x18\n 10491: a4 = a4 | a5\n 10494: a2 = a2 | a4\n 10497: a2 = a2 << 0x20\n 10500: t0 = a2 | a1\n 10503: a2 = u8 [a0 + 0x1]\n 10506: a3 = u8 [a0]\n 10508: a4 = u8 [a0 + 0x2]\n 10511: a5 = u8 [a0 + 0x3]\n 10514: a2 = a2 << 0x8\n 10517: a2 = a2 | a3\n 10520: a4 = a4 << 0x10\n 10523: a5 = a5 << 0x18\n 10526: a4 = a4 | a5\n 10529: a2 = a2 | a4\n 10532: a3 = u8 [a0 + 0x5]\n 10535: a4 = u8 [a0 + 0x4]\n 10538: a5 = u8 [a0 + 0x6]\n 10541: a1 = u8 [a0 + 0x7]\n 10544: a3 = a3 << 0x8\n 10547: a3 = a3 | a4\n 10550: a5 = a5 << 0x10\n 10553: a1 = a1 << 0x18\n 10556: a1 = a1 | a5\n 10559: a1 = a1 | a3\n 10562: a1 = a1 << 0x20\n 10565: t1 = a1 | a2\n 10568: a1 = u8 [a0 + 0x19]\n 10571: a3 = u8 [a0 + 0x18]\n 10574: a4 = u8 [a0 + 0x1a]\n 10577: a5 = u8 [a0 + 0x1b]\n 10580: a1 = a1 << 0x8\n 10583: a1 = a1 | a3\n 10586: a4 = a4 << 0x10\n 10589: a5 = a5 << 0x18\n 10592: a4 = a4 | a5\n 10595: a1 = a1 | a4\n 10598: a3 = u8 [a0 + 0x1d]\n 10601: a4 = u8 [a0 + 0x1c]\n 10604: a5 = u8 [a0 + 0x1e]\n 10607: a2 = u8 [a0 + 0x1f]\n 10610: a3 = a3 << 0x8\n 10613: a3 = a3 | a4\n 10616: a5 = a5 << 0x10\n 10619: a2 = a2 << 0x18\n 10622: a2 = a2 | a5\n 10625: a2 = a2 | a3\n 10628: a2 = a2 << 0x20\n 10631: a3 = a2 | a1\n 10634: a1 = u8 [a0 + 0x9]\n 10637: a2 = u8 [a0 + 0x8]\n 10640: a4 = u8 [a0 + 0xa]\n 10643: a5 = u8 [a0 + 0xb]\n 10646: a1 = a1 << 0x8\n 10649: a1 = a1 | a2\n 10652: a4 = a4 << 0x10\n 10655: a5 = a5 << 0x18\n 10658: a4 = a4 | a5\n 10661: a1 = a1 | a4\n 10664: a2 = u8 [a0 + 0xd]\n 10667: a4 = u8 [a0 + 0xc]\n 10670: a5 = u8 [a0 + 0xe]\n 10673: a0 = u8 [a0 + 0xf]\n 10676: a2 = a2 << 0x8\n 10679: a2 = a2 | a4\n 10682: a5 = a5 << 0x10\n 10685: a0 = a0 << 0x18\n 10688: a0 = a0 | a5\n 10691: a0 = a0 | a2\n 10694: a0 = a0 << 0x20\n 10697: a0 = a0 | a1\n 10700: a4 = reverse a0\n 10702: a1 = reverse a3\n 10704: a2 = reverse t1\n 10706: a0 = reverse t0\n 10708: u64 [s1 + 0x58] = a0\n 10711: u64 [s1 + 0x48] = a2\n 10714: a0 = a0 | a2\n 10717: a2 = a1\n 10719: a1 = a1 | a4\n 10722: a1 = a1 | a0\n 10725: a1 = a1 >> 0x20\n 10728: u64 [s1 + 0x50] = a4\n 10731: a0 = a0 | a4\n 10734: a0 = a0 << 0x20\n 10737: a0 = a0 | a1\n 10740: jump @202 if a0 != 0\n      : @193 (gas: 5)\n 10744: u64 [s1 + 0x40] = a2\n 10747: i32 a0 = a2 + 0\n 10749: a1 = 0x20\n 10752: u64 [s1 + 0x38] = a0\n 10755: ra = 170, jump @0\n      : @194 [@dyn 85] (gas: 51)\n 10761: u8 [a0 + 31] = 0\n 10764: u8 [a0 + 30] = 0\n 10767: u8 [a0 + 29] = 0\n 10770: u8 [a0 + 28] = 0\n 10773: u8 [a0 + 27] = 0\n 10776: u8 [a0 + 26] = 0\n 10779: u8 [a0 + 25] = 0\n 10782: u8 [a0 + 24] = 0\n 10785: u8 [a0 + 23] = 0\n 10788: u8 [a0 + 22] = 0\n 10791: u8 [a0 + 21] = 0\n 10794: u8 [a0 + 20] = 0\n 10797: u8 [a0 + 19] = 0\n 10800: u8 [a0 + 18] = 0\n 10803: u8 [a0 + 17] = 0\n 10806: u8 [a0 + 16] = 0\n 10809: u8 [a0 + 15] = 0\n 10812: u8 [a0 + 14] = 0\n 10815: u8 [a0 + 13] = 0\n 10818: u8 [a0 + 12] = 0\n 10821: u8 [a0 + 11] = 0\n 10824: u8 [a0 + 10] = 0\n 10827: u8 [a0 + 9] = 0\n 10830: u8 [a0 + 8] = 0\n 10833: u8 [a0 + 7] = 0\n 10836: u8 [a0 + 6] = 0\n 10839: u8 [a0 + 5] = 0\n 10842: u8 [a0 + 4] = 0\n 10845: u8 [a0 + 3] = 0xa0\n 10850: u8 [a0 + 2] = 0x79\n 10854: u8 [a0 + 1] = 0xc3\n 10859: u8 [a0 + 0] = 0x8\n 10862: a1 = u64 [s1 + 0x40]\n 10865: a0 = a1 + 0x4\n 10868: a1 = a0 <u a1\n 10871: a3 = u64 [s1 + 0x58]\n 10874: a2 = a3 + a1\n 10877: a3 = a2 <u a3\n 10880: a3 = a1 if a1 == 0\n 10883: a1 = u64 [s1 + 0x50]\n 10886: a3 = a3 + a1\n 10889: a1 = a3 <u a1\n 10892: a4 = u64 [s1 + 0x48]\n 10895: a4 = a4 + a1\n 10898: u64 [s1 + 0xc8] = a2\n 10902: u64 [s1 + 0xc0] = a0\n 10906: u64 [s1 + 0xd0] = a3\n 10910: a0 = s1 + 0xe0\n 10914: a1 = s1 + 0xc0\n 10918: u64 [s1 + 0xd8] = a4\n 10922: ra = 172, jump @130\n      : @195 [@dyn 86] (gas: 5)\n 10928: a0 = u64 [s1 + 0xe8]\n 10932: t0 = u64 [s1 + 0xf8]\n 10936: t1 = u64 [s1 + 0xe0]\n 10940: a3 = u64 [s1 + 0xf0]\n 10944: jump @201\n      : @196 (gas: 3)\n 10947: a0 = 0x40\n 10950: a1 = 0x20\n 10953: ra = 174, jump @0\n      : @197 [@dyn 87] (gas: 104)\n 10959: a1 = u8 [a0 + 0x11]\n 10962: a2 = u8 [a0 + 0x10]\n 10965: a3 = u8 [a0 + 0x12]\n 10968: a4 = u8 [a0 + 0x13]\n 10971: a1 = a1 << 0x8\n 10974: a1 = a1 | a2\n 10977: a3 = a3 << 0x10\n 10980: a4 = a4 << 0x18\n 10983: a3 = a3 | a4\n 10986: a1 = a1 | a3\n 10989: a2 = u8 [a0 + 0x15]\n 10992: a3 = u8 [a0 + 0x14]\n 10995: a4 = u8 [a0 + 0x16]\n 10998: a5 = u8 [a0 + 0x17]\n 11001: a2 = a2 << 0x8\n 11004: a2 = a2 | a3\n 11007: a4 = a4 << 0x10\n 11010: a5 = a5 << 0x18\n 11013: a4 = a4 | a5\n 11016: a2 = a2 | a4\n 11019: a2 = a2 << 0x20\n 11022: t0 = a2 | a1\n 11025: a2 = u8 [a0 + 0x1]\n 11028: a3 = u8 [a0]\n 11030: a4 = u8 [a0 + 0x2]\n 11033: a5 = u8 [a0 + 0x3]\n 11036: a2 = a2 << 0x8\n 11039: a2 = a2 | a3\n 11042: a4 = a4 << 0x10\n 11045: a5 = a5 << 0x18\n 11048: a4 = a4 | a5\n 11051: a2 = a2 | a4\n 11054: a3 = u8 [a0 + 0x5]\n 11057: a4 = u8 [a0 + 0x4]\n 11060: a5 = u8 [a0 + 0x6]\n 11063: a1 = u8 [a0 + 0x7]\n 11066: a3 = a3 << 0x8\n 11069: a3 = a3 | a4\n 11072: a5 = a5 << 0x10\n 11075: a1 = a1 << 0x18\n 11078: a1 = a1 | a5\n 11081: a1 = a1 | a3\n 11084: a1 = a1 << 0x20\n 11087: t1 = a1 | a2\n 11090: a1 = u8 [a0 + 0x19]\n 11093: a3 = u8 [a0 + 0x18]\n 11096: a4 = u8 [a0 + 0x1a]\n 11099: a5 = u8 [a0 + 0x1b]\n 11102: a1 = a1 << 0x8\n 11105: a1 = a1 | a3\n 11108: a4 = a4 << 0x10\n 11111: a5 = a5 << 0x18\n 11114: a4 = a4 | a5\n 11117: a1 = a1 | a4\n 11120: a3 = u8 [a0 + 0x1d]\n 11123: a4 = u8 [a0 + 0x1c]\n 11126: a5 = u8 [a0 + 0x1e]\n 11129: a2 = u8 [a0 + 0x1f]\n 11132: a3 = a3 << 0x8\n 11135: a3 = a3 | a4\n 11138: a5 = a5 << 0x10\n 11141: a2 = a2 << 0x18\n 11144: a2 = a2 | a5\n 11147: a2 = a2 | a3\n 11150: a2 = a2 << 0x20\n 11153: a3 = a2 | a1\n 11156: a1 = u8 [a0 + 0x9]\n 11159: a2 = u8 [a0 + 0x8]\n 11162: a4 = u8 [a0 + 0xa]\n 11165: a5 = u8 [a0 + 0xb]\n 11168: a1 = a1 << 0x8\n 11171: a1 = a1 | a2\n 11174: a4 = a4 << 0x10\n 11177: a5 = a5 << 0x18\n 11180: a4 = a4 | a5\n 11183: a1 = a1 | a4\n 11186: a2 = u8 [a0 + 0xd]\n 11189: a4 = u8 [a0 + 0xc]\n 11192: a5 = u8 [a0 + 0xe]\n 11195: a0 = u8 [a0 + 0xf]\n 11198: a2 = a2 << 0x8\n 11201: a2 = a2 | a4\n 11204: a5 = a5 << 0x10\n 11207: a0 = a0 << 0x18\n 11210: a0 = a0 | a5\n 11213: a0 = a0 | a2\n 11216: a0 = a0 << 0x20\n 11219: a0 = a0 | a1\n 11222: a4 = reverse a0\n 11224: a1 = reverse a3\n 11226: a2 = reverse t1\n 11228: a0 = reverse t0\n 11230: u64 [s1 + 0x58] = a0\n 11233: u64 [s1 + 0x48] = a2\n 11236: a0 = a0 | a2\n 11239: a2 = a1\n 11241: a1 = a1 | a4\n 11244: a1 = a1 | a0\n 11247: a1 = a1 >> 0x20\n 11250: u64 [s1 + 0x50] = a4\n 11253: a0 = a0 | a4\n 11256: a0 = a0 << 0x20\n 11259: a0 = a0 | a1\n 11262: jump @202 if a0 != 0\n      : @198 (gas: 5)\n 11266: u64 [s1 + 0x40] = a2\n 11269: i32 a0 = a2 + 0\n 11271: a1 = 0x20\n 11274: u64 [s1 + 0x38] = a0\n 11277: ra = 176, jump @0\n      : @199 [@dyn 88] (gas: 51)\n 11283: u8 [a0 + 31] = 0\n 11286: u8 [a0 + 30] = 0\n 11289: u8 [a0 + 29] = 0\n 11292: u8 [a0 + 28] = 0\n 11295: u8 [a0 + 27] = 0\n 11298: u8 [a0 + 26] = 0\n 11301: u8 [a0 + 25] = 0\n 11304: u8 [a0 + 24] = 0\n 11307: u8 [a0 + 23] = 0\n 11310: u8 [a0 + 22] = 0\n 11313: u8 [a0 + 21] = 0\n 11316: u8 [a0 + 20] = 0\n 11319: u8 [a0 + 19] = 0\n 11322: u8 [a0 + 18] = 0\n 11325: u8 [a0 + 17] = 0\n 11328: u8 [a0 + 16] = 0\n 11331: u8 [a0 + 15] = 0\n 11334: u8 [a0 + 14] = 0\n 11337: u8 [a0 + 13] = 0\n 11340: u8 [a0 + 12] = 0\n 11343: u8 [a0 + 11] = 0\n 11346: u8 [a0 + 10] = 0\n 11349: u8 [a0 + 9] = 0\n 11352: u8 [a0 + 8] = 0\n 11355: u8 [a0 + 7] = 0\n 11358: u8 [a0 + 6] = 0\n 11361: u8 [a0 + 5] = 0\n 11364: u8 [a0 + 4] = 0\n 11367: u8 [a0 + 3] = 0xa0\n 11372: u8 [a0 + 2] = 0x79\n 11376: u8 [a0 + 1] = 0xc3\n 11381: u8 [a0 + 0] = 0x8\n 11384: a1 = u64 [s1 + 0x40]\n 11387: a0 = a1 + 0x4\n 11390: a1 = a0 <u a1\n 11393: a3 = u64 [s1 + 0x58]\n 11396: a2 = a3 + a1\n 11399: a3 = a2 <u a3\n 11402: a3 = a1 if a1 == 0\n 11405: a1 = u64 [s1 + 0x50]\n 11408: a3 = a3 + a1\n 11411: a1 = a3 <u a1\n 11414: a4 = u64 [s1 + 0x48]\n 11417: a4 = a4 + a1\n 11420: u64 [s1 + 0x68] = a2\n 11423: u64 [s1 + 0x60] = a0\n 11426: u64 [s1 + 0x70] = a3\n 11429: a0 = s1 + 0x80\n 11433: a1 = s1 + 0x60\n 11436: u64 [s1 + 0x78] = a4\n 11439: ra = 178, jump @174\n      : @200 [@dyn 89] (gas: 5)\n 11445: a0 = u64 [s1 + 0x88]\n 11449: t0 = u64 [s1 + 0x98]\n 11453: t1 = u64 [s1 + 0x80]\n 11457: a3 = u64 [s1 + 0x90]\n 11461: fallthrough\n      : @201 (gas: 27)\n 11462: a1 = u64 [s1 + 0x58]\n 11465: a4 = a0 ^ a1\n 11468: a5 = a0 <u a1\n 11471: ra = a1\n 11473: t2 = u64 [s1 + 0x40]\n 11476: a1 = t1 <u t2\n 11479: a5 = a1 if a4 == 0\n 11482: a2 = u64 [s1 + 0x50]\n 11485: a4 = a3 - a2\n 11488: a3 = a3 <u a2\n 11491: a2 = u64 [s1 + 0x48]\n 11494: a2 = t0 - a2\n 11497: a2 = a2 - a3\n 11500: a3 = a4 <u a5\n 11503: a2 = a2 - a3\n 11506: a4 = a4 - a5\n 11509: a0 = a0 - ra\n 11512: a1 = a0 - a1\n 11515: a0 = t1 - t2\n 11518: a1 = a1 | a2\n 11521: a2 = a0 | a4\n 11524: a2 = a2 | a1\n 11527: a1 = a1 | a4\n 11530: a2 = a2 >> 0x20\n 11533: a1 = a1 << 0x20\n 11536: a1 = a1 | a2\n 11539: jump @203 if a1 == 0\n      : @202 (gas: 1)\n 11542: trap\n      : @203 (gas: 4)\n 11543: i32 a1 = a0 + 0\n 11545: u64 [s1 + 0x58] = a1\n 11548: a0 = u64 [s1 + 0x38]\n 11551: ra = 180, jump @0\n      : @204 [@dyn 90] (gas: 6)\n 11557: i32 a1 = a0 + 0\n 11559: a0 = 0x1\n 11562: a2 = u64 [s1 + 0x58]\n 11565: ra = 0xb6\n 11569: ecalli 12 // 'seal_return'\n 11571: fallthrough\n      : @205 [@dyn 91] (gas: 19)\n 11572: a2 = u64 [a1]\n 11574: a4 = u64 [a1 + 0x8]\n 11577: t0 = u64 [a1 + 0x18]\n 11580: a1 = u64 [a1 + 0x10]\n 11583: a5 = a2 >> 0x38\n 11586: a3 = a4 << 0x8\n 11589: a3 = a3 | a5\n 11592: a4 = a4 >> 0x38\n 11595: a5 = a1 << 0x8\n 11598: a4 = a4 | a5\n 11601: a1 = a1 >> 0x38\n 11604: t0 = t0 << 0x8\n 11607: a1 = t0 | a1\n 11610: a2 = a2 << 0x8\n 11613: u64 [a0] = a2\n 11615: u64 [a0 + 0x18] = a1\n 11618: u64 [a0 + 0x10] = a4\n 11621: u64 [a0 + 0x8] = a3\n 11624: ret\n      : @206 (gas: 17)\n 11626: sp = sp + 0xffffffffffffffa0\n 11629: u64 [sp + 0x58] = ra\n 11632: u64 [sp + 0x50] = s0\n 11635: u64 [sp + 0x48] = s1\n 11638: a3 = u64 [a1 + 0x18]\n 11641: a4 = u64 [a1 + 0x10]\n 11644: a5 = u64 [a1 + 0x8]\n 11647: s1 = u64 [a1]\n 11649: a1 = a5 | a3\n 11652: a2 = s1 | a4\n 11655: a2 = a2 | a1\n 11658: a2 = a2 >> 0x20\n 11661: a1 = a1 | a4\n 11664: a1 = a1 << 0x20\n 11667: a1 = a1 | a2\n 11670: u64 [sp + 0x28] = a0\n 11673: jump @213 if a1 != 0\n      : @207 (gas: 19)\n 11677: a0 = s1 + 0x20\n 11680: u64 [sp + 0x30] = a0\n 11683: a0 = a0 <u s1\n 11686: a1 = a5 + a0\n 11689: u64 [sp + 0x40] = a1\n 11692: u64 [sp + 0x8] = a5\n 11695: s0 = a1 <u a5\n 11698: s0 = a0 if a0 == 0\n 11701: s0 = s0 + a4\n 11704: u64 [sp + 0x10] = a4\n 11707: a0 = s0 <u a4\n 11710: u64 [sp + 0x18] = a3\n 11713: a0 = a0 + a3\n 11716: u64 [sp + 0x38] = a0\n 11719: u64 [sp] = s1\n 11721: i32 a0 = s1 + 0\n 11723: a1 = 0x20\n 11726: s1 = 0x20\n 11729: ra = 184, jump @0\n      : @208 [@dyn 92] (gas: 45)\n 11735: u8 [a0 + 0x1f] = s1\n 11738: a1 = u64 [sp + 0x30]\n 11741: s1 = a1\n 11743: a1 = a1 | s0\n 11746: a2 = u64 [sp + 0x40]\n 11749: a4 = u64 [sp + 0x38]\n 11752: a2 = a2 | a4\n 11755: a1 = a1 | a2\n 11758: a1 = a1 >> 0x20\n 11761: u64 [sp + 0x20] = s0\n 11764: a2 = a2 | s0\n 11767: a2 = a2 << 0x20\n 11770: a1 = a1 | a2\n 11773: u8 [a0 + 30] = 0\n 11776: u8 [a0 + 29] = 0\n 11779: u8 [a0 + 28] = 0\n 11782: u8 [a0 + 27] = 0\n 11785: u8 [a0 + 26] = 0\n 11788: u8 [a0 + 25] = 0\n 11791: u8 [a0 + 24] = 0\n 11794: u8 [a0 + 23] = 0\n 11797: u8 [a0 + 22] = 0\n 11800: u8 [a0 + 21] = 0\n 11803: u8 [a0 + 20] = 0\n 11806: u8 [a0 + 19] = 0\n 11809: u8 [a0 + 18] = 0\n 11812: u8 [a0 + 17] = 0\n 11815: u8 [a0 + 16] = 0\n 11818: u8 [a0 + 15] = 0\n 11821: u8 [a0 + 14] = 0\n 11824: u8 [a0 + 13] = 0\n 11827: u8 [a0 + 12] = 0\n 11830: u8 [a0 + 11] = 0\n 11833: u8 [a0 + 10] = 0\n 11836: u8 [a0 + 9] = 0\n 11839: u8 [a0 + 8] = 0\n 11842: u8 [a0 + 7] = 0\n 11845: u8 [a0 + 6] = 0\n 11848: u8 [a0 + 5] = 0\n 11851: u8 [a0 + 4] = 0\n 11854: u8 [a0 + 3] = 0\n 11857: u8 [a0 + 2] = 0\n 11860: u8 [a0 + 1] = 0\n 11863: u8 [a0 + 0] = 0\n 11865: jump @213 if a1 != 0\n      : @209 (gas: 4)\n 11869: i32 s0 = s1 + 0\n 11871: a1 = 0x20\n 11874: a0 = s0\n 11876: ra = 186, jump @0\n      : @210 [@dyn 93] (gas: 41)\n 11882: u8 [a0 + 31] = 0x17\n 11886: u8 [a0 + 30] = 0\n 11889: u8 [a0 + 29] = 0\n 11892: u8 [a0 + 28] = 0\n 11895: u8 [a0 + 27] = 0\n 11898: u8 [a0 + 26] = 0\n 11901: u8 [a0 + 25] = 0\n 11904: u8 [a0 + 24] = 0\n 11907: u8 [a0 + 23] = 0\n 11910: u8 [a0 + 22] = 0\n 11913: u8 [a0 + 21] = 0\n 11916: u8 [a0 + 20] = 0\n 11919: u8 [a0 + 19] = 0\n 11922: u8 [a0 + 18] = 0\n 11925: u8 [a0 + 17] = 0\n 11928: u8 [a0 + 16] = 0\n 11931: u8 [a0 + 15] = 0\n 11934: u8 [a0 + 14] = 0\n 11937: u8 [a0 + 13] = 0\n 11940: u8 [a0 + 12] = 0\n 11943: u8 [a0 + 11] = 0\n 11946: u8 [a0 + 10] = 0\n 11949: u8 [a0 + 9] = 0\n 11952: u8 [a0 + 8] = 0\n 11955: u8 [a0 + 7] = 0\n 11958: u8 [a0 + 6] = 0\n 11961: u8 [a0 + 5] = 0\n 11964: u8 [a0 + 4] = 0\n 11967: u8 [a0 + 3] = 0\n 11970: u8 [a0 + 2] = 0\n 11973: u8 [a0 + 1] = 0\n 11976: a1 = u64 [sp + 0x20]\n 11979: a2 = u64 [sp + 0x38]\n 11982: a1 = a1 | a2\n 11985: a2 = 0xffffffe0\n 11995: a2 = s1 <u a2\n 11998: a3 = u64 [sp + 0x40]\n 12001: a2 = 0 if a3 != 0\n 12003: a2 = 0 if a1 != 0\n 12005: u8 [a0 + 0] = 0\n 12007: jump @213 if a2 == 0\n      : @211 (gas: 3)\n 12011: i32 a0 = s0 + 0x20\n 12014: a1 = 0x20\n 12017: ra = 188, jump @0\n      : @212 [@dyn 94] (gas: 55)\n 12023: u8 [a0 + 31] = 0\n 12026: u8 [a0 + 30] = 0\n 12029: u8 [a0 + 29] = 0\n 12032: u8 [a0 + 28] = 0\n 12035: u8 [a0 + 27] = 0\n 12038: u8 [a0 + 26] = 0\n 12041: u8 [a0 + 25] = 0\n 12044: u8 [a0 + 24] = 0\n 12047: u8 [a0 + 23] = 0\n 12050: u8 [a0 + 22] = 0x64\n 12054: u8 [a0 + 21] = 0x65\n 12058: u8 [a0 + 20] = 0x64\n 12062: u8 [a0 + 19] = 0x6e\n 12066: u8 [a0 + 18] = 0x75\n 12070: u8 [a0 + 17] = 0x66\n 12074: u8 [a0 + 16] = 0x20\n 12078: u8 [a0 + 15] = 0x79\n 12082: u8 [a0 + 14] = 0x64\n 12086: u8 [a0 + 13] = 0x61\n 12090: u8 [a0 + 12] = 0x65\n 12094: u8 [a0 + 11] = 0x72\n 12098: u8 [a0 + 10] = 0x6c\n 12102: u8 [a0 + 9] = 0x61\n 12106: u8 [a0 + 8] = 0x20\n 12110: u8 [a0 + 7] = 0x74\n 12114: a5 = 0x63\n 12117: u8 [a0 + 0x6] = a5\n 12120: u8 [a0 + 5] = 0x61\n 12124: u8 [a0 + 4] = 0x72\n 12128: u8 [a0 + 3] = 0x74\n 12132: u8 [a0 + 2] = 0x6e\n 12136: u8 [a0 + 1] = 0x6f\n 12140: u8 [a0] = a5\n 12142: a1 = u64 [sp]\n 12144: a0 = a1 + 0x60\n 12147: a1 = a0 <u a1\n 12150: a3 = u64 [sp + 0x8]\n 12153: a2 = a3 + a1\n 12156: a3 = a2 <u a3\n 12159: a3 = a1 if a1 == 0\n 12162: a1 = u64 [sp + 0x10]\n 12165: a3 = a3 + a1\n 12168: a1 = a3 <u a1\n 12171: a4 = u64 [sp + 0x18]\n 12174: a1 = a1 + a4\n 12177: a4 = u64 [sp + 0x28]\n 12180: u64 [a4] = a0\n 12182: u64 [a4 + 0x8] = a2\n 12185: u64 [a4 + 0x10] = a3\n 12188: u64 [a4 + 0x18] = a1\n 12191: ra = u64 [sp + 0x58]\n 12194: s0 = u64 [sp + 0x50]\n 12197: s1 = u64 [sp + 0x48]\n 12200: sp = sp + 0x60\n 12203: ret\n      : @213 (gas: 1)\n 12205: trap\n      : @214 (gas: 2)\n 12206: a0 = u8 [sp + 0x100]\n 12210: jump @216 if a0 != 0\n      : @215 (gas: 179)\n 12214: i32 a0 = sp + 0x80\n 12218: ecalli 8 // 'now'\n 12220: a0 = u64 [sp + 0x80]\n 12224: u64 [sp + 0x18] = a0\n 12227: a0 = u64 [sp + 0x88]\n 12231: u64 [sp + 0x10] = a0\n 12234: a0 = u64 [sp + 0x90]\n 12238: u64 [sp + 0x8] = a0\n 12241: s1 = u64 [sp + 0x98]\n 12245: u64 [sp + 248] = 0\n 12249: u64 [sp + 240] = 0\n 12253: u64 [sp + 232] = 0\n 12257: u64 [sp + 224] = 0x1\n 12262: u64 [sp + 280] = 0\n 12266: u64 [sp + 272] = 0\n 12270: u64 [sp + 264] = 0\n 12274: u64 [sp + 256] = 0\n 12278: u32 [sp + 192] = 0x20\n 12283: i32 a1 = sp + 0xe0\n 12287: i32 a3 = sp + 0x100\n 12291: i32 a4 = sp + 0xc0\n 12295: a2 = 0xffffffffffffffff\n 12298: a0 = 0\n 12300: ecalli 7 // 'get_storage'\n 12302: u64 [sp + 248] = 0\n 12306: u64 [sp + 240] = 0\n 12310: u64 [sp + 232] = 0\n 12314: u64 [sp + 224] = 0x1\n 12319: u64 [sp + 0x118] = s1\n 12323: a0 = u64 [sp + 0x8]\n 12326: u64 [sp + 0x110] = a0\n 12330: a0 = u64 [sp + 0x10]\n 12333: u64 [sp + 0x108] = a0\n 12337: a0 = u64 [sp + 0x18]\n 12340: u64 [sp + 0x100] = a0\n 12344: i32 a1 = sp + 0xe0\n 12348: i32 a3 = sp + 0x100\n 12352: a2 = 0xffffffffffffffff\n 12355: a4 = 0x20\n 12358: a0 = 0\n 12360: ecalli 14 // 'set_storage'\n 12362: u64 [sp + 248] = 0\n 12366: u64 [sp + 240] = 0\n 12370: u64 [sp + 232] = 0\n 12374: u64 [sp + 224] = 0\n 12378: u64 [sp + 280] = 0\n 12382: u64 [sp + 272] = 0\n 12386: u64 [sp + 264] = 0\n 12390: u64 [sp + 256] = 0\n 12394: u32 [sp + 192] = 0x20\n 12399: i32 a1 = sp + 0xe0\n 12403: i32 a3 = sp + 0x100\n 12407: i32 a4 = sp + 0xc0\n 12411: a2 = 0xffffffffffffffff\n 12414: a0 = 0\n 12416: ecalli 7 // 'get_storage'\n 12418: u64 [sp + 248] = 0\n 12422: u64 [sp + 240] = 0\n 12426: u64 [sp + 232] = 0\n 12430: u64 [sp + 224] = 0\n 12434: a0 = u64 [sp + 0x20]\n 12437: u64 [sp + 0x118] = a0\n 12441: a0 = u64 [sp + 0x28]\n 12444: u64 [sp + 0x110] = a0\n 12448: a0 = u64 [sp + 0x30]\n 12451: u64 [sp + 0x108] = a0\n 12455: a0 = u64 [sp + 0x38]\n 12458: u64 [sp + 0x100] = a0\n 12462: i32 a1 = sp + 0xe0\n 12466: i32 a3 = sp + 0x100\n 12470: a2 = 0xffffffffffffffff\n 12473: a4 = 0x20\n 12476: a0 = 0\n 12478: ecalli 14 // 'set_storage'\n 12480: u64 [sp + 248] = 0\n 12484: u64 [sp + 240] = 0\n 12488: u64 [sp + 232] = 0\n 12492: u64 [sp + 224] = 0x2\n 12497: u64 [sp + 280] = 0\n 12501: u64 [sp + 272] = 0\n 12505: u64 [sp + 264] = 0\n 12509: u64 [sp + 256] = 0\n 12513: u32 [sp + 192] = 0x20\n 12518: i32 a1 = sp + 0xe0\n 12522: i32 a3 = sp + 0x100\n 12526: i32 a4 = sp + 0xc0\n 12530: a2 = 0xffffffffffffffff\n 12533: a0 = 0\n 12535: ecalli 7 // 'get_storage'\n 12537: a0 = u64 [sp + 0x100]\n 12541: a1 = u64 [sp + 0x108]\n 12545: a2 = u64 [sp + 0x110]\n 12549: a3 = u64 [sp + 0x118]\n 12553: a0 = a0 & 0xffffffffffffff00\n 12557: a0 = a0 | 0x1\n 12560: u64 [sp + 248] = 0\n 12564: u64 [sp + 240] = 0\n 12568: u64 [sp + 232] = 0\n 12572: u64 [sp + 224] = 0x2\n 12577: u64 [sp + 0x118] = a3\n 12581: u64 [sp + 0x110] = a2\n 12585: u64 [sp + 0x108] = a1\n 12589: u64 [sp + 0x100] = a0\n 12593: i32 a1 = sp + 0xe0\n 12597: i32 a3 = sp + 0x100\n 12601: a2 = 0xffffffffffffffff\n 12604: a4 = 0x20\n 12607: a0 = 0\n 12609: ecalli 14 // 'set_storage'\n 12611: i32 a0 = sp + 0xa0\n 12615: ecalli 6 // 'caller'\n 12617: a0 = u64 [sp + 0xa8]\n 12621: a1 = i32 [sp + 0xb0]\n 12625: a2 = u64 [sp + 0xa0]\n 12629: a3 = reverse a0\n 12631: u64 [sp + 0x30] = a3\n 12634: a0 = a3 << 0x20\n 12637: a1 = reverse a1\n 12639: a1 = a1 >> 0x20\n 12642: a0 = a0 | a1\n 12645: u64 [sp + 0x38] = a0\n 12648: a0 = a3 >> 0x20\n 12651: s1 = reverse a2\n 12653: a1 = s1 << 0x20\n 12656: a0 = a0 | a1\n 12659: u64 [sp + 0x28] = a0\n 12662: u64 [sp + 248] = 0\n 12666: u64 [sp + 240] = 0\n 12670: u64 [sp + 232] = 0\n 12674: u64 [sp + 224] = 0x2\n 12679: u64 [sp + 280] = 0\n 12683: u64 [sp + 272] = 0\n 12687: u64 [sp + 264] = 0\n 12691: u64 [sp + 256] = 0\n 12695: u32 [sp + 192] = 0x20\n 12700: i32 a1 = sp + 0xe0\n 12704: i32 a3 = sp + 0x100\n 12708: i32 a4 = sp + 0xc0\n 12712: a2 = 0xffffffffffffffff\n 12715: a0 = 0\n 12717: ecalli 7 // 'get_storage'\n 12719: a0 = u64 [sp + 0x118]\n 12723: a1 = u8 [sp + 0x100]\n 12727: a2 = u64 [sp + 0x110]\n 12731: a3 = u64 [sp + 0x28]\n 12734: a3 = a3 << 0x8\n 12737: a4 = u64 [sp + 0x30]\n 12740: i32 a4 = a4 >> 0x18\n 12743: a3 = a3 | a4\n 12746: i32 a4 = s1 >> 0x18\n 12749: s1 = s1 >> 0x20\n 12752: s1 = s1 << 0x8\n 12755: a5 = u64 [sp + 0x38]\n 12758: a5 = a5 << 0x8\n 12761: a2 = a2 >> 0x28\n 12764: a2 = a2 << 0x28\n 12767: a1 = a1 | a5\n 12770: a2 = a2 | a4\n 12773: a2 = a2 | s1\n 12776: u64 [sp + 248] = 0\n 12780: u64 [sp + 240] = 0\n 12784: u64 [sp + 232] = 0\n 12788: u64 [sp + 224] = 0x2\n 12793: u64 [sp + 0x118] = a0\n 12797: u64 [sp + 0x110] = a2\n 12801: u64 [sp + 0x108] = a3\n 12805: u64 [sp + 0x100] = a1\n 12809: i32 a1 = sp + 0xe0\n 12813: i32 a3 = sp + 0x100\n 12817: a2 = 0xffffffffffffffff\n 12820: a4 = 0x20\n 12823: a0 = 0\n 12825: ecalli 14 // 'set_storage'\n 12827: sp = s0 + 0xfffffffffffffec0\n 12831: ra = u64 [sp + 0x138]\n 12835: s0 = u64 [sp + 0x130]\n 12839: s1 = u64 [sp + 0x128]\n 12843: sp = sp + 0x140\n 12847: ret\n      : @216 (gas: 3)\n 12849: a0 = 0x40\n 12852: a1 = 0x20\n 12855: ra = 190, jump @0\n      : @217 [@dyn 95] (gas: 103)\n 12861: a1 = u8 [a0 + 0x11]\n 12864: a2 = u8 [a0 + 0x10]\n 12867: a3 = u8 [a0 + 0x12]\n 12870: a4 = u8 [a0 + 0x13]\n 12873: a1 = a1 << 0x8\n 12876: a1 = a1 | a2\n 12879: a3 = a3 << 0x10\n 12882: a4 = a4 << 0x18\n 12885: a3 = a3 | a4\n 12888: a1 = a1 | a3\n 12891: a2 = u8 [a0 + 0x15]\n 12894: a3 = u8 [a0 + 0x14]\n 12897: a4 = u8 [a0 + 0x16]\n 12900: a5 = u8 [a0 + 0x17]\n 12903: a2 = a2 << 0x8\n 12906: a2 = a2 | a3\n 12909: a4 = a4 << 0x10\n 12912: a5 = a5 << 0x18\n 12915: a4 = a4 | a5\n 12918: a2 = a2 | a4\n 12921: a2 = a2 << 0x20\n 12924: t0 = a2 | a1\n 12927: a2 = u8 [a0 + 0x1]\n 12930: a3 = u8 [a0]\n 12932: a4 = u8 [a0 + 0x2]\n 12935: a5 = u8 [a0 + 0x3]\n 12938: a2 = a2 << 0x8\n 12941: a2 = a2 | a3\n 12944: a4 = a4 << 0x10\n 12947: a5 = a5 << 0x18\n 12950: a4 = a4 | a5\n 12953: a2 = a2 | a4\n 12956: a3 = u8 [a0 + 0x5]\n 12959: a4 = u8 [a0 + 0x4]\n 12962: a5 = u8 [a0 + 0x6]\n 12965: s1 = u8 [a0 + 0x7]\n 12968: a3 = a3 << 0x8\n 12971: a3 = a3 | a4\n 12974: a5 = a5 << 0x10\n 12977: s1 = s1 << 0x18\n 12980: a5 = a5 | s1\n 12983: a3 = a3 | a5\n 12986: a3 = a3 << 0x20\n 12989: a2 = a2 | a3\n 12992: a3 = u8 [a0 + 0x19]\n 12995: a4 = u8 [a0 + 0x18]\n 12998: a5 = u8 [a0 + 0x1a]\n 13001: s1 = u8 [a0 + 0x1b]\n 13004: a3 = a3 << 0x8\n 13007: a3 = a3 | a4\n 13010: a5 = a5 << 0x10\n 13013: s1 = s1 << 0x18\n 13016: a5 = a5 | s1\n 13019: a3 = a3 | a5\n 13022: a4 = u8 [a0 + 0x1d]\n 13025: a5 = u8 [a0 + 0x1c]\n 13028: s1 = u8 [a0 + 0x1e]\n 13031: a1 = u8 [a0 + 0x1f]\n 13034: a4 = a4 << 0x8\n 13037: a4 = a4 | a5\n 13040: s1 = s1 << 0x10\n 13043: a1 = a1 << 0x18\n 13046: a1 = a1 | s1\n 13049: a1 = a1 | a4\n 13052: a1 = a1 << 0x20\n 13055: a3 = a3 | a1\n 13058: a1 = u8 [a0 + 0x9]\n 13061: a4 = u8 [a0 + 0x8]\n 13064: a5 = u8 [a0 + 0xa]\n 13067: s1 = u8 [a0 + 0xb]\n 13070: a1 = a1 << 0x8\n 13073: a1 = a1 | a4\n 13076: a5 = a5 << 0x10\n 13079: s1 = s1 << 0x18\n 13082: a5 = a5 | s1\n 13085: a1 = a1 | a5\n 13088: a4 = u8 [a0 + 0xd]\n 13091: a5 = u8 [a0 + 0xc]\n 13094: s1 = u8 [a0 + 0xe]\n 13097: a0 = u8 [a0 + 0xf]\n 13100: a4 = a4 << 0x8\n 13103: a4 = a4 | a5\n 13106: s1 = s1 << 0x10\n 13109: a0 = a0 << 0x18\n 13112: a0 = a0 | s1\n 13115: a0 = a0 | a4\n 13118: a0 = a0 << 0x20\n 13121: a0 = a0 | a1\n 13124: s1 = reverse a0\n 13126: a1 = reverse a3\n 13128: a2 = reverse a2\n 13130: a0 = reverse t0\n 13132: u64 [sp + 0x38] = a0\n 13135: u64 [sp + 0x30] = a2\n 13138: a0 = a0 | a2\n 13141: a2 = a1\n 13143: a1 = a1 | s1\n 13146: a1 = a1 | a0\n 13149: a1 = a1 >> 0x20\n 13152: a0 = a0 | s1\n 13155: a0 = a0 << 0x20\n 13158: a0 = a0 | a1\n 13161: jump @221 if a0 != 0\n      : @218 (gas: 5)\n 13165: u64 [sp + 0x28] = a2\n 13168: i32 a0 = a2 + 0\n 13170: a1 = 0x20\n 13173: u64 [sp + 0x20] = a0\n 13176: ra = 192, jump @0\n      : @219 [@dyn 96] (gas: 50)\n 13182: u8 [a0 + 31] = 0\n 13185: u8 [a0 + 30] = 0\n 13188: u8 [a0 + 29] = 0\n 13191: u8 [a0 + 28] = 0\n 13194: u8 [a0 + 27] = 0\n 13197: u8 [a0 + 26] = 0\n 13200: u8 [a0 + 25] = 0\n 13203: u8 [a0 + 24] = 0\n 13206: u8 [a0 + 23] = 0\n 13209: u8 [a0 + 22] = 0\n 13212: u8 [a0 + 21] = 0\n 13215: u8 [a0 + 20] = 0\n 13218: u8 [a0 + 19] = 0\n 13221: u8 [a0 + 18] = 0\n 13224: u8 [a0 + 17] = 0\n 13227: u8 [a0 + 16] = 0\n 13230: u8 [a0 + 15] = 0\n 13233: u8 [a0 + 14] = 0\n 13236: u8 [a0 + 13] = 0\n 13239: u8 [a0 + 12] = 0\n 13242: u8 [a0 + 11] = 0\n 13245: u8 [a0 + 10] = 0\n 13248: u8 [a0 + 9] = 0\n 13251: u8 [a0 + 8] = 0\n 13254: u8 [a0 + 7] = 0\n 13257: u8 [a0 + 6] = 0\n 13260: u8 [a0 + 5] = 0\n 13263: u8 [a0 + 4] = 0\n 13266: u8 [a0 + 3] = 0xa0\n 13271: u8 [a0 + 2] = 0x79\n 13275: u8 [a0 + 1] = 0xc3\n 13280: u8 [a0 + 0] = 0x8\n 13283: a1 = u64 [sp + 0x28]\n 13286: a0 = a1 + 0x4\n 13289: a1 = a0 <u a1\n 13292: a3 = u64 [sp + 0x38]\n 13295: a2 = a3 + a1\n 13298: a3 = a2 <u a3\n 13301: a3 = a1 if a1 == 0\n 13304: a3 = a3 + s1\n 13307: a1 = a3 <u s1\n 13310: a4 = u64 [sp + 0x30]\n 13313: a4 = a4 + a1\n 13316: u64 [sp + 0x48] = a2\n 13319: u64 [sp + 0x40] = a0\n 13322: u64 [sp + 0x50] = a3\n 13325: a0 = sp + 0x60\n 13328: a1 = sp + 0x40\n 13331: u64 [sp + 0x58] = a4\n 13334: ra = 194, jump @206\n      : @220 [@dyn 97] (gas: 30)\n 13340: a0 = u64 [sp + 0x68]\n 13343: t0 = u64 [sp + 0x78]\n 13346: t1 = u64 [sp + 0x60]\n 13349: a3 = u64 [sp + 0x70]\n 13352: a1 = u64 [sp + 0x38]\n 13355: a4 = a0 ^ a1\n 13358: a5 = a0 <u a1\n 13361: t2 = a1\n 13363: a2 = u64 [sp + 0x28]\n 13366: a1 = t1 <u a2\n 13369: a5 = a1 if a4 == 0\n 13372: a4 = a3 - s1\n 13375: a3 = a3 <u s1\n 13378: s1 = u64 [sp + 0x30]\n 13381: s1 = t0 - s1\n 13384: s1 = s1 - a3\n 13387: a3 = a4 <u a5\n 13390: s1 = s1 - a3\n 13393: a4 = a4 - a5\n 13396: a0 = a0 - t2\n 13399: a1 = a0 - a1\n 13402: a0 = t1 - a2\n 13405: a1 = a1 | s1\n 13408: a2 = a0 | a4\n 13411: a2 = a2 | a1\n 13414: a1 = a1 | a4\n 13417: a2 = a2 >> 0x20\n 13420: a1 = a1 << 0x20\n 13423: a1 = a1 | a2\n 13426: jump @222 if a1 == 0\n      : @221 (gas: 1)\n 13429: trap\n      : @222 (gas: 4)\n 13430: i32 s1 = a0 + 0\n 13432: a0 = u64 [sp + 0x20]\n 13435: a1 = s1\n 13437: ra = 196, jump @0\n      : @223 [@dyn 98] (gas: 7)\n 13443: i32 a1 = a0 + 0\n 13445: a0 = 0x1\n 13448: a2 = s1\n 13450: ecalli 12 // 'seal_return'\n 13452: a0 = 0\n 13454: ra = 0xc6\n 13458: jump @10\n      : @224 [export #0: 'call'] (gas: 2)\n 13461: a0 = 0\n 13463: ra = 198, jump @10\n      : @225 [@dyn 99] [export #1: 'deploy'] (gas: 2)\n 13469: a0 = 0x1\n 13472: ra = 200, jump @10\n      : @226 [@dyn 100] (gas: 43)\n 13478: sp = sp + 0xffffffffffffffa0\n 13481: u64 [sp + 0x58] = ra\n 13484: u64 [sp + 0x50] = s0\n 13487: u64 [sp + 0x48] = s1\n 13490: s0 = sp + 0x60\n 13493: sp = sp & 0xfffffffffffffff0\n 13496: a2 = u64 [a1]\n 13498: a3 = u64 [a1 + 0x8]\n 13501: a4 = u64 [a1 + 0x10]\n 13504: a1 = u64 [a1 + 0x18]\n 13507: s1 = a0\n 13509: u64 [sp + 0x18] = a1\n 13512: u64 [sp + 0x10] = a4\n 13515: u64 [sp + 0x8] = a3\n 13518: a0 = sp + 0x20\n 13521: a1 = sp\n 13523: u64 [sp] = a2\n 13525: a2 = u64 [a1 + 0x10]\n 13528: a3 = u64 [a1 + 0x18]\n 13531: a4 = u64 [a1 + 0x8]\n 13534: a1 = u64 [a1]\n 13536: a3 = a3 | a4\n 13539: a1 = a1 | a2\n 13542: a1 = a1 | a3\n 13545: a1 = a1 >u 0\n 13547: u64 [a0 + 24] = 0\n 13550: u64 [a0 + 16] = 0\n 13553: u64 [a0 + 8] = 0\n 13556: u64 [a0] = a1\n 13558: a0 = u64 [sp + 0x30]\n 13561: a1 = u64 [sp + 0x38]\n 13564: a2 = u64 [sp + 0x20]\n 13567: a3 = u64 [sp + 0x28]\n 13570: u64 [s1 + 0x10] = a0\n 13573: u64 [s1 + 0x18] = a1\n 13576: u64 [s1] = a2\n 13578: u64 [s1 + 0x8] = a3\n 13581: sp = s0 + 0xffffffffffffffa0\n 13584: ra = u64 [sp + 0x58]\n 13587: s0 = u64 [sp + 0x50]\n 13590: s1 = u64 [sp + 0x48]\n 13593: sp = sp + 0x60\n 13596: ret\n",
				"bytecode": {
					"object": "50564d0000b83d000000000000010700c11000c000400480fa100000000007000000110000001500000023000000310000003f0000004500000050000000530000006000000070000000800000008b0000009d000000a80000006164647265737362616c616e63655f6f6663616c6c63616c6c5f646174615f636f707963616c6c5f646174615f6c6f616463616c6c5f646174615f73697a6563616c6c65726765745f73746f726167656e6f777265665f74696d655f6c65667472657475726e5f646174615f636f707972657475726e5f646174615f73697a657365616c5f72657475726e7365745f696d6d757461626c655f646174617365745f73746f7261676576616c75655f7472616e73666572726564051102b4950463616c6cb49d066465706c6f7906bc8e6402b51e65004d0152016f010302340349036d03790393035b049f04d104d60404050905370565057a0511074208580828093509f409ff09300b480b540bfd0d2e0f6c0f18102510001131124712171324134a1483159b15a71550165b168c17a417b017221853196f19d919e619f419011aa31a351bc11b731c1e1e311f491f531f621fd31fea1ff51f0420b520f420092222222d223c226d22d62297232a24b7246526032810289c28c528092ab02acf2a132cb52c252d342dd72d6a2ef72e3d327e331c3483349d34a6348b791052093b3309010001ae9833c8780883881f8488e0553801000128390a000002ae8a123d080000023308100002c8870732003308100002c88707320000009511d87b10207b15187b161082897b19088289087b1982851082861883773308205010029f6f686f59821a6faa821b086fbb787b18787a10787908787898bc38787c1f98bc30787c1e98bc28787c1d98bc20787c1c98bc18787c1b98bc10787c1a98bb08787b1998ab38787b1798ab30787b1698ab28787b1598ab20787b1498ab18787b1398ab10787b1298aa08787a11989a38787a0f989a30787a0e989a28787a0d989a20787a0c989a18787a0b989a10787a0a98990878790998893878790798893078790698892878790598892078790498891878790398891078790298880878780182102082151882161095112832009511f07b10087b158475010a05013d07040002510507501004095010062c029511c07b10387b15307b16289515408411e033074033082050100896fe46171f800046171e46171d46171c46171b46171a46171946171846171746171646171546171446171346171246171146171046170f46170e46170d46170c46170b46170a4617094617084617074617064617054617044617034617024617014607491118490149110849111083170a0f01821710821818821908821ad49808d4a707d487075207370133074033082050100a02fe7c78117c79107c7a127c7b13978808d4980897aa1097bb18d4ba0ad4a8087c79157c7a147c7b167c7c17979908d4a90997bb1097cc18d4cb0bd4b909979920d489027c79017c7a7c7b027c7c03979908d4a90997bb1097cc18d4cb0bd4b9097c7a057c7b047c7c067c760797aa08d4ba0a97cc10976618d46c0cd4ca0a97aa20d4a9097c7a197c7b187c7c1a7c761b97aa08d4ba0a97cc10976618d46c0cd4ca0a7c7b1d7c7c1c7c761e7c781f97bb08d4cb0b976610978818d46808d4b808978820d48a0a7c78097c7b087c7c0a7c760b978808d4b80897cc10976618d46c0cd4c8087c7b0d7c7c0c7c760e7c770f97bb08d4cb0b976610977718d46707d4b707977720d487076f776fa66f986f29d49808d47609d48909989920d48707977720d49707510717003307330850100cd1fc837833070133090a0c0183666467330850100ebcfc8377330833090a0301390808000251080d330710000383770a0d016467330850101098fc8378330733093300120a0c019511c07b10387b15309515408411e033074033082050101472fc46171f800046171e46171d46171c46171b46171a46171946171846171746171646171546171446171346171246171146171046170f46170e46170d46170c46170b46170a46170946170846170746170346170246170146073908040002461706461705461704531804d800831733080a040181171c5847245fb5b653330800b0dc295a47ceb0dc298a005147255fb5b6e70052478ee034c9ac00330016951160ff7b1098007b1590007b1688009515a0008411e04911384911304911284911208317200a0f28671351475bcba58d7b51479b0eed9cd5005247e1daf9a667330018951140ff7b10b8007b15b0007b16a8009515c0008411e04911384911304911284911208317200a0f289d0e8388cf00aa876652470bd6cf3c2b33001a9511c07b10387b15309515408411e0491118491110491108490183170a0f287f0450101c151533001e951160ff7b1098007b1590007b1688009515a0008411e04911384911304911284911208317200a0f288d08501020a510330022951160ff7b1098007b1590007b1688009515a0008411e04911384911304911284911208317200a0f286a01330024951160ff7b1098007b1590007b1688009515a0008411e04911384911304911284911208317200a0f282a0b9511f07b10087b1564753307403308205010268bfa7c78017c797c7a027c7b03978808d4980897aa1097bb18d4ba0ad4a8087c79057c7a047c7b067c7c07979908d4a90997bb1097cc18d4cb0bd4b909979920d489027c79097c7a087c7b0a7c7c0b979908d4a90997bb1097cc18d4cb0bd4b9097c7a0d7c7b0c7c7c0e7c780f97aa08d4ba0a97cc10978818d4c808d4a808978820d498037c78117c7a107c7b127c7c13978808d4a80897bb1097cc18d4cb0bd4b8087c7a157c7b147c7c167c791797aa08d4ba0a97cc10979918d4c909d4a909979920d4890a7c78197c79187c7b1a7c7c1b978808d4980897bb1097cc18d4cb0bd4b8087c791d7c7b1c7c7c1e7c771f979908d4b90997cc10977718d4c707d49707977720d487076f776fa86f396f2a7b5a187b59107b58087b5782100882159511103200821730821838821928821a20d49808d4a707d487075207860139070400025417037d014911584911504911484911404911784911704911684911604821800020831840831a60831b80003309ff33070a078217787b178217707b17088217687b17108217607b1718330740330820501028f4f87c78117c79107c7a127c7b13978808d4980897aa1097bb18d4ba0ad4a8087c79157c7a147c7b167c7c17979908d4a90997bb1097cc18d4cb0bd4b909979920d489027c79017c7a7c7b027c7c03979908d4a90997bb1097cc18d4cb0bd4b9097c7a057c7b047c7c067c760797aa08d4ba0a97cc10976618d46c0cd4ca0a97aa20d4a9097c7a197c7b187c7c1a7c761b97aa08d4ba0a97cc10976618d46c0cd4ca0a7c7b1d7c7c1c7c761e7c781f97bb08d4cb0b976610978818d46808d4b808978820d48a0a7c78097c7b087c7c0a7c760b978808d4b80897cc10976618d46c0cd4c8087c7b0d7c7c0c7c760e7c770f97bb08d4cb0b976610977718d46707d4b707977720d487076f786fa76f996f2ad4a909d4870ad49a0a98aa20d49808978820d4a808510817003307330850102ac3f7837833070133090a0c018376330820646750102cadf782186f888219086f99821a106faa821b186fbb98bc38787c1f98bc30787c1e98bc28787c1d98bc20787c1c98bc18787c1b98bc10787c1a98bc08787c19787b18787a1098ab38787b1798ab30787b1698ab28787b1598ab20787b1498ab18787b1398ab10787b1298aa08787a11787908989a38787a0f989a30787a0e989a28787a0d989a20787a0c989a18787a0b989a10787a0a9899087879097878988938787907988930787906988928787905988920787904988918787903988910787902988808787801330820646750102eddf6837833092033073300300a0c01828918828a10828b0882887b79187b7a107b7b087b783200821710821818821908821ad49808d4a707d487075207c6013907040002541703bd013300329511c0fd7b1038027b1530027b162802951540028411e064164926f8014926f0014926e8014926e001024926180249261002492608024926000248262002208368e001836a0002836b20023309ff33070a078267080282680002826a10027b6a48977938988808d498087b685897a838987708d487077b6750836700010a0628751b33074033082050103406f67c78117c79107c7a127c7b13978808d4980897aa1097bb18d4ba0ad4a8087c79157c7a147c7b167c7c17979908d4a90997bb1097cc18d4cb0bd4b909979920d489027c79017c7a7c7b027c7c03979908d4a90997bb1097cc18d4cb0bd4b9097c7a057c7b047c7c067c780797aa08d4ba0a97cc10978818d4c808d4a808978820d498037c78197c7a187c7b1a7c7c1b978808d4a80897bb1097cc18d4cb0bd4b8087c7a1d7c7b1c7c7c1e7c791f97aa08d4ba0a97cc10979918d4c909d4a909979920d4890a7c78097c79087c7b0a7c7c0b978808d4980897bb1097cc18d4cb0bd4b8087c790d7c7b0c7c7c0e7c770f979908d4b90997cc10977718d4c707d49707977720d487076f786fa76f396f2ad4a909d4870ad49a0a98aa20d49808978820d4a80851081e0033073308501036d5f4837833070133090a0c837733003828c2f48377501038bdf483783307330933003a0a0c019511a07b10587b15507b16487b178283828008828b108288188292829a0882941882991098253d97a603d4650598aa3d979603d46a0a98993d974403d494069724038e698eacdb690c8e5788490001859401db5704d46a0adbac0446114746114646114546114446114346114246114146114046113f46113e46113d46113c46113b46113a46113946113846113746113646113546113446113346113246113146113046112f46112e46112d46112c46112b46112a461129461128781820781b1878101078130898873878172798873078172698872878172598872078172498871878172398871078172298880878182198b73878171f98b73078171e98b72878171d98b72078171c98b71878171b98b71078171a98bb08781b1998073878171798073078171698072878171598072078171498071878171398071078171298070878171198373878170f98373078170e98372878170d98372078170c98371878170b98371078170a98370878170984281f951708c878087c87097c89087c8a0a7c8b0b977708d4970797aa1097bb18d4ba0ad4a7077c890d7c8a0c7c8b0e7c8c0f979908d4a90997bb1097cc18d4cb0bd4b909979920d4790a7c87017c897c8b027c8c03977708d4970797bb1097cc18d4cb0bd4b7077c89057c8b047c8c067c8607979908d4b90997cc10976618d46c0cd4c909979920d497077c89117c8b107c8c127c8813979908d4b90997cc10978818d4c808d498089447944a944882194919187b98107b9a087b978210588215508216489511603200821730821838821928821a20d49808d4a707d487075207820139070400025417037901491158491150491148491140024911784911704911684911604821800020831840831a60831b80003309ff33070a078217707b17188217687b17108217607b170833074033082050103c08f27c78117c79107c7a127c7b13978808d4980897aa1097bb18d4ba0ad4a8087c79157c7a147c7b167c7c17979908d4a90997bb1097cc18d4cb0bd4b909979920d489027c79017c7a7c7b027c7c03979908d4a90997bb1097cc18d4cb0bd4b9097c7a057c7b047c7c067c760797aa08d4ba0a97cc10976618d46c0cd4ca0a97aa20d4a9097c7a197c7b187c7c1a7c761b97aa08d4ba0a97cc10976618d46c0cd4ca0a7c7b1d7c7c1c7c761e7c781f97bb08d4cb0b976610978818d46808d4b808978820d48a0a7c78097c7b087c7c0a7c760b978808d4b80897cc10976618d46c0cd4c8087c7b0d7c7c0c7c760e7c770f97bb08d4cb0b976610977718d46707d4b707977720d487076f786fa76f996f2ad4a909d4870ad49a0a98aa20d49808978820d4a808510817003307330850103ed7f0837833070133090a0c01821808988808821a1097a938d498087b180898a808821a1897a938d4980697a8189888207b181083777b171833082050104099f06f698218086f8a8218106f8846170b46170a4617094617074617064617054617044617034617024617014607787a1898ab38787b1f98ab30787b1e98ab28787b1d98ab20787b1c98ab18787b1b98ab10787b1a98aa08787a19787910787808989a38787a17989a30787a16989a28787a15989a20787a14989a18787a13989a10787a1298990878791198893878790f98893078790e98892878790d98882078780c330820821718501042edef837833092033073300440a0c019511a07b10587b15507b16489515608411e06476491118491110491108490101491138491130491128491120481140208318831a20831b403309ff33070a07821738821830821928821a207b67187b68107b69087b6a9551a08210588215508216489511603200821730821838821928821a20d49808d4a707d487075207870139070400025417037e01491158491150491148491140014911784911704911684911604821800020831840831a60831b80003309ff33070a078217787b178217707b17088217687b17108217607b171833074033082050104605ef7c78117c79107c7a127c7b13978808d4980897aa1097bb18d4ba0ad4a8087c79157c7a147c7b167c7c17979908d4a90997bb1097cc18d4cb0bd4b909979920d489027c79017c7a7c7b027c7c03979908d4a90997bb1097cc18d4cb0bd4b9097c7a057c7b047c7c067c760797aa08d4ba0a97cc10976618d46c0cd4ca0a97aa20d4a9097c7a197c7b187c7c1a7c761b97aa08d4ba0a97cc10976618d46c0cd4ca0a7c7b1d7c7c1c7c761e7c781f97bb08d4cb0b976610978818d46808d4b808978820d48a0a7c78097c7b087c7c0a7c760b978808d4b80897cc10976618d46c0cd4c8087c7b0d7c7c0c7c760e7c770f97bb08d4cb0b976610977718d46707d4b707977720d487076f786fa76f996f2ad4a909d4870ad49a0a98aa20d49808978820d4a8085108170033073308501048d4ed837833070133090a0c018376330820646750104abeed82186f888219086f99821a106faa821b186fbb98bc38787c1f98bc30787c1e98bc28787c1d98bc20787c1c98bc18787c1b98bc10787c1a98bc08787c19787b18787a1098ab38787b1798ab30787b1698ab28787b1598ab20787b1498ab18787b1398ab10787b1298aa08787a11787908989a38787a0f989a30787a0e989a28787a0d989a20787a0c989a18787a0b989a10787a0a9899087879097878988938787907988930787906988928787905988920787904988918787903988910787902988808787801330820646750104ceeec8378330920330733004e0a0c01808910828a0882884917187b79107b7a087b783200821730821838821928821a20d49808d4a707d487075207240239070400025417231b02831780003308040a0401821690008219980014070000000001000000d36707d497079868208888017b1918949893785108f101821788007b1710821780007b1708491178491170491168491160024921980049219000492188004921800048114020831860831a8000831b403309ff33070a07821398007c18800082199000821a0898ac38821710977b08d4cb02986b38821c1897cc08d4cb0b987c38976608d46c0c97a608989928979928d46808d4c909d4b307491178491170491168491160027b1798007b1990007b1288007b188000831860831a80003309ff330b2033070a0e330740330820501050bbeb7c78117c79107c7a127c7b13978808d4980897aa1097bb18d4ba0ad4a8087c79157c7a147c7b167c7c17979908d4a90997bb1097cc18d4cb0bd4b909979920d489027c79017c7a7c7b027c7c03979908d4a90997bb1097cc18d4cb0bd4b9097c7a057c7b047c7c067c760797aa08d4ba0a97cc10976618d46c0cd4ca0a97aa20d4a9097c7a197c7b187c7c1a7c761b97aa08d4ba0a97cc10976618d46c0cd4ca0a7c7b1d7c7c1c7c761e7c781f97bb08d4cb0b976610978818d46808d4b808978820d48a0a7c78097c7b087c7c0a7c760b978808d4b80897cc10976618d46c0cd4c8087c7b0d7c7c0c7c760e7c770f97bb08d4cb0b976610977718d46707d4b707977720d487076f786fa76f996f2ad4a909d4870ad49a0a98aa20d49808978820d4a80851082600330733083300522887ea330750105282ea837833070133090a0c8377330054286fea83775010546aea8378330733093300560a0c0132009511a07b10587b15509515608411e03907040002541723c6018317203308040a04821820821728821930821a387b1a187b19107b170864177b183300589511c0fe7b1038017b1530017b162801951540018411e08278187b18208278107b18288278087b183082777b17384921f8004921f0004921e8004921e00002492118014921100149210801492100014821c000208318e000831a0001831bc0003309ff33070a0728611933074033082050105aaae97c78117c79107c7a127c7b13978808d4980897aa1097bb18d4ba0ad4a8087c79157c7a147c7b167c7c17979908d4a90997bb1097cc18d4cb0bd4b909979920d489027c79017c7a7c7b027c7c03979908d4a90997bb1097cc18d4cb0bd4b9097c7a057c7b047c7c067c780797aa08d4ba0a97cc10978818d4c808d4a808978820d498037c78197c7a187c7b1a7c7c1b978808d4a80897bb1097cc18d4cb0bd4b8087c7a1d7c7b1c7c7c1e7c791f97aa08d4ba0a97cc10979918d4c909d4a909979920d4890a7c78097c79087c7b0a7c7c0b978808d4980897bb1097cc18d4cb0bd4b8087c790d7c7b0c7c7c0e7c770f979908d4b90997cc10977718d4c707d49707977720d487076f786fa76f396f2ad4a909d4870ad49a0a98aa20d49808978820d4a80851081e003307330850105c79e8837833070133090a0c837733005e2866e8837750105e61e88378330733093300600a0c017c884917184917104917087b783200821730821838821928821a20d49808d4a707d487075207760139070400025417036d01491158491150491148491140024911784911704911684911604821800020831840831a60831b80003309ff33070a078217607b1718330740330820501062e3e77c78117c79107c7a127c7b13978808d4980897aa1097bb18d4ba0ad4a8087c79157c7a147c7b167c7c17979908d4a90997bb1097cc18d4cb0bd4b909979920d489027c79017c7a7c7b027c7c03979908d4a90997bb1097cc18d4cb0bd4b9097c7a057c7b047c7c067c760797aa08d4ba0a97cc10976618d46c0cd4ca0a97aa20d4a9097c7a197c7b187c7c1a7c761b97aa08d4ba0a97cc10976618d46c0cd4ca0a7c7b1d7c7c1c7c761e7c781f97bb08d4cb0b976610978818d46808d4b808978820d48a0a7c78097c7b087c7c0a7c760b978808d4b80897cc10976618d46c0cd4c8087c7b0d7c7c0c7c760e7c770f97bb08d4cb0b976610977718d46707d4b707977720d487076f786fa76f996f2ad4a909d4870ad49a0a98aa20d49808978820d4a8085108170033073308501064b2e6837833070133090a0c017c18188e8683777b171833082050106696e678761f46171e46171d46171c46171b46171a46171946171846171746171646171546171446171346171246171146171046170f46170e46170d46170c46170b46170a46170946170846170746170646170546170446170346170246170146073308208217185010682ce68378330920330733006a0a0c019511f87b103307330850106c11e68378330701330933006e0a0c01828908828a828b18828810979c3898aa08d4ca0a978c38989908d4c90997bc38988808d4c80898bb087b7b187b78107b79087b7a32009511a07b10587b15507b1648828a18828b10828c088286d4ac08d4b609d48909989920d4b808978820d498087b172852080c029567207b1730d86707c87c087b18407b1c08d8c805da7705c8b5057b1b10d8b5077b1a18c8a7077b17387b16836733082033062050107062e578761f8218306486d45808821940821b38d4b909d498089888207b1520d45909979920d4980846171e46171d46171c46171b46171a46171946171846171746171646171546171446171346171246171146171046170f46170e46170d46170c46170b46170a461709461708461707461706461705461704461703461702461701460752084d0183653308206457501072d0e446171f1146171e46171d46171c46171b46171a46171946171846171746171646171546171446171346171246171146171046170f46170e46170d46170c46170b46170a461709461708461707461706461705461704461703461702461701821820821938d498081409e0ffffff00000000d89609821a4094a9948946075109c00083572033082050107444e446171f46171e46171d46171c46171b46171a4617194617184617174617164617154617144617134617124617114617107246170f6546170e6e46170d7746170c6f46170b20330c74787c0a4617096f4617086e4617072046170665461705724617046146170320461702754617016f4607798218958760d88708821a08c88a09d8a90ada880a821810c88a0ad88a08821b18c8b808821b287bb77bb9087bba107bb8188210588215508216489511603200007c78197c79187c7a1a7c7b1b978808d4980897aa1097bb18d4ba0ad4a8087c791d7c7a1c7c7b1e7c7c1f979908d4a90997bb1097cc18d4cb0bd4b909979920d489027c79117c7a107c7b127c7c13979908d4a90997bb1097cc18d4cb0bd4b9097c7a157c7b147c7c167c761797aa08d4ba0a97cc10976618d46c0cd4ca0a97aa20d4a9097c7a097c7b087c7c0a7c760b97aa08d4ba0a97cc10976618d46c0cd4ca0a7c7b0d7c7c0c7c760e7c780f97bb08d4cb0b976610978818d46808d4b808978820d48a0a7c78017c7b7c7c027c7603978808d4b80897cc10976618d46c0cd4c8087c7b057c7c047c76067c770797bb08d4cb0b976610977718d46707d4b707977720d487076f736fa46f966f2c82181895871fd88708821a20c88a09d8a90ada880a821828c88a0ad88a08821b30c8b8088477e0c8c7077b1c287b1710d8c70bc86909c8b90cd36c097b1630d86c07da9b07c84a0ac87a0bd8ab06d84a09c83808c89808c886068eb88e69da6809d46b087b1c088ecadb890a520a2301d84b08d33609d8360ada980ad34b08d49808db8a0752070a013307403308207b14207b13187b1b501078e7e16f6882196f99821a086faa821b106fbb787b1898bc38787c1f98bc30787c1e98bc28787c1d98bc20787c1c98bc18787c1b98bc10787c1a98bb08787b19787a1098ab38787b1798ab30787b1698ab28787b1598ab20787b1498ab18787b1398ab10787b1298aa08787a11787908989a38787a0f989a30787a0e989a28787a0d989a20787a0c989a18787a0b989a10787a0a98990878790978789889387879079889307879069889287879059889207879049889187879039889107879029888087878018217388218287b788218187b78188218307b78088218207b7810955160ff8210980082159000821688009511a0003200491170491168491160140700000000717b484e9518607b1778330750107a14e14911584911504911404133070495184049114850107cfce0330824330750107eb2e08378330701330924330080000a0c01828a18828b10828908d4ba0a889b0194ab510b308288958a1fd88a08c8980884880184aae095a920d8a90ac8a80bd88b08daaa084917187b797b7b087b781032009511b07b10487b15409515508411f0491130491128491120140700000000717b484e9518207b173833075020820073e04911184911104901413307046418491108502084005ce033082433075020860011e08378330701330924330088000a0c01951120ff7b10d8007b15d0007b16c8009515e0008411f0828a18828910828b087b19107b1a08d4a90988ba01949a7b1738510ab301828695671fd867087b1b18c8b8088488018477e0957920d87907c8780ad88a0bda770b492198007b1980007b1a88009517a000951880007b1b900033008a00951160ff7b1098007b1590007b1688009515a0008411f08289187b19308289107b19288289087b192082887b18187b1738330740330820330076284edf8217b8008219b0008218a800821aa0007b17287b1820d48707d49a08d478089888207b1930d49707977720d487075207040183a73308207b1a50208c0012df8218086f888219106f99821a186faa6f6b98bc38787c1f98bc30787c1e98bc28787c1d98bc20787c1c98bc18787c1b98bc10787c1a98bc08787c19787b18787a1098ab38787b1798ab30787b1698ab28787b1598ab20787b1498ab18787b1398ab10787b1298aa08787a11787908989a38787a0f989a30787a0e989a28787a0d989a20787a0c989a18787a0b989a10787a0a989908787909787898893878790798893078790698892878790598892078790498891878790398891078790298880878780182173882187b788218287b78188218207b78088218307b7810955120ff8210d8008215d0008216c8009511e000320000491170491168491160140700000000717b484e9518607b1778330750208e003dde491158491150491140413307049518404911485020900024de330824330750209200d9dd8378330701330924330094000a0c014917184917104917083308607b7832005107b3007b16200a0b4911584911507b1740951760951840491148502096009dfd8217787b17388217707b17308217687b17288216600a0b019568207b1618d86809821b28c89b0ad8ba0bda990b821930c89b0bd89b09821c38c8c909d4b80cd4a909d49c0c98cc20d4b909979920d4c9095209406476987720520738838783687b18105020980030dd7a16800083778318800033090a0a0181178000821620821838821930821a28821b18821c10aec70e00330a33093308330b60017b6b7b6a087b69107b6818955160ff8210980082159000821688009511a00032009511a07b10587b15507b1648828a18828b10828c088286d4ac08d4b609d48909989920d4b808978820d498087b172852080c029567207b1730d86707c87c087b18407b1c08d8c805da7705c8b5057b1b10d8b5077b1a18c8a7077b17387b16836733082033062050209a006fdc78761f8218306486d45808821940821b38d4b909d498089888207b1520d45909979920d4980846171e46171d46171c46171b46171a46171946171846171746171646171546171446171346171246171146171046170f46170e46170d46170c46170b46170a461709461708461707461706461705461704461703461702461701460752084c018365330820645750209c00dcdb46171f1046171e46171d46171c46171b46171a46171946171846171746171646171546171446171346171246171146171046170f46170e46170d46170c46170b46170a461709461708461707461706461705461704461703461702461701821820821938d498081409e0ffffff00000000d89609821a4094a9948946075109be0083572033082050209e004fdb46171f46171e46171d46171c46171b46171a46171946171846171746171646171546171446171346171246171146171046170f2146170e6446170d6546170c6c46170b6946170a614617096646170820461707774617066146170572461704644617036846170274461701694607778218958760d88708821a08c88a09d8a90ada880a821810c88a0ad88a08821b18c8b808821b287bb77bb9087bba107bb8188210588215508216489511603200008267080181681001826900016f77977a206f88988820d4a8089877206f99979a20d4a707989920826a4897aa1898aa20826b50d3b707826b58d3b808d3a909d49808d4870752070e03836720010a8267280182682001816930017b6748017b6840017a6950019517e08477e07b674064718378836740010a0182684082877b67588287087b67508287107b67488287187b67404926f8014926f0014926e8014926e001024926180249261002492608024926000248262002208368e001836a0002836b20023309ff33070a078267080282680002826a10027b6a38977938988808d498087b683097a838987708d487077b67283307403308205020a000a1d97c78117c79107c7a127c7b13978808d4980897aa1097bb18d4ba0ad4a8087c79157c7a147c7b167c7c17979908d4a90997bb1097cc18d4cb0bd4b909979920d489027c79017c7a7c7b027c7c03979908d4a90997bb1097cc18d4cb0bd4b9097c7a057c7b047c7c067c780797aa08d4ba0a97cc10978818d4c808d4a808978820d498037c78197c7a187c7b1a7c7c1b978808d4a80897bb1097cc18d4cb0bd4b8087c7a1d7c7b1c7c7c1e7c791f97aa08d4ba0a97cc10979918d4c909d4a909979920d4890a7c78097c79087c7b0a7c7c0b978808d4980897bb1097cc18d4cb0bd4b8087c790d7c7b0c7c7c0e7c770f979908d4b90997cc10977718d4c707d49707977720d487076f777b67206fa77b67086f377b67186f277b67100a09017b678267286f778268306f88987920978a20d4a909977720826a386faa97aa0898aa20d4a7077b6968018269087b6760019888207a6870018267407b6798018267487b6790018267507b678801826718826810d48707826a20d4a908d47808d4a707988820977720d487078268587b68800152072105839733085020a20003d87b6758330733085020a400f6d74826a00182698e98fc089a897b69d8017b69d0017b69c8017b69c00195696001979920989920978823d49802956880019788209888209569c001979920d4890a826b5897bb2098bb209777209877209568a001978820d4780c3308ff3309ff64270a027b67589567a0003300a600951160ff7b1098007b1590007b1688009515a0008411e064760a0b28b3f9826758520724029551c0fd8210380282153002821628029511400232003307403308205020a80041d77c78117c79107c7a127c7b13978808d4980897aa1097bb18d4ba0ad4a8087c79157c7a147c7b167c7c17979908d4a90997bb1097cc18d4cb0bd4b909979920d489027c79017c7a7c7b027c7c03979908d4a90997bb1097cc18d4cb0bd4b9097c7a057c7b047c7c067c780797aa08d4ba0a97cc10978818d4c808d4a808978820d498037c78197c7a187c7b1a7c7c1b978808d4a80897bb1097cc18d4cb0bd4b8087c7a1d7c7b1c7c7c1e7c791f97aa08d4ba0a97cc10979918d4c909d4a909979920d4890a7c78097c79087c7b0a7c7c0b978808d4980897bb1097cc18d4cb0bd4b8087c790d7c7b0c7c7c0e7c770f979908d4b90997cc10977718d4c707d49707977720d487076f7b6fa86f396f277b67587b6948d497076489d4b808d478089888207b6b50d4b707977720d48707520722037b694083973308207b67385020aa00fdd546171f46171e46171d46171c46171b46171a46171946171846171746171646171546171446171346171246171146171046170f46170e46170d46170c46170b46170a461709461708461707461706461705461704461703a00046170279461701c300460708826840958704d88708826a58c88a09d8a90ada880a826850c88a0ad88a08826b48c88b0b7b69c8007b67c0007b6ad0009567e0009568c0007b6bd8005020ac008def8267e8008262f8008263e000826af0002806023307403308205020ae0037d57c78117c79107c7a127c7b13978808d4980897aa1097bb18d4ba0ad4a8087c79157c7a147c7b167c7c17979908d4a90997bb1097cc18d4cb0bd4b909979920d489027c79017c7a7c7b027c7c03979908d4a90997bb1097cc18d4cb0bd4b9097c7a057c7b047c7c067c780797aa08d4ba0a97cc10978818d4c808d4a808978820d498037c78197c7a187c7b1a7c7c1b978808d4a80897bb1097cc18d4cb0bd4b8087c7a1d7c7b1c7c7c1e7c791f97aa08d4ba0a97cc10979918d4c909d4a909979920d4890a7c78097c79087c7b0a7c7c0b978808d4980897bb1097cc18d4cb0bd4b8087c790d7c7b0c7c7c0e7c770f979908d4b90997cc10977718d4c707d49707977720d487076f7b6fa86f396f277b67587b6948d497076489d4b808d478089888207b6b50d4b707977720d48707520718017b694083973308207b67385020b000f3d346171f46171e46171d46171c46171b46171a46171946171846171746171646171546171446171346171246171146171046170f46170e46170d46170c46170b46170a461709461708461707461706461705461704461703a00046170279461701c300460708826840958704d88708826a58c88a09d8a90ada880a826850c88a0ad88a08826b48c88b0b7b69687b67607b6a70956780009568607b6b785020b2007bf6826788008262980082638000826a900001826858d3870bd8870c6480826440d84308dab80c826950c99a0bd89a0a826948c99209c9a909d8cb0ac9a909c9cb0bc90707c98708c94307d49808d4b709d48909d4b808989920978820d498085108040083787b68588267385020b400e1d283783307018269583300b6000a0c018289828b08828218828810989c3897ba08d4ca0a98bb38978c08d4cb0b988838972208d482089799087b797b78187b7b107b7a0832009511a07b10587b15507b1648828a18828b10828c088286d4ac08d4b609d48909989920d4b808978820d498087b1728520814029567207b1730d86707c87c087b18407b1c08d8c805da7705c8b5057b1b10d8b5077b1a18c8a7077b17387b1683673308203306205020b8002fd278761f8218306486d45808821940821b38d4b909d498089888207b1520d45909979920d4980846171e46171d46171c46171b46171a46171946171846171746171646171546171446171346171246171146171046170f46170e46170d46170c46170b46170a461709461708461707461706461705461704461703461702461701460752085401836533082064575020ba009cd146171f1746171e46171d46171c46171b46171a46171946171846171746171646171546171446171346171246171146171046170f46170e46170d46170c46170b46170a461709461708461707461706461705461704461703461702461701821820821938d498081409e0ffffff00000000d89609821a4094a9948946075109c6008357203308205020bc000fd146171f46171e46171d46171c46171b46171a4617194617184617174617166446171565461714644617136e46171275461711664617102046170f7946170e6446170d6146170c6546170b7246170a6c461709614617082046170774330c63787c064617056146170472461703744617026e4617016f787c8218958760d88708821a08c88a09d8a90ada880a821810c88a0ad88a08821b18c8b808821b287bb77bb9087bba107bb8188210588215508216489511603200007c17000152077f02831780000a08821780007b1718821788007b1710821790007b1708821698004921f8004921f0004921e8004921e00001492118014921100149210801492100014821c000208318e000831a0001831bc0003309ff33070a074921f8004921f0004921e8004921e000017b1618018217087b1710018217107b1708018217187b1700018318e000831a00013309ff330b2033070a0e4921f8004921f0004921e8004921e000492118014921100149210801492100014821c000208318e000831a0001831bc0003309ff33070a074921f8004921f0004921e8004921e0008217207b1718018217287b1710018217307b1708018217387b1700018318e000831a00013309ff330b2033070a0e4921f8004921f0004921e8004921e00002492118014921100149210801492100014821c000208318e000831a0001831bc0003309ff33070a07821700018218080182191001821a1801847700ff8677014921f8004921f0004921e8004921e000027b1a18017b1910017b1808017b1700018318e000831a00013309ff330b2033070a0e8317a0000a068217a8008118b0008219a0006f7a7b1a3097a7206f88988820d487077b173898a7206f96976820d487077b17284921f8004921f0004921e8004921e00002492118014921100149210801492100014821c000208318e000831a0001831bc0003309ff33070a07821718017c18000182191001821a2897aa08821b308bbb18d4ba0a8b6b18986620976608821c3897cc08989928979928d4c808d4b909d469094921f8004921f0004921e8004921e000027b1718017b1910017b1a08017b1800018318e000831a00013309ff330b2033070a0e9551c0fe8210380182153001821628019511400132003307403308205020be00c9cd7c78117c79107c7a127c7b13978808d4980897aa1097bb18d4ba0ad4a8087c79157c7a147c7b167c7c17979908d4a90997bb1097cc18d4cb0bd4b909979920d489027c79017c7a7c7b027c7c03979908d4a90997bb1097cc18d4cb0bd4b9097c7a057c7b047c7c067c760797aa08d4ba0a97cc10976618d46c0cd4ca0a97aa20d4a9097c7a197c7b187c7c1a7c761b97aa08d4ba0a97cc10976618d46c0cd4ca0a7c7b1d7c7c1c7c761e7c781f97bb08d4cb0b976610978818d46808d4b808978820d48a0a7c78097c7b087c7c0a7c760b978808d4b80897cc10976618d46c0cd4c8087c7b0d7c7c0c7c760e7c770f97bb08d4cb0b976610977718d46707d4b707977720d487076f766fa86f996f277b17387b1930d497076489d46808d47808988820d46707977720d4870752070c017b192883973308207b17205020c00088cc46171f46171e46171d46171c46171b46171a46171946171846171746171646171546171446171346171246171146171046170f46170e46170d46170c46170b46170a461709461708461707461706461705461704461703a00046170279461701c300460708821828958704d88708821a38c88a09d8a90ada880ac86a0ad86a08821b30c88b0b7b19487b17407b1a509517609518407b1b585020c20054f9821768821278821360821a70821838d3870bd8870c6484821928d89308dab80cc96a0bd86a0a821630c96206c9a606d8cb0ac9a606c9cb0bc94707c98708c99307d46808d4b709d48909d4b808989920978820d4980851080400837682172064685020c40083cb837833070164690a0c33073300c60028a1cc33075020c6009ccc3307015020c80093cc9511a07b10587b15507b16489515608411f08289828a08828b1082881864767b18187b1b107b1a0895172064187b19828910828a18828b088288d4ba0ad49808d4a8088e884917184917104917087b78821730821838821920821a287b67107b68187b697b6a089551a0821058821550821648951160320049489220248414d249525252a22a2529499224499224499224499224499224499224499224494a4a43222449928490244992244992244992244929a9494a124948922449922449922425499224499224499224499224499224499224499224499254254992ac506a15aa86845aa14a93244908499224499224499224490a4942358120202020111191244909040412111149929448204992245542222222499212121111499294444444922425a924a42449922449922449922449922449922449922449922449922449922449922449aa929452922489109224494212a994244912922449922449922449499224499224499224499224499224499224499224499224554992242b945a0a95524a922449922449922449922449922449929424499224490aa53449492a494922844444448a8810111122221511499224899284244992244992244952922449922449922449922449922449922449922449922449559224c90aa54a0a559a2495a42449922449a5489224499224499224499224499224499224499224499224499224499224499224499224499224499224499224494a92244992244992244992a42a4949529224891092449284245249922421499224499224499294244992244992244992244992244992244992244992244952952449b242a9499224499292504a4992244949922449922449922449922449922409a5344992922449a2249524494a9294244922842491242189544a9224094992244992244992a4244992244992244992244992244992244992244992244992aa244992154a2d854a2925499224499224499224499224499224494a922449922485529a94a4922449841069440049928a48244944444422a988489224499224499244444422a924244992244992244992922449922449922449922449922449922449922449922449aa9224495652285552a8d2922421242549924a4444244992121121222244442a4948922449922449922425499224499224499224499224499224499224499224499254254992ac50aaa450a525a9244912212489240949a49224244992244992244992922449922449922449922449922449922449922449922449aa9224495628359584244992244992244992244952124a69aa504a539224499224a924495292244924499224495249484a9224499224499224499224499224294a219224499224499224499224491240524512922449922449444444121111111129499224494a92244d922449922449922449922449922449922449922449922449529224499224499254254992244992244992244952494a244992489242955292244992244992244992244992244992a424499224499292248988889204901492481252288926494a499224494a4a9224092029489212a4a0241a1111499224254a9224491211111111119124494a92242222499224895290522a49922449922449922449922449922449529224499224a924492222a24902480a924812a4a0249a241529499220499234499224499224494a2a4114359224c92a4b1211112549929224492249922449924a82a4244992244992244992244992244992a214449224499224499224499224490248aa48822449922449928888888888888848499224495292246944949294244992248918111191a4a294244922224444848848454492244992204992244992244992942449922449922449922449922449922449922449922449524a292da5244949229148241249922449222a48055114111149124924499248924a444444a492888888922049922449922449929424499224499224499224499224499224499224499224495295a42449122909922449922449922449922444489224499244444404111149822449922449922449529224499224499224499224499224499224499224499224495592922449a4244892244992244992244992102149922449922492202262929224499224499224c992a0245a92244992a4242549929224492249922449924a82a4244992244992244992244992244992a214449224499224499224499224490248aa4882244992444444444444444424111151499224495292246944148944222242444488885444844824121149454444448488484544241289444452111122224244a42222221111222222928a22a2a4242949448488881011a9884892244992241111222222928a8888922049922449922449929424499224499224499224499224499224499224499224495295a42449222541922449922449922449928408499224499224499024494a9224499224499264292855a4204192242529492a49494a52922425491200"
				},
				"methodIdentifiers": {
					"changeOwner(address)": "a6f9dae1",
					"deadline()": "29dcb0cf",
					"deposit(uint256)": "b6b55f25",
					"initialTime()": "9ced0e9b",
					"isContractFunded()": "c934e08e",
					"owner()": "8da5cb5b",
					"withdraw()": "3ccfd60b"
				}
			},
			"hash": "76d222742bbd1d87ed0fdaf5066f3ec9a6d6c8cddd34127146dcda0afad1269f",
			"factoryDependencies": {}
		}
	}
}