{
	"contracts/SwappyBox/SwappBox.sol": {
		"Box": {
			"abi": [
				{
					"anonymous": false,
					"inputs": [
						{
							"indexed": true,
							"internalType": "address",
							"name": "from",
							"type": "address"
						},
						{
							"indexed": false,
							"internalType": "uint256",
							"name": "amount",
							"type": "uint256"
						},
						{
							"indexed": false,
							"internalType": "uint256",
							"name": "deadline",
							"type": "uint256"
						}
					],
					"name": "Deposited",
					"type": "event"
				},
				{
					"anonymous": false,
					"inputs": [
						{
							"indexed": true,
							"internalType": "address",
							"name": "to",
							"type": "address"
						},
						{
							"indexed": false,
							"internalType": "uint256",
							"name": "amount",
							"type": "uint256"
						}
					],
					"name": "Withdrawn",
					"type": "event"
				},
				{
					"inputs": [],
					"name": "deadline",
					"outputs": [
						{
							"internalType": "uint256",
							"name": "",
							"type": "uint256"
						}
					],
					"stateMutability": "view",
					"type": "function"
				},
				{
					"inputs": [
						{
							"internalType": "uint256",
							"name": "_durationInSeconds",
							"type": "uint256"
						}
					],
					"name": "deposit",
					"outputs": [],
					"stateMutability": "payable",
					"type": "function"
				},
				{
					"inputs": [],
					"name": "initialTime",
					"outputs": [
						{
							"internalType": "uint256",
							"name": "",
							"type": "uint256"
						}
					],
					"stateMutability": "view",
					"type": "function"
				},
				{
					"inputs": [],
					"name": "isContractFunded",
					"outputs": [
						{
							"internalType": "bool",
							"name": "",
							"type": "bool"
						}
					],
					"stateMutability": "view",
					"type": "function"
				},
				{
					"inputs": [],
					"name": "isWithdraw",
					"outputs": [
						{
							"internalType": "bool",
							"name": "",
							"type": "bool"
						}
					],
					"stateMutability": "view",
					"type": "function"
				},
				{
					"inputs": [],
					"name": "owner",
					"outputs": [
						{
							"internalType": "address payable",
							"name": "",
							"type": "address"
						}
					],
					"stateMutability": "view",
					"type": "function"
				},
				{
					"inputs": [
						{
							"internalType": "address",
							"name": "_to",
							"type": "address"
						},
						{
							"internalType": "bool",
							"name": "isObligation",
							"type": "bool"
						}
					],
					"name": "withdraw",
					"outputs": [],
					"stateMutability": "nonpayable",
					"type": "function"
				},
				{
					"stateMutability": "payable",
					"type": "receive"
				}
			],
			"devdoc": {
				"kind": "dev",
				"methods": {},
				"version": 1
			},
			"userdoc": {
				"kind": "user",
				"methods": {},
				"version": 1
			},
			"storageLayout": {
				"storage": [
					{
						"astId": 3,
						"contract": "contracts/SwappyBox/SwappBox.sol:Box",
						"label": "deadline",
						"offset": 0,
						"slot": "0",
						"type": "t_uint256"
					},
					{
						"astId": 5,
						"contract": "contracts/SwappyBox/SwappBox.sol:Box",
						"label": "initialTime",
						"offset": 0,
						"slot": "1",
						"type": "t_uint256"
					},
					{
						"astId": 7,
						"contract": "contracts/SwappyBox/SwappBox.sol:Box",
						"label": "owner",
						"offset": 0,
						"slot": "2",
						"type": "t_address_payable"
					},
					{
						"astId": 9,
						"contract": "contracts/SwappyBox/SwappBox.sol:Box",
						"label": "isContractFunded",
						"offset": 20,
						"slot": "2",
						"type": "t_bool"
					},
					{
						"astId": 12,
						"contract": "contracts/SwappyBox/SwappBox.sol:Box",
						"label": "isWithdraw",
						"offset": 21,
						"slot": "2",
						"type": "t_bool"
					}
				],
				"types": {
					"t_address_payable": {
						"encoding": "inplace",
						"label": "address payable",
						"numberOfBytes": "20"
					},
					"t_bool": {
						"encoding": "inplace",
						"label": "bool",
						"numberOfBytes": "1"
					},
					"t_uint256": {
						"encoding": "inplace",
						"label": "uint256",
						"numberOfBytes": "32"
					}
				}
			},
			"evm": {
				"assembly": "// RO data = 0/0 bytes\n// RW data = 64/65616 bytes\n// Stack size = 16384 bytes\n\n// Instructions = 7705\n// Code size = 23787 bytes\n\n      : @0 (gas: 2)\n     0: i32 a2 = a0 >> 0x10\n     3: jump @6 if a2 != 0\n      : @1 (gas: 2)\n     6: a2 = 0x10001\n    11: jump @6 if a1 >=u a2\n      : @2 (gas: 4)\n    14: a1 = a1 + a0\n    17: i32 a1 = a1 + 0x1f\n    20: a1 = a1 & 0xffffffffffffffe0\n    23: jump @7 if a1 >=u 65537\n      : @3 (gas: 2)\n    29: a3 = i32 [0x20040]\n    34: jump @5 if a3 >=u a1\n      : @4 (gas: 4)\n    37: u32 [0x20040] = a1\n    42: a1 = 0x20050\n    47: a0 = a0 + a1\n    50: ret\n      : @5 (gas: 3)\n    52: a1 = 0x20050\n    57: a0 = a0 + a1\n    60: ret\n      : @6 (gas: 1)\n    62: trap\n      : @7 (gas: 1)\n    63: trap\n      : @8 (gas: 13)\n    64: sp = sp + 0xffffffffffffffd8\n    67: u64 [sp + 0x20] = ra\n    70: u64 [sp + 0x18] = s0\n    73: u64 [sp + 0x10] = s1\n    76: a2 = u64 [a1]\n    78: u64 [sp + 0x8] = a2\n    81: a2 = u64 [a1 + 0x8]\n    84: u64 [sp] = a2\n    86: s0 = u64 [a1 + 0x10]\n    89: s1 = u64 [a1 + 0x18]\n    92: i32 a0 = a0 + 0\n    94: a1 = 0x20\n    97: ra = 2, jump @0\n      : @9 [@dyn 1] (gas: 71)\n   101: a1 = reverse s1\n   103: a2 = reverse s0\n   105: a3 = u64 [sp]\n   107: a3 = reverse a3\n   109: a4 = u64 [sp + 0x8]\n   112: a4 = reverse a4\n   114: u8 [a0 + 0x18] = a4\n   117: u8 [a0 + 0x10] = a3\n   120: u8 [a0 + 0x8] = a2\n   123: u8 [a0] = a1\n   125: a5 = a4 >> 0x38\n   128: u8 [a0 + 0x1f] = a5\n   131: a5 = a4 >> 0x30\n   134: u8 [a0 + 0x1e] = a5\n   137: a5 = a4 >> 0x28\n   140: u8 [a0 + 0x1d] = a5\n   143: a5 = a4 >> 0x20\n   146: u8 [a0 + 0x1c] = a5\n   149: a5 = a4 >> 0x18\n   152: u8 [a0 + 0x1b] = a5\n   155: a5 = a4 >> 0x10\n   158: u8 [a0 + 0x1a] = a5\n   161: a4 = a4 >> 0x8\n   164: u8 [a0 + 0x19] = a4\n   167: a4 = a3 >> 0x38\n   170: u8 [a0 + 0x17] = a4\n   173: a4 = a3 >> 0x30\n   176: u8 [a0 + 0x16] = a4\n   179: a4 = a3 >> 0x28\n   182: u8 [a0 + 0x15] = a4\n   185: a4 = a3 >> 0x20\n   188: u8 [a0 + 0x14] = a4\n   191: a4 = a3 >> 0x18\n   194: u8 [a0 + 0x13] = a4\n   197: a4 = a3 >> 0x10\n   200: u8 [a0 + 0x12] = a4\n   203: a3 = a3 >> 0x8\n   206: u8 [a0 + 0x11] = a3\n   209: a3 = a2 >> 0x38\n   212: u8 [a0 + 0xf] = a3\n   215: a3 = a2 >> 0x30\n   218: u8 [a0 + 0xe] = a3\n   221: a3 = a2 >> 0x28\n   224: u8 [a0 + 0xd] = a3\n   227: a3 = a2 >> 0x20\n   230: u8 [a0 + 0xc] = a3\n   233: a3 = a2 >> 0x18\n   236: u8 [a0 + 0xb] = a3\n   239: a3 = a2 >> 0x10\n   242: u8 [a0 + 0xa] = a3\n   245: a2 = a2 >> 0x8\n   248: u8 [a0 + 0x9] = a2\n   251: a2 = a1 >> 0x38\n   254: u8 [a0 + 0x7] = a2\n   257: a2 = a1 >> 0x30\n   260: u8 [a0 + 0x6] = a2\n   263: a2 = a1 >> 0x28\n   266: u8 [a0 + 0x5] = a2\n   269: a2 = a1 >> 0x20\n   272: u8 [a0 + 0x4] = a2\n   275: a2 = a1 >> 0x18\n   278: u8 [a0 + 0x3] = a2\n   281: a2 = a1 >> 0x10\n   284: u8 [a0 + 0x2] = a2\n   287: a1 = a1 >> 0x8\n   290: u8 [a0 + 0x1] = a1\n   293: ra = u64 [sp + 0x20]\n   296: s0 = u64 [sp + 0x18]\n   299: s1 = u64 [sp + 0x10]\n   302: sp = sp + 0x28\n   305: ret\n      : @10 (gas: 6)\n   307: sp = sp + 0xfffffffffffffff0\n   310: u64 [sp + 0x8] = ra\n   313: u64 [sp] = s0\n   315: s0 = a0 & 0x1\n   318: ecalli 5 // 'call_data_size'\n   320: fallthrough\n      : @11 (gas: 2)\n   321: u32 [0x20044] = a0\n   326: jump @13 if s0 == 0\n      : @12 (gas: 1)\n   329: ra = 4, jump @14\n      : @13 [@dyn 2] (gas: 1)\n   333: ra = 6, jump @28\n      : @14 [@dyn 3] (gas: 9)\n   338: sp = sp + 0xffffffffffffff60\n   342: u64 [sp + 0x98] = ra\n   346: u64 [sp + 0x90] = s0\n   350: u64 [sp + 0x88] = s1\n   354: s0 = sp + 0xa0\n   358: sp = sp & 0xffffffffffffffe0\n   361: a0 = 0x40\n   364: a1 = 0x20\n   367: ra = 8, jump @0\n      : @15 [@dyn 4] (gas: 39)\n   372: u8 [a0 + 31] = 0x80\n   377: u8 [a0 + 30] = 0\n   380: u8 [a0 + 29] = 0\n   383: u8 [a0 + 28] = 0\n   386: u8 [a0 + 27] = 0\n   389: u8 [a0 + 26] = 0\n   392: u8 [a0 + 25] = 0\n   395: u8 [a0 + 24] = 0\n   398: u8 [a0 + 23] = 0\n   401: u8 [a0 + 22] = 0\n   404: u8 [a0 + 21] = 0\n   407: u8 [a0 + 20] = 0\n   410: u8 [a0 + 19] = 0\n   413: u8 [a0 + 18] = 0\n   416: u8 [a0 + 17] = 0\n   419: u8 [a0 + 16] = 0\n   422: u8 [a0 + 15] = 0\n   425: u8 [a0 + 14] = 0\n   428: u8 [a0 + 13] = 0\n   431: u8 [a0 + 12] = 0\n   434: u8 [a0 + 11] = 0\n   437: u8 [a0 + 10] = 0\n   440: u8 [a0 + 9] = 0\n   443: u8 [a0 + 8] = 0\n   446: u8 [a0 + 7] = 0\n   449: u8 [a0 + 6] = 0\n   452: u8 [a0 + 5] = 0\n   455: u8 [a0 + 4] = 0\n   458: u8 [a0 + 3] = 0\n   461: u8 [a0 + 2] = 0\n   464: u8 [a0 + 1] = 0\n   467: u8 [a0 + 0] = 0\n   469: u64 [sp + 24] = 0\n   472: u64 [sp + 0] = 0\n   474: u64 [sp + 8] = 0\n   477: u64 [sp + 16] = 0\n   480: i32 a0 = sp + 0\n   482: ecalli 16 // 'value_transferred'\n   484: fallthrough\n      : @16 (gas: 8)\n   485: a0 = u64 [sp + 0x10]\n   488: a1 = u64 [sp + 0x18]\n   491: a2 = u64 [sp + 0x8]\n   494: a3 = u64 [sp]\n   496: a1 = a1 | a2\n   499: a0 = a0 | a3\n   502: a0 = a0 | a1\n   505: jump @20 if a0 != 0\n      : @17 (gas: 39)\n   509: u64 [sp + 88] = 0\n   512: u64 [sp + 80] = 0\n   515: u64 [sp + 72] = 0\n   518: s1 = 0x2\n   521: u64 [sp + 0x40] = s1\n   524: u64 [sp + 120] = 0\n   527: u64 [sp + 112] = 0\n   530: u64 [sp + 104] = 0\n   533: u64 [sp + 96] = 0\n   536: u32 [sp + 32] = 0x20\n   540: i32 a1 = sp + 0x40\n   543: i32 a3 = sp + 0x60\n   546: i32 a4 = sp + 0x20\n   549: a2 = 0xffffffffffffffff\n   552: a0 = 0\n   554: ecalli 8 // 'get_storage'\n   556: a0 = u64 [sp + 0x60]\n   559: a1 = u64 [sp + 0x68]\n   562: a2 = u64 [sp + 0x70]\n   565: a3 = u64 [sp + 0x78]\n   568: a4 = 0xffff00ffffffffff\n   578: a2 = a2 & a4\n   581: u64 [sp + 88] = 0\n   584: u64 [sp + 80] = 0\n   587: u64 [sp + 72] = 0\n   590: u64 [sp + 0x40] = s1\n   593: u64 [sp + 0x78] = a3\n   596: u64 [sp + 0x70] = a2\n   599: u64 [sp + 0x68] = a1\n   602: u64 [sp + 0x60] = a0\n   605: i32 a1 = sp + 0x40\n   608: i32 a3 = sp + 0x60\n   611: a2 = 0xffffffffffffffff\n   614: a4 = 0x20\n   617: a0 = 0\n   619: ecalli 15 // 'set_storage'\n   621: a0 = 0x40\n   624: a1 = 0x20\n   627: ra = 10, jump @0\n      : @18 [@dyn 5] (gas: 100)\n   632: a1 = u8 [a0 + 0x11]\n   635: a2 = u8 [a0 + 0x10]\n   638: a3 = u8 [a0 + 0x12]\n   641: a4 = u8 [a0 + 0x13]\n   644: a1 = a1 << 0x8\n   647: a1 = a1 | a2\n   650: a3 = a3 << 0x10\n   653: a4 = a4 << 0x18\n   656: a3 = a3 | a4\n   659: a1 = a1 | a3\n   662: a2 = u8 [a0 + 0x15]\n   665: a3 = u8 [a0 + 0x14]\n   668: a4 = u8 [a0 + 0x16]\n   671: a5 = u8 [a0 + 0x17]\n   674: a2 = a2 << 0x8\n   677: a2 = a2 | a3\n   680: a4 = a4 << 0x10\n   683: a5 = a5 << 0x18\n   686: a4 = a4 | a5\n   689: a2 = a2 | a4\n   692: a2 = a2 << 0x20\n   695: t0 = a2 | a1\n   698: a2 = u8 [a0 + 0x1]\n   701: a3 = u8 [a0]\n   703: a4 = u8 [a0 + 0x2]\n   706: a5 = u8 [a0 + 0x3]\n   709: a2 = a2 << 0x8\n   712: a2 = a2 | a3\n   715: a4 = a4 << 0x10\n   718: a5 = a5 << 0x18\n   721: a4 = a4 | a5\n   724: a2 = a2 | a4\n   727: a3 = u8 [a0 + 0x5]\n   730: a4 = u8 [a0 + 0x4]\n   733: a5 = u8 [a0 + 0x6]\n   736: s1 = u8 [a0 + 0x7]\n   739: a3 = a3 << 0x8\n   742: a3 = a3 | a4\n   745: a5 = a5 << 0x10\n   748: s1 = s1 << 0x18\n   751: a5 = a5 | s1\n   754: a3 = a3 | a5\n   757: a3 = a3 << 0x20\n   760: a2 = a2 | a3\n   763: a3 = u8 [a0 + 0x19]\n   766: a4 = u8 [a0 + 0x18]\n   769: a5 = u8 [a0 + 0x1a]\n   772: s1 = u8 [a0 + 0x1b]\n   775: a3 = a3 << 0x8\n   778: a3 = a3 | a4\n   781: a5 = a5 << 0x10\n   784: s1 = s1 << 0x18\n   787: a5 = a5 | s1\n   790: a3 = a3 | a5\n   793: a4 = u8 [a0 + 0x1d]\n   796: a5 = u8 [a0 + 0x1c]\n   799: s1 = u8 [a0 + 0x1e]\n   802: a1 = u8 [a0 + 0x1f]\n   805: a4 = a4 << 0x8\n   808: a4 = a4 | a5\n   811: s1 = s1 << 0x10\n   814: a1 = a1 << 0x18\n   817: a1 = a1 | s1\n   820: a1 = a1 | a4\n   823: a1 = a1 << 0x20\n   826: a3 = a3 | a1\n   829: a1 = u8 [a0 + 0x9]\n   832: a4 = u8 [a0 + 0x8]\n   835: a5 = u8 [a0 + 0xa]\n   838: s1 = u8 [a0 + 0xb]\n   841: a1 = a1 << 0x8\n   844: a1 = a1 | a4\n   847: a5 = a5 << 0x10\n   850: s1 = s1 << 0x18\n   853: a5 = a5 | s1\n   856: a1 = a1 | a5\n   859: a4 = u8 [a0 + 0xd]\n   862: a5 = u8 [a0 + 0xc]\n   865: s1 = u8 [a0 + 0xe]\n   868: a0 = u8 [a0 + 0xf]\n   871: a4 = a4 << 0x8\n   874: a4 = a4 | a5\n   877: s1 = s1 << 0x10\n   880: a0 = a0 << 0x18\n   883: a0 = a0 | s1\n   886: a0 = a0 | a4\n   889: a0 = a0 << 0x20\n   892: a0 = a0 | a1\n   895: a0 = reverse a0\n   897: s1 = reverse a3\n   899: a1 = reverse a2\n   901: a2 = reverse t0\n   903: a1 = a1 | a2\n   906: a2 = s1 | a0\n   909: a2 = a2 | a1\n   912: a2 = a2 >> 0x20\n   915: a0 = a0 | a1\n   918: a0 = a0 << 0x20\n   921: a0 = a0 | a2\n   924: jump @22 if a0 == 0\n      : @19 (gas: 1)\n   927: trap\n      : @20 (gas: 3)\n   928: a0 = 0\n   930: a1 = 0\n   932: ra = 12, jump @0\n      : @21 [@dyn 6] (gas: 5)\n   937: i32 a1 = a0 + 0\n   939: a0 = 0x1\n   942: a2 = 0\n   944: ecalli 13 // 'seal_return'\n   946: fallthrough\n      : @22 (gas: 4)\n   947: i32 s1 = s1 + 0\n   949: a0 = s1\n   951: a1 = 0\n   953: ra = 14, jump @0\n      : @23 [@dyn 7] (gas: 5)\n   958: i32 a0 = a0 + 0\n   960: a1 = 0\n   962: a2 = 0\n   964: ecalli 3 // 'call_data_copy'\n   966: fallthrough\n      : @24 (gas: 2)\n   967: a1 = i32 [0x20048]\n   972: jump @26 if a1 == 0\n      : @25 (gas: 4)\n   975: a0 = 0x30050\n   980: i32 a0 = a0 + 0\n   982: ecalli 14 // 'set_immutable_data'\n   984: fallthrough\n      : @26 (gas: 3)\n   985: a0 = s1\n   987: a1 = 0\n   989: ra = 16, jump @0\n      : @27 [@dyn 8] (gas: 6)\n   994: i32 a1 = a0 + 0\n   996: a0 = 0\n   998: a2 = 0\n  1000: ra = 0x12\n  1003: ecalli 13 // 'seal_return'\n  1005: fallthrough\n      : @28 [@dyn 9] (gas: 9)\n  1006: sp = sp + 0xffffffffffffffc0\n  1009: u64 [sp + 0x38] = ra\n  1012: u64 [sp + 0x30] = s0\n  1015: u64 [sp + 0x28] = s1\n  1018: s0 = sp + 0x40\n  1021: sp = sp & 0xffffffffffffffe0\n  1024: a0 = 0x40\n  1027: a1 = 0x20\n  1030: ra = 20, jump @0\n      : @29 [@dyn 10] (gas: 35)\n  1035: u8 [a0 + 31] = 0x80\n  1040: u8 [a0 + 30] = 0\n  1043: u8 [a0 + 29] = 0\n  1046: u8 [a0 + 28] = 0\n  1049: u8 [a0 + 27] = 0\n  1052: u8 [a0 + 26] = 0\n  1055: u8 [a0 + 25] = 0\n  1058: u8 [a0 + 24] = 0\n  1061: u8 [a0 + 23] = 0\n  1064: u8 [a0 + 22] = 0\n  1067: u8 [a0 + 21] = 0\n  1070: u8 [a0 + 20] = 0\n  1073: u8 [a0 + 19] = 0\n  1076: u8 [a0 + 18] = 0\n  1079: u8 [a0 + 17] = 0\n  1082: u8 [a0 + 16] = 0\n  1085: u8 [a0 + 15] = 0\n  1088: u8 [a0 + 14] = 0\n  1091: u8 [a0 + 13] = 0\n  1094: u8 [a0 + 12] = 0\n  1097: u8 [a0 + 11] = 0\n  1100: u8 [a0 + 10] = 0\n  1103: u8 [a0 + 9] = 0\n  1106: u8 [a0 + 8] = 0\n  1109: u8 [a0 + 7] = 0\n  1112: u8 [a0 + 3] = 0\n  1115: s1 = 0x20044\n  1120: u8 [a0 + 2] = 0\n  1123: u8 [a0 + 1] = 0\n  1126: u8 [a0 + 0] = 0\n  1128: a1 = i32 [0x20044]\n  1133: u8 [a0 + 6] = 0\n  1136: u8 [a0 + 5] = 0\n  1139: u8 [a0 + 4] = 0\n  1142: jump @45 if a1 <u 4\n      : @30 (gas: 4)\n  1147: i32 a0 = sp + 0\n  1149: a1 = 0\n  1151: ecalli 4 // 'call_data_load'\n  1153: fallthrough\n      : @31 (gas: 2)\n  1154: a0 = i32 [sp + 0x1c]\n  1157: jump @36 if a0 <=s 3375685773\n      : @32 (gas: 2)\n  1164: a1 = 0x29dcb000\n  1170: jump @40 if a0 >s 702329038\n      : @33 (gas: 1)\n  1177: jump @47 if a0 == 3375685774\n      : @34 (gas: 1)\n  1185: jump @44 if a0 != 3685619500\n      : @35 (gas: 14)\n  1193: ra = 0x16\n  1196: sp = sp + 0xffffffffffffff60\n  1200: u64 [sp + 0x98] = ra\n  1204: u64 [sp + 0x90] = s0\n  1208: u64 [sp + 0x88] = s1\n  1212: s0 = sp + 0xa0\n  1216: sp = sp & 0xffffffffffffffe0\n  1219: u64 [sp + 56] = 0\n  1222: u64 [sp + 48] = 0\n  1225: u64 [sp + 40] = 0\n  1228: u64 [sp + 32] = 0\n  1231: i32 a0 = sp + 0x20\n  1234: ecalli 16 // 'value_transferred'\n  1236: jump @133\n      : @36 [@dyn 11] (gas: 1)\n  1239: jump @43 if a0 == 2376452955\n      : @37 (gas: 1)\n  1246: jump @49 if a0 == 2632781467\n      : @38 (gas: 1)\n  1254: jump @44 if a0 != 3065339685\n      : @39 (gas: 1)\n  1261: ra = 24, jump @112\n      : @40 [@dyn 12] (gas: 2)\n  1266: i32 a1 = a1 + 0xcf\n  1270: jump @48 if a0 == a1\n      : @41 (gas: 1)\n  1274: jump @44 if a0 != 1412948993\n      : @42 (gas: 13)\n  1281: ra = 0x1a\n  1284: sp = sp + 0xffffffffffffff00\n  1288: u64 [sp + 0xf8] = ra\n  1292: u64 [sp + 0xf0] = s0\n  1296: s0 = sp + 0x100\n  1300: sp = sp & 0xffffffffffffffe0\n  1303: u64 [sp + 216] = 0\n  1307: u64 [sp + 208] = 0\n  1311: u64 [sp + 200] = 0\n  1315: u64 [sp + 192] = 0\n  1319: i32 a0 = sp + 0xc0\n  1323: ecalli 16 // 'value_transferred'\n  1325: jump @79\n      : @43 [@dyn 13] (gas: 14)\n  1328: ra = 0x1c\n  1331: sp = sp + 0xffffffffffffff60\n  1335: u64 [sp + 0x98] = ra\n  1339: u64 [sp + 0x90] = s0\n  1343: u64 [sp + 0x88] = s1\n  1347: s0 = sp + 0xa0\n  1351: sp = sp & 0xffffffffffffffe0\n  1354: u64 [sp + 56] = 0\n  1357: u64 [sp + 48] = 0\n  1360: u64 [sp + 40] = 0\n  1363: u64 [sp + 32] = 0\n  1366: i32 a0 = sp + 0x20\n  1369: ecalli 16 // 'value_transferred'\n  1371: jump @90\n      : @44 [@dyn 14] (gas: 2)\n  1374: a1 = i32 [s1]\n  1376: fallthrough\n      : @45 (gas: 1)\n  1377: jump @50 if a1 == 0\n      : @46 (gas: 7)\n  1381: ra = 0x1e\n  1384: sp = sp + 0xfffffffffffffff8\n  1387: u64 [sp] = ra\n  1389: a0 = 0\n  1391: a1 = 0\n  1393: ra = 0x2c\n  1396: jump @0\n      : @47 [@dyn 15] (gas: 14)\n  1399: ra = 0x20\n  1402: sp = sp + 0xffffffffffffff60\n  1406: u64 [sp + 0x98] = ra\n  1410: u64 [sp + 0x90] = s0\n  1414: u64 [sp + 0x88] = s1\n  1418: s0 = sp + 0xa0\n  1422: sp = sp & 0xffffffffffffffe0\n  1425: u64 [sp + 56] = 0\n  1428: u64 [sp + 48] = 0\n  1431: u64 [sp + 40] = 0\n  1434: u64 [sp + 32] = 0\n  1437: i32 a0 = sp + 0x20\n  1440: ecalli 16 // 'value_transferred'\n  1442: jump @122\n      : @48 [@dyn 16] (gas: 14)\n  1445: ra = 0x22\n  1448: sp = sp + 0xffffffffffffff60\n  1452: u64 [sp + 0x98] = ra\n  1456: u64 [sp + 0x90] = s0\n  1460: u64 [sp + 0x88] = s1\n  1464: s0 = sp + 0xa0\n  1468: sp = sp & 0xffffffffffffffe0\n  1471: u64 [sp + 56] = 0\n  1474: u64 [sp + 48] = 0\n  1477: u64 [sp + 40] = 0\n  1480: u64 [sp + 32] = 0\n  1483: i32 a0 = sp + 0x20\n  1486: ecalli 16 // 'value_transferred'\n  1488: jump @56\n      : @49 [@dyn 17] (gas: 14)\n  1491: ra = 0x24\n  1494: sp = sp + 0xffffffffffffff60\n  1498: u64 [sp + 0x98] = ra\n  1502: u64 [sp + 0x90] = s0\n  1506: u64 [sp + 0x88] = s1\n  1510: s0 = sp + 0xa0\n  1514: sp = sp & 0xffffffffffffffe0\n  1517: u64 [sp + 56] = 0\n  1520: u64 [sp + 48] = 0\n  1523: u64 [sp + 40] = 0\n  1526: u64 [sp + 32] = 0\n  1529: i32 a0 = sp + 0x20\n  1532: ecalli 16 // 'value_transferred'\n  1534: jump @101\n      : @50 [@dyn 18] (gas: 2)\n  1537: a0 = 0\n  1539: ra = 38, jump @0\n      : @51 [@dyn 19] (gas: 6)\n  1544: i32 a1 = a0 + 0\n  1546: a0 = 0\n  1548: a2 = 0\n  1550: ra = 0x28\n  1553: ecalli 13 // 'seal_return'\n  1555: fallthrough\n      : @52 [@dyn 20] (gas: 7)\n  1556: sp = sp + 0xfffffffffffffff0\n  1559: u64 [sp + 0x8] = ra\n  1562: u64 [sp] = s0\n  1564: s0 = a0\n  1566: a0 = 0x40\n  1569: a1 = 0x20\n  1572: ra = 42, jump @0\n      : @53 [@dyn 21] (gas: 100)\n  1577: a1 = u8 [a0 + 0x1]\n  1580: a2 = u8 [a0]\n  1582: a3 = u8 [a0 + 0x2]\n  1585: a4 = u8 [a0 + 0x3]\n  1588: a1 = a1 << 0x8\n  1591: a1 = a1 | a2\n  1594: a3 = a3 << 0x10\n  1597: a4 = a4 << 0x18\n  1600: a3 = a3 | a4\n  1603: a1 = a1 | a3\n  1606: a2 = u8 [a0 + 0x5]\n  1609: a3 = u8 [a0 + 0x4]\n  1612: a4 = u8 [a0 + 0x6]\n  1615: a5 = u8 [a0 + 0x7]\n  1618: a2 = a2 << 0x8\n  1621: a2 = a2 | a3\n  1624: a4 = a4 << 0x10\n  1627: a5 = a5 << 0x18\n  1630: a4 = a4 | a5\n  1633: a2 = a2 | a4\n  1636: a2 = a2 << 0x20\n  1639: t0 = a2 | a1\n  1642: a2 = u8 [a0 + 0x9]\n  1645: a3 = u8 [a0 + 0x8]\n  1648: a4 = u8 [a0 + 0xa]\n  1651: a5 = u8 [a0 + 0xb]\n  1654: a2 = a2 << 0x8\n  1657: a2 = a2 | a3\n  1660: a4 = a4 << 0x10\n  1663: a5 = a5 << 0x18\n  1666: a4 = a4 | a5\n  1669: a2 = a2 | a4\n  1672: a3 = u8 [a0 + 0xd]\n  1675: a4 = u8 [a0 + 0xc]\n  1678: a5 = u8 [a0 + 0xe]\n  1681: a1 = u8 [a0 + 0xf]\n  1684: a3 = a3 << 0x8\n  1687: a3 = a3 | a4\n  1690: a5 = a5 << 0x10\n  1693: a1 = a1 << 0x18\n  1696: a1 = a1 | a5\n  1699: a1 = a1 | a3\n  1702: a1 = a1 << 0x20\n  1705: t1 = a1 | a2\n  1708: a1 = u8 [a0 + 0x11]\n  1711: a3 = u8 [a0 + 0x10]\n  1714: a4 = u8 [a0 + 0x12]\n  1717: a5 = u8 [a0 + 0x13]\n  1720: a1 = a1 << 0x8\n  1723: a1 = a1 | a3\n  1726: a4 = a4 << 0x10\n  1729: a5 = a5 << 0x18\n  1732: a4 = a4 | a5\n  1735: a1 = a1 | a4\n  1738: a3 = u8 [a0 + 0x15]\n  1741: a4 = u8 [a0 + 0x14]\n  1744: a5 = u8 [a0 + 0x16]\n  1747: a2 = u8 [a0 + 0x17]\n  1750: a3 = a3 << 0x8\n  1753: a3 = a3 | a4\n  1756: a5 = a5 << 0x10\n  1759: a2 = a2 << 0x18\n  1762: a2 = a2 | a5\n  1765: a2 = a2 | a3\n  1768: a2 = a2 << 0x20\n  1771: a3 = a2 | a1\n  1774: a1 = u8 [a0 + 0x19]\n  1777: a2 = u8 [a0 + 0x18]\n  1780: a4 = u8 [a0 + 0x1a]\n  1783: a5 = u8 [a0 + 0x1b]\n  1786: a1 = a1 << 0x8\n  1789: a1 = a1 | a2\n  1792: a4 = a4 << 0x10\n  1795: a5 = a5 << 0x18\n  1798: a4 = a4 | a5\n  1801: a1 = a1 | a4\n  1804: a2 = u8 [a0 + 0x1d]\n  1807: a4 = u8 [a0 + 0x1c]\n  1810: a5 = u8 [a0 + 0x1e]\n  1813: a0 = u8 [a0 + 0x1f]\n  1816: a2 = a2 << 0x8\n  1819: a2 = a2 | a4\n  1822: a5 = a5 << 0x10\n  1825: a0 = a0 << 0x18\n  1828: a0 = a0 | a5\n  1831: a0 = a0 | a2\n  1834: a0 = a0 << 0x20\n  1837: a0 = a0 | a1\n  1840: a0 = reverse a0\n  1842: a1 = reverse a3\n  1844: a2 = reverse t1\n  1846: a3 = reverse t0\n  1848: u64 [s0 + 0x18] = a3\n  1851: u64 [s0 + 0x10] = a2\n  1854: u64 [s0 + 0x8] = a1\n  1857: u64 [s0] = a0\n  1859: ra = u64 [sp + 0x8]\n  1862: s0 = u64 [sp]\n  1864: sp = sp + 0x10\n  1867: ret\n      : @54 [@dyn 22] (gas: 6)\n  1869: i32 a1 = a0 + 0\n  1871: a0 = 0x1\n  1874: a2 = 0\n  1876: ra = 0x2e\n  1879: ecalli 13 // 'seal_return'\n  1881: fallthrough\n      : @55 [@dyn 23] (gas: 11)\n  1882: a2 = u64 [a1]\n  1884: a1 = u64 [a1 + 0x8]\n  1887: a3 = a2 >> 0x18\n  1890: a1 = a1 << 0x28\n  1893: a1 = a1 | a3\n  1896: a2 = a2 << 0x28\n  1899: u64 [a0 + 0x10] = a2\n  1902: u64 [a0 + 8] = 0\n  1905: u64 [a0 + 0] = 0\n  1907: u64 [a0 + 0x18] = a1\n  1910: ret\n      : @56 (gas: 8)\n  1912: a0 = u64 [sp + 0x30]\n  1915: a1 = u64 [sp + 0x38]\n  1918: a2 = u64 [sp + 0x28]\n  1921: a3 = u64 [sp + 0x20]\n  1924: a1 = a1 | a2\n  1927: a0 = a0 | a3\n  1930: a0 = a0 | a1\n  1933: jump @61 if a0 != 0\n      : @57 (gas: 2)\n  1937: a0 = i32 [0x20044]\n  1942: jump @61 if a0 <=u 3\n      : @58 (gas: 26)\n  1947: u64 [sp + 88] = 0\n  1950: u64 [sp + 80] = 0\n  1953: u64 [sp + 72] = 0\n  1956: u64 [sp + 64] = 0\n  1959: u64 [sp + 120] = 0\n  1962: u64 [sp + 112] = 0\n  1965: u64 [sp + 104] = 0\n  1968: u64 [sp + 96] = 0\n  1971: u32 [sp + 128] = 0x20\n  1976: i32 a1 = sp + 0x40\n  1979: i32 a3 = sp + 0x60\n  1982: i32 a4 = sp + 0x80\n  1986: a2 = 0xffffffffffffffff\n  1989: a0 = 0\n  1991: ecalli 8 // 'get_storage'\n  1993: a0 = u64 [sp + 0x78]\n  1996: u64 [sp] = a0\n  1998: a0 = u64 [sp + 0x70]\n  2001: u64 [sp + 0x8] = a0\n  2004: a0 = u64 [sp + 0x68]\n  2007: u64 [sp + 0x10] = a0\n  2010: a0 = u64 [sp + 0x60]\n  2013: u64 [sp + 0x18] = a0\n  2016: a0 = 0x40\n  2019: a1 = 0x20\n  2022: ra = 48, jump @0\n      : @59 [@dyn 24] (gas: 100)\n  2027: a1 = u8 [a0 + 0x11]\n  2030: a2 = u8 [a0 + 0x10]\n  2033: a3 = u8 [a0 + 0x12]\n  2036: a4 = u8 [a0 + 0x13]\n  2039: a1 = a1 << 0x8\n  2042: a1 = a1 | a2\n  2045: a3 = a3 << 0x10\n  2048: a4 = a4 << 0x18\n  2051: a3 = a3 | a4\n  2054: a1 = a1 | a3\n  2057: a2 = u8 [a0 + 0x15]\n  2060: a3 = u8 [a0 + 0x14]\n  2063: a4 = u8 [a0 + 0x16]\n  2066: a5 = u8 [a0 + 0x17]\n  2069: a2 = a2 << 0x8\n  2072: a2 = a2 | a3\n  2075: a4 = a4 << 0x10\n  2078: a5 = a5 << 0x18\n  2081: a4 = a4 | a5\n  2084: a2 = a2 | a4\n  2087: a2 = a2 << 0x20\n  2090: t0 = a2 | a1\n  2093: a2 = u8 [a0 + 0x1]\n  2096: a3 = u8 [a0]\n  2098: a4 = u8 [a0 + 0x2]\n  2101: a5 = u8 [a0 + 0x3]\n  2104: a2 = a2 << 0x8\n  2107: a2 = a2 | a3\n  2110: a4 = a4 << 0x10\n  2113: a5 = a5 << 0x18\n  2116: a4 = a4 | a5\n  2119: a2 = a2 | a4\n  2122: a3 = u8 [a0 + 0x5]\n  2125: a4 = u8 [a0 + 0x4]\n  2128: a5 = u8 [a0 + 0x6]\n  2131: s1 = u8 [a0 + 0x7]\n  2134: a3 = a3 << 0x8\n  2137: a3 = a3 | a4\n  2140: a5 = a5 << 0x10\n  2143: s1 = s1 << 0x18\n  2146: a5 = a5 | s1\n  2149: a3 = a3 | a5\n  2152: a3 = a3 << 0x20\n  2155: a2 = a2 | a3\n  2158: a3 = u8 [a0 + 0x19]\n  2161: a4 = u8 [a0 + 0x18]\n  2164: a5 = u8 [a0 + 0x1a]\n  2167: s1 = u8 [a0 + 0x1b]\n  2170: a3 = a3 << 0x8\n  2173: a3 = a3 | a4\n  2176: a5 = a5 << 0x10\n  2179: s1 = s1 << 0x18\n  2182: a5 = a5 | s1\n  2185: a3 = a3 | a5\n  2188: a4 = u8 [a0 + 0x1d]\n  2191: a5 = u8 [a0 + 0x1c]\n  2194: s1 = u8 [a0 + 0x1e]\n  2197: a1 = u8 [a0 + 0x1f]\n  2200: a4 = a4 << 0x8\n  2203: a4 = a4 | a5\n  2206: s1 = s1 << 0x10\n  2209: a1 = a1 << 0x18\n  2212: a1 = a1 | s1\n  2215: a1 = a1 | a4\n  2218: a1 = a1 << 0x20\n  2221: a3 = a3 | a1\n  2224: a1 = u8 [a0 + 0x9]\n  2227: a4 = u8 [a0 + 0x8]\n  2230: a5 = u8 [a0 + 0xa]\n  2233: s1 = u8 [a0 + 0xb]\n  2236: a1 = a1 << 0x8\n  2239: a1 = a1 | a4\n  2242: a5 = a5 << 0x10\n  2245: s1 = s1 << 0x18\n  2248: a5 = a5 | s1\n  2251: a1 = a1 | a5\n  2254: a4 = u8 [a0 + 0xd]\n  2257: a5 = u8 [a0 + 0xc]\n  2260: s1 = u8 [a0 + 0xe]\n  2263: a0 = u8 [a0 + 0xf]\n  2266: a4 = a4 << 0x8\n  2269: a4 = a4 | a5\n  2272: s1 = s1 << 0x10\n  2275: a0 = a0 << 0x18\n  2278: a0 = a0 | s1\n  2281: a0 = a0 | a4\n  2284: a0 = a0 << 0x20\n  2287: a0 = a0 | a1\n  2290: a1 = reverse a0\n  2292: a0 = reverse a3\n  2294: a2 = reverse a2\n  2296: a3 = reverse t0\n  2298: a2 = a2 | a3\n  2301: a3 = a0 | a1\n  2304: a3 = a3 | a2\n  2307: a3 = a3 >> 0x20\n  2310: a1 = a1 | a2\n  2313: a1 = a1 << 0x20\n  2316: a1 = a1 | a3\n  2319: jump @63 if a1 == 0\n      : @60 (gas: 1)\n  2322: trap\n      : @61 (gas: 3)\n  2323: a0 = 0\n  2325: a1 = 0\n  2327: ra = 50, jump @0\n      : @62 [@dyn 25] (gas: 5)\n  2332: i32 a1 = a0 + 0\n  2334: a0 = 0x1\n  2337: a2 = 0\n  2339: ecalli 13 // 'seal_return'\n  2341: fallthrough\n      : @63 (gas: 4)\n  2342: i32 s1 = a0 + 0\n  2344: a1 = 0x20\n  2347: a0 = s1\n  2349: ra = 52, jump @0\n      : @64 [@dyn 26] (gas: 71)\n  2354: a1 = u64 [sp]\n  2356: a1 = reverse a1\n  2358: a2 = u64 [sp + 0x8]\n  2361: a2 = reverse a2\n  2363: a3 = u64 [sp + 0x10]\n  2366: a3 = reverse a3\n  2368: a4 = u64 [sp + 0x18]\n  2371: a4 = reverse a4\n  2373: a5 = a4 >> 0x38\n  2376: u8 [a0 + 0x1f] = a5\n  2379: a5 = a4 >> 0x30\n  2382: u8 [a0 + 0x1e] = a5\n  2385: a5 = a4 >> 0x28\n  2388: u8 [a0 + 0x1d] = a5\n  2391: a5 = a4 >> 0x20\n  2394: u8 [a0 + 0x1c] = a5\n  2397: a5 = a4 >> 0x18\n  2400: u8 [a0 + 0x1b] = a5\n  2403: a5 = a4 >> 0x10\n  2406: u8 [a0 + 0x1a] = a5\n  2409: a5 = a4 >> 0x8\n  2412: u8 [a0 + 0x19] = a5\n  2415: u8 [a0 + 0x18] = a4\n  2418: u8 [a0 + 0x10] = a3\n  2421: a4 = a3 >> 0x38\n  2424: u8 [a0 + 0x17] = a4\n  2427: a4 = a3 >> 0x30\n  2430: u8 [a0 + 0x16] = a4\n  2433: a4 = a3 >> 0x28\n  2436: u8 [a0 + 0x15] = a4\n  2439: a4 = a3 >> 0x20\n  2442: u8 [a0 + 0x14] = a4\n  2445: a4 = a3 >> 0x18\n  2448: u8 [a0 + 0x13] = a4\n  2451: a4 = a3 >> 0x10\n  2454: u8 [a0 + 0x12] = a4\n  2457: a3 = a3 >> 0x8\n  2460: u8 [a0 + 0x11] = a3\n  2463: u8 [a0 + 0x8] = a2\n  2466: a3 = a2 >> 0x38\n  2469: u8 [a0 + 0xf] = a3\n  2472: a3 = a2 >> 0x30\n  2475: u8 [a0 + 0xe] = a3\n  2478: a3 = a2 >> 0x28\n  2481: u8 [a0 + 0xd] = a3\n  2484: a3 = a2 >> 0x20\n  2487: u8 [a0 + 0xc] = a3\n  2490: a3 = a2 >> 0x18\n  2493: u8 [a0 + 0xb] = a3\n  2496: a3 = a2 >> 0x10\n  2499: u8 [a0 + 0xa] = a3\n  2502: a2 = a2 >> 0x8\n  2505: u8 [a0 + 0x9] = a2\n  2508: u8 [a0] = a1\n  2510: a2 = a1 >> 0x38\n  2513: u8 [a0 + 0x7] = a2\n  2516: a2 = a1 >> 0x30\n  2519: u8 [a0 + 0x6] = a2\n  2522: a2 = a1 >> 0x28\n  2525: u8 [a0 + 0x5] = a2\n  2528: a2 = a1 >> 0x20\n  2531: u8 [a0 + 0x4] = a2\n  2534: a2 = a1 >> 0x18\n  2537: u8 [a0 + 0x3] = a2\n  2540: a2 = a1 >> 0x10\n  2543: u8 [a0 + 0x2] = a2\n  2546: a1 = a1 >> 0x8\n  2549: u8 [a0 + 0x1] = a1\n  2552: a1 = 0x20\n  2555: a0 = s1\n  2557: ra = 54, jump @0\n      : @65 [@dyn 27] (gas: 6)\n  2562: i32 a1 = a0 + 0\n  2564: a2 = 0x20\n  2567: a0 = 0\n  2569: ra = 0x38\n  2572: ecalli 13 // 'seal_return'\n  2574: fallthrough\n      : @66 [@dyn 28] (gas: 8)\n  2575: a2 = u32 [a1 + 0x10]\n  2578: a3 = u64 [a1 + 0x8]\n  2581: a1 = u64 [a1]\n  2583: u64 [a0 + 24] = 0\n  2586: u64 [a0 + 0x10] = a2\n  2589: u64 [a0 + 0x8] = a3\n  2592: u64 [a0] = a1\n  2594: ret\n      : @67 (gas: 47)\n  2596: sp = sp + 0xffffffffffffff80\n  2599: u64 [sp + 0x78] = ra\n  2602: u64 [sp + 0x70] = s0\n  2605: u64 [sp + 0x68] = s1\n  2608: s0 = sp + 0x80\n  2612: sp = sp & 0xffffffffffffffe0\n  2615: ra = u64 [a1 + 0x10]\n  2618: a5 = u64 [a1 + 0x8]\n  2621: a3 = u64 [a2 + 0x8]\n  2624: t1 = u64 [a1]\n  2626: a4 = u64 [a2]\n  2628: u64 [sp + 0x28] = a4\n  2631: t2 = u64 [a2 + 0x10]\n  2634: t0 = a3 ^ a5\n  2637: s1 = a3 <u a5\n  2640: a4 = a4 <u t1\n  2643: u64 [sp + 0x20] = a4\n  2646: s1 = a4 if t0 == 0\n  2649: t0 = u64 [a1 + 0x18]\n  2652: a1 = u64 [a2 + 0x18]\n  2655: u64 [sp + 0x18] = a1\n  2658: a2 = t2 - ra\n  2661: a1 = a2 - s1\n  2664: u64 [sp + 0x30] = a1\n  2667: a1 = a2 <u s1\n  2670: a4 = t2 <u ra\n  2673: u64 [sp + 0x38] = t0\n  2676: a2 = u64 [sp + 0x18]\n  2679: a2 = a2 - t0\n  2682: a2 = a2 - a4\n  2685: a2 = a2 - a1\n  2688: a1 = a3 - a5\n  2691: a3 = u64 [sp + 0x20]\n  2694: a1 = a1 - a3\n  2697: a3 = u64 [sp + 0x28]\n  2700: a3 = a3 - t1\n  2703: a4 = a1 >u 0\n  2705: a3 = a3 <u 0x40\n  2708: a3 = a3 ^ 0x1\n  2711: a3 = a4 if a1 != 0\n  2714: s1 = a2 >s 0\n  2716: a1 = u64 [sp + 0x30]\n  2719: a4 = a1 >u 0\n  2721: a4 = s1 if a2 != 0\n  2724: a1 = a1 | a2\n  2727: a3 = a4 if a1 != 0\n  2730: jump @76 if a3 == 0\n      : @68 (gas: 12)\n  2734: s1 = a0\n  2736: a0 = t1 | ra\n  2739: u64 [sp + 0x30] = a5\n  2742: a1 = u64 [sp + 0x38]\n  2745: a1 = a1 | a5\n  2748: a0 = a0 | a1\n  2751: a0 = a0 >> 0x20\n  2754: u64 [sp + 0x28] = ra\n  2757: a1 = a1 | ra\n  2760: a1 = a1 << 0x20\n  2763: a0 = a0 | a1\n  2766: jump @75 if a0 != 0\n      : @69 (gas: 6)\n  2770: u64 [sp + 0x20] = t1\n  2773: i32 a1 = t1 + 0\n  2775: i32 a0 = sp + 0x40\n  2778: u64 [sp + 0x8] = a1\n  2781: ecalli 4 // 'call_data_load'\n  2783: fallthrough\n      : @70 (gas: 10)\n  2784: a4 = u64 [sp + 0x50]\n  2787: a3 = u64 [sp + 0x58]\n  2790: a0 = 0x100000000\n  2800: a1 = a4 ^ a0\n  2803: a1 = a1 | a3\n  2806: a2 = a4 >> 0x20\n  2809: a2 = a2 <u 0x1\n  2812: a2 = 0 if a3 != 0\n  2814: a2 = 0 if a1 == 0\n  2816: jump @76 if a2 == 0\n      : @71 (gas: 12)\n  2820: u64 [sp + 0x10] = a4\n  2823: u64 [sp + 0x18] = a3\n  2826: a1 = u64 [sp + 0x28]\n  2829: a2 = u64 [sp + 0x38]\n  2832: a1 = a1 | a2\n  2835: a0 = 0xffffffe0\n  2845: a2 = u64 [sp + 0x20]\n  2848: a0 = a2 <u a0\n  2851: a2 = u64 [sp + 0x30]\n  2854: a0 = 0 if a2 != 0\n  2856: a0 = 0 if a1 != 0\n  2858: jump @75 if a0 == 0\n      : @72 (gas: 9)\n  2861: a0 = u64 [sp + 0x48]\n  2864: u64 [sp + 0x30] = a0\n  2867: a0 = u64 [sp + 0x40]\n  2870: u64 [sp + 0x38] = a0\n  2873: a0 = u64 [sp + 0x8]\n  2876: i32 a1 = a0 + 0x20\n  2879: i32 a0 = sp + 0x40\n  2882: ecalli 4 // 'call_data_load'\n  2884: fallthrough\n      : @73 (gas: 9)\n  2885: a0 = u64 [sp + 0x58]\n  2888: a1 = u64 [sp + 0x50]\n  2891: a2 = u64 [sp + 0x40]\n  2894: a3 = u64 [sp + 0x48]\n  2897: a4 = a1 | a0\n  2900: a5 = a2 <u 0x2\n  2903: a5 = 0 if a3 != 0\n  2905: a5 = 0 if a4 != 0\n  2907: jump @76 if a5 == 0\n      : @74 (gas: 18)\n  2910: u64 [s1 + 0x28] = a3\n  2913: u64 [s1 + 0x20] = a2\n  2916: a2 = u64 [sp + 0x30]\n  2919: u64 [s1 + 0x8] = a2\n  2922: a2 = u64 [sp + 0x38]\n  2925: u64 [s1] = a2\n  2927: u64 [s1 + 0x30] = a1\n  2930: a1 = u64 [sp + 0x10]\n  2933: u64 [s1 + 0x10] = a1\n  2936: u64 [s1 + 0x38] = a0\n  2939: a0 = u64 [sp + 0x18]\n  2942: u64 [s1 + 0x18] = a0\n  2945: sp = s0 + 0xffffffffffffff80\n  2948: ra = u64 [sp + 0x78]\n  2951: s0 = u64 [sp + 0x70]\n  2954: s1 = u64 [sp + 0x68]\n  2957: sp = sp + 0x80\n  2961: ret\n      : @75 (gas: 1)\n  2963: trap\n      : @76 (gas: 3)\n  2964: a0 = 0\n  2966: a1 = 0\n  2968: ra = 58, jump @0\n      : @77 [@dyn 29] (gas: 6)\n  2973: i32 a1 = a0 + 0\n  2975: a0 = 0x1\n  2978: a2 = 0\n  2980: ra = 0x3c\n  2983: ecalli 13 // 'seal_return'\n  2985: fallthrough\n      : @78 [@dyn 30] (gas: 9)\n  2986: a2 = u64 [a1 + 0x18]\n  2989: a3 = u64 [a1 + 0x10]\n  2992: a4 = u64 [a1 + 0x8]\n  2995: a1 = u64 [a1]\n  2997: u64 [a0 + 0x18] = a2\n  3000: u64 [a0 + 0x10] = a3\n  3003: u64 [a0 + 0x8] = a4\n  3006: u64 [a0] = a1\n  3008: ret\n      : @79 (gas: 8)\n  3010: a0 = u64 [sp + 0xd0]\n  3014: a1 = u64 [sp + 0xd8]\n  3018: a2 = u64 [sp + 0xc8]\n  3022: a3 = u64 [sp + 0xc0]\n  3026: a1 = a1 | a2\n  3029: a0 = a0 | a3\n  3032: a0 = a0 | a1\n  3035: jump @85 if a0 != 0\n      : @80 (gas: 13)\n  3039: a0 = u32 [0x20044]\n  3044: u64 [sp + 88] = 0\n  3047: u64 [sp + 80] = 0\n  3050: u64 [sp + 72] = 0\n  3053: u64 [sp + 0x40] = a0\n  3056: u64 [sp + 120] = 0\n  3059: u64 [sp + 112] = 0\n  3062: u64 [sp + 96] = 0x4\n  3066: a0 = sp + 0x80\n  3070: a1 = sp + 0x60\n  3073: a2 = sp + 0x40\n  3076: u64 [sp + 104] = 0\n  3079: ra = 62, jump @67\n      : @81 [@dyn 31] (gas: 19)\n  3084: t0 = u64 [sp + 0x80]\n  3088: t1 = u64 [sp + 0x88]\n  3092: a1 = u64 [sp + 0x90]\n  3096: a3 = u64 [sp + 0x98]\n  3100: a4 = u64 [sp + 0xa0]\n  3104: a5 = u64 [sp + 0xa8]\n  3108: a2 = u64 [sp + 0xb0]\n  3112: a0 = u64 [sp + 0xb8]\n  3116: u64 [sp + 0x18] = a0\n  3119: u64 [sp + 0x10] = a2\n  3122: u64 [sp + 0x8] = a5\n  3125: u64 [sp] = a4\n  3127: u64 [sp + 0x38] = a3\n  3130: u64 [sp + 0x30] = a1\n  3133: u64 [sp + 0x28] = t1\n  3136: a0 = sp + 0x20\n  3139: a1 = sp\n  3141: u64 [sp + 0x20] = t0\n  3144: ra = 64, jump @152\n      : @82 [@dyn 32] (gas: 3)\n  3149: a0 = 0x40\n  3152: a1 = 0x20\n  3155: ra = 66, jump @0\n      : @83 [@dyn 33] (gas: 100)\n  3160: a1 = u8 [a0 + 0x11]\n  3163: a2 = u8 [a0 + 0x10]\n  3166: a3 = u8 [a0 + 0x12]\n  3169: a4 = u8 [a0 + 0x13]\n  3172: a1 = a1 << 0x8\n  3175: a1 = a1 | a2\n  3178: a3 = a3 << 0x10\n  3181: a4 = a4 << 0x18\n  3184: a3 = a3 | a4\n  3187: a1 = a1 | a3\n  3190: a2 = u8 [a0 + 0x15]\n  3193: a3 = u8 [a0 + 0x14]\n  3196: a4 = u8 [a0 + 0x16]\n  3199: a5 = u8 [a0 + 0x17]\n  3202: a2 = a2 << 0x8\n  3205: a2 = a2 | a3\n  3208: a4 = a4 << 0x10\n  3211: a5 = a5 << 0x18\n  3214: a4 = a4 | a5\n  3217: a2 = a2 | a4\n  3220: a2 = a2 << 0x20\n  3223: t0 = a2 | a1\n  3226: a2 = u8 [a0 + 0x1]\n  3229: a3 = u8 [a0]\n  3231: a4 = u8 [a0 + 0x2]\n  3234: a5 = u8 [a0 + 0x3]\n  3237: a2 = a2 << 0x8\n  3240: a2 = a2 | a3\n  3243: a4 = a4 << 0x10\n  3246: a5 = a5 << 0x18\n  3249: a4 = a4 | a5\n  3252: a2 = a2 | a4\n  3255: a3 = u8 [a0 + 0x5]\n  3258: a4 = u8 [a0 + 0x4]\n  3261: a5 = u8 [a0 + 0x6]\n  3264: a1 = u8 [a0 + 0x7]\n  3267: a3 = a3 << 0x8\n  3270: a3 = a3 | a4\n  3273: a5 = a5 << 0x10\n  3276: a1 = a1 << 0x18\n  3279: a1 = a1 | a5\n  3282: a1 = a1 | a3\n  3285: a1 = a1 << 0x20\n  3288: t1 = a1 | a2\n  3291: a1 = u8 [a0 + 0x19]\n  3294: a3 = u8 [a0 + 0x18]\n  3297: a4 = u8 [a0 + 0x1a]\n  3300: a5 = u8 [a0 + 0x1b]\n  3303: a1 = a1 << 0x8\n  3306: a1 = a1 | a3\n  3309: a4 = a4 << 0x10\n  3312: a5 = a5 << 0x18\n  3315: a4 = a4 | a5\n  3318: a1 = a1 | a4\n  3321: a3 = u8 [a0 + 0x1d]\n  3324: a4 = u8 [a0 + 0x1c]\n  3327: a5 = u8 [a0 + 0x1e]\n  3330: a2 = u8 [a0 + 0x1f]\n  3333: a3 = a3 << 0x8\n  3336: a3 = a3 | a4\n  3339: a5 = a5 << 0x10\n  3342: a2 = a2 << 0x18\n  3345: a2 = a2 | a5\n  3348: a2 = a2 | a3\n  3351: a2 = a2 << 0x20\n  3354: a3 = a2 | a1\n  3357: a1 = u8 [a0 + 0x9]\n  3360: a2 = u8 [a0 + 0x8]\n  3363: a4 = u8 [a0 + 0xa]\n  3366: a5 = u8 [a0 + 0xb]\n  3369: a1 = a1 << 0x8\n  3372: a1 = a1 | a2\n  3375: a4 = a4 << 0x10\n  3378: a5 = a5 << 0x18\n  3381: a4 = a4 | a5\n  3384: a1 = a1 | a4\n  3387: a2 = u8 [a0 + 0xd]\n  3390: a4 = u8 [a0 + 0xc]\n  3393: a5 = u8 [a0 + 0xe]\n  3396: a0 = u8 [a0 + 0xf]\n  3399: a2 = a2 << 0x8\n  3402: a2 = a2 | a4\n  3405: a5 = a5 << 0x10\n  3408: a0 = a0 << 0x18\n  3411: a0 = a0 | a5\n  3414: a0 = a0 | a2\n  3417: a0 = a0 << 0x20\n  3420: a0 = a0 | a1\n  3423: a1 = reverse a0\n  3425: a0 = reverse a3\n  3427: a2 = reverse t1\n  3429: a3 = reverse t0\n  3431: a2 = a2 | a3\n  3434: a3 = a0 | a1\n  3437: a3 = a3 | a2\n  3440: a3 = a3 >> 0x20\n  3443: a1 = a1 | a2\n  3446: a1 = a1 << 0x20\n  3449: a1 = a1 | a3\n  3452: jump @87 if a1 == 0\n      : @84 (gas: 1)\n  3455: trap\n      : @85 (gas: 3)\n  3456: a0 = 0\n  3458: a1 = 0\n  3460: ra = 68, jump @0\n      : @86 [@dyn 34] (gas: 7)\n  3465: i32 a1 = a0 + 0\n  3467: a0 = 0x1\n  3470: a2 = 0\n  3472: ecalli 13 // 'seal_return'\n  3474: i32 a0 = a0 + 0\n  3476: ra = 0x46\n  3479: jump @0\n      : @87 (gas: 2)\n  3482: i32 a0 = a0 + 0\n  3484: ra = 70, jump @0\n      : @88 [@dyn 35] (gas: 6)\n  3489: i32 a1 = a0 + 0\n  3491: a0 = 0\n  3493: a2 = 0\n  3495: ra = 0x48\n  3498: ecalli 13 // 'seal_return'\n  3500: fallthrough\n      : @89 [@dyn 36] (gas: 194)\n  3501: sp = sp + 0xffffffffffffffa0\n  3504: u64 [sp + 0x58] = ra\n  3507: u64 [sp + 0x50] = s0\n  3510: u64 [sp + 0x48] = s1\n  3513: u64 [sp] = a0\n  3515: t1 = u64 [a1]\n  3517: ra = u64 [a1 + 0x8]\n  3520: a4 = u64 [a1 + 0x10]\n  3523: a1 = u64 [a1 + 0x18]\n  3526: t0 = u64 [a2]\n  3528: a3 = u64 [a2 + 0x8]\n  3531: t2 = u64 [a2 + 0x18]\n  3534: a2 = u64 [a2 + 0x10]\n  3537: s0 = t0 >> 0x3d\n  3540: s1 = a3 << 0x3\n  3543: s0 = s0 | s1\n  3546: a3 = a3 >> 0x3d\n  3549: s1 = a2 << 0x3\n  3552: a3 = a3 | s1\n  3555: a2 = a2 >> 0x3d\n  3558: t2 = t2 << 0x3\n  3561: s1 = t2 | a2\n  3564: t2 = t0 << 0x3\n  3567: a2 = s1 >u 0\n  3569: a5 = a3 >u 0\n  3571: a5 = a2 if s1 != 0\n  3574: a0 = s0 >u 0\n  3576: a2 = t2 <u 0x100\n  3580: t2 = a2 ^ 0x1\n  3583: t2 = a0 if s0 != 0\n  3586: a3 = a3 | s1\n  3589: t2 = a5 if a3 != 0\n  3592: u8 [sp + 71] = 0\n  3595: u8 [sp + 70] = 0\n  3598: u8 [sp + 69] = 0\n  3601: u8 [sp + 68] = 0\n  3604: u8 [sp + 67] = 0\n  3607: u8 [sp + 66] = 0\n  3610: u8 [sp + 65] = 0\n  3613: u8 [sp + 64] = 0\n  3616: u8 [sp + 63] = 0\n  3619: u8 [sp + 62] = 0\n  3622: u8 [sp + 61] = 0\n  3625: u8 [sp + 60] = 0\n  3628: u8 [sp + 59] = 0\n  3631: u8 [sp + 58] = 0\n  3634: u8 [sp + 57] = 0\n  3637: u8 [sp + 56] = 0\n  3640: u8 [sp + 55] = 0\n  3643: u8 [sp + 54] = 0\n  3646: u8 [sp + 53] = 0\n  3649: u8 [sp + 52] = 0\n  3652: u8 [sp + 51] = 0\n  3655: u8 [sp + 50] = 0\n  3658: u8 [sp + 49] = 0\n  3661: u8 [sp + 48] = 0\n  3664: u8 [sp + 47] = 0\n  3667: u8 [sp + 46] = 0\n  3670: u8 [sp + 45] = 0\n  3673: u8 [sp + 44] = 0\n  3676: u8 [sp + 43] = 0\n  3679: u8 [sp + 42] = 0\n  3682: u8 [sp + 41] = 0\n  3685: u8 [sp + 40] = 0\n  3688: u8 [sp + 0x20] = a1\n  3691: u8 [sp + 0x18] = a4\n  3694: u8 [sp + 0x10] = ra\n  3697: u8 [sp + 0x8] = t1\n  3700: a0 = a1 >> 0x38\n  3703: u8 [sp + 0x27] = a0\n  3706: a0 = a1 >> 0x30\n  3709: u8 [sp + 0x26] = a0\n  3712: a0 = a1 >> 0x28\n  3715: u8 [sp + 0x25] = a0\n  3718: a0 = a1 >> 0x20\n  3721: u8 [sp + 0x24] = a0\n  3724: a0 = a1 >> 0x18\n  3727: u8 [sp + 0x23] = a0\n  3730: a0 = a1 >> 0x10\n  3733: u8 [sp + 0x22] = a0\n  3736: a1 = a1 >> 0x8\n  3739: u8 [sp + 0x21] = a1\n  3742: a0 = a4 >> 0x38\n  3745: u8 [sp + 0x1f] = a0\n  3748: a0 = a4 >> 0x30\n  3751: u8 [sp + 0x1e] = a0\n  3754: a0 = a4 >> 0x28\n  3757: u8 [sp + 0x1d] = a0\n  3760: a0 = a4 >> 0x20\n  3763: u8 [sp + 0x1c] = a0\n  3766: a0 = a4 >> 0x18\n  3769: u8 [sp + 0x1b] = a0\n  3772: a0 = a4 >> 0x10\n  3775: u8 [sp + 0x1a] = a0\n  3778: a4 = a4 >> 0x8\n  3781: u8 [sp + 0x19] = a4\n  3784: a0 = ra >> 0x38\n  3787: u8 [sp + 0x17] = a0\n  3790: a0 = ra >> 0x30\n  3793: u8 [sp + 0x16] = a0\n  3796: a0 = ra >> 0x28\n  3799: u8 [sp + 0x15] = a0\n  3802: a0 = ra >> 0x20\n  3805: u8 [sp + 0x14] = a0\n  3808: a0 = ra >> 0x18\n  3811: u8 [sp + 0x13] = a0\n  3814: a0 = ra >> 0x10\n  3817: u8 [sp + 0x12] = a0\n  3820: a0 = ra >> 0x8\n  3823: u8 [sp + 0x11] = a0\n  3826: a0 = t1 >> 0x38\n  3829: u8 [sp + 0xf] = a0\n  3832: a0 = t1 >> 0x30\n  3835: u8 [sp + 0xe] = a0\n  3838: a0 = t1 >> 0x28\n  3841: u8 [sp + 0xd] = a0\n  3844: a0 = t1 >> 0x20\n  3847: u8 [sp + 0xc] = a0\n  3850: a0 = t1 >> 0x18\n  3853: u8 [sp + 0xb] = a0\n  3856: a0 = t1 >> 0x10\n  3859: u8 [sp + 0xa] = a0\n  3862: a0 = t1 >> 0x8\n  3865: u8 [sp + 0x9] = a0\n  3868: a1 = t0 & 0x1f\n  3871: a0 = sp + 0x8\n  3874: a1 = a1 + a0\n  3877: a0 = u8 [a1 + 0x9]\n  3880: a2 = u8 [a1 + 0x8]\n  3883: a3 = u8 [a1 + 0xa]\n  3886: a4 = u8 [a1 + 0xb]\n  3889: a0 = a0 << 0x8\n  3892: a0 = a0 | a2\n  3895: a3 = a3 << 0x10\n  3898: a4 = a4 << 0x18\n  3901: a3 = a3 | a4\n  3904: a0 = a0 | a3\n  3907: a2 = u8 [a1 + 0xd]\n  3910: a3 = u8 [a1 + 0xc]\n  3913: a4 = u8 [a1 + 0xe]\n  3916: a5 = u8 [a1 + 0xf]\n  3919: a2 = a2 << 0x8\n  3922: a2 = a2 | a3\n  3925: a4 = a4 << 0x10\n  3928: a5 = a5 << 0x18\n  3931: a4 = a4 | a5\n  3934: a2 = a2 | a4\n  3937: a2 = a2 << 0x20\n  3940: a3 = a2 | a0\n  3943: a0 = u8 [a1 + 0x1]\n  3946: a2 = u8 [a1]\n  3948: a4 = u8 [a1 + 0x2]\n  3951: a5 = u8 [a1 + 0x3]\n  3954: a0 = a0 << 0x8\n  3957: a0 = a0 | a2\n  3960: a4 = a4 << 0x10\n  3963: a5 = a5 << 0x18\n  3966: a4 = a4 | a5\n  3969: a0 = a0 | a4\n  3972: a2 = u8 [a1 + 0x5]\n  3975: a4 = u8 [a1 + 0x4]\n  3978: a5 = u8 [a1 + 0x6]\n  3981: s1 = u8 [a1 + 0x7]\n  3984: a2 = a2 << 0x8\n  3987: a2 = a2 | a4\n  3990: a5 = a5 << 0x10\n  3993: s1 = s1 << 0x18\n  3996: a5 = a5 | s1\n  3999: a2 = a2 | a5\n  4002: a2 = a2 << 0x20\n  4005: a0 = a0 | a2\n  4008: a2 = u8 [a1 + 0x11]\n  4011: a4 = u8 [a1 + 0x10]\n  4014: a5 = u8 [a1 + 0x12]\n  4017: a1 = u8 [a1 + 0x13]\n  4020: a2 = a2 << 0x8\n  4023: a2 = a2 | a4\n  4026: a5 = a5 << 0x10\n  4029: a1 = a1 << 0x18\n  4032: a1 = a1 | a5\n  4035: a1 = a1 | a2\n  4038: a0 = 0 if t2 != 0\n  4040: a3 = 0 if t2 != 0\n  4042: a1 = 0 if t2 != 0\n  4044: a2 = u64 [sp]\n  4046: u64 [a2 + 24] = 0\n  4049: u64 [a2 + 0x10] = a1\n  4052: u64 [a2 + 0x8] = a3\n  4055: u64 [a2] = a0\n  4057: ra = u64 [sp + 0x58]\n  4060: s0 = u64 [sp + 0x50]\n  4063: s1 = u64 [sp + 0x48]\n  4066: sp = sp + 0x60\n  4069: ret\n      : @90 (gas: 8)\n  4071: a0 = u64 [sp + 0x30]\n  4074: a1 = u64 [sp + 0x38]\n  4077: a2 = u64 [sp + 0x28]\n  4080: a3 = u64 [sp + 0x20]\n  4083: a1 = a1 | a2\n  4086: a0 = a0 | a3\n  4089: a0 = a0 | a1\n  4092: jump @95 if a0 != 0\n      : @91 (gas: 2)\n  4096: a0 = i32 [0x20044]\n  4101: jump @95 if a0 <=u 3\n      : @92 (gas: 24)\n  4106: u64 [sp + 88] = 0\n  4109: u64 [sp + 80] = 0\n  4112: u64 [sp + 72] = 0\n  4115: u64 [sp + 64] = 0x2\n  4119: u64 [sp + 120] = 0\n  4122: u64 [sp + 112] = 0\n  4125: u64 [sp + 104] = 0\n  4128: u64 [sp + 96] = 0\n  4131: u32 [sp + 128] = 0x20\n  4136: i32 a1 = sp + 0x40\n  4139: i32 a3 = sp + 0x60\n  4142: i32 a4 = sp + 0x80\n  4146: a2 = 0xffffffffffffffff\n  4149: a0 = 0\n  4151: ecalli 8 // 'get_storage'\n  4153: a0 = u64 [sp + 0x70]\n  4156: u64 [sp + 0x8] = a0\n  4159: a0 = u64 [sp + 0x68]\n  4162: u64 [sp + 0x10] = a0\n  4165: a0 = u64 [sp + 0x60]\n  4168: u64 [sp + 0x18] = a0\n  4171: a0 = 0x40\n  4174: a1 = 0x20\n  4177: ra = 74, jump @0\n      : @93 [@dyn 37] (gas: 100)\n  4182: a1 = u8 [a0 + 0x11]\n  4185: a2 = u8 [a0 + 0x10]\n  4188: a3 = u8 [a0 + 0x12]\n  4191: a4 = u8 [a0 + 0x13]\n  4194: a1 = a1 << 0x8\n  4197: a1 = a1 | a2\n  4200: a3 = a3 << 0x10\n  4203: a4 = a4 << 0x18\n  4206: a3 = a3 | a4\n  4209: a1 = a1 | a3\n  4212: a2 = u8 [a0 + 0x15]\n  4215: a3 = u8 [a0 + 0x14]\n  4218: a4 = u8 [a0 + 0x16]\n  4221: a5 = u8 [a0 + 0x17]\n  4224: a2 = a2 << 0x8\n  4227: a2 = a2 | a3\n  4230: a4 = a4 << 0x10\n  4233: a5 = a5 << 0x18\n  4236: a4 = a4 | a5\n  4239: a2 = a2 | a4\n  4242: a2 = a2 << 0x20\n  4245: t0 = a2 | a1\n  4248: a2 = u8 [a0 + 0x1]\n  4251: a3 = u8 [a0]\n  4253: a4 = u8 [a0 + 0x2]\n  4256: a5 = u8 [a0 + 0x3]\n  4259: a2 = a2 << 0x8\n  4262: a2 = a2 | a3\n  4265: a4 = a4 << 0x10\n  4268: a5 = a5 << 0x18\n  4271: a4 = a4 | a5\n  4274: a2 = a2 | a4\n  4277: a3 = u8 [a0 + 0x5]\n  4280: a4 = u8 [a0 + 0x4]\n  4283: a5 = u8 [a0 + 0x6]\n  4286: s1 = u8 [a0 + 0x7]\n  4289: a3 = a3 << 0x8\n  4292: a3 = a3 | a4\n  4295: a5 = a5 << 0x10\n  4298: s1 = s1 << 0x18\n  4301: a5 = a5 | s1\n  4304: a3 = a3 | a5\n  4307: a3 = a3 << 0x20\n  4310: a2 = a2 | a3\n  4313: a3 = u8 [a0 + 0x19]\n  4316: a4 = u8 [a0 + 0x18]\n  4319: a5 = u8 [a0 + 0x1a]\n  4322: s1 = u8 [a0 + 0x1b]\n  4325: a3 = a3 << 0x8\n  4328: a3 = a3 | a4\n  4331: a5 = a5 << 0x10\n  4334: s1 = s1 << 0x18\n  4337: a5 = a5 | s1\n  4340: a3 = a3 | a5\n  4343: a4 = u8 [a0 + 0x1d]\n  4346: a5 = u8 [a0 + 0x1c]\n  4349: s1 = u8 [a0 + 0x1e]\n  4352: a1 = u8 [a0 + 0x1f]\n  4355: a4 = a4 << 0x8\n  4358: a4 = a4 | a5\n  4361: s1 = s1 << 0x10\n  4364: a1 = a1 << 0x18\n  4367: a1 = a1 | s1\n  4370: a1 = a1 | a4\n  4373: a1 = a1 << 0x20\n  4376: a3 = a3 | a1\n  4379: a1 = u8 [a0 + 0x9]\n  4382: a4 = u8 [a0 + 0x8]\n  4385: a5 = u8 [a0 + 0xa]\n  4388: s1 = u8 [a0 + 0xb]\n  4391: a1 = a1 << 0x8\n  4394: a1 = a1 | a4\n  4397: a5 = a5 << 0x10\n  4400: s1 = s1 << 0x18\n  4403: a5 = a5 | s1\n  4406: a1 = a1 | a5\n  4409: a4 = u8 [a0 + 0xd]\n  4412: a5 = u8 [a0 + 0xc]\n  4415: s1 = u8 [a0 + 0xe]\n  4418: a0 = u8 [a0 + 0xf]\n  4421: a4 = a4 << 0x8\n  4424: a4 = a4 | a5\n  4427: s1 = s1 << 0x10\n  4430: a0 = a0 << 0x18\n  4433: a0 = a0 | s1\n  4436: a0 = a0 | a4\n  4439: a0 = a0 << 0x20\n  4442: a0 = a0 | a1\n  4445: a1 = reverse a0\n  4447: a0 = reverse a3\n  4449: a2 = reverse a2\n  4451: a3 = reverse t0\n  4453: a2 = a2 | a3\n  4456: a3 = a0 | a1\n  4459: a3 = a3 | a2\n  4462: a3 = a3 >> 0x20\n  4465: a1 = a1 | a2\n  4468: a1 = a1 << 0x20\n  4471: a1 = a1 | a3\n  4474: jump @97 if a1 == 0\n      : @94 (gas: 1)\n  4477: trap\n      : @95 (gas: 3)\n  4478: a0 = 0\n  4480: a1 = 0\n  4482: ra = 76, jump @0\n      : @96 [@dyn 38] (gas: 5)\n  4487: i32 a1 = a0 + 0\n  4489: a0 = 0x1\n  4492: a2 = 0\n  4494: ecalli 13 // 'seal_return'\n  4496: fallthrough\n      : @97 (gas: 7)\n  4497: a1 = u64 [sp + 0x8]\n  4500: a1 = a1 << 0x20\n  4503: s1 = a1 >> 0x20\n  4506: i32 a0 = a0 + 0\n  4508: u64 [sp + 0x8] = a0\n  4511: a1 = 0x20\n  4514: ra = 78, jump @0\n      : @98 [@dyn 39] (gas: 58)\n  4519: a1 = reverse s1\n  4521: a2 = u64 [sp + 0x10]\n  4524: a2 = reverse a2\n  4526: a3 = u64 [sp + 0x18]\n  4529: a3 = reverse a3\n  4531: a4 = a3 >> 0x38\n  4534: u8 [a0 + 0x1f] = a4\n  4537: a4 = a3 >> 0x30\n  4540: u8 [a0 + 0x1e] = a4\n  4543: a4 = a3 >> 0x28\n  4546: u8 [a0 + 0x1d] = a4\n  4549: a4 = a3 >> 0x20\n  4552: u8 [a0 + 0x1c] = a4\n  4555: a4 = a3 >> 0x18\n  4558: u8 [a0 + 0x1b] = a4\n  4561: a4 = a3 >> 0x10\n  4564: u8 [a0 + 0x1a] = a4\n  4567: a4 = a3 >> 0x8\n  4570: u8 [a0 + 0x19] = a4\n  4573: u8 [a0 + 0x18] = a3\n  4576: u8 [a0 + 0x10] = a2\n  4579: u8 [a0 + 11] = 0\n  4582: u8 [a0 + 10] = 0\n  4585: u8 [a0 + 9] = 0\n  4588: u8 [a0 + 7] = 0\n  4591: u8 [a0 + 6] = 0\n  4594: u8 [a0 + 5] = 0\n  4597: u8 [a0 + 4] = 0\n  4600: u8 [a0 + 3] = 0\n  4603: u8 [a0 + 2] = 0\n  4606: u8 [a0 + 1] = 0\n  4609: u8 [a0 + 0] = 0\n  4611: a3 = a2 >> 0x38\n  4614: u8 [a0 + 0x17] = a3\n  4617: a3 = a2 >> 0x30\n  4620: u8 [a0 + 0x16] = a3\n  4623: a3 = a2 >> 0x28\n  4626: u8 [a0 + 0x15] = a3\n  4629: a3 = a2 >> 0x20\n  4632: u8 [a0 + 0x14] = a3\n  4635: a3 = a2 >> 0x18\n  4638: u8 [a0 + 0x13] = a3\n  4641: a3 = a2 >> 0x10\n  4644: u8 [a0 + 0x12] = a3\n  4647: a2 = a2 >> 0x8\n  4650: u8 [a0 + 0x11] = a2\n  4653: u8 [a0 + 0x8] = a1\n  4656: a2 = a1 >> 0x38\n  4659: u8 [a0 + 0xf] = a2\n  4662: a2 = a1 >> 0x30\n  4665: u8 [a0 + 0xe] = a2\n  4668: a2 = a1 >> 0x28\n  4671: u8 [a0 + 0xd] = a2\n  4674: a1 = a1 >> 0x20\n  4677: u8 [a0 + 0xc] = a1\n  4680: a1 = 0x20\n  4683: a0 = u64 [sp + 0x8]\n  4686: ra = 80, jump @0\n      : @99 [@dyn 40] (gas: 6)\n  4691: i32 a1 = a0 + 0\n  4693: a2 = 0x20\n  4696: a0 = 0\n  4698: ra = 0x52\n  4701: ecalli 13 // 'seal_return'\n  4703: fallthrough\n      : @100 [@dyn 41] (gas: 36)\n  4704: sp = sp + 0xffffffffffffffa0\n  4707: u64 [sp + 0x58] = ra\n  4710: u64 [sp + 0x50] = s0\n  4713: u64 [sp + 0x48] = s1\n  4716: s0 = sp + 0x60\n  4719: sp = sp & 0xffffffffffffffe0\n  4722: s1 = a0\n  4724: u64 [sp + 24] = 0\n  4727: u64 [sp + 16] = 0\n  4730: u64 [sp + 8] = 0\n  4733: u64 [sp + 0] = 0x1\n  4736: u64 [sp + 56] = 0\n  4739: u64 [sp + 48] = 0\n  4742: u64 [sp + 40] = 0\n  4745: u64 [sp + 32] = 0\n  4748: u32 [sp + 64] = 0x20\n  4752: i32 a1 = sp + 0\n  4754: i32 a3 = sp + 0x20\n  4757: i32 a4 = sp + 0x40\n  4760: a2 = 0xffffffffffffffff\n  4763: a0 = 0\n  4765: ecalli 8 // 'get_storage'\n  4767: a0 = u64 [sp + 0x38]\n  4770: a1 = u64 [sp + 0x30]\n  4773: a2 = u64 [sp + 0x28]\n  4776: a3 = u64 [sp + 0x20]\n  4779: u64 [s1 + 0x18] = a0\n  4782: u64 [s1 + 0x10] = a1\n  4785: u64 [s1 + 0x8] = a2\n  4788: u64 [s1] = a3\n  4790: sp = s0 + 0xffffffffffffffa0\n  4793: ra = u64 [sp + 0x58]\n  4796: s0 = u64 [sp + 0x50]\n  4799: s1 = u64 [sp + 0x48]\n  4802: sp = sp + 0x60\n  4805: ret\n      : @101 (gas: 8)\n  4807: a0 = u64 [sp + 0x30]\n  4810: a1 = u64 [sp + 0x38]\n  4813: a2 = u64 [sp + 0x28]\n  4816: a3 = u64 [sp + 0x20]\n  4819: a1 = a1 | a2\n  4822: a0 = a0 | a3\n  4825: a0 = a0 | a1\n  4828: jump @106 if a0 != 0\n      : @102 (gas: 2)\n  4832: a0 = i32 [0x20044]\n  4837: jump @106 if a0 <=u 3\n      : @103 (gas: 26)\n  4842: u64 [sp + 88] = 0\n  4845: u64 [sp + 80] = 0\n  4848: u64 [sp + 72] = 0\n  4851: u64 [sp + 64] = 0x1\n  4855: u64 [sp + 120] = 0\n  4858: u64 [sp + 112] = 0\n  4861: u64 [sp + 104] = 0\n  4864: u64 [sp + 96] = 0\n  4867: u32 [sp + 128] = 0x20\n  4872: i32 a1 = sp + 0x40\n  4875: i32 a3 = sp + 0x60\n  4878: i32 a4 = sp + 0x80\n  4882: a2 = 0xffffffffffffffff\n  4885: a0 = 0\n  4887: ecalli 8 // 'get_storage'\n  4889: a0 = u64 [sp + 0x78]\n  4892: u64 [sp] = a0\n  4894: a0 = u64 [sp + 0x70]\n  4897: u64 [sp + 0x8] = a0\n  4900: a0 = u64 [sp + 0x68]\n  4903: u64 [sp + 0x10] = a0\n  4906: a0 = u64 [sp + 0x60]\n  4909: u64 [sp + 0x18] = a0\n  4912: a0 = 0x40\n  4915: a1 = 0x20\n  4918: ra = 84, jump @0\n      : @104 [@dyn 42] (gas: 100)\n  4923: a1 = u8 [a0 + 0x11]\n  4926: a2 = u8 [a0 + 0x10]\n  4929: a3 = u8 [a0 + 0x12]\n  4932: a4 = u8 [a0 + 0x13]\n  4935: a1 = a1 << 0x8\n  4938: a1 = a1 | a2\n  4941: a3 = a3 << 0x10\n  4944: a4 = a4 << 0x18\n  4947: a3 = a3 | a4\n  4950: a1 = a1 | a3\n  4953: a2 = u8 [a0 + 0x15]\n  4956: a3 = u8 [a0 + 0x14]\n  4959: a4 = u8 [a0 + 0x16]\n  4962: a5 = u8 [a0 + 0x17]\n  4965: a2 = a2 << 0x8\n  4968: a2 = a2 | a3\n  4971: a4 = a4 << 0x10\n  4974: a5 = a5 << 0x18\n  4977: a4 = a4 | a5\n  4980: a2 = a2 | a4\n  4983: a2 = a2 << 0x20\n  4986: t0 = a2 | a1\n  4989: a2 = u8 [a0 + 0x1]\n  4992: a3 = u8 [a0]\n  4994: a4 = u8 [a0 + 0x2]\n  4997: a5 = u8 [a0 + 0x3]\n  5000: a2 = a2 << 0x8\n  5003: a2 = a2 | a3\n  5006: a4 = a4 << 0x10\n  5009: a5 = a5 << 0x18\n  5012: a4 = a4 | a5\n  5015: a2 = a2 | a4\n  5018: a3 = u8 [a0 + 0x5]\n  5021: a4 = u8 [a0 + 0x4]\n  5024: a5 = u8 [a0 + 0x6]\n  5027: s1 = u8 [a0 + 0x7]\n  5030: a3 = a3 << 0x8\n  5033: a3 = a3 | a4\n  5036: a5 = a5 << 0x10\n  5039: s1 = s1 << 0x18\n  5042: a5 = a5 | s1\n  5045: a3 = a3 | a5\n  5048: a3 = a3 << 0x20\n  5051: a2 = a2 | a3\n  5054: a3 = u8 [a0 + 0x19]\n  5057: a4 = u8 [a0 + 0x18]\n  5060: a5 = u8 [a0 + 0x1a]\n  5063: s1 = u8 [a0 + 0x1b]\n  5066: a3 = a3 << 0x8\n  5069: a3 = a3 | a4\n  5072: a5 = a5 << 0x10\n  5075: s1 = s1 << 0x18\n  5078: a5 = a5 | s1\n  5081: a3 = a3 | a5\n  5084: a4 = u8 [a0 + 0x1d]\n  5087: a5 = u8 [a0 + 0x1c]\n  5090: s1 = u8 [a0 + 0x1e]\n  5093: a1 = u8 [a0 + 0x1f]\n  5096: a4 = a4 << 0x8\n  5099: a4 = a4 | a5\n  5102: s1 = s1 << 0x10\n  5105: a1 = a1 << 0x18\n  5108: a1 = a1 | s1\n  5111: a1 = a1 | a4\n  5114: a1 = a1 << 0x20\n  5117: a3 = a3 | a1\n  5120: a1 = u8 [a0 + 0x9]\n  5123: a4 = u8 [a0 + 0x8]\n  5126: a5 = u8 [a0 + 0xa]\n  5129: s1 = u8 [a0 + 0xb]\n  5132: a1 = a1 << 0x8\n  5135: a1 = a1 | a4\n  5138: a5 = a5 << 0x10\n  5141: s1 = s1 << 0x18\n  5144: a5 = a5 | s1\n  5147: a1 = a1 | a5\n  5150: a4 = u8 [a0 + 0xd]\n  5153: a5 = u8 [a0 + 0xc]\n  5156: s1 = u8 [a0 + 0xe]\n  5159: a0 = u8 [a0 + 0xf]\n  5162: a4 = a4 << 0x8\n  5165: a4 = a4 | a5\n  5168: s1 = s1 << 0x10\n  5171: a0 = a0 << 0x18\n  5174: a0 = a0 | s1\n  5177: a0 = a0 | a4\n  5180: a0 = a0 << 0x20\n  5183: a0 = a0 | a1\n  5186: a1 = reverse a0\n  5188: a0 = reverse a3\n  5190: a2 = reverse a2\n  5192: a3 = reverse t0\n  5194: a2 = a2 | a3\n  5197: a3 = a0 | a1\n  5200: a3 = a3 | a2\n  5203: a3 = a3 >> 0x20\n  5206: a1 = a1 | a2\n  5209: a1 = a1 << 0x20\n  5212: a1 = a1 | a3\n  5215: jump @108 if a1 == 0\n      : @105 (gas: 1)\n  5218: trap\n      : @106 (gas: 3)\n  5219: a0 = 0\n  5221: a1 = 0\n  5223: ra = 86, jump @0\n      : @107 [@dyn 43] (gas: 5)\n  5228: i32 a1 = a0 + 0\n  5230: a0 = 0x1\n  5233: a2 = 0\n  5235: ecalli 13 // 'seal_return'\n  5237: fallthrough\n      : @108 (gas: 4)\n  5238: i32 s1 = a0 + 0\n  5240: a1 = 0x20\n  5243: a0 = s1\n  5245: ra = 88, jump @0\n      : @109 [@dyn 44] (gas: 71)\n  5250: a1 = u64 [sp]\n  5252: a1 = reverse a1\n  5254: a2 = u64 [sp + 0x8]\n  5257: a2 = reverse a2\n  5259: a3 = u64 [sp + 0x10]\n  5262: a3 = reverse a3\n  5264: a4 = u64 [sp + 0x18]\n  5267: a4 = reverse a4\n  5269: a5 = a4 >> 0x38\n  5272: u8 [a0 + 0x1f] = a5\n  5275: a5 = a4 >> 0x30\n  5278: u8 [a0 + 0x1e] = a5\n  5281: a5 = a4 >> 0x28\n  5284: u8 [a0 + 0x1d] = a5\n  5287: a5 = a4 >> 0x20\n  5290: u8 [a0 + 0x1c] = a5\n  5293: a5 = a4 >> 0x18\n  5296: u8 [a0 + 0x1b] = a5\n  5299: a5 = a4 >> 0x10\n  5302: u8 [a0 + 0x1a] = a5\n  5305: a5 = a4 >> 0x8\n  5308: u8 [a0 + 0x19] = a5\n  5311: u8 [a0 + 0x18] = a4\n  5314: u8 [a0 + 0x10] = a3\n  5317: a4 = a3 >> 0x38\n  5320: u8 [a0 + 0x17] = a4\n  5323: a4 = a3 >> 0x30\n  5326: u8 [a0 + 0x16] = a4\n  5329: a4 = a3 >> 0x28\n  5332: u8 [a0 + 0x15] = a4\n  5335: a4 = a3 >> 0x20\n  5338: u8 [a0 + 0x14] = a4\n  5341: a4 = a3 >> 0x18\n  5344: u8 [a0 + 0x13] = a4\n  5347: a4 = a3 >> 0x10\n  5350: u8 [a0 + 0x12] = a4\n  5353: a3 = a3 >> 0x8\n  5356: u8 [a0 + 0x11] = a3\n  5359: u8 [a0 + 0x8] = a2\n  5362: a3 = a2 >> 0x38\n  5365: u8 [a0 + 0xf] = a3\n  5368: a3 = a2 >> 0x30\n  5371: u8 [a0 + 0xe] = a3\n  5374: a3 = a2 >> 0x28\n  5377: u8 [a0 + 0xd] = a3\n  5380: a3 = a2 >> 0x20\n  5383: u8 [a0 + 0xc] = a3\n  5386: a3 = a2 >> 0x18\n  5389: u8 [a0 + 0xb] = a3\n  5392: a3 = a2 >> 0x10\n  5395: u8 [a0 + 0xa] = a3\n  5398: a2 = a2 >> 0x8\n  5401: u8 [a0 + 0x9] = a2\n  5404: u8 [a0] = a1\n  5406: a2 = a1 >> 0x38\n  5409: u8 [a0 + 0x7] = a2\n  5412: a2 = a1 >> 0x30\n  5415: u8 [a0 + 0x6] = a2\n  5418: a2 = a1 >> 0x28\n  5421: u8 [a0 + 0x5] = a2\n  5424: a2 = a1 >> 0x20\n  5427: u8 [a0 + 0x4] = a2\n  5430: a2 = a1 >> 0x18\n  5433: u8 [a0 + 0x3] = a2\n  5436: a2 = a1 >> 0x10\n  5439: u8 [a0 + 0x2] = a2\n  5442: a1 = a1 >> 0x8\n  5445: u8 [a0 + 0x1] = a1\n  5448: a1 = 0x20\n  5451: a0 = s1\n  5453: ra = 90, jump @0\n      : @110 [@dyn 45] (gas: 6)\n  5458: i32 a1 = a0 + 0\n  5460: a2 = 0x20\n  5463: a0 = 0\n  5465: ra = 0x5c\n  5468: ecalli 13 // 'seal_return'\n  5470: fallthrough\n      : @111 [@dyn 46] (gas: 1)\n  5471: ret\n      : @112 (gas: 7)\n  5473: sp = sp + 0xffffffffffffffa0\n  5476: u64 [sp + 0x58] = ra\n  5479: u64 [sp + 0x50] = s0\n  5482: s0 = sp + 0x60\n  5485: sp = sp & 0xffffffffffffffe0\n  5488: a0 = i32 [0x20044]\n  5493: jump @117 if a0 <=u 35\n      : @113 (gas: 44)\n  5498: i32 a0 = sp + 0x20\n  5501: a1 = 0x4\n  5504: ecalli 4 // 'call_data_load'\n  5506: a1 = u64 [sp + 0x20]\n  5509: a0 = u64 [sp + 0x28]\n  5512: a2 = u64 [sp + 0x30]\n  5515: a3 = u64 [sp + 0x38]\n  5518: u64 [sp + 0x18] = a3\n  5521: u64 [sp + 0x10] = a2\n  5524: u64 [sp + 0x8] = a0\n  5527: a0 = sp\n  5529: u64 [sp] = a1\n  5531: ra = 0x5e\n  5534: sp = sp + 0xfffffffffffffd60\n  5538: u64 [sp + 0x298] = ra\n  5542: u64 [sp + 0x290] = s0\n  5546: u64 [sp + 0x288] = s1\n  5550: s0 = sp + 0x2a0\n  5554: sp = sp & 0xffffffffffffffe0\n  5557: s1 = sp\n  5559: a1 = u64 [a0 + 0x18]\n  5562: u64 [s1 + 0x78] = a1\n  5565: a1 = u64 [a0 + 0x10]\n  5568: u64 [s1 + 0x70] = a1\n  5571: a1 = u64 [a0 + 0x8]\n  5574: u64 [s1 + 0x60] = a1\n  5577: a0 = u64 [a0]\n  5579: u64 [s1 + 0x68] = a0\n  5582: u64 [s1 + 536] = 0\n  5586: u64 [s1 + 528] = 0\n  5590: u64 [s1 + 520] = 0\n  5594: u64 [s1 + 512] = 0x2\n  5599: u64 [s1 + 600] = 0\n  5603: u64 [s1 + 592] = 0\n  5607: u64 [s1 + 584] = 0\n  5611: u64 [s1 + 576] = 0\n  5615: u32 [s1 + 544] = 0x20\n  5620: i32 a1 = s1 + 0x200\n  5624: i32 a3 = s1 + 0x240\n  5628: i32 a4 = s1 + 0x220\n  5632: a2 = 0xffffffffffffffff\n  5635: a0 = 0\n  5637: ecalli 8 // 'get_storage'\n  5639: jump @319\n      : @114 [@dyn 47] (gas: 3)\n  5642: a0 = 0x40\n  5645: a1 = 0x20\n  5648: ra = 96, jump @0\n      : @115 [@dyn 48] (gas: 100)\n  5653: a1 = u8 [a0 + 0x11]\n  5656: a2 = u8 [a0 + 0x10]\n  5659: a3 = u8 [a0 + 0x12]\n  5662: a4 = u8 [a0 + 0x13]\n  5665: a1 = a1 << 0x8\n  5668: a1 = a1 | a2\n  5671: a3 = a3 << 0x10\n  5674: a4 = a4 << 0x18\n  5677: a3 = a3 | a4\n  5680: a1 = a1 | a3\n  5683: a2 = u8 [a0 + 0x15]\n  5686: a3 = u8 [a0 + 0x14]\n  5689: a4 = u8 [a0 + 0x16]\n  5692: a5 = u8 [a0 + 0x17]\n  5695: a2 = a2 << 0x8\n  5698: a2 = a2 | a3\n  5701: a4 = a4 << 0x10\n  5704: a5 = a5 << 0x18\n  5707: a4 = a4 | a5\n  5710: a2 = a2 | a4\n  5713: a2 = a2 << 0x20\n  5716: t0 = a2 | a1\n  5719: a2 = u8 [a0 + 0x1]\n  5722: a3 = u8 [a0]\n  5724: a4 = u8 [a0 + 0x2]\n  5727: a5 = u8 [a0 + 0x3]\n  5730: a2 = a2 << 0x8\n  5733: a2 = a2 | a3\n  5736: a4 = a4 << 0x10\n  5739: a5 = a5 << 0x18\n  5742: a4 = a4 | a5\n  5745: a2 = a2 | a4\n  5748: a3 = u8 [a0 + 0x5]\n  5751: a4 = u8 [a0 + 0x4]\n  5754: a5 = u8 [a0 + 0x6]\n  5757: a1 = u8 [a0 + 0x7]\n  5760: a3 = a3 << 0x8\n  5763: a3 = a3 | a4\n  5766: a5 = a5 << 0x10\n  5769: a1 = a1 << 0x18\n  5772: a1 = a1 | a5\n  5775: a1 = a1 | a3\n  5778: a1 = a1 << 0x20\n  5781: t1 = a1 | a2\n  5784: a1 = u8 [a0 + 0x19]\n  5787: a3 = u8 [a0 + 0x18]\n  5790: a4 = u8 [a0 + 0x1a]\n  5793: a5 = u8 [a0 + 0x1b]\n  5796: a1 = a1 << 0x8\n  5799: a1 = a1 | a3\n  5802: a4 = a4 << 0x10\n  5805: a5 = a5 << 0x18\n  5808: a4 = a4 | a5\n  5811: a1 = a1 | a4\n  5814: a3 = u8 [a0 + 0x1d]\n  5817: a4 = u8 [a0 + 0x1c]\n  5820: a5 = u8 [a0 + 0x1e]\n  5823: a2 = u8 [a0 + 0x1f]\n  5826: a3 = a3 << 0x8\n  5829: a3 = a3 | a4\n  5832: a5 = a5 << 0x10\n  5835: a2 = a2 << 0x18\n  5838: a2 = a2 | a5\n  5841: a2 = a2 | a3\n  5844: a2 = a2 << 0x20\n  5847: a3 = a2 | a1\n  5850: a1 = u8 [a0 + 0x9]\n  5853: a2 = u8 [a0 + 0x8]\n  5856: a4 = u8 [a0 + 0xa]\n  5859: a5 = u8 [a0 + 0xb]\n  5862: a1 = a1 << 0x8\n  5865: a1 = a1 | a2\n  5868: a4 = a4 << 0x10\n  5871: a5 = a5 << 0x18\n  5874: a4 = a4 | a5\n  5877: a1 = a1 | a4\n  5880: a2 = u8 [a0 + 0xd]\n  5883: a4 = u8 [a0 + 0xc]\n  5886: a5 = u8 [a0 + 0xe]\n  5889: a0 = u8 [a0 + 0xf]\n  5892: a2 = a2 << 0x8\n  5895: a2 = a2 | a4\n  5898: a5 = a5 << 0x10\n  5901: a0 = a0 << 0x18\n  5904: a0 = a0 | a5\n  5907: a0 = a0 | a2\n  5910: a0 = a0 << 0x20\n  5913: a0 = a0 | a1\n  5916: a1 = reverse a0\n  5918: a0 = reverse a3\n  5920: a2 = reverse t1\n  5922: a3 = reverse t0\n  5924: a2 = a2 | a3\n  5927: a3 = a0 | a1\n  5930: a3 = a3 | a2\n  5933: a3 = a3 >> 0x20\n  5936: a1 = a1 | a2\n  5939: a1 = a1 << 0x20\n  5942: a1 = a1 | a3\n  5945: jump @119 if a1 == 0\n      : @116 (gas: 1)\n  5948: trap\n      : @117 (gas: 3)\n  5949: a0 = 0\n  5951: a1 = 0\n  5953: ra = 98, jump @0\n      : @118 [@dyn 49] (gas: 7)\n  5958: i32 a1 = a0 + 0\n  5960: a0 = 0x1\n  5963: a2 = 0\n  5965: ecalli 13 // 'seal_return'\n  5967: i32 a0 = a0 + 0\n  5969: ra = 0x64\n  5972: jump @0\n      : @119 (gas: 2)\n  5975: i32 a0 = a0 + 0\n  5977: ra = 100, jump @0\n      : @120 [@dyn 50] (gas: 6)\n  5982: i32 a1 = a0 + 0\n  5984: a0 = 0\n  5986: a2 = 0\n  5988: ra = 0x66\n  5991: ecalli 13 // 'seal_return'\n  5993: fallthrough\n      : @121 [@dyn 51] (gas: 6)\n  5994: a1 = u8 [a1]\n  5996: u64 [a0 + 24] = 0\n  5999: u64 [a0 + 16] = 0\n  6002: u64 [a0 + 8] = 0\n  6005: u64 [a0] = a1\n  6007: ret\n      : @122 (gas: 8)\n  6009: a0 = u64 [sp + 0x30]\n  6012: a1 = u64 [sp + 0x38]\n  6015: a2 = u64 [sp + 0x28]\n  6018: a3 = u64 [sp + 0x20]\n  6021: a1 = a1 | a2\n  6024: a0 = a0 | a3\n  6027: a0 = a0 | a1\n  6030: jump @127 if a0 != 0\n      : @123 (gas: 2)\n  6034: a0 = i32 [0x20044]\n  6039: jump @127 if a0 <=u 3\n      : @124 (gas: 20)\n  6044: u64 [sp + 88] = 0\n  6047: u64 [sp + 80] = 0\n  6050: u64 [sp + 72] = 0\n  6053: u64 [sp + 64] = 0x2\n  6057: u64 [sp + 120] = 0\n  6060: u64 [sp + 112] = 0\n  6063: u64 [sp + 104] = 0\n  6066: u64 [sp + 96] = 0\n  6069: u32 [sp + 128] = 0x20\n  6074: i32 a1 = sp + 0x40\n  6077: i32 a3 = sp + 0x60\n  6080: i32 a4 = sp + 0x80\n  6084: a2 = 0xffffffffffffffff\n  6087: a0 = 0\n  6089: ecalli 8 // 'get_storage'\n  6091: a0 = u64 [sp + 0x70]\n  6094: u64 [sp + 0x18] = a0\n  6097: a0 = 0x40\n  6100: a1 = 0x20\n  6103: ra = 104, jump @0\n      : @125 [@dyn 52] (gas: 100)\n  6108: a1 = u8 [a0 + 0x11]\n  6111: a2 = u8 [a0 + 0x10]\n  6114: a3 = u8 [a0 + 0x12]\n  6117: a4 = u8 [a0 + 0x13]\n  6120: a1 = a1 << 0x8\n  6123: a1 = a1 | a2\n  6126: a3 = a3 << 0x10\n  6129: a4 = a4 << 0x18\n  6132: a3 = a3 | a4\n  6135: a1 = a1 | a3\n  6138: a2 = u8 [a0 + 0x15]\n  6141: a3 = u8 [a0 + 0x14]\n  6144: a4 = u8 [a0 + 0x16]\n  6147: a5 = u8 [a0 + 0x17]\n  6150: a2 = a2 << 0x8\n  6153: a2 = a2 | a3\n  6156: a4 = a4 << 0x10\n  6159: a5 = a5 << 0x18\n  6162: a4 = a4 | a5\n  6165: a2 = a2 | a4\n  6168: a2 = a2 << 0x20\n  6171: t0 = a2 | a1\n  6174: a2 = u8 [a0 + 0x1]\n  6177: a3 = u8 [a0]\n  6179: a4 = u8 [a0 + 0x2]\n  6182: a5 = u8 [a0 + 0x3]\n  6185: a2 = a2 << 0x8\n  6188: a2 = a2 | a3\n  6191: a4 = a4 << 0x10\n  6194: a5 = a5 << 0x18\n  6197: a4 = a4 | a5\n  6200: a2 = a2 | a4\n  6203: a3 = u8 [a0 + 0x5]\n  6206: a4 = u8 [a0 + 0x4]\n  6209: a5 = u8 [a0 + 0x6]\n  6212: s1 = u8 [a0 + 0x7]\n  6215: a3 = a3 << 0x8\n  6218: a3 = a3 | a4\n  6221: a5 = a5 << 0x10\n  6224: s1 = s1 << 0x18\n  6227: a5 = a5 | s1\n  6230: a3 = a3 | a5\n  6233: a3 = a3 << 0x20\n  6236: a2 = a2 | a3\n  6239: a3 = u8 [a0 + 0x19]\n  6242: a4 = u8 [a0 + 0x18]\n  6245: a5 = u8 [a0 + 0x1a]\n  6248: s1 = u8 [a0 + 0x1b]\n  6251: a3 = a3 << 0x8\n  6254: a3 = a3 | a4\n  6257: a5 = a5 << 0x10\n  6260: s1 = s1 << 0x18\n  6263: a5 = a5 | s1\n  6266: a3 = a3 | a5\n  6269: a4 = u8 [a0 + 0x1d]\n  6272: a5 = u8 [a0 + 0x1c]\n  6275: s1 = u8 [a0 + 0x1e]\n  6278: a1 = u8 [a0 + 0x1f]\n  6281: a4 = a4 << 0x8\n  6284: a4 = a4 | a5\n  6287: s1 = s1 << 0x10\n  6290: a1 = a1 << 0x18\n  6293: a1 = a1 | s1\n  6296: a1 = a1 | a4\n  6299: a1 = a1 << 0x20\n  6302: a3 = a3 | a1\n  6305: a1 = u8 [a0 + 0x9]\n  6308: a4 = u8 [a0 + 0x8]\n  6311: a5 = u8 [a0 + 0xa]\n  6314: s1 = u8 [a0 + 0xb]\n  6317: a1 = a1 << 0x8\n  6320: a1 = a1 | a4\n  6323: a5 = a5 << 0x10\n  6326: s1 = s1 << 0x18\n  6329: a5 = a5 | s1\n  6332: a1 = a1 | a5\n  6335: a4 = u8 [a0 + 0xd]\n  6338: a5 = u8 [a0 + 0xc]\n  6341: s1 = u8 [a0 + 0xe]\n  6344: a0 = u8 [a0 + 0xf]\n  6347: a4 = a4 << 0x8\n  6350: a4 = a4 | a5\n  6353: s1 = s1 << 0x10\n  6356: a0 = a0 << 0x18\n  6359: a0 = a0 | s1\n  6362: a0 = a0 | a4\n  6365: a0 = a0 << 0x20\n  6368: a0 = a0 | a1\n  6371: a1 = reverse a0\n  6373: a0 = reverse a3\n  6375: a2 = reverse a2\n  6377: a3 = reverse t0\n  6379: a2 = a2 | a3\n  6382: a3 = a0 | a1\n  6385: a3 = a3 | a2\n  6388: a3 = a3 >> 0x20\n  6391: a1 = a1 | a2\n  6394: a1 = a1 << 0x20\n  6397: a1 = a1 | a3\n  6400: jump @129 if a1 == 0\n      : @126 (gas: 1)\n  6403: trap\n      : @127 (gas: 3)\n  6404: a0 = 0\n  6406: a1 = 0\n  6408: ra = 106, jump @0\n      : @128 [@dyn 53] (gas: 5)\n  6413: i32 a1 = a0 + 0\n  6415: a0 = 0x1\n  6418: a2 = 0\n  6420: ecalli 13 // 'seal_return'\n  6422: fallthrough\n      : @129 (gas: 9)\n  6423: a1 = 0xff00000000\n  6433: a2 = u64 [sp + 0x18]\n  6436: a1 = a1 & a2\n  6439: a1 = a1 >u 0\n  6441: u64 [sp + 0x18] = a1\n  6444: i32 s1 = a0 + 0\n  6446: a1 = 0x20\n  6449: a0 = s1\n  6451: ra = 108, jump @0\n      : @130 [@dyn 54] (gas: 36)\n  6456: u8 [a0 + 30] = 0\n  6459: u8 [a0 + 29] = 0\n  6462: u8 [a0 + 28] = 0\n  6465: u8 [a0 + 27] = 0\n  6468: u8 [a0 + 26] = 0\n  6471: u8 [a0 + 25] = 0\n  6474: u8 [a0 + 24] = 0\n  6477: u8 [a0 + 23] = 0\n  6480: u8 [a0 + 22] = 0\n  6483: u8 [a0 + 21] = 0\n  6486: u8 [a0 + 20] = 0\n  6489: u8 [a0 + 19] = 0\n  6492: u8 [a0 + 18] = 0\n  6495: u8 [a0 + 17] = 0\n  6498: u8 [a0 + 16] = 0\n  6501: u8 [a0 + 15] = 0\n  6504: u8 [a0 + 14] = 0\n  6507: u8 [a0 + 13] = 0\n  6510: u8 [a0 + 12] = 0\n  6513: u8 [a0 + 11] = 0\n  6516: u8 [a0 + 10] = 0\n  6519: u8 [a0 + 9] = 0\n  6522: u8 [a0 + 8] = 0\n  6525: u8 [a0 + 7] = 0\n  6528: u8 [a0 + 6] = 0\n  6531: u8 [a0 + 5] = 0\n  6534: u8 [a0 + 4] = 0\n  6537: u8 [a0 + 3] = 0\n  6540: u8 [a0 + 2] = 0\n  6543: u8 [a0 + 1] = 0\n  6546: u8 [a0 + 0] = 0\n  6548: a1 = u64 [sp + 0x18]\n  6551: u8 [a0 + 0x1f] = a1\n  6554: a1 = 0x20\n  6557: a0 = s1\n  6559: ra = 110, jump @0\n      : @131 [@dyn 55] (gas: 6)\n  6564: i32 a1 = a0 + 0\n  6566: a2 = 0x20\n  6569: a0 = 0\n  6571: ra = 0x70\n  6574: ecalli 13 // 'seal_return'\n  6576: fallthrough\n      : @132 [@dyn 56] (gas: 33)\n  6577: sp = sp + 0xffffffffffffffa0\n  6580: u64 [sp + 0x58] = ra\n  6583: u64 [sp + 0x50] = s0\n  6586: u64 [sp + 0x48] = s1\n  6589: s0 = sp + 0x60\n  6592: sp = sp & 0xffffffffffffffe0\n  6595: s1 = a0\n  6597: u64 [sp + 24] = 0\n  6600: u64 [sp + 16] = 0\n  6603: u64 [sp + 8] = 0\n  6606: u64 [sp + 0] = 0x2\n  6609: u64 [sp + 56] = 0\n  6612: u64 [sp + 48] = 0\n  6615: u64 [sp + 40] = 0\n  6618: u64 [sp + 32] = 0\n  6621: u32 [sp + 64] = 0x20\n  6625: i32 a1 = sp + 0\n  6627: i32 a3 = sp + 0x20\n  6630: i32 a4 = sp + 0x40\n  6633: a2 = 0xffffffffffffffff\n  6636: a0 = 0\n  6638: ecalli 8 // 'get_storage'\n  6640: a0 = u8 [sp + 0x35]\n  6643: u64 [s1 + 24] = 0\n  6646: u64 [s1 + 16] = 0\n  6649: u64 [s1 + 8] = 0\n  6652: u64 [s1] = a0\n  6654: sp = s0 + 0xffffffffffffffa0\n  6657: ra = u64 [sp + 0x58]\n  6660: s0 = u64 [sp + 0x50]\n  6663: s1 = u64 [sp + 0x48]\n  6666: sp = sp + 0x60\n  6669: ret\n      : @133 (gas: 8)\n  6671: a0 = u64 [sp + 0x30]\n  6674: a1 = u64 [sp + 0x38]\n  6677: a2 = u64 [sp + 0x28]\n  6680: a3 = u64 [sp + 0x20]\n  6683: a1 = a1 | a2\n  6686: a0 = a0 | a3\n  6689: a0 = a0 | a1\n  6692: jump @138 if a0 != 0\n      : @134 (gas: 2)\n  6696: a0 = i32 [0x20044]\n  6701: jump @138 if a0 <=u 3\n      : @135 (gas: 20)\n  6706: u64 [sp + 88] = 0\n  6709: u64 [sp + 80] = 0\n  6712: u64 [sp + 72] = 0\n  6715: u64 [sp + 64] = 0x2\n  6719: u64 [sp + 120] = 0\n  6722: u64 [sp + 112] = 0\n  6725: u64 [sp + 104] = 0\n  6728: u64 [sp + 96] = 0\n  6731: u32 [sp + 128] = 0x20\n  6736: i32 a1 = sp + 0x40\n  6739: i32 a3 = sp + 0x60\n  6742: i32 a4 = sp + 0x80\n  6746: a2 = 0xffffffffffffffff\n  6749: a0 = 0\n  6751: ecalli 8 // 'get_storage'\n  6753: a0 = u64 [sp + 0x70]\n  6756: u64 [sp + 0x18] = a0\n  6759: a0 = 0x40\n  6762: a1 = 0x20\n  6765: ra = 114, jump @0\n      : @136 [@dyn 57] (gas: 100)\n  6770: a1 = u8 [a0 + 0x11]\n  6773: a2 = u8 [a0 + 0x10]\n  6776: a3 = u8 [a0 + 0x12]\n  6779: a4 = u8 [a0 + 0x13]\n  6782: a1 = a1 << 0x8\n  6785: a1 = a1 | a2\n  6788: a3 = a3 << 0x10\n  6791: a4 = a4 << 0x18\n  6794: a3 = a3 | a4\n  6797: a1 = a1 | a3\n  6800: a2 = u8 [a0 + 0x15]\n  6803: a3 = u8 [a0 + 0x14]\n  6806: a4 = u8 [a0 + 0x16]\n  6809: a5 = u8 [a0 + 0x17]\n  6812: a2 = a2 << 0x8\n  6815: a2 = a2 | a3\n  6818: a4 = a4 << 0x10\n  6821: a5 = a5 << 0x18\n  6824: a4 = a4 | a5\n  6827: a2 = a2 | a4\n  6830: a2 = a2 << 0x20\n  6833: t0 = a2 | a1\n  6836: a2 = u8 [a0 + 0x1]\n  6839: a3 = u8 [a0]\n  6841: a4 = u8 [a0 + 0x2]\n  6844: a5 = u8 [a0 + 0x3]\n  6847: a2 = a2 << 0x8\n  6850: a2 = a2 | a3\n  6853: a4 = a4 << 0x10\n  6856: a5 = a5 << 0x18\n  6859: a4 = a4 | a5\n  6862: a2 = a2 | a4\n  6865: a3 = u8 [a0 + 0x5]\n  6868: a4 = u8 [a0 + 0x4]\n  6871: a5 = u8 [a0 + 0x6]\n  6874: s1 = u8 [a0 + 0x7]\n  6877: a3 = a3 << 0x8\n  6880: a3 = a3 | a4\n  6883: a5 = a5 << 0x10\n  6886: s1 = s1 << 0x18\n  6889: a5 = a5 | s1\n  6892: a3 = a3 | a5\n  6895: a3 = a3 << 0x20\n  6898: a2 = a2 | a3\n  6901: a3 = u8 [a0 + 0x19]\n  6904: a4 = u8 [a0 + 0x18]\n  6907: a5 = u8 [a0 + 0x1a]\n  6910: s1 = u8 [a0 + 0x1b]\n  6913: a3 = a3 << 0x8\n  6916: a3 = a3 | a4\n  6919: a5 = a5 << 0x10\n  6922: s1 = s1 << 0x18\n  6925: a5 = a5 | s1\n  6928: a3 = a3 | a5\n  6931: a4 = u8 [a0 + 0x1d]\n  6934: a5 = u8 [a0 + 0x1c]\n  6937: s1 = u8 [a0 + 0x1e]\n  6940: a1 = u8 [a0 + 0x1f]\n  6943: a4 = a4 << 0x8\n  6946: a4 = a4 | a5\n  6949: s1 = s1 << 0x10\n  6952: a1 = a1 << 0x18\n  6955: a1 = a1 | s1\n  6958: a1 = a1 | a4\n  6961: a1 = a1 << 0x20\n  6964: a3 = a3 | a1\n  6967: a1 = u8 [a0 + 0x9]\n  6970: a4 = u8 [a0 + 0x8]\n  6973: a5 = u8 [a0 + 0xa]\n  6976: s1 = u8 [a0 + 0xb]\n  6979: a1 = a1 << 0x8\n  6982: a1 = a1 | a4\n  6985: a5 = a5 << 0x10\n  6988: s1 = s1 << 0x18\n  6991: a5 = a5 | s1\n  6994: a1 = a1 | a5\n  6997: a4 = u8 [a0 + 0xd]\n  7000: a5 = u8 [a0 + 0xc]\n  7003: s1 = u8 [a0 + 0xe]\n  7006: a0 = u8 [a0 + 0xf]\n  7009: a4 = a4 << 0x8\n  7012: a4 = a4 | a5\n  7015: s1 = s1 << 0x10\n  7018: a0 = a0 << 0x18\n  7021: a0 = a0 | s1\n  7024: a0 = a0 | a4\n  7027: a0 = a0 << 0x20\n  7030: a0 = a0 | a1\n  7033: a1 = reverse a0\n  7035: a0 = reverse a3\n  7037: a2 = reverse a2\n  7039: a3 = reverse t0\n  7041: a2 = a2 | a3\n  7044: a3 = a0 | a1\n  7047: a3 = a3 | a2\n  7050: a3 = a3 >> 0x20\n  7053: a1 = a1 | a2\n  7056: a1 = a1 << 0x20\n  7059: a1 = a1 | a3\n  7062: jump @140 if a1 == 0\n      : @137 (gas: 1)\n  7065: trap\n      : @138 (gas: 3)\n  7066: a0 = 0\n  7068: a1 = 0\n  7070: ra = 116, jump @0\n      : @139 [@dyn 58] (gas: 5)\n  7075: i32 a1 = a0 + 0\n  7077: a0 = 0x1\n  7080: a2 = 0\n  7082: ecalli 13 // 'seal_return'\n  7084: fallthrough\n      : @140 (gas: 9)\n  7085: a1 = 0xff0000000000\n  7095: a2 = u64 [sp + 0x18]\n  7098: a1 = a1 & a2\n  7101: a1 = a1 >u 0\n  7103: u64 [sp + 0x18] = a1\n  7106: i32 s1 = a0 + 0\n  7108: a1 = 0x20\n  7111: a0 = s1\n  7113: ra = 118, jump @0\n      : @141 [@dyn 59] (gas: 36)\n  7118: u8 [a0 + 30] = 0\n  7121: u8 [a0 + 29] = 0\n  7124: u8 [a0 + 28] = 0\n  7127: u8 [a0 + 27] = 0\n  7130: u8 [a0 + 26] = 0\n  7133: u8 [a0 + 25] = 0\n  7136: u8 [a0 + 24] = 0\n  7139: u8 [a0 + 23] = 0\n  7142: u8 [a0 + 22] = 0\n  7145: u8 [a0 + 21] = 0\n  7148: u8 [a0 + 20] = 0\n  7151: u8 [a0 + 19] = 0\n  7154: u8 [a0 + 18] = 0\n  7157: u8 [a0 + 17] = 0\n  7160: u8 [a0 + 16] = 0\n  7163: u8 [a0 + 15] = 0\n  7166: u8 [a0 + 14] = 0\n  7169: u8 [a0 + 13] = 0\n  7172: u8 [a0 + 12] = 0\n  7175: u8 [a0 + 11] = 0\n  7178: u8 [a0 + 10] = 0\n  7181: u8 [a0 + 9] = 0\n  7184: u8 [a0 + 8] = 0\n  7187: u8 [a0 + 7] = 0\n  7190: u8 [a0 + 6] = 0\n  7193: u8 [a0 + 5] = 0\n  7196: u8 [a0 + 4] = 0\n  7199: u8 [a0 + 3] = 0\n  7202: u8 [a0 + 2] = 0\n  7205: u8 [a0 + 1] = 0\n  7208: u8 [a0 + 0] = 0\n  7210: a1 = u64 [sp + 0x18]\n  7213: u8 [a0 + 0x1f] = a1\n  7216: a1 = 0x20\n  7219: a0 = s1\n  7221: ra = 120, jump @0\n      : @142 [@dyn 60] (gas: 6)\n  7226: i32 a1 = a0 + 0\n  7228: a2 = 0x20\n  7231: a0 = 0\n  7233: ra = 0x7a\n  7236: ecalli 13 // 'seal_return'\n  7238: fallthrough\n      : @143 [@dyn 61] (gas: 9)\n  7239: a2 = u64 [a1 + 0x18]\n  7242: a3 = u64 [a1 + 0x10]\n  7245: a4 = u64 [a1 + 0x8]\n  7248: a1 = u64 [a1]\n  7250: u64 [a0 + 0x18] = a2\n  7253: u64 [a0 + 0x10] = a3\n  7256: u64 [a0 + 0x8] = a4\n  7259: u64 [a0] = a1\n  7261: ret\n      : @144 (gas: 17)\n  7263: sp = sp + 0xffffffffffffffa0\n  7266: u64 [sp + 0x58] = ra\n  7269: u64 [sp + 0x50] = s0\n  7272: u64 [sp + 0x48] = s1\n  7275: a3 = u64 [a1 + 0x18]\n  7278: a4 = u64 [a1 + 0x10]\n  7281: a5 = u64 [a1 + 0x8]\n  7284: s1 = u64 [a1]\n  7286: a1 = a5 | a3\n  7289: a2 = s1 | a4\n  7292: a2 = a2 | a1\n  7295: a2 = a2 >> 0x20\n  7298: a1 = a1 | a4\n  7301: a1 = a1 << 0x20\n  7304: a1 = a1 | a2\n  7307: u64 [sp + 0x28] = a0\n  7310: jump @151 if a1 != 0\n      : @145 (gas: 19)\n  7314: a0 = s1 + 0x20\n  7317: u64 [sp + 0x30] = a0\n  7320: a0 = a0 <u s1\n  7323: a1 = a5 + a0\n  7326: u64 [sp + 0x40] = a1\n  7329: u64 [sp + 0x8] = a5\n  7332: s0 = a1 <u a5\n  7335: s0 = a0 if a0 == 0\n  7338: s0 = s0 + a4\n  7341: u64 [sp + 0x10] = a4\n  7344: a0 = s0 <u a4\n  7347: u64 [sp + 0x18] = a3\n  7350: a0 = a0 + a3\n  7353: u64 [sp + 0x38] = a0\n  7356: u64 [sp] = s1\n  7358: i32 a0 = s1 + 0\n  7360: a1 = 0x20\n  7363: s1 = 0x20\n  7366: ra = 124, jump @0\n      : @146 [@dyn 62] (gas: 45)\n  7371: u8 [a0 + 0x1f] = s1\n  7374: a1 = u64 [sp + 0x30]\n  7377: s1 = a1\n  7379: a1 = a1 | s0\n  7382: a2 = u64 [sp + 0x40]\n  7385: a4 = u64 [sp + 0x38]\n  7388: a2 = a2 | a4\n  7391: a1 = a1 | a2\n  7394: a1 = a1 >> 0x20\n  7397: u64 [sp + 0x20] = s0\n  7400: a2 = a2 | s0\n  7403: a2 = a2 << 0x20\n  7406: a1 = a1 | a2\n  7409: u8 [a0 + 30] = 0\n  7412: u8 [a0 + 29] = 0\n  7415: u8 [a0 + 28] = 0\n  7418: u8 [a0 + 27] = 0\n  7421: u8 [a0 + 26] = 0\n  7424: u8 [a0 + 25] = 0\n  7427: u8 [a0 + 24] = 0\n  7430: u8 [a0 + 23] = 0\n  7433: u8 [a0 + 22] = 0\n  7436: u8 [a0 + 21] = 0\n  7439: u8 [a0 + 20] = 0\n  7442: u8 [a0 + 19] = 0\n  7445: u8 [a0 + 18] = 0\n  7448: u8 [a0 + 17] = 0\n  7451: u8 [a0 + 16] = 0\n  7454: u8 [a0 + 15] = 0\n  7457: u8 [a0 + 14] = 0\n  7460: u8 [a0 + 13] = 0\n  7463: u8 [a0 + 12] = 0\n  7466: u8 [a0 + 11] = 0\n  7469: u8 [a0 + 10] = 0\n  7472: u8 [a0 + 9] = 0\n  7475: u8 [a0 + 8] = 0\n  7478: u8 [a0 + 7] = 0\n  7481: u8 [a0 + 6] = 0\n  7484: u8 [a0 + 5] = 0\n  7487: u8 [a0 + 4] = 0\n  7490: u8 [a0 + 3] = 0\n  7493: u8 [a0 + 2] = 0\n  7496: u8 [a0 + 1] = 0\n  7499: u8 [a0 + 0] = 0\n  7501: jump @151 if a1 != 0\n      : @147 (gas: 4)\n  7505: i32 s0 = s1 + 0\n  7507: a1 = 0x20\n  7510: a0 = s0\n  7512: ra = 126, jump @0\n      : @148 [@dyn 63] (gas: 41)\n  7517: u8 [a0 + 31] = 0xd\n  7521: u8 [a0 + 30] = 0\n  7524: u8 [a0 + 29] = 0\n  7527: u8 [a0 + 28] = 0\n  7530: u8 [a0 + 27] = 0\n  7533: u8 [a0 + 26] = 0\n  7536: u8 [a0 + 25] = 0\n  7539: u8 [a0 + 24] = 0\n  7542: u8 [a0 + 23] = 0\n  7545: u8 [a0 + 22] = 0\n  7548: u8 [a0 + 21] = 0\n  7551: u8 [a0 + 20] = 0\n  7554: u8 [a0 + 19] = 0\n  7557: u8 [a0 + 18] = 0\n  7560: u8 [a0 + 17] = 0\n  7563: u8 [a0 + 16] = 0\n  7566: u8 [a0 + 15] = 0\n  7569: u8 [a0 + 14] = 0\n  7572: u8 [a0 + 13] = 0\n  7575: u8 [a0 + 12] = 0\n  7578: u8 [a0 + 11] = 0\n  7581: u8 [a0 + 10] = 0\n  7584: u8 [a0 + 9] = 0\n  7587: u8 [a0 + 8] = 0\n  7590: u8 [a0 + 7] = 0\n  7593: u8 [a0 + 6] = 0\n  7596: u8 [a0 + 5] = 0\n  7599: u8 [a0 + 4] = 0\n  7602: u8 [a0 + 3] = 0\n  7605: u8 [a0 + 2] = 0\n  7608: u8 [a0 + 1] = 0\n  7611: a1 = u64 [sp + 0x20]\n  7614: a2 = u64 [sp + 0x38]\n  7617: a1 = a1 | a2\n  7620: a2 = 0xffffffe0\n  7630: a2 = s1 <u a2\n  7633: a3 = u64 [sp + 0x40]\n  7636: a2 = 0 if a3 != 0\n  7638: a2 = 0 if a1 != 0\n  7640: u8 [a0 + 0] = 0\n  7642: jump @151 if a2 == 0\n      : @149 (gas: 3)\n  7646: i32 a0 = s0 + 0x20\n  7649: a1 = 0x20\n  7652: ra = 128, jump @0\n      : @150 [@dyn 64] (gas: 54)\n  7658: u8 [a0 + 31] = 0\n  7661: u8 [a0 + 30] = 0\n  7664: u8 [a0 + 29] = 0\n  7667: u8 [a0 + 28] = 0\n  7670: u8 [a0 + 27] = 0\n  7673: u8 [a0 + 26] = 0\n  7676: u8 [a0 + 25] = 0\n  7679: u8 [a0 + 24] = 0\n  7682: u8 [a0 + 23] = 0\n  7685: u8 [a0 + 22] = 0\n  7688: u8 [a0 + 21] = 0\n  7691: u8 [a0 + 20] = 0\n  7694: u8 [a0 + 19] = 0\n  7697: u8 [a0 + 18] = 0\n  7700: u8 [a0 + 17] = 0\n  7703: u8 [a0 + 16] = 0\n  7706: u8 [a0 + 15] = 0\n  7709: u8 [a0 + 14] = 0\n  7712: u8 [a0 + 13] = 0\n  7715: u8 [a0 + 12] = 0x72\n  7719: u8 [a0 + 11] = 0x65\n  7723: u8 [a0 + 10] = 0x6e\n  7727: u8 [a0 + 9] = 0x77\n  7731: u8 [a0 + 8] = 0x6f\n  7735: u8 [a0 + 7] = 0x20\n  7739: u8 [a0 + 6] = 0x65\n  7743: u8 [a0 + 5] = 0x68\n  7747: u8 [a0 + 4] = 0x74\n  7751: u8 [a0 + 3] = 0x20\n  7755: u8 [a0 + 2] = 0x74\n  7759: u8 [a0 + 1] = 0x6f\n  7763: u8 [a0 + 0] = 0x4e\n  7766: a1 = u64 [sp]\n  7768: a0 = a1 + 0x60\n  7771: a1 = a0 <u a1\n  7774: a3 = u64 [sp + 0x8]\n  7777: a2 = a3 + a1\n  7780: a3 = a2 <u a3\n  7783: a3 = a1 if a1 == 0\n  7786: a1 = u64 [sp + 0x10]\n  7789: a3 = a3 + a1\n  7792: a1 = a3 <u a1\n  7795: a4 = u64 [sp + 0x18]\n  7798: a1 = a1 + a4\n  7801: a4 = u64 [sp + 0x28]\n  7804: u64 [a4] = a0\n  7806: u64 [a4 + 0x8] = a2\n  7809: u64 [a4 + 0x10] = a3\n  7812: u64 [a4 + 0x18] = a1\n  7815: ra = u64 [sp + 0x58]\n  7818: s0 = u64 [sp + 0x50]\n  7821: s1 = u64 [sp + 0x48]\n  7824: sp = sp + 0x60\n  7827: ret\n      : @151 (gas: 1)\n  7829: trap\n      : @152 (gas: 55)\n  7830: sp = sp + 0xfffffffffffffea0\n  7834: u64 [sp + 0x158] = ra\n  7838: u64 [sp + 0x150] = s0\n  7842: u64 [sp + 0x148] = s1\n  7846: s0 = sp + 0x160\n  7850: sp = sp & 0xffffffffffffffe0\n  7853: a2 = u64 [a1 + 0x18]\n  7856: u64 [sp + 0x40] = a2\n  7859: a2 = u64 [a1 + 0x10]\n  7862: u64 [sp + 0x38] = a2\n  7865: a2 = u64 [a1 + 0x8]\n  7868: u64 [sp + 0x28] = a2\n  7871: a1 = u64 [a1]\n  7873: u64 [sp + 0x18] = a1\n  7876: a1 = u64 [a0 + 0x18]\n  7879: u64 [sp + 0x48] = a1\n  7882: a1 = u64 [a0 + 0x10]\n  7885: u64 [sp + 0x30] = a1\n  7888: a1 = u64 [a0 + 0x8]\n  7891: u64 [sp + 0x20] = a1\n  7894: a0 = u64 [a0]\n  7896: u64 [sp + 0x10] = a0\n  7899: i32 a0 = sp + 0xe0\n  7903: ecalli 6 // 'caller'\n  7905: a0 = u64 [sp + 0xe8]\n  7909: a1 = u64 [sp + 0xe0]\n  7913: a2 = i32 [sp + 0xf0]\n  7917: a0 = reverse a0\n  7919: a3 = a0 >> 0x20\n  7922: s1 = reverse a1\n  7924: a1 = s1 << 0x20\n  7927: a1 = a1 | a3\n  7930: u64 [sp + 0x58] = a1\n  7933: a0 = a0 << 0x20\n  7936: a1 = reverse a2\n  7938: a1 = a1 >> 0x20\n  7941: a0 = a0 | a1\n  7944: u64 [sp + 0x50] = a0\n  7947: s1 = s1 >> 0x20\n  7950: u64 [sp + 280] = 0\n  7954: u64 [sp + 272] = 0\n  7958: u64 [sp + 264] = 0\n  7962: u64 [sp + 256] = 0x2\n  7967: u64 [sp + 312] = 0\n  7971: u64 [sp + 304] = 0\n  7975: u64 [sp + 296] = 0\n  7979: u64 [sp + 288] = 0\n  7983: u32 [sp + 320] = 0x20\n  7988: i32 a1 = sp + 0x100\n  7992: i32 a3 = sp + 0x120\n  7996: i32 a4 = sp + 0x140\n  8000: a2 = 0xffffffffffffffff\n  8003: a0 = 0\n  8005: ecalli 8 // 'get_storage'\n  8007: fallthrough\n      : @153 (gas: 11)\n  8008: a0 = u32 [sp + 0x130]\n  8012: a1 = u64 [sp + 0x120]\n  8016: a2 = u64 [sp + 0x128]\n  8020: a0 = a0 ^ s1\n  8023: a3 = u64 [sp + 0x50]\n  8026: a1 = a1 ^ a3\n  8029: a0 = a0 | a1\n  8032: a1 = u64 [sp + 0x58]\n  8035: a1 = a1 ^ a2\n  8038: a0 = a0 | a1\n  8041: jump @156 if a0 != 0\n      : @154 (gas: 66)\n  8045: a0 = u64 [sp + 0x18]\n  8048: u64 [sp + 0x60] = a0\n  8051: a0 = u64 [sp + 0x10]\n  8054: u64 [sp + 0x80] = a0\n  8058: a0 = u64 [sp + 0x28]\n  8061: u64 [sp + 0x68] = a0\n  8064: a0 = u64 [sp + 0x20]\n  8067: u64 [sp + 0x88] = a0\n  8071: a0 = u64 [sp + 0x38]\n  8074: u64 [sp + 0x70] = a0\n  8077: a0 = u64 [sp + 0x30]\n  8080: u64 [sp + 0x90] = a0\n  8084: a0 = u64 [sp + 0x40]\n  8087: u64 [sp + 0x78] = a0\n  8090: a0 = sp + 0x80\n  8094: a1 = sp + 0x60\n  8097: a2 = u64 [sp + 0x48]\n  8100: u64 [sp + 0x98] = a2\n  8104: ra = 0x82\n  8108: sp = sp + 0xfffffffffffffbe0\n  8112: u64 [sp + 0x418] = ra\n  8116: u64 [sp + 0x410] = s0\n  8120: u64 [sp + 0x408] = s1\n  8124: s0 = sp + 0x420\n  8128: sp = sp & 0xffffffffffffffe0\n  8131: s1 = sp\n  8133: a2 = u64 [a1 + 0x18]\n  8136: u64 [s1 + 0x40] = a2\n  8139: a2 = u64 [a1 + 0x10]\n  8142: u64 [s1 + 0x30] = a2\n  8145: a2 = u64 [a1 + 0x8]\n  8148: u64 [s1 + 0x38] = a2\n  8151: a1 = u64 [a1]\n  8153: u64 [s1 + 0x28] = a1\n  8156: a1 = u64 [a0 + 0x10]\n  8159: u64 [s1 + 0x50] = a1\n  8162: a1 = u64 [a0 + 0x8]\n  8165: u64 [s1 + 0x48] = a1\n  8168: a0 = u64 [a0]\n  8170: u64 [s1 + 0x58] = a0\n  8173: i32 a0 = s1 + 0x200\n  8177: ecalli 9 // 'now'\n  8179: a0 = u64 [s1 + 0x200]\n  8183: u64 [s1 + 0x78] = a0\n  8186: a0 = u64 [s1 + 0x208]\n  8190: u64 [s1 + 0x70] = a0\n  8193: a0 = u64 [s1 + 0x210]\n  8197: u64 [s1 + 0x68] = a0\n  8200: a0 = u64 [s1 + 0x218]\n  8204: u64 [s1 + 0x60] = a0\n  8207: u64 [s1 + 920] = 0\n  8211: u64 [s1 + 912] = 0\n  8215: u64 [s1 + 904] = 0\n  8219: u64 [s1 + 896] = 0\n  8223: u64 [s1 + 984] = 0\n  8227: u64 [s1 + 976] = 0\n  8231: u64 [s1 + 968] = 0\n  8235: u64 [s1 + 960] = 0\n  8239: u32 [s1 + 928] = 0x20\n  8244: i32 a1 = s1 + 0x380\n  8248: i32 a3 = s1 + 0x3c0\n  8252: i32 a4 = s1 + 0x3a0\n  8256: a2 = 0xffffffffffffffff\n  8259: a0 = 0\n  8261: ecalli 8 // 'get_storage'\n  8263: jump @226\n      : @155 [@dyn 65] (gas: 6)\n  8266: sp = s0 + 0xfffffffffffffea0\n  8270: ra = u64 [sp + 0x158]\n  8274: s0 = u64 [sp + 0x150]\n  8278: s1 = u64 [sp + 0x148]\n  8282: sp = sp + 0x160\n  8286: ret\n      : @156 (gas: 3)\n  8288: a0 = 0x40\n  8291: a1 = 0x20\n  8294: ra = 132, jump @0\n      : @157 [@dyn 66] (gas: 103)\n  8300: a1 = u8 [a0 + 0x11]\n  8303: a2 = u8 [a0 + 0x10]\n  8306: a3 = u8 [a0 + 0x12]\n  8309: a4 = u8 [a0 + 0x13]\n  8312: a1 = a1 << 0x8\n  8315: a1 = a1 | a2\n  8318: a3 = a3 << 0x10\n  8321: a4 = a4 << 0x18\n  8324: a3 = a3 | a4\n  8327: a1 = a1 | a3\n  8330: a2 = u8 [a0 + 0x15]\n  8333: a3 = u8 [a0 + 0x14]\n  8336: a4 = u8 [a0 + 0x16]\n  8339: a5 = u8 [a0 + 0x17]\n  8342: a2 = a2 << 0x8\n  8345: a2 = a2 | a3\n  8348: a4 = a4 << 0x10\n  8351: a5 = a5 << 0x18\n  8354: a4 = a4 | a5\n  8357: a2 = a2 | a4\n  8360: a2 = a2 << 0x20\n  8363: t0 = a2 | a1\n  8366: a2 = u8 [a0 + 0x1]\n  8369: a3 = u8 [a0]\n  8371: a4 = u8 [a0 + 0x2]\n  8374: a5 = u8 [a0 + 0x3]\n  8377: a2 = a2 << 0x8\n  8380: a2 = a2 | a3\n  8383: a4 = a4 << 0x10\n  8386: a5 = a5 << 0x18\n  8389: a4 = a4 | a5\n  8392: a2 = a2 | a4\n  8395: a3 = u8 [a0 + 0x5]\n  8398: a4 = u8 [a0 + 0x4]\n  8401: a5 = u8 [a0 + 0x6]\n  8404: s1 = u8 [a0 + 0x7]\n  8407: a3 = a3 << 0x8\n  8410: a3 = a3 | a4\n  8413: a5 = a5 << 0x10\n  8416: s1 = s1 << 0x18\n  8419: a5 = a5 | s1\n  8422: a3 = a3 | a5\n  8425: a3 = a3 << 0x20\n  8428: a2 = a2 | a3\n  8431: a3 = u8 [a0 + 0x19]\n  8434: a4 = u8 [a0 + 0x18]\n  8437: a5 = u8 [a0 + 0x1a]\n  8440: s1 = u8 [a0 + 0x1b]\n  8443: a3 = a3 << 0x8\n  8446: a3 = a3 | a4\n  8449: a5 = a5 << 0x10\n  8452: s1 = s1 << 0x18\n  8455: a5 = a5 | s1\n  8458: a3 = a3 | a5\n  8461: a4 = u8 [a0 + 0x1d]\n  8464: a5 = u8 [a0 + 0x1c]\n  8467: s1 = u8 [a0 + 0x1e]\n  8470: a1 = u8 [a0 + 0x1f]\n  8473: a4 = a4 << 0x8\n  8476: a4 = a4 | a5\n  8479: s1 = s1 << 0x10\n  8482: a1 = a1 << 0x18\n  8485: a1 = a1 | s1\n  8488: a1 = a1 | a4\n  8491: a1 = a1 << 0x20\n  8494: a3 = a3 | a1\n  8497: a1 = u8 [a0 + 0x9]\n  8500: a4 = u8 [a0 + 0x8]\n  8503: a5 = u8 [a0 + 0xa]\n  8506: s1 = u8 [a0 + 0xb]\n  8509: a1 = a1 << 0x8\n  8512: a1 = a1 | a4\n  8515: a5 = a5 << 0x10\n  8518: s1 = s1 << 0x18\n  8521: a5 = a5 | s1\n  8524: a1 = a1 | a5\n  8527: a4 = u8 [a0 + 0xd]\n  8530: a5 = u8 [a0 + 0xc]\n  8533: s1 = u8 [a0 + 0xe]\n  8536: a0 = u8 [a0 + 0xf]\n  8539: a4 = a4 << 0x8\n  8542: a4 = a4 | a5\n  8545: s1 = s1 << 0x10\n  8548: a0 = a0 << 0x18\n  8551: a0 = a0 | s1\n  8554: a0 = a0 | a4\n  8557: a0 = a0 << 0x20\n  8560: a0 = a0 | a1\n  8563: s1 = reverse a0\n  8565: a1 = reverse a3\n  8567: a2 = reverse a2\n  8569: a0 = reverse t0\n  8571: u64 [sp + 0x58] = a0\n  8574: u64 [sp + 0x50] = a2\n  8577: a0 = a0 | a2\n  8580: a2 = a1\n  8582: a1 = a1 | s1\n  8585: a1 = a1 | a0\n  8588: a1 = a1 >> 0x20\n  8591: a0 = a0 | s1\n  8594: a0 = a0 << 0x20\n  8597: a0 = a0 | a1\n  8600: jump @161 if a0 != 0\n      : @158 (gas: 5)\n  8604: u64 [sp + 0x48] = a2\n  8607: i32 a0 = a2 + 0\n  8609: a1 = 0x20\n  8612: u64 [sp + 0x40] = a0\n  8615: ra = 134, jump @0\n      : @159 [@dyn 67] (gas: 50)\n  8621: u8 [a0 + 31] = 0\n  8624: u8 [a0 + 30] = 0\n  8627: u8 [a0 + 29] = 0\n  8630: u8 [a0 + 28] = 0\n  8633: u8 [a0 + 27] = 0\n  8636: u8 [a0 + 26] = 0\n  8639: u8 [a0 + 25] = 0\n  8642: u8 [a0 + 24] = 0\n  8645: u8 [a0 + 23] = 0\n  8648: u8 [a0 + 22] = 0\n  8651: u8 [a0 + 21] = 0\n  8654: u8 [a0 + 20] = 0\n  8657: u8 [a0 + 19] = 0\n  8660: u8 [a0 + 18] = 0\n  8663: u8 [a0 + 17] = 0\n  8666: u8 [a0 + 16] = 0\n  8669: u8 [a0 + 15] = 0\n  8672: u8 [a0 + 14] = 0\n  8675: u8 [a0 + 13] = 0\n  8678: u8 [a0 + 12] = 0\n  8681: u8 [a0 + 11] = 0\n  8684: u8 [a0 + 10] = 0\n  8687: u8 [a0 + 9] = 0\n  8690: u8 [a0 + 8] = 0\n  8693: u8 [a0 + 7] = 0\n  8696: u8 [a0 + 6] = 0\n  8699: u8 [a0 + 5] = 0\n  8702: u8 [a0 + 4] = 0\n  8705: u8 [a0 + 3] = 0xa0\n  8710: u8 [a0 + 2] = 0x79\n  8714: u8 [a0 + 1] = 0xc3\n  8719: u8 [a0 + 0] = 0x8\n  8722: a1 = u64 [sp + 0x48]\n  8725: a0 = a1 + 0x4\n  8728: a1 = a0 <u a1\n  8731: a3 = u64 [sp + 0x58]\n  8734: a2 = a3 + a1\n  8737: a3 = a2 <u a3\n  8740: a3 = a1 if a1 == 0\n  8743: a3 = a3 + s1\n  8746: a1 = a3 <u s1\n  8749: a4 = u64 [sp + 0x50]\n  8752: a4 = a4 + a1\n  8755: u64 [sp + 0xa8] = a2\n  8759: u64 [sp + 0xa0] = a0\n  8763: u64 [sp + 0xb0] = a3\n  8767: a0 = sp + 0xc0\n  8771: a1 = sp + 0xa0\n  8775: u64 [sp + 0xb8] = a4\n  8779: ra = 136, jump @144\n      : @160 [@dyn 68] (gas: 30)\n  8785: a0 = u64 [sp + 0xc8]\n  8789: t0 = u64 [sp + 0xd8]\n  8793: t1 = u64 [sp + 0xc0]\n  8797: a3 = u64 [sp + 0xd0]\n  8801: a1 = u64 [sp + 0x58]\n  8804: a4 = a0 ^ a1\n  8807: a5 = a0 <u a1\n  8810: t2 = a1\n  8812: a2 = u64 [sp + 0x48]\n  8815: a1 = t1 <u a2\n  8818: a5 = a1 if a4 == 0\n  8821: a4 = a3 - s1\n  8824: a3 = a3 <u s1\n  8827: s1 = u64 [sp + 0x50]\n  8830: s1 = t0 - s1\n  8833: s1 = s1 - a3\n  8836: a3 = a4 <u a5\n  8839: s1 = s1 - a3\n  8842: a4 = a4 - a5\n  8845: a0 = a0 - t2\n  8848: a1 = a0 - a1\n  8851: a0 = t1 - a2\n  8854: a1 = a1 | s1\n  8857: a2 = a0 | a4\n  8860: a2 = a2 | a1\n  8863: a1 = a1 | a4\n  8866: a2 = a2 >> 0x20\n  8869: a1 = a1 << 0x20\n  8872: a1 = a1 | a2\n  8875: jump @162 if a1 == 0\n      : @161 (gas: 1)\n  8878: trap\n      : @162 (gas: 4)\n  8879: i32 s1 = a0 + 0\n  8881: a0 = u64 [sp + 0x40]\n  8884: a1 = s1\n  8886: ra = 138, jump @0\n      : @163 [@dyn 69] (gas: 6)\n  8892: i32 a1 = a0 + 0\n  8894: a0 = 0x1\n  8897: a2 = s1\n  8899: ra = 0x8c\n  8903: ecalli 13 // 'seal_return'\n  8905: fallthrough\n      : @164 [@dyn 70] (gas: 9)\n  8906: a2 = u64 [a1 + 0x18]\n  8909: a3 = u64 [a1 + 0x10]\n  8912: a4 = u64 [a1 + 0x8]\n  8915: a1 = u64 [a1]\n  8917: u64 [a0 + 0x18] = a2\n  8920: u64 [a0 + 0x10] = a3\n  8923: u64 [a0 + 0x8] = a4\n  8926: u64 [a0] = a1\n  8928: ret\n      : @165 (gas: 17)\n  8930: sp = sp + 0xffffffffffffffa0\n  8933: u64 [sp + 0x58] = ra\n  8936: u64 [sp + 0x50] = s0\n  8939: u64 [sp + 0x48] = s1\n  8942: a3 = u64 [a1 + 0x18]\n  8945: a4 = u64 [a1 + 0x10]\n  8948: a5 = u64 [a1 + 0x8]\n  8951: s1 = u64 [a1]\n  8953: a1 = a5 | a3\n  8956: a2 = s1 | a4\n  8959: a2 = a2 | a1\n  8962: a2 = a2 >> 0x20\n  8965: a1 = a1 | a4\n  8968: a1 = a1 << 0x20\n  8971: a1 = a1 | a2\n  8974: u64 [sp + 0x28] = a0\n  8977: jump @172 if a1 != 0\n      : @166 (gas: 19)\n  8981: a0 = s1 + 0x20\n  8984: u64 [sp + 0x30] = a0\n  8987: a0 = a0 <u s1\n  8990: a1 = a5 + a0\n  8993: u64 [sp + 0x40] = a1\n  8996: u64 [sp + 0x8] = a5\n  8999: s0 = a1 <u a5\n  9002: s0 = a0 if a0 == 0\n  9005: s0 = s0 + a4\n  9008: u64 [sp + 0x10] = a4\n  9011: a0 = s0 <u a4\n  9014: u64 [sp + 0x18] = a3\n  9017: a0 = a0 + a3\n  9020: u64 [sp + 0x38] = a0\n  9023: u64 [sp] = s1\n  9025: i32 a0 = s1 + 0\n  9027: a1 = 0x20\n  9030: s1 = 0x20\n  9033: ra = 142, jump @0\n      : @167 [@dyn 71] (gas: 45)\n  9039: u8 [a0 + 0x1f] = s1\n  9042: a1 = u64 [sp + 0x30]\n  9045: s1 = a1\n  9047: a1 = a1 | s0\n  9050: a2 = u64 [sp + 0x40]\n  9053: a4 = u64 [sp + 0x38]\n  9056: a2 = a2 | a4\n  9059: a1 = a1 | a2\n  9062: a1 = a1 >> 0x20\n  9065: u64 [sp + 0x20] = s0\n  9068: a2 = a2 | s0\n  9071: a2 = a2 << 0x20\n  9074: a1 = a1 | a2\n  9077: u8 [a0 + 30] = 0\n  9080: u8 [a0 + 29] = 0\n  9083: u8 [a0 + 28] = 0\n  9086: u8 [a0 + 27] = 0\n  9089: u8 [a0 + 26] = 0\n  9092: u8 [a0 + 25] = 0\n  9095: u8 [a0 + 24] = 0\n  9098: u8 [a0 + 23] = 0\n  9101: u8 [a0 + 22] = 0\n  9104: u8 [a0 + 21] = 0\n  9107: u8 [a0 + 20] = 0\n  9110: u8 [a0 + 19] = 0\n  9113: u8 [a0 + 18] = 0\n  9116: u8 [a0 + 17] = 0\n  9119: u8 [a0 + 16] = 0\n  9122: u8 [a0 + 15] = 0\n  9125: u8 [a0 + 14] = 0\n  9128: u8 [a0 + 13] = 0\n  9131: u8 [a0 + 12] = 0\n  9134: u8 [a0 + 11] = 0\n  9137: u8 [a0 + 10] = 0\n  9140: u8 [a0 + 9] = 0\n  9143: u8 [a0 + 8] = 0\n  9146: u8 [a0 + 7] = 0\n  9149: u8 [a0 + 6] = 0\n  9152: u8 [a0 + 5] = 0\n  9155: u8 [a0 + 4] = 0\n  9158: u8 [a0 + 3] = 0\n  9161: u8 [a0 + 2] = 0\n  9164: u8 [a0 + 1] = 0\n  9167: u8 [a0 + 0] = 0\n  9169: jump @172 if a1 != 0\n      : @168 (gas: 4)\n  9173: i32 s0 = s1 + 0\n  9175: a1 = 0x20\n  9178: a0 = s0\n  9180: ra = 144, jump @0\n      : @169 [@dyn 72] (gas: 41)\n  9186: u8 [a0 + 31] = 0x18\n  9190: u8 [a0 + 30] = 0\n  9193: u8 [a0 + 29] = 0\n  9196: u8 [a0 + 28] = 0\n  9199: u8 [a0 + 27] = 0\n  9202: u8 [a0 + 26] = 0\n  9205: u8 [a0 + 25] = 0\n  9208: u8 [a0 + 24] = 0\n  9211: u8 [a0 + 23] = 0\n  9214: u8 [a0 + 22] = 0\n  9217: u8 [a0 + 21] = 0\n  9220: u8 [a0 + 20] = 0\n  9223: u8 [a0 + 19] = 0\n  9226: u8 [a0 + 18] = 0\n  9229: u8 [a0 + 17] = 0\n  9232: u8 [a0 + 16] = 0\n  9235: u8 [a0 + 15] = 0\n  9238: u8 [a0 + 14] = 0\n  9241: u8 [a0 + 13] = 0\n  9244: u8 [a0 + 12] = 0\n  9247: u8 [a0 + 11] = 0\n  9250: u8 [a0 + 10] = 0\n  9253: u8 [a0 + 9] = 0\n  9256: u8 [a0 + 8] = 0\n  9259: u8 [a0 + 7] = 0\n  9262: u8 [a0 + 6] = 0\n  9265: u8 [a0 + 5] = 0\n  9268: u8 [a0 + 4] = 0\n  9271: u8 [a0 + 3] = 0\n  9274: u8 [a0 + 2] = 0\n  9277: u8 [a0 + 1] = 0\n  9280: a1 = u64 [sp + 0x20]\n  9283: a2 = u64 [sp + 0x38]\n  9286: a1 = a1 | a2\n  9289: a2 = 0xffffffe0\n  9299: a2 = s1 <u a2\n  9302: a3 = u64 [sp + 0x40]\n  9305: a2 = 0 if a3 != 0\n  9307: a2 = 0 if a1 != 0\n  9309: u8 [a0 + 0] = 0\n  9311: jump @172 if a2 == 0\n      : @170 (gas: 3)\n  9315: i32 a0 = s0 + 0x20\n  9318: a1 = 0x20\n  9321: ra = 146, jump @0\n      : @171 [@dyn 73] (gas: 55)\n  9327: u8 [a0 + 31] = 0\n  9330: u8 [a0 + 30] = 0\n  9333: u8 [a0 + 29] = 0\n  9336: u8 [a0 + 28] = 0\n  9339: u8 [a0 + 27] = 0\n  9342: u8 [a0 + 26] = 0\n  9345: u8 [a0 + 25] = 0\n  9348: u8 [a0 + 24] = 0\n  9351: u8 [a0 + 23] = 0x64\n  9355: u8 [a0 + 22] = 0x65\n  9359: u8 [a0 + 21] = 0x68\n  9363: u8 [a0 + 20] = 0x63\n  9367: u8 [a0 + 19] = 0x61\n  9371: u8 [a0 + 18] = 0x65\n  9375: u8 [a0 + 17] = 0x72\n  9379: u8 [a0 + 16] = 0x20\n  9383: u8 [a0 + 15] = 0x74\n  9387: u8 [a0 + 14] = 0x65\n  9391: a5 = 0x79\n  9394: u8 [a0 + 0xd] = a5\n  9397: u8 [a0 + 12] = 0x20\n  9401: u8 [a0 + 11] = 0x74\n  9405: u8 [a0 + 10] = 0x6f\n  9409: u8 [a0 + 9] = 0x6e\n  9413: u8 [a0 + 8] = 0x20\n  9417: u8 [a0 + 7] = 0x65\n  9421: u8 [a0 + 6] = 0x6e\n  9425: u8 [a0 + 5] = 0x69\n  9429: u8 [a0 + 4] = 0x6c\n  9433: u8 [a0 + 3] = 0x64\n  9437: u8 [a0 + 2] = 0x61\n  9441: u8 [a0 + 1] = 0x65\n  9445: u8 [a0 + 0] = 0x44\n  9448: a1 = u64 [sp]\n  9450: a0 = a1 + 0x60\n  9453: a1 = a0 <u a1\n  9456: a3 = u64 [sp + 0x8]\n  9459: a2 = a3 + a1\n  9462: a3 = a2 <u a3\n  9465: a3 = a1 if a1 == 0\n  9468: a1 = u64 [sp + 0x10]\n  9471: a3 = a3 + a1\n  9474: a1 = a3 <u a1\n  9477: a4 = u64 [sp + 0x18]\n  9480: a1 = a1 + a4\n  9483: a4 = u64 [sp + 0x28]\n  9486: u64 [a4] = a0\n  9488: u64 [a4 + 0x8] = a2\n  9491: u64 [a4 + 0x10] = a3\n  9494: u64 [a4 + 0x18] = a1\n  9497: ra = u64 [sp + 0x58]\n  9500: s0 = u64 [sp + 0x50]\n  9503: s1 = u64 [sp + 0x48]\n  9506: sp = sp + 0x60\n  9509: ret\n      : @172 (gas: 1)\n  9511: trap\n      : @173 (gas: 17)\n  9512: sp = sp + 0xffffffffffffffa0\n  9515: u64 [sp + 0x58] = ra\n  9518: u64 [sp + 0x50] = s0\n  9521: u64 [sp + 0x48] = s1\n  9524: a3 = u64 [a1 + 0x18]\n  9527: a4 = u64 [a1 + 0x10]\n  9530: a5 = u64 [a1 + 0x8]\n  9533: s1 = u64 [a1]\n  9535: a1 = a5 | a3\n  9538: a2 = s1 | a4\n  9541: a2 = a2 | a1\n  9544: a2 = a2 >> 0x20\n  9547: a1 = a1 | a4\n  9550: a1 = a1 << 0x20\n  9553: a1 = a1 | a2\n  9556: u64 [sp + 0x28] = a0\n  9559: jump @180 if a1 != 0\n      : @174 (gas: 19)\n  9563: a0 = s1 + 0x20\n  9566: u64 [sp + 0x30] = a0\n  9569: a0 = a0 <u s1\n  9572: a1 = a5 + a0\n  9575: u64 [sp + 0x40] = a1\n  9578: u64 [sp + 0x8] = a5\n  9581: s0 = a1 <u a5\n  9584: s0 = a0 if a0 == 0\n  9587: s0 = s0 + a4\n  9590: u64 [sp + 0x10] = a4\n  9593: a0 = s0 <u a4\n  9596: u64 [sp + 0x18] = a3\n  9599: a0 = a0 + a3\n  9602: u64 [sp + 0x38] = a0\n  9605: u64 [sp] = s1\n  9607: i32 a0 = s1 + 0\n  9609: a1 = 0x20\n  9612: s1 = 0x20\n  9615: ra = 148, jump @0\n      : @175 [@dyn 74] (gas: 45)\n  9621: u8 [a0 + 0x1f] = s1\n  9624: a1 = u64 [sp + 0x30]\n  9627: s1 = a1\n  9629: a1 = a1 | s0\n  9632: a2 = u64 [sp + 0x40]\n  9635: a4 = u64 [sp + 0x38]\n  9638: a2 = a2 | a4\n  9641: a1 = a1 | a2\n  9644: a1 = a1 >> 0x20\n  9647: u64 [sp + 0x20] = s0\n  9650: a2 = a2 | s0\n  9653: a2 = a2 << 0x20\n  9656: a1 = a1 | a2\n  9659: u8 [a0 + 30] = 0\n  9662: u8 [a0 + 29] = 0\n  9665: u8 [a0 + 28] = 0\n  9668: u8 [a0 + 27] = 0\n  9671: u8 [a0 + 26] = 0\n  9674: u8 [a0 + 25] = 0\n  9677: u8 [a0 + 24] = 0\n  9680: u8 [a0 + 23] = 0\n  9683: u8 [a0 + 22] = 0\n  9686: u8 [a0 + 21] = 0\n  9689: u8 [a0 + 20] = 0\n  9692: u8 [a0 + 19] = 0\n  9695: u8 [a0 + 18] = 0\n  9698: u8 [a0 + 17] = 0\n  9701: u8 [a0 + 16] = 0\n  9704: u8 [a0 + 15] = 0\n  9707: u8 [a0 + 14] = 0\n  9710: u8 [a0 + 13] = 0\n  9713: u8 [a0 + 12] = 0\n  9716: u8 [a0 + 11] = 0\n  9719: u8 [a0 + 10] = 0\n  9722: u8 [a0 + 9] = 0\n  9725: u8 [a0 + 8] = 0\n  9728: u8 [a0 + 7] = 0\n  9731: u8 [a0 + 6] = 0\n  9734: u8 [a0 + 5] = 0\n  9737: u8 [a0 + 4] = 0\n  9740: u8 [a0 + 3] = 0\n  9743: u8 [a0 + 2] = 0\n  9746: u8 [a0 + 1] = 0\n  9749: u8 [a0 + 0] = 0\n  9751: jump @180 if a1 != 0\n      : @176 (gas: 4)\n  9755: i32 s0 = s1 + 0\n  9757: a1 = 0x20\n  9760: a0 = s0\n  9762: ra = 150, jump @0\n      : @177 [@dyn 75] (gas: 41)\n  9768: u8 [a0 + 31] = 0x14\n  9772: u8 [a0 + 30] = 0\n  9775: u8 [a0 + 29] = 0\n  9778: u8 [a0 + 28] = 0\n  9781: u8 [a0 + 27] = 0\n  9784: u8 [a0 + 26] = 0\n  9787: u8 [a0 + 25] = 0\n  9790: u8 [a0 + 24] = 0\n  9793: u8 [a0 + 23] = 0\n  9796: u8 [a0 + 22] = 0\n  9799: u8 [a0 + 21] = 0\n  9802: u8 [a0 + 20] = 0\n  9805: u8 [a0 + 19] = 0\n  9808: u8 [a0 + 18] = 0\n  9811: u8 [a0 + 17] = 0\n  9814: u8 [a0 + 16] = 0\n  9817: u8 [a0 + 15] = 0\n  9820: u8 [a0 + 14] = 0\n  9823: u8 [a0 + 13] = 0\n  9826: u8 [a0 + 12] = 0\n  9829: u8 [a0 + 11] = 0\n  9832: u8 [a0 + 10] = 0\n  9835: u8 [a0 + 9] = 0\n  9838: u8 [a0 + 8] = 0\n  9841: u8 [a0 + 7] = 0\n  9844: u8 [a0 + 6] = 0\n  9847: u8 [a0 + 5] = 0\n  9850: u8 [a0 + 4] = 0\n  9853: u8 [a0 + 3] = 0\n  9856: u8 [a0 + 2] = 0\n  9859: u8 [a0 + 1] = 0\n  9862: a1 = u64 [sp + 0x20]\n  9865: a2 = u64 [sp + 0x38]\n  9868: a1 = a1 | a2\n  9871: a2 = 0xffffffe0\n  9881: a2 = s1 <u a2\n  9884: a3 = u64 [sp + 0x40]\n  9887: a2 = 0 if a3 != 0\n  9889: a2 = 0 if a1 != 0\n  9891: u8 [a0 + 0] = 0\n  9893: jump @180 if a2 == 0\n      : @178 (gas: 3)\n  9897: i32 a0 = s0 + 0x20\n  9900: a1 = 0x20\n  9903: ra = 152, jump @0\n      : @179 [@dyn 76] (gas: 54)\n  9909: u8 [a0 + 31] = 0\n  9912: u8 [a0 + 30] = 0\n  9915: u8 [a0 + 29] = 0\n  9918: u8 [a0 + 28] = 0\n  9921: u8 [a0 + 27] = 0\n  9924: u8 [a0 + 26] = 0\n  9927: u8 [a0 + 25] = 0\n  9930: u8 [a0 + 24] = 0\n  9933: u8 [a0 + 23] = 0\n  9936: u8 [a0 + 22] = 0\n  9939: u8 [a0 + 21] = 0\n  9942: u8 [a0 + 20] = 0\n  9945: u8 [a0 + 19] = 0x77\n  9949: u8 [a0 + 18] = 0x61\n  9953: u8 [a0 + 17] = 0x72\n  9957: u8 [a0 + 16] = 0x64\n  9961: u8 [a0 + 15] = 0x68\n  9965: u8 [a0 + 14] = 0x74\n  9969: u8 [a0 + 13] = 0x69\n  9973: u8 [a0 + 12] = 0x77\n  9977: u8 [a0 + 11] = 0x20\n  9981: u8 [a0 + 10] = 0x6f\n  9985: u8 [a0 + 9] = 0x74\n  9989: u8 [a0 + 8] = 0x20\n  9993: u8 [a0 + 7] = 0x73\n  9997: u8 [a0 + 6] = 0x64\n 10001: u8 [a0 + 5] = 0x6e\n 10005: u8 [a0 + 4] = 0x75\n 10009: u8 [a0 + 3] = 0x66\n 10013: u8 [a0 + 2] = 0x20\n 10017: u8 [a0 + 1] = 0x6f\n 10021: u8 [a0 + 0] = 0x4e\n 10024: a1 = u64 [sp]\n 10026: a0 = a1 + 0x60\n 10029: a1 = a0 <u a1\n 10032: a3 = u64 [sp + 0x8]\n 10035: a2 = a3 + a1\n 10038: a3 = a2 <u a3\n 10041: a3 = a1 if a1 == 0\n 10044: a1 = u64 [sp + 0x10]\n 10047: a3 = a3 + a1\n 10050: a1 = a3 <u a1\n 10053: a4 = u64 [sp + 0x18]\n 10056: a1 = a1 + a4\n 10059: a4 = u64 [sp + 0x28]\n 10062: u64 [a4] = a0\n 10064: u64 [a4 + 0x8] = a2\n 10067: u64 [a4 + 0x10] = a3\n 10070: u64 [a4 + 0x18] = a1\n 10073: ra = u64 [sp + 0x58]\n 10076: s0 = u64 [sp + 0x50]\n 10079: s1 = u64 [sp + 0x48]\n 10082: sp = sp + 0x60\n 10085: ret\n      : @180 (gas: 1)\n 10087: trap\n      : @181 [@dyn 77] (gas: 130)\n 10088: a1 = u8 [a0 + 0x19]\n 10091: a2 = u8 [a0 + 0x18]\n 10094: a3 = u8 [a0 + 0x1a]\n 10097: a4 = u8 [a0 + 0x1b]\n 10100: a1 = a1 << 0x8\n 10103: a1 = a1 | a2\n 10106: a3 = a3 << 0x10\n 10109: a4 = a4 << 0x18\n 10112: a3 = a3 | a4\n 10115: a1 = a1 | a3\n 10118: a2 = u8 [a0 + 0x1d]\n 10121: a3 = u8 [a0 + 0x1c]\n 10124: a4 = u8 [a0 + 0x1e]\n 10127: a5 = u8 [a0 + 0x1f]\n 10130: a2 = a2 << 0x8\n 10133: a2 = a2 | a3\n 10136: a4 = a4 << 0x10\n 10139: a5 = a5 << 0x18\n 10142: a4 = a4 | a5\n 10145: a2 = a2 | a4\n 10148: a2 = a2 << 0x20\n 10151: t0 = a2 | a1\n 10154: a2 = u8 [a0 + 0x11]\n 10157: a3 = u8 [a0 + 0x10]\n 10160: a4 = u8 [a0 + 0x12]\n 10163: a5 = u8 [a0 + 0x13]\n 10166: a2 = a2 << 0x8\n 10169: a2 = a2 | a3\n 10172: a4 = a4 << 0x10\n 10175: a5 = a5 << 0x18\n 10178: a4 = a4 | a5\n 10181: a2 = a2 | a4\n 10184: a3 = u8 [a0 + 0x15]\n 10187: a4 = u8 [a0 + 0x14]\n 10190: a5 = u8 [a0 + 0x16]\n 10193: s1 = u8 [a0 + 0x17]\n 10196: a3 = a3 << 0x8\n 10199: a3 = a3 | a4\n 10202: a5 = a5 << 0x10\n 10205: s1 = s1 << 0x18\n 10208: a5 = a5 | s1\n 10211: a3 = a3 | a5\n 10214: a3 = a3 << 0x20\n 10217: a2 = a2 | a3\n 10220: a3 = u8 [a0 + 0x9]\n 10223: a4 = u8 [a0 + 0x8]\n 10226: a5 = u8 [a0 + 0xa]\n 10229: s1 = u8 [a0 + 0xb]\n 10232: a3 = a3 << 0x8\n 10235: a3 = a3 | a4\n 10238: a5 = a5 << 0x10\n 10241: s1 = s1 << 0x18\n 10244: a5 = a5 | s1\n 10247: a3 = a3 | a5\n 10250: a4 = u8 [a0 + 0xd]\n 10253: a5 = u8 [a0 + 0xc]\n 10256: s1 = u8 [a0 + 0xe]\n 10259: a1 = u8 [a0 + 0xf]\n 10262: a4 = a4 << 0x8\n 10265: a4 = a4 | a5\n 10268: s1 = s1 << 0x10\n 10271: a1 = a1 << 0x18\n 10274: a1 = a1 | s1\n 10277: a1 = a1 | a4\n 10280: a1 = a1 << 0x20\n 10283: a3 = a3 | a1\n 10286: a1 = u8 [a0 + 0x1]\n 10289: a4 = u8 [a0]\n 10291: a5 = u8 [a0 + 0x2]\n 10294: s1 = u8 [a0 + 0x3]\n 10297: a1 = a1 << 0x8\n 10300: a1 = a1 | a4\n 10303: a5 = a5 << 0x10\n 10306: s1 = s1 << 0x18\n 10309: a5 = a5 | s1\n 10312: a1 = a1 | a5\n 10315: a4 = u8 [a0 + 0x5]\n 10318: a5 = u8 [a0 + 0x4]\n 10321: s1 = u8 [a0 + 0x6]\n 10324: a0 = u8 [a0 + 0x7]\n 10327: a4 = a4 << 0x8\n 10330: a4 = a4 | a5\n 10333: s1 = s1 << 0x10\n 10336: a0 = a0 << 0x18\n 10339: a0 = a0 | s1\n 10342: a0 = a0 | a4\n 10345: a0 = a0 << 0x20\n 10348: a0 = a0 | a1\n 10351: t1 = reverse a0\n 10353: t2 = reverse a3\n 10355: s1 = reverse a2\n 10357: a5 = reverse t0\n 10359: a1 = u64 [sp + 0x18]\n 10362: a0 = a1 + 0x1f\n 10365: a1 = a0 <u a1\n 10368: a3 = u64 [sp + 0x20]\n 10371: a2 = a3 + a1\n 10374: a3 = a2 <u a3\n 10377: a3 = a1 if a1 == 0\n 10380: a1 = u64 [sp + 0x28]\n 10383: a3 = a3 + a1\n 10386: a1 = a3 <u a1\n 10389: a4 = u64 [sp + 0x30]\n 10392: a1 = a1 + a4\n 10395: a0 = a0 & 0xffffffffffffffe0\n 10398: a0 = a0 + a5\n 10401: u64 [sp + 0x28] = a5\n 10404: u64 [sp + 0x10] = a0\n 10407: a4 = a0 <u a5\n 10410: a2 = a2 + s1\n 10413: a5 = a2 + a4\n 10416: a2 = a5 ^ s1\n 10419: u64 [sp + 0x30] = s1\n 10422: a0 = a5 <u s1\n 10425: a0 = a4 if a2 == 0\n 10428: a3 = a3 + t2\n 10431: a4 = a3 + a0\n 10434: s1 = a4 <u a3\n 10437: a2 = a3 <u t2\n 10440: a1 = a1 + t1\n 10443: a1 = a1 + a2\n 10446: s1 = s1 + a1\n 10449: a1 = a4 >u 0\n 10451: a2 = s1 >u 0\n 10453: a2 = a1 if s1 == 0\n 10456: a1 = a4 | s1\n 10459: u64 [sp + 0x8] = a5\n 10462: a3 = a5 >u 0\n 10464: a3 = a2 if a1 != 0\n 10467: jump @185 if a3 != 0\n      : @182 (gas: 8)\n 10471: a1 = a4 <u t2\n 10474: a2 = s1 ^ t1\n 10477: a3 = s1 <u t1\n 10480: a3 = a1 if a2 == 0\n 10483: a1 = a4 ^ t2\n 10486: a1 = a1 | a2\n 10489: a0 = a3 if a1 != 0\n 10492: jump @185 if a0 != 0\n      : @183 (gas: 6)\n 10496: a0 = 0x40\n 10499: a1 = 0x20\n 10502: u64 [sp + 0x20] = t2\n 10505: u64 [sp + 0x18] = t1\n 10508: u64 [sp] = a4\n 10510: ra = 156, jump @0\n      : @184 [@dyn 78] (gas: 82)\n 10516: a1 = reverse s1\n 10518: a2 = u64 [sp]\n 10520: a2 = reverse a2\n 10522: a3 = u64 [sp + 0x8]\n 10525: a3 = reverse a3\n 10527: a4 = u64 [sp + 0x10]\n 10530: a4 = reverse a4\n 10532: u8 [a0 + 0x18] = a4\n 10535: a5 = a4 >> 0x38\n 10538: u8 [a0 + 0x1f] = a5\n 10541: a5 = a4 >> 0x30\n 10544: u8 [a0 + 0x1e] = a5\n 10547: a5 = a4 >> 0x28\n 10550: u8 [a0 + 0x1d] = a5\n 10553: a5 = a4 >> 0x20\n 10556: u8 [a0 + 0x1c] = a5\n 10559: a5 = a4 >> 0x18\n 10562: u8 [a0 + 0x1b] = a5\n 10565: a5 = a4 >> 0x10\n 10568: u8 [a0 + 0x1a] = a5\n 10571: a4 = a4 >> 0x8\n 10574: u8 [a0 + 0x19] = a4\n 10577: u8 [a0 + 0x10] = a3\n 10580: a4 = a3 >> 0x38\n 10583: u8 [a0 + 0x17] = a4\n 10586: a4 = a3 >> 0x30\n 10589: u8 [a0 + 0x16] = a4\n 10592: a4 = a3 >> 0x28\n 10595: u8 [a0 + 0x15] = a4\n 10598: a4 = a3 >> 0x20\n 10601: u8 [a0 + 0x14] = a4\n 10604: a4 = a3 >> 0x18\n 10607: u8 [a0 + 0x13] = a4\n 10610: a4 = a3 >> 0x10\n 10613: u8 [a0 + 0x12] = a4\n 10616: a3 = a3 >> 0x8\n 10619: u8 [a0 + 0x11] = a3\n 10622: u8 [a0 + 0x8] = a2\n 10625: a3 = a2 >> 0x38\n 10628: u8 [a0 + 0xf] = a3\n 10631: a3 = a2 >> 0x30\n 10634: u8 [a0 + 0xe] = a3\n 10637: a3 = a2 >> 0x28\n 10640: u8 [a0 + 0xd] = a3\n 10643: a3 = a2 >> 0x20\n 10646: u8 [a0 + 0xc] = a3\n 10649: a3 = a2 >> 0x18\n 10652: u8 [a0 + 0xb] = a3\n 10655: a3 = a2 >> 0x10\n 10658: u8 [a0 + 0xa] = a3\n 10661: a2 = a2 >> 0x8\n 10664: u8 [a0 + 0x9] = a2\n 10667: u8 [a0] = a1\n 10669: a2 = a1 >> 0x38\n 10672: u8 [a0 + 0x7] = a2\n 10675: a2 = a1 >> 0x30\n 10678: u8 [a0 + 0x6] = a2\n 10681: a2 = a1 >> 0x28\n 10684: u8 [a0 + 0x5] = a2\n 10687: a2 = a1 >> 0x20\n 10690: u8 [a0 + 0x4] = a2\n 10693: a2 = a1 >> 0x18\n 10696: u8 [a0 + 0x3] = a2\n 10699: a2 = a1 >> 0x10\n 10702: u8 [a0 + 0x2] = a2\n 10705: a1 = a1 >> 0x8\n 10708: u8 [a0 + 0x1] = a1\n 10711: a0 = u64 [sp + 0x38]\n 10714: a1 = u64 [sp + 0x28]\n 10717: u64 [a0] = a1\n 10719: a1 = u64 [sp + 0x18]\n 10722: u64 [a0 + 0x18] = a1\n 10725: a1 = u64 [sp + 0x30]\n 10728: u64 [a0 + 0x8] = a1\n 10731: a1 = u64 [sp + 0x20]\n 10734: u64 [a0 + 0x10] = a1\n 10737: sp = s0 + 0xffffffffffffff60\n 10741: ra = u64 [sp + 0x98]\n 10745: s0 = u64 [sp + 0x90]\n 10749: s1 = u64 [sp + 0x88]\n 10753: sp = sp + 0xa0\n 10757: ret\n      : @185 (gas: 8)\n 10759: u64 [sp + 112] = 0\n 10762: u64 [sp + 104] = 0\n 10765: u64 [sp + 96] = 0\n 10768: a0 = 0x4e487b7100000000\n 10778: a1 = sp + 0x60\n 10781: u64 [sp + 0x78] = a0\n 10784: a0 = 0\n 10786: ra = 158, jump @8\n      : @186 [@dyn 79] (gas: 7)\n 10792: u64 [sp + 88] = 0\n 10795: u64 [sp + 80] = 0\n 10798: u64 [sp + 64] = 0x41\n 10802: a0 = 0x4\n 10805: a1 = sp + 0x40\n 10808: u64 [sp + 72] = 0\n 10811: ra = 160, jump @8\n      : @187 [@dyn 80] (gas: 3)\n 10817: a1 = 0x24\n 10820: a0 = 0\n 10822: ra = 162, jump @0\n      : @188 [@dyn 81] (gas: 6)\n 10828: i32 a1 = a0 + 0\n 10830: a0 = 0x1\n 10833: a2 = 0x24\n 10836: ra = 0xa4\n 10840: ecalli 13 // 'seal_return'\n 10842: fallthrough\n      : @189 [@dyn 82] (gas: 7)\n 10843: a3 = u64 [a1 + 0x18]\n 10846: a4 = u64 [a1 + 0x10]\n 10849: a2 = u64 [a1 + 0x8]\n 10852: a3 = a3 | a4\n 10855: a4 = a2 <u 0x1\n 10858: a4 = 0 if a3 != 0\n 10860: jump @191 if a4 == 0\n      : @190 (gas: 16)\n 10863: a1 = u64 [a1]\n 10865: a3 = a1 + 0x1f\n 10868: a1 = a3 <u a1\n 10871: a1 = a1 + a2\n 10874: a1 = a1 & 0x1\n 10877: a3 = a3 & 0xffffffffffffffe0\n 10880: a2 = a3 + 0x20\n 10883: a3 = a2 <u a3\n 10886: a4 = a1 + a3\n 10889: a1 = a4 <u a1\n 10892: a1 = a3 if a3 == 0\n 10895: u64 [a0 + 24] = 0\n 10898: u64 [a0] = a2\n 10900: u64 [a0 + 0x8] = a4\n 10903: u64 [a0 + 0x10] = a1\n 10906: ret\n      : @191 (gas: 13)\n 10908: sp = sp + 0xffffffffffffffb0\n 10911: u64 [sp + 0x48] = ra\n 10914: u64 [sp + 0x40] = s0\n 10917: s0 = sp + 0x50\n 10920: sp = sp & 0xfffffffffffffff0\n 10923: u64 [sp + 48] = 0\n 10926: u64 [sp + 40] = 0\n 10929: u64 [sp + 32] = 0\n 10932: a0 = 0x4e487b7100000000\n 10942: a1 = sp + 0x20\n 10945: u64 [sp + 0x38] = a0\n 10948: a0 = 0\n 10950: ra = 166, jump @8\n      : @192 [@dyn 83] (gas: 7)\n 10956: u64 [sp + 24] = 0\n 10959: u64 [sp + 16] = 0\n 10962: u64 [sp + 0] = 0x41\n 10965: a0 = 0x4\n 10968: a1 = sp\n 10970: u64 [sp + 8] = 0\n 10973: ra = 168, jump @8\n      : @193 [@dyn 84] (gas: 3)\n 10979: a1 = 0x24\n 10982: a0 = 0\n 10984: ra = 170, jump @0\n      : @194 [@dyn 85] (gas: 6)\n 10990: i32 a1 = a0 + 0\n 10992: a0 = 0x1\n 10995: a2 = 0x24\n 10998: ra = 0xac\n 11002: ecalli 13 // 'seal_return'\n 11004: fallthrough\n      : @195 [@dyn 86] (gas: 16)\n 11005: sp = sp + 0xffffffffffffff20\n 11009: u64 [sp + 0xd8] = ra\n 11013: u64 [sp + 0xd0] = s0\n 11017: u64 [sp + 0xc8] = s1\n 11021: s0 = sp + 0xe0\n 11025: sp = sp & 0xfffffffffffffff0\n 11028: a3 = u64 [a1 + 0x18]\n 11031: a2 = u64 [a1 + 0x10]\n 11034: a4 = u64 [a1 + 0x8]\n 11037: u64 [sp + 0x10] = a2\n 11040: u64 [sp + 0x8] = a3\n 11043: a2 = a2 | a3\n 11046: a3 = a4 <u 0x1\n 11049: a3 = 0 if a2 != 0\n 11051: u64 [sp + 0x38] = a0\n 11054: jump @201 if a3 == 0\n      : @196 (gas: 38)\n 11058: s1 = u64 [a1]\n 11060: a0 = s1 + 0x1f\n 11063: a1 = a0 <u s1\n 11066: u64 [sp + 0x18] = a4\n 11069: a1 = a1 + a4\n 11072: a1 = a1 & 0x1\n 11075: a0 = a0 & 0xffffffffffffffe0\n 11078: a2 = a0 + 0x20\n 11081: a0 = a2 <u a0\n 11084: a3 = a1 + a0\n 11087: a4 = a3 <u a1\n 11090: a4 = a0 if a0 == 0\n 11093: u64 [sp + 152] = 0\n 11097: u64 [sp + 0x80] = a2\n 11101: u64 [sp + 0x88] = a3\n 11105: a0 = sp + 0xa0\n 11109: a1 = sp + 0x80\n 11113: u64 [sp + 0x90] = a4\n 11117: ra = 0xae\n 11121: sp = sp + 0xffffffffffffff60\n 11125: u64 [sp + 0x98] = ra\n 11129: u64 [sp + 0x90] = s0\n 11133: u64 [sp + 0x88] = s1\n 11137: s0 = sp + 0xa0\n 11141: sp = sp & 0xfffffffffffffff0\n 11144: a2 = u64 [a1 + 0x18]\n 11147: u64 [sp + 0x30] = a2\n 11150: a2 = u64 [a1 + 0x10]\n 11153: u64 [sp + 0x28] = a2\n 11156: a2 = u64 [a1 + 0x8]\n 11159: u64 [sp + 0x20] = a2\n 11162: a1 = u64 [a1]\n 11164: u64 [sp + 0x18] = a1\n 11167: u64 [sp + 0x38] = a0\n 11170: a0 = 0x40\n 11173: a1 = 0x20\n 11176: ra = 0x9a\n 11180: jump @0\n      : @197 [@dyn 87] (gas: 15)\n 11183: a0 = u64 [sp + 0xb8]\n 11187: a2 = u64 [sp + 0xb0]\n 11191: a1 = u64 [sp + 0xa8]\n 11195: a3 = u64 [sp + 0xa0]\n 11199: u64 [sp + 0x28] = a0\n 11202: u64 [sp + 0x20] = a1\n 11205: a0 = a0 | a1\n 11208: a1 = a3 | a2\n 11211: a1 = a1 | a0\n 11214: a1 = a1 >> 0x20\n 11217: u64 [sp + 0x30] = a2\n 11220: a0 = a0 | a2\n 11223: a0 = a0 << 0x20\n 11226: a0 = a0 | a1\n 11229: jump @200 if a0 != 0\n      : @198 (gas: 4)\n 11233: i32 a0 = a3 + 0\n 11235: a1 = 0x20\n 11238: u64 [sp] = a3\n 11240: ra = 176, jump @0\n      : @199 [@dyn 88] (gas: 82)\n 11246: a1 = u64 [sp + 0x8]\n 11249: a1 = reverse a1\n 11251: a2 = u64 [sp + 0x10]\n 11254: a2 = reverse a2\n 11256: a3 = u64 [sp + 0x18]\n 11259: a3 = reverse a3\n 11261: a4 = reverse s1\n 11263: a5 = a4 >> 0x38\n 11266: u8 [a0 + 0x1f] = a5\n 11269: a5 = a4 >> 0x30\n 11272: u8 [a0 + 0x1e] = a5\n 11275: a5 = a4 >> 0x28\n 11278: u8 [a0 + 0x1d] = a5\n 11281: a5 = a4 >> 0x20\n 11284: u8 [a0 + 0x1c] = a5\n 11287: a5 = a4 >> 0x18\n 11290: u8 [a0 + 0x1b] = a5\n 11293: a5 = a4 >> 0x10\n 11296: u8 [a0 + 0x1a] = a5\n 11299: a5 = a4 >> 0x8\n 11302: u8 [a0 + 0x19] = a5\n 11305: u8 [a0 + 0x18] = a4\n 11308: u8 [a0 + 0x10] = a3\n 11311: a4 = a3 >> 0x38\n 11314: u8 [a0 + 0x17] = a4\n 11317: a4 = a3 >> 0x30\n 11320: u8 [a0 + 0x16] = a4\n 11323: a4 = a3 >> 0x28\n 11326: u8 [a0 + 0x15] = a4\n 11329: a4 = a3 >> 0x20\n 11332: u8 [a0 + 0x14] = a4\n 11335: a4 = a3 >> 0x18\n 11338: u8 [a0 + 0x13] = a4\n 11341: a4 = a3 >> 0x10\n 11344: u8 [a0 + 0x12] = a4\n 11347: a3 = a3 >> 0x8\n 11350: u8 [a0 + 0x11] = a3\n 11353: u8 [a0 + 0x8] = a2\n 11356: a3 = a2 >> 0x38\n 11359: u8 [a0 + 0xf] = a3\n 11362: a3 = a2 >> 0x30\n 11365: u8 [a0 + 0xe] = a3\n 11368: a3 = a2 >> 0x28\n 11371: u8 [a0 + 0xd] = a3\n 11374: a3 = a2 >> 0x20\n 11377: u8 [a0 + 0xc] = a3\n 11380: a3 = a2 >> 0x18\n 11383: u8 [a0 + 0xb] = a3\n 11386: a3 = a2 >> 0x10\n 11389: u8 [a0 + 0xa] = a3\n 11392: a2 = a2 >> 0x8\n 11395: u8 [a0 + 0x9] = a2\n 11398: u8 [a0] = a1\n 11400: a2 = a1 >> 0x38\n 11403: u8 [a0 + 0x7] = a2\n 11406: a2 = a1 >> 0x30\n 11409: u8 [a0 + 0x6] = a2\n 11412: a2 = a1 >> 0x28\n 11415: u8 [a0 + 0x5] = a2\n 11418: a2 = a1 >> 0x20\n 11421: u8 [a0 + 0x4] = a2\n 11424: a2 = a1 >> 0x18\n 11427: u8 [a0 + 0x3] = a2\n 11430: a2 = a1 >> 0x10\n 11433: u8 [a0 + 0x2] = a2\n 11436: a1 = a1 >> 0x8\n 11439: u8 [a0 + 0x1] = a1\n 11442: a0 = u64 [sp + 0x38]\n 11445: a1 = u64 [sp]\n 11447: u64 [a0] = a1\n 11449: a1 = u64 [sp + 0x28]\n 11452: u64 [a0 + 0x18] = a1\n 11455: a1 = u64 [sp + 0x20]\n 11458: u64 [a0 + 0x8] = a1\n 11461: a1 = u64 [sp + 0x30]\n 11464: u64 [a0 + 0x10] = a1\n 11467: sp = s0 + 0xffffffffffffff20\n 11471: ra = u64 [sp + 0xd8]\n 11475: s0 = u64 [sp + 0xd0]\n 11479: s1 = u64 [sp + 0xc8]\n 11483: sp = sp + 0xe0\n 11487: ret\n      : @200 (gas: 1)\n 11489: trap\n      : @201 (gas: 8)\n 11490: u64 [sp + 112] = 0\n 11493: u64 [sp + 104] = 0\n 11496: u64 [sp + 96] = 0\n 11499: a0 = 0x4e487b7100000000\n 11509: a1 = sp + 0x60\n 11512: u64 [sp + 0x78] = a0\n 11515: a0 = 0\n 11517: ra = 178, jump @8\n      : @202 [@dyn 89] (gas: 7)\n 11523: u64 [sp + 88] = 0\n 11526: u64 [sp + 80] = 0\n 11529: u64 [sp + 64] = 0x41\n 11533: a0 = 0x4\n 11536: a1 = sp + 0x40\n 11539: u64 [sp + 72] = 0\n 11542: ra = 180, jump @8\n      : @203 [@dyn 90] (gas: 3)\n 11548: a1 = 0x24\n 11551: a0 = 0\n 11553: ra = 182, jump @0\n      : @204 [@dyn 91] (gas: 6)\n 11559: i32 a1 = a0 + 0\n 11561: a0 = 0x1\n 11564: a2 = 0x24\n 11567: ra = 0xb8\n 11571: ecalli 13 // 'seal_return'\n 11573: fallthrough\n      : @205 [@dyn 92] (gas: 6)\n 11574: u64 [a0 + 24] = 0\n 11577: u64 [a0 + 16] = 0\n 11580: u64 [a0 + 8] = 0\n 11583: a1 = 0x60\n 11586: u64 [a0] = a1\n 11588: ret\n      : @206 (gas: 9)\n 11590: sp = sp + 0xffffffffffffff60\n 11594: u64 [sp + 0x98] = ra\n 11598: u64 [sp + 0x90] = s0\n 11602: u64 [sp + 0x88] = s1\n 11606: s0 = sp + 0xa0\n 11610: sp = sp & 0xffffffffffffffe0\n 11613: s1 = a0\n 11615: ecalli 12 // 'return_data_size'\n 11617: fallthrough\n      : @207 (gas: 1)\n 11618: jump @216 if a0 == 0\n      : @208 (gas: 9)\n 11622: u64 [sp + 0x20] = s1\n 11625: ecalli 12 // 'return_data_size'\n 11627: u64 [sp + 88] = 0\n 11630: u64 [sp + 80] = 0\n 11633: u64 [sp + 0x40] = a0\n 11636: a0 = sp + 0x60\n 11639: a1 = sp + 0x40\n 11642: u64 [sp + 72] = 0\n 11645: ra = 186, jump @195\n      : @209 [@dyn 93] (gas: 9)\n 11651: a0 = u64 [sp + 0x78]\n 11654: u64 [sp + 0x38] = a0\n 11657: a0 = u64 [sp + 0x70]\n 11660: u64 [sp + 0x30] = a0\n 11663: a0 = u64 [sp + 0x68]\n 11666: u64 [sp + 0x28] = a0\n 11669: s1 = u64 [sp + 0x60]\n 11672: ecalli 12 // 'return_data_size'\n 11674: fallthrough\n      : @210 (gas: 20)\n 11675: a1 = s1 + 0x20\n 11678: u64 [sp + 0x18] = s1\n 11681: a2 = a1 <u s1\n 11684: a4 = u64 [sp + 0x28]\n 11687: a3 = a4 + a2\n 11690: a4 = a3 <u a4\n 11693: a4 = a2 if a2 == 0\n 11696: a2 = u64 [sp + 0x30]\n 11699: a4 = a4 + a2\n 11702: a2 = a4 <u a2\n 11705: a5 = u64 [sp + 0x38]\n 11708: a2 = a2 + a5\n 11711: a5 = a1 | a4\n 11714: a2 = a2 | a3\n 11717: a5 = a5 | a2\n 11720: a5 = a5 >> 0x20\n 11723: a2 = a2 | a4\n 11726: a2 = a2 << 0x20\n 11729: a2 = a2 | a5\n 11732: jump @215 if a2 != 0\n      : @211 (gas: 3)\n 11735: s1 = a0\n 11737: a0 = a0 >> 0x20\n 11740: jump @215 if a0 != 0\n      : @212 (gas: 4)\n 11743: i32 a0 = a1 + 0\n 11745: i32 a1 = s1 + 0\n 11747: u64 [sp + 0x10] = a1\n 11750: ra = 188, jump @0\n      : @213 [@dyn 94] (gas: 6)\n 11756: u32 [sp + 0x80] = s1\n 11760: i32 a0 = a0 + 0\n 11762: i32 a1 = sp + 0x80\n 11766: a2 = 0\n 11768: ecalli 11 // 'return_data_copy'\n 11770: fallthrough\n      : @214 (gas: 8)\n 11771: a0 = i32 [sp + 0x80]\n 11775: s1 = u64 [sp + 0x20]\n 11778: a1 = u64 [sp + 0x38]\n 11781: a2 = u64 [sp + 0x30]\n 11784: a3 = u64 [sp + 0x28]\n 11787: a4 = u64 [sp + 0x18]\n 11790: a5 = u64 [sp + 0x10]\n 11793: jump @217 if a0 >=u a5\n      : @215 (gas: 1)\n 11796: trap\n      : @216 (gas: 5)\n 11797: a3 = 0\n 11799: a2 = 0\n 11801: a1 = 0\n 11803: a4 = 0x60\n 11806: fallthrough\n      : @217 (gas: 10)\n 11807: u64 [s1] = a4\n 11809: u64 [s1 + 0x8] = a3\n 11812: u64 [s1 + 0x10] = a2\n 11815: u64 [s1 + 0x18] = a1\n 11818: sp = s0 + 0xffffffffffffff60\n 11822: ra = u64 [sp + 0x98]\n 11826: s0 = u64 [sp + 0x90]\n 11830: s1 = u64 [sp + 0x88]\n 11834: sp = sp + 0xa0\n 11838: ret\n      : @218 (gas: 17)\n 11840: sp = sp + 0xffffffffffffffa0\n 11843: u64 [sp + 0x58] = ra\n 11846: u64 [sp + 0x50] = s0\n 11849: u64 [sp + 0x48] = s1\n 11852: a3 = u64 [a1 + 0x18]\n 11855: a4 = u64 [a1 + 0x10]\n 11858: a5 = u64 [a1 + 0x8]\n 11861: s1 = u64 [a1]\n 11863: a1 = a5 | a3\n 11866: a2 = s1 | a4\n 11869: a2 = a2 | a1\n 11872: a2 = a2 >> 0x20\n 11875: a1 = a1 | a4\n 11878: a1 = a1 << 0x20\n 11881: a1 = a1 | a2\n 11884: u64 [sp + 0x28] = a0\n 11887: jump @225 if a1 != 0\n      : @219 (gas: 19)\n 11891: a0 = s1 + 0x20\n 11894: u64 [sp + 0x30] = a0\n 11897: a0 = a0 <u s1\n 11900: a1 = a5 + a0\n 11903: u64 [sp + 0x40] = a1\n 11906: u64 [sp + 0x8] = a5\n 11909: s0 = a1 <u a5\n 11912: s0 = a0 if a0 == 0\n 11915: s0 = s0 + a4\n 11918: u64 [sp + 0x10] = a4\n 11921: a0 = s0 <u a4\n 11924: u64 [sp + 0x18] = a3\n 11927: a0 = a0 + a3\n 11930: u64 [sp + 0x38] = a0\n 11933: u64 [sp] = s1\n 11935: i32 a0 = s1 + 0\n 11937: a1 = 0x20\n 11940: s1 = 0x20\n 11943: ra = 190, jump @0\n      : @220 [@dyn 95] (gas: 45)\n 11949: u8 [a0 + 0x1f] = s1\n 11952: a1 = u64 [sp + 0x30]\n 11955: s1 = a1\n 11957: a1 = a1 | s0\n 11960: a2 = u64 [sp + 0x40]\n 11963: a4 = u64 [sp + 0x38]\n 11966: a2 = a2 | a4\n 11969: a1 = a1 | a2\n 11972: a1 = a1 >> 0x20\n 11975: u64 [sp + 0x20] = s0\n 11978: a2 = a2 | s0\n 11981: a2 = a2 << 0x20\n 11984: a1 = a1 | a2\n 11987: u8 [a0 + 30] = 0\n 11990: u8 [a0 + 29] = 0\n 11993: u8 [a0 + 28] = 0\n 11996: u8 [a0 + 27] = 0\n 11999: u8 [a0 + 26] = 0\n 12002: u8 [a0 + 25] = 0\n 12005: u8 [a0 + 24] = 0\n 12008: u8 [a0 + 23] = 0\n 12011: u8 [a0 + 22] = 0\n 12014: u8 [a0 + 21] = 0\n 12017: u8 [a0 + 20] = 0\n 12020: u8 [a0 + 19] = 0\n 12023: u8 [a0 + 18] = 0\n 12026: u8 [a0 + 17] = 0\n 12029: u8 [a0 + 16] = 0\n 12032: u8 [a0 + 15] = 0\n 12035: u8 [a0 + 14] = 0\n 12038: u8 [a0 + 13] = 0\n 12041: u8 [a0 + 12] = 0\n 12044: u8 [a0 + 11] = 0\n 12047: u8 [a0 + 10] = 0\n 12050: u8 [a0 + 9] = 0\n 12053: u8 [a0 + 8] = 0\n 12056: u8 [a0 + 7] = 0\n 12059: u8 [a0 + 6] = 0\n 12062: u8 [a0 + 5] = 0\n 12065: u8 [a0 + 4] = 0\n 12068: u8 [a0 + 3] = 0\n 12071: u8 [a0 + 2] = 0\n 12074: u8 [a0 + 1] = 0\n 12077: u8 [a0 + 0] = 0\n 12079: jump @225 if a1 != 0\n      : @221 (gas: 4)\n 12083: i32 s0 = s1 + 0\n 12085: a1 = 0x20\n 12088: a0 = s0\n 12090: ra = 192, jump @0\n      : @222 [@dyn 96] (gas: 41)\n 12096: u8 [a0 + 31] = 0xf\n 12100: u8 [a0 + 30] = 0\n 12103: u8 [a0 + 29] = 0\n 12106: u8 [a0 + 28] = 0\n 12109: u8 [a0 + 27] = 0\n 12112: u8 [a0 + 26] = 0\n 12115: u8 [a0 + 25] = 0\n 12118: u8 [a0 + 24] = 0\n 12121: u8 [a0 + 23] = 0\n 12124: u8 [a0 + 22] = 0\n 12127: u8 [a0 + 21] = 0\n 12130: u8 [a0 + 20] = 0\n 12133: u8 [a0 + 19] = 0\n 12136: u8 [a0 + 18] = 0\n 12139: u8 [a0 + 17] = 0\n 12142: u8 [a0 + 16] = 0\n 12145: u8 [a0 + 15] = 0\n 12148: u8 [a0 + 14] = 0\n 12151: u8 [a0 + 13] = 0\n 12154: u8 [a0 + 12] = 0\n 12157: u8 [a0 + 11] = 0\n 12160: u8 [a0 + 10] = 0\n 12163: u8 [a0 + 9] = 0\n 12166: u8 [a0 + 8] = 0\n 12169: u8 [a0 + 7] = 0\n 12172: u8 [a0 + 6] = 0\n 12175: u8 [a0 + 5] = 0\n 12178: u8 [a0 + 4] = 0\n 12181: u8 [a0 + 3] = 0\n 12184: u8 [a0 + 2] = 0\n 12187: u8 [a0 + 1] = 0\n 12190: a1 = u64 [sp + 0x20]\n 12193: a2 = u64 [sp + 0x38]\n 12196: a1 = a1 | a2\n 12199: a2 = 0xffffffe0\n 12209: a2 = s1 <u a2\n 12212: a3 = u64 [sp + 0x40]\n 12215: a2 = 0 if a3 != 0\n 12217: a2 = 0 if a1 != 0\n 12219: u8 [a0 + 0] = 0\n 12221: jump @225 if a2 == 0\n      : @223 (gas: 3)\n 12225: i32 a0 = s0 + 0x20\n 12228: a1 = 0x20\n 12231: ra = 194, jump @0\n      : @224 [@dyn 97] (gas: 54)\n 12237: u8 [a0 + 31] = 0\n 12240: u8 [a0 + 30] = 0\n 12243: u8 [a0 + 29] = 0\n 12246: u8 [a0 + 28] = 0\n 12249: u8 [a0 + 27] = 0\n 12252: u8 [a0 + 26] = 0\n 12255: u8 [a0 + 25] = 0\n 12258: u8 [a0 + 24] = 0\n 12261: u8 [a0 + 23] = 0\n 12264: u8 [a0 + 22] = 0\n 12267: u8 [a0 + 21] = 0\n 12270: u8 [a0 + 20] = 0\n 12273: u8 [a0 + 19] = 0\n 12276: u8 [a0 + 18] = 0\n 12279: u8 [a0 + 17] = 0\n 12282: u8 [a0 + 16] = 0\n 12285: u8 [a0 + 15] = 0\n 12288: u8 [a0 + 14] = 0x64\n 12292: u8 [a0 + 13] = 0x65\n 12296: u8 [a0 + 12] = 0x6c\n 12300: u8 [a0 + 11] = 0x69\n 12304: u8 [a0 + 10] = 0x61\n 12308: u8 [a0 + 9] = 0x66\n 12312: u8 [a0 + 8] = 0x20\n 12316: u8 [a0 + 7] = 0x77\n 12320: u8 [a0 + 6] = 0x61\n 12324: u8 [a0 + 5] = 0x72\n 12328: u8 [a0 + 4] = 0x64\n 12332: u8 [a0 + 3] = 0x68\n 12336: u8 [a0 + 2] = 0x74\n 12340: u8 [a0 + 1] = 0x69\n 12344: u8 [a0 + 0] = 0x57\n 12347: a1 = u64 [sp]\n 12349: a0 = a1 + 0x60\n 12352: a1 = a0 <u a1\n 12355: a3 = u64 [sp + 0x8]\n 12358: a2 = a3 + a1\n 12361: a3 = a2 <u a3\n 12364: a3 = a1 if a1 == 0\n 12367: a1 = u64 [sp + 0x10]\n 12370: a3 = a3 + a1\n 12373: a1 = a3 <u a1\n 12376: a4 = u64 [sp + 0x18]\n 12379: a1 = a1 + a4\n 12382: a4 = u64 [sp + 0x28]\n 12385: u64 [a4] = a0\n 12387: u64 [a4 + 0x8] = a2\n 12390: u64 [a4 + 0x10] = a3\n 12393: u64 [a4 + 0x18] = a1\n 12396: ra = u64 [sp + 0x58]\n 12399: s0 = u64 [sp + 0x50]\n 12402: s1 = u64 [sp + 0x48]\n 12405: sp = sp + 0x60\n 12408: ret\n      : @225 (gas: 1)\n 12410: trap\n      : @226 (gas: 20)\n 12411: a0 = u64 [s1 + 0x3d8]\n 12415: t0 = u64 [s1 + 0x3c0]\n 12419: a2 = u64 [s1 + 0x3d0]\n 12423: a3 = u64 [s1 + 0x3c8]\n 12427: a1 = u64 [s1 + 0x60]\n 12430: a4 = a1 ^ a0\n 12433: a1 = a1 <u a0\n 12436: a0 = u64 [s1 + 0x68]\n 12439: a5 = a0 <u a2\n 12442: a5 = a1 if a4 != 0\n 12445: a1 = u64 [s1 + 0x70]\n 12448: t1 = a1 ^ a3\n 12451: a3 = a1 <u a3\n 12454: a1 = u64 [s1 + 0x78]\n 12457: a1 = a1 <u t0\n 12460: a1 = a3 if t1 != 0\n 12463: a0 = a0 ^ a2\n 12466: a0 = a0 | a4\n 12469: a1 = a5 if a0 != 0\n 12472: jump @268 if a1 != 0\n      : @227 (gas: 16)\n 12476: i32 a0 = s1 + 0x220\n 12480: ecalli 0 // 'address'\n 12481: a0 = u64 [s1 + 0x228]\n 12485: a1 = u64 [s1 + 0x220]\n 12489: a2 = i32 [s1 + 0x230]\n 12493: u64 [s1 + 0x248] = a0\n 12497: u64 [s1 + 0x240] = a1\n 12501: u32 [s1 + 0x250] = a2\n 12505: a0 = sp + 0xffffffffffffffe0\n 12508: a0 = a0 & 0xffffffffffffffe0\n 12511: u64 [s1 + 0x78] = a0\n 12514: sp = a0\n 12516: i32 a1 = a0 + 0\n 12518: i32 a0 = s1 + 0x240\n 12522: ecalli 1 // 'balance_of'\n 12524: fallthrough\n      : @228 (gas: 13)\n 12525: a1 = u64 [s1 + 0x78]\n 12528: a2 = u64 [a1 + 0x10]\n 12531: a3 = u64 [a1 + 0x18]\n 12534: a0 = u64 [a1 + 0x8]\n 12537: a1 = u64 [a1]\n 12539: u64 [s1 + 0x68] = a0\n 12542: u64 [s1 + 0x60] = a3\n 12545: a0 = a0 | a3\n 12548: u64 [s1 + 0x78] = a1\n 12551: u64 [s1 + 0x70] = a2\n 12554: a1 = a1 | a2\n 12557: a0 = a0 | a1\n 12560: jump @263 if a0 == 0\n      : @229 (gas: 16)\n 12564: u64 [s1 + 920] = 0\n 12568: u64 [s1 + 912] = 0\n 12572: u64 [s1 + 904] = 0\n 12576: u64 [s1 + 896] = 0x2\n 12581: u64 [s1 + 984] = 0\n 12585: u64 [s1 + 976] = 0\n 12589: u64 [s1 + 968] = 0\n 12593: u64 [s1 + 960] = 0\n 12597: u32 [s1 + 928] = 0x20\n 12602: i32 a1 = s1 + 0x380\n 12606: i32 a3 = s1 + 0x3c0\n 12610: i32 a4 = s1 + 0x3a0\n 12614: a2 = 0xffffffffffffffff\n 12617: a0 = 0\n 12619: ecalli 8 // 'get_storage'\n 12621: fallthrough\n      : @230 (gas: 2)\n 12622: a0 = u8 [s1 + 0x3d5]\n 12626: jump @263 if a0 != 0\n      : @231 (gas: 8)\n 12630: a0 = u64 [s1 + 0x30]\n 12633: a1 = u64 [s1 + 0x28]\n 12636: a0 = a0 | a1\n 12639: a1 = u64 [s1 + 0x40]\n 12642: a2 = u64 [s1 + 0x38]\n 12645: a1 = a1 | a2\n 12648: a0 = a0 | a1\n 12651: jump @246 if a0 == 0\n      : @232 (gas: 3)\n 12655: a0 = 0x40\n 12658: a1 = 0x20\n 12661: ra = 196, jump @0\n      : @233 [@dyn 98] (gas: 98)\n 12667: a1 = u8 [a0 + 0x11]\n 12670: a2 = u8 [a0 + 0x10]\n 12673: a3 = u8 [a0 + 0x12]\n 12676: a4 = u8 [a0 + 0x13]\n 12679: a1 = a1 << 0x8\n 12682: a1 = a1 | a2\n 12685: a3 = a3 << 0x10\n 12688: a4 = a4 << 0x18\n 12691: a3 = a3 | a4\n 12694: a1 = a1 | a3\n 12697: a2 = u8 [a0 + 0x15]\n 12700: a3 = u8 [a0 + 0x14]\n 12703: a4 = u8 [a0 + 0x16]\n 12706: a5 = u8 [a0 + 0x17]\n 12709: a2 = a2 << 0x8\n 12712: a2 = a2 | a3\n 12715: a4 = a4 << 0x10\n 12718: a5 = a5 << 0x18\n 12721: a4 = a4 | a5\n 12724: a2 = a2 | a4\n 12727: a2 = a2 << 0x20\n 12730: t0 = a2 | a1\n 12733: a2 = u8 [a0 + 0x1]\n 12736: a3 = u8 [a0]\n 12738: a4 = u8 [a0 + 0x2]\n 12741: a5 = u8 [a0 + 0x3]\n 12744: a2 = a2 << 0x8\n 12747: a2 = a2 | a3\n 12750: a4 = a4 << 0x10\n 12753: a5 = a5 << 0x18\n 12756: a4 = a4 | a5\n 12759: a2 = a2 | a4\n 12762: a3 = u8 [a0 + 0x5]\n 12765: a4 = u8 [a0 + 0x4]\n 12768: a5 = u8 [a0 + 0x6]\n 12771: a1 = u8 [a0 + 0x7]\n 12774: a3 = a3 << 0x8\n 12777: a3 = a3 | a4\n 12780: a5 = a5 << 0x10\n 12783: a1 = a1 << 0x18\n 12786: a1 = a1 | a5\n 12789: a1 = a1 | a3\n 12792: a1 = a1 << 0x20\n 12795: t1 = a1 | a2\n 12798: a1 = u8 [a0 + 0x19]\n 12801: a3 = u8 [a0 + 0x18]\n 12804: a4 = u8 [a0 + 0x1a]\n 12807: a5 = u8 [a0 + 0x1b]\n 12810: a1 = a1 << 0x8\n 12813: a1 = a1 | a3\n 12816: a4 = a4 << 0x10\n 12819: a5 = a5 << 0x18\n 12822: a4 = a4 | a5\n 12825: a1 = a1 | a4\n 12828: a3 = u8 [a0 + 0x1d]\n 12831: a4 = u8 [a0 + 0x1c]\n 12834: a5 = u8 [a0 + 0x1e]\n 12837: a2 = u8 [a0 + 0x1f]\n 12840: a3 = a3 << 0x8\n 12843: a3 = a3 | a4\n 12846: a5 = a5 << 0x10\n 12849: a2 = a2 << 0x18\n 12852: a2 = a2 | a5\n 12855: a2 = a2 | a3\n 12858: a2 = a2 << 0x20\n 12861: a3 = a2 | a1\n 12864: a1 = u8 [a0 + 0x9]\n 12867: a2 = u8 [a0 + 0x8]\n 12870: a4 = u8 [a0 + 0xa]\n 12873: a5 = u8 [a0 + 0xb]\n 12876: a1 = a1 << 0x8\n 12879: a1 = a1 | a2\n 12882: a4 = a4 << 0x10\n 12885: a5 = a5 << 0x18\n 12888: a4 = a4 | a5\n 12891: a1 = a1 | a4\n 12894: a2 = u8 [a0 + 0xd]\n 12897: a4 = u8 [a0 + 0xc]\n 12900: a5 = u8 [a0 + 0xe]\n 12903: a0 = u8 [a0 + 0xf]\n 12906: a2 = a2 << 0x8\n 12909: a2 = a2 | a4\n 12912: a5 = a5 << 0x10\n 12915: a0 = a0 << 0x18\n 12918: a0 = a0 | a5\n 12921: a0 = a0 | a2\n 12924: a0 = a0 << 0x20\n 12927: a0 = a0 | a1\n 12930: a0 = reverse a0\n 12932: u64 [s1 + 0x40] = a0\n 12935: a0 = reverse a3\n 12937: u64 [s1 + 0x28] = a0\n 12940: a0 = reverse t1\n 12942: u64 [s1 + 0x38] = a0\n 12945: a0 = reverse t0\n 12947: u64 [s1 + 0x30] = a0\n 12950: ecalli 10 // 'ref_time_left'\n 12952: fallthrough\n      : @234 (gas: 37)\n 12953: u64 [s1 + 0x20] = a0\n 12956: a0 = u64 [s1 + 0x48]\n 12959: a0 = reverse a0\n 12961: a1 = a0 << 0x20\n 12964: a2 = u64 [s1 + 0x50]\n 12967: a2 = reverse a2\n 12969: a2 = a2 >> 0x20\n 12972: a1 = a1 | a2\n 12975: a2 = u64 [s1 + 0x58]\n 12978: a2 = reverse a2\n 12980: a3 = a2 << 0x20\n 12983: a0 = a0 >> 0x20\n 12986: a0 = a0 | a3\n 12989: u64 [s1 + 0x308] = a0\n 12993: a2 = a2 >> 0x20\n 12996: u32 [s1 + 0x310] = a2\n 13000: a2 = u64 [s1 + 0x28]\n 13003: u64 [s1 + 0x300] = a1\n 13007: a0 = u64 [s1 + 0x38]\n 13010: a1 = u64 [s1 + 0x30]\n 13013: a0 = a0 | a1\n 13016: a3 = u64 [s1 + 0x40]\n 13019: a1 = a2 | a3\n 13022: a1 = a1 | a0\n 13025: a0 = a0 | a3\n 13028: a1 = a1 >> 0x20\n 13031: a0 = a0 << 0x20\n 13034: a0 = a0 | a1\n 13037: a1 = u64 [s1 + 0x60]\n 13040: u64 [s1 + 0x338] = a1\n 13044: a1 = u64 [s1 + 0x70]\n 13047: u64 [s1 + 0x330] = a1\n 13051: a1 = u64 [s1 + 0x68]\n 13054: u64 [s1 + 0x328] = a1\n 13058: a1 = u64 [s1 + 0x78]\n 13061: u64 [s1 + 0x320] = a1\n 13065: jump @236 if a0 == 0\n      : @235 (gas: 1)\n 13068: jump @284\n      : @236 (gas: 3)\n 13071: i32 a0 = a2 + 0\n 13073: a1 = 0\n 13075: ra = 198, jump @0\n      : @237 [@dyn 99] (gas: 4)\n 13081: u64 [s1 + 0x58] = a0\n 13084: a0 = 0\n 13086: a1 = 0\n 13088: ra = 200, jump @0\n      : @238 [@dyn 100] (gas: 34)\n 13094: u32 [s1 + 832] = 0\n 13098: a2 = u64 [s1 + 0x20]\n 13101: a1 = a2 >u 0x8fc\n 13105: a2 = -a1\n 13107: u64 [s1 + 0x378] = a2\n 13111: u64 [s1 + 0x370] = a2\n 13115: u64 [s1 + 0x368] = a2\n 13119: u64 [s1 + 0x360] = a2\n 13123: a2 = s1 + 0x300\n 13127: a2 = a2 << 0x20\n 13130: a2 = a2 >> 0x20\n 13133: a1 = a1 << 0x23\n 13136: t0 = a1 | a2\n 13139: a1 = s1 + 0x320\n 13143: a1 = a1 << 0x20\n 13146: a1 = a1 >> 0x20\n 13149: a2 = s1 + 0x360\n 13153: a2 = a2 << 0x20\n 13156: a3 = a2 | a1\n 13159: a4 = u64 [s1 + 0x58]\n 13162: a4 = a4 << 0x20\n 13165: a4 = a4 >> 0x20\n 13168: a0 = a0 << 0x20\n 13171: a0 = a0 >> 0x20\n 13174: a1 = s1 + 0x340\n 13178: a1 = a1 << 0x20\n 13181: a5 = a1 | a0\n 13184: a1 = 0xffffffffffffffff\n 13187: a2 = 0xffffffffffffffff\n 13190: a0 = t0\n 13192: ecalli 2 // 'call'\n 13194: u64 [s1 + 0x58] = a0\n 13197: a0 = s1 + 0x1e0\n 13201: ra = 202, jump @206\n      : @239 [@dyn 101] (gas: 2)\n 13207: a0 = u64 [s1 + 0x58]\n 13210: jump @273 if a0 != 0\n      : @240 (gas: 61)\n 13214: u64 [s1 + 920] = 0\n 13218: u64 [s1 + 912] = 0\n 13222: u64 [s1 + 904] = 0\n 13226: u64 [s1 + 896] = 0x2\n 13231: u64 [s1 + 984] = 0\n 13235: u64 [s1 + 976] = 0\n 13239: u64 [s1 + 968] = 0\n 13243: u64 [s1 + 960] = 0\n 13247: u32 [s1 + 928] = 0x20\n 13252: i32 a1 = s1 + 0x380\n 13256: i32 a3 = s1 + 0x3c0\n 13260: i32 a4 = s1 + 0x3a0\n 13264: a2 = 0xffffffffffffffff\n 13267: a0 = 0\n 13269: ecalli 8 // 'get_storage'\n 13271: a0 = u64 [s1 + 0x3c0]\n 13275: a1 = u64 [s1 + 0x3c8]\n 13279: a2 = u64 [s1 + 0x3d0]\n 13283: a3 = u64 [s1 + 0x3d8]\n 13287: a4 = 0xffff00ffffffffff\n 13297: a2 = a2 & a4\n 13300: a4 = 0x10000000000\n 13310: a2 = a2 | a4\n 13313: u64 [s1 + 920] = 0\n 13317: u64 [s1 + 912] = 0\n 13321: u64 [s1 + 904] = 0\n 13325: u64 [s1 + 896] = 0x2\n 13330: u64 [s1 + 0x3d8] = a3\n 13334: u64 [s1 + 0x3d0] = a2\n 13338: u64 [s1 + 0x3c8] = a1\n 13342: u64 [s1 + 0x3c0] = a0\n 13346: i32 a1 = s1 + 0x380\n 13350: i32 a3 = s1 + 0x3c0\n 13354: a2 = 0xffffffffffffffff\n 13357: a4 = 0x20\n 13360: a0 = 0\n 13362: ecalli 15 // 'set_storage'\n 13364: u64 [s1 + 920] = 0\n 13368: u64 [s1 + 912] = 0\n 13372: u64 [s1 + 904] = 0\n 13376: u64 [s1 + 896] = 0x2\n 13381: u64 [s1 + 984] = 0\n 13385: u64 [s1 + 976] = 0\n 13389: u64 [s1 + 968] = 0\n 13393: u64 [s1 + 960] = 0\n 13397: u32 [s1 + 928] = 0x20\n 13402: i32 a1 = s1 + 0x380\n 13406: i32 a3 = s1 + 0x3c0\n 13410: i32 a4 = s1 + 0x3a0\n 13414: a2 = 0xffffffffffffffff\n 13417: a0 = 0\n 13419: ecalli 8 // 'get_storage'\n 13421: a0 = u64 [s1 + 0x3d0]\n 13425: u64 [s1 + 0x48] = a0\n 13428: a0 = u64 [s1 + 0x3c8]\n 13432: u64 [s1 + 0x50] = a0\n 13435: a0 = u64 [s1 + 0x3c0]\n 13439: u64 [s1 + 0x58] = a0\n 13442: a0 = 0x40\n 13445: a1 = 0x20\n 13448: ra = 204, jump @0\n      : @241 [@dyn 102] (gas: 100)\n 13454: a1 = u8 [a0 + 0x11]\n 13457: a2 = u8 [a0 + 0x10]\n 13460: a3 = u8 [a0 + 0x12]\n 13463: a4 = u8 [a0 + 0x13]\n 13466: a1 = a1 << 0x8\n 13469: a1 = a1 | a2\n 13472: a3 = a3 << 0x10\n 13475: a4 = a4 << 0x18\n 13478: a3 = a3 | a4\n 13481: a1 = a1 | a3\n 13484: a2 = u8 [a0 + 0x15]\n 13487: a3 = u8 [a0 + 0x14]\n 13490: a4 = u8 [a0 + 0x16]\n 13493: a5 = u8 [a0 + 0x17]\n 13496: a2 = a2 << 0x8\n 13499: a2 = a2 | a3\n 13502: a4 = a4 << 0x10\n 13505: a5 = a5 << 0x18\n 13508: a4 = a4 | a5\n 13511: a2 = a2 | a4\n 13514: a2 = a2 << 0x20\n 13517: t0 = a2 | a1\n 13520: a2 = u8 [a0 + 0x1]\n 13523: a3 = u8 [a0]\n 13525: a4 = u8 [a0 + 0x2]\n 13528: a5 = u8 [a0 + 0x3]\n 13531: a2 = a2 << 0x8\n 13534: a2 = a2 | a3\n 13537: a4 = a4 << 0x10\n 13540: a5 = a5 << 0x18\n 13543: a4 = a4 | a5\n 13546: a2 = a2 | a4\n 13549: a3 = u8 [a0 + 0x5]\n 13552: a4 = u8 [a0 + 0x4]\n 13555: a5 = u8 [a0 + 0x6]\n 13558: a1 = u8 [a0 + 0x7]\n 13561: a3 = a3 << 0x8\n 13564: a3 = a3 | a4\n 13567: a5 = a5 << 0x10\n 13570: a1 = a1 << 0x18\n 13573: a1 = a1 | a5\n 13576: a1 = a1 | a3\n 13579: a1 = a1 << 0x20\n 13582: t1 = a1 | a2\n 13585: a1 = u8 [a0 + 0x19]\n 13588: a3 = u8 [a0 + 0x18]\n 13591: a4 = u8 [a0 + 0x1a]\n 13594: a5 = u8 [a0 + 0x1b]\n 13597: a1 = a1 << 0x8\n 13600: a1 = a1 | a3\n 13603: a4 = a4 << 0x10\n 13606: a5 = a5 << 0x18\n 13609: a4 = a4 | a5\n 13612: a1 = a1 | a4\n 13615: a3 = u8 [a0 + 0x1d]\n 13618: a4 = u8 [a0 + 0x1c]\n 13621: a5 = u8 [a0 + 0x1e]\n 13624: a2 = u8 [a0 + 0x1f]\n 13627: a3 = a3 << 0x8\n 13630: a3 = a3 | a4\n 13633: a5 = a5 << 0x10\n 13636: a2 = a2 << 0x18\n 13639: a2 = a2 | a5\n 13642: a2 = a2 | a3\n 13645: a2 = a2 << 0x20\n 13648: a3 = a2 | a1\n 13651: a1 = u8 [a0 + 0x9]\n 13654: a2 = u8 [a0 + 0x8]\n 13657: a4 = u8 [a0 + 0xa]\n 13660: a5 = u8 [a0 + 0xb]\n 13663: a1 = a1 << 0x8\n 13666: a1 = a1 | a2\n 13669: a4 = a4 << 0x10\n 13672: a5 = a5 << 0x18\n 13675: a4 = a4 | a5\n 13678: a1 = a1 | a4\n 13681: a2 = u8 [a0 + 0xd]\n 13684: a4 = u8 [a0 + 0xc]\n 13687: a5 = u8 [a0 + 0xe]\n 13690: a0 = u8 [a0 + 0xf]\n 13693: a2 = a2 << 0x8\n 13696: a2 = a2 | a4\n 13699: a5 = a5 << 0x10\n 13702: a0 = a0 << 0x18\n 13705: a0 = a0 | a5\n 13708: a0 = a0 | a2\n 13711: a0 = a0 << 0x20\n 13714: a0 = a0 | a1\n 13717: a1 = reverse a0\n 13719: a0 = reverse a3\n 13721: a2 = reverse t1\n 13723: a3 = reverse t0\n 13725: a2 = a2 | a3\n 13728: a3 = a0 | a1\n 13731: a3 = a3 | a2\n 13734: a3 = a3 >> 0x20\n 13737: a1 = a1 | a2\n 13740: a1 = a1 << 0x20\n 13743: a1 = a1 | a3\n 13746: jump @243 if a1 == 0\n      : @242 (gas: 1)\n 13749: jump @284\n      : @243 (gas: 8)\n 13752: a1 = u64 [s1 + 0x48]\n 13755: a1 = a1 << 0x20\n 13758: a1 = a1 >> 0x20\n 13761: u64 [s1 + 0x48] = a1\n 13764: i32 a0 = a0 + 0\n 13766: u64 [s1 + 0x40] = a0\n 13769: a1 = 0x20\n 13772: ra = 206, jump @0\n      : @244 [@dyn 103] (gas: 71)\n 13778: a1 = u64 [s1 + 0x60]\n 13781: a1 = reverse a1\n 13783: a2 = u64 [s1 + 0x70]\n 13786: a2 = reverse a2\n 13788: a3 = u64 [s1 + 0x68]\n 13791: a3 = reverse a3\n 13793: a4 = u64 [s1 + 0x78]\n 13796: a4 = reverse a4\n 13798: a5 = a4 >> 0x38\n 13801: u8 [a0 + 0x1f] = a5\n 13804: a5 = a4 >> 0x30\n 13807: u8 [a0 + 0x1e] = a5\n 13810: a5 = a4 >> 0x28\n 13813: u8 [a0 + 0x1d] = a5\n 13816: a5 = a4 >> 0x20\n 13819: u8 [a0 + 0x1c] = a5\n 13822: a5 = a4 >> 0x18\n 13825: u8 [a0 + 0x1b] = a5\n 13828: a5 = a4 >> 0x10\n 13831: u8 [a0 + 0x1a] = a5\n 13834: a5 = a4 >> 0x8\n 13837: u8 [a0 + 0x19] = a5\n 13840: u8 [a0 + 0x18] = a4\n 13843: u8 [a0 + 0x10] = a3\n 13846: a4 = a3 >> 0x38\n 13849: u8 [a0 + 0x17] = a4\n 13852: a4 = a3 >> 0x30\n 13855: u8 [a0 + 0x16] = a4\n 13858: a4 = a3 >> 0x28\n 13861: u8 [a0 + 0x15] = a4\n 13864: a4 = a3 >> 0x20\n 13867: u8 [a0 + 0x14] = a4\n 13870: a4 = a3 >> 0x18\n 13873: u8 [a0 + 0x13] = a4\n 13876: a4 = a3 >> 0x10\n 13879: u8 [a0 + 0x12] = a4\n 13882: a3 = a3 >> 0x8\n 13885: u8 [a0 + 0x11] = a3\n 13888: u8 [a0 + 0x8] = a2\n 13891: a3 = a2 >> 0x38\n 13894: u8 [a0 + 0xf] = a3\n 13897: a3 = a2 >> 0x30\n 13900: u8 [a0 + 0xe] = a3\n 13903: a3 = a2 >> 0x28\n 13906: u8 [a0 + 0xd] = a3\n 13909: a3 = a2 >> 0x20\n 13912: u8 [a0 + 0xc] = a3\n 13915: a3 = a2 >> 0x18\n 13918: u8 [a0 + 0xb] = a3\n 13921: a3 = a2 >> 0x10\n 13924: u8 [a0 + 0xa] = a3\n 13927: a2 = a2 >> 0x8\n 13930: u8 [a0 + 0x9] = a2\n 13933: u8 [a0] = a1\n 13935: a2 = a1 >> 0x38\n 13938: u8 [a0 + 0x7] = a2\n 13941: a2 = a1 >> 0x30\n 13944: u8 [a0 + 0x6] = a2\n 13947: a2 = a1 >> 0x28\n 13950: u8 [a0 + 0x5] = a2\n 13953: a2 = a1 >> 0x20\n 13956: u8 [a0 + 0x4] = a2\n 13959: a2 = a1 >> 0x18\n 13962: u8 [a0 + 0x3] = a2\n 13965: a2 = a1 >> 0x10\n 13968: u8 [a0 + 0x2] = a2\n 13971: a1 = a1 >> 0x8\n 13974: u8 [a0 + 0x1] = a1\n 13977: a1 = 0x20\n 13980: a0 = u64 [s1 + 0x40]\n 13983: ra = 208, jump @0\n      : @245 [@dyn 104] (gas: 5)\n 13989: a1 = u64 [0x20000]\n 13994: a2 = u64 [0x20008]\n 13999: a3 = u64 [0x20010]\n 14004: a4 = u64 [0x20018]\n 14009: jump @262\n      : @246 (gas: 16)\n 14012: u64 [s1 + 920] = 0\n 14016: u64 [s1 + 912] = 0\n 14020: u64 [s1 + 904] = 0\n 14024: u64 [s1 + 896] = 0\n 14028: u64 [s1 + 984] = 0\n 14032: u64 [s1 + 976] = 0\n 14036: u64 [s1 + 968] = 0\n 14040: u64 [s1 + 960] = 0\n 14044: u32 [s1 + 928] = 0x20\n 14049: i32 a1 = s1 + 0x380\n 14053: i32 a3 = s1 + 0x3c0\n 14057: i32 a4 = s1 + 0x3a0\n 14061: a2 = 0xffffffffffffffff\n 14064: a0 = 0\n 14066: ecalli 8 // 'get_storage'\n 14068: fallthrough\n      : @247 (gas: 16)\n 14069: a3 = u64 [s1 + 0x3d8]\n 14073: a1 = u64 [s1 + 0x3d0]\n 14077: a2 = u64 [s1 + 0x3c8]\n 14081: t2 = u64 [s1 + 0x3c0]\n 14085: t0 = a3 + 0x1\n 14088: a5 = a3 <u 0xffffffffffffffff\n 14091: a4 = a1 <u 0xffffffffffffffff\n 14094: a4 = a5 if t0 != 0\n 14097: t0 = t2 <u 0xfffffffffffeae80\n 14102: t1 = a2 + 0x1\n 14105: a5 = a2 <u 0xffffffffffffffff\n 14108: a5 = t0 if t1 == 0\n 14111: a0 = a1 & a3\n 14114: a0 = a0 + 0x1\n 14117: a5 = a4 if a0 != 0\n 14120: jump @285 if a5 == 0\n      : @248 (gas: 15)\n 14124: a0 = t2 + 0x15180\n 14129: u64 [s1 + 0x40] = a0\n 14132: a0 = a0 <u t2\n 14135: a4 = a2 + a0\n 14138: u64 [s1 + 0x38] = a4\n 14141: a2 = a4 <u a2\n 14144: a2 = a0 if a0 == 0\n 14147: a2 = a2 + a1\n 14150: u64 [s1 + 0x28] = a2\n 14153: a0 = a2 <u a1\n 14156: a0 = a0 + a3\n 14159: u64 [s1 + 0x30] = a0\n 14162: i32 a0 = s1 + 0x260\n 14166: ecalli 9 // 'now'\n 14168: fallthrough\n      : @249 (gas: 20)\n 14169: t2 = u64 [s1 + 0x270]\n 14173: a1 = u64 [s1 + 0x278]\n 14177: a2 = u64 [s1 + 0x268]\n 14181: t0 = u64 [s1 + 0x260]\n 14185: a0 = u64 [s1 + 0x28]\n 14188: a4 = a0 <u t2\n 14191: a5 = u64 [s1 + 0x30]\n 14194: a3 = a5 ^ a1\n 14197: a1 = a5 <u a1\n 14200: a1 = a4 if a3 == 0\n 14203: a4 = u64 [s1 + 0x40]\n 14206: t0 = a4 <u t0\n 14209: a4 = u64 [s1 + 0x38]\n 14212: t1 = a4 ^ a2\n 14215: a2 = a4 <u a2\n 14218: a2 = t0 if t1 == 0\n 14221: a0 = a0 ^ t2\n 14224: a0 = a0 | a3\n 14227: a2 = a1 if a0 != 0\n 14230: jump @289 if a2 == 0\n      : @250 (gas: 3)\n 14234: a0 = 0x40\n 14237: a1 = 0x20\n 14240: ra = 210, jump @0\n      : @251 [@dyn 105] (gas: 98)\n 14246: a1 = u8 [a0 + 0x11]\n 14249: a2 = u8 [a0 + 0x10]\n 14252: a3 = u8 [a0 + 0x12]\n 14255: a4 = u8 [a0 + 0x13]\n 14258: a1 = a1 << 0x8\n 14261: a1 = a1 | a2\n 14264: a3 = a3 << 0x10\n 14267: a4 = a4 << 0x18\n 14270: a3 = a3 | a4\n 14273: a1 = a1 | a3\n 14276: a2 = u8 [a0 + 0x15]\n 14279: a3 = u8 [a0 + 0x14]\n 14282: a4 = u8 [a0 + 0x16]\n 14285: a5 = u8 [a0 + 0x17]\n 14288: a2 = a2 << 0x8\n 14291: a2 = a2 | a3\n 14294: a4 = a4 << 0x10\n 14297: a5 = a5 << 0x18\n 14300: a4 = a4 | a5\n 14303: a2 = a2 | a4\n 14306: a2 = a2 << 0x20\n 14309: t0 = a2 | a1\n 14312: a2 = u8 [a0 + 0x1]\n 14315: a3 = u8 [a0]\n 14317: a4 = u8 [a0 + 0x2]\n 14320: a5 = u8 [a0 + 0x3]\n 14323: a2 = a2 << 0x8\n 14326: a2 = a2 | a3\n 14329: a4 = a4 << 0x10\n 14332: a5 = a5 << 0x18\n 14335: a4 = a4 | a5\n 14338: a2 = a2 | a4\n 14341: a3 = u8 [a0 + 0x5]\n 14344: a4 = u8 [a0 + 0x4]\n 14347: a5 = u8 [a0 + 0x6]\n 14350: a1 = u8 [a0 + 0x7]\n 14353: a3 = a3 << 0x8\n 14356: a3 = a3 | a4\n 14359: a5 = a5 << 0x10\n 14362: a1 = a1 << 0x18\n 14365: a1 = a1 | a5\n 14368: a1 = a1 | a3\n 14371: a1 = a1 << 0x20\n 14374: t1 = a1 | a2\n 14377: a1 = u8 [a0 + 0x19]\n 14380: a3 = u8 [a0 + 0x18]\n 14383: a4 = u8 [a0 + 0x1a]\n 14386: a5 = u8 [a0 + 0x1b]\n 14389: a1 = a1 << 0x8\n 14392: a1 = a1 | a3\n 14395: a4 = a4 << 0x10\n 14398: a5 = a5 << 0x18\n 14401: a4 = a4 | a5\n 14404: a1 = a1 | a4\n 14407: a3 = u8 [a0 + 0x1d]\n 14410: a4 = u8 [a0 + 0x1c]\n 14413: a5 = u8 [a0 + 0x1e]\n 14416: a2 = u8 [a0 + 0x1f]\n 14419: a3 = a3 << 0x8\n 14422: a3 = a3 | a4\n 14425: a5 = a5 << 0x10\n 14428: a2 = a2 << 0x18\n 14431: a2 = a2 | a5\n 14434: a2 = a2 | a3\n 14437: a2 = a2 << 0x20\n 14440: a3 = a2 | a1\n 14443: a1 = u8 [a0 + 0x9]\n 14446: a2 = u8 [a0 + 0x8]\n 14449: a4 = u8 [a0 + 0xa]\n 14452: a5 = u8 [a0 + 0xb]\n 14455: a1 = a1 << 0x8\n 14458: a1 = a1 | a2\n 14461: a4 = a4 << 0x10\n 14464: a5 = a5 << 0x18\n 14467: a4 = a4 | a5\n 14470: a1 = a1 | a4\n 14473: a2 = u8 [a0 + 0xd]\n 14476: a4 = u8 [a0 + 0xc]\n 14479: a5 = u8 [a0 + 0xe]\n 14482: a0 = u8 [a0 + 0xf]\n 14485: a2 = a2 << 0x8\n 14488: a2 = a2 | a4\n 14491: a5 = a5 << 0x10\n 14494: a0 = a0 << 0x18\n 14497: a0 = a0 | a5\n 14500: a0 = a0 | a2\n 14503: a0 = a0 << 0x20\n 14506: a0 = a0 | a1\n 14509: a0 = reverse a0\n 14511: u64 [s1 + 0x40] = a0\n 14514: a0 = reverse a3\n 14516: u64 [s1 + 0x28] = a0\n 14519: a0 = reverse t1\n 14521: u64 [s1 + 0x38] = a0\n 14524: a0 = reverse t0\n 14526: u64 [s1 + 0x30] = a0\n 14529: ecalli 10 // 'ref_time_left'\n 14531: fallthrough\n      : @252 (gas: 37)\n 14532: u64 [s1 + 0x20] = a0\n 14535: a0 = u64 [s1 + 0x48]\n 14538: a0 = reverse a0\n 14540: a1 = a0 << 0x20\n 14543: a2 = u64 [s1 + 0x50]\n 14546: a2 = reverse a2\n 14548: a2 = a2 >> 0x20\n 14551: a1 = a1 | a2\n 14554: a2 = u64 [s1 + 0x58]\n 14557: a2 = reverse a2\n 14559: a3 = a2 << 0x20\n 14562: a0 = a0 >> 0x20\n 14565: a0 = a0 | a3\n 14568: u64 [s1 + 0x288] = a0\n 14572: a2 = a2 >> 0x20\n 14575: u32 [s1 + 0x290] = a2\n 14579: a2 = u64 [s1 + 0x28]\n 14582: u64 [s1 + 0x280] = a1\n 14586: a0 = u64 [s1 + 0x38]\n 14589: a1 = u64 [s1 + 0x30]\n 14592: a0 = a0 | a1\n 14595: a3 = u64 [s1 + 0x40]\n 14598: a1 = a2 | a3\n 14601: a1 = a1 | a0\n 14604: a0 = a0 | a3\n 14607: a1 = a1 >> 0x20\n 14610: a0 = a0 << 0x20\n 14613: a0 = a0 | a1\n 14616: a1 = u64 [s1 + 0x60]\n 14619: u64 [s1 + 0x2b8] = a1\n 14623: a1 = u64 [s1 + 0x70]\n 14626: u64 [s1 + 0x2b0] = a1\n 14630: a1 = u64 [s1 + 0x68]\n 14633: u64 [s1 + 0x2a8] = a1\n 14637: a1 = u64 [s1 + 0x78]\n 14640: u64 [s1 + 0x2a0] = a1\n 14644: jump @284 if a0 != 0\n      : @253 (gas: 3)\n 14648: i32 a0 = a2 + 0\n 14650: a1 = 0\n 14652: ra = 212, jump @0\n      : @254 [@dyn 106] (gas: 4)\n 14658: u64 [s1 + 0x58] = a0\n 14661: a0 = 0\n 14663: a1 = 0\n 14665: ra = 214, jump @0\n      : @255 [@dyn 107] (gas: 34)\n 14671: u32 [s1 + 704] = 0\n 14675: a2 = u64 [s1 + 0x20]\n 14678: a1 = a2 >u 0x8fc\n 14682: a2 = -a1\n 14684: u64 [s1 + 0x2f8] = a2\n 14688: u64 [s1 + 0x2f0] = a2\n 14692: u64 [s1 + 0x2e8] = a2\n 14696: u64 [s1 + 0x2e0] = a2\n 14700: a2 = s1 + 0x280\n 14704: a2 = a2 << 0x20\n 14707: a2 = a2 >> 0x20\n 14710: a1 = a1 << 0x23\n 14713: t0 = a1 | a2\n 14716: a1 = s1 + 0x2a0\n 14720: a1 = a1 << 0x20\n 14723: a1 = a1 >> 0x20\n 14726: a2 = s1 + 0x2e0\n 14730: a2 = a2 << 0x20\n 14733: a3 = a2 | a1\n 14736: a4 = u64 [s1 + 0x58]\n 14739: a4 = a4 << 0x20\n 14742: a4 = a4 >> 0x20\n 14745: a0 = a0 << 0x20\n 14748: a0 = a0 >> 0x20\n 14751: a1 = s1 + 0x2c0\n 14755: a1 = a1 << 0x20\n 14758: a5 = a1 | a0\n 14761: a1 = 0xffffffffffffffff\n 14764: a2 = 0xffffffffffffffff\n 14767: a0 = t0\n 14769: ecalli 2 // 'call'\n 14771: u64 [s1 + 0x58] = a0\n 14774: a0 = s1 + 0x180\n 14778: ra = 216, jump @206\n      : @256 [@dyn 108] (gas: 2)\n 14784: a0 = u64 [s1 + 0x58]\n 14787: jump @278 if a0 != 0\n      : @257 (gas: 61)\n 14791: u64 [s1 + 920] = 0\n 14795: u64 [s1 + 912] = 0\n 14799: u64 [s1 + 904] = 0\n 14803: u64 [s1 + 896] = 0x2\n 14808: u64 [s1 + 984] = 0\n 14812: u64 [s1 + 976] = 0\n 14816: u64 [s1 + 968] = 0\n 14820: u64 [s1 + 960] = 0\n 14824: u32 [s1 + 928] = 0x20\n 14829: i32 a1 = s1 + 0x380\n 14833: i32 a3 = s1 + 0x3c0\n 14837: i32 a4 = s1 + 0x3a0\n 14841: a2 = 0xffffffffffffffff\n 14844: a0 = 0\n 14846: ecalli 8 // 'get_storage'\n 14848: a0 = u64 [s1 + 0x3c0]\n 14852: a1 = u64 [s1 + 0x3c8]\n 14856: a2 = u64 [s1 + 0x3d0]\n 14860: a3 = u64 [s1 + 0x3d8]\n 14864: a4 = 0xffff00ffffffffff\n 14874: a2 = a2 & a4\n 14877: a4 = 0x10000000000\n 14887: a2 = a2 | a4\n 14890: u64 [s1 + 920] = 0\n 14894: u64 [s1 + 912] = 0\n 14898: u64 [s1 + 904] = 0\n 14902: u64 [s1 + 896] = 0x2\n 14907: u64 [s1 + 0x3d8] = a3\n 14911: u64 [s1 + 0x3d0] = a2\n 14915: u64 [s1 + 0x3c8] = a1\n 14919: u64 [s1 + 0x3c0] = a0\n 14923: i32 a1 = s1 + 0x380\n 14927: i32 a3 = s1 + 0x3c0\n 14931: a2 = 0xffffffffffffffff\n 14934: a4 = 0x20\n 14937: a0 = 0\n 14939: ecalli 15 // 'set_storage'\n 14941: u64 [s1 + 920] = 0\n 14945: u64 [s1 + 912] = 0\n 14949: u64 [s1 + 904] = 0\n 14953: u64 [s1 + 896] = 0x2\n 14958: u64 [s1 + 984] = 0\n 14962: u64 [s1 + 976] = 0\n 14966: u64 [s1 + 968] = 0\n 14970: u64 [s1 + 960] = 0\n 14974: u32 [s1 + 928] = 0x20\n 14979: i32 a1 = s1 + 0x380\n 14983: i32 a3 = s1 + 0x3c0\n 14987: i32 a4 = s1 + 0x3a0\n 14991: a2 = 0xffffffffffffffff\n 14994: a0 = 0\n 14996: ecalli 8 // 'get_storage'\n 14998: a0 = u64 [s1 + 0x3d0]\n 15002: u64 [s1 + 0x48] = a0\n 15005: a0 = u64 [s1 + 0x3c8]\n 15009: u64 [s1 + 0x50] = a0\n 15012: a0 = u64 [s1 + 0x3c0]\n 15016: u64 [s1 + 0x58] = a0\n 15019: a0 = 0x40\n 15022: a1 = 0x20\n 15025: ra = 218, jump @0\n      : @258 [@dyn 109] (gas: 100)\n 15031: a1 = u8 [a0 + 0x11]\n 15034: a2 = u8 [a0 + 0x10]\n 15037: a3 = u8 [a0 + 0x12]\n 15040: a4 = u8 [a0 + 0x13]\n 15043: a1 = a1 << 0x8\n 15046: a1 = a1 | a2\n 15049: a3 = a3 << 0x10\n 15052: a4 = a4 << 0x18\n 15055: a3 = a3 | a4\n 15058: a1 = a1 | a3\n 15061: a2 = u8 [a0 + 0x15]\n 15064: a3 = u8 [a0 + 0x14]\n 15067: a4 = u8 [a0 + 0x16]\n 15070: a5 = u8 [a0 + 0x17]\n 15073: a2 = a2 << 0x8\n 15076: a2 = a2 | a3\n 15079: a4 = a4 << 0x10\n 15082: a5 = a5 << 0x18\n 15085: a4 = a4 | a5\n 15088: a2 = a2 | a4\n 15091: a2 = a2 << 0x20\n 15094: t0 = a2 | a1\n 15097: a2 = u8 [a0 + 0x1]\n 15100: a3 = u8 [a0]\n 15102: a4 = u8 [a0 + 0x2]\n 15105: a5 = u8 [a0 + 0x3]\n 15108: a2 = a2 << 0x8\n 15111: a2 = a2 | a3\n 15114: a4 = a4 << 0x10\n 15117: a5 = a5 << 0x18\n 15120: a4 = a4 | a5\n 15123: a2 = a2 | a4\n 15126: a3 = u8 [a0 + 0x5]\n 15129: a4 = u8 [a0 + 0x4]\n 15132: a5 = u8 [a0 + 0x6]\n 15135: a1 = u8 [a0 + 0x7]\n 15138: a3 = a3 << 0x8\n 15141: a3 = a3 | a4\n 15144: a5 = a5 << 0x10\n 15147: a1 = a1 << 0x18\n 15150: a1 = a1 | a5\n 15153: a1 = a1 | a3\n 15156: a1 = a1 << 0x20\n 15159: t1 = a1 | a2\n 15162: a1 = u8 [a0 + 0x19]\n 15165: a3 = u8 [a0 + 0x18]\n 15168: a4 = u8 [a0 + 0x1a]\n 15171: a5 = u8 [a0 + 0x1b]\n 15174: a1 = a1 << 0x8\n 15177: a1 = a1 | a3\n 15180: a4 = a4 << 0x10\n 15183: a5 = a5 << 0x18\n 15186: a4 = a4 | a5\n 15189: a1 = a1 | a4\n 15192: a3 = u8 [a0 + 0x1d]\n 15195: a4 = u8 [a0 + 0x1c]\n 15198: a5 = u8 [a0 + 0x1e]\n 15201: a2 = u8 [a0 + 0x1f]\n 15204: a3 = a3 << 0x8\n 15207: a3 = a3 | a4\n 15210: a5 = a5 << 0x10\n 15213: a2 = a2 << 0x18\n 15216: a2 = a2 | a5\n 15219: a2 = a2 | a3\n 15222: a2 = a2 << 0x20\n 15225: a3 = a2 | a1\n 15228: a1 = u8 [a0 + 0x9]\n 15231: a2 = u8 [a0 + 0x8]\n 15234: a4 = u8 [a0 + 0xa]\n 15237: a5 = u8 [a0 + 0xb]\n 15240: a1 = a1 << 0x8\n 15243: a1 = a1 | a2\n 15246: a4 = a4 << 0x10\n 15249: a5 = a5 << 0x18\n 15252: a4 = a4 | a5\n 15255: a1 = a1 | a4\n 15258: a2 = u8 [a0 + 0xd]\n 15261: a4 = u8 [a0 + 0xc]\n 15264: a5 = u8 [a0 + 0xe]\n 15267: a0 = u8 [a0 + 0xf]\n 15270: a2 = a2 << 0x8\n 15273: a2 = a2 | a4\n 15276: a5 = a5 << 0x10\n 15279: a0 = a0 << 0x18\n 15282: a0 = a0 | a5\n 15285: a0 = a0 | a2\n 15288: a0 = a0 << 0x20\n 15291: a0 = a0 | a1\n 15294: a1 = reverse a0\n 15296: a0 = reverse a3\n 15298: a2 = reverse t1\n 15300: a3 = reverse t0\n 15302: a2 = a2 | a3\n 15305: a3 = a0 | a1\n 15308: a3 = a3 | a2\n 15311: a3 = a3 >> 0x20\n 15314: a1 = a1 | a2\n 15317: a1 = a1 << 0x20\n 15320: a1 = a1 | a3\n 15323: jump @284 if a1 != 0\n      : @259 (gas: 8)\n 15327: a1 = u64 [s1 + 0x48]\n 15330: a1 = a1 << 0x20\n 15333: a1 = a1 >> 0x20\n 15336: u64 [s1 + 0x48] = a1\n 15339: i32 a0 = a0 + 0\n 15341: u64 [s1 + 0x40] = a0\n 15344: a1 = 0x20\n 15347: ra = 220, jump @0\n      : @260 [@dyn 110] (gas: 71)\n 15353: a1 = u64 [s1 + 0x60]\n 15356: a1 = reverse a1\n 15358: a2 = u64 [s1 + 0x70]\n 15361: a2 = reverse a2\n 15363: a3 = u64 [s1 + 0x68]\n 15366: a3 = reverse a3\n 15368: a4 = u64 [s1 + 0x78]\n 15371: a4 = reverse a4\n 15373: a5 = a4 >> 0x38\n 15376: u8 [a0 + 0x1f] = a5\n 15379: a5 = a4 >> 0x30\n 15382: u8 [a0 + 0x1e] = a5\n 15385: a5 = a4 >> 0x28\n 15388: u8 [a0 + 0x1d] = a5\n 15391: a5 = a4 >> 0x20\n 15394: u8 [a0 + 0x1c] = a5\n 15397: a5 = a4 >> 0x18\n 15400: u8 [a0 + 0x1b] = a5\n 15403: a5 = a4 >> 0x10\n 15406: u8 [a0 + 0x1a] = a5\n 15409: a5 = a4 >> 0x8\n 15412: u8 [a0 + 0x19] = a5\n 15415: u8 [a0 + 0x18] = a4\n 15418: u8 [a0 + 0x10] = a3\n 15421: a4 = a3 >> 0x38\n 15424: u8 [a0 + 0x17] = a4\n 15427: a4 = a3 >> 0x30\n 15430: u8 [a0 + 0x16] = a4\n 15433: a4 = a3 >> 0x28\n 15436: u8 [a0 + 0x15] = a4\n 15439: a4 = a3 >> 0x20\n 15442: u8 [a0 + 0x14] = a4\n 15445: a4 = a3 >> 0x18\n 15448: u8 [a0 + 0x13] = a4\n 15451: a4 = a3 >> 0x10\n 15454: u8 [a0 + 0x12] = a4\n 15457: a3 = a3 >> 0x8\n 15460: u8 [a0 + 0x11] = a3\n 15463: u8 [a0 + 0x8] = a2\n 15466: a3 = a2 >> 0x38\n 15469: u8 [a0 + 0xf] = a3\n 15472: a3 = a2 >> 0x30\n 15475: u8 [a0 + 0xe] = a3\n 15478: a3 = a2 >> 0x28\n 15481: u8 [a0 + 0xd] = a3\n 15484: a3 = a2 >> 0x20\n 15487: u8 [a0 + 0xc] = a3\n 15490: a3 = a2 >> 0x18\n 15493: u8 [a0 + 0xb] = a3\n 15496: a3 = a2 >> 0x10\n 15499: u8 [a0 + 0xa] = a3\n 15502: a2 = a2 >> 0x8\n 15505: u8 [a0 + 0x9] = a2\n 15508: u8 [a0] = a1\n 15510: a2 = a1 >> 0x38\n 15513: u8 [a0 + 0x7] = a2\n 15516: a2 = a1 >> 0x30\n 15519: u8 [a0 + 0x6] = a2\n 15522: a2 = a1 >> 0x28\n 15525: u8 [a0 + 0x5] = a2\n 15528: a2 = a1 >> 0x20\n 15531: u8 [a0 + 0x4] = a2\n 15534: a2 = a1 >> 0x18\n 15537: u8 [a0 + 0x3] = a2\n 15540: a2 = a1 >> 0x10\n 15543: u8 [a0 + 0x2] = a2\n 15546: a1 = a1 >> 0x8\n 15549: u8 [a0 + 0x1] = a1\n 15552: a1 = 0x20\n 15555: a0 = u64 [s1 + 0x40]\n 15558: ra = 222, jump @0\n      : @261 [@dyn 111] (gas: 5)\n 15564: a1 = u64 [0x20000]\n 15569: a2 = u64 [0x20008]\n 15574: a3 = u64 [0x20010]\n 15579: a4 = u64 [0x20018]\n 15584: fallthrough\n      : @262 (gas: 25)\n 15585: u64 [s1 + 0x3d8] = a1\n 15589: u64 [s1 + 0x3d0] = a2\n 15593: u64 [s1 + 0x3c8] = a3\n 15597: u64 [s1 + 0x3c0] = a4\n 15601: a1 = u64 [s1 + 0x48]\n 15604: a1 = reverse a1\n 15606: a2 = u64 [s1 + 0x50]\n 15609: a2 = reverse a2\n 15611: a3 = u64 [s1 + 0x58]\n 15614: a3 = reverse a3\n 15616: u64 [s1 + 0x3f8] = a3\n 15620: u64 [s1 + 0x3f0] = a2\n 15624: u64 [s1 + 0x3e8] = a1\n 15628: u64 [s1 + 992] = 0\n 15632: i32 a2 = a0 + 0\n 15634: i32 a0 = s1 + 0x3c0\n 15638: a1 = 0x2\n 15641: a3 = 0x20\n 15644: ecalli 7 // 'deposit_event'\n 15646: sp = s0 + 0xfffffffffffffbe0\n 15650: ra = u64 [sp + 0x418]\n 15654: s0 = u64 [sp + 0x410]\n 15658: s1 = u64 [sp + 0x408]\n 15662: sp = sp + 0x420\n 15666: ret\n      : @263 (gas: 3)\n 15668: a0 = 0x40\n 15671: a1 = 0x20\n 15674: ra = 224, jump @0\n      : @264 [@dyn 112] (gas: 104)\n 15680: a1 = u8 [a0 + 0x11]\n 15683: a2 = u8 [a0 + 0x10]\n 15686: a3 = u8 [a0 + 0x12]\n 15689: a4 = u8 [a0 + 0x13]\n 15692: a1 = a1 << 0x8\n 15695: a1 = a1 | a2\n 15698: a3 = a3 << 0x10\n 15701: a4 = a4 << 0x18\n 15704: a3 = a3 | a4\n 15707: a1 = a1 | a3\n 15710: a2 = u8 [a0 + 0x15]\n 15713: a3 = u8 [a0 + 0x14]\n 15716: a4 = u8 [a0 + 0x16]\n 15719: a5 = u8 [a0 + 0x17]\n 15722: a2 = a2 << 0x8\n 15725: a2 = a2 | a3\n 15728: a4 = a4 << 0x10\n 15731: a5 = a5 << 0x18\n 15734: a4 = a4 | a5\n 15737: a2 = a2 | a4\n 15740: a2 = a2 << 0x20\n 15743: t0 = a2 | a1\n 15746: a2 = u8 [a0 + 0x1]\n 15749: a3 = u8 [a0]\n 15751: a4 = u8 [a0 + 0x2]\n 15754: a5 = u8 [a0 + 0x3]\n 15757: a2 = a2 << 0x8\n 15760: a2 = a2 | a3\n 15763: a4 = a4 << 0x10\n 15766: a5 = a5 << 0x18\n 15769: a4 = a4 | a5\n 15772: a2 = a2 | a4\n 15775: a3 = u8 [a0 + 0x5]\n 15778: a4 = u8 [a0 + 0x4]\n 15781: a5 = u8 [a0 + 0x6]\n 15784: a1 = u8 [a0 + 0x7]\n 15787: a3 = a3 << 0x8\n 15790: a3 = a3 | a4\n 15793: a5 = a5 << 0x10\n 15796: a1 = a1 << 0x18\n 15799: a1 = a1 | a5\n 15802: a1 = a1 | a3\n 15805: a1 = a1 << 0x20\n 15808: t1 = a1 | a2\n 15811: a1 = u8 [a0 + 0x19]\n 15814: a3 = u8 [a0 + 0x18]\n 15817: a4 = u8 [a0 + 0x1a]\n 15820: a5 = u8 [a0 + 0x1b]\n 15823: a1 = a1 << 0x8\n 15826: a1 = a1 | a3\n 15829: a4 = a4 << 0x10\n 15832: a5 = a5 << 0x18\n 15835: a4 = a4 | a5\n 15838: a1 = a1 | a4\n 15841: a3 = u8 [a0 + 0x1d]\n 15844: a4 = u8 [a0 + 0x1c]\n 15847: a5 = u8 [a0 + 0x1e]\n 15850: a2 = u8 [a0 + 0x1f]\n 15853: a3 = a3 << 0x8\n 15856: a3 = a3 | a4\n 15859: a5 = a5 << 0x10\n 15862: a2 = a2 << 0x18\n 15865: a2 = a2 | a5\n 15868: a2 = a2 | a3\n 15871: a2 = a2 << 0x20\n 15874: a3 = a2 | a1\n 15877: a1 = u8 [a0 + 0x9]\n 15880: a2 = u8 [a0 + 0x8]\n 15883: a4 = u8 [a0 + 0xa]\n 15886: a5 = u8 [a0 + 0xb]\n 15889: a1 = a1 << 0x8\n 15892: a1 = a1 | a2\n 15895: a4 = a4 << 0x10\n 15898: a5 = a5 << 0x18\n 15901: a4 = a4 | a5\n 15904: a1 = a1 | a4\n 15907: a2 = u8 [a0 + 0xd]\n 15910: a4 = u8 [a0 + 0xc]\n 15913: a5 = u8 [a0 + 0xe]\n 15916: a0 = u8 [a0 + 0xf]\n 15919: a2 = a2 << 0x8\n 15922: a2 = a2 | a4\n 15925: a5 = a5 << 0x10\n 15928: a0 = a0 << 0x18\n 15931: a0 = a0 | a5\n 15934: a0 = a0 | a2\n 15937: a0 = a0 << 0x20\n 15940: a0 = a0 | a1\n 15943: a4 = reverse a0\n 15945: a1 = reverse a3\n 15947: a2 = reverse t1\n 15949: a0 = reverse t0\n 15951: u64 [s1 + 0x78] = a0\n 15954: u64 [s1 + 0x68] = a2\n 15957: a0 = a0 | a2\n 15960: a2 = a1\n 15962: a1 = a1 | a4\n 15965: a1 = a1 | a0\n 15968: a1 = a1 >> 0x20\n 15971: u64 [s1 + 0x70] = a4\n 15974: a0 = a0 | a4\n 15977: a0 = a0 << 0x20\n 15980: a0 = a0 | a1\n 15983: jump @284 if a0 != 0\n      : @265 (gas: 5)\n 15987: u64 [s1 + 0x60] = a2\n 15990: i32 a0 = a2 + 0\n 15992: a1 = 0x20\n 15995: u64 [s1 + 0x58] = a0\n 15998: ra = 226, jump @0\n      : @266 [@dyn 113] (gas: 51)\n 16004: u8 [a0 + 31] = 0\n 16007: u8 [a0 + 30] = 0\n 16010: u8 [a0 + 29] = 0\n 16013: u8 [a0 + 28] = 0\n 16016: u8 [a0 + 27] = 0\n 16019: u8 [a0 + 26] = 0\n 16022: u8 [a0 + 25] = 0\n 16025: u8 [a0 + 24] = 0\n 16028: u8 [a0 + 23] = 0\n 16031: u8 [a0 + 22] = 0\n 16034: u8 [a0 + 21] = 0\n 16037: u8 [a0 + 20] = 0\n 16040: u8 [a0 + 19] = 0\n 16043: u8 [a0 + 18] = 0\n 16046: u8 [a0 + 17] = 0\n 16049: u8 [a0 + 16] = 0\n 16052: u8 [a0 + 15] = 0\n 16055: u8 [a0 + 14] = 0\n 16058: u8 [a0 + 13] = 0\n 16061: u8 [a0 + 12] = 0\n 16064: u8 [a0 + 11] = 0\n 16067: u8 [a0 + 10] = 0\n 16070: u8 [a0 + 9] = 0\n 16073: u8 [a0 + 8] = 0\n 16076: u8 [a0 + 7] = 0\n 16079: u8 [a0 + 6] = 0\n 16082: u8 [a0 + 5] = 0\n 16085: u8 [a0 + 4] = 0\n 16088: u8 [a0 + 3] = 0xa0\n 16093: u8 [a0 + 2] = 0x79\n 16097: u8 [a0 + 1] = 0xc3\n 16102: u8 [a0 + 0] = 0x8\n 16105: a1 = u64 [s1 + 0x60]\n 16108: a0 = a1 + 0x4\n 16111: a1 = a0 <u a1\n 16114: a3 = u64 [s1 + 0x78]\n 16117: a2 = a3 + a1\n 16120: a3 = a2 <u a3\n 16123: a3 = a1 if a1 == 0\n 16126: a1 = u64 [s1 + 0x70]\n 16129: a3 = a3 + a1\n 16132: a1 = a3 <u a1\n 16135: a4 = u64 [s1 + 0x68]\n 16138: a4 = a4 + a1\n 16141: u64 [s1 + 0xc8] = a2\n 16145: u64 [s1 + 0xc0] = a0\n 16149: u64 [s1 + 0xd0] = a3\n 16153: a0 = s1 + 0xe0\n 16157: a1 = s1 + 0xc0\n 16161: u64 [s1 + 0xd8] = a4\n 16165: ra = 228, jump @173\n      : @267 [@dyn 114] (gas: 5)\n 16171: a0 = u64 [s1 + 0xe8]\n 16175: t0 = u64 [s1 + 0xf8]\n 16179: t1 = u64 [s1 + 0xe0]\n 16183: a3 = u64 [s1 + 0xf0]\n 16187: jump @283\n      : @268 (gas: 3)\n 16190: a0 = 0x40\n 16193: a1 = 0x20\n 16196: ra = 230, jump @0\n      : @269 [@dyn 115] (gas: 104)\n 16202: a1 = u8 [a0 + 0x11]\n 16205: a2 = u8 [a0 + 0x10]\n 16208: a3 = u8 [a0 + 0x12]\n 16211: a4 = u8 [a0 + 0x13]\n 16214: a1 = a1 << 0x8\n 16217: a1 = a1 | a2\n 16220: a3 = a3 << 0x10\n 16223: a4 = a4 << 0x18\n 16226: a3 = a3 | a4\n 16229: a1 = a1 | a3\n 16232: a2 = u8 [a0 + 0x15]\n 16235: a3 = u8 [a0 + 0x14]\n 16238: a4 = u8 [a0 + 0x16]\n 16241: a5 = u8 [a0 + 0x17]\n 16244: a2 = a2 << 0x8\n 16247: a2 = a2 | a3\n 16250: a4 = a4 << 0x10\n 16253: a5 = a5 << 0x18\n 16256: a4 = a4 | a5\n 16259: a2 = a2 | a4\n 16262: a2 = a2 << 0x20\n 16265: t0 = a2 | a1\n 16268: a2 = u8 [a0 + 0x1]\n 16271: a3 = u8 [a0]\n 16273: a4 = u8 [a0 + 0x2]\n 16276: a5 = u8 [a0 + 0x3]\n 16279: a2 = a2 << 0x8\n 16282: a2 = a2 | a3\n 16285: a4 = a4 << 0x10\n 16288: a5 = a5 << 0x18\n 16291: a4 = a4 | a5\n 16294: a2 = a2 | a4\n 16297: a3 = u8 [a0 + 0x5]\n 16300: a4 = u8 [a0 + 0x4]\n 16303: a5 = u8 [a0 + 0x6]\n 16306: a1 = u8 [a0 + 0x7]\n 16309: a3 = a3 << 0x8\n 16312: a3 = a3 | a4\n 16315: a5 = a5 << 0x10\n 16318: a1 = a1 << 0x18\n 16321: a1 = a1 | a5\n 16324: a1 = a1 | a3\n 16327: a1 = a1 << 0x20\n 16330: t1 = a1 | a2\n 16333: a1 = u8 [a0 + 0x19]\n 16336: a3 = u8 [a0 + 0x18]\n 16339: a4 = u8 [a0 + 0x1a]\n 16342: a5 = u8 [a0 + 0x1b]\n 16345: a1 = a1 << 0x8\n 16348: a1 = a1 | a3\n 16351: a4 = a4 << 0x10\n 16354: a5 = a5 << 0x18\n 16357: a4 = a4 | a5\n 16360: a1 = a1 | a4\n 16363: a3 = u8 [a0 + 0x1d]\n 16366: a4 = u8 [a0 + 0x1c]\n 16369: a5 = u8 [a0 + 0x1e]\n 16372: a2 = u8 [a0 + 0x1f]\n 16375: a3 = a3 << 0x8\n 16378: a3 = a3 | a4\n 16381: a5 = a5 << 0x10\n 16384: a2 = a2 << 0x18\n 16387: a2 = a2 | a5\n 16390: a2 = a2 | a3\n 16393: a2 = a2 << 0x20\n 16396: a3 = a2 | a1\n 16399: a1 = u8 [a0 + 0x9]\n 16402: a2 = u8 [a0 + 0x8]\n 16405: a4 = u8 [a0 + 0xa]\n 16408: a5 = u8 [a0 + 0xb]\n 16411: a1 = a1 << 0x8\n 16414: a1 = a1 | a2\n 16417: a4 = a4 << 0x10\n 16420: a5 = a5 << 0x18\n 16423: a4 = a4 | a5\n 16426: a1 = a1 | a4\n 16429: a2 = u8 [a0 + 0xd]\n 16432: a4 = u8 [a0 + 0xc]\n 16435: a5 = u8 [a0 + 0xe]\n 16438: a0 = u8 [a0 + 0xf]\n 16441: a2 = a2 << 0x8\n 16444: a2 = a2 | a4\n 16447: a5 = a5 << 0x10\n 16450: a0 = a0 << 0x18\n 16453: a0 = a0 | a5\n 16456: a0 = a0 | a2\n 16459: a0 = a0 << 0x20\n 16462: a0 = a0 | a1\n 16465: a4 = reverse a0\n 16467: a1 = reverse a3\n 16469: a2 = reverse t1\n 16471: a0 = reverse t0\n 16473: u64 [s1 + 0x78] = a0\n 16476: u64 [s1 + 0x68] = a2\n 16479: a0 = a0 | a2\n 16482: a2 = a1\n 16484: a1 = a1 | a4\n 16487: a1 = a1 | a0\n 16490: a1 = a1 >> 0x20\n 16493: u64 [s1 + 0x70] = a4\n 16496: a0 = a0 | a4\n 16499: a0 = a0 << 0x20\n 16502: a0 = a0 | a1\n 16505: jump @284 if a0 != 0\n      : @270 (gas: 5)\n 16509: u64 [s1 + 0x60] = a2\n 16512: i32 a0 = a2 + 0\n 16514: a1 = 0x20\n 16517: u64 [s1 + 0x58] = a0\n 16520: ra = 232, jump @0\n      : @271 [@dyn 116] (gas: 51)\n 16526: u8 [a0 + 31] = 0\n 16529: u8 [a0 + 30] = 0\n 16532: u8 [a0 + 29] = 0\n 16535: u8 [a0 + 28] = 0\n 16538: u8 [a0 + 27] = 0\n 16541: u8 [a0 + 26] = 0\n 16544: u8 [a0 + 25] = 0\n 16547: u8 [a0 + 24] = 0\n 16550: u8 [a0 + 23] = 0\n 16553: u8 [a0 + 22] = 0\n 16556: u8 [a0 + 21] = 0\n 16559: u8 [a0 + 20] = 0\n 16562: u8 [a0 + 19] = 0\n 16565: u8 [a0 + 18] = 0\n 16568: u8 [a0 + 17] = 0\n 16571: u8 [a0 + 16] = 0\n 16574: u8 [a0 + 15] = 0\n 16577: u8 [a0 + 14] = 0\n 16580: u8 [a0 + 13] = 0\n 16583: u8 [a0 + 12] = 0\n 16586: u8 [a0 + 11] = 0\n 16589: u8 [a0 + 10] = 0\n 16592: u8 [a0 + 9] = 0\n 16595: u8 [a0 + 8] = 0\n 16598: u8 [a0 + 7] = 0\n 16601: u8 [a0 + 6] = 0\n 16604: u8 [a0 + 5] = 0\n 16607: u8 [a0 + 4] = 0\n 16610: u8 [a0 + 3] = 0xa0\n 16615: u8 [a0 + 2] = 0x79\n 16619: u8 [a0 + 1] = 0xc3\n 16624: u8 [a0 + 0] = 0x8\n 16627: a1 = u64 [s1 + 0x60]\n 16630: a0 = a1 + 0x4\n 16633: a1 = a0 <u a1\n 16636: a3 = u64 [s1 + 0x78]\n 16639: a2 = a3 + a1\n 16642: a3 = a2 <u a3\n 16645: a3 = a1 if a1 == 0\n 16648: a1 = u64 [s1 + 0x70]\n 16651: a3 = a3 + a1\n 16654: a1 = a3 <u a1\n 16657: a4 = u64 [s1 + 0x68]\n 16660: a4 = a4 + a1\n 16663: u64 [s1 + 0x88] = a2\n 16667: u64 [s1 + 0x80] = a0\n 16671: u64 [s1 + 0x90] = a3\n 16675: a0 = s1 + 0xa0\n 16679: a1 = s1 + 0x80\n 16683: u64 [s1 + 0x98] = a4\n 16687: ra = 234, jump @165\n      : @272 [@dyn 117] (gas: 5)\n 16693: a0 = u64 [s1 + 0xa8]\n 16697: t0 = u64 [s1 + 0xb8]\n 16701: t1 = u64 [s1 + 0xa0]\n 16705: a3 = u64 [s1 + 0xb0]\n 16709: jump @283\n      : @273 (gas: 3)\n 16712: a0 = 0x40\n 16715: a1 = 0x20\n 16718: ra = 236, jump @0\n      : @274 [@dyn 118] (gas: 104)\n 16724: a1 = u8 [a0 + 0x11]\n 16727: a2 = u8 [a0 + 0x10]\n 16730: a3 = u8 [a0 + 0x12]\n 16733: a4 = u8 [a0 + 0x13]\n 16736: a1 = a1 << 0x8\n 16739: a1 = a1 | a2\n 16742: a3 = a3 << 0x10\n 16745: a4 = a4 << 0x18\n 16748: a3 = a3 | a4\n 16751: a1 = a1 | a3\n 16754: a2 = u8 [a0 + 0x15]\n 16757: a3 = u8 [a0 + 0x14]\n 16760: a4 = u8 [a0 + 0x16]\n 16763: a5 = u8 [a0 + 0x17]\n 16766: a2 = a2 << 0x8\n 16769: a2 = a2 | a3\n 16772: a4 = a4 << 0x10\n 16775: a5 = a5 << 0x18\n 16778: a4 = a4 | a5\n 16781: a2 = a2 | a4\n 16784: a2 = a2 << 0x20\n 16787: t0 = a2 | a1\n 16790: a2 = u8 [a0 + 0x1]\n 16793: a3 = u8 [a0]\n 16795: a4 = u8 [a0 + 0x2]\n 16798: a5 = u8 [a0 + 0x3]\n 16801: a2 = a2 << 0x8\n 16804: a2 = a2 | a3\n 16807: a4 = a4 << 0x10\n 16810: a5 = a5 << 0x18\n 16813: a4 = a4 | a5\n 16816: a2 = a2 | a4\n 16819: a3 = u8 [a0 + 0x5]\n 16822: a4 = u8 [a0 + 0x4]\n 16825: a5 = u8 [a0 + 0x6]\n 16828: a1 = u8 [a0 + 0x7]\n 16831: a3 = a3 << 0x8\n 16834: a3 = a3 | a4\n 16837: a5 = a5 << 0x10\n 16840: a1 = a1 << 0x18\n 16843: a1 = a1 | a5\n 16846: a1 = a1 | a3\n 16849: a1 = a1 << 0x20\n 16852: t1 = a1 | a2\n 16855: a1 = u8 [a0 + 0x19]\n 16858: a3 = u8 [a0 + 0x18]\n 16861: a4 = u8 [a0 + 0x1a]\n 16864: a5 = u8 [a0 + 0x1b]\n 16867: a1 = a1 << 0x8\n 16870: a1 = a1 | a3\n 16873: a4 = a4 << 0x10\n 16876: a5 = a5 << 0x18\n 16879: a4 = a4 | a5\n 16882: a1 = a1 | a4\n 16885: a3 = u8 [a0 + 0x1d]\n 16888: a4 = u8 [a0 + 0x1c]\n 16891: a5 = u8 [a0 + 0x1e]\n 16894: a2 = u8 [a0 + 0x1f]\n 16897: a3 = a3 << 0x8\n 16900: a3 = a3 | a4\n 16903: a5 = a5 << 0x10\n 16906: a2 = a2 << 0x18\n 16909: a2 = a2 | a5\n 16912: a2 = a2 | a3\n 16915: a2 = a2 << 0x20\n 16918: a3 = a2 | a1\n 16921: a1 = u8 [a0 + 0x9]\n 16924: a2 = u8 [a0 + 0x8]\n 16927: a4 = u8 [a0 + 0xa]\n 16930: a5 = u8 [a0 + 0xb]\n 16933: a1 = a1 << 0x8\n 16936: a1 = a1 | a2\n 16939: a4 = a4 << 0x10\n 16942: a5 = a5 << 0x18\n 16945: a4 = a4 | a5\n 16948: a1 = a1 | a4\n 16951: a2 = u8 [a0 + 0xd]\n 16954: a4 = u8 [a0 + 0xc]\n 16957: a5 = u8 [a0 + 0xe]\n 16960: a0 = u8 [a0 + 0xf]\n 16963: a2 = a2 << 0x8\n 16966: a2 = a2 | a4\n 16969: a5 = a5 << 0x10\n 16972: a0 = a0 << 0x18\n 16975: a0 = a0 | a5\n 16978: a0 = a0 | a2\n 16981: a0 = a0 << 0x20\n 16984: a0 = a0 | a1\n 16987: a4 = reverse a0\n 16989: a1 = reverse a3\n 16991: a2 = reverse t1\n 16993: a0 = reverse t0\n 16995: u64 [s1 + 0x78] = a0\n 16998: u64 [s1 + 0x68] = a2\n 17001: a0 = a0 | a2\n 17004: a2 = a1\n 17006: a1 = a1 | a4\n 17009: a1 = a1 | a0\n 17012: a1 = a1 >> 0x20\n 17015: u64 [s1 + 0x70] = a4\n 17018: a0 = a0 | a4\n 17021: a0 = a0 << 0x20\n 17024: a0 = a0 | a1\n 17027: jump @284 if a0 != 0\n      : @275 (gas: 5)\n 17031: u64 [s1 + 0x60] = a2\n 17034: i32 a0 = a2 + 0\n 17036: a1 = 0x20\n 17039: u64 [s1 + 0x58] = a0\n 17042: ra = 238, jump @0\n      : @276 [@dyn 119] (gas: 51)\n 17048: u8 [a0 + 31] = 0\n 17051: u8 [a0 + 30] = 0\n 17054: u8 [a0 + 29] = 0\n 17057: u8 [a0 + 28] = 0\n 17060: u8 [a0 + 27] = 0\n 17063: u8 [a0 + 26] = 0\n 17066: u8 [a0 + 25] = 0\n 17069: u8 [a0 + 24] = 0\n 17072: u8 [a0 + 23] = 0\n 17075: u8 [a0 + 22] = 0\n 17078: u8 [a0 + 21] = 0\n 17081: u8 [a0 + 20] = 0\n 17084: u8 [a0 + 19] = 0\n 17087: u8 [a0 + 18] = 0\n 17090: u8 [a0 + 17] = 0\n 17093: u8 [a0 + 16] = 0\n 17096: u8 [a0 + 15] = 0\n 17099: u8 [a0 + 14] = 0\n 17102: u8 [a0 + 13] = 0\n 17105: u8 [a0 + 12] = 0\n 17108: u8 [a0 + 11] = 0\n 17111: u8 [a0 + 10] = 0\n 17114: u8 [a0 + 9] = 0\n 17117: u8 [a0 + 8] = 0\n 17120: u8 [a0 + 7] = 0\n 17123: u8 [a0 + 6] = 0\n 17126: u8 [a0 + 5] = 0\n 17129: u8 [a0 + 4] = 0\n 17132: u8 [a0 + 3] = 0xa0\n 17137: u8 [a0 + 2] = 0x79\n 17141: u8 [a0 + 1] = 0xc3\n 17146: u8 [a0 + 0] = 0x8\n 17149: a1 = u64 [s1 + 0x60]\n 17152: a0 = a1 + 0x4\n 17155: a1 = a0 <u a1\n 17158: a3 = u64 [s1 + 0x78]\n 17161: a2 = a3 + a1\n 17164: a3 = a2 <u a3\n 17167: a3 = a1 if a1 == 0\n 17170: a1 = u64 [s1 + 0x70]\n 17173: a3 = a3 + a1\n 17176: a1 = a3 <u a1\n 17179: a4 = u64 [s1 + 0x68]\n 17182: a4 = a4 + a1\n 17185: u64 [s1 + 0x1a8] = a2\n 17189: u64 [s1 + 0x1a0] = a0\n 17193: u64 [s1 + 0x1b0] = a3\n 17197: a0 = s1 + 0x1c0\n 17201: a1 = s1 + 0x1a0\n 17205: u64 [s1 + 0x1b8] = a4\n 17209: ra = 240, jump @218\n      : @277 [@dyn 120] (gas: 5)\n 17215: a0 = u64 [s1 + 0x1c8]\n 17219: t0 = u64 [s1 + 0x1d8]\n 17223: t1 = u64 [s1 + 0x1c0]\n 17227: a3 = u64 [s1 + 0x1d0]\n 17231: jump @283\n      : @278 (gas: 3)\n 17234: a0 = 0x40\n 17237: a1 = 0x20\n 17240: ra = 242, jump @0\n      : @279 [@dyn 121] (gas: 104)\n 17246: a1 = u8 [a0 + 0x11]\n 17249: a2 = u8 [a0 + 0x10]\n 17252: a3 = u8 [a0 + 0x12]\n 17255: a4 = u8 [a0 + 0x13]\n 17258: a1 = a1 << 0x8\n 17261: a1 = a1 | a2\n 17264: a3 = a3 << 0x10\n 17267: a4 = a4 << 0x18\n 17270: a3 = a3 | a4\n 17273: a1 = a1 | a3\n 17276: a2 = u8 [a0 + 0x15]\n 17279: a3 = u8 [a0 + 0x14]\n 17282: a4 = u8 [a0 + 0x16]\n 17285: a5 = u8 [a0 + 0x17]\n 17288: a2 = a2 << 0x8\n 17291: a2 = a2 | a3\n 17294: a4 = a4 << 0x10\n 17297: a5 = a5 << 0x18\n 17300: a4 = a4 | a5\n 17303: a2 = a2 | a4\n 17306: a2 = a2 << 0x20\n 17309: t0 = a2 | a1\n 17312: a2 = u8 [a0 + 0x1]\n 17315: a3 = u8 [a0]\n 17317: a4 = u8 [a0 + 0x2]\n 17320: a5 = u8 [a0 + 0x3]\n 17323: a2 = a2 << 0x8\n 17326: a2 = a2 | a3\n 17329: a4 = a4 << 0x10\n 17332: a5 = a5 << 0x18\n 17335: a4 = a4 | a5\n 17338: a2 = a2 | a4\n 17341: a3 = u8 [a0 + 0x5]\n 17344: a4 = u8 [a0 + 0x4]\n 17347: a5 = u8 [a0 + 0x6]\n 17350: a1 = u8 [a0 + 0x7]\n 17353: a3 = a3 << 0x8\n 17356: a3 = a3 | a4\n 17359: a5 = a5 << 0x10\n 17362: a1 = a1 << 0x18\n 17365: a1 = a1 | a5\n 17368: a1 = a1 | a3\n 17371: a1 = a1 << 0x20\n 17374: t1 = a1 | a2\n 17377: a1 = u8 [a0 + 0x19]\n 17380: a3 = u8 [a0 + 0x18]\n 17383: a4 = u8 [a0 + 0x1a]\n 17386: a5 = u8 [a0 + 0x1b]\n 17389: a1 = a1 << 0x8\n 17392: a1 = a1 | a3\n 17395: a4 = a4 << 0x10\n 17398: a5 = a5 << 0x18\n 17401: a4 = a4 | a5\n 17404: a1 = a1 | a4\n 17407: a3 = u8 [a0 + 0x1d]\n 17410: a4 = u8 [a0 + 0x1c]\n 17413: a5 = u8 [a0 + 0x1e]\n 17416: a2 = u8 [a0 + 0x1f]\n 17419: a3 = a3 << 0x8\n 17422: a3 = a3 | a4\n 17425: a5 = a5 << 0x10\n 17428: a2 = a2 << 0x18\n 17431: a2 = a2 | a5\n 17434: a2 = a2 | a3\n 17437: a2 = a2 << 0x20\n 17440: a3 = a2 | a1\n 17443: a1 = u8 [a0 + 0x9]\n 17446: a2 = u8 [a0 + 0x8]\n 17449: a4 = u8 [a0 + 0xa]\n 17452: a5 = u8 [a0 + 0xb]\n 17455: a1 = a1 << 0x8\n 17458: a1 = a1 | a2\n 17461: a4 = a4 << 0x10\n 17464: a5 = a5 << 0x18\n 17467: a4 = a4 | a5\n 17470: a1 = a1 | a4\n 17473: a2 = u8 [a0 + 0xd]\n 17476: a4 = u8 [a0 + 0xc]\n 17479: a5 = u8 [a0 + 0xe]\n 17482: a0 = u8 [a0 + 0xf]\n 17485: a2 = a2 << 0x8\n 17488: a2 = a2 | a4\n 17491: a5 = a5 << 0x10\n 17494: a0 = a0 << 0x18\n 17497: a0 = a0 | a5\n 17500: a0 = a0 | a2\n 17503: a0 = a0 << 0x20\n 17506: a0 = a0 | a1\n 17509: a4 = reverse a0\n 17511: a1 = reverse a3\n 17513: a2 = reverse t1\n 17515: a0 = reverse t0\n 17517: u64 [s1 + 0x78] = a0\n 17520: u64 [s1 + 0x68] = a2\n 17523: a0 = a0 | a2\n 17526: a2 = a1\n 17528: a1 = a1 | a4\n 17531: a1 = a1 | a0\n 17534: a1 = a1 >> 0x20\n 17537: u64 [s1 + 0x70] = a4\n 17540: a0 = a0 | a4\n 17543: a0 = a0 << 0x20\n 17546: a0 = a0 | a1\n 17549: jump @284 if a0 != 0\n      : @280 (gas: 5)\n 17553: u64 [s1 + 0x60] = a2\n 17556: i32 a0 = a2 + 0\n 17558: a1 = 0x20\n 17561: u64 [s1 + 0x58] = a0\n 17564: ra = 244, jump @0\n      : @281 [@dyn 122] (gas: 51)\n 17570: u8 [a0 + 31] = 0\n 17573: u8 [a0 + 30] = 0\n 17576: u8 [a0 + 29] = 0\n 17579: u8 [a0 + 28] = 0\n 17582: u8 [a0 + 27] = 0\n 17585: u8 [a0 + 26] = 0\n 17588: u8 [a0 + 25] = 0\n 17591: u8 [a0 + 24] = 0\n 17594: u8 [a0 + 23] = 0\n 17597: u8 [a0 + 22] = 0\n 17600: u8 [a0 + 21] = 0\n 17603: u8 [a0 + 20] = 0\n 17606: u8 [a0 + 19] = 0\n 17609: u8 [a0 + 18] = 0\n 17612: u8 [a0 + 17] = 0\n 17615: u8 [a0 + 16] = 0\n 17618: u8 [a0 + 15] = 0\n 17621: u8 [a0 + 14] = 0\n 17624: u8 [a0 + 13] = 0\n 17627: u8 [a0 + 12] = 0\n 17630: u8 [a0 + 11] = 0\n 17633: u8 [a0 + 10] = 0\n 17636: u8 [a0 + 9] = 0\n 17639: u8 [a0 + 8] = 0\n 17642: u8 [a0 + 7] = 0\n 17645: u8 [a0 + 6] = 0\n 17648: u8 [a0 + 5] = 0\n 17651: u8 [a0 + 4] = 0\n 17654: u8 [a0 + 3] = 0xa0\n 17659: u8 [a0 + 2] = 0x79\n 17663: u8 [a0 + 1] = 0xc3\n 17668: u8 [a0 + 0] = 0x8\n 17671: a1 = u64 [s1 + 0x60]\n 17674: a0 = a1 + 0x4\n 17677: a1 = a0 <u a1\n 17680: a3 = u64 [s1 + 0x78]\n 17683: a2 = a3 + a1\n 17686: a3 = a2 <u a3\n 17689: a3 = a1 if a1 == 0\n 17692: a1 = u64 [s1 + 0x70]\n 17695: a3 = a3 + a1\n 17698: a1 = a3 <u a1\n 17701: a4 = u64 [s1 + 0x68]\n 17704: a4 = a4 + a1\n 17707: u64 [s1 + 0x148] = a2\n 17711: u64 [s1 + 0x140] = a0\n 17715: u64 [s1 + 0x150] = a3\n 17719: a0 = s1 + 0x160\n 17723: a1 = s1 + 0x140\n 17727: u64 [s1 + 0x158] = a4\n 17731: ra = 246, jump @218\n      : @282 [@dyn 123] (gas: 5)\n 17737: a0 = u64 [s1 + 0x168]\n 17741: t0 = u64 [s1 + 0x178]\n 17745: t1 = u64 [s1 + 0x160]\n 17749: a3 = u64 [s1 + 0x170]\n 17753: fallthrough\n      : @283 (gas: 27)\n 17754: a1 = u64 [s1 + 0x78]\n 17757: a4 = a0 ^ a1\n 17760: a5 = a0 <u a1\n 17763: ra = a1\n 17765: t2 = u64 [s1 + 0x60]\n 17768: a1 = t1 <u t2\n 17771: a5 = a1 if a4 == 0\n 17774: a2 = u64 [s1 + 0x70]\n 17777: a4 = a3 - a2\n 17780: a3 = a3 <u a2\n 17783: a2 = u64 [s1 + 0x68]\n 17786: a2 = t0 - a2\n 17789: a2 = a2 - a3\n 17792: a3 = a4 <u a5\n 17795: a2 = a2 - a3\n 17798: a4 = a4 - a5\n 17801: a0 = a0 - ra\n 17804: a1 = a0 - a1\n 17807: a0 = t1 - t2\n 17810: a1 = a1 | a2\n 17813: a2 = a0 | a4\n 17816: a2 = a2 | a1\n 17819: a1 = a1 | a4\n 17822: a2 = a2 >> 0x20\n 17825: a1 = a1 << 0x20\n 17828: a1 = a1 | a2\n 17831: jump @291 if a1 == 0\n      : @284 (gas: 1)\n 17834: trap\n      : @285 (gas: 8)\n 17835: u64 [s1 + 304] = 0\n 17839: u64 [s1 + 296] = 0\n 17843: u64 [s1 + 288] = 0\n 17847: a0 = 0x4e487b7100000000\n 17857: a1 = s1 + 0x120\n 17861: u64 [s1 + 0x138] = a0\n 17865: a0 = 0\n 17867: ra = 248, jump @8\n      : @286 [@dyn 124] (gas: 7)\n 17873: u64 [s1 + 280] = 0\n 17877: u64 [s1 + 272] = 0\n 17881: u64 [s1 + 256] = 0x11\n 17886: a0 = 0x4\n 17889: a1 = s1 + 0x100\n 17893: u64 [s1 + 264] = 0\n 17897: ra = 250, jump @8\n      : @287 [@dyn 125] (gas: 3)\n 17903: a1 = 0x24\n 17906: a0 = 0\n 17908: ra = 252, jump @0\n      : @288 [@dyn 126] (gas: 5)\n 17914: i32 a1 = a0 + 0\n 17916: a0 = 0x1\n 17919: a2 = 0x24\n 17922: ecalli 13 // 'seal_return'\n 17924: fallthrough\n      : @289 (gas: 3)\n 17925: a0 = 0\n 17927: a1 = 0\n 17929: ra = 254, jump @0\n      : @290 [@dyn 127] (gas: 5)\n 17935: i32 a1 = a0 + 0\n 17937: a0 = 0x1\n 17940: a2 = 0\n 17942: ecalli 13 // 'seal_return'\n 17944: fallthrough\n      : @291 (gas: 4)\n 17945: i32 a1 = a0 + 0\n 17947: u64 [s1 + 0x78] = a1\n 17950: a0 = u64 [s1 + 0x58]\n 17953: ra = 256, jump @0\n      : @292 [@dyn 128] (gas: 6)\n 17959: i32 a1 = a0 + 0\n 17961: a0 = 0x1\n 17964: a2 = u64 [s1 + 0x78]\n 17967: ra = 0x102\n 17971: ecalli 13 // 'seal_return'\n 17973: fallthrough\n      : @293 [@dyn 129] (gas: 24)\n 17974: sp = sp + 0xffffffffffffffb0\n 17977: u64 [sp + 0x48] = ra\n 17980: u64 [sp + 0x40] = s0\n 17983: s0 = sp + 0x50\n 17986: sp = sp & 0xfffffffffffffff0\n 17989: t0 = u64 [a0]\n 17991: t1 = u64 [a0 + 0x8]\n 17994: a4 = u64 [a0 + 0x10]\n 17997: a0 = u64 [a0 + 0x18]\n 18000: a5 = u64 [a1]\n 18002: a2 = u64 [a1 + 0x8]\n 18005: a3 = u64 [a1 + 0x10]\n 18008: a1 = u64 [a1 + 0x18]\n 18011: u64 [sp + 0x18] = a1\n 18014: u64 [sp + 0x10] = a3\n 18017: u64 [sp + 0x8] = a2\n 18020: u64 [sp] = a5\n 18022: u64 [sp + 0x38] = a0\n 18025: u64 [sp + 0x30] = a4\n 18028: u64 [sp + 0x28] = t1\n 18031: a0 = sp + 0x20\n 18034: a1 = sp\n 18036: u64 [sp + 0x20] = t0\n 18039: ra = 260, jump @152\n      : @294 [@dyn 130] (gas: 5)\n 18045: sp = s0 + 0xffffffffffffffb0\n 18048: ra = u64 [sp + 0x48]\n 18051: s0 = u64 [sp + 0x40]\n 18054: sp = sp + 0x50\n 18057: ret\n      : @295 (gas: 17)\n 18059: sp = sp + 0xffffffffffffffa0\n 18062: u64 [sp + 0x58] = ra\n 18065: u64 [sp + 0x50] = s0\n 18068: u64 [sp + 0x48] = s1\n 18071: a3 = u64 [a1 + 0x18]\n 18074: a4 = u64 [a1 + 0x10]\n 18077: a5 = u64 [a1 + 0x8]\n 18080: s1 = u64 [a1]\n 18082: a1 = a5 | a3\n 18085: a2 = s1 | a4\n 18088: a2 = a2 | a1\n 18091: a2 = a2 >> 0x20\n 18094: a1 = a1 | a4\n 18097: a1 = a1 << 0x20\n 18100: a1 = a1 | a2\n 18103: u64 [sp + 0x28] = a0\n 18106: jump @302 if a1 != 0\n      : @296 (gas: 19)\n 18110: a0 = s1 + 0x20\n 18113: u64 [sp + 0x30] = a0\n 18116: a0 = a0 <u s1\n 18119: a1 = a5 + a0\n 18122: u64 [sp + 0x40] = a1\n 18125: u64 [sp + 0x8] = a5\n 18128: s0 = a1 <u a5\n 18131: s0 = a0 if a0 == 0\n 18134: s0 = s0 + a4\n 18137: u64 [sp + 0x10] = a4\n 18140: a0 = s0 <u a4\n 18143: u64 [sp + 0x18] = a3\n 18146: a0 = a0 + a3\n 18149: u64 [sp + 0x38] = a0\n 18152: u64 [sp] = s1\n 18154: i32 a0 = s1 + 0\n 18156: a1 = 0x20\n 18159: s1 = 0x20\n 18162: ra = 262, jump @0\n      : @297 [@dyn 131] (gas: 45)\n 18168: u8 [a0 + 0x1f] = s1\n 18171: a1 = u64 [sp + 0x30]\n 18174: s1 = a1\n 18176: a1 = a1 | s0\n 18179: a2 = u64 [sp + 0x40]\n 18182: a4 = u64 [sp + 0x38]\n 18185: a2 = a2 | a4\n 18188: a1 = a1 | a2\n 18191: a1 = a1 >> 0x20\n 18194: u64 [sp + 0x20] = s0\n 18197: a2 = a2 | s0\n 18200: a2 = a2 << 0x20\n 18203: a1 = a1 | a2\n 18206: u8 [a0 + 30] = 0\n 18209: u8 [a0 + 29] = 0\n 18212: u8 [a0 + 28] = 0\n 18215: u8 [a0 + 27] = 0\n 18218: u8 [a0 + 26] = 0\n 18221: u8 [a0 + 25] = 0\n 18224: u8 [a0 + 24] = 0\n 18227: u8 [a0 + 23] = 0\n 18230: u8 [a0 + 22] = 0\n 18233: u8 [a0 + 21] = 0\n 18236: u8 [a0 + 20] = 0\n 18239: u8 [a0 + 19] = 0\n 18242: u8 [a0 + 18] = 0\n 18245: u8 [a0 + 17] = 0\n 18248: u8 [a0 + 16] = 0\n 18251: u8 [a0 + 15] = 0\n 18254: u8 [a0 + 14] = 0\n 18257: u8 [a0 + 13] = 0\n 18260: u8 [a0 + 12] = 0\n 18263: u8 [a0 + 11] = 0\n 18266: u8 [a0 + 10] = 0\n 18269: u8 [a0 + 9] = 0\n 18272: u8 [a0 + 8] = 0\n 18275: u8 [a0 + 7] = 0\n 18278: u8 [a0 + 6] = 0\n 18281: u8 [a0 + 5] = 0\n 18284: u8 [a0 + 4] = 0\n 18287: u8 [a0 + 3] = 0\n 18290: u8 [a0 + 2] = 0\n 18293: u8 [a0 + 1] = 0\n 18296: u8 [a0 + 0] = 0\n 18298: jump @302 if a1 != 0\n      : @298 (gas: 4)\n 18302: i32 s0 = s1 + 0\n 18304: a1 = 0x20\n 18307: a0 = s0\n 18309: ra = 264, jump @0\n      : @299 [@dyn 132] (gas: 41)\n 18315: u8 [a0 + 31] = 0x17\n 18319: u8 [a0 + 30] = 0\n 18322: u8 [a0 + 29] = 0\n 18325: u8 [a0 + 28] = 0\n 18328: u8 [a0 + 27] = 0\n 18331: u8 [a0 + 26] = 0\n 18334: u8 [a0 + 25] = 0\n 18337: u8 [a0 + 24] = 0\n 18340: u8 [a0 + 23] = 0\n 18343: u8 [a0 + 22] = 0\n 18346: u8 [a0 + 21] = 0\n 18349: u8 [a0 + 20] = 0\n 18352: u8 [a0 + 19] = 0\n 18355: u8 [a0 + 18] = 0\n 18358: u8 [a0 + 17] = 0\n 18361: u8 [a0 + 16] = 0\n 18364: u8 [a0 + 15] = 0\n 18367: u8 [a0 + 14] = 0\n 18370: u8 [a0 + 13] = 0\n 18373: u8 [a0 + 12] = 0\n 18376: u8 [a0 + 11] = 0\n 18379: u8 [a0 + 10] = 0\n 18382: u8 [a0 + 9] = 0\n 18385: u8 [a0 + 8] = 0\n 18388: u8 [a0 + 7] = 0\n 18391: u8 [a0 + 6] = 0\n 18394: u8 [a0 + 5] = 0\n 18397: u8 [a0 + 4] = 0\n 18400: u8 [a0 + 3] = 0\n 18403: u8 [a0 + 2] = 0\n 18406: u8 [a0 + 1] = 0\n 18409: a1 = u64 [sp + 0x20]\n 18412: a2 = u64 [sp + 0x38]\n 18415: a1 = a1 | a2\n 18418: a2 = 0xffffffe0\n 18428: a2 = s1 <u a2\n 18431: a3 = u64 [sp + 0x40]\n 18434: a2 = 0 if a3 != 0\n 18436: a2 = 0 if a1 != 0\n 18438: u8 [a0 + 0] = 0\n 18440: jump @302 if a2 == 0\n      : @300 (gas: 3)\n 18444: i32 a0 = s0 + 0x20\n 18447: a1 = 0x20\n 18450: ra = 266, jump @0\n      : @301 [@dyn 133] (gas: 55)\n 18456: u8 [a0 + 31] = 0\n 18459: u8 [a0 + 30] = 0\n 18462: u8 [a0 + 29] = 0\n 18465: u8 [a0 + 28] = 0\n 18468: u8 [a0 + 27] = 0\n 18471: u8 [a0 + 26] = 0\n 18474: u8 [a0 + 25] = 0\n 18477: u8 [a0 + 24] = 0\n 18480: u8 [a0 + 23] = 0\n 18483: u8 [a0 + 22] = 0x64\n 18487: u8 [a0 + 21] = 0x65\n 18491: u8 [a0 + 20] = 0x64\n 18495: u8 [a0 + 19] = 0x6e\n 18499: u8 [a0 + 18] = 0x75\n 18503: u8 [a0 + 17] = 0x66\n 18507: u8 [a0 + 16] = 0x20\n 18511: u8 [a0 + 15] = 0x79\n 18515: u8 [a0 + 14] = 0x64\n 18519: u8 [a0 + 13] = 0x61\n 18523: u8 [a0 + 12] = 0x65\n 18527: u8 [a0 + 11] = 0x72\n 18531: u8 [a0 + 10] = 0x6c\n 18535: u8 [a0 + 9] = 0x61\n 18539: u8 [a0 + 8] = 0x20\n 18543: u8 [a0 + 7] = 0x74\n 18547: a5 = 0x63\n 18550: u8 [a0 + 0x6] = a5\n 18553: u8 [a0 + 5] = 0x61\n 18557: u8 [a0 + 4] = 0x72\n 18561: u8 [a0 + 3] = 0x74\n 18565: u8 [a0 + 2] = 0x6e\n 18569: u8 [a0 + 1] = 0x6f\n 18573: u8 [a0 + 0] = 0x43\n 18576: a1 = u64 [sp]\n 18578: a0 = a1 + 0x60\n 18581: a1 = a0 <u a1\n 18584: a3 = u64 [sp + 0x8]\n 18587: a2 = a3 + a1\n 18590: a3 = a2 <u a3\n 18593: a3 = a1 if a1 == 0\n 18596: a1 = u64 [sp + 0x10]\n 18599: a3 = a3 + a1\n 18602: a1 = a3 <u a1\n 18605: a4 = u64 [sp + 0x18]\n 18608: a1 = a1 + a4\n 18611: a4 = u64 [sp + 0x28]\n 18614: u64 [a4] = a0\n 18616: u64 [a4 + 0x8] = a2\n 18619: u64 [a4 + 0x10] = a3\n 18622: u64 [a4 + 0x18] = a1\n 18625: ra = u64 [sp + 0x58]\n 18628: s0 = u64 [sp + 0x50]\n 18631: s1 = u64 [sp + 0x48]\n 18634: sp = sp + 0x60\n 18637: ret\n      : @302 (gas: 1)\n 18639: trap\n      : @303 (gas: 17)\n 18640: sp = sp + 0xffffffffffffffa0\n 18643: u64 [sp + 0x58] = ra\n 18646: u64 [sp + 0x50] = s0\n 18649: u64 [sp + 0x48] = s1\n 18652: a3 = u64 [a1 + 0x18]\n 18655: a4 = u64 [a1 + 0x10]\n 18658: a5 = u64 [a1 + 0x8]\n 18661: s1 = u64 [a1]\n 18663: a1 = a5 | a3\n 18666: a2 = s1 | a4\n 18669: a2 = a2 | a1\n 18672: a2 = a2 >> 0x20\n 18675: a1 = a1 | a4\n 18678: a1 = a1 << 0x20\n 18681: a1 = a1 | a2\n 18684: u64 [sp + 0x28] = a0\n 18687: jump @310 if a1 != 0\n      : @304 (gas: 19)\n 18691: a0 = s1 + 0x20\n 18694: u64 [sp + 0x30] = a0\n 18697: a0 = a0 <u s1\n 18700: a1 = a5 + a0\n 18703: u64 [sp + 0x40] = a1\n 18706: u64 [sp + 0x8] = a5\n 18709: s0 = a1 <u a5\n 18712: s0 = a0 if a0 == 0\n 18715: s0 = s0 + a4\n 18718: u64 [sp + 0x10] = a4\n 18721: a0 = s0 <u a4\n 18724: u64 [sp + 0x18] = a3\n 18727: a0 = a0 + a3\n 18730: u64 [sp + 0x38] = a0\n 18733: u64 [sp] = s1\n 18735: i32 a0 = s1 + 0\n 18737: a1 = 0x20\n 18740: s1 = 0x20\n 18743: ra = 268, jump @0\n      : @305 [@dyn 134] (gas: 45)\n 18749: u8 [a0 + 0x1f] = s1\n 18752: a1 = u64 [sp + 0x30]\n 18755: s1 = a1\n 18757: a1 = a1 | s0\n 18760: a2 = u64 [sp + 0x40]\n 18763: a4 = u64 [sp + 0x38]\n 18766: a2 = a2 | a4\n 18769: a1 = a1 | a2\n 18772: a1 = a1 >> 0x20\n 18775: u64 [sp + 0x20] = s0\n 18778: a2 = a2 | s0\n 18781: a2 = a2 << 0x20\n 18784: a1 = a1 | a2\n 18787: u8 [a0 + 30] = 0\n 18790: u8 [a0 + 29] = 0\n 18793: u8 [a0 + 28] = 0\n 18796: u8 [a0 + 27] = 0\n 18799: u8 [a0 + 26] = 0\n 18802: u8 [a0 + 25] = 0\n 18805: u8 [a0 + 24] = 0\n 18808: u8 [a0 + 23] = 0\n 18811: u8 [a0 + 22] = 0\n 18814: u8 [a0 + 21] = 0\n 18817: u8 [a0 + 20] = 0\n 18820: u8 [a0 + 19] = 0\n 18823: u8 [a0 + 18] = 0\n 18826: u8 [a0 + 17] = 0\n 18829: u8 [a0 + 16] = 0\n 18832: u8 [a0 + 15] = 0\n 18835: u8 [a0 + 14] = 0\n 18838: u8 [a0 + 13] = 0\n 18841: u8 [a0 + 12] = 0\n 18844: u8 [a0 + 11] = 0\n 18847: u8 [a0 + 10] = 0\n 18850: u8 [a0 + 9] = 0\n 18853: u8 [a0 + 8] = 0\n 18856: u8 [a0 + 7] = 0\n 18859: u8 [a0 + 6] = 0\n 18862: u8 [a0 + 5] = 0\n 18865: u8 [a0 + 4] = 0\n 18868: u8 [a0 + 3] = 0\n 18871: u8 [a0 + 2] = 0\n 18874: u8 [a0 + 1] = 0\n 18877: u8 [a0 + 0] = 0\n 18879: jump @310 if a1 != 0\n      : @306 (gas: 4)\n 18883: i32 s0 = s1 + 0\n 18885: a1 = 0x20\n 18888: a0 = s0\n 18890: ra = 270, jump @0\n      : @307 [@dyn 135] (gas: 41)\n 18896: u8 [a0 + 31] = 0xd\n 18900: u8 [a0 + 30] = 0\n 18903: u8 [a0 + 29] = 0\n 18906: u8 [a0 + 28] = 0\n 18909: u8 [a0 + 27] = 0\n 18912: u8 [a0 + 26] = 0\n 18915: u8 [a0 + 25] = 0\n 18918: u8 [a0 + 24] = 0\n 18921: u8 [a0 + 23] = 0\n 18924: u8 [a0 + 22] = 0\n 18927: u8 [a0 + 21] = 0\n 18930: u8 [a0 + 20] = 0\n 18933: u8 [a0 + 19] = 0\n 18936: u8 [a0 + 18] = 0\n 18939: u8 [a0 + 17] = 0\n 18942: u8 [a0 + 16] = 0\n 18945: u8 [a0 + 15] = 0\n 18948: u8 [a0 + 14] = 0\n 18951: u8 [a0 + 13] = 0\n 18954: u8 [a0 + 12] = 0\n 18957: u8 [a0 + 11] = 0\n 18960: u8 [a0 + 10] = 0\n 18963: u8 [a0 + 9] = 0\n 18966: u8 [a0 + 8] = 0\n 18969: u8 [a0 + 7] = 0\n 18972: u8 [a0 + 6] = 0\n 18975: u8 [a0 + 5] = 0\n 18978: u8 [a0 + 4] = 0\n 18981: u8 [a0 + 3] = 0\n 18984: u8 [a0 + 2] = 0\n 18987: u8 [a0 + 1] = 0\n 18990: a1 = u64 [sp + 0x20]\n 18993: a2 = u64 [sp + 0x38]\n 18996: a1 = a1 | a2\n 18999: a2 = 0xffffffe0\n 19009: a2 = s1 <u a2\n 19012: a3 = u64 [sp + 0x40]\n 19015: a2 = 0 if a3 != 0\n 19017: a2 = 0 if a1 != 0\n 19019: u8 [a0 + 0] = 0\n 19021: jump @310 if a2 == 0\n      : @308 (gas: 3)\n 19025: i32 a0 = s0 + 0x20\n 19028: a1 = 0x20\n 19031: ra = 272, jump @0\n      : @309 [@dyn 136] (gas: 54)\n 19037: u8 [a0 + 31] = 0\n 19040: u8 [a0 + 30] = 0\n 19043: u8 [a0 + 29] = 0\n 19046: u8 [a0 + 28] = 0\n 19049: u8 [a0 + 27] = 0\n 19052: u8 [a0 + 26] = 0\n 19055: u8 [a0 + 25] = 0\n 19058: u8 [a0 + 24] = 0\n 19061: u8 [a0 + 23] = 0\n 19064: u8 [a0 + 22] = 0\n 19067: u8 [a0 + 21] = 0\n 19070: u8 [a0 + 20] = 0\n 19073: u8 [a0 + 19] = 0\n 19076: u8 [a0 + 18] = 0\n 19079: u8 [a0 + 17] = 0\n 19082: u8 [a0 + 16] = 0\n 19085: u8 [a0 + 15] = 0\n 19088: u8 [a0 + 14] = 0\n 19091: u8 [a0 + 13] = 0\n 19094: u8 [a0 + 12] = 0x48\n 19098: u8 [a0 + 11] = 0x54\n 19102: u8 [a0 + 10] = 0x45\n 19106: u8 [a0 + 9] = 0x20\n 19110: u8 [a0 + 8] = 0x64\n 19114: u8 [a0 + 7] = 0x6e\n 19118: u8 [a0 + 6] = 0x65\n 19122: u8 [a0 + 5] = 0x73\n 19126: u8 [a0 + 4] = 0x20\n 19130: u8 [a0 + 3] = 0x74\n 19134: u8 [a0 + 2] = 0x73\n 19138: u8 [a0 + 1] = 0x75\n 19142: u8 [a0 + 0] = 0x4d\n 19145: a1 = u64 [sp]\n 19147: a0 = a1 + 0x60\n 19150: a1 = a0 <u a1\n 19153: a3 = u64 [sp + 0x8]\n 19156: a2 = a3 + a1\n 19159: a3 = a2 <u a3\n 19162: a3 = a1 if a1 == 0\n 19165: a1 = u64 [sp + 0x10]\n 19168: a3 = a3 + a1\n 19171: a1 = a3 <u a1\n 19174: a4 = u64 [sp + 0x18]\n 19177: a1 = a1 + a4\n 19180: a4 = u64 [sp + 0x28]\n 19183: u64 [a4] = a0\n 19185: u64 [a4 + 0x8] = a2\n 19188: u64 [a4 + 0x10] = a3\n 19191: u64 [a4 + 0x18] = a1\n 19194: ra = u64 [sp + 0x58]\n 19197: s0 = u64 [sp + 0x50]\n 19200: s1 = u64 [sp + 0x48]\n 19203: sp = sp + 0x60\n 19206: ret\n      : @310 (gas: 1)\n 19208: trap\n      : @311 (gas: 17)\n 19209: sp = sp + 0xffffffffffffffa0\n 19212: u64 [sp + 0x58] = ra\n 19215: u64 [sp + 0x50] = s0\n 19218: u64 [sp + 0x48] = s1\n 19221: a3 = u64 [a1 + 0x18]\n 19224: a4 = u64 [a1 + 0x10]\n 19227: a5 = u64 [a1 + 0x8]\n 19230: s1 = u64 [a1]\n 19232: a1 = a5 | a3\n 19235: a2 = s1 | a4\n 19238: a2 = a2 | a1\n 19241: a2 = a2 >> 0x20\n 19244: a1 = a1 | a4\n 19247: a1 = a1 << 0x20\n 19250: a1 = a1 | a2\n 19253: u64 [sp + 0x28] = a0\n 19256: jump @318 if a1 != 0\n      : @312 (gas: 19)\n 19260: a0 = s1 + 0x20\n 19263: u64 [sp + 0x30] = a0\n 19266: a0 = a0 <u s1\n 19269: a1 = a5 + a0\n 19272: u64 [sp + 0x40] = a1\n 19275: u64 [sp + 0x8] = a5\n 19278: s0 = a1 <u a5\n 19281: s0 = a0 if a0 == 0\n 19284: s0 = s0 + a4\n 19287: u64 [sp + 0x10] = a4\n 19290: a0 = s0 <u a4\n 19293: u64 [sp + 0x18] = a3\n 19296: a0 = a0 + a3\n 19299: u64 [sp + 0x38] = a0\n 19302: u64 [sp] = s1\n 19304: i32 a0 = s1 + 0\n 19306: a1 = 0x20\n 19309: s1 = 0x20\n 19312: ra = 274, jump @0\n      : @313 [@dyn 137] (gas: 45)\n 19318: u8 [a0 + 0x1f] = s1\n 19321: a1 = u64 [sp + 0x30]\n 19324: s1 = a1\n 19326: a1 = a1 | s0\n 19329: a2 = u64 [sp + 0x40]\n 19332: a4 = u64 [sp + 0x38]\n 19335: a2 = a2 | a4\n 19338: a1 = a1 | a2\n 19341: a1 = a1 >> 0x20\n 19344: u64 [sp + 0x20] = s0\n 19347: a2 = a2 | s0\n 19350: a2 = a2 << 0x20\n 19353: a1 = a1 | a2\n 19356: u8 [a0 + 30] = 0\n 19359: u8 [a0 + 29] = 0\n 19362: u8 [a0 + 28] = 0\n 19365: u8 [a0 + 27] = 0\n 19368: u8 [a0 + 26] = 0\n 19371: u8 [a0 + 25] = 0\n 19374: u8 [a0 + 24] = 0\n 19377: u8 [a0 + 23] = 0\n 19380: u8 [a0 + 22] = 0\n 19383: u8 [a0 + 21] = 0\n 19386: u8 [a0 + 20] = 0\n 19389: u8 [a0 + 19] = 0\n 19392: u8 [a0 + 18] = 0\n 19395: u8 [a0 + 17] = 0\n 19398: u8 [a0 + 16] = 0\n 19401: u8 [a0 + 15] = 0\n 19404: u8 [a0 + 14] = 0\n 19407: u8 [a0 + 13] = 0\n 19410: u8 [a0 + 12] = 0\n 19413: u8 [a0 + 11] = 0\n 19416: u8 [a0 + 10] = 0\n 19419: u8 [a0 + 9] = 0\n 19422: u8 [a0 + 8] = 0\n 19425: u8 [a0 + 7] = 0\n 19428: u8 [a0 + 6] = 0\n 19431: u8 [a0 + 5] = 0\n 19434: u8 [a0 + 4] = 0\n 19437: u8 [a0 + 3] = 0\n 19440: u8 [a0 + 2] = 0\n 19443: u8 [a0 + 1] = 0\n 19446: u8 [a0 + 0] = 0\n 19448: jump @318 if a1 != 0\n      : @314 (gas: 4)\n 19452: i32 s0 = s1 + 0\n 19454: a1 = 0x20\n 19457: a0 = s0\n 19459: ra = 276, jump @0\n      : @315 [@dyn 138] (gas: 41)\n 19465: u8 [a0 + 31] = 0x10\n 19469: u8 [a0 + 30] = 0\n 19472: u8 [a0 + 29] = 0\n 19475: u8 [a0 + 28] = 0\n 19478: u8 [a0 + 27] = 0\n 19481: u8 [a0 + 26] = 0\n 19484: u8 [a0 + 25] = 0\n 19487: u8 [a0 + 24] = 0\n 19490: u8 [a0 + 23] = 0\n 19493: u8 [a0 + 22] = 0\n 19496: u8 [a0 + 21] = 0\n 19499: u8 [a0 + 20] = 0\n 19502: u8 [a0 + 19] = 0\n 19505: u8 [a0 + 18] = 0\n 19508: u8 [a0 + 17] = 0\n 19511: u8 [a0 + 16] = 0\n 19514: u8 [a0 + 15] = 0\n 19517: u8 [a0 + 14] = 0\n 19520: u8 [a0 + 13] = 0\n 19523: u8 [a0 + 12] = 0\n 19526: u8 [a0 + 11] = 0\n 19529: u8 [a0 + 10] = 0\n 19532: u8 [a0 + 9] = 0\n 19535: u8 [a0 + 8] = 0\n 19538: u8 [a0 + 7] = 0\n 19541: u8 [a0 + 6] = 0\n 19544: u8 [a0 + 5] = 0\n 19547: u8 [a0 + 4] = 0\n 19550: u8 [a0 + 3] = 0\n 19553: u8 [a0 + 2] = 0\n 19556: u8 [a0 + 1] = 0\n 19559: a1 = u64 [sp + 0x20]\n 19562: a2 = u64 [sp + 0x38]\n 19565: a1 = a1 | a2\n 19568: a2 = 0xffffffe0\n 19578: a2 = s1 <u a2\n 19581: a3 = u64 [sp + 0x40]\n 19584: a2 = 0 if a3 != 0\n 19586: a2 = 0 if a1 != 0\n 19588: u8 [a0 + 0] = 0\n 19590: jump @318 if a2 == 0\n      : @316 (gas: 3)\n 19594: i32 a0 = s0 + 0x20\n 19597: a1 = 0x20\n 19600: ra = 278, jump @0\n      : @317 [@dyn 139] (gas: 55)\n 19606: u8 [a0 + 31] = 0\n 19609: u8 [a0 + 30] = 0\n 19612: u8 [a0 + 29] = 0\n 19615: u8 [a0 + 28] = 0\n 19618: u8 [a0 + 27] = 0\n 19621: u8 [a0 + 26] = 0\n 19624: u8 [a0 + 25] = 0\n 19627: u8 [a0 + 24] = 0\n 19630: u8 [a0 + 23] = 0\n 19633: u8 [a0 + 22] = 0\n 19636: u8 [a0 + 21] = 0\n 19639: u8 [a0 + 20] = 0\n 19642: u8 [a0 + 19] = 0\n 19645: u8 [a0 + 18] = 0\n 19648: u8 [a0 + 17] = 0\n 19651: u8 [a0 + 16] = 0\n 19654: u8 [a0 + 15] = 0x6e\n 19658: u8 [a0 + 14] = 0x6f\n 19662: u8 [a0 + 13] = 0x69\n 19666: u8 [a0 + 12] = 0x74\n 19670: u8 [a0 + 11] = 0x61\n 19674: u8 [a0 + 10] = 0x72\n 19678: u8 [a0 + 9] = 0x75\n 19682: u8 [a0 + 8] = 0x64\n 19686: a5 = 0x20\n 19689: u8 [a0 + 0x7] = a5\n 19692: u8 [a0 + 6] = 0x64\n 19696: u8 [a0 + 5] = 0x69\n 19700: u8 [a0 + 4] = 0x6c\n 19704: u8 [a0 + 3] = 0x61\n 19708: u8 [a0 + 2] = 0x76\n 19712: u8 [a0 + 1] = 0x6e\n 19716: u8 [a0 + 0] = 0x49\n 19719: a1 = u64 [sp]\n 19721: a0 = a1 + 0x60\n 19724: a1 = a0 <u a1\n 19727: a3 = u64 [sp + 0x8]\n 19730: a2 = a3 + a1\n 19733: a3 = a2 <u a3\n 19736: a3 = a1 if a1 == 0\n 19739: a1 = u64 [sp + 0x10]\n 19742: a3 = a3 + a1\n 19745: a1 = a3 <u a1\n 19748: a4 = u64 [sp + 0x18]\n 19751: a1 = a1 + a4\n 19754: a4 = u64 [sp + 0x28]\n 19757: u64 [a4] = a0\n 19759: u64 [a4 + 0x8] = a2\n 19762: u64 [a4 + 0x10] = a3\n 19765: u64 [a4 + 0x18] = a1\n 19768: ra = u64 [sp + 0x58]\n 19771: s0 = u64 [sp + 0x50]\n 19774: s1 = u64 [sp + 0x48]\n 19777: sp = sp + 0x60\n 19780: ret\n      : @318 (gas: 1)\n 19782: trap\n      : @319 (gas: 2)\n 19783: a0 = u8 [s1 + 0x254]\n 19787: jump @332 if a0 != 0\n      : @320 (gas: 11)\n 19791: a0 = sp + 0xffffffffffffffe0\n 19794: a0 = a0 & 0xffffffffffffffe0\n 19797: u64 [s1 + 0x58] = a0\n 19800: sp = a0\n 19802: u64 [a0 + 24] = 0\n 19805: u64 [a0 + 16] = 0\n 19808: u64 [a0 + 8] = 0\n 19811: u64 [a0 + 0] = 0\n 19813: i32 a0 = a0 + 0\n 19815: ecalli 16 // 'value_transferred'\n 19817: fallthrough\n      : @321 (gas: 9)\n 19818: a3 = u64 [s1 + 0x58]\n 19821: a0 = u64 [a3 + 0x10]\n 19824: a1 = u64 [a3 + 0x18]\n 19827: a2 = u64 [a3 + 0x8]\n 19830: a3 = u64 [a3]\n 19832: a1 = a1 | a2\n 19835: a0 = a0 | a3\n 19838: a0 = a0 | a1\n 19841: jump @337 if a0 == 0\n      : @322 (gas: 8)\n 19845: a0 = u64 [s1 + 0x70]\n 19848: a1 = u64 [s1 + 0x68]\n 19851: a0 = a0 | a1\n 19854: a1 = u64 [s1 + 0x78]\n 19857: a2 = u64 [s1 + 0x60]\n 19860: a1 = a1 | a2\n 19863: a0 = a0 | a1\n 19866: jump @342 if a0 == 0\n      : @323 (gas: 100)\n 19870: i32 a0 = s1 + 0x180\n 19874: ecalli 6 // 'caller'\n 19876: a0 = u64 [s1 + 0x188]\n 19880: a1 = i32 [s1 + 0x190]\n 19884: a2 = u64 [s1 + 0x180]\n 19888: a0 = reverse a0\n 19890: a3 = a0 << 0x20\n 19893: a1 = reverse a1\n 19895: a1 = a1 >> 0x20\n 19898: a1 = a1 | a3\n 19901: u64 [s1 + 0x58] = a1\n 19904: a0 = a0 >> 0x20\n 19907: a1 = reverse a2\n 19909: a2 = a1 << 0x20\n 19912: a0 = a0 | a2\n 19915: u64 [s1 + 0x50] = a0\n 19918: a1 = a1 >> 0x20\n 19921: u64 [s1 + 0x48] = a1\n 19924: u64 [s1 + 536] = 0\n 19928: u64 [s1 + 528] = 0\n 19932: u64 [s1 + 520] = 0\n 19936: u64 [s1 + 512] = 0x2\n 19941: u64 [s1 + 600] = 0\n 19945: u64 [s1 + 592] = 0\n 19949: u64 [s1 + 584] = 0\n 19953: u64 [s1 + 576] = 0\n 19957: u32 [s1 + 544] = 0x20\n 19962: i32 a1 = s1 + 0x200\n 19966: i32 a3 = s1 + 0x240\n 19970: i32 a4 = s1 + 0x220\n 19974: a2 = 0xffffffffffffffff\n 19977: a0 = 0\n 19979: ecalli 8 // 'get_storage'\n 19981: a0 = u32 [s1 + 0x254]\n 19985: a0 = a0 << 0x20\n 19988: a1 = u64 [s1 + 0x258]\n 19992: a2 = u64 [s1 + 0x48]\n 19995: a0 = a0 | a2\n 19998: u64 [s1 + 536] = 0\n 20002: u64 [s1 + 528] = 0\n 20006: u64 [s1 + 520] = 0\n 20010: u64 [s1 + 512] = 0x2\n 20015: u64 [s1 + 0x258] = a1\n 20019: u64 [s1 + 0x250] = a0\n 20023: a0 = u64 [s1 + 0x50]\n 20026: u64 [s1 + 0x248] = a0\n 20030: a0 = u64 [s1 + 0x58]\n 20033: u64 [s1 + 0x240] = a0\n 20037: i32 a1 = s1 + 0x200\n 20041: i32 a3 = s1 + 0x240\n 20045: a2 = 0xffffffffffffffff\n 20048: a4 = 0x20\n 20051: a0 = 0\n 20053: ecalli 15 // 'set_storage'\n 20055: i32 a0 = s1 + 0x1a0\n 20059: ecalli 9 // 'now'\n 20061: a0 = u64 [s1 + 0x1a0]\n 20065: u64 [s1 + 0x58] = a0\n 20068: a0 = u64 [s1 + 0x1a8]\n 20072: u64 [s1 + 0x50] = a0\n 20075: a0 = u64 [s1 + 0x1b0]\n 20079: u64 [s1 + 0x48] = a0\n 20082: a0 = u64 [s1 + 0x1b8]\n 20086: u64 [s1 + 0x40] = a0\n 20089: u64 [s1 + 536] = 0\n 20093: u64 [s1 + 528] = 0\n 20097: u64 [s1 + 520] = 0\n 20101: u64 [s1 + 512] = 0x1\n 20106: u64 [s1 + 600] = 0\n 20110: u64 [s1 + 592] = 0\n 20114: u64 [s1 + 584] = 0\n 20118: u64 [s1 + 576] = 0\n 20122: u32 [s1 + 544] = 0x20\n 20127: i32 a1 = s1 + 0x200\n 20131: i32 a3 = s1 + 0x240\n 20135: i32 a4 = s1 + 0x220\n 20139: a2 = 0xffffffffffffffff\n 20142: a0 = 0\n 20144: ecalli 8 // 'get_storage'\n 20146: u64 [s1 + 536] = 0\n 20150: u64 [s1 + 528] = 0\n 20154: u64 [s1 + 520] = 0\n 20158: u64 [s1 + 512] = 0x1\n 20163: a0 = u64 [s1 + 0x40]\n 20166: u64 [s1 + 0x258] = a0\n 20170: a0 = u64 [s1 + 0x48]\n 20173: u64 [s1 + 0x250] = a0\n 20177: a0 = u64 [s1 + 0x50]\n 20180: u64 [s1 + 0x248] = a0\n 20184: a0 = u64 [s1 + 0x58]\n 20187: u64 [s1 + 0x240] = a0\n 20191: i32 a1 = s1 + 0x200\n 20195: i32 a3 = s1 + 0x240\n 20199: a2 = 0xffffffffffffffff\n 20202: a4 = 0x20\n 20205: a0 = 0\n 20207: ecalli 15 // 'set_storage'\n 20209: i32 a0 = s1 + 0x1c0\n 20213: ecalli 9 // 'now'\n 20215: fallthrough\n      : @324 (gas: 39)\n 20216: a4 = u64 [s1 + 0x1c8]\n 20220: a2 = u64 [s1 + 0x1c0]\n 20224: t0 = u64 [s1 + 0x1d8]\n 20228: t2 = u64 [s1 + 0x1d0]\n 20232: a5 = u64 [s1 + 0x60]\n 20235: a5 = a5 + a4\n 20238: a1 = u64 [s1 + 0x68]\n 20241: a1 = a1 + a2\n 20244: u64 [s1 + 0x68] = a1\n 20247: a3 = a1 <u a2\n 20250: a5 = a5 + a3\n 20253: t1 = a5 ^ a4\n 20256: u64 [s1 + 0x60] = a5\n 20259: a4 = a5 <u a4\n 20262: a5 = u64 [s1 + 0x70]\n 20265: a5 = a5 + t2\n 20268: a1 = u64 [s1 + 0x78]\n 20271: a1 = a1 + t0\n 20274: a2 = a5 <u t2\n 20277: a1 = a1 + a2\n 20280: a2 = a3\n 20282: a2 = a4 if t1 != 0\n 20285: a0 = a5 + a2\n 20288: a2 = a0 <u a5\n 20291: a5 = a1 + a2\n 20294: a1 = a3 ^ 0x1\n 20297: a2 = a4 ^ 0x1\n 20300: a1 = a2 if t1 != 0\n 20303: a2 = a0 <u t2\n 20306: a3 = a5 ^ t0\n 20309: u64 [s1 + 0x70] = a5\n 20312: a4 = a5 <u t0\n 20315: a4 = a2 if a3 == 0\n 20318: u64 [s1 + 0x78] = a0\n 20321: a0 = a0 ^ t2\n 20324: a0 = a0 | a3\n 20327: a2 = a4 ^ 0x1\n 20330: a1 = a2 if a0 != 0\n 20333: jump @349 if a1 == 0\n      : @325 (gas: 123)\n 20337: u64 [s1 + 536] = 0\n 20341: u64 [s1 + 528] = 0\n 20345: u64 [s1 + 520] = 0\n 20349: u64 [s1 + 512] = 0\n 20353: u64 [s1 + 600] = 0\n 20357: u64 [s1 + 592] = 0\n 20361: u64 [s1 + 584] = 0\n 20365: u64 [s1 + 576] = 0\n 20369: u32 [s1 + 544] = 0x20\n 20374: i32 a1 = s1 + 0x200\n 20378: i32 a3 = s1 + 0x240\n 20382: i32 a4 = s1 + 0x220\n 20386: a2 = 0xffffffffffffffff\n 20389: a0 = 0\n 20391: ecalli 8 // 'get_storage'\n 20393: u64 [s1 + 536] = 0\n 20397: u64 [s1 + 528] = 0\n 20401: u64 [s1 + 520] = 0\n 20405: u64 [s1 + 512] = 0\n 20409: a0 = u64 [s1 + 0x70]\n 20412: u64 [s1 + 0x258] = a0\n 20416: a0 = u64 [s1 + 0x78]\n 20419: u64 [s1 + 0x250] = a0\n 20423: a0 = u64 [s1 + 0x60]\n 20426: u64 [s1 + 0x248] = a0\n 20430: a0 = u64 [s1 + 0x68]\n 20433: u64 [s1 + 0x240] = a0\n 20437: i32 a1 = s1 + 0x200\n 20441: i32 a3 = s1 + 0x240\n 20445: a2 = 0xffffffffffffffff\n 20448: a4 = 0x20\n 20451: a0 = 0\n 20453: ecalli 15 // 'set_storage'\n 20455: u64 [s1 + 536] = 0\n 20459: u64 [s1 + 528] = 0\n 20463: u64 [s1 + 520] = 0\n 20467: u64 [s1 + 512] = 0x2\n 20472: u64 [s1 + 600] = 0\n 20476: u64 [s1 + 592] = 0\n 20480: u64 [s1 + 584] = 0\n 20484: u64 [s1 + 576] = 0\n 20488: u32 [s1 + 544] = 0x20\n 20493: i32 a1 = s1 + 0x200\n 20497: i32 a3 = s1 + 0x240\n 20501: i32 a4 = s1 + 0x220\n 20505: a2 = 0xffffffffffffffff\n 20508: a0 = 0\n 20510: ecalli 8 // 'get_storage'\n 20512: a0 = u64 [s1 + 0x240]\n 20516: a1 = u64 [s1 + 0x248]\n 20520: a2 = u64 [s1 + 0x250]\n 20524: a3 = u64 [s1 + 0x258]\n 20528: a4 = 0xffffff00ffffffff\n 20538: a2 = a2 & a4\n 20541: a4 = 0x100000000\n 20551: a2 = a2 | a4\n 20554: u64 [s1 + 536] = 0\n 20558: u64 [s1 + 528] = 0\n 20562: u64 [s1 + 520] = 0\n 20566: u64 [s1 + 512] = 0x2\n 20571: u64 [s1 + 0x258] = a3\n 20575: u64 [s1 + 0x250] = a2\n 20579: u64 [s1 + 0x248] = a1\n 20583: u64 [s1 + 0x240] = a0\n 20587: i32 a1 = s1 + 0x200\n 20591: i32 a3 = s1 + 0x240\n 20595: a2 = 0xffffffffffffffff\n 20598: a4 = 0x20\n 20601: a0 = 0\n 20603: ecalli 15 // 'set_storage'\n 20605: i32 a0 = s1 + 0x1e0\n 20609: ecalli 6 // 'caller'\n 20611: a0 = u32 [s1 + 0x1f0]\n 20615: u64 [s1 + 0x30] = a0\n 20618: a0 = u64 [s1 + 0x1e8]\n 20622: u64 [s1 + 0x28] = a0\n 20625: a0 = u64 [s1 + 0x1e0]\n 20629: u64 [s1 + 0x78] = a0\n 20632: a0 = sp + 0xffffffffffffffe0\n 20635: a0 = a0 & 0xffffffffffffffe0\n 20638: u64 [s1 + 0x70] = a0\n 20641: sp = a0\n 20643: u64 [a0 + 24] = 0\n 20646: u64 [a0 + 16] = 0\n 20649: u64 [a0 + 8] = 0\n 20652: u64 [a0 + 0] = 0\n 20654: i32 a0 = a0 + 0\n 20656: ecalli 16 // 'value_transferred'\n 20658: a1 = u64 [s1 + 0x70]\n 20661: a0 = u64 [a1 + 0x18]\n 20664: u64 [s1 + 0x50] = a0\n 20667: a0 = u64 [a1 + 0x10]\n 20670: u64 [s1 + 0x58] = a0\n 20673: a0 = u64 [a1 + 0x8]\n 20676: u64 [s1 + 0x60] = a0\n 20679: a0 = u64 [a1]\n 20681: u64 [s1 + 0x68] = a0\n 20684: u64 [s1 + 536] = 0\n 20688: u64 [s1 + 528] = 0\n 20692: u64 [s1 + 520] = 0\n 20696: u64 [s1 + 512] = 0\n 20700: u64 [s1 + 600] = 0\n 20704: u64 [s1 + 592] = 0\n 20708: u64 [s1 + 584] = 0\n 20712: u64 [s1 + 576] = 0\n 20716: u32 [s1 + 544] = 0x20\n 20721: i32 a1 = s1 + 0x200\n 20725: i32 a3 = s1 + 0x240\n 20729: i32 a4 = s1 + 0x220\n 20733: a2 = 0xffffffffffffffff\n 20736: a0 = 0\n 20738: ecalli 8 // 'get_storage'\n 20740: a0 = u64 [s1 + 0x258]\n 20744: u64 [s1 + 0x8] = a0\n 20747: a0 = u64 [s1 + 0x250]\n 20751: u64 [s1 + 0x10] = a0\n 20754: a0 = u64 [s1 + 0x248]\n 20758: u64 [s1 + 0x18] = a0\n 20761: a0 = u64 [s1 + 0x240]\n 20765: u64 [s1 + 0x20] = a0\n 20768: a0 = 0x40\n 20771: a1 = 0x20\n 20774: ra = 280, jump @0\n      : @326 [@dyn 140] (gas: 103)\n 20780: a1 = u8 [a0 + 0x11]\n 20783: a2 = u8 [a0 + 0x10]\n 20786: a3 = u8 [a0 + 0x12]\n 20789: a4 = u8 [a0 + 0x13]\n 20792: a1 = a1 << 0x8\n 20795: a1 = a1 | a2\n 20798: a3 = a3 << 0x10\n 20801: a4 = a4 << 0x18\n 20804: a3 = a3 | a4\n 20807: a1 = a1 | a3\n 20810: a2 = u8 [a0 + 0x15]\n 20813: a3 = u8 [a0 + 0x14]\n 20816: a4 = u8 [a0 + 0x16]\n 20819: a5 = u8 [a0 + 0x17]\n 20822: a2 = a2 << 0x8\n 20825: a2 = a2 | a3\n 20828: a4 = a4 << 0x10\n 20831: a5 = a5 << 0x18\n 20834: a4 = a4 | a5\n 20837: a2 = a2 | a4\n 20840: a2 = a2 << 0x20\n 20843: t0 = a2 | a1\n 20846: a2 = u8 [a0 + 0x1]\n 20849: a3 = u8 [a0]\n 20851: a4 = u8 [a0 + 0x2]\n 20854: a5 = u8 [a0 + 0x3]\n 20857: a2 = a2 << 0x8\n 20860: a2 = a2 | a3\n 20863: a4 = a4 << 0x10\n 20866: a5 = a5 << 0x18\n 20869: a4 = a4 | a5\n 20872: a2 = a2 | a4\n 20875: a3 = u8 [a0 + 0x5]\n 20878: a4 = u8 [a0 + 0x4]\n 20881: a5 = u8 [a0 + 0x6]\n 20884: a1 = u8 [a0 + 0x7]\n 20887: a3 = a3 << 0x8\n 20890: a3 = a3 | a4\n 20893: a5 = a5 << 0x10\n 20896: a1 = a1 << 0x18\n 20899: a1 = a1 | a5\n 20902: a1 = a1 | a3\n 20905: a1 = a1 << 0x20\n 20908: t1 = a1 | a2\n 20911: a1 = u8 [a0 + 0x19]\n 20914: a3 = u8 [a0 + 0x18]\n 20917: a4 = u8 [a0 + 0x1a]\n 20920: a5 = u8 [a0 + 0x1b]\n 20923: a1 = a1 << 0x8\n 20926: a1 = a1 | a3\n 20929: a4 = a4 << 0x10\n 20932: a5 = a5 << 0x18\n 20935: a4 = a4 | a5\n 20938: a1 = a1 | a4\n 20941: a3 = u8 [a0 + 0x1d]\n 20944: a4 = u8 [a0 + 0x1c]\n 20947: a5 = u8 [a0 + 0x1e]\n 20950: a2 = u8 [a0 + 0x1f]\n 20953: a3 = a3 << 0x8\n 20956: a3 = a3 | a4\n 20959: a5 = a5 << 0x10\n 20962: a2 = a2 << 0x18\n 20965: a2 = a2 | a5\n 20968: a2 = a2 | a3\n 20971: a2 = a2 << 0x20\n 20974: a3 = a2 | a1\n 20977: a1 = u8 [a0 + 0x9]\n 20980: a2 = u8 [a0 + 0x8]\n 20983: a4 = u8 [a0 + 0xa]\n 20986: a5 = u8 [a0 + 0xb]\n 20989: a1 = a1 << 0x8\n 20992: a1 = a1 | a2\n 20995: a4 = a4 << 0x10\n 20998: a5 = a5 << 0x18\n 21001: a4 = a4 | a5\n 21004: a1 = a1 | a4\n 21007: a2 = u8 [a0 + 0xd]\n 21010: a4 = u8 [a0 + 0xc]\n 21013: a5 = u8 [a0 + 0xe]\n 21016: a0 = u8 [a0 + 0xf]\n 21019: a2 = a2 << 0x8\n 21022: a2 = a2 | a4\n 21025: a5 = a5 << 0x10\n 21028: a0 = a0 << 0x18\n 21031: a0 = a0 | a5\n 21034: a0 = a0 | a2\n 21037: a0 = a0 << 0x20\n 21040: a0 = a0 | a1\n 21043: a4 = reverse a0\n 21045: a2 = reverse a3\n 21047: a1 = reverse t1\n 21049: a0 = reverse t0\n 21051: u64 [s1 + 0x48] = a0\n 21054: u64 [s1 + 0x38] = a1\n 21057: a0 = a0 | a1\n 21060: a1 = a2 | a4\n 21063: a1 = a1 | a0\n 21066: a1 = a1 >> 0x20\n 21069: u64 [s1 + 0x40] = a4\n 21072: a0 = a0 | a4\n 21075: a0 = a0 << 0x20\n 21078: a0 = a0 | a1\n 21081: jump @348 if a0 != 0\n      : @327 (gas: 5)\n 21085: i32 a0 = a2 + 0\n 21087: a1 = 0x20\n 21090: u64 [s1 + 0x70] = a0\n 21093: u64 [s1] = a2\n 21095: ra = 282, jump @0\n      : @328 [@dyn 141] (gas: 78)\n 21101: a1 = u64 [s1 + 0x50]\n 21104: a1 = reverse a1\n 21106: a2 = u64 [s1 + 0x58]\n 21109: a2 = reverse a2\n 21111: a3 = u64 [s1 + 0x60]\n 21114: a3 = reverse a3\n 21116: a4 = u64 [s1 + 0x68]\n 21119: a4 = reverse a4\n 21121: a5 = a4 >> 0x38\n 21124: u8 [a0 + 0x1f] = a5\n 21127: a5 = a4 >> 0x30\n 21130: u8 [a0 + 0x1e] = a5\n 21133: a5 = a4 >> 0x28\n 21136: u8 [a0 + 0x1d] = a5\n 21139: a5 = a4 >> 0x20\n 21142: u8 [a0 + 0x1c] = a5\n 21145: a5 = a4 >> 0x18\n 21148: u8 [a0 + 0x1b] = a5\n 21151: a5 = a4 >> 0x10\n 21154: u8 [a0 + 0x1a] = a5\n 21157: a5 = a4 >> 0x8\n 21160: u8 [a0 + 0x19] = a5\n 21163: u8 [a0 + 0x18] = a4\n 21166: u8 [a0 + 0x10] = a3\n 21169: a4 = a3 >> 0x38\n 21172: u8 [a0 + 0x17] = a4\n 21175: a4 = a3 >> 0x30\n 21178: u8 [a0 + 0x16] = a4\n 21181: a4 = a3 >> 0x28\n 21184: u8 [a0 + 0x15] = a4\n 21187: a4 = a3 >> 0x20\n 21190: u8 [a0 + 0x14] = a4\n 21193: a4 = a3 >> 0x18\n 21196: u8 [a0 + 0x13] = a4\n 21199: a4 = a3 >> 0x10\n 21202: u8 [a0 + 0x12] = a4\n 21205: a3 = a3 >> 0x8\n 21208: u8 [a0 + 0x11] = a3\n 21211: u8 [a0 + 0x8] = a2\n 21214: a3 = a2 >> 0x38\n 21217: u8 [a0 + 0xf] = a3\n 21220: a3 = a2 >> 0x30\n 21223: u8 [a0 + 0xe] = a3\n 21226: a3 = a2 >> 0x28\n 21229: u8 [a0 + 0xd] = a3\n 21232: a3 = a2 >> 0x20\n 21235: u8 [a0 + 0xc] = a3\n 21238: a3 = a2 >> 0x18\n 21241: u8 [a0 + 0xb] = a3\n 21244: a3 = a2 >> 0x10\n 21247: u8 [a0 + 0xa] = a3\n 21250: a2 = a2 >> 0x8\n 21253: u8 [a0 + 0x9] = a2\n 21256: u8 [a0] = a1\n 21258: a2 = a1 >> 0x38\n 21261: u8 [a0 + 0x7] = a2\n 21264: a2 = a1 >> 0x30\n 21267: u8 [a0 + 0x6] = a2\n 21270: a2 = a1 >> 0x28\n 21273: u8 [a0 + 0x5] = a2\n 21276: a2 = a1 >> 0x20\n 21279: u8 [a0 + 0x4] = a2\n 21282: a2 = a1 >> 0x18\n 21285: u8 [a0 + 0x3] = a2\n 21288: a2 = a1 >> 0x10\n 21291: u8 [a0 + 0x2] = a2\n 21294: a1 = a1 >> 0x8\n 21297: a2 = u64 [s1 + 0x40]\n 21300: a3 = u64 [s1 + 0x38]\n 21303: a2 = a2 | a3\n 21306: a3 = 0xffffffe0\n 21316: a4 = u64 [s1]\n 21318: a3 = a4 <u a3\n 21321: a4 = u64 [s1 + 0x48]\n 21324: a3 = 0 if a4 != 0\n 21326: a3 = 0 if a2 != 0\n 21328: u8 [a0 + 0x1] = a1\n 21331: jump @348 if a3 == 0\n      : @329 (gas: 18)\n 21335: a0 = u64 [s1 + 0x28]\n 21338: a0 = reverse a0\n 21340: a1 = a0 << 0x20\n 21343: a2 = u64 [s1 + 0x30]\n 21346: a2 = reverse a2\n 21348: a2 = a2 >> 0x20\n 21351: a1 = a1 | a2\n 21354: u64 [s1 + 0x68] = a1\n 21357: a1 = u64 [s1 + 0x78]\n 21360: a1 = reverse a1\n 21362: a1 = a1 << 0x20\n 21365: a0 = a0 >> 0x20\n 21368: a0 = a0 | a1\n 21371: u64 [s1 + 0x60] = a0\n 21374: a0 = u64 [s1 + 0x70]\n 21377: i32 a0 = a0 + 0x20\n 21380: a1 = 0x20\n 21383: ra = 284, jump @0\n      : @330 [@dyn 142] (gas: 71)\n 21389: a1 = u64 [s1 + 0x8]\n 21392: a1 = reverse a1\n 21394: a2 = u64 [s1 + 0x10]\n 21397: a2 = reverse a2\n 21399: a3 = u64 [s1 + 0x18]\n 21402: a3 = reverse a3\n 21404: a4 = u64 [s1 + 0x20]\n 21407: a4 = reverse a4\n 21409: a5 = a4 >> 0x38\n 21412: u8 [a0 + 0x1f] = a5\n 21415: a5 = a4 >> 0x30\n 21418: u8 [a0 + 0x1e] = a5\n 21421: a5 = a4 >> 0x28\n 21424: u8 [a0 + 0x1d] = a5\n 21427: a5 = a4 >> 0x20\n 21430: u8 [a0 + 0x1c] = a5\n 21433: a5 = a4 >> 0x18\n 21436: u8 [a0 + 0x1b] = a5\n 21439: a5 = a4 >> 0x10\n 21442: u8 [a0 + 0x1a] = a5\n 21445: a5 = a4 >> 0x8\n 21448: u8 [a0 + 0x19] = a5\n 21451: u8 [a0 + 0x18] = a4\n 21454: u8 [a0 + 0x10] = a3\n 21457: a4 = a3 >> 0x38\n 21460: u8 [a0 + 0x17] = a4\n 21463: a4 = a3 >> 0x30\n 21466: u8 [a0 + 0x16] = a4\n 21469: a4 = a3 >> 0x28\n 21472: u8 [a0 + 0x15] = a4\n 21475: a4 = a3 >> 0x20\n 21478: u8 [a0 + 0x14] = a4\n 21481: a4 = a3 >> 0x18\n 21484: u8 [a0 + 0x13] = a4\n 21487: a4 = a3 >> 0x10\n 21490: u8 [a0 + 0x12] = a4\n 21493: a3 = a3 >> 0x8\n 21496: u8 [a0 + 0x11] = a3\n 21499: u8 [a0 + 0x8] = a2\n 21502: a3 = a2 >> 0x38\n 21505: u8 [a0 + 0xf] = a3\n 21508: a3 = a2 >> 0x30\n 21511: u8 [a0 + 0xe] = a3\n 21514: a3 = a2 >> 0x28\n 21517: u8 [a0 + 0xd] = a3\n 21520: a3 = a2 >> 0x20\n 21523: u8 [a0 + 0xc] = a3\n 21526: a3 = a2 >> 0x18\n 21529: u8 [a0 + 0xb] = a3\n 21532: a3 = a2 >> 0x10\n 21535: u8 [a0 + 0xa] = a3\n 21538: a2 = a2 >> 0x8\n 21541: u8 [a0 + 0x9] = a2\n 21544: u8 [a0] = a1\n 21546: a2 = a1 >> 0x38\n 21549: u8 [a0 + 0x7] = a2\n 21552: a2 = a1 >> 0x30\n 21555: u8 [a0 + 0x6] = a2\n 21558: a2 = a1 >> 0x28\n 21561: u8 [a0 + 0x5] = a2\n 21564: a2 = a1 >> 0x20\n 21567: u8 [a0 + 0x4] = a2\n 21570: a2 = a1 >> 0x18\n 21573: u8 [a0 + 0x3] = a2\n 21576: a2 = a1 >> 0x10\n 21579: u8 [a0 + 0x2] = a2\n 21582: a1 = a1 >> 0x8\n 21585: u8 [a0 + 0x1] = a1\n 21588: a1 = 0x40\n 21591: a0 = u64 [s1 + 0x70]\n 21594: ra = 286, jump @0\n      : @331 [@dyn 143] (gas: 29)\n 21600: a1 = u64 [0x20020]\n 21605: a2 = u64 [0x20028]\n 21610: a3 = u64 [0x20030]\n 21615: a4 = u64 [0x20038]\n 21620: u64 [s1 + 0x258] = a1\n 21624: u64 [s1 + 0x250] = a2\n 21628: u64 [s1 + 0x248] = a3\n 21632: u64 [s1 + 0x240] = a4\n 21636: a1 = u64 [s1 + 0x60]\n 21639: a1 = reverse a1\n 21641: a2 = u64 [s1 + 0x68]\n 21644: a2 = reverse a2\n 21646: a3 = u64 [s1 + 0x78]\n 21649: a3 = a3 << 0x20\n 21652: u64 [s1 + 0x278] = a2\n 21656: u64 [s1 + 0x270] = a1\n 21660: u64 [s1 + 0x268] = a3\n 21664: u64 [s1 + 608] = 0\n 21668: i32 a2 = a0 + 0\n 21670: i32 a0 = s1 + 0x240\n 21674: a1 = 0x2\n 21677: a3 = 0x40\n 21680: ecalli 7 // 'deposit_event'\n 21682: sp = s0 + 0xfffffffffffffd60\n 21686: ra = u64 [sp + 0x298]\n 21690: s0 = u64 [sp + 0x290]\n 21694: s1 = u64 [sp + 0x288]\n 21698: sp = sp + 0x2a0\n 21702: ret\n      : @332 (gas: 3)\n 21704: a0 = 0x40\n 21707: a1 = 0x20\n 21710: ra = 288, jump @0\n      : @333 [@dyn 144] (gas: 104)\n 21716: a1 = u8 [a0 + 0x11]\n 21719: a2 = u8 [a0 + 0x10]\n 21722: a3 = u8 [a0 + 0x12]\n 21725: a4 = u8 [a0 + 0x13]\n 21728: a1 = a1 << 0x8\n 21731: a1 = a1 | a2\n 21734: a3 = a3 << 0x10\n 21737: a4 = a4 << 0x18\n 21740: a3 = a3 | a4\n 21743: a1 = a1 | a3\n 21746: a2 = u8 [a0 + 0x15]\n 21749: a3 = u8 [a0 + 0x14]\n 21752: a4 = u8 [a0 + 0x16]\n 21755: a5 = u8 [a0 + 0x17]\n 21758: a2 = a2 << 0x8\n 21761: a2 = a2 | a3\n 21764: a4 = a4 << 0x10\n 21767: a5 = a5 << 0x18\n 21770: a4 = a4 | a5\n 21773: a2 = a2 | a4\n 21776: a2 = a2 << 0x20\n 21779: t0 = a2 | a1\n 21782: a2 = u8 [a0 + 0x1]\n 21785: a3 = u8 [a0]\n 21787: a4 = u8 [a0 + 0x2]\n 21790: a5 = u8 [a0 + 0x3]\n 21793: a2 = a2 << 0x8\n 21796: a2 = a2 | a3\n 21799: a4 = a4 << 0x10\n 21802: a5 = a5 << 0x18\n 21805: a4 = a4 | a5\n 21808: a2 = a2 | a4\n 21811: a3 = u8 [a0 + 0x5]\n 21814: a4 = u8 [a0 + 0x4]\n 21817: a5 = u8 [a0 + 0x6]\n 21820: a1 = u8 [a0 + 0x7]\n 21823: a3 = a3 << 0x8\n 21826: a3 = a3 | a4\n 21829: a5 = a5 << 0x10\n 21832: a1 = a1 << 0x18\n 21835: a1 = a1 | a5\n 21838: a1 = a1 | a3\n 21841: a1 = a1 << 0x20\n 21844: t1 = a1 | a2\n 21847: a1 = u8 [a0 + 0x19]\n 21850: a3 = u8 [a0 + 0x18]\n 21853: a4 = u8 [a0 + 0x1a]\n 21856: a5 = u8 [a0 + 0x1b]\n 21859: a1 = a1 << 0x8\n 21862: a1 = a1 | a3\n 21865: a4 = a4 << 0x10\n 21868: a5 = a5 << 0x18\n 21871: a4 = a4 | a5\n 21874: a1 = a1 | a4\n 21877: a3 = u8 [a0 + 0x1d]\n 21880: a4 = u8 [a0 + 0x1c]\n 21883: a5 = u8 [a0 + 0x1e]\n 21886: a2 = u8 [a0 + 0x1f]\n 21889: a3 = a3 << 0x8\n 21892: a3 = a3 | a4\n 21895: a5 = a5 << 0x10\n 21898: a2 = a2 << 0x18\n 21901: a2 = a2 | a5\n 21904: a2 = a2 | a3\n 21907: a2 = a2 << 0x20\n 21910: a3 = a2 | a1\n 21913: a1 = u8 [a0 + 0x9]\n 21916: a2 = u8 [a0 + 0x8]\n 21919: a4 = u8 [a0 + 0xa]\n 21922: a5 = u8 [a0 + 0xb]\n 21925: a1 = a1 << 0x8\n 21928: a1 = a1 | a2\n 21931: a4 = a4 << 0x10\n 21934: a5 = a5 << 0x18\n 21937: a4 = a4 | a5\n 21940: a1 = a1 | a4\n 21943: a2 = u8 [a0 + 0xd]\n 21946: a4 = u8 [a0 + 0xc]\n 21949: a5 = u8 [a0 + 0xe]\n 21952: a0 = u8 [a0 + 0xf]\n 21955: a2 = a2 << 0x8\n 21958: a2 = a2 | a4\n 21961: a5 = a5 << 0x10\n 21964: a0 = a0 << 0x18\n 21967: a0 = a0 | a5\n 21970: a0 = a0 | a2\n 21973: a0 = a0 << 0x20\n 21976: a0 = a0 | a1\n 21979: a4 = reverse a0\n 21981: a1 = reverse a3\n 21983: a2 = reverse t1\n 21985: a0 = reverse t0\n 21987: u64 [s1 + 0x78] = a0\n 21990: u64 [s1 + 0x68] = a2\n 21993: a0 = a0 | a2\n 21996: a2 = a1\n 21998: a1 = a1 | a4\n 22001: a1 = a1 | a0\n 22004: a1 = a1 >> 0x20\n 22007: u64 [s1 + 0x70] = a4\n 22010: a0 = a0 | a4\n 22013: a0 = a0 << 0x20\n 22016: a0 = a0 | a1\n 22019: jump @348 if a0 != 0\n      : @334 (gas: 5)\n 22023: u64 [s1 + 0x60] = a2\n 22026: i32 a0 = a2 + 0\n 22028: a1 = 0x20\n 22031: u64 [s1 + 0x58] = a0\n 22034: ra = 290, jump @0\n      : @335 [@dyn 145] (gas: 51)\n 22040: u8 [a0 + 31] = 0\n 22043: u8 [a0 + 30] = 0\n 22046: u8 [a0 + 29] = 0\n 22049: u8 [a0 + 28] = 0\n 22052: u8 [a0 + 27] = 0\n 22055: u8 [a0 + 26] = 0\n 22058: u8 [a0 + 25] = 0\n 22061: u8 [a0 + 24] = 0\n 22064: u8 [a0 + 23] = 0\n 22067: u8 [a0 + 22] = 0\n 22070: u8 [a0 + 21] = 0\n 22073: u8 [a0 + 20] = 0\n 22076: u8 [a0 + 19] = 0\n 22079: u8 [a0 + 18] = 0\n 22082: u8 [a0 + 17] = 0\n 22085: u8 [a0 + 16] = 0\n 22088: u8 [a0 + 15] = 0\n 22091: u8 [a0 + 14] = 0\n 22094: u8 [a0 + 13] = 0\n 22097: u8 [a0 + 12] = 0\n 22100: u8 [a0 + 11] = 0\n 22103: u8 [a0 + 10] = 0\n 22106: u8 [a0 + 9] = 0\n 22109: u8 [a0 + 8] = 0\n 22112: u8 [a0 + 7] = 0\n 22115: u8 [a0 + 6] = 0\n 22118: u8 [a0 + 5] = 0\n 22121: u8 [a0 + 4] = 0\n 22124: u8 [a0 + 3] = 0xa0\n 22129: u8 [a0 + 2] = 0x79\n 22133: u8 [a0 + 1] = 0xc3\n 22138: u8 [a0 + 0] = 0x8\n 22141: a1 = u64 [s1 + 0x60]\n 22144: a0 = a1 + 0x4\n 22147: a1 = a0 <u a1\n 22150: a3 = u64 [s1 + 0x78]\n 22153: a2 = a3 + a1\n 22156: a3 = a2 <u a3\n 22159: a3 = a1 if a1 == 0\n 22162: a1 = u64 [s1 + 0x70]\n 22165: a3 = a3 + a1\n 22168: a1 = a3 <u a1\n 22171: a4 = u64 [s1 + 0x68]\n 22174: a4 = a4 + a1\n 22177: u64 [s1 + 0x148] = a2\n 22181: u64 [s1 + 0x140] = a0\n 22185: u64 [s1 + 0x150] = a3\n 22189: a0 = s1 + 0x160\n 22193: a1 = s1 + 0x140\n 22197: u64 [s1 + 0x158] = a4\n 22201: ra = 292, jump @295\n      : @336 [@dyn 146] (gas: 5)\n 22207: a0 = u64 [s1 + 0x168]\n 22211: t0 = u64 [s1 + 0x178]\n 22215: t1 = u64 [s1 + 0x160]\n 22219: a3 = u64 [s1 + 0x170]\n 22223: jump @347\n      : @337 (gas: 3)\n 22226: a0 = 0x40\n 22229: a1 = 0x20\n 22232: ra = 294, jump @0\n      : @338 [@dyn 147] (gas: 104)\n 22238: a1 = u8 [a0 + 0x11]\n 22241: a2 = u8 [a0 + 0x10]\n 22244: a3 = u8 [a0 + 0x12]\n 22247: a4 = u8 [a0 + 0x13]\n 22250: a1 = a1 << 0x8\n 22253: a1 = a1 | a2\n 22256: a3 = a3 << 0x10\n 22259: a4 = a4 << 0x18\n 22262: a3 = a3 | a4\n 22265: a1 = a1 | a3\n 22268: a2 = u8 [a0 + 0x15]\n 22271: a3 = u8 [a0 + 0x14]\n 22274: a4 = u8 [a0 + 0x16]\n 22277: a5 = u8 [a0 + 0x17]\n 22280: a2 = a2 << 0x8\n 22283: a2 = a2 | a3\n 22286: a4 = a4 << 0x10\n 22289: a5 = a5 << 0x18\n 22292: a4 = a4 | a5\n 22295: a2 = a2 | a4\n 22298: a2 = a2 << 0x20\n 22301: t0 = a2 | a1\n 22304: a2 = u8 [a0 + 0x1]\n 22307: a3 = u8 [a0]\n 22309: a4 = u8 [a0 + 0x2]\n 22312: a5 = u8 [a0 + 0x3]\n 22315: a2 = a2 << 0x8\n 22318: a2 = a2 | a3\n 22321: a4 = a4 << 0x10\n 22324: a5 = a5 << 0x18\n 22327: a4 = a4 | a5\n 22330: a2 = a2 | a4\n 22333: a3 = u8 [a0 + 0x5]\n 22336: a4 = u8 [a0 + 0x4]\n 22339: a5 = u8 [a0 + 0x6]\n 22342: a1 = u8 [a0 + 0x7]\n 22345: a3 = a3 << 0x8\n 22348: a3 = a3 | a4\n 22351: a5 = a5 << 0x10\n 22354: a1 = a1 << 0x18\n 22357: a1 = a1 | a5\n 22360: a1 = a1 | a3\n 22363: a1 = a1 << 0x20\n 22366: t1 = a1 | a2\n 22369: a1 = u8 [a0 + 0x19]\n 22372: a3 = u8 [a0 + 0x18]\n 22375: a4 = u8 [a0 + 0x1a]\n 22378: a5 = u8 [a0 + 0x1b]\n 22381: a1 = a1 << 0x8\n 22384: a1 = a1 | a3\n 22387: a4 = a4 << 0x10\n 22390: a5 = a5 << 0x18\n 22393: a4 = a4 | a5\n 22396: a1 = a1 | a4\n 22399: a3 = u8 [a0 + 0x1d]\n 22402: a4 = u8 [a0 + 0x1c]\n 22405: a5 = u8 [a0 + 0x1e]\n 22408: a2 = u8 [a0 + 0x1f]\n 22411: a3 = a3 << 0x8\n 22414: a3 = a3 | a4\n 22417: a5 = a5 << 0x10\n 22420: a2 = a2 << 0x18\n 22423: a2 = a2 | a5\n 22426: a2 = a2 | a3\n 22429: a2 = a2 << 0x20\n 22432: a3 = a2 | a1\n 22435: a1 = u8 [a0 + 0x9]\n 22438: a2 = u8 [a0 + 0x8]\n 22441: a4 = u8 [a0 + 0xa]\n 22444: a5 = u8 [a0 + 0xb]\n 22447: a1 = a1 << 0x8\n 22450: a1 = a1 | a2\n 22453: a4 = a4 << 0x10\n 22456: a5 = a5 << 0x18\n 22459: a4 = a4 | a5\n 22462: a1 = a1 | a4\n 22465: a2 = u8 [a0 + 0xd]\n 22468: a4 = u8 [a0 + 0xc]\n 22471: a5 = u8 [a0 + 0xe]\n 22474: a0 = u8 [a0 + 0xf]\n 22477: a2 = a2 << 0x8\n 22480: a2 = a2 | a4\n 22483: a5 = a5 << 0x10\n 22486: a0 = a0 << 0x18\n 22489: a0 = a0 | a5\n 22492: a0 = a0 | a2\n 22495: a0 = a0 << 0x20\n 22498: a0 = a0 | a1\n 22501: a4 = reverse a0\n 22503: a1 = reverse a3\n 22505: a2 = reverse t1\n 22507: a0 = reverse t0\n 22509: u64 [s1 + 0x78] = a0\n 22512: u64 [s1 + 0x68] = a2\n 22515: a0 = a0 | a2\n 22518: a2 = a1\n 22520: a1 = a1 | a4\n 22523: a1 = a1 | a0\n 22526: a1 = a1 >> 0x20\n 22529: u64 [s1 + 0x70] = a4\n 22532: a0 = a0 | a4\n 22535: a0 = a0 << 0x20\n 22538: a0 = a0 | a1\n 22541: jump @348 if a0 != 0\n      : @339 (gas: 5)\n 22545: u64 [s1 + 0x60] = a2\n 22548: i32 a0 = a2 + 0\n 22550: a1 = 0x20\n 22553: u64 [s1 + 0x58] = a0\n 22556: ra = 296, jump @0\n      : @340 [@dyn 148] (gas: 51)\n 22562: u8 [a0 + 31] = 0\n 22565: u8 [a0 + 30] = 0\n 22568: u8 [a0 + 29] = 0\n 22571: u8 [a0 + 28] = 0\n 22574: u8 [a0 + 27] = 0\n 22577: u8 [a0 + 26] = 0\n 22580: u8 [a0 + 25] = 0\n 22583: u8 [a0 + 24] = 0\n 22586: u8 [a0 + 23] = 0\n 22589: u8 [a0 + 22] = 0\n 22592: u8 [a0 + 21] = 0\n 22595: u8 [a0 + 20] = 0\n 22598: u8 [a0 + 19] = 0\n 22601: u8 [a0 + 18] = 0\n 22604: u8 [a0 + 17] = 0\n 22607: u8 [a0 + 16] = 0\n 22610: u8 [a0 + 15] = 0\n 22613: u8 [a0 + 14] = 0\n 22616: u8 [a0 + 13] = 0\n 22619: u8 [a0 + 12] = 0\n 22622: u8 [a0 + 11] = 0\n 22625: u8 [a0 + 10] = 0\n 22628: u8 [a0 + 9] = 0\n 22631: u8 [a0 + 8] = 0\n 22634: u8 [a0 + 7] = 0\n 22637: u8 [a0 + 6] = 0\n 22640: u8 [a0 + 5] = 0\n 22643: u8 [a0 + 4] = 0\n 22646: u8 [a0 + 3] = 0xa0\n 22651: u8 [a0 + 2] = 0x79\n 22655: u8 [a0 + 1] = 0xc3\n 22660: u8 [a0 + 0] = 0x8\n 22663: a1 = u64 [s1 + 0x60]\n 22666: a0 = a1 + 0x4\n 22669: a1 = a0 <u a1\n 22672: a3 = u64 [s1 + 0x78]\n 22675: a2 = a3 + a1\n 22678: a3 = a2 <u a3\n 22681: a3 = a1 if a1 == 0\n 22684: a1 = u64 [s1 + 0x70]\n 22687: a3 = a3 + a1\n 22690: a1 = a3 <u a1\n 22693: a4 = u64 [s1 + 0x68]\n 22696: a4 = a4 + a1\n 22699: u64 [s1 + 0x88] = a2\n 22703: u64 [s1 + 0x80] = a0\n 22707: u64 [s1 + 0x90] = a3\n 22711: a0 = s1 + 0xa0\n 22715: a1 = s1 + 0x80\n 22719: u64 [s1 + 0x98] = a4\n 22723: ra = 298, jump @303\n      : @341 [@dyn 149] (gas: 5)\n 22729: a0 = u64 [s1 + 0xa8]\n 22733: t0 = u64 [s1 + 0xb8]\n 22737: t1 = u64 [s1 + 0xa0]\n 22741: a3 = u64 [s1 + 0xb0]\n 22745: jump @347\n      : @342 (gas: 3)\n 22748: a0 = 0x40\n 22751: a1 = 0x20\n 22754: ra = 300, jump @0\n      : @343 [@dyn 150] (gas: 104)\n 22760: a1 = u8 [a0 + 0x11]\n 22763: a2 = u8 [a0 + 0x10]\n 22766: a3 = u8 [a0 + 0x12]\n 22769: a4 = u8 [a0 + 0x13]\n 22772: a1 = a1 << 0x8\n 22775: a1 = a1 | a2\n 22778: a3 = a3 << 0x10\n 22781: a4 = a4 << 0x18\n 22784: a3 = a3 | a4\n 22787: a1 = a1 | a3\n 22790: a2 = u8 [a0 + 0x15]\n 22793: a3 = u8 [a0 + 0x14]\n 22796: a4 = u8 [a0 + 0x16]\n 22799: a5 = u8 [a0 + 0x17]\n 22802: a2 = a2 << 0x8\n 22805: a2 = a2 | a3\n 22808: a4 = a4 << 0x10\n 22811: a5 = a5 << 0x18\n 22814: a4 = a4 | a5\n 22817: a2 = a2 | a4\n 22820: a2 = a2 << 0x20\n 22823: t0 = a2 | a1\n 22826: a2 = u8 [a0 + 0x1]\n 22829: a3 = u8 [a0]\n 22831: a4 = u8 [a0 + 0x2]\n 22834: a5 = u8 [a0 + 0x3]\n 22837: a2 = a2 << 0x8\n 22840: a2 = a2 | a3\n 22843: a4 = a4 << 0x10\n 22846: a5 = a5 << 0x18\n 22849: a4 = a4 | a5\n 22852: a2 = a2 | a4\n 22855: a3 = u8 [a0 + 0x5]\n 22858: a4 = u8 [a0 + 0x4]\n 22861: a5 = u8 [a0 + 0x6]\n 22864: a1 = u8 [a0 + 0x7]\n 22867: a3 = a3 << 0x8\n 22870: a3 = a3 | a4\n 22873: a5 = a5 << 0x10\n 22876: a1 = a1 << 0x18\n 22879: a1 = a1 | a5\n 22882: a1 = a1 | a3\n 22885: a1 = a1 << 0x20\n 22888: t1 = a1 | a2\n 22891: a1 = u8 [a0 + 0x19]\n 22894: a3 = u8 [a0 + 0x18]\n 22897: a4 = u8 [a0 + 0x1a]\n 22900: a5 = u8 [a0 + 0x1b]\n 22903: a1 = a1 << 0x8\n 22906: a1 = a1 | a3\n 22909: a4 = a4 << 0x10\n 22912: a5 = a5 << 0x18\n 22915: a4 = a4 | a5\n 22918: a1 = a1 | a4\n 22921: a3 = u8 [a0 + 0x1d]\n 22924: a4 = u8 [a0 + 0x1c]\n 22927: a5 = u8 [a0 + 0x1e]\n 22930: a2 = u8 [a0 + 0x1f]\n 22933: a3 = a3 << 0x8\n 22936: a3 = a3 | a4\n 22939: a5 = a5 << 0x10\n 22942: a2 = a2 << 0x18\n 22945: a2 = a2 | a5\n 22948: a2 = a2 | a3\n 22951: a2 = a2 << 0x20\n 22954: a3 = a2 | a1\n 22957: a1 = u8 [a0 + 0x9]\n 22960: a2 = u8 [a0 + 0x8]\n 22963: a4 = u8 [a0 + 0xa]\n 22966: a5 = u8 [a0 + 0xb]\n 22969: a1 = a1 << 0x8\n 22972: a1 = a1 | a2\n 22975: a4 = a4 << 0x10\n 22978: a5 = a5 << 0x18\n 22981: a4 = a4 | a5\n 22984: a1 = a1 | a4\n 22987: a2 = u8 [a0 + 0xd]\n 22990: a4 = u8 [a0 + 0xc]\n 22993: a5 = u8 [a0 + 0xe]\n 22996: a0 = u8 [a0 + 0xf]\n 22999: a2 = a2 << 0x8\n 23002: a2 = a2 | a4\n 23005: a5 = a5 << 0x10\n 23008: a0 = a0 << 0x18\n 23011: a0 = a0 | a5\n 23014: a0 = a0 | a2\n 23017: a0 = a0 << 0x20\n 23020: a0 = a0 | a1\n 23023: a4 = reverse a0\n 23025: a1 = reverse a3\n 23027: a2 = reverse t1\n 23029: a0 = reverse t0\n 23031: u64 [s1 + 0x78] = a0\n 23034: u64 [s1 + 0x68] = a2\n 23037: a0 = a0 | a2\n 23040: a2 = a1\n 23042: a1 = a1 | a4\n 23045: a1 = a1 | a0\n 23048: a1 = a1 >> 0x20\n 23051: u64 [s1 + 0x70] = a4\n 23054: a0 = a0 | a4\n 23057: a0 = a0 << 0x20\n 23060: a0 = a0 | a1\n 23063: jump @348 if a0 != 0\n      : @344 (gas: 5)\n 23067: u64 [s1 + 0x60] = a2\n 23070: i32 a0 = a2 + 0\n 23072: a1 = 0x20\n 23075: u64 [s1 + 0x58] = a0\n 23078: ra = 302, jump @0\n      : @345 [@dyn 151] (gas: 51)\n 23084: u8 [a0 + 31] = 0\n 23087: u8 [a0 + 30] = 0\n 23090: u8 [a0 + 29] = 0\n 23093: u8 [a0 + 28] = 0\n 23096: u8 [a0 + 27] = 0\n 23099: u8 [a0 + 26] = 0\n 23102: u8 [a0 + 25] = 0\n 23105: u8 [a0 + 24] = 0\n 23108: u8 [a0 + 23] = 0\n 23111: u8 [a0 + 22] = 0\n 23114: u8 [a0 + 21] = 0\n 23117: u8 [a0 + 20] = 0\n 23120: u8 [a0 + 19] = 0\n 23123: u8 [a0 + 18] = 0\n 23126: u8 [a0 + 17] = 0\n 23129: u8 [a0 + 16] = 0\n 23132: u8 [a0 + 15] = 0\n 23135: u8 [a0 + 14] = 0\n 23138: u8 [a0 + 13] = 0\n 23141: u8 [a0 + 12] = 0\n 23144: u8 [a0 + 11] = 0\n 23147: u8 [a0 + 10] = 0\n 23150: u8 [a0 + 9] = 0\n 23153: u8 [a0 + 8] = 0\n 23156: u8 [a0 + 7] = 0\n 23159: u8 [a0 + 6] = 0\n 23162: u8 [a0 + 5] = 0\n 23165: u8 [a0 + 4] = 0\n 23168: u8 [a0 + 3] = 0xa0\n 23173: u8 [a0 + 2] = 0x79\n 23177: u8 [a0 + 1] = 0xc3\n 23182: u8 [a0 + 0] = 0x8\n 23185: a1 = u64 [s1 + 0x60]\n 23188: a0 = a1 + 0x4\n 23191: a1 = a0 <u a1\n 23194: a3 = u64 [s1 + 0x78]\n 23197: a2 = a3 + a1\n 23200: a3 = a2 <u a3\n 23203: a3 = a1 if a1 == 0\n 23206: a1 = u64 [s1 + 0x70]\n 23209: a3 = a3 + a1\n 23212: a1 = a3 <u a1\n 23215: a4 = u64 [s1 + 0x68]\n 23218: a4 = a4 + a1\n 23221: u64 [s1 + 0xc8] = a2\n 23225: u64 [s1 + 0xc0] = a0\n 23229: u64 [s1 + 0xd0] = a3\n 23233: a0 = s1 + 0xe0\n 23237: a1 = s1 + 0xc0\n 23241: u64 [s1 + 0xd8] = a4\n 23245: ra = 304, jump @311\n      : @346 [@dyn 152] (gas: 5)\n 23251: a0 = u64 [s1 + 0xe8]\n 23255: t0 = u64 [s1 + 0xf8]\n 23259: t1 = u64 [s1 + 0xe0]\n 23263: a3 = u64 [s1 + 0xf0]\n 23267: fallthrough\n      : @347 (gas: 27)\n 23268: a1 = u64 [s1 + 0x78]\n 23271: a4 = a0 ^ a1\n 23274: a5 = a0 <u a1\n 23277: ra = a1\n 23279: t2 = u64 [s1 + 0x60]\n 23282: a1 = t1 <u t2\n 23285: a5 = a1 if a4 == 0\n 23288: a2 = u64 [s1 + 0x70]\n 23291: a4 = a3 - a2\n 23294: a3 = a3 <u a2\n 23297: a2 = u64 [s1 + 0x68]\n 23300: a2 = t0 - a2\n 23303: a2 = a2 - a3\n 23306: a3 = a4 <u a5\n 23309: a2 = a2 - a3\n 23312: a4 = a4 - a5\n 23315: a0 = a0 - ra\n 23318: a1 = a0 - a1\n 23321: a0 = t1 - t2\n 23324: a1 = a1 | a2\n 23327: a2 = a0 | a4\n 23330: a2 = a2 | a1\n 23333: a1 = a1 | a4\n 23336: a2 = a2 >> 0x20\n 23339: a1 = a1 << 0x20\n 23342: a1 = a1 | a2\n 23345: jump @353 if a1 == 0\n      : @348 (gas: 1)\n 23348: trap\n      : @349 (gas: 8)\n 23349: u64 [s1 + 304] = 0\n 23353: u64 [s1 + 296] = 0\n 23357: u64 [s1 + 288] = 0\n 23361: a0 = 0x4e487b7100000000\n 23371: a1 = s1 + 0x120\n 23375: u64 [s1 + 0x138] = a0\n 23379: a0 = 0\n 23381: ra = 306, jump @8\n      : @350 [@dyn 153] (gas: 7)\n 23387: u64 [s1 + 280] = 0\n 23391: u64 [s1 + 272] = 0\n 23395: u64 [s1 + 256] = 0x11\n 23400: a0 = 0x4\n 23403: a1 = s1 + 0x100\n 23407: u64 [s1 + 264] = 0\n 23411: ra = 308, jump @8\n      : @351 [@dyn 154] (gas: 3)\n 23417: a1 = 0x24\n 23420: a0 = 0\n 23422: ra = 310, jump @0\n      : @352 [@dyn 155] (gas: 5)\n 23428: i32 a1 = a0 + 0\n 23430: a0 = 0x1\n 23433: a2 = 0x24\n 23436: ecalli 13 // 'seal_return'\n 23438: fallthrough\n      : @353 (gas: 4)\n 23439: i32 a1 = a0 + 0\n 23441: u64 [s1 + 0x78] = a1\n 23444: a0 = u64 [s1 + 0x58]\n 23447: ra = 312, jump @0\n      : @354 [@dyn 156] (gas: 7)\n 23453: i32 a1 = a0 + 0\n 23455: a0 = 0x1\n 23458: a2 = u64 [s1 + 0x78]\n 23461: ecalli 13 // 'seal_return'\n 23463: a0 = 0\n 23465: ra = 0x13a\n 23469: jump @10\n      : @355 [export #0: 'call'] (gas: 2)\n 23472: a0 = 0\n 23474: ra = 314, jump @10\n      : @356 [@dyn 157] [export #1: 'deploy'] (gas: 2)\n 23480: a0 = 0x1\n 23483: ra = 316, jump @10\n      : @357 [@dyn 158] (gas: 93)\n 23489: sp = sp + 0xffffffffffffffb0\n 23492: u64 [sp + 0x48] = ra\n 23495: u64 [sp + 0x40] = s0\n 23498: s0 = sp + 0x50\n 23501: sp = sp & 0xfffffffffffffff0\n 23504: t0 = u64 [a0]\n 23506: t1 = u64 [a0 + 0x8]\n 23509: a4 = u64 [a0 + 0x10]\n 23512: a0 = u64 [a0 + 0x18]\n 23515: a5 = u64 [a1]\n 23517: a2 = u64 [a1 + 0x8]\n 23520: a3 = u64 [a1 + 0x10]\n 23523: a1 = u64 [a1 + 0x18]\n 23526: u64 [sp + 0x18] = a1\n 23529: u64 [sp + 0x10] = a3\n 23532: u64 [sp + 0x8] = a2\n 23535: u64 [sp] = a5\n 23537: u64 [sp + 0x38] = a0\n 23540: u64 [sp + 0x30] = a4\n 23543: u64 [sp + 0x28] = t1\n 23546: a0 = sp + 0x20\n 23549: a1 = sp\n 23551: u64 [sp + 0x20] = t0\n 23554: ra = 0x13e\n 23558: sp = sp + 0xffffffffffffff60\n 23562: u64 [sp + 0x98] = ra\n 23566: u64 [sp + 0x90] = s0\n 23570: u64 [sp + 0x88] = s1\n 23574: s0 = sp + 0xa0\n 23578: sp = sp & 0xffffffffffffffe0\n 23581: a2 = u64 [a1 + 0x18]\n 23584: a3 = u64 [a1 + 0x8]\n 23587: a4 = u64 [a1 + 0x10]\n 23590: a1 = u64 [a1]\n 23592: a2 = a2 | a3\n 23595: a1 = a1 | a4\n 23598: a1 = a1 | a2\n 23601: a1 = a1 >u 0\n 23603: u64 [sp + 0x18] = a1\n 23606: a3 = u64 [a0 + 0x18]\n 23609: u64 [sp] = a3\n 23611: a2 = u64 [a0 + 0x10]\n 23614: u64 [sp + 0x8] = a2\n 23617: a1 = u64 [a0 + 0x8]\n 23620: u64 [sp + 0x10] = a1\n 23623: s1 = u64 [a0]\n 23625: u64 [sp + 0x58] = a3\n 23628: u64 [sp + 0x50] = a2\n 23631: u64 [sp + 0x48] = a1\n 23634: u64 [sp + 0x40] = s1\n 23637: u64 [sp + 120] = 0\n 23640: u64 [sp + 112] = 0\n 23643: u64 [sp + 104] = 0\n 23646: u64 [sp + 96] = 0\n 23649: u32 [sp + 32] = 0x20\n 23653: i32 a1 = sp + 0x40\n 23656: i32 a3 = sp + 0x60\n 23659: i32 a4 = sp + 0x20\n 23662: a2 = 0xffffffffffffffff\n 23665: a0 = 0\n 23667: ecalli 8 // 'get_storage'\n 23669: a0 = u64 [sp + 0x60]\n 23672: a1 = u64 [sp + 0x68]\n 23675: a2 = u64 [sp + 0x78]\n 23678: a3 = u64 [sp + 0x70]\n 23681: a4 = u64 [sp + 0x18]\n 23684: a4 = a4 << 0x28\n 23687: a5 = 0xffff00ffffffffff\n 23697: a3 = a3 & a5\n 23700: a3 = a3 | a4\n 23703: a4 = u64 [sp]\n 23705: u64 [sp + 0x58] = a4\n 23708: a4 = u64 [sp + 0x8]\n 23711: u64 [sp + 0x50] = a4\n 23714: a4 = u64 [sp + 0x10]\n 23717: u64 [sp + 0x48] = a4\n 23720: u64 [sp + 0x40] = s1\n 23723: u64 [sp + 0x78] = a2\n 23726: u64 [sp + 0x70] = a3\n 23729: u64 [sp + 0x68] = a1\n 23732: u64 [sp + 0x60] = a0\n 23735: i32 a1 = sp + 0x40\n 23738: i32 a3 = sp + 0x60\n 23741: a2 = 0xffffffffffffffff\n 23744: a4 = 0x20\n 23747: a0 = 0\n 23749: ecalli 15 // 'set_storage'\n 23751: sp = s0 + 0xffffffffffffff60\n 23755: ra = u64 [sp + 0x98]\n 23759: s0 = u64 [sp + 0x90]\n 23763: s1 = u64 [sp + 0x88]\n 23767: sp = sp + 0xa0\n 23771: ret\n      : @358 [@dyn 159] (gas: 5)\n 23773: sp = s0 + 0xffffffffffffffb0\n 23776: ra = u64 [sp + 0x48]\n 23779: s0 = u64 [sp + 0x40]\n 23782: sp = sp + 0x50\n 23785: ret\n",
				"bytecode": {
					"object": "50564d00004d6b000000000000010700c15000c0004003407f018d4c76d505d54655adb8793e28ff0b11ef0d7d3f06917084f5476618d8e6519eca65a7b488ca35ee5b4d920cba8d02193214c0ee91dd73a19dd210f1a7f904810b110000000007000000110000001500000023000000310000003f00000045000000520000005d000000600000006d0000007d0000008d00000098000000aa000000b50000006164647265737362616c616e63655f6f6663616c6c63616c6c5f646174615f636f707963616c6c5f646174615f6c6f616463616c6c5f646174615f73697a6563616c6c65726465706f7369745f6576656e746765745f73746f726167656e6f777265665f74696d655f6c65667472657475726e5f646174615f636f707972657475726e5f646174615f73697a657365616c5f72657475726e7365745f696d6d757461626c655f646174617365745f73746f7261676576616c75655f7472616e73666572726564051302c0b05b0463616c6cc0b85b066465706c6f7906c0cd69809f02c0eb5c65004d01520174017802a903be03e203ee030b04d704f20430055e057705a505d30501060806140629064d075a07eb071c093209020a0f0a9d0baa0b0c0c4d0c580c890da10dad0d56108711a711531260123b136c14821452155f150a16151646175e176a17dc170d193819a419b119721aa31bce1b3a1c471ccb1c5d1dea1d4a206c20ad215122bc22ca224f23e2236f2495252826b52668271429282a412a4c2a5b2acc2ae32aee2afd2aaf2bee2b032d1c2d272d362d832dec2dad2e402fcd2f7b311933263397338e34d235a536a63742394f39c039b73af93bcc3c403d843e2b3f4a3f8e403541544198423f435e43a2444945d145ef45fa450f46274636467d46f8468b4718483d49d0495d4a764b094c964c2c516d528d536054d4541856bf56de562258c958e8582c5ad35a5b5b795b845b9d5bb85bc15bdd5c8b791052093b3309010001ae9833c8780883881f8488e0553801000128390a400002ae8a123d084000023308500002c8870732003308500002c88707320000009511d87b10207b15187b161082897b19088289087b1982851082861883773308205010029f6f686f59821a6faa821b086fbb787b18787a10787908787898bc38787c1f98bc30787c1e98bc28787c1d98bc20787c1c98bc18787c1b98bc10787c1a98bb08787b1998ab38787b1798ab30787b1698ab28787b1598ab20787b1498ab18787b1398ab10787b1298aa08787a11989a38787a0f989a30787a0e989a28787a0d989a20787a0c989a18787a0b989a10787a0a98990878790998893878790798893078790698892878790598892078790498891878790398891078790298880878780182102082151882161095112832009511f07b10087b158475010a05013d0744000251050750100409501006a102951160ff7b1098007b1590007b1688009515a0008411e033074033082050100891fe46171f800046171e46171d46171c46171b46171a46171946171846171746171646171546171446171346171246171146171046170f46170e46170d46170c46170b46170a4617094617084617074617064617054617044617034617024617014607491118490149110849111083170a1001821710821818821908821ad49808d4a707d487075207a7014911584911504911483306027b164049117849117049116849116048112020831840831a60831b203309ff33070a08821760821868821970821a78140bffffffffff00ffffd2b9094911584911504911487b16407b1a787b19707b18687b1760831840831a603309ff330b2033070a0f33074033082050100a8dfd7c78117c79107c7a127c7b13978808d4980897aa1097bb18d4ba0ad4a8087c79157c7a147c7b167c7c17979908d4a90997bb1097cc18d4cb0bd4b909979920d489027c79017c7a7c7b027c7c03979908d4a90997bb1097cc18d4cb0bd4b9097c7a057c7b047c7c067c760797aa08d4ba0a97cc10976618d46c0cd4ca0a97aa20d4a9097c7a197c7b187c7c1a7c761b97aa08d4ba0a97cc10976618d46c0cd4ca0a7c7b1d7c7c1c7c761e7c781f97bb08d4cb0b976610978818d46808d4b808978820d48a0a7c78097c7b087c7c0a7c760b978808d4b80897cc10976618d46c0cd4c8087c7b0d7c7c0c7c760e7c770f97bb08d4cb0b976610977718d46707d4b707977720d487076f776fa66f986f29d49808d47609d48909989920d48707977720d49707510717003307330850100c5cfc837833070133090a0d0183666467330850100e47fc8377330833090a0301390848000251080d330750000383770a0e016467330850101023fc8378330733093300120a0d019511c07b10387b15307b16289515408411e0330740330820501014fafb46171f800046171e46171d46171c46171b46171a46171946171846171746171646171546171446171346171246171146171046170f46170e46170d46170c46170b46170a461709461708461707461703330644000246170246170146073908440002461706461705461704531804eb00831733080a040181171c58478de034c952330800b0dc295a47ceb0dc296051478ee034c9de0052472c17aedbbd00330016951160ff7b1098007b1590007b1688009515a0008411e04911384911304911284911208317200a10283b1551475bcba58d5951479b0eed9cf5005247255fb5b67850101874108388cf00aa87af00524701e437546433001a951100ff7b10f8007b15f000951500018411e04921d8004921d0004921c8004921c0008317c0000a1028950633001c951160ff7b1098007b1590007b1688009515a0008411e04911384911304911284911208317200a10288c0a8168015108a00033001e9511f87b103307330833002c288cfa330020951160ff7b1098007b1590007b1688009515a0008411e04911384911304911284911208317200a1028d711330022951160ff7b1098007b1590007b1688009515a0008411e04911384911304911284911208317200a1028a801330024951160ff7b1098007b1590007b1688009515a0008411e04911384911304911284911208317200a1028c90c3307501026fdf98378330733093300280a0d019511f07b10087b15647533074033082050102adcf97c78017c797c7a027c7b03978808d4980897aa1097bb18d4ba0ad4a8087c79057c7a047c7b067c7c07979908d4a90997bb1097cc18d4cb0bd4b909979920d489027c79097c7a087c7b0a7c7c0b979908d4a90997bb1097cc18d4cb0bd4b9097c7a0d7c7b0c7c7c0e7c780f97aa08d4ba0a97cc10978818d4c808d4a808978820d498037c78117c7a107c7b127c7c13978808d4a80897bb1097cc18d4cb0bd4b8087c7a157c7b147c7c167c791797aa08d4ba0a97cc10979918d4c909d4a909979920d4890a7c78197c79187c7b1a7c7c1b978808d4980897bb1097cc18d4cb0bd4b8087c791d7c7b1c7c7c1e7c771f979908d4b90997cc10977718d4c707d49707977720d487076f776fa86f396f2a7b5a187b59107b58087b57821008821595111032008378330701330933002e0a0d018289828808989a18978828d4a8089799287b791049170849077b78183200821730821838821928821a20d49808d4a707d487075207860139074400025417037d014911584911504911484911404911784911704911684911604821800020831840831a60831b80003309ff33070a088217787b178217707b17088217687b17108217607b17183307403308205010301af87c78117c79107c7a127c7b13978808d4980897aa1097bb18d4ba0ad4a8087c79157c7a147c7b167c7c17979908d4a90997bb1097cc18d4cb0bd4b909979920d489027c79017c7a7c7b027c7c03979908d4a90997bb1097cc18d4cb0bd4b9097c7a057c7b047c7c067c760797aa08d4ba0a97cc10976618d46c0cd4ca0a97aa20d4a9097c7a197c7b187c7c1a7c761b97aa08d4ba0a97cc10976618d46c0cd4ca0a7c7b1d7c7c1c7c761e7c781f97bb08d4cb0b976610978818d46808d4b808978820d48a0a7c78097c7b087c7c0a7c760b978808d4b80897cc10976618d46c0cd4c8087c7b0d7c7c0c7c760e7c770f97bb08d4cb0b976610977718d46707d4b707977720d487076f786fa76f996f2ad4a909d4870ad49a0a98aa20d49808978820d4a8085108170033073308501032e9f6837833070133090a0d0183763308206467501034d3f682186f888219086f99821a106faa821b186fbb98bc38787c1f98bc30787c1e98bc28787c1d98bc20787c1c98bc18787c1b98bc10787c1a98bc08787c19787b18787a1098ab38787b1798ab30787b1698ab28787b1598ab20787b1498ab18787b1398ab10787b1298aa08787a11787908989a38787a0f989a30787a0e989a28787a0d989a20787a0c989a18787a0b989a10787a0a9899087879097878988938787907988930787906988928787905988920787904988918787903988910787902988808787801330820646750103603f6837833092033073300380a0d01808910828a0882884917187b79107b7a087b7832009511807b10787b15707b1668951580008411e0828010828c08829a088283829b7b1b28829410d3ca02d8ca06d83b0b7b1b20da2b068282188298187b1818c90409c969087b1830d86908d8040b7b1238821918c92909c9b909c98909c9ca08821a20c9a808821a28c93a0a8e8b88aa4085aa01db8b0a8f968218308e8bdb960bd49808db8b0a510aea006476d403077b1c30821838d4c808d487079877207b1028d40808978820d487075207c5007b132083388317407b18080a0401821b50821a5814070000000001000000d37b08d4a80898b92088990194a99389510994007b1b107b1a18821828821938d498081407e0ffffff00000000821920d87907821930949794875107698217487b17308217407b17388217088378208317400a0401821758821850821940821a48d4780b889c0294ac94bc510c397b6a287b69208219307b69088219387b697b68308218107b68107b67388217187b6718955180821078821570821668951180003200003307330850103a68f48378330701330933003c0a0d01828918828a10828b0882887b79187b7a107b7b087b7832008217d0008218d8008219c800821ac000d49808d4a707d487075207a50138074400024911584911504911487b1740491178491170491160049517800095186095194049116850103e1dfe821280008213880082189000821a9800821ba000821ca8008219b0008217b8007b17187b19107b1c087b1b7b1a387b18307b132895172064187b12205010404e12330740330820501042adf37c78117c79107c7a127c7b13978808d4980897aa1097bb18d4ba0ad4a8087c79157c7a147c7b167c7c17979908d4a90997bb1097cc18d4cb0bd4b909979920d489027c79017c7a7c7b027c7c03979908d4a90997bb1097cc18d4cb0bd4b9097c7a057c7b047c7c067c780797aa08d4ba0a97cc10978818d4c808d4a808978820d498037c78197c7a187c7b1a7c7c1b978808d4a80897bb1097cc18d4cb0bd4b8087c7a1d7c7b1c7c7c1e7c791f97aa08d4ba0a97cc10979918d4c909d4a909979920d4890a7c78097c79087c7b0a7c7c0b978808d4980897bb1097cc18d4cb0bd4b8087c790d7c7b0c7c7c0e7c770f979908d4b90997cc10977718d4c707d49707977720d487076f786fa76f396f2ad4a909d4870ad49a0a98aa20d49808978820d4a80851081e00330733085010447cf2837833070133090a0d83773300462869f2837750104664f28378330733093300480a0d019511a07b10587b15507b16487b178283828008828b108288188292829a0882941882991098253d97a603d4650598aa3d979603d46a0a98993d974403d494069724038e698eacdb690c8e5788490001859401db5704d46a0adbac0446114746114646114546114446114346114246114146114046113f46113e46113d46113c46113b46113a46113946113846113746113646113546113446113346113246113146113046112f46112e46112d46112c46112b46112a461129461128781820781b1878101078130898873878172798873078172698872878172598872078172498871878172398871078172298880878182198b73878171f98b73078171e98b72878171d98b72078171c98b71878171b98b71078171a98bb08781b1998073878171798073078171698072878171598072078171498071878171398071078171298070878171198373878170f98373078170e98372878170d98372078170c98371878170b98371078170a98370878170984281f951708c878087c87097c89087c8a0a7c8b0b977708d4970797aa1097bb18d4ba0ad4a7077c890d7c8a0c7c8b0e7c8c0f979908d4a90997bb1097cc18d4cb0bd4b909979920d4790a7c87017c897c8b027c8c03977708d4970797bb1097cc18d4cb0bd4b7077c89057c8b047c8c067c8607979908d4b90997cc10976618d46c0cd4c909979920d497077c89117c8b107c8c127c8813979908d4b90997cc10978818d4c808d498089447944a944882194919187b98107b9a087b978210588215508216489511603200821730821838821928821a20d49808d4a707d487075207820139074400025417037901491158491150491148491140024911784911704911684911604821800020831840831a60831b80003309ff33070a088217707b17088217687b17108217607b171833074033082050104aafef7c78117c79107c7a127c7b13978808d4980897aa1097bb18d4ba0ad4a8087c79157c7a147c7b167c7c17979908d4a90997bb1097cc18d4cb0bd4b909979920d489027c79017c7a7c7b027c7c03979908d4a90997bb1097cc18d4cb0bd4b9097c7a057c7b047c7c067c760797aa08d4ba0a97cc10976618d46c0cd4ca0a97aa20d4a9097c7a197c7b187c7c1a7c761b97aa08d4ba0a97cc10976618d46c0cd4ca0a7c7b1d7c7c1c7c761e7c781f97bb08d4cb0b976610978818d46808d4b808978820d48a0a7c78097c7b087c7c0a7c760b978808d4b80897cc10976618d46c0cd4c8087c7b0d7c7c0c7c760e7c770f97bb08d4cb0b976610977718d46707d4b707977720d487076f786fa76f996f2ad4a909d4870ad49a0a98aa20d49808978820d4a808510817003307330850104c7eee837833070133090a0d0182180897882098862083777b170833082050104e5eee6f688219106f99821a186faa98ab38787b1f98ab30787b1e98ab28787b1d98ab20787b1c98ab18787b1b98ab10787b1a98ab08787b19787a1878791046170b46170a4617094617074617064617054617044617034617024617014607989a38787a17989a30787a16989a28787a15989a20787a14989a18787a13989a10787a1298990878791178780898893878790f98893078790e98892878790d98882078780c330820821708501050b2ed837833092033073300520a0d019511a07b10587b15507b16489515608411e06476491118491110491108490101491138491130491128491120481140208318831a20831b403309ff33070a08821738821830821928821a207b67187b68107b69087b6a9551a08210588215508216489511603200821730821838821928821a20d49808d4a707d487075207870139074400025417037e01491158491150491148491140014911784911704911684911604821800020831840831a60831b80003309ff33070a088217787b178217707b17088217687b17108217607b1718330740330820501054caec7c78117c79107c7a127c7b13978808d4980897aa1097bb18d4ba0ad4a8087c79157c7a147c7b167c7c17979908d4a90997bb1097cc18d4cb0bd4b909979920d489027c79017c7a7c7b027c7c03979908d4a90997bb1097cc18d4cb0bd4b9097c7a057c7b047c7c067c760797aa08d4ba0a97cc10976618d46c0cd4ca0a97aa20d4a9097c7a197c7b187c7c1a7c761b97aa08d4ba0a97cc10976618d46c0cd4ca0a7c7b1d7c7c1c7c761e7c781f97bb08d4cb0b976610978818d46808d4b808978820d48a0a7c78097c7b087c7c0a7c760b978808d4b80897cc10976618d46c0cd4c8087c7b0d7c7c0c7c760e7c770f97bb08d4cb0b976610977718d46707d4b707977720d487076f786fa76f996f2ad4a909d4870ad49a0a98aa20d49808978820d4a808510817003307330850105699eb837833070133090a0d018376330820646750105883eb82186f888219086f99821a106faa821b186fbb98bc38787c1f98bc30787c1e98bc28787c1d98bc20787c1c98bc18787c1b98bc10787c1a98bc08787c19787b18787a1098ab38787b1798ab30787b1698ab28787b1598ab20787b1498ab18787b1398ab10787b1298aa08787a11787908989a38787a0f989a30787a0e989a28787a0d989a20787a0c989a18787a0b989a10787a0a9899087879097878988938787907988930787906988928787905988920787904988918787903988910787902988808787801330820646750105ab3ea8378330920330733005c0a0d0132009511a07b10587b15509515608411e03907440002541723c8018317203308040a04821820821728821930821a387b1a187b19107b170864177b1833005e951160fd7b1098027b1590027b1688029515a0028411e064168278187b68788278107b68708278087b686082777b6768492618024926100249260802492600020249265802492650024926480249264002482620022083680002836a4002836b20023309ff33070a08284037330740330820501060f0e97c78117c79107c7a127c7b13978808d4980897aa1097bb18d4ba0ad4a8087c79157c7a147c7b167c7c17979908d4a90997bb1097cc18d4cb0bd4b909979920d489027c79017c7a7c7b027c7c03979908d4a90997bb1097cc18d4cb0bd4b9097c7a057c7b047c7c067c780797aa08d4ba0a97cc10978818d4c808d4a808978820d498037c78197c7a187c7b1a7c7c1b978808d4a80897bb1097cc18d4cb0bd4b8087c7a1d7c7b1c7c7c1e7c791f97aa08d4ba0a97cc10979918d4c909d4a909979920d4890a7c78097c79087c7b0a7c7c0b978808d4980897bb1097cc18d4cb0bd4b8087c790d7c7b0c7c7c0e7c770f979908d4b90997cc10977718d4c707d49707977720d487076f786fa76f396f2ad4a909d4870ad49a0a98aa20d49808978820d4a80851081e0033073308501062bfe8837833070133090a0d837733006428ace88377501064a7e88378330733093300660a0d017c884917184917104917087b783200821730821838821928821a20d49808d4a707d487075207760139074400025417036d01491158491150491148491140024911784911704911684911604821800020831840831a60831b80003309ff33070a088217707b171833074033082050106829e87c78117c79107c7a127c7b13978808d4980897aa1097bb18d4ba0ad4a8087c79157c7a147c7b167c7c17979908d4a90997bb1097cc18d4cb0bd4b909979920d489027c79017c7a7c7b027c7c03979908d4a90997bb1097cc18d4cb0bd4b9097c7a057c7b047c7c067c760797aa08d4ba0a97cc10976618d46c0cd4ca0a97aa20d4a9097c7a197c7b187c7c1a7c761b97aa08d4ba0a97cc10976618d46c0cd4ca0a7c7b1d7c7c1c7c761e7c781f97bb08d4cb0b976610978818d46808d4b808978820d48a0a7c78097c7b087c7c0a7c760b978808d4b80897cc10976618d46c0cd4c8087c7b0d7c7c0c7c760e7c770f97bb08d4cb0b976610977718d46707d4b707977720d487076f786fa76f996f2ad4a909d4870ad49a0a98aa20d49808978820d4a808510817003307330850106af8e6837833070133090a0d01140800000000ff000000821918d298088e887b18188376330820646750106ccde646171e46171d46171c46171b46171a46171946171846171746171646171546171446171346171246171146171046170f46170e46170d46170c46170b46170a461709461708461707461706461705461704461703461702461701460782181878781f330820646750106e61e6837833092033073300700a0d019511a07b10587b15507b16489515608411e06476491118491110491108490102491138491130491128491120481140208318831a20831b403309ff33070a087c17354916184916104916087b679551a08210588215508216489511603200821730821838821928821a20d49808d4a707d487075207760139074400025417036d01491158491150491148491140024911784911704911684911604821800020831840831a60831b80003309ff33070a088217707b171833074033082050107293e57c78117c79107c7a127c7b13978808d4980897aa1097bb18d4ba0ad4a8087c79157c7a147c7b167c7c17979908d4a90997bb1097cc18d4cb0bd4b909979920d489027c79017c7a7c7b027c7c03979908d4a90997bb1097cc18d4cb0bd4b9097c7a057c7b047c7c067c760797aa08d4ba0a97cc10976618d46c0cd4ca0a97aa20d4a9097c7a197c7b187c7c1a7c761b97aa08d4ba0a97cc10976618d46c0cd4ca0a7c7b1d7c7c1c7c761e7c781f97bb08d4cb0b976610978818d46808d4b808978820d48a0a7c78097c7b087c7c0a7c760b978808d4b80897cc10976618d46c0cd4c8087c7b0d7c7c0c7c760e7c770f97bb08d4cb0b976610977718d46707d4b707977720d487076f786fa76f996f2ad4a909d4870ad49a0a98aa20d49808978820d4a808510817003307330850107462e4837833070133090a0d0114080000000000ff0000821918d298088e887b18188376330820646750107637e446171e46171d46171c46171b46171a46171946171846171746171646171546171446171346171246171146171046170f46170e46170d46170c46170b46170a461709461708461707461706461705461704461703461702461701460782181878781f3308206467501078cbe38378330920330733007a0a0d01828918828a10828b0882887b79187b7a107b7b087b7832009511a07b10587b15507b1648828a18828b10828c088286d4ac08d4b609d48909989920d4b808978820d498087b1728520807029567207b1730d86707c87c087b18407b1c08d8c805da7705c8b5057b1b10d8b5077b1a18c8a7077b17387b16836733082033062050107c3ae378761f8218306486d45808821940821b38d4b909d498089888207b1520d45909979920d4980846171e46171d46171c46171b46171a46171946171846171746171646171546171446171346171246171146171046170f46170e46170d46170c46170b46170a4617094617084617074617064617054617044617034617024617014607520848018365330820645750107ea8e246171f0d46171e46171d46171c46171b46171a46171946171846171746171646171546171446171346171246171146171046170f46170e46170d46170c46170b46170a461709461708461707461706461705461704461703461702461701821820821938d498081409e0ffffff00000000d89609821a4094a9948946075109bb00835720330820502080001ce246171f46171e46171d46171c46171b46171a46171946171846171746171646171546171446171346171246171146171046170f46170e46170d46170c7246170b6546170a6e461709774617086f4617072046170665461705684617047446170320461702744617016f46074e8218958760d88708821a08c88a09d8a90ada880a821810c88a0ad88a08821b18c8b808821b287bb77bb9087bba107bb8188210588215508216489511603200009511a0fe7b1058017b1550017b164801951560018411e08289187b19408289107b19388289087b192882887b18188278187b18488278107b18308278087b182082777b17108317e0000a068217e8008218e0008119f0006f77987a206f86976820d4a8087b18589777206f98988820d487077b1750986620492118014921100149210801492100010249213801492130014921280149212001482140012083180001831a2001831b40013309ff33070a0801801730018218200182192801d36707821a50d3a808d48707821858d39808d487075207f7008217187b17608217107b1780008217287b17688217207b1788008217387b17708217307b1790008217407b1778951780009518608219487b199800330082009511e0fb7b1018047b1510047b160804951520048411e064168289187b69408289107b69308289087b693882887b68288278107b68508278087b684882777b6758836700020a09826700027b6778826708027b6770826710027b6768826718027b6760492698034926900349268803492680034926d8034926d0034926c8034926c0034826a0032083688003836ac003836ba0033309ff33070a082834109551a0fe821058018215500182164801951160013200330740330820502084009adf7c78117c79107c7a127c7b13978808d4980897aa1097bb18d4ba0ad4a8087c79157c7a147c7b167c7c17979908d4a90997bb1097cc18d4cb0bd4b909979920d489027c79017c7a7c7b027c7c03979908d4a90997bb1097cc18d4cb0bd4b9097c7a057c7b047c7c067c760797aa08d4ba0a97cc10976618d46c0cd4ca0a97aa20d4a9097c7a197c7b187c7c1a7c761b97aa08d4ba0a97cc10976618d46c0cd4ca0a7c7b1d7c7c1c7c761e7c781f97bb08d4cb0b976610978818d46808d4b808978820d48a0a7c78097c7b087c7c0a7c760b978808d4b80897cc10976618d46c0cd4c8087c7b0d7c7c0c7c760e7c770f97bb08d4cb0b976610977718d46707d4b707977720d487076f766fa86f996f277b17587b1950d497076489d46808d47808988820d46707977720d48707520716017b194883973308207b17405020860059de46171f46171e46171d46171c46171b46171a46171946171846171746171646171546171446171346171246171146171046170f46170e46170d46170c46170b46170a461709461708461707461706461705461704461703a00046170279461701c300460708821848958704d88708821a58c88a09d8a90ada880ac86a0ad86a08821b50c88b0b7b19a8007b17a0007b1ab0009517c0009518a0007b1bb8005020880014fa8217c8008212d8008213c000821ad000821858d3870bd8870c6484821948d89308dab80cc96a0bd86a0a821650c96206c9a606d8cb0ac9a606c9cb0bc94707c98708c99307d46808d4b709d48909d4b808989920978820d49808510804008376821740646850208a004add8378330701646933008c000a0d01828918828a10828b0882887b79187b7a107b7b087b7832009511a07b10587b15507b1648828a18828b10828c088286d4ac08d4b609d48909989920d4b808978820d498087b1728520816029567207b1730d86707c87c087b18407b1c08d8c805da7705c8b5057b1b10d8b5077b1a18c8a7077b17387b16836733082033062050208e00b7dc78761f8218306486d45808821940821b38d4b909d498089888207b1520d45909979920d4980846171e46171d46171c46171b46171a46171946171846171746171646171546171446171346171246171146171046170f46170e46170d46170c46170b46170a461709461708461707461706461705461704461703461702461701460752085601836533082064575020900024dc46171f1846171e46171d46171c46171b46171a46171946171846171746171646171546171446171346171246171146171046170f46170e46170d46170c46170b46170a461709461708461707461706461705461704461703461702461701821820821938d498081409e0ffffff00000000d89609821a4094a9948946075109c8008357203308205020920097db46171f46171e46171d46171c46171b46171a461719461718461717644617166546171568461714634617136146171265461711724617102046170f7446170e65330c79787c0d46170c2046170b7446170a6f4617096e46170820461707654617066e461705694617046c4617036446170261461701654607448218958760d88708821a08c88a09d8a90ada880a821810c88a0ad88a08821b18c8b808821b287bb77bb9087bba107bb8188210588215508216489511603200009511a07b10587b15507b1648828a18828b10828c088286d4ac08d4b609d48909989920d4b808978820d498087b1728520810029567207b1730d86707c87c087b18407b1c08d8c805da7705c8b5057b1b10d8b5077b1a18c8a7077b17387b1683673308203306205020940071da78761f8218306486d45808821940821b38d4b909d498089888207b1520d45909979920d4980846171e46171d46171c46171b46171a46171946171846171746171646171546171446171346171246171146171046170f46170e46170d46170c46170b46170a4617094617084617074617064617054617044617034617024617014607520850018365330820645750209600ded946171f1446171e46171d46171c46171b46171a46171946171846171746171646171546171446171346171246171146171046170f46170e46170d46170c46170b46170a461709461708461707461706461705461704461703461702461701821820821938d498081409e0ffffff00000000d89609821a4094a9948946075109c2008357203308205020980051d946171f46171e46171d46171c46171b46171a4617194617184617174617164617154617144617137746171261461711724617106446170f6846170e7446170d6946170c7746170b2046170a6f461709744617082046170773461706644617056e4617047546170366461702204617016f46074e8218958760d88708821a08c88a09d8a90ada880a821810c88a0ad88a08821b18c8b808821b287bb77bb9087bba107bb8188210588215508216489511603200007c78197c79187c7a1a7c7b1b978808d4980897aa1097bb18d4ba0ad4a8087c791d7c7a1c7c7b1e7c7c1f979908d4a90997bb1097cc18d4cb0bd4b909979920d489027c79117c7a107c7b127c7c13979908d4a90997bb1097cc18d4cb0bd4b9097c7a157c7b147c7c167c761797aa08d4ba0a97cc10976618d46c0cd4ca0a97aa20d4a9097c7a097c7b087c7c0a7c760b97aa08d4ba0a97cc10976618d46c0cd4ca0a7c7b0d7c7c0c7c760e7c780f97bb08d4cb0b976610978818d46808d4b808978820d48a0a7c78017c7b7c7c027c7603978808d4b80897cc10976618d46c0cd4c8087c7b057c7c047c76067c770797bb08d4cb0b976610977718d46707d4b707977720d487076f736fa46f966f2c82181895871fd88708821a20c88a09d8a90ada880a821828c88a0ad88a08821b30c8b8088477e0c8c7077b1c287b1710d8c70bc86909c8b90cd36c097b1630d86c07da9b07c84a0ac87a0bd8ab06d84a09c83808c89808c886068eb88e69da6809d46b087b1c088ecadb890a520a2401d84b08d33609d8360ada980ad34b08d49808db8a0752070b013307403308207b14207b13187b1b50209c00f2d66f6882196f99821a086faa821b106fbb787b1898bc38787c1f98bc30787c1e98bc28787c1d98bc20787c1c98bc18787c1b98bc10787c1a98bb08787b19787a1098ab38787b1798ab30787b1698ab28787b1598ab20787b1498ab18787b1398ab10787b1298aa08787a11787908989a38787a0f989a30787a0e989a28787a0d989a20787a0c989a18787a0b989a10787a0a98990878790978789889387879079889307879069889287879059889207879049889187879039889107879029888087878018217388218287b788218187b78188218307b78088218207b7810955160ff8210980082159000821688009511a0003200491170491168491160140700000000717b484e9518607b1778330750209e001ed6491158491150491140413307049518404911485020a00005d633082433075020a200bad583783307013309243300a4000a0d01828a18828b10828908d4ba0a889b0194ab510b308288958a1fd88a08c8980884880184aae095a920d8a90ac8a80bd88b08daaa084917187b797b7b087b781032009511b07b10487b15409515508411f0491130491128491120140700000000717b484e9518207b173833075020a6007ad549111849111049014133070464184911085020a80063d533082433075020aa0018d583783307013309243300ac000a0d01951120ff7b10d8007b15d0007b16c8009515e0008411f0828a18828910828b087b19107b1a08d4a90988ba01949a7b1738510ab401828695671fd867087b1b18c8b8088488018477e0957920d87907c8780ad88a0bda770b492198007b1980007b1a88009517a000951880007b1b90003300ae00951160ff7b1098007b1590007b1688009515a0008411f08289187b19308289107b19288289087b192082887b18187b173833074033082033009a002854d48217b8008219b0008218a800821aa0007b17287b1820d48707d49a08d478089888207b1930d49707977720d487075207040183a73308207b1a5020b00018d48218086f888219106f99821a186faa6f6b98bc38787c1f98bc30787c1e98bc28787c1d98bc20787c1c98bc18787c1b98bc10787c1a98bc08787c19787b18787a1098ab38787b1798ab30787b1698ab28787b1598ab20787b1498ab18787b1398ab10787b1298aa08787a11787908989a38787a0f989a30787a0e989a28787a0d989a20787a0c989a18787a0b989a10787a0a989908787909787898893878790798893078790698892878790598892078790498891878790398891078790298880878780182173882187b788218287b78188218207b78088218307b7810955120ff8210d8008215d0008216c8009511e000320000491170491168491160140700000000717b484e9518607b177833075020b20043d3491158491150491140413307049518404911485020b4002ad333082433075020b600dfd283783307013309243300b8000a0d014917184917104917083308607b783200951160ff7b1098007b1590007b1688009515a0008411e064760a0c015107b3007b16200a0c4911584911507b17409517609518404911485020ba0080fd8217787b17388217707b17308217687b17288216600a0c019568207b1618d86809821b28c89b0ad8ba0bda990b821930c89b0bd89b09821c38c8c909d4b80cd4a909d49c0c98cc20d4b909979920d4c9095209406476987720520738838783687b18105020bc001ad27a16800083778318800033090a0b0181178000821620821838821930821a28821b18821c10aec70e00330a33093308330b60017b6b7b6a087b69107b6818955160ff8210980082159000821688009511a00032009511a07b10587b15507b1648828a18828b10828c088286d4ac08d4b609d48909989920d4b808978820d498087b172852080b029567207b1730d86707c87c087b18407b1c08d8c805da7705c8b5057b1b10d8b5077b1a18c8a7077b17387b1683673308203306205020be0059d178761f8218306486d45808821940821b38d4b909d498089888207b1520d45909979920d4980846171e46171d46171c46171b46171a46171946171846171746171646171546171446171346171246171146171046170f46170e46170d46170c46170b46170a461709461708461707461706461705461704461703461702461701460752084b01836533082064575020c000c6d046171f0f46171e46171d46171c46171b46171a46171946171846171746171646171546171446171346171246171146171046170f46170e46170d46170c46170b46170a461709461708461707461706461705461704461703461702461701821820821938d498081409e0ffffff00000000d89609821a4094a9948946075109bd008357203308205020c20039d046171f46171e46171d46171c46171b46171a46171946171846171746171646171546171446171346171246171146171046170f46170e6446170d6546170c6c46170b6946170a614617096646170820461707774617066146170572461704644617036846170274461701694607578218958760d88708821a08c88a09d8a90ada880a821810c88a0ad88a08821b18c8b808821b287bb77bb9087bba107bb8188210588215508216489511603200008267d8038262c0038269d003826ac803826860d3780bd87808826768d8970cdbb80c826870d3a803d8a80a826878d82808db3a08d39707d4b707db7c085208860e836720020a8267280282682002816930027b6748027b6840027a6950029517e08477e07b677864718378836740020a0101826878828910828a1882870882887b67687b6a60d4a7077b68787b6970d49808d487075107240c49269803492690034926880349268003024926d8034926d0034926c8034926c0034826a0032083688003836ac003836ba0033309ff33070a08017c67d5035207e20b826730826828d48707826840826938d49808d48707510751053307403308205020c4008bce7c78117c79107c7a127c7b13978808d4980897aa1097bb18d4ba0ad4a8087c79157c7a147c7b167c7c17979908d4a90997bb1097cc18d4cb0bd4b909979920d489027c79017c7a7c7b027c7c03979908d4a90997bb1097cc18d4cb0bd4b9097c7a057c7b047c7c067c780797aa08d4ba0a97cc10978818d4c808d4a808978820d498037c78197c7a187c7b1a7c7c1b978808d4a80897bb1097cc18d4cb0bd4b8087c7a1d7c7b1c7c7c1e7c791f97aa08d4ba0a97cc10979918d4c909d4a909979920d4890a7c78097c79087c7b0a7c7c0b978808d4980897bb1097cc18d4cb0bd4b8087c790d7c7b0c7c7c0e7c770f979908d4b90997cc10977718d4c707d49707977720d487076f777b67406fa77b67286f377b67386f277b67300a0a017b67208267486f779778208269506f99989920d498088269586f99979a20987720d4a7077b6708039899207a6910038269287b680003826738826830d48707826a40d4a908d47808d4a707988820977720d487078268607b6838038268707b6830038268687b6828038268787b682003510706289e12839733085020c600edcc7b6758330733085020c800e0cc482640038269208e98fc089a897b6978037b6970037b6968037b69600395690003979920989920978823d498029568200397882098882095696003979920d4890a826b5897bb2098bb2097772098772095684003978820d4780c3308ff3309ff64270a027b67589567e0015020ca00b5f98267585207ae0d49269803492690034926880349268003024926d8034926d0034926c8034926c0034826a0032083688003836ac003836ba0033309ff33070a088267c0038268c8038269d003826ad803140bffffffffff00ffffd2b909140b0000000000010000d4b90949269803492690034926880349268003027b6ad8037b69d0037b68c8037b67c00383688003836ac0033309ff330b2033070a0f49269803492690034926880349268003024926d8034926d0034926c8034926c0034826a0032083688003836ac003836ba0033309ff33070a088267d0037b67488267c8037b67508267c0037b67583307403308205020cc0078cb7c78117c79107c7a127c7b13978808d4980897aa1097bb18d4ba0ad4a8087c79157c7a147c7b167c7c17979908d4a90997bb1097cc18d4cb0bd4b909979920d489027c79017c7a7c7b027c7c03979908d4a90997bb1097cc18d4cb0bd4b9097c7a057c7b047c7c067c780797aa08d4ba0a97cc10978818d4c808d4a808978820d498037c78197c7a187c7b1a7c7c1b978808d4a80897bb1097cc18d4cb0bd4b8087c7a1d7c7b1c7c7c1e7c791f97aa08d4ba0a97cc10979918d4c909d4a909979920d4890a7c78097c79087c7b0a7c7c0b978808d4980897bb1097cc18d4cb0bd4b8087c790d7c7b0c7c7c0e7c770f979908d4b90997cc10977718d4c707d49707977720d487076f786fa76f396f2ad4a909d4870ad49a0a98aa20d49808978820d4a80851080628f50f8268489788209888207b684883777b67403308205020ce0034ca8268606f888269706f99826a686faa826b786fbb98bc38787c1f98bc30787c1e98bc28787c1d98bc20787c1c98bc18787c1b98bc10787c1a98bc08787c19787b18787a1098ab38787b1798ab30787b1698ab28787b1598ab20787b1498ab18787b1398ab10787b1298aa08787a11787908989a38787a0f989a30787a0e989a28787a0d989a20787a0c989a18787a0b989a10787a0a98990878790978789889387879079889307879069889287879059889207879049889187879039889107879029888087878013308208267405020d00061c93a080000023a090800023a0a1000023a0b180002282806492698034926900349268803492680034926d8034926d0034926c8034926c0034826a0032083688003836ac003836ba0033309ff33070a0801826ad8038268d0038269c8038264c00395a20188acff888bffdb2c0b884280aefe959301889cffda320cd2a807957701db7b0c510c830e95478051017b6740d84707c8790b7b6b38d89b09da7709c889097b6928d88907c8a7077b6730836760020a090182647002826878028269680282626002826728d8470b826c30d38c0ad88c08daab08826b40d82b02826b38d39b03d89b09da3209d34707d4a707db780951096f0e3307403308205020d20060c87c78117c79107c7a127c7b13978808d4980897aa1097bb18d4ba0ad4a8087c79157c7a147c7b167c7c17979908d4a90997bb1097cc18d4cb0bd4b909979920d489027c79017c7a7c7b027c7c03979908d4a90997bb1097cc18d4cb0bd4b9097c7a057c7b047c7c067c780797aa08d4ba0a97cc10978818d4c808d4a808978820d498037c78197c7a187c7b1a7c7c1b978808d4a80897bb1097cc18d4cb0bd4b8087c7a1d7c7b1c7c7c1e7c791f97aa08d4ba0a97cc10979918d4c909d4a909979920d4890a7c78097c79087c7b0a7c7c0b978808d4980897bb1097cc18d4cb0bd4b8087c790d7c7b0c7c7c0e7c770f979908d4b90997cc10977718d4c707d49707977720d487076f777b67406fa77b67286f377b67386f277b67300a0a017b67208267486f779778208269506f99989920d498088269586f99979a20987720d4a7077b6788029899207a6990028269287b688002826738826830d48707826a40d4a908d47808d4a707988820977720d487078268607b68b8028268707b68b0028268687b68a8028268787b68a0025207760c839733085020d400c4c67b6758330733085020d600b7c64826c0028269208e98fc089a897b69f8027b69f0027b69e8027b69e00295698002979920989920978823d498029568a0029788209888209569e002979920d4890a826b5897bb2098bb209777209877209568c002978820d4780c3308ff3309ff64270a027b6758956780015020d8008cf382675852078f0949269803492690034926880349268003024926d8034926d0034926c8034926c0034826a0032083688003836ac003836ba0033309ff33070a088267c0038268c8038269d003826ad803140bffffffffff00ffffd2b909140b0000000000010000d4b90949269803492690034926880349268003027b6ad8037b69d0037b68c8037b67c00383688003836ac0033309ff330b2033070a0f49269803492690034926880349268003024926d8034926d0034926c8034926c0034826a0032083688003836ac003836ba0033309ff33070a088267d0037b67488267c8037b67508267c0037b67583307403308205020da004fc57c78117c79107c7a127c7b13978808d4980897aa1097bb18d4ba0ad4a8087c79157c7a147c7b167c7c17979908d4a90997bb1097cc18d4cb0bd4b909979920d489027c79017c7a7c7b027c7c03979908d4a90997bb1097cc18d4cb0bd4b9097c7a057c7b047c7c067c780797aa08d4ba0a97cc10978818d4c808d4a808978820d498037c78197c7a187c7b1a7c7c1b978808d4a80897bb1097cc18d4cb0bd4b8087c7a1d7c7b1c7c7c1e7c791f97aa08d4ba0a97cc10979918d4c909d4a909979920d4890a7c78097c79087c7b0a7c7c0b978808d4980897bb1097cc18d4cb0bd4b8087c790d7c7b0c7c7c0e7c770f979908d4b90997cc10977718d4c707d49707977720d487076f786fa76f396f2ad4a909d4870ad49a0a98aa20d49808978820d4a8085208cf098268489788209888207b684883777b67403308205020dc000dc48268606f888269706f99826a686faa826b786fbb98bc38787c1f98bc30787c1e98bc28787c1d98bc20787c1c98bc18787c1b98bc10787c1a98bc08787c19787b18787a1098ab38787b1798ab30787b1698ab28787b1598ab20787b1498ab18787b1398ab10787b1298aa08787a11787908989a38787a0f989a30787a0e989a28787a0d989a20787a0c989a18787a0b989a10787a0a98990878790978789889387879079889307879069889287879059889207879049889187879039889107879029888087878013308208267405020de003ac33a080000023a090800023a0a1000023a0b180002017b68d8037b69d0037b6ac8037b6bc0038268486f888269506f99826a586faa7b6af8037b69f0037b68e8034926e00383798367c003330802330a200a079551e0fb8210180482151004821608049511200432003307403308205020e000c6c27c78117c79107c7a127c7b13978808d4980897aa1097bb18d4ba0ad4a8087c79157c7a147c7b167c7c17979908d4a90997bb1097cc18d4cb0bd4b909979920d489027c79017c7a7c7b027c7c03979908d4a90997bb1097cc18d4cb0bd4b9097c7a057c7b047c7c067c780797aa08d4ba0a97cc10978818d4c808d4a808978820d498037c78197c7a187c7b1a7c7c1b978808d4a80897bb1097cc18d4cb0bd4b8087c7a1d7c7b1c7c7c1e7c791f97aa08d4ba0a97cc10979918d4c909d4a909979920d4890a7c78097c79087c7b0a7c7c0b978808d4980897bb1097cc18d4cb0bd4b8087c790d7c7b0c7c7c0e7c770f979908d4b90997cc10977718d4c707d49707977720d487076f7b6fa86f396f277b67787b6968d497076489d4b808d478089888207b6b70d4b707977720d4870752073b077b696083973308207b67585020e20082c146171f46171e46171d46171c46171b46171a46171946171846171746171646171546171446171346171246171146171046170f46170e46170d46170c46170b46170a461709461708461707461706461705461704461703a00046170279461701c300460708826860958704d88708826a78c88a09d8a90ada880a826870c88a0ad88a08826b68c88b0b7b69c8007b67c0007b6ad0009567e0009568c0007b6bd8005020e40003e68267e8008262f8008263e000826af000281f063307403308205020e600bcc07c78117c79107c7a127c7b13978808d4980897aa1097bb18d4ba0ad4a8087c79157c7a147c7b167c7c17979908d4a90997bb1097cc18d4cb0bd4b909979920d489027c79017c7a7c7b027c7c03979908d4a90997bb1097cc18d4cb0bd4b9097c7a057c7b047c7c067c780797aa08d4ba0a97cc10978818d4c808d4a808978820d498037c78197c7a187c7b1a7c7c1b978808d4a80897bb1097cc18d4cb0bd4b8087c7a1d7c7b1c7c7c1e7c791f97aa08d4ba0a97cc10979918d4c909d4a909979920d4890a7c78097c79087c7b0a7c7c0b978808d4980897bb1097cc18d4cb0bd4b8087c790d7c7b0c7c7c0e7c770f979908d4b90997cc10977718d4c707d49707977720d487076f7b6fa86f396f277b67787b6968d497076489d4b808d478089888207b6b70d4b707977720d48707520731057b696083973308207b67585020e80078bf46171f46171e46171d46171c46171b46171a46171946171846171746171646171546171446171346171246171146171046170f46170e46170d46170c46170b46170a461709461708461707461706461705461704461703a00046170279461701c300460708826860958704d88708826a78c88a09d8a90ada880a826870c88a0ad88a08826b68c88b0b7b6988007b6780007b6a90009567a000956880007b6b98005020ea00b3e18267a8008262b8008263a000826ab0002815043307403308205020ec00b2be7c78117c79107c7a127c7b13978808d4980897aa1097bb18d4ba0ad4a8087c79157c7a147c7b167c7c17979908d4a90997bb1097cc18d4cb0bd4b909979920d489027c79017c7a7c7b027c7c03979908d4a90997bb1097cc18d4cb0bd4b9097c7a057c7b047c7c067c780797aa08d4ba0a97cc10978818d4c808d4a808978820d498037c78197c7a187c7b1a7c7c1b978808d4a80897bb1097cc18d4cb0bd4b8087c7a1d7c7b1c7c7c1e7c791f97aa08d4ba0a97cc10979918d4c909d4a909979920d4890a7c78097c79087c7b0a7c7c0b978808d4980897bb1097cc18d4cb0bd4b8087c790d7c7b0c7c7c0e7c770f979908d4b90997cc10977718d4c707d49707977720d487076f7b6fa86f396f277b67787b6968d497076489d4b808d478089888207b6b70d4b707977720d48707520727037b696083973308207b67585020ee006ebd46171f46171e46171d46171c46171b46171a46171946171846171746171646171546171446171346171246171146171046170f46170e46170d46170c46170b46170a461709461708461707461706461705461704461703a00046170279461701c300460708826860958704d88708826a78c88a09d8a90ada880a826870c88a0ad88a08826b68c88b0b7b69a8017b67a0017b6ab0019567c0019568a0017b6bb8015020f00007eb8267c8018262d8018263c001826ad001280b023307403308205020f200a8bc7c78117c79107c7a127c7b13978808d4980897aa1097bb18d4ba0ad4a8087c79157c7a147c7b167c7c17979908d4a90997bb1097cc18d4cb0bd4b909979920d489027c79017c7a7c7b027c7c03979908d4a90997bb1097cc18d4cb0bd4b9097c7a057c7b047c7c067c780797aa08d4ba0a97cc10978818d4c808d4a808978820d498037c78197c7a187c7b1a7c7c1b978808d4a80897bb1097cc18d4cb0bd4b8087c7a1d7c7b1c7c7c1e7c791f97aa08d4ba0a97cc10979918d4c909d4a909979920d4890a7c78097c79087c7b0a7c7c0b978808d4980897bb1097cc18d4cb0bd4b8087c790d7c7b0c7c7c0e7c770f979908d4b90997cc10977718d4c707d49707977720d487076f7b6fa86f396f277b67787b6968d497076489d4b808d478089888207b6b70d4b707977720d4870752071d017b696083973308207b67585020f40064bb46171f46171e46171d46171c46171b46171a46171946171846171746171646171546171446171346171246171146171046170f46170e46170d46170c46170b46170a461709461708461707461706461705461704461703a00046170279461701c300460708826860958704d88708826a78c88a09d8a90ada880a826870c88a0ad88a08826b68c88b0b7b6948017b6740017b6a500195676001956840017b6b58015020f600fde8826768018262780182636001826a700101826878d3870bd8870c6480826460d84308dab80c826970c99a0bd89a0a826968c99209c9a909d8cb0ac9a909c9cb0bc90707c98708c94307d49808d4b709d48909d4b808989920978820d4980851087200492630014926280149262001140700000000717b484e956820017b67380133075020f80075ba4926180149261001492600011133070495680001492608015020fa0057ba33082433075020fc000cba83783307013309240a0d01330733085020fe00f7b9837833070133090a0d0183787b687882675850200001dfb98378330701826978330002010a0d019511b07b10487b15409515508411f08272827308827b10827718828c828908828a108288187b18187b1a107b19087b1c7b17387b1b307b132895172064187b1220502004011fd89551b082104882154095115032009511a07b10587b15507b1648828a18828b10828c088286d4ac08d4b609d48909989920d4b808978820d498087b1728520815029567207b1730d86707c87c087b18407b1c08d8c805da7705c8b5057b1b10d8b5077b1a18c8a7077b17387b168367330820330620502006010eb978761f8218306486d45808821940821b38d4b909d498089888207b1520d45909979920d4980846171e46171d46171c46171b46171a46171946171846171746171646171546171446171346171246171146171046170f46170e46170d46170c46170b46170a46170946170846170746170646170546170446170346170246170146075208550183653308206457502008017bb846171f1746171e46171d46171c46171b46171a46171946171846171746171646171546171446171346171246171146171046170f46170e46170d46170c46170b46170a461709461708461707461706461705461704461703461702461701821820821938d498081409e0ffffff00000000d89609821a4094a9948946075109c70083572033082050200a01eeb746171f46171e46171d46171c46171b46171a4617194617184617174617166446171565461714644617136e46171275461711664617102046170f7946170e6446170d6146170c6546170b7246170a6c461709614617082046170774330c63787c064617056146170472461703744617026e4617016f4607438218958760d88708821a08c88a09d8a90ada880a821810c88a0ad88a08821b18c8b808821b287bb77bb9087bba107bb8188210588215508216489511603200009511a07b10587b15507b1648828a18828b10828c088286d4ac08d4b609d48909989920d4b808978820d498087b1728520809029567207b1730d86707c87c087b18407b1c08d8c805da7705c8b5057b1b10d8b5077b1a18c8a7077b17387b16836733082033062050200c01c9b678761f8218306486d45808821940821b38d4b909d498089888207b1520d45909979920d4980846171e46171d46171c46171b46171a46171946171846171746171646171546171446171346171246171146171046170f46170e46170d46170c46170b46170a4617094617084617074617064617054617044617034617024617014607520849018365330820645750200e0136b646171f0d46171e46171d46171c46171b46171a46171946171846171746171646171546171446171346171246171146171046170f46170e46170d46170c46170b46170a461709461708461707461706461705461704461703461702461701821820821938d498081409e0ffffff00000000d89609821a4094a9948946075109bb0083572033082050201001a9b546171f46171e46171d46171c46171b46171a46171946171846171746171646171546171446171346171246171146171046170f46170e46170d46170c4846170b5446170a4546170920461708644617076e46170665461705734617042046170374461702734617017546074d8218958760d88708821a08c88a09d8a90ada880a821810c88a0ad88a08821b18c8b808821b287bb77bb9087bba107bb8188210588215508216489511603200009511a07b10587b15507b1648828a18828b10828c088286d4ac08d4b609d48909989920d4b808978820d498087b172852080e029567207b1730d86707c87c087b18407b1c08d8c805da7705c8b5057b1b10d8b5077b1a18c8a7077b17387b1683673308203306205020120190b478761f8218306486d45808821940821b38d4b909d498089888207b1520d45909979920d4980846171e46171d46171c46171b46171a46171946171846171746171646171546171446171346171246171146171046170f46170e46170d46170c46170b46170a461709461708461707461706461705461704461703461702461701460752084e018365330820645750201401fdb346171f1046171e46171d46171c46171b46171a46171946171846171746171646171546171446171346171246171146171046170f46170e46170d46170c46170b46170a461709461708461707461706461705461704461703461702461701821820821938d498081409e0ffffff00000000d89609821a4094a9948946075109c0008357203308205020160170b346171f46171e46171d46171c46171b46171a46171946171846171746171646171546171446171346171246171146171046170f6e46170e6f46170d6946170c7446170b6146170a724617097546170864330c20787c0746170664461705694617046c46170361461702764617016e4607498218958760d88708821a08c88a09d8a90ada880a821810c88a0ad88a08821b18c8b808821b287bb77bb9087bba107bb8188210588215508216489511603200007c67540252077d079517e08477e07b67586471491718491710491708490783770a1001826a5882a71082a81882a90882aad49808d4a707d4870751075109826770826868d48707826878826960d49808d487075107420b836780010a068267880181689001826980016f77977a206f88988820d4a8087b68589877206f98978920d497077b67509888207b6848492618024926100249260802492600020249265802492650024926480249264002482620022083680002836a4002836b20023309ff33070a088067540297772082685802826948d4970749261802492610024926080249260002027b6858027b6750028267507b6748028267587b67400283680002836a40023309ff330b2033070a0f8367a0010a098267a0017b67588267a8017b67508267b0017b67488267b8017b6740492618024926100249260802492600020149265802492650024926480249264002482620022083680002836a4002836b20023309ff33070a0849261802492610024926080249260002018267407b6758028267487b6750028267507b6748028267587b67400283680002836a40023309ff330b2033070a0f8367c0010a0901826bc8018269c0018262d8018264d001826c60c8bc0c826868c898087b6868d8980ac8ac0cd3bc037b6c60d8bc0b826c70c84c0c826878c82808d84c09c8980864a9db3b09c89c07d8c709c8980c85a80185b901db3908d84709d32c0a7b6c70d82c0bdaa90b7b6778d34707d4a70785b901db79085108c80b4926180249261002492608024926000249265802492650024926480249264002482620022083680002836a4002836b20023309ff33070a08492618024926100249260802492600028267707b6758028267787b6750028267607b6748028267687b67400283680002836a40023309ff330b2033070a0f492618024926100249260802492600020249265802492650024926480249264002482620022083680002836a4002836b20023309ff33070a08826740028268480282695002826a5802140bffffffff00ffffffd2b909140b0000000001000000d4b90949261802492610024926080249260002027b6a58027b6950027b6848027b67400283680002836a40023309ff330b2033070a0f8367e0010a068067f0017b67308267e8017b67288267e0017b67789517e08477e07b67706471491718491710491708490783770a108268708287187b67508287107b67588287087b676082877b67684926180249261002492608024926000249265802492650024926480249264002482620022083680002836a4002836b20023309ff33070a08826758027b6708826750027b6710826748027b6718826740027b672033074033082050201801daae7c78117c79107c7a127c7b13978808d4980897aa1097bb18d4ba0ad4a8087c79157c7a147c7b167c7c17979908d4a90997bb1097cc18d4cb0bd4b909979920d489027c79017c7a7c7b027c7c03979908d4a90997bb1097cc18d4cb0bd4b9097c7a057c7b047c7c067c780797aa08d4ba0a97cc10978818d4c808d4a808978820d498037c78197c7a187c7b1a7c7c1b978808d4a80897bb1097cc18d4cb0bd4b8087c7a1d7c7b1c7c7c1e7c791f97aa08d4ba0a97cc10979918d4c909d4a909979920d4890a7c78097c79087c7b0a7c7c0b978808d4980897bb1097cc18d4cb0bd4b8087c790d7c7b0c7c7c0e7c770f979908d4b90997cc10977718d4c707d49707977720d487076f7b6fa96f386f277b67487b6838d48707d4b908d478089888207b6b40d4b707977720d487075207db0883973308207b67707b6950201a0199ad8268506f888269586f99826a606faa826b686fbb98bc38787c1f98bc30787c1e98bc28787c1d98bc20787c1c98bc18787c1b98bc10787c1a98bc08787c19787b18787a1098ab38787b1798ab30787b1698ab28787b1598ab20787b1498ab18787b1398ab10787b1298aa08787a11787908989a38787a0f989a30787a0e989a28787a0d989a20787a0c989a18787a0b989a10787a0a9899087879097878988938787907988930787906988928787905988920787904988918787903988910787902988808826940826a38d4a909140ae0ffffff00000000826bd8ab0a826b4894ba949a787801510ae1078267286f779778208269306f99989920d498087b68688268786f88978820987720d487077b676082677083772033082050201c0179ac8268086f888269106f99826a186faa826b206fbb98bc38787c1f98bc30787c1e98bc28787c1d98bc20787c1c98bc18787c1b98bc10787c1a98bc08787c19787b18787a1098ab38787b1798ab30787b1698ab28787b1598ab20787b1498ab18787b1398ab10787b1298aa08787a11787908989a38787a0f989a30787a0e989a28787a0d989a20787a0c989a18787a0b989a10787a0a989908787909787898893878790798893078790698892878790598892078790498891878790398891078790298880878780133084082677050201e01a6ab3a082000023a092800023a0a3000023a0b3800027b6858027b6950027b6a48027b6b40028268606f888269686f99826a7897aa207b6978027b6870027b6a680249266002837983674002330802330a400a07955160fd8210980282159002821688029511a00232003307403308205020200132ab7c78117c79107c7a127c7b13978808d4980897aa1097bb18d4ba0ad4a8087c79157c7a147c7b167c7c17979908d4a90997bb1097cc18d4cb0bd4b909979920d489027c79017c7a7c7b027c7c03979908d4a90997bb1097cc18d4cb0bd4b9097c7a057c7b047c7c067c780797aa08d4ba0a97cc10978818d4c808d4a808978820d498037c78197c7a187c7b1a7c7c1b978808d4a80897bb1097cc18d4cb0bd4b8087c7a1d7c7b1c7c7c1e7c791f97aa08d4ba0a97cc10979918d4c909d4a909979920d4890a7c78097c79087c7b0a7c7c0b978808d4980897bb1097cc18d4cb0bd4b8087c790d7c7b0c7c7c0e7c770f979908d4b90997cc10977718d4c707d49707977720d487076f7b6fa86f396f277b67787b6968d497076489d4b808d478089888207b6b70d4b707977720d48707520731057b696083973308207b675850202201eea946171f46171e46171d46171c46171b46171a46171946171846171746171646171546171446171346171246171146171046170f46170e46170d46170c46170b46170a461709461708461707461706461705461704461703a00046170279461701c300460708826860958704d88708826a78c88a09d8a90ada880a826870c88a0ad88a08826b68c88b0b7b6948017b6740017b6a500195676001956840017b6b580150202401d2ef826768018262780182636001826a70012815043307403308205020260128a97c78117c79107c7a127c7b13978808d4980897aa1097bb18d4ba0ad4a8087c79157c7a147c7b167c7c17979908d4a90997bb1097cc18d4cb0bd4b909979920d489027c79017c7a7c7b027c7c03979908d4a90997bb1097cc18d4cb0bd4b9097c7a057c7b047c7c067c780797aa08d4ba0a97cc10978818d4c808d4a808978820d498037c78197c7a187c7b1a7c7c1b978808d4a80897bb1097cc18d4cb0bd4b8087c7a1d7c7b1c7c7c1e7c791f97aa08d4ba0a97cc10979918d4c909d4a909979920d4890a7c78097c79087c7b0a7c7c0b978808d4980897bb1097cc18d4cb0bd4b8087c790d7c7b0c7c7c0e7c770f979908d4b90997cc10977718d4c707d49707977720d487076f7b6fa86f396f277b67787b6968d497076489d4b808d478089888207b6b70d4b707977720d48707520727037b696083973308207b675850202801e4a746171f46171e46171d46171c46171b46171a46171946171846171746171646171546171446171346171246171146171046170f46170e46170d46170c46170b46170a461709461708461707461706461705461704461703a00046170279461701c300460708826860958704d88708826a78c88a09d8a90ada880a826870c88a0ad88a08826b68c88b0b7b6988007b6780007b6a90009567a000956880007b6b980050202a010df08267a8008262b8008263a000826ab000280b0233074033082050202c011ea77c78117c79107c7a127c7b13978808d4980897aa1097bb18d4ba0ad4a8087c79157c7a147c7b167c7c17979908d4a90997bb1097cc18d4cb0bd4b909979920d489027c79017c7a7c7b027c7c03979908d4a90997bb1097cc18d4cb0bd4b9097c7a057c7b047c7c067c780797aa08d4ba0a97cc10978818d4c808d4a808978820d498037c78197c7a187c7b1a7c7c1b978808d4a80897bb1097cc18d4cb0bd4b8087c7a1d7c7b1c7c7c1e7c791f97aa08d4ba0a97cc10979918d4c909d4a909979920d4890a7c78097c79087c7b0a7c7c0b978808d4980897bb1097cc18d4cb0bd4b8087c790d7c7b0c7c7c0e7c770f979908d4b90997cc10977718d4c707d49707977720d487076f7b6fa86f396f277b67787b6968d497076489d4b808d478089888207b6b70d4b707977720d4870752071d017b696083973308207b675850202e01daa546171f46171e46171d46171c46171b46171a46171946171846171746171646171546171446171346171246171146171046170f46170e46170d46170c46170b46170a461709461708461707461706461705461704461703a00046170279461701c300460708826860958704d88708826a78c88a09d8a90ada880a826870c88a0ad88a08826b68c88b0b7b69c8007b67c0007b6ad0009567e0009568c0007b6bd800502030013cf08267e8008262f8008263e000826af00001826878d3870bd8870c6480826460d84308dab80c826970c99a0bd89a0a826968c99209c9a909d8cb0ac9a909c9cb0bc90707c98708c94307d49808d4b709d48909d4b808989920978820d4980851085e00492630014926280149262001140700000000717b484e956820017b673801330750203201eba449261801492610014926000111330704956800014926080150203401cda433082433075020360182a483783307013309240a0d0183787b68788267585020380169a483783307018269780a0d330733003a012886a5330750203a0181a533070150203c0178a59511b07b10487b15409515508411f08272827308827b10827718828c828908828a108288187b18187b1a107b19087b1c7b17387b1b307b132895172064187b122033003e01951160ff7b1098007b1590007b1688009515a0008411e0828918828a08828b108288d4a909d4b808d498088e887b1818827a187b1a8279107b19088278087b181082767b1a587b19507b18487b164049117849117049116849116048112020831840831a60831b203309ff33070a08821760821868821978821a70821b1897bb28140cffffffffff00ffffd2ca0ad4ba0a821b7b1b58821b087b1b50821b107b1b487b16407b19787b1a707b18687b1760831840831a603309ff330b2033070a0f955160ff8210980082159000821688009511a00032009551b0821048821540951150320049489220248414d249525252a22a2529499224499224499224499224499224499224499224494a4a432244444492109224499224499224499224292535494922499224912495240124499224492a094992244992244992a4244992244992244992244992244992244992244992244992aa244992154aad42d590502b54699224490849922449922449922409492149a82610040202121111499294404020440412119188882889888824494a23a99244444492242511119124494944442449520a559a541252922449922449922449922449922449922449922449922449922449922449922455494aa9949624494a499224424892240949a45292244948922449922449922425499224499224499224499224499224499224499224499254254992ac506a29544a29499224499224499224499224499224495292244992242994d2a42495249124952449922449922449929294924449922449a4a44900495291240920492549923449924a92a4244992245aa1942629494544248990244944921011111191a4242921094992244992244992a4244992244992244992244992244992244992244992244992aa244992154a9514aa34492a4949922449924a91244992244992244992244992244992244992244992244992244992244992244992244992244992244992244992942449922449922449922449559292a4244912212489240949a4922449429224499224499224294992244992244992244992244992244992244992244992a42a4992648552939484524a9224499224499224494a92244992244992244928a549929424491225a924495292a4244912212489240949a45292244948922449922449922425499224499224499224499224499224499224499224499254254992ac506a29544a29499224499224499224499224499224495292244992242994d2922421242549924a4444a424494a448488881011a92421499224499224499294244992244992244992244992244992244992244992244952952449b242a992429596a4922449849024922424914a929024499224499224494a9224499224499224499224499224499224499224499224a94a922459a1d40092520a499224499224499224499294a4504a9324294992244a52495292a4244912212489240949a49224244992244992244992922449922449922449922449922449922449922449922449aa92244956283580a494429224499224499224499224252994d22425a924495292244924499224495249484a9224499224499224499224499224294a2192244992244992244992244912405245122449922449922489888888888848499224495292246944442449929224498922a294242549448488881011a91191244922492489249144121111112949929224258a442291888888881011a9444444499024499224499224494a9224499224499224499224499224499224499224499224a94a52922491922049922449922449922449428424499224898888082222929424499224499224c952508a2629492549929224492249922449924a82a4244992244992244992244992244992a214449224499224499224499224490248aa488224499288888888882422222222222225499224494992a44992a42449924892244992a49220294992244992244992244992244992a428059124499224499224499224499200922a9220499224492222222222222222222225499224494992a4499224499224499224499224499224499224499224499224494a92244992244992aa24499224499224499224492a4989244912495250a59424499224499224499224499224499224294992244992a424492222a2240124054924095250124d929492244992949424491240529024254841493422229224494a942449922422222222222249929424918888244992244a414aa924499224499224499224499224499224494992244992a49224898888260920294822499082926892544444a4464a92244892244d92244992244992924a10458d2449b2ca924444444992a42449924892244992a49220294992244992244992244992244992a428059124499224499224499224499200922a92204992244992241111111111111129499224494a92248d8848922449922411232222925434494a9224111121222244446a449224892448922449922449922425499224499224499224499224499224499224499224499294524a9392929424128924499224914824920a5241248a88882489249224492449258244448488881011a98888001240222244444424151121222244442a128924419224499224499224294992244992244992244992244992244992244992244992a42a499224495212a4945292244992244992244992244992244992a42449922449922084101211111111222235222249429224119224499244232292244992244924419224499224499224294992244992244992244992244992244992244992244992a494529a9494a4249148244992248944221115a4824814111149124924499248924a04898808111121225211110124804444888888482a224244448888542412498224499224499224495292244992244992244992244992244992244992244992244955922489242909524a2949922449922449922449922449922449529224499224491042082322524a11114552444494044992244992244992a4244992244992244992244992244992244992244992244992aa24254992484990244992244992244992242142922449922422222288884812244992244992244992922449922449922449922449922449922449922449922449aa929424492225419224499224499224499284084992244992888888202222499024499224499224494a9224499224499224499224499224499224499224499224a94a529224899404499224499224499224491222244992244922222282888824419224499224499224294992244992244992244992244992244992244992244992a42a4949922452122449922449922449922449889024499224898888082222262949922449922449928c8800220a224222821494b482524b82926892a424254952929420494a9224254992449224499224950449499224499224499224499224499224452988244992244992244992244992049054910449922489888888888888884822222225499224494992a44992a42449924892244992a49220294992244992244992244992244992a428059124499224499224499224499200922a9220499224499224494444444444444a92244992922449932449499224912449922449254152922449922449922449922449922449510a224992244992244992244992240124552441922449922449444444441211119192244992a42449d2882425a9264949224992441411a5242949121121222244442a1249448488442222a9281289442222444484884845444824128988a4a2111149922449922425499224499224222222224244a422221289442222a98808111121225211110124804444888888482a8a4422494a522549921211111111222215894422499024499224499224494a9224499224499224499224499224499224499224499224a94a922449a2a420a59492244992244992244992244992244992242549922449920450528994942425499220a59492244992244992244992244992244992242549922449920421841011915212115124454444499024499224499224494a9224499224499224499224499224499224499224499224a94a529224899404499224499224499224491222244992244922222282888824419224499224499224294992244992244992244992244992244992244992244992a42a494992245212244992244992244992244988902449922489888808222292044992244992244992a4244992244992244992244992244992244992244992244992aa242549924849902449922449922449922421429224499224222222888898a424499224499224493222028828880889085250d292a0a422050992242529499292a44444442449494a4a9292244922492a499200929224499224a9888828490200"
				},
				"methodIdentifiers": {
					"deadline()": "29dcb0cf",
					"deposit(uint256)": "b6b55f25",
					"initialTime()": "9ced0e9b",
					"isContractFunded()": "c934e08e",
					"isWithdraw()": "dbae172c",
					"owner()": "8da5cb5b",
					"withdraw(address,bool)": "5437e401"
				}
			},
			"hash": "3793e865e19cda689444985eedcf506af0d8b0f39a588252fef43303f834590c",
			"factoryDependencies": {}
		}
	}
}